{
  "_format": "hh-sol-artifact-1",
  "contractName": "WeightedPool2TokensFactory",
  "sourceName": "contracts/WeightedPool2TokensFactory.sol",
  "abi": [
    {
      "inputs": [
        {
          "internalType": "contract IVault",
          "name": "vault",
          "type": "address"
        }
      ],
      "stateMutability": "nonpayable",
      "type": "constructor"
    },
    {
      "anonymous": false,
      "inputs": [
        {
          "indexed": true,
          "internalType": "address",
          "name": "pool",
          "type": "address"
        }
      ],
      "name": "PoolCreated",
      "type": "event"
    },
    {
      "inputs": [
        {
          "internalType": "string",
          "name": "name",
          "type": "string"
        },
        {
          "internalType": "string",
          "name": "symbol",
          "type": "string"
        },
        {
          "internalType": "contract IERC20[]",
          "name": "tokens",
          "type": "address[]"
        },
        {
          "internalType": "uint256[]",
          "name": "weights",
          "type": "uint256[]"
        },
        {
          "internalType": "uint256",
          "name": "swapFeePercentage",
          "type": "uint256"
        },
        {
          "internalType": "bool",
          "name": "oracleEnabled",
          "type": "bool"
        },
        {
          "internalType": "address",
          "name": "owner",
          "type": "address"
        }
      ],
      "name": "create",
      "outputs": [
        {
          "internalType": "address",
          "name": "",
          "type": "address"
        }
      ],
      "stateMutability": "nonpayable",
      "type": "function"
    },
    {
      "inputs": [],
      "name": "getCreationCode",
      "outputs": [
        {
          "internalType": "bytes",
          "name": "",
          "type": "bytes"
        }
      ],
      "stateMutability": "view",
      "type": "function"
    },
    {
      "inputs": [],
      "name": "getCreationCodeContracts",
      "outputs": [
        {
          "internalType": "address",
          "name": "contractA",
          "type": "address"
        },
        {
          "internalType": "address",
          "name": "contractB",
          "type": "address"
        }
      ],
      "stateMutability": "view",
      "type": "function"
    },
    {
      "inputs": [],
      "name": "getPauseConfiguration",
      "outputs": [
        {
          "internalType": "uint256",
          "name": "pauseWindowDuration",
          "type": "uint256"
        },
        {
          "internalType": "uint256",
          "name": "bufferPeriodDuration",
          "type": "uint256"
        }
      ],
      "stateMutability": "view",
      "type": "function"
    },
    {
      "inputs": [],
      "name": "getVault",
      "outputs": [
        {
          "internalType": "contract IVault",
          "name": "",
          "type": "address"
        }
      ],
      "stateMutability": "view",
      "type": "function"
    },
    {
      "inputs": [
        {
          "internalType": "address",
          "name": "pool",
          "type": "address"
        }
      ],
      "name": "isPoolFromFactory",
      "outputs": [
        {
          "internalType": "bool",
          "name": "",
          "type": "bool"
        }
      ],
      "stateMutability": "view",
      "type": "function"
    }
  ],
  "bytecode": "0x6101406040523480156200001257600080fd5b5060405162007992380380620079928339810160408190526200003591620001ae565b80604051806020016200004890620001a0565b601f1982820381018352601f909101166040528051819060006200006e600283620001f6565b60a08190529050600062000083828462000219565b60e0819052828552905083620000a5816200010a602090811b6200035117901c565b6001600160a01b03166080528285018051838252620000d0826200010a602090811b6200035117901c565b6001600160a01b0390811660c05295909252525050929092166101005250620000ff90506276a7004262000233565b61012052506200024e565b80517f602038038060206000396000f3fefefefefefefefefefefefefefefefefefefe808352600091602081018484f090845291506001600160a01b0382166200019a5760405162461bcd60e51b815260206004820152601660248201527f434f44455f4445504c4f594d454e545f4641494c454400000000000000000000604482015260640160405180910390fd5b50919050565b616c4a8062000d4883390190565b600060208284031215620001c157600080fd5b81516001600160a01b0381168114620001d957600080fd5b9392505050565b634e487b7160e01b600052601160045260246000fd5b6000826200021457634e487b7160e01b600052601260045260246000fd5b500490565b6000828210156200022e576200022e620001e0565b500390565b60008219821115620002495762000249620001e0565b500190565b60805160a05160c05160e0516101005161012051610a97620002b1600039600081816102c601526102f20152600061032f0152600061044701526000818160e201526104260152600061040501526000818160bd01526103e40152610a976000f3fe608060405234801561001057600080fd5b50600436106100615760003560e01c8062c194db146100665780631596019b14610084578063174481fa146100af5780632da47c401461010d5780636634b7531461012a5780638d928af814610166575b600080fd5b61006e61016e565b60405161007b919061062c565b60405180910390f35b61009761009236600461081e565b61018d565b6040516001600160a01b03909116815260200161007b565b604080516001600160a01b037f0000000000000000000000000000000000000000000000000000000000000000811682527f00000000000000000000000000000000000000000000000000000000000000001660208201520161007b565b6101156102c0565b6040805192835260208301919091520161007b565b610156610138366004610902565b6001600160a01b031660009081526020819052604090205460ff1690565b604051901515815260200161007b565b61009761032d565b6060610188604051806020016040528060008152506103e0565b905090565b600080600061019a6102c0565b9150915060006040518061018001604052806101b461032d565b6001600160a01b031681526020018c81526020018b81526020018a6000815181106101e1576101e161091f565b60200260200101516001600160a01b031681526020018a60018151811061020a5761020a61091f565b60200260200101516001600160a01b03168152602001896000815181106102335761023361091f565b60200260200101518152602001896001815181106102535761025361091f565b602002602001015181526020018881526020018481526020018381526020018715158152602001866001600160a01b031681525090506102b18160405160200161029d9190610935565b6040516020818303038152906040526104cc565b9b9a5050505050505050505050565b600080427f000000000000000000000000000000000000000000000000000000000000000081101561032257610316817f0000000000000000000000000000000000000000000000000000000000000000610a32565b9362278d009350915050565b506000928392509050565b7f000000000000000000000000000000000000000000000000000000000000000090565b80517f602038038060206000396000f3fefefefefefefefefefefefefefefefefefefe808352600091602081018484f090845291506001600160a01b0382166103da5760405162461bcd60e51b815260206004820152601660248201527510d3d11157d111541313d65351539517d1905253115160521b60448201526064015b60405180910390fd5b50919050565b60607f00000000000000000000000000000000000000000000000000000000000000007f00000000000000000000000000000000000000000000000000000000000000007f00000000000000000000000000000000000000000000000000000000000000007f000000000000000000000000000000000000000000000000000000000000000060006104728285610a49565b875190915060006104838284610a49565b9050604051975060208101880160405280885260208801866000828a3c846000888301883c50602089810190898501016104be81838661052c565b505050505050505050919050565b6000806104d883610582565b6001600160a01b038116600081815260208190526040808220805460ff191660011790555192935090917f83a48fbcfc991335314e74d0496aab6a1987e992ddc85dddbcc4d6dd6ef2e9fc9190a292915050565b602081106105645781518352610543602084610a49565b9250610550602083610a49565b915061055d602082610a32565b905061052c565b905182516020929092036101000a6000190180199091169116179052565b60008061058e836103e0565b905060008151602083016000f090506001600160a01b0381166105d85760405162461bcd60e51b8152602060048201526002602482015261434360f01b60448201526064016103d1565b9392505050565b6000815180845260005b81811015610605576020818501810151868301820152016105e9565b81811115610617576000602083870101525b50601f01601f19169290920160200192915050565b6020815260006105d860208301846105df565b634e487b7160e01b600052604160045260246000fd5b604051601f8201601f191681016001600160401b038111828210171561067d5761067d61063f565b604052919050565b600082601f83011261069657600080fd5b81356001600160401b038111156106af576106af61063f565b6106c2601f8201601f1916602001610655565b8181528460208386010111156106d757600080fd5b816020850160208301376000918101602001919091529392505050565b60006001600160401b0382111561070d5761070d61063f565b5060051b60200190565b6001600160a01b038116811461072c57600080fd5b50565b600082601f83011261074057600080fd5b81356020610755610750836106f4565b610655565b82815260059290921b8401810191818101908684111561077457600080fd5b8286015b8481101561079857803561078b81610717565b8352918301918301610778565b509695505050505050565b600082601f8301126107b457600080fd5b813560206107c4610750836106f4565b82815260059290921b840181019181810190868411156107e357600080fd5b8286015b8481101561079857803583529183019183016107e7565b8035801515811461080e57600080fd5b919050565b803561080e81610717565b600080600080600080600060e0888a03121561083957600080fd5b87356001600160401b038082111561085057600080fd5b61085c8b838c01610685565b985060208a013591508082111561087257600080fd5b61087e8b838c01610685565b975060408a013591508082111561089457600080fd5b6108a08b838c0161072f565b965060608a01359150808211156108b657600080fd5b506108c38a828b016107a3565b945050608088013592506108d960a089016107fe565b91506108e760c08901610813565b905092959891949750929550565b6001600160a01b03169052565b60006020828403121561091457600080fd5b81356105d881610717565b634e487b7160e01b600052603260045260246000fd5b602081526109476020820183516108f5565b600060208301516101808060408501526109656101a08501836105df565b91506040850151601f1985840301606086015261098283826105df565b925050606085015161099760808601826108f5565b5060808501516109aa60a08601826108f5565b5060a085015160c085015260c085015160e085015260e0850151610100818187015280870151915050610120818187015280870151915050610140818187015280870151915050610160610a018187018315159052565b8601519050610a12858301826108f5565b5090949350505050565b634e487b7160e01b600052601160045260246000fd5b600082821015610a4457610a44610a1c565b500390565b60008219821115610a5c57610a5c610a1c565b50019056fea264697066735822122097c5ef3b6a01769d4fa23b7e01d85bed908d85363c619e8398b047d0ded99fae64736f6c634300080a00336102a06040527f6e71edae12b1b97f4d1f60370fef10105fa2faae0126114a169c64845d6126c9610120523480156200003757600080fd5b5060405162006c4a38038062006c4a8339810160408190526200005a916200091c565b6101008101516101208201516020808401516040808601518651825180840190935260018352603160f81b838601526101608801513360601b6080526001600160a01b031660a05283519394919390928592839283918791620000c491600391908501906200073e565b508051620000da9060049060208401906200073e565b50506005805460ff1916601217905550815160209283012060c05280519082012060e0527f8b73c3c69bb8fe3d512ecc4cf759cc79239f7b179b0ffacaa9a75d522b39400f610100526001600160a01b0390921661014052506200015592506276a700851115915061019490620012ae62000473821b17901c565b6200017462278d008211156101956200047360201b620012ae1760201c565b600062000182834262000a69565b610160819052905062000196828262000a69565b61018052505050610140810151620001ae9062000493565b60e0810151620001be90620004eb565b80516040516309b2760f60e01b81526000916001600160a01b0316906309b2760f90620001f19060029060040162000a84565b6020604051808303816000875af115801562000211573d6000803e3d6000fd5b505050506040513d601f19601f8201168201806040525081019062000237919062000aad565b604080516002808252606082018352929350600092909160208301908036833701905050905082606001518160008151811062000278576200027862000ac7565b60200260200101906001600160a01b031690816001600160a01b031681525050826080015181600181518110620002b357620002b362000ac7565b6001600160a01b0392831660209182029290920101528351166366a9c7d283836002604051908082528060200260200182016040528015620002ff578160200160208202803683370190505b506040518463ffffffff1660e01b8152600401620003209392919062000add565b600060405180830381600087803b1580156200033b57600080fd5b505af115801562000350573d6000803e3d6000fd5b5050506101a0839052506060830180516001600160a01b039081166101c0526080850151166101e0525162000385906200057e565b61026052608083015162000399906200057e565b6102808181525050620003c8662386f26fc100008460a00151101561012e6200047360201b620012ae1760201c565b620003ef662386f26fc100008460c00151101561012e6200047360201b620012ae1760201c565b6000620004138460c001518560a001516200061160201b620012c01790919060201c565b905062000438670de0b6b3a764000082146101346200047360201b620012ae1760201c565b60a0840180516102005260c0850180516102205251905110156200045e57600162000461565b60005b60ff16610240525062000d0092505050565b816200048f576200048f816200066f60201b620013151760201c565b5050565b620004af81600954620006c260201b620013681790919060201c565b60095560405181151581527f3e350b41e86a8e10f804ade6d35340d620be35569cc75ac943e8bb14ab80ead1906020015b60405180910390a150565b6200050b64e8d4a5100082101560cb6200047360201b620012ae1760201c565b6200052e67016345785d8a000082111560ca6200047360201b620012ae1760201c565b6200054a81600954620006e160201b620013761790919060201c565b6009556040518181527fa9ba3ffe0b6c366b81232caab38605a0699ad5398d6cce76f91ee809e322dafc90602001620004e0565b600080826001600160a01b031663313ce5676040518163ffffffff1660e01b8152600401602060405180830381865afa158015620005c0573d6000803e3d6000fd5b505050506040513d601f19601f82011682018060405250810190620005e6919062000b79565b60ff1690506000620005fa82601262000b9e565b90506200060981600a62000cb5565b949350505050565b60008062000620838562000a69565b905083811015620006665760405162461bcd60e51b815260206004820152600c60248201526b4144445f4f564552464c4f5760a01b604482015260640160405180910390fd5b90505b92915050565b62461bcd60e51b6000908152602060045260076024526642414c23000030600a808404818106603090810160081b95839006959095019082900491820690940160101b939093010160c81b604452606490fd5b600062000666826055856200070060201b62001384179092919060201c565b600062000666826056856200072960201b620013ab179092919060201c565b60006001821b1984168284620007185760006200071b565b60015b60ff16901b17949350505050565b6001600160401b03811b1992909216911b1790565b8280546200074c9062000cc3565b90600052602060002090601f016020900481019282620007705760008555620007bb565b82601f106200078b57805160ff1916838001178555620007bb565b82800160010185558215620007bb579182015b82811115620007bb5782518255916020019190600101906200079e565b50620007c9929150620007cd565b5090565b5b80821115620007c95760008155600101620007ce565b634e487b7160e01b600052604160045260246000fd5b60405161018081016001600160401b0381118282101715620008205762000820620007e4565b60405290565b604051601f8201601f191681016001600160401b0381118282101715620008515762000851620007e4565b604052919050565b80516001600160a01b03811681146200087157600080fd5b919050565b600082601f8301126200088857600080fd5b81516001600160401b03811115620008a457620008a4620007e4565b6020620008ba601f8301601f1916820162000826565b8281528582848701011115620008cf57600080fd5b60005b83811015620008ef578581018301518282018401528201620008d2565b83811115620009015760008385840101525b5095945050505050565b805180151581146200087157600080fd5b6000602082840312156200092f57600080fd5b81516001600160401b03808211156200094757600080fd5b9083019061018082860312156200095d57600080fd5b62000967620007fa565b620009728362000859565b81526020830151828111156200098757600080fd5b620009958782860162000876565b602083015250604083015182811115620009ae57600080fd5b620009bc8782860162000876565b604083015250620009d06060840162000859565b6060820152620009e36080840162000859565b608082015260a0838101519082015260c0808401519082015260e0808401519082015261010080840151908201526101208084015190820152610140915062000a2e8284016200090b565b82820152610160915062000a4482840162000859565b91810191909152949350505050565b634e487b7160e01b600052601160045260246000fd5b6000821982111562000a7f5762000a7f62000a53565b500190565b602081016003831062000aa757634e487b7160e01b600052602160045260246000fd5b91905290565b60006020828403121562000ac057600080fd5b5051919050565b634e487b7160e01b600052603260045260246000fd5b6000606082018583526020606081850152818651808452608086019150828801935060005b8181101562000b295784516001600160a01b03168352938301939183019160010162000b02565b50508481036040860152855180825290820192508186019060005b8181101562000b6b5782516001600160a01b03168552938301939183019160010162000b44565b509298975050505050505050565b60006020828403121562000b8c57600080fd5b815160ff811681146200066657600080fd5b60008282101562000bb35762000bb362000a53565b500390565b600181815b8085111562000bf957816000190482111562000bdd5762000bdd62000a53565b8085161562000beb57918102915b93841c939080029062000bbd565b509250929050565b60008262000c125750600162000669565b8162000c215750600062000669565b816001811462000c3a576002811462000c455762000c65565b600191505062000669565b60ff84111562000c595762000c5962000a53565b50506001821b62000669565b5060208310610133831016604e8410600b841016171562000c8a575081810a62000669565b62000c96838362000bb8565b806000190482111562000cad5762000cad62000a53565b029392505050565b600062000666838362000c01565b600181811c9082168062000cd857607f821691505b6020821081141562000cfa57634e487b7160e01b600052602260045260246000fd5b50919050565b60805160a05160c05160e05161010051610120516101405161016051610180516101a0516101c0516101e0516102005161022051610240516102605161028051615e6162000de96000396000611e3101526000611e5701526000818161288f015281816128c9015261290b015260008181611e850152611f21015260008181611eab01528181611eff0152611f4f0152600050506000610cfc015260006108d401526000611510015260006114ec01526000610ca201526000610fd0015260006117c601526000611808015260006117e701526000610c7e01526000610bf60152615e616000f3fe608060405234801561001057600080fd5b50600436106101e35760003560e01c806306fdde03146101e8578063095ea7b31461020657806316c38b3c1461022957806318160ddd1461023e5780631c0de051146102505780631dccd8301461027557806323b872dd14610295578063292c914a146102a8578063313ce567146102b05780633331bc36146102c55780633644e515146102d857806338e9922e146102e057806338fff2d0146102f357806339509351146102fb5780634a6b0b151461030e57806355c67628146103455780636028bfd41461034d57806360d1507c1461036e578063679aefce146103b65780636b843239146103be57806370a08231146103de57806374f3b009146104075780637ecebe0014610428578063851c1bb31461045157806387ec681714610464578063893d20e8146104775780638d928af81461049757806395d89b411461049f5780639b02cdde146104a75780639d2c110c146104af578063a457c2d7146104c2578063a9059cbb146104d5578063aaabadc5146104e8578063b10be739146104f0578063b48b5b4014610503578063c0ff1a151461050b578063d505accf14610513578063d5c096c414610526578063dd62ed3e14610539578063f89f27ed1461054c578063ffd088eb14610554575b600080fd5b6101f061055d565b6040516101fd9190615044565b60405180910390f35b6102196102143660046150b9565b6105ef565b60405190151581526020016101fd565b61023c6102373660046150f3565b610606565b005b6002545b6040519081526020016101fd565b61025861061a565b6040805193151584526020840192909252908201526060016101fd565b6102886102833660046151f5565b610643565b6040516101fd91906152f9565b6102196102a336600461530c565b6106fb565b61023c6107c1565b60055460405160ff90911681526020016101fd565b61023c6102d336600461534d565b6107f6565b6102426108aa565b61023c6102ee36600461536f565b6108b9565b6102426108d2565b6102196103093660046150b9565b6108f6565b61031661092d565b6040805196875260208701959095529385019290925260608401521515608083015260a082015260c0016101fd565b610242610988565b61036061035b3660046153f7565b610995565b6040516101fd9291906154f3565b61038161037c36600461536f565b6109c6565b604080519788526020880196909652948601939093526060850191909152608084015260a083015260c082015260e0016101fd565b610242610a49565b6103d16103cc36600461550c565b610a70565b6040516101fd91906155bd565b6102426103ec366004615601565b6001600160a01b031660009081526020819052604090205490565b61041a6104153660046153f7565b610b4d565b6040516101fd92919061561e565b610242610436366004615601565b6001600160a01b031660009081526006602052604090205490565b61024261045f366004615643565b610bf2565b6103606104723660046153f7565b610c57565b61047f610c7c565b6040516001600160a01b0390911681526020016101fd565b61047f610ca0565b6101f0610cc4565b600a54610242565b6102426104bd36600461567c565b610cd3565b6102196104d03660046150b9565b610e87565b6102196104e33660046150b9565b610ec7565b61047f610ed4565b6102426104fe366004615771565b610ede565b610400610242565b610242610ef3565b61023c61052136600461578c565b610fa1565b61041a6105343660046153f7565b611111565b610242610547366004615803565b611245565b6102886112a4565b6201de20610242565b60606003805461056c9061583c565b80601f01602080910402602001604051908101604052809291908181526020018280546105989061583c565b80156105e55780601f106105ba576101008083540402835291602001916105e5565b820191906000526020600020905b8154815290600101906020018083116105c857829003601f168201915b5050505050905090565b60006105fc3384846113c0565b5060015b92915050565b61060e611422565b61061781611450565b50565b60008060006106276114cd565b1592506106326114ea565b915061063c61150e565b9050909192565b606081516001600160401b0381111561065e5761065e615110565b604051908082528060200260200182016040528015610687578160200160208202803683370190505b5090506000610694611532565b905060005b83518110156106f4576106c760088583815181106106b9576106b9615877565b60200260200101518461153f565b8382815181106106d9576106d9615877565b60209081029190910101526106ed816158a3565b9050610699565b5050919050565b6000806107088533611245565b9050336001600160a01b03861614806107215750828110155b6107725760405162461bcd60e51b815260206004820181905260248201527f45524332305f5452414e534645525f455843454544535f414c4c4f57414e434560448201526064015b60405180910390fd5b61077d8585856115f4565b336001600160a01b0386161480159061079d57506001600160801b038114155b156107b6576107b685336107b186856158be565b6113c0565b506001949350505050565b6107c96116b7565b6107d1611422565b6107db60016116ca565b60006107e660025490565b11156107f4576107f461170c565b565b808210801561080757506104008111155b6108435760405162461bcd60e51b815260206004820152600d60248201526c4f55545f4f465f424f554e445360981b6044820152606401610769565b60006108586001600080600080600080611755565b9050825b828110156108a45760008181526008602052604090205461087c906117b4565b6108925760008181526008602052604090208290555b8061089c816158a3565b91505061085c565b50505050565b60006108b46117c2565b905090565b6108c1611422565b6108c96116b7565b61061781611868565b7f000000000000000000000000000000000000000000000000000000000000000090565b3360008181526001602090815260408083206001600160a01b038716845290915281205490916105fc9185906107b19086906158d5565b60008060008060008060006009549050610946816118d1565b9650610951816118dd565b955061095c816118ea565b9450610967816118fc565b93506109728161190c565b925061097d8161191d565b915050909192939495565b60006108b460095461191d565b600060606109a586516002611932565b6109ba8989898989898961193f6119ff611a95565b97509795505050505050565b60008060008060008060006104008810610a195760405162461bcd60e51b815260206004820152601460248201527309ea48286988abe929cac82989288be929c888ab60631b6044820152606401610769565b600088815260086020526040902054610a3181611bb3565b959f949e50929c50909a509850965090945092505050565b60006108b4610a5760025490565b610a5f610ef3565b610a6a9060026158ed565b90611c16565b606081516001600160401b03811115610a8b57610a8b615110565b604051908082528060200260200182016040528015610ab4578160200160208202803683370190505b5090506000610ac1611532565b9050610add604080518082019091526000808252602082015290565b60005b8451811015610b4557848181518110610afb57610afb615877565b60200260200101519150610b188260000151848460200151611c9a565b848281518110610b2a57610b2a615877565b6020908102919091010152610b3e816158a3565b9050610ae0565b505050919050565b60608088610b77610b5c610ca0565b6001600160a01b0316336001600160a01b03161460cd6112ae565b610b8c610b826108d2565b82146101f46112ae565b610b9587611cb1565b6000806000610ba98d8d8d8d8d8d8d61193f565b925092509250610bb98c84611d2e565b610bc2826119ff565b610bcb816119ff565b610bd36114cd565b15610be057610be061170c565b909c909b509950505050505050505050565b60007f000000000000000000000000000000000000000000000000000000000000000082604051602001610c3a9291909182526001600160e01b031916602082015260240190565b604051602081830303815290604052805190602001209050919050565b60006060610c6786516002611932565b6109ba89898989898989611d38611db8611a95565b7f000000000000000000000000000000000000000000000000000000000000000090565b7f000000000000000000000000000000000000000000000000000000000000000090565b60606004805461056c9061583c565b6000610cdd6116b7565b8360800151610ced610b5c610ca0565b610cf8610b826108d2565b60007f00000000000000000000000000000000000000000000000000000000000000006001600160a01b031686602001516001600160a01b03161490506000610d4082611e28565b90506000610d4e8315611e28565b90506000610d5b84611e7c565b90506000610d698515611e7c565b9050610d758985611ed0565b9850610d818884611ed0565b9750610da98a60a0015186610d965789610d98565b8a5b87610da3578b611edc565b8a611edc565b60008a516001811115610dbe57610dbe61590c565b1415610e2c576000610ddc610dd1610988565b60608d015190611fdd565b9050610dfe610df8828d6060015161205590919063ffffffff16565b86611ed0565b60608c01526000610e128c8c8c87876120a2565b9050610e1e81866120c1565b985050505050505050610e7f565b610e3a8a6060015184611ed0565b60608b01526000610e4e8b8b8b86866120cd565b9050610e5a81866120e0565b9050610e76610e6f610e6a610988565b6120ec565b8290612116565b97505050505050505b509392505050565b600080610e943385611245565b9050808310610eae57610ea9338560006113c0565b610ebd565b610ebd33856107b186856158be565b5060019392505050565b60006105fc3384846115f4565b60006108b4612194565b6000610600600883610eee611532565b6121ff565b600080610efe610ca0565b6001600160a01b031663f94d4668610f146108d2565b6040518263ffffffff1660e01b8152600401610f3291815260200190565b600060405180830381865afa158015610f4f573d6000803e3d6000fd5b505050506040513d6000823e601f3d908101601f19168201604052610f779190810190615988565b50915050610f8481611cb1565b6000610f8e61224c565b9050610f9a81836122c7565b9250505090565b610faf8442111560d16112ae565b6001600160a01b0387811660008181526006602090815260408083205481517f00000000000000000000000000000000000000000000000000000000000000008185015280830195909552948b166060850152608084018a905260a0840185905260c08085018a90528151808603909101815260e0909401905282519201919091209061103b82612381565b6040805160008082526020820180845284905260ff8a169282019290925260608101889052608081018790529192509060019060a0016020604051602081039080840390855afa158015611093573d6000803e3d6000fd5b5050604051601f19015191506110d590506001600160a01b038216158015906110cd57508b6001600160a01b0316826001600160a01b0316145b6101f86112ae565b6110e08460016158d5565b6001600160a01b038c166000908152600660205260409020556111048b8b8b6113c0565b5050505050505050505050565b60608088611120610b5c610ca0565b61112b610b826108d2565b6111336116b7565b600061113e60025490565b6111b55761114e8b8b8b886123b0565b94509050611163620f424082101560cc6112ae565b6111716000620f4240612441565b61118789611182620f4240846158be565b612441565b61119084611db8565b604080516002808252606082018352909160208301908036833701905050925061122f565b6111be88611cb1565b6111fd87896000815181106111d5576111d5615877565b60200260200101518a6001815181106111f0576111f0615877565b6020026020010151611edc565b61120c8b8b8b8b8b8b8b611d38565b9095509350905061121d8982612441565b61122684611db8565b61122f836119ff565b61123761170c565b505097509795505050505050565b600061124f610ca0565b6001600160a01b0316826001600160a01b0316141561127657506001600160801b03610600565b6001600160a01b038084166000908152600160209081526040808320938616835292905220545b9050610600565b60606108b461224c565b816112bc576112bc81611315565b5050565b6000806112cd83856158d5565b90508381101561130e5760405162461bcd60e51b815260206004820152600c60248201526b4144445f4f564552464c4f5760a01b6044820152606401610769565b9392505050565b62461bcd60e51b6000908152602060045260076024526642414c23000030600a808404818106603090810160081b95839006959095019082900491820690940160101b939093010160c81b604452606490fd5b600061130e83836055611384565b600061130e838360566113ab565b60006001821b198416828461139a57600061139d565b60015b60ff16901b17949350505050565b6001600160401b03811b1992909216911b1790565b6001600160a01b0383811660008181526001602090815260408083209487168084529482529182902085905590518481527f8c5be1e5ebec7d5bd14f71427d1e84f3dd0314c0f7b2291e5b200ac8c7c3b92591015b60405180910390a3505050565b60006114396000356001600160e01b031916610bf2565b9050610617611448823361244b565b6101916112ae565b80156114705761146b6114616114ea565b42106101936112ae565b611485565b61148561147b61150e565b42106101a96112ae565b6007805460ff19168215159081179091556040519081527f9e3a5e37224532dea67b89face185703738a228a6e8a23dee546960180d3be64906020015b60405180910390a150565b60006114d761150e565b4211806108b457505060075460ff161590565b7f000000000000000000000000000000000000000000000000000000000000000090565b7f000000000000000000000000000000000000000000000000000000000000000090565b60006108b46009546118fc565b60008260200151600014156115885760405162461bcd60e51b815260206004820152600f60248201526e4f5241434c455f4241445f5345435360881b6044820152606401610769565b60006115ad85856000015185876020015188604001516115a891906158d5565b61252e565b905060006115c586866000015186886040015161252e565b90506115ea856020015183836115db9190615a55565b6115e59190615aaa565b612782565b9695505050505050565b61160b6001600160a01b03841615156101986112ae565b6116226001600160a01b03831615156101996112ae565b6001600160a01b03831660009081526020819052604090205461164890826101a061279c565b6001600160a01b0380851660009081526020819052604080822093909355908416815220546116789082906158d5565b6001600160a01b03838116600081815260208181526040918290209490945551848152909291861691600080516020615e0c8339815191529101611415565b6107f46116c26114cd565b6101926112ae565b6009546116d79082611368565b60095560405181151581527f3e350b41e86a8e10f804ade6d35340d620be35569cc75ac943e8bb14ab80ead1906020016114c2565b6009546117188161190c565b156106175761173261172b600a546127b7565b8290612805565b905061174f61174861174360025490565b6127b7565b8290612812565b60095550565b60008161176384601f612820565b623fffff60541b605487901b1661177b88606a612820565b623fffff609f1b609f8b901b166117938c60b5612820565b6001600160ea1b031960ea8f901b1617171717171798975050505050505050565b6000637fffffff8216610600565b60007f00000000000000000000000000000000000000000000000000000000000000007f00000000000000000000000000000000000000000000000000000000000000007f000000000000000000000000000000000000000000000000000000000000000046604080516020810195909552840192909252606083015260808201523060a082015260c00160405160208183030381529060405280519060200120905090565b61187b64e8d4a5100082101560cb6112ae565b61189167016345785d8a000082111560ca6112ae565b60095461189e9082611376565b6009556040518181527fa9ba3ffe0b6c366b81232caab38605a0699ad5398d6cce76f91ee809e322dafc906020016114c2565b60006106008282612831565b6000610600826016612831565b6000602c82901c637fffffff16610600565b6000604b82901c6103ff16610600565b60006001605583901c811614610600565b6000605682901c6001600160401b0316610600565b6112bc81831460676112ae565b6000606080600061194e61224c565b90506119586114cd565b156119a65761197487896000815181106111d5576111d5615877565b6000611980828a6122c7565b90506119918983600a54848b612858565b92506119a0898461205561294f565b506119c7565b60408051600280825260608201835290916020830190803683370190505091505b6119d2888287612a05565b90945092506119e4888461205561294f565b6119ee81896122c7565b600a55509750975097945050505050565b611a2c81600081518110611a1557611a15615877565b6020026020010151611a276001611e28565b612aa3565b81600081518110611a3f57611a3f615877565b602002602001018181525050611a7381600181518110611a6157611a61615877565b6020026020010151611a276000611e28565b81600181518110611a8657611a86615877565b60200260200101818152505050565b333014611b53576000306001600160a01b0316600036604051611ab9929190615ad8565b6000604051808303816000865af19150503d8060008114611af6576040519150601f19603f3d011682016040523d82523d6000602084013e611afb565b606091505b505090508060008114611b0a57fe5b60046000803e6000516001600160e01b0319166343adbafb60e01b8114611b35573d6000803e3d6000fd5b506020600460003e604060205260243d03602460403e601c3d016000f35b611b5c86611cb1565b600080611b728b8b8b8b8b8b8b8b63ffffffff16565b5091509150611b84818463ffffffff16565b8051601f1982018390526343adbafb603f1983015260200260231982016044820181fd5b505050505050505050565b6000806000806000806000611bc788612abc565b9650611bd288612ac9565b9550611bdd88612ad6565b9450611be888612ae3565b9350611bf388612af0565b9250611bfe88612afd565b9150611c09886117b4565b9050919395979092949650565b600081611c355760405162461bcd60e51b815260040161076990615ae8565b82611c4257506000610600565b6000611c56670de0b6b3a7640000856158ed565b9050670de0b6b3a7640000611c6b8583615b0f565b14611c885760405162461bcd60e51b815260040161076990615b23565b611c928382615b0f565b915050610600565b6000611ca9600885858561252e565b949350505050565b611cbb6001611e28565b81600081518110611cce57611cce615877565b6020026020010151611ce091906158ed565b81600081518110611cf357611cf3615877565b602002602001018181525050611d096000611e28565b81600181518110611d1c57611d1c615877565b6020026020010151611a7391906158ed565b6112bc8282612b0a565b60006060806000611d4761224c565b90506000611d55828a6122c7565b90506000611d688a84600a54858c612858565b9050611d778a8261205561294f565b600080611d858c868b612ba5565b91509150611d968c826112c061294f565b611da0858d6122c7565b600a55909e909d50909b509950505050505050505050565b611de581600081518110611dce57611dce615877565b6020026020010151611de06001611e28565b612c2f565b81600081518110611df857611df8615877565b602002602001018181525050611a7381600181518110611e1a57611e1a615877565b6020026020010151611de060005b600081611e55577f0000000000000000000000000000000000000000000000000000000000000000610600565b7f000000000000000000000000000000000000000000000000000000000000000092915050565b600081611ea9577f0000000000000000000000000000000000000000000000000000000000000000610600565b7f000000000000000000000000000000000000000000000000000000000000000092915050565b600061130e82846158ed565b600954611ee88161190c565b8015611ef357508343115b156108a4576000611f467f0000000000000000000000000000000000000000000000000000000000000000857f000000000000000000000000000000000000000000000000000000000000000086612c6c565b90506000611f7d7f000000000000000000000000000000000000000000000000000000000000000086611f78866118dd565b612c97565b90506000611f8a846118fc565b90506000611f97856118ea565b90506000611fb082848787611fab8b6118d1565b612cbd565b9050808314611ba857611fc38682612d2b565b9550611fcf8642612d41565b600955505050505050505050565b600080611fea83856158ed565b9050831580612001575082611fff8583615b0f565b145b61201d5760405162461bcd60e51b815260040161076990615b49565b8061202c576000915050610600565b670de0b6b3a76400006120406001836158be565b61204a9190615b0f565b611c929060016158d5565b6000828211156120965760405162461bcd60e51b815260206004820152600c60248201526b5355425f4f564552464c4f5760a01b6044820152606401610769565b6000611ca983856158be565b60006120b5858486858a60600151612d59565b90505b95945050505050565b600061130e8383612aa3565b60006120b5858486858a60600151612e04565b600061130e8383612c2f565b6000670de0b6b3a76400008210612104576000610600565b61060082670de0b6b3a76400006158be565b6000816121355760405162461bcd60e51b815260040161076990615ae8565b8261214257506000610600565b6000612156670de0b6b3a7640000856158ed565b9050670de0b6b3a764000061216b8583615b0f565b146121885760405162461bcd60e51b815260040161076990615b23565b826120406001836158be565b600061219e610ca0565b6001600160a01b031663aaabadc56040518163ffffffff1660e01b8152600401602060405180830381865afa1580156121db573d6000803e3d6000fd5b505050506040513d601f19601f820116820180604052508101906108b49190615b6f565b60008181526020849052604081205481612218826117b4565b116122355760405162461bcd60e51b815260040161076990615b8c565b60006122418286612eab565b90506115ea81612782565b6040805160028082526060808301845292600092919060208301908036833701905050905061227b6001611e7c565b8160008151811061228e5761228e615877565b6020026020010181815250506122a46000611e7c565b816001815181106122b7576122b7615877565b6020908102919091010152919050565b670de0b6b3a764000060005b835181101561233f5761232b6123248583815181106122f4576122f4615877565b602002602001015185848151811061230e5761230e615877565b6020026020010151612efb90919063ffffffff16565b8390612f4a565b915080612337816158a3565b9150506122d3565b50600081116106005760405162461bcd60e51b815260206004820152600e60248201526d16915493d7d2539590549250539560921b6044820152606401610769565b600061238b6117c2565b60405161190160f01b6020820152602281019190915260428101839052606201610c3a565b6000606060006123bf84612f9c565b90506123e060008260038111156123d8576123d861590c565b1460ce6112ae565b60006123eb85612fb2565b90506123f981516002611932565b61240281611cb1565b600061240c61224c565b9050600061241a82846122c7565b905060006124298260026158ed565b600a9290925550945090925050505b94509492505050565b6112bc8282612fc8565b600073ba1ba1ba1ba1ba1ba1ba1ba1ba1ba1ba1ba1ba1b61246a610c7c565b6001600160a01b031614158015612485575061248583613039565b156124ad57612492610c7c565b6001600160a01b0316336001600160a01b0316149050610600565b6124b5612194565b6040516326f8aa2160e21b8152600481018590526001600160a01b0384811660248301523060448301529190911690639be2a88490606401602060405180830381865afa15801561250a573d6000803e3d6000fd5b505050506040513d601f19601f8201168201806040525081019061129d9190615bbc565b60008142101561257f5760405162461bcd60e51b815260206004820152601c60248201527b4f5241434c455f494e56414c49445f5345434f4e44535f515545525960201b6044820152606401610769565b600061258b83426158be565b6000858152602088905260408120549192506125a6826117b4565b9050600081116125c85760405162461bcd60e51b815260040161076990615b8c565b8281116126115760006125db82856158be565b9050806125e8848a612eab565b6125f29190615bd9565b6125fc848a61306b565b6126069190615c5e565b945050505050611ca9565b60008061261d886130bb565b600081815260208c90526040812054919250612638826117b4565b9050801561264a576104009350612669565b600080805260208d9052604081205493945092612666906117b4565b90505b868111156126b05760405162461bcd60e51b815260206004820152601460248201527313d49050d31157d45551549657d513d3d7d3d31160621b6044820152606401610769565b50506000806126c18c8885876130c8565b9150915060006126d0836117b4565b6126d9836117b4565b6126e391906158be565b905080156127675760006126f7848e61306b565b612701848f61306b565b61270b9190615a55565b90506000612718856117b4565b612722908b6158be565b90508261272f8284615bd9565b6127399190615aaa565b61274c8f8761306b90919063ffffffff16565b6127569190615c5e565b9a5050505050505050505050611ca9565b612771838d61306b565b9d9c50505050505050505050505050565b6000610600612797655af3107a400084615bd9565b6131cc565b60006127ab84841115836112ae565b60006120b884866158be565b6000806127c3836137fc565b905060008082136127e3576127de652d79883d200083615a55565b6127f3565b6127f3652d79883d200083615c5e565b9050611ca9655af3107a400082615aaa565b600061130e838383613871565b600061130e83836016613871565b661fffffffffffff91909116901b90565b600082821c623fffff16621fffff811361284b5780611ca9565b623fffff19179392505050565b60408051600280825260608083018452926000929190602083019080368337019050509050826128895790506120b8565b612908877f0000000000000000000000000000000000000000000000000000000000000000815181106128be576128be615877565b6020026020010151877f0000000000000000000000000000000000000000000000000000000000000000815181106128f8576128f8615877565b6020026020010151878787613888565b817f00000000000000000000000000000000000000000000000000000000000000008151811061293a5761293a615877565b60209081029190910101529695505050505050565b6129918360008151811061296557612965615877565b60200260200101518360008151811061298057612980615877565b60200260200101518363ffffffff16565b836000815181106129a4576129a4615877565b6020026020010181815250506129e1836001815181106129c6576129c6615877565b60200260200101518360018151811061298057612980615877565b836001815181106129f4576129f4615877565b602002602001018181525050505050565b600060606000612a1484612f9c565b90506000816003811115612a2a57612a2a61590c565b1415612a4557612a3b868686613900565b9250925050612a9b565b6001816003811115612a5957612a5961590c565b1415612a6957612a3b86856139c5565b6002816003811115612a7d57612a7d61590c565b1415612a8e57612a3b8686866139f8565b612a99610150611315565b505b935093915050565b6000612ab282151560046112ae565b61130e8284615b0f565b60006106008260ea612831565b60006106008260b5613a65565b600061060082609f612831565b600061060082606a613a65565b6000610600826054612831565b600061060082601f613a65565b612b216001600160a01b038316151561019b6112ae565b6001600160a01b038216600090815260208190526040902054612b4790826101a161279c565b6001600160a01b038316600090815260208190526040902055600254612b6e9082906158be565b6002556040518181526000906001600160a01b03841690600080516020615e0c833981519152906020015b60405180910390a35050565b600060606000612bb484612f9c565b90506001816003811115612bca57612bca61590c565b1415612bdb57612a3b868686613a98565b6002816003811115612bef57612bef61590c565b1415612c0057612a3b868686613af0565b6003816003811115612c1457612c1461590c565b1415612c2457612a3b8685613b81565b612a99610136611315565b6000612c3e82151560046112ae565b82612c4b57506000610600565b81612c576001856158be565b612c619190615b0f565b61129d9060016158d5565b600080612c8c612c7c8486612116565b612c868789612116565b90612116565b90506115ea816127b7565b600080612ca48486612116565b90506000612cb1826127b7565b90506115ea8482615a55565b600080612ce685858542612cdd8b60009081526008602052604090205490565b93929190613ba7565b905060006078612cf689426158be565b1015905080612d055786612d0e565b612d0e876130bb565b600081815260086020526040902092909255509695505050505050565b6000604b82901b6103ff604b1b1984161761130e565b6000602c82901b637fffffff602c1b1984161761130e565b6000612d6d86670429d069189e0000612f4a565b821115612dab5760405162461bcd60e51b815260206004820152600c60248201526b4d41585f494e5f524154494f60a01b6044820152606401610769565b6000612db783886158d5565b90506000612dc58883612116565b90506000612dd38887611c16565b90506000612de18383613c31565b9050612df6612def826120ec565b8990612f4a565b9a9950505050505050505050565b6000612e1884670429d069189e0000612f4a565b821115612e575760405162461bcd60e51b815260206004820152600d60248201526c4d41585f4f55545f524154494f60981b6044820152606401610769565b6000612e6d612e6684876158be565b8690612116565b90506000612e7b8588612116565b90506000612e898383613c31565b90506000612e9f670de0b6b3a7640000836158be565b9050612df68a82611fdd565b600080826002811115612ec057612ec061590c565b1415612ecf5761129d83612abc565b6001826002811115612ee357612ee361590c565b1415612ef25761129d83612ad6565b61129d83612af0565b600080612f088484613c5d565b90506000612f22612f1b83612710611fdd565b60016112c0565b905080821015612f3757600092505050610600565b612f418282612055565b92505050610600565b600080612f5783856158ed565b9050831580612f6e575082612f6c8583615b0f565b145b612f8a5760405162461bcd60e51b815260040161076990615b49565b611ca9670de0b6b3a764000082615b0f565b6000818060200190518101906106009190615cac565b60608180602001905181019061130e9190615cc9565b80600254612fd691906158d5565b6002556001600160a01b038216600090815260208190526040902054612ffd9082906158d5565b6001600160a01b03831660008181526020818152604080832094909455925184815291929091600080516020615e0c8339815191529101612b99565b600061304b631c74c91760e11b610bf2565b82148061060057506130636350dd6ed960e01b610bf2565b821492915050565b6000808260028111156130805761308061590c565b141561308f5761129d83612ac9565b60018260028111156130a3576130a361590c565b14156130b25761129d83612ae3565b61129d83612afd565b6000610600826001613dc2565b60008080806130d86001866158be565b905060008060005b83851161317557600060026130f587876158d5565b6130ff9190615b0f565b905061310b818b613dc2565b600081815260208e905260409020549094509250613128836117b4565b91508a8210156131445761313d8160016158d5565b955061316f565b8a82111561315e576131576001826158be565b945061316f565b828397509750505050505050612438565b506130e0565b89811061319d578a600061318885613ddb565b815260200190815260200160002054826131ba565b818b60006131aa866130bb565b8152602001908152602001600020545b96509650505050505094509492505050565b60006131fb680238fd42c5cf03ffff1983121580156131f4575068070c1cc73b00c800008313155b60096112ae565b600082121561322c5761321061279783615d19565b613222670de0b6b3a764000080615bd9565b6106009190615aaa565b60006806f05b59d3b20000008312613271576132516806f05b59d3b200000084615a55565b925072195e54c5dd42177f53a27172fa9ec63026282760241b90506132ae565b6803782dace9d900000083126132aa576132946803782dace9d900000084615a55565b92506b1425982cf597cd205cef738090506132ae565b5060015b6132b9606484615bd9565b925068056bc75e2d6310000068ad78ebc5ac62000000841261331a576132e868ad78ebc5ac6200000085615a55565b935068056bc75e2d6310000061330d6e01855144814a7ff805980ff008400083615bd9565b6133179190615aaa565b90505b6856bc75e2d631000000841261336c5761333d6856bc75e2d63100000085615a55565b935068056bc75e2d6310000061335f6b02df0ab5a80a22c61ab5a70083615bd9565b6133699190615aaa565b90505b682b5e3af16b1880000084126133bc5761338f682b5e3af16b1880000085615a55565b935068056bc75e2d631000006133af693f1fce3da636ea5cf85083615bd9565b6133b99190615aaa565b90505b6815af1d78b58c400000841261340c576133df6815af1d78b58c40000085615a55565b935068056bc75e2d631000006133ff690127fa27722cc06cc5e283615bd9565b6134099190615aaa565b90505b680ad78ebc5ac6200000841261345b5761342f680ad78ebc5ac620000085615a55565b935068056bc75e2d6310000061344e68280e60114edb805d0383615bd9565b6134589190615aaa565b90505b68056bc75e2d6310000084126134aa5761347e68056bc75e2d6310000085615a55565b935068056bc75e2d6310000061349d680ebc5fb4174612111083615bd9565b6134a79190615aaa565b90505b6802b5e3af16b188000084126134f9576134cd6802b5e3af16b188000085615a55565b935068056bc75e2d631000006134ec6808f00f760a4b2db55d83615bd9565b6134f69190615aaa565b90505b68015af1d78b58c4000084126135485761351c68015af1d78b58c4000085615a55565b935068056bc75e2d6310000061353b6806f5f177578893793783615bd9565b6135459190615aaa565b90505b68056bc75e2d631000008461355d8183615c5e565b9150600268056bc75e2d631000006135758884615bd9565b61357f9190615aaa565b6135899190615aaa565b90506135958183615c5e565b9150600368056bc75e2d631000006135ad8884615bd9565b6135b79190615aaa565b6135c19190615aaa565b90506135cd8183615c5e565b9150600468056bc75e2d631000006135e58884615bd9565b6135ef9190615aaa565b6135f99190615aaa565b90506136058183615c5e565b9150600568056bc75e2d6310000061361d8884615bd9565b6136279190615aaa565b6136319190615aaa565b905061363d8183615c5e565b9150600668056bc75e2d631000006136558884615bd9565b61365f9190615aaa565b6136699190615aaa565b90506136758183615c5e565b9150600768056bc75e2d6310000061368d8884615bd9565b6136979190615aaa565b6136a19190615aaa565b90506136ad8183615c5e565b9150600868056bc75e2d631000006136c58884615bd9565b6136cf9190615aaa565b6136d99190615aaa565b90506136e58183615c5e565b9150600968056bc75e2d631000006136fd8884615bd9565b6137079190615aaa565b6137119190615aaa565b905061371d8183615c5e565b9150600a68056bc75e2d631000006137358884615bd9565b61373f9190615aaa565b6137499190615aaa565b90506137558183615c5e565b9150600b68056bc75e2d6310000061376d8884615bd9565b6137779190615aaa565b6137819190615aaa565b905061378d8183615c5e565b9150600c68056bc75e2d631000006137a58884615bd9565b6137af9190615aaa565b6137b99190615aaa565b90506137c58183615c5e565b915060648468056bc75e2d631000006137de8587615bd9565b6137e89190615aaa565b6137f29190615bd9565b6115ea9190615aaa565b600061380c6000831360646112ae565b8161382767016345785d8a0000670de0b6b3a7640000615a55565b12801561384c5750613849670de0b6b3a764000067016345785d8a0000615c5e565b82125b1561386357670de0b6b3a764000061322283613de8565b6106008261401f565b919050565b623fffff828116821b90821b198416179392505050565b6000838311613899575060006120b8565b60006138a58585612116565b905060006138bb670de0b6b3a764000088611c16565b90506138cf826709b6e64a8ec60000614601565b915060006138dd8383613c31565b905060006138f46138ed836120ec565b8b90612f4a565b9050612df68187612f4a565b6000606061390c6116b7565b60008061391885614618565b9150915061392a6002821060646112ae565b60408051600280825260608201835260009260208301908036833701905050905061399988838151811061396057613960615877565b602002602001015188848151811061397a5761397a615877565b60200260200101518561398c60025490565b613994610988565b61463a565b508183815181106139ac576139ac615877565b6020908102919091010152919791965090945050505050565b6000606060006139d48461472c565b905060006139eb86836139e660025490565b614742565b9196919550909350505050565b60006060613a046116b7565b600080613a108561480a565b91509150613a2082516002611932565b613a2982611cb1565b6000613a47888885613a3a60025490565b613a42610988565b614822565b509050613a588282111560cf6112ae565b9791965090945050505050565b600082821c661fffffffffffff16660fffffffffffff8113613a875780611ca9565b661fffffffffffff19179392505050565b60006060600080613aa88561480a565b91509150613ab882516002611932565b613ac182611cb1565b6000613adf888885613ad260025490565b613ada610988565b614993565b509050613a588282101560d06112ae565b60006060600080613b0085614618565b91509150613b126002821060646112ae565b604080516002808252606082018352600092602083019080368337019050509050613999888381518110613b4857613b48615877565b6020026020010151888481518110613b6257613b62615877565b602002602001015185613b7460025490565b613b7c610988565b614afb565b600060606000613b908461472c565b905060006139eb8683613ba260025490565b614c0d565b600080613bb3876117b4565b613bbd90846158be565b90506000613bcb8288615bd9565b613bd489612ac9565b613bde9190615c5e565b90506000613bec8388615bd9565b613bf58a612ae3565b613bff9190615c5e565b90506000613c0d8488615bd9565b613c168b612afd565b613c209190615c5e565b9050612df689848a858b868c611755565b600080613c3e8484613c5d565b90506000613c51612f1b83612710611fdd565b90506120b882826112c0565b600081613c735750670de0b6b3a7640000610600565b82613c8057506000610600565b613c91600160ff1b841060066112ae565b82613cb5613cac68056bc75e2d63100000600160fe1b615b0f565b841060076112ae565b82600082613cd367016345785d8a0000670de0b6b3a7640000615a55565b128015613cf85750613cf5670de0b6b3a764000067016345785d8a0000615c5e565b83125b15613d61576000613d0884613de8565b9050670de0b6b3a764000083613d1e8284615d36565b613d289190615bd9565b613d329190615aaa565b83613d45670de0b6b3a764000084615aaa565b613d4f9190615bd9565b613d599190615c5e565b915050613d78565b81613d6b8461401f565b613d759190615bd9565b90505b613d8a670de0b6b3a764000082615aaa565b9050613db981680238fd42c5cf03ffff1913158015613db2575068070c1cc73b00c800008213155b60086112ae565b6115ea816131cc565b6000610400613dd183856158d5565b61130e9190615d4a565b6000610600826001614cb5565b6000613dfc670de0b6b3a764000083615bd9565b91506000613e186a0c097ce7bc90715b34b9f160241b84615c5e565b6a0c097ce7bc90715b34b9f160241b613e318186615a55565b613e3b9190615bd9565b613e459190615aaa565b905060006a0c097ce7bc90715b34b9f160241b613e628380615bd9565b613e6c9190615aaa565b905081806a0c097ce7bc90715b34b9f160241b613e898483615bd9565b613e939190615aaa565b9150613ea0600383615aaa565b613eaa9082615c5e565b90506a0c097ce7bc90715b34b9f160241b613ec58484615bd9565b613ecf9190615aaa565b9150613edc600583615aaa565b613ee69082615c5e565b90506a0c097ce7bc90715b34b9f160241b613f018484615bd9565b613f0b9190615aaa565b9150613f18600783615aaa565b613f229082615c5e565b90506a0c097ce7bc90715b34b9f160241b613f3d8484615bd9565b613f479190615aaa565b9150613f54600983615aaa565b613f5e9082615c5e565b90506a0c097ce7bc90715b34b9f160241b613f798484615bd9565b613f839190615aaa565b9150613f90600b83615aaa565b613f9a9082615c5e565b90506a0c097ce7bc90715b34b9f160241b613fb58484615bd9565b613fbf9190615aaa565b9150613fcc600d83615aaa565b613fd69082615c5e565b90506a0c097ce7bc90715b34b9f160241b613ff18484615bd9565b613ffb9190615aaa565b9150614008600f83615aaa565b6140129082615c5e565b90506115ea816002615bd9565b6000670de0b6b3a764000082121561405f5761405682614047670de0b6b3a764000080615bd9565b6140519190615aaa565b61401f565b61060090615d19565b6000614089670de0b6b3a764000072195e54c5dd42177f53a27172fa9ec63026282760241b615bd9565b83126140c7576140af72195e54c5dd42177f53a27172fa9ec63026282760241b84615aaa565b92506140c46806f05b59d3b200000082615c5e565b90505b6140e5670de0b6b3a76400006b1425982cf597cd205cef7380615bd9565b8312614119576141016b1425982cf597cd205cef738084615aaa565b92506141166803782dace9d900000082615c5e565b90505b614124606482615bd9565b9050614131606484615bd9565b92506e01855144814a7ff805980ff0084000831261418e576e01855144814a7ff805980ff008400061416c68056bc75e2d6310000085615bd9565b6141769190615aaa565b925061418b68ad78ebc5ac6200000082615c5e565b90505b6b02df0ab5a80a22c61ab5a70083126141e3576b02df0ab5a80a22c61ab5a7006141c168056bc75e2d6310000085615bd9565b6141cb9190615aaa565b92506141e06856bc75e2d63100000082615c5e565b90505b693f1fce3da636ea5cf850831261423457693f1fce3da636ea5cf85061421268056bc75e2d6310000085615bd9565b61421c9190615aaa565b9250614231682b5e3af16b1880000082615c5e565b90505b690127fa27722cc06cc5e2831261428557690127fa27722cc06cc5e261426368056bc75e2d6310000085615bd9565b61426d9190615aaa565b92506142826815af1d78b58c40000082615c5e565b90505b68280e60114edb805d0383126142d45768280e60114edb805d036142b268056bc75e2d6310000085615bd9565b6142bc9190615aaa565b92506142d1680ad78ebc5ac620000082615c5e565b90505b680ebc5fb41746121110831261432357680ebc5fb4174612111061430168056bc75e2d6310000085615bd9565b61430b9190615aaa565b925061432068056bc75e2d6310000082615c5e565b90505b6808f00f760a4b2db55d8312614372576808f00f760a4b2db55d61435068056bc75e2d6310000085615bd9565b61435a9190615aaa565b925061436f6802b5e3af16b188000082615c5e565b90505b6806f5f177578893793783126143c1576806f5f177578893793761439f68056bc75e2d6310000085615bd9565b6143a99190615aaa565b92506143be68015af1d78b58c4000082615c5e565b90505b6806248f33704b286603831261440f576806248f33704b2866036143ee68056bc75e2d6310000085615bd9565b6143f89190615aaa565b925061440c67ad78ebc5ac62000082615c5e565b90505b6805c548670b9510e7ac831261445d576805c548670b9510e7ac61443c68056bc75e2d6310000085615bd9565b6144469190615aaa565b925061445a6756bc75e2d631000082615c5e565b90505b600061447268056bc75e2d6310000085615c5e565b68056bc75e2d631000006144868187615a55565b6144909190615bd9565b61449a9190615aaa565b9050600068056bc75e2d631000006144b28380615bd9565b6144bc9190615aaa565b9050818068056bc75e2d631000006144d48483615bd9565b6144de9190615aaa565b91506144eb600383615aaa565b6144f59082615c5e565b905068056bc75e2d6310000061450b8484615bd9565b6145159190615aaa565b9150614522600583615aaa565b61452c9082615c5e565b905068056bc75e2d631000006145428484615bd9565b61454c9190615aaa565b9150614559600783615aaa565b6145639082615c5e565b905068056bc75e2d631000006145798484615bd9565b6145839190615aaa565b9150614590600983615aaa565b61459a9082615c5e565b905068056bc75e2d631000006145b08484615bd9565b6145ba9190615aaa565b91506145c7600b83615aaa565b6145d19082615c5e565b90506145de600282615bd9565b905060646145ec8287615c5e565b6145f69190615aaa565b979650505050505050565b600081831015614611578161130e565b5090919050565b6000808280602001905181019061462f9190615d5e565b909590945092505050565b6000808061464c85612c8688826158be565b90506709b6e64a8ec600008110156146a15760405162461bcd60e51b815260206004820152601860248201527713525397d0941517d25397d193d497d513d2d15397d3d55560421b6044820152606401610769565b60006146bf6146b8670de0b6b3a76400008a611c16565b8390613c31565b905060006146cf6138ed836120ec565b905060006146dc8a6120ec565b905060006146ea8383611fdd565b905060006146f882856158be565b9050614704828a611fdd565b965061471087836158be565b61471a90826158d5565b97505050505050509550959350505050565b60008180602001905181019061130e9190615d95565b606060006147508484611c16565b9050600085516001600160401b0381111561476d5761476d615110565b604051908082528060200260200182016040528015614796578160200160208202803683370190505b50905060005b8651811015614800576147d1838883815181106147bb576147bb615877565b6020026020010151612f4a90919063ffffffff16565b8282815181106147e3576147e3615877565b6020908102919091010152806147f8816158a3565b91505061479c565b5095945050505050565b606060008280602001905181019061462f9190615dc3565b60006060600085516001600160401b0381111561484157614841615110565b60405190808252806020026020018201604052801561486a578160200160208202803683370190505b5090506000805b8951811015614956576148d58a828151811061488f5761488f615877565b60200260200101518983815181106148a9576148a9615877565b60200260200101518c84815181106148c3576148c3615877565b6020026020010151612c8691906158be565b8382815181106148e7576148e7615877565b60200260200101818152505061493889828151811061490857614908615877565b602002602001015184838151811061492257614922615877565b6020026020010151611fdd90919063ffffffff16565b61494290836158d5565b91508061494e816158a3565b915050614871565b506000806149688b8b8b87878c614ccf565b91509150600061498161497a846120ec565b8a90611fdd565b9c919b50909950505050505050505050565b60006060600085516001600160401b038111156149b2576149b2615110565b6040519080825280602002602001820160405280156149db578160200160208202803683370190505b5090506000805b8951811015614ab157614a468a8281518110614a0057614a00615877565b6020026020010151898381518110614a1a57614a1a615877565b60200260200101518c8481518110614a3457614a34615877565b6020026020010151610a6a91906158d5565b838281518110614a5857614a58615877565b602002602001018181525050614a93898281518110614a7957614a79615877565b60200260200101518483815181106147bb576147bb615877565b614a9d90836158d5565b915080614aa9816158a3565b9150506149e2565b50600080614ac38b8b8b87878c614eb4565b915091506000670de0b6b3a76400008311614adf576000614981565b614981614af4670de0b6b3a7640000856158be565b8a90612f4a565b60008080614b0d85612c8688826158d5565b90506729a2241af62c0000811115614b625760405162461bcd60e51b815260206004820152601860248201527726a0ac2fa7aaaa2fa1282a2fa327a92faa27a5a2a72fa4a760411b6044820152606401610769565b6000614b796146b8670de0b6b3a76400008a612116565b90506000614b99614b92670de0b6b3a7640000846158be565b8b90611fdd565b90506000614ba68a6120ec565b90506000614bb48383611fdd565b90506000614bc282856158be565b90506000614be2614bdb8b670de0b6b3a76400006158be565b8490612116565b9050614bee83826158be565b9750614bfa81836158d5565b9850505050505050509550959350505050565b60606000614c1b8484612116565b9050600085516001600160401b03811115614c3857614c38615110565b604051908082528060200260200182016040528015614c61578160200160208202803683370190505b50905060005b865181101561480057614c868388838151811061492257614922615877565b828281518110614c9857614c98615877565b602090810291909101015280614cad816158a3565b915050614c67565b600061040082614cc582866158d5565b613dd191906158be565b6000606085516001600160401b03811115614cec57614cec615110565b604051908082528060200260200182016040528015614d15578160200160208202803683370190505b509050670de0b6b3a7640000915060005b8851811015614ea8576000868281518110614d4357614d43615877565b6020026020010151861115614df8576000614d72614d60886120ec565b8c85815181106147bb576147bb615877565b90506000818a8581518110614d8957614d89615877565b6020026020010151614d9b91906158be565b90506000614dbb614db489670de0b6b3a76400006158be565b8390612116565b9050614dc782826158be565b868681518110614dd957614dd9615877565b6020908102919091010152614dee81846158d5565b9350505050614e15565b878281518110614e0a57614e0a615877565b602002602001015190505b6000614e598b8481518110614e2c57614e2c615877565b6020026020010151838d8681518110614e4757614e47615877565b6020026020010151610a6a91906158be565b9050614e91614e8a8b8581518110614e7357614e73615877565b602002602001015183612efb90919063ffffffff16565b8690612f4a565b945050508080614ea0906158a3565b915050614d26565b50965096945050505050565b6000606085516001600160401b03811115614ed157614ed1615110565b604051908082528060200260200182016040528015614efa578160200160208202803683370190505b509050670de0b6b3a7640000915060005b8851811015614ea857600085878381518110614f2957614f29615877565b60200260200101511115614fc4576000614f4e614d60670de0b6b3a7640000896158be565b90506000818a8581518110614f6557614f65615877565b6020026020010151614f7791906158be565b90506000614f858289611fdd565b9050614f9181836158be565b614f9b90846158d5565b935080868681518110614fb057614fb0615877565b602002602001018181525050505050614fe1565b878281518110614fd657614fd6615877565b602002602001015190505b60006150138b8481518110614ff857614ff8615877565b6020026020010151838d8681518110614a3457614a34615877565b905061502d614e8a8b8581518110614e7357614e73615877565b94505050808061503c906158a3565b915050614f0b565b600060208083528351808285015260005b8181101561507157858101830151858201604001528201615055565b81811115615083576000604083870101525b50601f01601f1916929092016040019392505050565b6001600160a01b038116811461061757600080fd5b803561386c81615099565b600080604083850312156150cc57600080fd5b82356150d781615099565b946020939093013593505050565b801515811461061757600080fd5b60006020828403121561510557600080fd5b813561130e816150e5565b634e487b7160e01b600052604160045260246000fd5b604051606081016001600160401b038111828210171561514857615148615110565b60405290565b604080519081016001600160401b038111828210171561514857615148615110565b60405161012081016001600160401b038111828210171561514857615148615110565b604051601f8201601f191681016001600160401b03811182821017156151bb576151bb615110565b604052919050565b60006001600160401b038211156151dc576151dc615110565b5060051b60200190565b80356003811061386c57600080fd5b6000602080838503121561520857600080fd5b82356001600160401b0381111561521e57600080fd5b8301601f8101851361522f57600080fd5b803561524261523d826151c3565b615193565b8181526060918202830184019184820191908884111561526157600080fd5b938501935b838510156152b25780858a03121561527e5760008081fd5b615286615126565b61528f866151e6565b815285870135878201526040808701359082015283529384019391850191615266565b50979650505050505050565b600081518084526020808501945080840160005b838110156152ee578151875295820195908201906001016152d2565b509495945050505050565b60208152600061130e60208301846152be565b60008060006060848603121561532157600080fd5b833561532c81615099565b9250602084013561533c81615099565b929592945050506040919091013590565b6000806040838503121561536057600080fd5b50508035926020909101359150565b60006020828403121561538157600080fd5b5035919050565b600082601f83011261539957600080fd5b81356001600160401b038111156153b2576153b2615110565b6153c5601f8201601f1916602001615193565b8181528460208386010111156153da57600080fd5b816020850160208301376000918101602001919091529392505050565b600080600080600080600060e0888a03121561541257600080fd5b8735965060208089013561542581615099565b9650604089013561543581615099565b955060608901356001600160401b038082111561545157600080fd5b818b0191508b601f83011261546557600080fd5b813561547361523d826151c3565b81815260059190911b8301840190848101908e83111561549257600080fd5b938501935b828510156154b057843582529385019390850190615497565b9850505060808b0135955060a08b0135945060c08b01359250808311156154d657600080fd5b50506154e48a828b01615388565b91505092959891949750929550565b828152604060208201526000611ca960408301846152be565b6000602080838503121561551f57600080fd5b82356001600160401b0381111561553557600080fd5b8301601f8101851361554657600080fd5b803561555461523d826151c3565b81815260069190911b8201830190838101908783111561557357600080fd5b928401925b828410156145f657604084890312156155915760008081fd5b61559961514e565b6155a2856151e6565b81528486013586820152825260409093019290840190615578565b6020808252825182820181905260009190848201906040850190845b818110156155f5578351835292840192918401916001016155d9565b50909695505050505050565b60006020828403121561561357600080fd5b813561130e81615099565b60408152600061563160408301856152be565b82810360208401526120b881856152be565b60006020828403121561565557600080fd5b81356001600160e01b03198116811461130e57600080fd5b80356002811061386c57600080fd5b60008060006060848603121561569157600080fd5b83356001600160401b03808211156156a857600080fd5b9085019061012082880312156156bd57600080fd5b6156c5615170565b6156ce8361566d565b81526156dc602084016150ae565b60208201526156ed604084016150ae565b6040820152606083013560608201526080830135608082015260a083013560a082015261571c60c084016150ae565b60c082015261572d60e084016150ae565b60e0820152610100808401358381111561574657600080fd5b6157528a828701615388565b9183019190915250976020870135975060409096013595945050505050565b60006020828403121561578357600080fd5b61130e826151e6565b600080600080600080600060e0888a0312156157a757600080fd5b87356157b281615099565b965060208801356157c281615099565b95506040880135945060608801359350608088013560ff811681146157e657600080fd5b9699959850939692959460a0840135945060c09093013592915050565b6000806040838503121561581657600080fd5b823561582181615099565b9150602083013561583181615099565b809150509250929050565b600181811c9082168061585057607f821691505b6020821081141561587157634e487b7160e01b600052602260045260246000fd5b50919050565b634e487b7160e01b600052603260045260246000fd5b634e487b7160e01b600052601160045260246000fd5b60006000198214156158b7576158b761588d565b5060010190565b6000828210156158d0576158d061588d565b500390565b600082198211156158e8576158e861588d565b500190565b60008160001904831182151516156159075761590761588d565b500290565b634e487b7160e01b600052602160045260246000fd5b600082601f83011261593357600080fd5b8151602061594361523d836151c3565b82815260059290921b8401810191818101908684111561596257600080fd5b8286015b8481101561597d5780518352918301918301615966565b509695505050505050565b60008060006060848603121561599d57600080fd5b83516001600160401b03808211156159b457600080fd5b818601915086601f8301126159c857600080fd5b815160206159d861523d836151c3565b82815260059290921b8401810191818101908a8411156159f757600080fd5b948201945b83861015615a1e578551615a0f81615099565b825294820194908201906159fc565b91890151919750909350505080821115615a3757600080fd5b50615a4486828701615922565b925050604084015190509250925092565b60008083128015600160ff1b850184121615615a7357615a7361588d565b6001600160ff1b0384018313811615615a8e57615a8e61588d565b50500390565b634e487b7160e01b600052601260045260246000fd5b600082615ab957615ab9615a94565b600160ff1b821460001984141615615ad357615ad361588d565b500590565b8183823760009101908152919050565b6020808252600d908201526c2d22a927afa224ab24a9a4a7a760991b604082015260600190565b600082615b1e57615b1e615a94565b500490565b6020808252600c908201526b11125597d25395115493905360a21b604082015260600190565b6020808252600c908201526b4d554c5f4f564552464c4f5760a01b604082015260600190565b600060208284031215615b8157600080fd5b815161130e81615099565b60208082526016908201527513d49050d31157d393d517d25392551250531256915160521b604082015260600190565b600060208284031215615bce57600080fd5b815161130e816150e5565b60006001600160ff1b0381841382841380821686840486111615615bff57615bff61588d565b600160ff1b6000871282811687830589121615615c1e57615c1e61588d565b60008712925087820587128484161615615c3a57615c3a61588d565b87850587128184161615615c5057615c5061588d565b505050929093029392505050565b600080821280156001600160ff1b0384900385131615615c8057615c8061588d565b600160ff1b8390038412811615615c9957615c9961588d565b50500190565b6004811061061757600080fd5b600060208284031215615cbe57600080fd5b815161130e81615c9f565b60008060408385031215615cdc57600080fd5b8251615ce781615c9f565b60208401519092506001600160401b03811115615d0357600080fd5b615d0f85828601615922565b9150509250929050565b6000600160ff1b821415615d2f57615d2f61588d565b5060000390565b600082615d4557615d45615a94565b500790565b600082615d5957615d59615a94565b500690565b600080600060608486031215615d7357600080fd5b8351615d7e81615c9f565b602085015160409095015190969495509392505050565b60008060408385031215615da857600080fd5b8251615db381615c9f565b6020939093015192949293505050565b600080600060608486031215615dd857600080fd5b8351615de381615c9f565b60208501519093506001600160401b03811115615dff57600080fd5b615a448682870161592256feddf252ad1be2c89b69c2b068fc378daa952ba7f163c4a11628f55a4df523b3efa26469706673582212207bb149ab0d4c9b3e5ce77e733e43d45410682c19e5f952b297707502234257a664736f6c634300080a0033",
  "linkReferences": {},
  "deployedLinkReferences": {}
}