{
  "_format": "hh-sol-artifact-1",
  "contractName": "RequiemPair",
  "sourceName": "contracts/RequiemPair.sol",
  "abi": [
    {
      "inputs": [],
      "stateMutability": "nonpayable",
      "type": "constructor"
    },
    {
      "anonymous": false,
      "inputs": [
        {
          "indexed": true,
          "internalType": "address",
          "name": "owner",
          "type": "address"
        },
        {
          "indexed": true,
          "internalType": "address",
          "name": "spender",
          "type": "address"
        },
        {
          "indexed": false,
          "internalType": "uint256",
          "name": "value",
          "type": "uint256"
        }
      ],
      "name": "Approval",
      "type": "event"
    },
    {
      "anonymous": false,
      "inputs": [
        {
          "indexed": true,
          "internalType": "address",
          "name": "sender",
          "type": "address"
        },
        {
          "indexed": false,
          "internalType": "uint256",
          "name": "amount0",
          "type": "uint256"
        },
        {
          "indexed": false,
          "internalType": "uint256",
          "name": "amount1",
          "type": "uint256"
        },
        {
          "indexed": true,
          "internalType": "address",
          "name": "to",
          "type": "address"
        }
      ],
      "name": "Burn",
      "type": "event"
    },
    {
      "anonymous": false,
      "inputs": [
        {
          "indexed": true,
          "internalType": "address",
          "name": "sender",
          "type": "address"
        },
        {
          "indexed": false,
          "internalType": "uint256",
          "name": "amount0",
          "type": "uint256"
        },
        {
          "indexed": false,
          "internalType": "uint256",
          "name": "amount1",
          "type": "uint256"
        }
      ],
      "name": "Mint",
      "type": "event"
    },
    {
      "anonymous": false,
      "inputs": [
        {
          "indexed": false,
          "internalType": "uint112",
          "name": "collectedFee0",
          "type": "uint112"
        },
        {
          "indexed": false,
          "internalType": "uint112",
          "name": "collectedFee1",
          "type": "uint112"
        }
      ],
      "name": "PaidProtocolFee",
      "type": "event"
    },
    {
      "anonymous": false,
      "inputs": [
        {
          "indexed": true,
          "internalType": "address",
          "name": "sender",
          "type": "address"
        },
        {
          "indexed": false,
          "internalType": "uint256",
          "name": "amount0In",
          "type": "uint256"
        },
        {
          "indexed": false,
          "internalType": "uint256",
          "name": "amount1In",
          "type": "uint256"
        },
        {
          "indexed": false,
          "internalType": "uint256",
          "name": "amount0Out",
          "type": "uint256"
        },
        {
          "indexed": false,
          "internalType": "uint256",
          "name": "amount1Out",
          "type": "uint256"
        },
        {
          "indexed": true,
          "internalType": "address",
          "name": "to",
          "type": "address"
        }
      ],
      "name": "Swap",
      "type": "event"
    },
    {
      "anonymous": false,
      "inputs": [
        {
          "indexed": false,
          "internalType": "uint112",
          "name": "reserve0",
          "type": "uint112"
        },
        {
          "indexed": false,
          "internalType": "uint112",
          "name": "reserve1",
          "type": "uint112"
        }
      ],
      "name": "Sync",
      "type": "event"
    },
    {
      "anonymous": false,
      "inputs": [
        {
          "indexed": true,
          "internalType": "address",
          "name": "from",
          "type": "address"
        },
        {
          "indexed": true,
          "internalType": "address",
          "name": "to",
          "type": "address"
        },
        {
          "indexed": false,
          "internalType": "uint256",
          "name": "value",
          "type": "uint256"
        }
      ],
      "name": "Transfer",
      "type": "event"
    },
    {
      "inputs": [],
      "name": "DOMAIN_SEPARATOR",
      "outputs": [
        {
          "internalType": "bytes32",
          "name": "",
          "type": "bytes32"
        }
      ],
      "stateMutability": "view",
      "type": "function"
    },
    {
      "inputs": [],
      "name": "MINIMUM_LIQUIDITY",
      "outputs": [
        {
          "internalType": "uint256",
          "name": "",
          "type": "uint256"
        }
      ],
      "stateMutability": "view",
      "type": "function"
    },
    {
      "inputs": [],
      "name": "PERMIT_TYPEHASH",
      "outputs": [
        {
          "internalType": "bytes32",
          "name": "",
          "type": "bytes32"
        }
      ],
      "stateMutability": "view",
      "type": "function"
    },
    {
      "inputs": [
        {
          "internalType": "address",
          "name": "",
          "type": "address"
        },
        {
          "internalType": "address",
          "name": "",
          "type": "address"
        }
      ],
      "name": "allowance",
      "outputs": [
        {
          "internalType": "uint256",
          "name": "",
          "type": "uint256"
        }
      ],
      "stateMutability": "view",
      "type": "function"
    },
    {
      "inputs": [
        {
          "internalType": "address",
          "name": "spender",
          "type": "address"
        },
        {
          "internalType": "uint256",
          "name": "value",
          "type": "uint256"
        }
      ],
      "name": "approve",
      "outputs": [
        {
          "internalType": "bool",
          "name": "",
          "type": "bool"
        }
      ],
      "stateMutability": "nonpayable",
      "type": "function"
    },
    {
      "inputs": [
        {
          "internalType": "address",
          "name": "",
          "type": "address"
        }
      ],
      "name": "balanceOf",
      "outputs": [
        {
          "internalType": "uint256",
          "name": "",
          "type": "uint256"
        }
      ],
      "stateMutability": "view",
      "type": "function"
    },
    {
      "inputs": [
        {
          "internalType": "address",
          "name": "to",
          "type": "address"
        }
      ],
      "name": "burn",
      "outputs": [
        {
          "internalType": "uint256",
          "name": "amount0",
          "type": "uint256"
        },
        {
          "internalType": "uint256",
          "name": "amount1",
          "type": "uint256"
        }
      ],
      "stateMutability": "nonpayable",
      "type": "function"
    },
    {
      "inputs": [],
      "name": "decimals",
      "outputs": [
        {
          "internalType": "uint8",
          "name": "",
          "type": "uint8"
        }
      ],
      "stateMutability": "view",
      "type": "function"
    },
    {
      "inputs": [],
      "name": "factory",
      "outputs": [
        {
          "internalType": "address",
          "name": "",
          "type": "address"
        }
      ],
      "stateMutability": "view",
      "type": "function"
    },
    {
      "inputs": [],
      "name": "formula",
      "outputs": [
        {
          "internalType": "address",
          "name": "",
          "type": "address"
        }
      ],
      "stateMutability": "view",
      "type": "function"
    },
    {
      "inputs": [],
      "name": "getCollectedFees",
      "outputs": [
        {
          "internalType": "uint112",
          "name": "_collectedFee0",
          "type": "uint112"
        },
        {
          "internalType": "uint112",
          "name": "_collectedFee1",
          "type": "uint112"
        }
      ],
      "stateMutability": "view",
      "type": "function"
    },
    {
      "inputs": [],
      "name": "getReserves",
      "outputs": [
        {
          "internalType": "uint112",
          "name": "_reserve0",
          "type": "uint112"
        },
        {
          "internalType": "uint112",
          "name": "_reserve1",
          "type": "uint112"
        },
        {
          "internalType": "uint32",
          "name": "_blockTimestampLast",
          "type": "uint32"
        }
      ],
      "stateMutability": "view",
      "type": "function"
    },
    {
      "inputs": [],
      "name": "getSwapFee",
      "outputs": [
        {
          "internalType": "uint32",
          "name": "_swapFee",
          "type": "uint32"
        }
      ],
      "stateMutability": "view",
      "type": "function"
    },
    {
      "inputs": [],
      "name": "getTokenWeights",
      "outputs": [
        {
          "internalType": "uint32",
          "name": "_tokenWeight0",
          "type": "uint32"
        },
        {
          "internalType": "uint32",
          "name": "_tokenWeight1",
          "type": "uint32"
        }
      ],
      "stateMutability": "view",
      "type": "function"
    },
    {
      "inputs": [
        {
          "internalType": "address",
          "name": "_token0",
          "type": "address"
        },
        {
          "internalType": "address",
          "name": "_token1",
          "type": "address"
        },
        {
          "internalType": "uint32",
          "name": "_tokenWeight0",
          "type": "uint32"
        },
        {
          "internalType": "uint32",
          "name": "_swapFee",
          "type": "uint32"
        }
      ],
      "name": "initialize",
      "outputs": [],
      "stateMutability": "nonpayable",
      "type": "function"
    },
    {
      "inputs": [
        {
          "internalType": "address",
          "name": "to",
          "type": "address"
        }
      ],
      "name": "mint",
      "outputs": [
        {
          "internalType": "uint256",
          "name": "liquidity",
          "type": "uint256"
        }
      ],
      "stateMutability": "nonpayable",
      "type": "function"
    },
    {
      "inputs": [],
      "name": "name",
      "outputs": [
        {
          "internalType": "string",
          "name": "",
          "type": "string"
        }
      ],
      "stateMutability": "view",
      "type": "function"
    },
    {
      "inputs": [
        {
          "internalType": "address",
          "name": "",
          "type": "address"
        }
      ],
      "name": "nonces",
      "outputs": [
        {
          "internalType": "uint256",
          "name": "",
          "type": "uint256"
        }
      ],
      "stateMutability": "view",
      "type": "function"
    },
    {
      "inputs": [
        {
          "internalType": "address",
          "name": "owner",
          "type": "address"
        },
        {
          "internalType": "address",
          "name": "spender",
          "type": "address"
        },
        {
          "internalType": "uint256",
          "name": "value",
          "type": "uint256"
        },
        {
          "internalType": "uint256",
          "name": "deadline",
          "type": "uint256"
        },
        {
          "internalType": "uint8",
          "name": "v",
          "type": "uint8"
        },
        {
          "internalType": "bytes32",
          "name": "r",
          "type": "bytes32"
        },
        {
          "internalType": "bytes32",
          "name": "s",
          "type": "bytes32"
        }
      ],
      "name": "permit",
      "outputs": [],
      "stateMutability": "nonpayable",
      "type": "function"
    },
    {
      "inputs": [],
      "name": "price0CumulativeLast",
      "outputs": [
        {
          "internalType": "uint256",
          "name": "",
          "type": "uint256"
        }
      ],
      "stateMutability": "view",
      "type": "function"
    },
    {
      "inputs": [],
      "name": "price1CumulativeLast",
      "outputs": [
        {
          "internalType": "uint256",
          "name": "",
          "type": "uint256"
        }
      ],
      "stateMutability": "view",
      "type": "function"
    },
    {
      "inputs": [
        {
          "internalType": "address",
          "name": "to",
          "type": "address"
        }
      ],
      "name": "skim",
      "outputs": [],
      "stateMutability": "nonpayable",
      "type": "function"
    },
    {
      "inputs": [
        {
          "internalType": "uint256",
          "name": "amount0Out",
          "type": "uint256"
        },
        {
          "internalType": "uint256",
          "name": "amount1Out",
          "type": "uint256"
        },
        {
          "internalType": "address",
          "name": "to",
          "type": "address"
        },
        {
          "internalType": "bytes",
          "name": "data",
          "type": "bytes"
        }
      ],
      "name": "swap",
      "outputs": [],
      "stateMutability": "nonpayable",
      "type": "function"
    },
    {
      "inputs": [],
      "name": "symbol",
      "outputs": [
        {
          "internalType": "string",
          "name": "",
          "type": "string"
        }
      ],
      "stateMutability": "view",
      "type": "function"
    },
    {
      "inputs": [],
      "name": "sync",
      "outputs": [],
      "stateMutability": "nonpayable",
      "type": "function"
    },
    {
      "inputs": [],
      "name": "token0",
      "outputs": [
        {
          "internalType": "address",
          "name": "",
          "type": "address"
        }
      ],
      "stateMutability": "view",
      "type": "function"
    },
    {
      "inputs": [],
      "name": "token1",
      "outputs": [
        {
          "internalType": "address",
          "name": "",
          "type": "address"
        }
      ],
      "stateMutability": "view",
      "type": "function"
    },
    {
      "inputs": [],
      "name": "totalSupply",
      "outputs": [
        {
          "internalType": "uint256",
          "name": "",
          "type": "uint256"
        }
      ],
      "stateMutability": "view",
      "type": "function"
    },
    {
      "inputs": [
        {
          "internalType": "address",
          "name": "to",
          "type": "address"
        },
        {
          "internalType": "uint256",
          "name": "value",
          "type": "uint256"
        }
      ],
      "name": "transfer",
      "outputs": [
        {
          "internalType": "bool",
          "name": "",
          "type": "bool"
        }
      ],
      "stateMutability": "nonpayable",
      "type": "function"
    },
    {
      "inputs": [
        {
          "internalType": "address",
          "name": "from",
          "type": "address"
        },
        {
          "internalType": "address",
          "name": "to",
          "type": "address"
        },
        {
          "internalType": "uint256",
          "name": "value",
          "type": "uint256"
        }
      ],
      "name": "transferFrom",
      "outputs": [
        {
          "internalType": "bool",
          "name": "",
          "type": "bool"
        }
      ],
      "stateMutability": "nonpayable",
      "type": "function"
    }
  ],
  "bytecode": "0x60806040526001600b5534801561001557600080fd5b50604080518082018252601a81527f5265717569656d204c69717569646974792050726f76696465720000000000006020918201528151808301835260018152603160f81b9082015281517f8b73c3c69bb8fe3d512ecc4cf759cc79239f7b179b0ffacaa9a75d522b39400f818301527f2e1adfbb118fada029d9623aa0ed8dd2318a25545f57095be55dcbd209508e12818401527fc89efdaa54c0f20c7adf612882df0950f5a951637e0307cdcb4c672f298b8bc660608201524660808201523060a0808301919091528351808303909101815260c09091019092528151910120600355600580546001600160a01b031916331790556128508061011b6000396000f3fe608060405234801561001057600080fd5b50600436106101da5760003560e01c806370a0823111610104578063c45a0155116100a2578063d505accf11610071578063d505accf146104a3578063d54a8d18146104b6578063dd62ed3e146104e0578063fff6cae91461050b57600080fd5b8063c45a015514610452578063d0f6957914610465578063d21220a714610478578063d4cadf681461048b57600080fd5b806395d89b41116100de57806395d89b4114610401578063a9059cbb14610423578063ba9a7a5614610436578063bc25cf771461043f57600080fd5b806370a08231146103995780637ecebe00146103b957806389afcb44146103d957600080fd5b806330adf81f1161017c5780634b75f54f1161014b5780634b75f54f146103615780635909c0d5146103745780635a3d54931461037d5780636a6278421461038657600080fd5b806330adf81f146102f2578063313ce5671461031957806332bfe469146103335780633644e5151461035857600080fd5b8063095ea7b3116101b8578063095ea7b31461027a5780630dfe16811461029d57806318160ddd146102c857806323b872dd146102df57600080fd5b8063022c0d9f146101df57806306fdde03146101f45780630902f1ac14610246575b600080fd5b6101f26101ed36600461231d565b610513565b005b6102306040518060400160405280601a81526020017f5265717569656d204c69717569646974792050726f766964657200000000000081525081565b60405161023d91906123e3565b60405180910390f35b61024e610bfa565b604080516001600160701b03948516815293909216602084015263ffffffff169082015260600161023d565b61028d610288366004612416565b610c24565b604051901515815260200161023d565b6006546102b0906001600160a01b031681565b6040516001600160a01b03909116815260200161023d565b6102d160005481565b60405190815260200161023d565b61028d6102ed366004612442565b610c3a565b6102d17f6e71edae12b1b97f4d1f60370fef10105fa2faae0126114a169c64845d6126c981565b610321601281565b60405160ff909116815260200161023d565b61033b610cce565b6040805163ffffffff93841681529290911660208301520161023d565b6102d160035481565b600c546102b0906001600160a01b031681565b6102d160095481565b6102d1600a5481565b6102d1610394366004612483565b610cf1565b6102d16103a7366004612483565b60016020526000908152604090205481565b6102d16103c7366004612483565b60046020526000908152604090205481565b6103ec6103e7366004612483565b610fa6565b6040805192835260208301919091520161023d565b610230604051806040016040528060038152602001620524c560ec1b81525081565b61028d610431366004612416565b611316565b6102d16103e881565b6101f261044d366004612483565b611323565b6005546102b0906001600160a01b031681565b6101f26104733660046124b4565b611446565b6007546102b0906001600160a01b031681565b600e5460405163ffffffff909116815260200161023d565b6101f26104b136600461250c565b611596565b600d54604080516001600160701b038084168252600160701b90930490921660208301520161023d565b6102d16104ee366004612583565b600260209081526000928352604080842090915290825290205481565b6101f261179d565b600b5460011461053e5760405162461bcd60e51b8152600401610535906125bc565b60405180910390fd5b6000600b55841515806105515750600084115b6105a75760405162461bcd60e51b815260206004820152602160248201527f5245514c503a20494e53554646494349454e545f4f55545055545f414d4f554e6044820152601560fa1b6064820152608401610535565b6008546001600160701b0380821691600160701b90041681871080156105d55750806001600160701b031686105b6106215760405162461bcd60e51b815260206004820152601d60248201527f5245514c503a20494e53554646494349454e545f4c49515549444954590000006044820152606401610535565b60065460075460009182916001600160a01b0391821691908116908916821480159061065f5750806001600160a01b0316896001600160a01b031614155b61069f5760405162461bcd60e51b81526020600482015260116024820152705245514c503a20494e56414c49445f544f60781b6044820152606401610535565b8a156106b0576106b0828a8d6118df565b89156106c1576106c1818a8c6118df565b861561072e576040516304347a1760e21b81526001600160a01b038a16906310d1e85c906106fb9033908f908f908e908e906004016125e3565b600060405180830381600087803b15801561071557600080fd5b505af1158015610729573d6000803e3d6000fd5b505050505b6040516370a0823160e01b81523060048201526001600160a01b038316906370a082319060240160206040518083038186803b15801561076d57600080fd5b505afa158015610781573d6000803e3d6000fd5b505050506040513d601f19601f820116820180604052508101906107a5919061262f565b6040516370a0823160e01b81523060048201529094506001600160a01b038216906370a082319060240160206040518083038186803b1580156107e757600080fd5b505afa1580156107fb573d6000803e3d6000fd5b505050506040513d601f19601f8201168201806040525081019061081f919061262f565b92505050600089856001600160701b031661083a919061265e565b8311610847576000610864565b61085a8a6001600160701b03871661265e565b610864908461265e565b9050600061087b8a6001600160701b03871661265e565b83116108885760006108a5565b61089b8a6001600160701b03871661265e565b6108a5908461265e565b905060008211806108b65750600081115b6109025760405162461bcd60e51b815260206004820181905260248201527f5245514c503a20494e53554646494349454e545f494e5055545f414d4f554e546044820152606401610535565b600061091085612710611a23565b9050600061092085612710611a23565b9050831561098a57600e5460009061094390869063ffffffff90811690611a2316565b905061094f8382611a36565b600d54909350610968906001600160701b031682611a44565b600d80546001600160701b0319166001600160701b0392909216919091179055505b82156109ff57600e546000906109ab90859063ffffffff90811690611a2316565b90506109b78282611a36565b600d549092506109d790600160701b90046001600160701b031682611a44565b600d600e6101000a8154816001600160701b0302191690836001600160701b03160217905550505b600d54600160e01b900463ffffffff166032811415610a8457610a3c6305f5e100610a366001600160701b038c8116908c16611a23565b90611a23565b610a468484611a23565b1015610a7f5760405162461bcd60e51b81526020600482015260086024820152675245514c503a204b60c01b6044820152606401610535565b610b84565b600c546001600160a01b03166379c91b37610aaa6001600160701b038c16612710611a23565b610abf6001600160701b038c16612710611a23565b6040516001600160e01b031960e085901b16815260048101929092526024820152604481018690526064810185905263ffffffff8416608482015260a40160206040518083038186803b158015610b1557600080fd5b505afa158015610b29573d6000803e3d6000fd5b505050506040513d601f19601f82011682018060405250810190610b4d9190612675565b610b845760405162461bcd60e51b81526020600482015260086024820152675245514c503a204b60c01b6044820152606401610535565b505050610b9384848888611a61565b60408051838152602081018390529081018c9052606081018b90526001600160a01b038a169033907fd78ad95fa46c994b6551d0da85fc275fe613ce37657fb8d5e3d130840159d8229060800160405180910390a350506001600b55505050505050505050565b6008546001600160701b0380821692600160701b830490911691600160e01b900463ffffffff1690565b6000610c31338484611cb8565b50600192915050565b6001600160a01b038316600090815260026020908152604080832033845290915281205460001914610cb9576001600160a01b0384166000908152600260209081526040808320338452909152902054610c949083611a36565b6001600160a01b03851660009081526002602090815260408083203384529091529020555b610cc4848484611d1a565b5060019392505050565b600d54600160e01b900463ffffffff166000610ceb826064612697565b90509091565b6000600b54600114610d155760405162461bcd60e51b8152600401610535906125bc565b6000600b81905580610d25610bfa565b506006546040516370a0823160e01b81523060048201529294509092506000916001600160a01b03909116906370a082319060240160206040518083038186803b158015610d7257600080fd5b505afa158015610d86573d6000803e3d6000fd5b505050506040513d601f19601f82011682018060405250810190610daa919061262f565b6007546040516370a0823160e01b81523060048201529192506000916001600160a01b03909116906370a082319060240160206040518083038186803b158015610df357600080fd5b505afa158015610e07573d6000803e3d6000fd5b505050506040513d601f19601f82011682018060405250810190610e2b919061262f565b90506000610e42836001600160701b038716611a36565b90506000610e59836001600160701b038716611a36565b9050610e658686611dc0565b5060005480610ea057610e8c6103e8610e86610e818686611a23565b6120a9565b90611a36565b9750610e9b60006103e8612119565b610ee7565b610ee46001600160701b038816610eb78584611a23565b610ec191906126d2565b6001600160701b038816610ed58585611a23565b610edf91906126d2565b6121a8565b97505b60008811610f435760405162461bcd60e51b8152602060048201526024808201527f5245514c503a20494e53554646494349454e545f4c49515549444954595f4d496044820152631395115160e21b6064820152608401610535565b610f4d8989612119565b610f5985858989611a61565b604080518481526020810184905233917f4c209b5fc8ad50758f13e2e1088ba56a560dff690a1c6fef26394f4c03821c4f910160405180910390a250506001600b55509395945050505050565b600080600b54600114610fcb5760405162461bcd60e51b8152600401610535906125bc565b6000600b81905580610fdb610bfa565b506006546007546040516370a0823160e01b81523060048201529395509193506001600160a01b039081169291169060009083906370a082319060240160206040518083038186803b15801561103057600080fd5b505afa158015611044573d6000803e3d6000fd5b505050506040513d601f19601f82011682018060405250810190611068919061262f565b6040516370a0823160e01b81523060048201529091506000906001600160a01b038416906370a082319060240160206040518083038186803b1580156110ad57600080fd5b505afa1580156110c1573d6000803e3d6000fd5b505050506040513d601f19601f820116820180604052508101906110e5919061262f565b306000908152600160205260409020549091506111028787611dc0565b50600054806111118386611a23565b61111b91906126d2565b9950806111288385611a23565b61113291906126d2565b985060008a1180156111445750600089115b61119c5760405162461bcd60e51b8152602060048201526024808201527f5245514c503a20494e53554646494349454e545f4c49515549444954595f42556044820152631493915160e21b6064820152608401610535565b6111a630836121be565b6111b1868c8c6118df565b6111bc858c8b6118df565b6040516370a0823160e01b81523060048201526001600160a01b038716906370a082319060240160206040518083038186803b1580156111fb57600080fd5b505afa15801561120f573d6000803e3d6000fd5b505050506040513d601f19601f82011682018060405250810190611233919061262f565b6040516370a0823160e01b81523060048201529094506001600160a01b038616906370a082319060240160206040518083038186803b15801561127557600080fd5b505afa158015611289573d6000803e3d6000fd5b505050506040513d601f19601f820116820180604052508101906112ad919061262f565b92506112bb84848a8a611a61565b604080518b8152602081018b90526001600160a01b038d169133917fdccd412f0b1252819cb1fd330b93224ca42612892bb3f4f789976e6d81936496910160405180910390a350505050505050506001600b81905550915091565b6000610c31338484611d1a565b600b546001146113455760405162461bcd60e51b8152600401610535906125bc565b6000600b556006546007546008546040516370a0823160e01b81523060048201526001600160a01b0393841693909216916113ef91849186916113ea916001600160701b039091169084906370a08231906024015b60206040518083038186803b1580156113b257600080fd5b505afa1580156113c6573d6000803e3d6000fd5b505050506040513d601f19601f82011682018060405250810190610e86919061262f565b6118df565b6008546040516370a0823160e01b815230600482015261143c91839186916113ea91600160701b9091046001600160701b0316906001600160a01b038516906370a082319060240161139a565b50506001600b5550565b6005546001600160a01b031633146114935760405162461bcd60e51b815260206004820152601060248201526f2922a8a6281d102327a92124a22222a760811b6044820152606401610535565b600680546001600160a01b038087166001600160a01b031992831617909255600780548684169216919091179055600d805463ffffffff808616600160e01b026001600160e01b0390921691909117909155600e805491841663ffffffff1990921691909117905560055460408051634b75f54f60e01b815290519190921691634b75f54f916004808301926020929190829003018186803b15801561153857600080fd5b505afa15801561154c573d6000803e3d6000fd5b505050506040513d601f19601f8201168201806040525081019061157091906126e6565b600c80546001600160a01b0319166001600160a01b039290921691909117905550505050565b428410156115d55760405162461bcd60e51b815260206004820152600c60248201526b1493140e881156141254915160a21b6044820152606401610535565b6003546001600160a01b038816600090815260046020526040812080549192917f6e71edae12b1b97f4d1f60370fef10105fa2faae0126114a169c64845d6126c9918b918b918b91908761162883612703565b909155506040805160208101969096526001600160a01b0394851690860152929091166060840152608083015260a082015260c0810187905260e001604051602081830303815290604052805190602001206040516020016116a192919061190160f01b81526002810192909252602282015260420190565b60408051601f198184030181528282528051602091820120600080855291840180845281905260ff88169284019290925260608301869052608083018590529092509060019060a0016020604051602081039080840390855afa15801561170c573d6000803e3d6000fd5b5050604051601f1901519150506001600160a01b038116158015906117425750886001600160a01b0316816001600160a01b0316145b6117875760405162461bcd60e51b8152602060048201526016602482015275524c503a20494e56414c49445f5349474e415455524560501b6044820152606401610535565b611792898989611cb8565b505050505050505050565b600b546001146117bf5760405162461bcd60e51b8152600401610535906125bc565b6000600b556006546040516370a0823160e01b81523060048201526118d8916001600160a01b0316906370a082319060240160206040518083038186803b15801561180957600080fd5b505afa15801561181d573d6000803e3d6000fd5b505050506040513d601f19601f82011682018060405250810190611841919061262f565b6007546040516370a0823160e01b81523060048201526001600160a01b03909116906370a082319060240160206040518083038186803b15801561188457600080fd5b505afa158015611898573d6000803e3d6000fd5b505050506040513d601f19601f820116820180604052508101906118bc919061262f565b6008546001600160701b0380821691600160701b900416611a61565b6001600b55565b604080518082018252601981527f7472616e7366657228616464726573732c75696e74323536290000000000000060209182015281516001600160a01b0385811660248301526044808301869052845180840390910181526064909201845291810180516001600160e01b031663a9059cbb60e01b1790529151600092839287169161196b919061271e565b6000604051808303816000865af19150503d80600081146119a8576040519150601f19603f3d011682016040523d82523d6000602084013e6119ad565b606091505b50915091508180156119d75750805115806119d75750808060200190518101906119d79190612675565b611a1c5760405162461bcd60e51b815260206004820152601660248201527514915453140e881514905394d1915497d1905253115160521b6044820152606401610535565b5050505050565b6000611a2f828461273a565b9392505050565b6000611a2f83836001612248565b600080611a518385612759565b9050611a2f84821015600061226c565b600d54600160e01b900463ffffffff166001600160701b03611a84826064612697565b611a949063ffffffff168761273a565b11158015611ab857506001600160701b03611ab563ffffffff83168661273a565b11155b611af65760405162461bcd60e51b815260206004820152600f60248201526e5245514c503a204f564552464c4f5760881b6044820152606401610535565b6000611b0764010000000042612771565b600854909150600090611b2790600160e01b900463ffffffff1683612697565b905060008163ffffffff16118015611b4757506001600160701b03851615155b8015611b5b57506001600160701b03841615155b15611c1f576000611b6d846064612697565b611b7d9063ffffffff1687612785565b90506000611b9163ffffffff861687612785565b90508263ffffffff16611bb683611ba78461227e565b6001600160e01b03169061229d565b6001600160e01b0316611bc9919061273a565b60096000828254611bda9190612759565b909155505063ffffffff8316611bf382611ba78561227e565b6001600160e01b0316611c06919061273a565b600a6000828254611c179190612759565b909155505050505b6008805463ffffffff8416600160e01b026001600160e01b036001600160701b038a8116600160701b9081026001600160e01b03199095168d83161794909417918216831794859055604080519382169282169290921783529290930490911660208201527f1c411e9a96e071241c2f21f7726b17ae89e3cab4c78be50e062b03a9fffbbad1910160405180910390a150505050505050565b6001600160a01b0383811660008181526002602090815260408083209487168084529482529182902085905590518481527f8c5be1e5ebec7d5bd14f71427d1e84f3dd0314c0f7b2291e5b200ac8c7c3b92591015b60405180910390a3505050565b6001600160a01b038316600090815260016020526040902054611d3d9082611a36565b6001600160a01b038085166000908152600160205260408082209390935590841681522054611d6c9082611a44565b6001600160a01b0380841660008181526001602052604090819020939093559151908516907fddf252ad1be2c89b69c2b068fc378daa952ba7f163c4a11628f55a4df523b3ef90611d0d9085815260200190565b600080600560009054906101000a90046001600160a01b03166001600160a01b031663017e7e586040518163ffffffff1660e01b815260040160206040518083038186803b158015611e1157600080fd5b505afa158015611e25573d6000803e3d6000fd5b505050506040513d601f19601f82011682018060405250810190611e4991906126e6565b90506000600560009054906101000a90046001600160a01b03166001600160a01b031663b0e21e8a6040518163ffffffff1660e01b815260040160206040518083038186803b158015611e9b57600080fd5b505afa158015611eaf573d6000803e3d6000fd5b505050506040513d601f19601f82011682018060405250810190611ed3919061262f565b6001600160a01b038316151593509050600080611f04600d546001600160701b0380821692600160701b9092041690565b915091506000836001600160701b0316118015611f1e5750845b8015611f4657506000826001600160701b03161180611f4657506000816001600160701b0316115b1561205557600d54600c5460008054600160e01b90930463ffffffff169290916001600160a01b0316906392aec23c908b8b86611f84816064612697565b611f8e8c8c6127b4565b611f988d8c6127b4565b6040516001600160e01b031960e08a901b16815260048101979097526001600160701b039586166024880152938516604487015263ffffffff928316606487015291166084850152821660a48401521660c482015260e40160206040518083038186803b15801561200857600080fd5b505afa15801561201c573d6000803e3d6000fd5b505050506040513d601f19601f82011682018060405250810190612040919061262f565b90508015612052576120528682612119565b50505b6001600160701b0382161561207557600d80546001600160701b03191690555b6001600160701b0381161561209f57600d80546dffffffffffffffffffffffffffff60701b191690555b5050505092915050565b6000600382111561210a57508060006120c36002836126d2565b6120ce906001612759565b90505b81811015612104579050806002816120e981866126d2565b6120f39190612759565b6120fd91906126d2565b90506120d1565b50919050565b8115612114575060015b919050565b6000546121269082611a44565b60009081556001600160a01b03831681526001602052604090205461214b9082611a44565b6001600160a01b0383166000818152600160205260408082209390935591519091907fddf252ad1be2c89b69c2b068fc378daa952ba7f163c4a11628f55a4df523b3ef9061219c9085815260200190565b60405180910390a35050565b60008183106121b75781611a2f565b5090919050565b6001600160a01b0382166000908152600160205260409020546121e19082611a36565b6001600160a01b038316600090815260016020526040812091909155546122089082611a36565b60009081556040518281526001600160a01b038416907fddf252ad1be2c89b69c2b068fc378daa952ba7f163c4a11628f55a4df523b3ef9060200161219c565b6000612257848411158361226c565b6000612263848661265e565b95945050505050565b8161227a5761227a816122b2565b5050565b6000612297600160701b6001600160701b0384166127da565b92915050565b6000611a2f6001600160701b03831684612800565b62461bcd60e51b6000908152602060045260076024526642414c23000030600a808404818106603090810160081b95839006959095019082900491820690940160101b939093010160c81b604452606490fd5b6001600160a01b038116811461231a57600080fd5b50565b60008060008060006080868803121561233557600080fd5b8535945060208601359350604086013561234e81612305565b9250606086013567ffffffffffffffff8082111561236b57600080fd5b818801915088601f83011261237f57600080fd5b81358181111561238e57600080fd5b8960208285010111156123a057600080fd5b9699959850939650602001949392505050565b60005b838110156123ce5781810151838201526020016123b6565b838111156123dd576000848401525b50505050565b60208152600082518060208401526124028160408501602087016123b3565b601f01601f19169190910160400192915050565b6000806040838503121561242957600080fd5b823561243481612305565b946020939093013593505050565b60008060006060848603121561245757600080fd5b833561246281612305565b9250602084013561247281612305565b929592945050506040919091013590565b60006020828403121561249557600080fd5b8135611a2f81612305565b803563ffffffff8116811461211457600080fd5b600080600080608085870312156124ca57600080fd5b84356124d581612305565b935060208501356124e581612305565b92506124f3604086016124a0565b9150612501606086016124a0565b905092959194509250565b600080600080600080600060e0888a03121561252757600080fd5b873561253281612305565b9650602088013561254281612305565b95506040880135945060608801359350608088013560ff8116811461256657600080fd5b9699959850939692959460a0840135945060c09093013592915050565b6000806040838503121561259657600080fd5b82356125a181612305565b915060208301356125b181612305565b809150509250929050565b6020808252600d908201526c14915453140e881313d0d2d151609a1b604082015260600190565b60018060a01b038616815284602082015283604082015260806060820152816080820152818360a0830137600081830160a090810191909152601f909201601f19160101949350505050565b60006020828403121561264157600080fd5b5051919050565b634e487b7160e01b600052601160045260246000fd5b60008282101561267057612670612648565b500390565b60006020828403121561268757600080fd5b81518015158114611a2f57600080fd5b600063ffffffff838116908316818110156126b4576126b4612648565b039392505050565b634e487b7160e01b600052601260045260246000fd5b6000826126e1576126e16126bc565b500490565b6000602082840312156126f857600080fd5b8151611a2f81612305565b600060001982141561271757612717612648565b5060010190565b600082516127308184602087016123b3565b9190910192915050565b600081600019048311821515161561275457612754612648565b500290565b6000821982111561276c5761276c612648565b500190565b600082612780576127806126bc565b500690565b60006001600160701b03808316818516818304811182151516156127ab576127ab612648565b02949350505050565b60006001600160701b03808416806127ce576127ce6126bc565b92169190910492915050565b60006001600160e01b03828116848216811515828404821116156127ab576127ab612648565b60006001600160e01b03838116806127ce576127ce6126bc56fea2646970667358221220ecaad8ddf9a2c10d089adf6ca9aad1a80f467b6de7b70609c6219202c1d61d2164736f6c63430008090033",
  "linkReferences": {},
  "deployedLinkReferences": {}
}