{
  "_format": "hh-sol-artifact-1",
  "contractName": "ManagedPoolFactory",
  "sourceName": "contracts/libraries/smart/ManagedPoolFactory.sol",
  "abi": [
    {
      "inputs": [
        {
          "internalType": "contract IVault",
          "name": "vault",
          "type": "address"
        }
      ],
      "stateMutability": "nonpayable",
      "type": "constructor"
    },
    {
      "anonymous": false,
      "inputs": [
        {
          "indexed": true,
          "internalType": "address",
          "name": "pool",
          "type": "address"
        }
      ],
      "name": "PoolCreated",
      "type": "event"
    },
    {
      "inputs": [
        {
          "internalType": "string",
          "name": "name",
          "type": "string"
        },
        {
          "internalType": "string",
          "name": "symbol",
          "type": "string"
        },
        {
          "internalType": "contract IERC20[]",
          "name": "tokens",
          "type": "address[]"
        },
        {
          "internalType": "uint256[]",
          "name": "weights",
          "type": "uint256[]"
        },
        {
          "internalType": "uint256",
          "name": "swapFeePercentage",
          "type": "uint256"
        },
        {
          "internalType": "address",
          "name": "owner",
          "type": "address"
        },
        {
          "internalType": "bool",
          "name": "swapEnabledOnStart",
          "type": "bool"
        },
        {
          "internalType": "uint256",
          "name": "managementSwapFeePercentage",
          "type": "uint256"
        }
      ],
      "name": "create",
      "outputs": [
        {
          "internalType": "address",
          "name": "",
          "type": "address"
        }
      ],
      "stateMutability": "nonpayable",
      "type": "function"
    },
    {
      "inputs": [],
      "name": "getCreationCode",
      "outputs": [
        {
          "internalType": "bytes",
          "name": "",
          "type": "bytes"
        }
      ],
      "stateMutability": "view",
      "type": "function"
    },
    {
      "inputs": [],
      "name": "getCreationCodeContracts",
      "outputs": [
        {
          "internalType": "address",
          "name": "contractA",
          "type": "address"
        },
        {
          "internalType": "address",
          "name": "contractB",
          "type": "address"
        }
      ],
      "stateMutability": "view",
      "type": "function"
    },
    {
      "inputs": [],
      "name": "getPauseConfiguration",
      "outputs": [
        {
          "internalType": "uint256",
          "name": "pauseWindowDuration",
          "type": "uint256"
        },
        {
          "internalType": "uint256",
          "name": "bufferPeriodDuration",
          "type": "uint256"
        }
      ],
      "stateMutability": "view",
      "type": "function"
    },
    {
      "inputs": [],
      "name": "getVault",
      "outputs": [
        {
          "internalType": "contract IVault",
          "name": "",
          "type": "address"
        }
      ],
      "stateMutability": "view",
      "type": "function"
    },
    {
      "inputs": [
        {
          "internalType": "address",
          "name": "pool",
          "type": "address"
        }
      ],
      "name": "isPoolFromFactory",
      "outputs": [
        {
          "internalType": "bool",
          "name": "",
          "type": "bool"
        }
      ],
      "stateMutability": "view",
      "type": "function"
    }
  ],
  "bytecode": "0x6101406040523480156200001257600080fd5b5060405162008610380380620086108339810160408190526200003591620001ae565b80604051806020016200004890620001a0565b601f1982820381018352601f909101166040528051819060006200006e600283620001f6565b60a08190529050600062000083828462000219565b60e0819052828552905083620000a5816200010a602090811b6200031417901c565b6001600160a01b03166080528285018051838252620000d0826200010a602090811b6200031417901c565b6001600160a01b0390811660c05295909252525050929092166101005250620000ff90506276a7004262000233565b61012052506200024e565b80517f602038038060206000396000f3fefefefefefefefefefefefefefefefefefefe808352600091602081018484f090845291506001600160a01b0382166200019a5760405162461bcd60e51b815260206004820152601660248201527f434f44455f4445504c4f594d454e545f4641494c454400000000000000000000604482015260640160405180910390fd5b50919050565b6177908062000e8083390190565b600060208284031215620001c157600080fd5b81516001600160a01b0381168114620001d957600080fd5b9392505050565b634e487b7160e01b600052601160045260246000fd5b6000826200021457634e487b7160e01b600052601260045260246000fd5b500490565b6000828210156200022e576200022e620001e0565b500390565b60008219821115620002495762000249620001e0565b500190565b60805160a05160c05160e0516101005161012051610bcf620002b16000396000818161019301526101bf015260006102f20152600061040901526000818160b701526103e8015260006103c7015260008181609201526103a60152610bcf6000f3fe608060405234801561001057600080fd5b50600436106100615760003560e01c8062c194db14610066578063174481fa146100845780632da47c40146100e257806359e5f80e146100ff5780636634b7531461012a5780638d928af814610166575b600080fd5b61006e61016e565b60405161007b91906105e6565b60405180910390f35b604080516001600160a01b037f0000000000000000000000000000000000000000000000000000000000000000811682527f00000000000000000000000000000000000000000000000000000000000000001660208201520161007b565b6100ea61018d565b6040805192835260208301919091520161007b565b61011261010d3660046107e5565b6101fa565b6040516001600160a01b03909116815260200161007b565b6101566101383660046108c6565b6001600160a01b031660009081526020819052604090205460ff1690565b604051901515815260200161007b565b6101126102f0565b6060610188604051806020016040528060008152506103a2565b905090565b600080427f00000000000000000000000000000000000000000000000000000000000000008110156101ef576101e3817f00000000000000000000000000000000000000000000000000000000000000006108f9565b9362278d009350915050565b506000928392509050565b600080600061020761018d565b915091506102e16040518061018001604052806102226102f0565b6001600160a01b031681526020018d81526020018c81526020018b81526020018a81526020018b516001600160401b0381111561026157610261610606565b60405190808252806020026020018201604052801561028a578160200160208202803683370190505b508152602001898152602001848152602001838152602001886001600160a01b031681526020018715158152602001868152506040516020016102cd9190610984565b60405160208183030381529060405261048e565b9b9a5050505050505050505050565b7f000000000000000000000000000000000000000000000000000000000000000090565b80517f602038038060206000396000f3fefefefefefefefefefefefefefefefefefefe808352600091602081018484f090845291506001600160a01b03821661039c5760405162461bcd60e51b815260206004820152601660248201527510d3d11157d111541313d65351539517d1905253115160521b604482015260640160405180910390fd5b50919050565b60607f00000000000000000000000000000000000000000000000000000000000000007f00000000000000000000000000000000000000000000000000000000000000007f00000000000000000000000000000000000000000000000000000000000000007f000000000000000000000000000000000000000000000000000000000000000060006104348285610a8f565b875190915060006104458284610a8f565b9050604051975060208101880160405280885260208801866000828a3c846000888301883c50602089810190898501016104808183866104ee565b505050505050505050919050565b60008061049a8361055f565b6001600160a01b038116600081815260208190526040808220805460ff191660011790555192935090917f83a48fbcfc991335314e74d0496aab6a1987e992ddc85dddbcc4d6dd6ef2e9fc9190a292915050565b602081106105265781518352610505602084610a8f565b9250610512602083610a8f565b915061051f6020826108f9565b90506104ee565b600060016105358360206108f9565b61054190610100610b8d565b61054b91906108f9565b925184518416931916929092179092525050565b60008061056b836103a2565b905060008151602083016000f090506001600160a01b038116610592573d6000803e3d6000fd5b9392505050565b6000815180845260005b818110156105bf576020818501810151868301820152016105a3565b818111156105d1576000602083870101525b50601f01601f19169290920160200192915050565b6020815260006105926020830184610599565b6001600160a01b03169052565b634e487b7160e01b600052604160045260246000fd5b604051601f8201601f191681016001600160401b038111828210171561064457610644610606565b604052919050565b600082601f83011261065d57600080fd5b81356001600160401b0381111561067657610676610606565b610689601f8201601f191660200161061c565b81815284602083860101111561069e57600080fd5b816020850160208301376000918101602001919091529392505050565b60006001600160401b038211156106d4576106d4610606565b5060051b60200190565b6001600160a01b03811681146106f357600080fd5b50565b600082601f83011261070757600080fd5b8135602061071c610717836106bb565b61061c565b82815260059290921b8401810191818101908684111561073b57600080fd5b8286015b8481101561075f578035610752816106de565b835291830191830161073f565b509695505050505050565b600082601f83011261077b57600080fd5b8135602061078b610717836106bb565b82815260059290921b840181019181810190868411156107aa57600080fd5b8286015b8481101561075f57803583529183019183016107ae565b80356107d0816106de565b919050565b803580151581146107d057600080fd5b600080600080600080600080610100898b03121561080257600080fd5b88356001600160401b038082111561081957600080fd5b6108258c838d0161064c565b995060208b013591508082111561083b57600080fd5b6108478c838d0161064c565b985060408b013591508082111561085d57600080fd5b6108698c838d016106f6565b975060608b013591508082111561087f57600080fd5b5061088c8b828c0161076a565b955050608089013593506108a260a08a016107c5565b92506108b060c08a016107d5565b915060e089013590509295985092959890939650565b6000602082840312156108d857600080fd5b8135610592816106de565b634e487b7160e01b600052601160045260246000fd5b60008282101561090b5761090b6108e3565b500390565b600081518084526020808501945080840160005b838110156109495781516001600160a01b031687529582019590820190600101610924565b509495945050505050565b600081518084526020808501945080840160005b8381101561094957815187529582019590820190600101610968565b602081526109966020820183516105f9565b600060208301516101808060408501526109b46101a0850183610599565b91506040850151601f19808685030160608701526109d28483610599565b935060608701519150808685030160808701526109ef8483610910565b935060808701519150808685030160a0870152610a0c8483610954565b935060a08701519150808685030160c087015250610a2a8382610910565b92505060c085015160e085015260e0850151610100818187015280870151915050610120818187015280870151915050610140610a69818701836105f9565b8601519050610160610a7e8682018315159052565b959095015193019290925250919050565b60008219821115610aa257610aa26108e3565b500190565b600181815b80851115610ae2578160001904821115610ac857610ac86108e3565b80851615610ad557918102915b93841c9390800290610aac565b509250929050565b600082610af957506001610b87565b81610b0657506000610b87565b8160018114610b1c5760028114610b2657610b42565b6001915050610b87565b60ff841115610b3757610b376108e3565b50506001821b610b87565b5060208310610133831016604e8410600b8410161715610b65575081810a610b87565b610b6f8383610aa7565b8060001904821115610b8357610b836108e3565b0290505b92915050565b60006105928383610aea56fea2646970667358221220909eb5c1056dc314177387b2d3a622ed624c6d9b207642e7abd2bd497aa2b16a64736f6c634300080900336101e06040527f6e71edae12b1b97f4d1f60370fef10105fa2faae0126114a169c64845d6126c9610120523480156200003757600080fd5b5060405162007790380380620077908339810160408190526200005a9162001079565b805160208201516040830151606084015160a085015160c086015160e0870151610100880151610120890151855189906002146200009a5760016200009d565b60025b8989898989898989828289898d8280604051806040016040528060018152602001603160f81b81525085858a6060336001600160a01b0316901b60001b806080818152505050806001600160a01b031660a0816001600160a01b0316815250505081600390805190602001906200011692919062000d87565b5080516200012c90600490602084019062000d87565b50506005805460ff1916601217905550815160209283012060c052805191012060e052507f8b73c3c69bb8fe3d512ecc4cf759cc79239f7b179b0ffacaa9a75d522b39400f610100526001600160a01b031661014052506200019990506276a7008311156101946200049e565b620001ad62278d008211156101956200049e565b6000620001bb83426200120f565b6101608190529050620001cf82826200120f565b6101805250508651620001e991506002111560c86200049e565b620001fb60328751111560c96200049e565b6200021186620004b360201b620013921760201c565b6200021c84620004bf565b6040516309b2760f60e01b81526000906001600160a01b038c16906309b2760f906200024d908d906004016200122a565b602060405180830381600087803b1580156200026857600080fd5b505af11580156200027d573d6000803e3d6000fd5b505050506040513d601f19601f82011682018060405250810190620002a3919062001253565b604051633354e3e960e11b81529091506001600160a01b038c16906366a9c7d290620002d89084908b908b906004016200126d565b600060405180830381600087803b158015620002f357600080fd5b505af115801562000308573d6000803e3d6000fd5b50505050806101a0818152505050505050505050505050505050505050505050506001600a81905550600081606001515190506200035d818360800151518460a00151516200054560201b6200139c1760201c565b6200038d620003878260016200037260085490565b6200056560201b620013b4179092919060201c565b62000578565b620003a5816200039c6200059d565b1460c96200049e565b608082015160608301514291620003c291839182918190620005c8565b60005b8281101562000420576200040c84606001518281518110620003eb57620003eb62001309565b60200260200101516000600c6200082e60201b620013c3179092919060201c565b5062000418816200131f565b9050620003c5565b50610140830151620004329062000916565b62000456670de0b6b3a764000084610160015111156101526200049e60201b60201c565b610160830180516101c052516040519081527feba99e9e36df79031493efd8473cfce5475d3a135878665490df8b01406932109060200160405180910390a15050506200147b565b81620004af57620004af8162000973565b5050565b80620004af81620009c6565b620004d464e8d4a5100082101560cb6200049e565b620004ec67016345785d8a000082111560ca6200049e565b6200050b8160c060085462000a6460201b620014aa179092919060201c565b6008556040518181527fa9ba3ffe0b6c366b81232caab38605a0699ad5398d6cce76f91ee809e322dafc906020015b60405180910390a150565b6200056082841480156200055857508183145b60676200049e565b505050565b81811b607f821b198416175b9392505050565b6200059781600060085462000a7960201b620014bf179092919060201c565b60085550565b6000620005c36001620005af60085490565b62000a9460201b620014da1790919060201c565b905090565b600080805b8451811015620007b4576000858281518110620005ee57620005ee62001309565b6020026020010151905062000616662386f26fc1000082101561012e6200049e60201b60201c565b60008583815181106200062d576200062d62001309565b6020026020010151905062000763620006cd826001600160a01b031663313ce5676040518163ffffffff1660e01b815260040160206040518083038186803b1580156200067957600080fd5b505afa1580156200068e573d6000803e3d6000fd5b505050506040513d601f19601f82011682018060405250810190620006b491906200133d565b60ff16601262000aa160201b620014e11790919060201c565b60606200074e620006e98662000afe60201b620015361760201c565b604062000739620007218f8b8151811062000708576200070862001309565b602002602001015162000b4160201b6200155a1760201c565b60008c62000a6460201b620014aa179092919060201c565b62000b7360201b62001579179092919060201c565b62000b8560201b6200158b179092919060201c565b6001600160a01b0382166000908152600b60209081526040909120919091556200079a90869084906200159a62000b94821b17901c565b945050508080620007ab906200131f565b915050620005cd565b50620007cd670de0b6b3a764000083146101346200049e565b620007e662000387876028620007398b60088260085490565b7f0f3631f9dab08169d1db21c6dc5f32536fb2b0a6b9bb5330d71c52132f968be0878787876040516200081d94939291906200139f565b60405180910390a150505050505050565b6001600160a01b038216600090815260028401602052604081205480620008e05784546040805180820182526001600160a01b038781168252602080830188815260008681526001808d0190935294909420925183546001600160a01b0319169216919091178255915190820155620008a99082906200120f565b8655620008b88160016200120f565b6001600160a01b03861660009081526002880160205260409020555060019150620005719050565b82856001016000600184620008f69190620013df565b815260200190815260200160002060010181905550600091505062000571565b62000940620003878260006200092b60085490565b62000be660201b620015e8179092919060201c565b60405181151581527f5a9e84f78f7957cb4ed7478eb0fcad35ee4ecbe2e0f298420b28a3955392573f906020016200053a565b62461bcd60e51b6000908152602060045260076024526642414c23000030600a808404818106603090810160081b95839006959095019082900491820690940160101b939093010160c81b604452606490fd5b600281511015620009d45750565b600081600081518110620009ec57620009ec62001309565b602002602001015190506000600190505b82518110156200056057600083828151811062000a1e5762000a1e62001309565b6020026020010151905062000a4f816001600160a01b0316846001600160a01b03161060656200049e60201b60201c565b915062000a5c816200131f565b9050620009fd565b6001600160401b03811b1992909216911b1790565b6001600160c01b03828116821b90821b198416179392505050565b81811c607f165b92915050565b60008282111562000ae85760405162461bcd60e51b815260206004820152600c60248201526b5355425f4f564552464c4f5760a01b60448201526064015b60405180910390fd5b600062000af68385620013df565b949350505050565b600062000a9b670de0b6b3a764000062000b2d63ffffffff80168562000c0f60201b6200160f1790919060201c565b62000cbe60201b6200168f1790919060201c565b600062000a9b670de0b6b3a764000062000b2d6001600160401b0380168562000c0f60201b6200160f1790919060201c565b63ffffffff811b1992909216911b1790565b601f811b1992909216911b1790565b60008062000ba383856200120f565b905083811015620005715760405162461bcd60e51b815260206004820152600c60248201526b4144445f4f564552464c4f5760a01b604482015260640162000adf565b60006001821b198416828462000bfe57600062000c01565b60015b60ff16901b17949350505050565b60008062000c1e8385620013f9565b905083158062000c3857508262000c3685836200141b565b145b62000c755760405162461bcd60e51b815260206004820152600c60248201526b4d554c5f4f564552464c4f5760a01b604482015260640162000adf565b8062000c8657600091505062000a9b565b670de0b6b3a764000062000c9c600183620013df565b62000ca891906200141b565b62000cb59060016200120f565b91505062000a9b565b60008162000cff5760405162461bcd60e51b815260206004820152600d60248201526c2d22a927afa224ab24a9a4a7a760991b604482015260640162000adf565b8262000d0e5750600062000a9b565b600062000d24670de0b6b3a764000085620013f9565b9050670de0b6b3a764000062000d3b85836200141b565b1462000d795760405162461bcd60e51b815260206004820152600c60248201526b11125597d25395115493905360a21b604482015260640162000adf565b8262000c9c600183620013df565b82805462000d95906200143e565b90600052602060002090601f01602090048101928262000db9576000855562000e04565b82601f1062000dd457805160ff191683800117855562000e04565b8280016001018555821562000e04579182015b8281111562000e0457825182559160200191906001019062000de7565b5062000e1292915062000e16565b5090565b5b8082111562000e12576000815560010162000e17565b634e487b7160e01b600052604160045260246000fd5b60405161018081016001600160401b038111828210171562000e695762000e6962000e2d565b60405290565b604051601f8201601f191681016001600160401b038111828210171562000e9a5762000e9a62000e2d565b604052919050565b6001600160a01b038116811462000eb857600080fd5b50565b805162000ec88162000ea2565b919050565b600082601f83011262000edf57600080fd5b81516001600160401b0381111562000efb5762000efb62000e2d565b602062000f11601f8301601f1916820162000e6f565b828152858284870101111562000f2657600080fd5b60005b8381101562000f4657858101830151828201840152820162000f29565b8381111562000f585760008385840101525b5095945050505050565b60006001600160401b0382111562000f7e5762000f7e62000e2d565b5060051b60200190565b600082601f83011262000f9a57600080fd5b8151602062000fb362000fad8362000f62565b62000e6f565b82815260059290921b8401810191818101908684111562000fd357600080fd5b8286015b8481101562000ffb57805162000fed8162000ea2565b835291830191830162000fd7565b509695505050505050565b600082601f8301126200101857600080fd5b815160206200102b62000fad8362000f62565b82815260059290921b840181019181810190868411156200104b57600080fd5b8286015b8481101562000ffb57805183529183019183016200104f565b8051801515811462000ec857600080fd5b6000602082840312156200108c57600080fd5b81516001600160401b0380821115620010a457600080fd5b908301906101808286031215620010ba57600080fd5b620010c462000e43565b620010cf8362000ebb565b8152602083015182811115620010e457600080fd5b620010f28782860162000ecd565b6020830152506040830151828111156200110b57600080fd5b620011198782860162000ecd565b6040830152506060830151828111156200113257600080fd5b620011408782860162000f88565b6060830152506080830151828111156200115957600080fd5b620011678782860162001006565b60808301525060a0830151828111156200118057600080fd5b6200118e8782860162000f88565b60a08301525060c083015160c082015260e083015160e0820152610100915081830151828201526101209150620011c782840162000ebb565b828201526101409150620011dd82840162001068565b9181019190915261016091820151918101919091529392505050565b634e487b7160e01b600052601160045260246000fd5b60008219821115620012255762001225620011f9565b500190565b60208101600383106200124d57634e487b7160e01b600052602160045260246000fd5b91905290565b6000602082840312156200126657600080fd5b5051919050565b6000606082018583526020606081850152818651808452608086019150828801935060005b81811015620012b95784516001600160a01b03168352938301939183019160010162001292565b50508481036040860152855180825290820192508186019060005b81811015620012fb5782516001600160a01b031685529383019391830191600101620012d4565b509298975050505050505050565b634e487b7160e01b600052603260045260246000fd5b6000600019821415620013365762001336620011f9565b5060010190565b6000602082840312156200135057600080fd5b815160ff811681146200057157600080fd5b600081518084526020808501945080840160005b83811015620013945781518752958201959082019060010162001376565b509495945050505050565b848152836020820152608060408201526000620013c0608083018562001362565b8281036060840152620013d4818562001362565b979650505050505050565b600082821015620013f457620013f4620011f9565b500390565b6000816000190483118215151615620014165762001416620011f9565b500290565b6000826200143957634e487b7160e01b600052601260045260246000fd5b500490565b600181811c908216806200145357607f821691505b602082108114156200147557634e487b7160e01b600052602260045260246000fd5b50919050565b60805160a05160c05160e05161010051610120516101405161016051610180516101a0516101c051616287620015096000396000818161044d01526135360152600061084b0152600061185d0152600061183901526000610e630152600061108b01526000611b3f01526000611b8101526000611b6001526000610e3f01526000610db601526162876000f3fe608060405234801561001057600080fd5b50600436106101e35760003560e01c806306fdde03146101e8578063095ea7b31461020657806316c38b3c1461022957806318160ddd1461023e5780631c0de051146102505780631dd746ea1461027557806323b872dd1461028a578063313ce5671461029d57806332f144f5146102b25780633644e515146102c857806338e9922e146102d057806338fff2d0146102e357806339509351146102eb5780633e569205146102fe57806347bc4d921461031157806350dd6ed91461031957806355c676281461032c5780635b77155e146103375780636028bfd41461034a578063679aefce1461036b57806370a082311461037357806374f3b0091461039c5780637beed220146103bd5780637ecebe00146103d4578063851c1bb3146103fd57806387ec681714610410578063893d20e8146104235780638d928af81461044357806390605f3a1461044b57806395d89b41146104715780639b02cdde146104795780639d2c110c14610481578063a457c2d714610494578063a9059cbb146104a7578063aaabadc5146104ba578063c0ff1a15146104c2578063d505accf146104ca578063d5c096c4146104dd578063dd62ed3e146104f0578063e01af92c14610503578063f89f27ed14610516575b600080fd5b6101f061051e565b6040516101fd91906153a4565b60405180910390f35b6102196102143660046153d7565b6105b0565b60405190151581526020016101fd565b61023c610237366004615411565b6105c7565b005b6002545b6040519081526020016101fd565b6102586105db565b6040805193151584526020840192909252908201526060016101fd565b61027d610604565b6040516101fd9190615469565b61021961029836600461547c565b610613565b60055460405160ff90911681526020016101fd565b6102ba6106db565b6040516101fd9291906154bd565b610242610826565b61023c6102de366004615513565b610830565b610242610849565b6102196102f93660046153d7565b61086d565b61023c61030c366004615629565b6108a4565b6102196109a5565b61023c6103273660046156e7565b6109bf565b60085460c01c610242565b61023c610345366004615736565b6109dd565b61035d610358366004615753565b610b04565b6040516101fd9291906157f8565b610242610b3b565b610242610381366004615736565b6001600160a01b031660009081526020819052604090205490565b6103af6103aa366004615753565b610b69565b6040516101fd929190615811565b6103c5610c0c565b6040516101fd93929190615836565b6102426103e2366004615736565b6001600160a01b031660009081526006602052604090205490565b61024261040b366004615855565b610db2565b61035d61041e366004615753565b610e17565b61042b610e3d565b6040516001600160a01b0390911681526020016101fd565b61042b610e61565b7f0000000000000000000000000000000000000000000000000000000000000000610242565b6101f0610e85565b610242610e94565b61024261048f36600461588e565b610ea4565b6102196104a23660046153d7565b610f3f565b6102196104b53660046153d7565b610f7f565b61042b610f8c565b610242610f96565b61023c6104d8366004615992565b61105c565b6103af6104eb366004615753565b6111cc565b6102426104fe366004615a03565b6112fe565b61023c610511366004615411565b61135d565b61027d611388565b60606003805461052d90615a3c565b80601f016020809104026020016040519081016040528092919081815260200182805461055990615a3c565b80156105a65780601f1061057b576101008083540402835291602001916105a6565b820191906000526020600020905b81548152906001019060200180831161058957829003601f168201915b5050505050905090565b60006105bd33848461170d565b5060015b92915050565b6105cf61176f565b6105d88161179d565b50565b60008060006105e861181a565b1592506105f3611837565b91506105fd61185b565b9050909192565b606061060e61187f565b905090565b60008061062085336112fe565b9050336001600160a01b03861614806106395750828110155b61068a5760405162461bcd60e51b815260206004820181905260248201527f45524332305f5452414e534645525f455843454544535f414c4c4f57414e434560448201526064015b60405180910390fd5b6106958585856119e5565b336001600160a01b038616148015906106b557506001600160801b038114155b156106ce576106ce85336106c98685615a8d565b61170d565b60019150505b9392505050565b6060806106e6611aa8565b6001600160401b038111156106fd576106fd61552c565b604051908082528060200260200182016040528015610726578160200160208202803683370190505b509150610731611aa8565b6001600160401b038111156107485761074861552c565b604051908082528060200260200182016040528015610771578160200160208202803683370190505b50905060005b61077f611aa8565b811015610810576000818152600d60205260409020805460019091015484516001600160a01b039092169182908690859081106107be576107be615aa4565b60200260200101906001600160a01b031690816001600160a01b031681525050808484815181106107f1576107f1615aa4565b60200260200101818152505050508061080990615aba565b9050610777565b506108228161081d61187f565b611ac0565b9091565b600061060e611b3b565b61083861176f565b610840611be1565b6105d881611bf6565b7f000000000000000000000000000000000000000000000000000000000000000090565b3360008181526001602090815260408083206001600160a01b038716845290915281205490916105bd9185906106c9908690615ad5565b6108ac61176f565b6108b4611be1565b6108bc611c61565b6108ce6108c7611aa8565b8251611c7a565b426108d98185611c87565b93506108ea83851115610146611c9e565b60006108f4610e61565b6001600160a01b031663f94d466861090a610849565b6040518263ffffffff1660e01b815260040161092891815260200190565b60006040518083038186803b15801561094057600080fd5b505afa158015610954573d6000803e3d6000fd5b505050506040513d6000823e601f3d908101601f1916820160405261097c9190810190615b48565b50509050610994858561098d611cac565b8685611e26565b50506109a06001600a55565b505050565b600061060e60006109b560085490565b6001911c81161490565b6109c761176f565b6109cf611be1565b6109d98282612008565b5050565b6109e561176f565b6109ed611be1565b6109f5611c61565b600080610a006106db565b91509150610a0c610e61565b6001600160a01b0316638bdb3913610a22610849565b30866040518060800160405280610a368990565b81526020018781526020016003604051602001610a539190615c2b565b6040516020818303038152906040528152602001600015158152506040518563ffffffff1660e01b8152600401610a8d9493929190615c53565b600060405180830381600087803b158015610aa757600080fd5b505af1158015610abb573d6000803e3d6000fd5b505050507f5cf8dd4ddeaded21c5e3dc4043073fa7659089e0d11d8480344663008dff060f8282604051610af09291906154bd565b60405180910390a150506105d86001600a55565b60006060610b1a8651610b15611aa8565b611c7a565b610b2f8989898989898961210c611ac06121e5565b97509795505050505050565b600061060e610b4960025490565b610b51611aa8565b610b59610f96565b610b639190615d12565b90612307565b60608088610b93610b78610e61565b6001600160a01b0316336001600160a01b03161460cd611c9e565b610ba8610b9e610849565b82146101f4611c9e565b6000610bb261187f565b9050610bbe8882612383565b6000806000610bd38e8e8e8e8e8e8a8f61210c565b925092509250610be38d846123fe565b610bed8285611ac0565b610bf78185611ac0565b909550935050505b5097509795505050505050565b60008060606000610c1c60085490565b9050600881901c63ffffffff169350602881901c63ffffffff1692506000610c42610e61565b6001600160a01b031663f94d4668610c58610849565b6040518263ffffffff1660e01b8152600401610c7691815260200190565b60006040518083038186803b158015610c8e57600080fd5b505afa158015610ca2573d6000803e3d6000fd5b505050506040513d6000823e601f3d908101601f19168201604052610cca9190810190615b48565b50508051909150806001600160401b03811115610ce957610ce961552c565b604051908082528060200260200182016040528015610d12578160200160208202803683370190505b50935060005b81811015610da957610d7a610d756040600b6000878681518110610d3e57610d3e615aa4565b60200260200101516001600160a01b03166001600160a01b031681526020019081526020016000205461240890919063ffffffff16565b612412565b858281518110610d8c57610d8c615aa4565b602090810291909101015280610da181615aba565b915050610d18565b50505050909192565b60007f000000000000000000000000000000000000000000000000000000000000000082604051602001610dfa9291909182526001600160e01b031916602082015260240190565b604051602081830303815290604052805190602001209050919050565b60006060610e288651610b15611aa8565b610b2f898989898989896124306124e46121e5565b7f000000000000000000000000000000000000000000000000000000000000000090565b7f000000000000000000000000000000000000000000000000000000000000000090565b60606004805461052d90615a3c565b6000610ea161015361255f565b90565b600080610ec38560200151610135600c6125b29092919063ffffffff16565b90506000610ee7610ee083610edb89602001516125f6565b612609565b86906114e1565b90506000610f078760400151610135600c6125b29092919063ffffffff16565b90506000610f26610f1f83610edb8b604001516125f6565b87906114e1565b9050610f33888483612615565b98975050505050505050565b600080610f4c33856112fe565b9050808310610f6657610f613385600061170d565b610f75565b610f7533856106c98685615a8d565b5060019392505050565b60006105bd3384846119e5565b600061060e612781565b600080610fa1610e61565b6001600160a01b031663f94d4668610fb7610849565b6040518263ffffffff1660e01b8152600401610fd591815260200190565b60006040518083038186803b158015610fed57600080fd5b505afa158015611001573d6000803e3d6000fd5b505050506040513d6000823e601f3d908101601f191682016040526110299190810190615b48565b5091505061103e8161103961187f565b612383565b60006110486127fb565b5090506110558183612895565b9250505090565b61106a8442111560d1611c9e565b6001600160a01b0387811660008181526006602090815260408083205481517f00000000000000000000000000000000000000000000000000000000000000008185015280830195909552948b166060850152608084018a905260a0840185905260c08085018a90528151808603909101815260e090940190528251920191909120906110f68261294f565b6040805160008082526020820180845284905260ff8a169282019290925260608101889052608081018790529192509060019060a0016020604051602081039080840390855afa15801561114e573d6000803e3d6000fd5b5050604051601f190151915061119090506001600160a01b0382161580159061118857508b6001600160a01b0316826001600160a01b0316145b6101f8611c9e565b61119b846001615ad5565b6001600160a01b038c166000908152600660205260409020556111bf8b8b8b61170d565b5050505050505050505050565b606080886111db610b78610e61565b6111e6610b9e610849565b60006111f061187f565b90506111fb60025490565b6112ae5760008061120f8d8d8d868b61297e565b9150915061122a611220620f424090565b83101560cc611c9e565b61123d6000620f4240612a20565b612a20565b61124e8b611238620f424085615a8d565b61125881846124e4565b80611261611aa8565b6001600160401b038111156112785761127861552c565b6040519080825280602002602001820160405280156112a1578160200160208202803683370190505b5095509550505050610bff565b6112b88882612383565b60008060006112cd8e8e8e8e8e8e8a8f612430565b9250925092506112dd8c84612a20565b6112e782856124e4565b6112f18185611ac0565b9095509350610bff915050565b6000611308610e61565b6001600160a01b0316826001600160a01b0316141561132f57506001600160801b036105c1565b6001600160a01b038084166000908152600160209081526040808320938616835292905220545b90506105c1565b61136561176f565b61136d611be1565b611375611c61565b61137e81612a2a565b6105d86001600a55565b606061060e611cac565b806109d981612a75565b6109a082841480156113ad57508183145b6067611c9e565b607f811b1992909216911b1790565b6001600160a01b03821660009081526002840160205260408120548061146f5784546040805180820182526001600160a01b038781168252602080830188815260008681526001808d0190935294909420925183546001600160a01b031916921691909117825591519082015561143b908290615ad5565b8655611448816001615ad5565b6001600160a01b038616600090815260028801602052604090205550600191506106d49050565b828560010160006001846114839190615a8d565b81526020019081526020016000206001018190555060009150506106d4565b509392505050565b6001600160401b03811b1992909216911b1790565b6001600160c01b03828116821b90821b198416179392505050565b1c607f1690565b6000828211156115225760405162461bcd60e51b815260206004820152600c60248201526b5355425f4f564552464c4f5760a01b6044820152606401610681565b600061152e8385615a8d565b949350505050565b60006105c1670de0b6b3a76400006115548463ffffffff61160f8116565b9061168f565b60006105c1670de0b6b3a7640000611554846001600160401b0361160f565b63ffffffff811b1992909216911b1790565b601f811b1992909216911b1790565b6000806115a78385615ad5565b9050838110156106d45760405162461bcd60e51b815260206004820152600c60248201526b4144445f4f564552464c4f5760a01b6044820152606401610681565b60006001821b19841682846115fe576000611601565b60015b60ff16901b17949350505050565b60008061161c8385615d12565b90508315806116335750826116318583615d47565b145b61164f5760405162461bcd60e51b815260040161068190615d5b565b8061165e5760009150506105c1565b670de0b6b3a7640000611672600183615a8d565b61167c9190615d47565b611687906001615ad5565b9150506105c1565b6000816116ae5760405162461bcd60e51b815260040161068190615d81565b826116bb575060006105c1565b60006116cf670de0b6b3a764000085615d12565b9050670de0b6b3a76400006116e48583615d47565b146117015760405162461bcd60e51b815260040161068190615da8565b82611672600183615a8d565b6001600160a01b0383811660008181526001602090815260408083209487168084529482529182902085905590518481527f8c5be1e5ebec7d5bd14f71427d1e84f3dd0314c0f7b2291e5b200ac8c7c3b92591015b60405180910390a3505050565b60006117866000356001600160e01b031916610db2565b90506105d86117958233612b00565b610191611c9e565b80156117bd576117b86117ae611837565b4210610193611c9e565b6117d2565b6117d26117c861185b565b42106101a9611c9e565b6007805460ff19168215159081179091556040519081527f9e3a5e37224532dea67b89face185703738a228a6e8a23dee546960180d3be64906020015b60405180910390a150565b600061182461185b565b42118061060e57505060075460ff161590565b7f000000000000000000000000000000000000000000000000000000000000000090565b7f000000000000000000000000000000000000000000000000000000000000000090565b6060600061188b610e61565b6001600160a01b031663f94d46686118a1610849565b6040518263ffffffff1660e01b81526004016118bf91815260200190565b60006040518083038186803b1580156118d757600080fd5b505afa1580156118eb573d6000803e3d6000fd5b505050506040513d6000823e601f3d908101601f191682016040526119139190810190615b48565b50508051909150806001600160401b038111156119325761193261552c565b60405190808252806020026020018201604052801561195b578160200160208202803683370190505b50925060005b818110156119df576119b0600b600085848151811061198257611982615aa4565b60200260200101516001600160a01b03166001600160a01b0316815260200190815260200160002054612bf2565b8482815181106119c2576119c2615aa4565b6020908102919091010152806119d781615aba565b915050611961565b50505090565b6119fc6001600160a01b0384161515610198611c9e565b611a136001600160a01b0383161515610199611c9e565b6001600160a01b038316600090815260208190526040902054611a3990826101a0612c19565b6001600160a01b038085166000908152602081905260408082209390935590841681522054611a69908290615ad5565b6001600160a01b038381166000818152602081815260409182902094909455518481529092918616916000805160206162328339815191529101611762565b600061060e6001611ab860085490565b901c607f1690565b60005b611acb611aa8565b8110156109a057611b0e838281518110611ae757611ae7615aa4565b6020026020010151838381518110611b0157611b01615aa4565b6020026020010151612307565b838281518110611b2057611b20615aa4565b6020908102919091010152611b3481615aba565b9050611ac3565b60007f00000000000000000000000000000000000000000000000000000000000000007f00000000000000000000000000000000000000000000000000000000000000007f000000000000000000000000000000000000000000000000000000000000000046604080516020810195909552840192909252606083015260808201523060a082015260c00160405160208183030381529060405280519060200120905090565b611bf4611bec61181a565b610192611c9e565b565b611c0964e8d4a5100082101560cb611c9e565b611c1f67016345785d8a000082111560ca611c9e565b600854611c2e908260c06114aa565b6008556040518181527fa9ba3ffe0b6c366b81232caab38605a0699ad5398d6cce76f91ee809e322dafc9060200161180f565b611c736002600a541415610190611c9e565b6002600a55565b6109d98183146067611c9e565b600081831015611c9757816106d4565b5090919050565b816109d9576109d98161255f565b60606000611cb8610e61565b6001600160a01b031663f94d4668611cce610849565b6040518263ffffffff1660e01b8152600401611cec91815260200190565b60006040518083038186803b158015611d0457600080fd5b505afa158015611d18573d6000803e3d6000fd5b505050506040513d6000823e601f3d908101601f19168201604052611d409190810190615b48565b50508051909150806001600160401b03811115611d5f57611d5f61552c565b604051908082528060200260200182016040528015611d88578160200160208202803683370190505b5092506000611d95612c34565b905060005b82811015611e1f576000600b6000868481518110611dba57611dba615aa4565b60200260200101516001600160a01b03166001600160a01b03168152602001908152602001600020549050611def8184612cb2565b868381518110611e0157611e01615aa4565b60209081029190910101525080611e1781615aba565b915050611d9a565b5050505090565b600080805b8451811015611f8e576000858281518110611e4857611e48615aa4565b60200260200101519050611e68662386f26fc1000082101561012e611c9e565b6000858381518110611e7c57611e7c615aa4565b60200260200101519050611f54611f08826001600160a01b031663313ce5676040518163ffffffff1660e01b815260040160206040518083038186803b158015611ec557600080fd5b505afa158015611ed9573d6000803e3d6000fd5b505050506040513d601f19601f82011682018060405250810190611efd9190615dce565b60129060ff166114e1565b6060611f4d611f1686611536565b6040611f46611f3d8f8b81518110611f3057611f30615aa4565b602002602001015161155a565b8b9060006114aa565b9190611579565b919061158b565b6001600160a01b0382166000908152600b6020526040902055611f77858361159a565b945050508080611f8690615aba565b915050611e2b565b50611fa5670de0b6b3a76400008314610134611c9e565b611fc2611fbd876028611f468b6008611f4660085490565b612d60565b7f0f3631f9dab08169d1db21c6dc5f32536fb2b0a6b9bb5330d71c52132f968be087878787604051611ff79493929190615deb565b60405180910390a150505050505050565b6000612012610849565b9050600061201e610e61565b60405163160bf1c960e31b8152600481018490526001600160a01b038681166024830152919091169063b05f8e489060440160806040518083038186803b15801561206857600080fd5b505afa15801561207c573d6000803e3d6000fd5b505050506040513d601f19601f820116820180604052508101906120a09190615e1c565b604051630639cdb560e21b81529094506001600160a01b03851693506318e736d492506120d4915085908790600401615e5d565b600060405180830381600087803b1580156120ee57600080fd5b505af1158015612102573d6000803e3d6000fd5b5050505050505050565b600060608061211a88612d75565b600061212585612dea565b90506121726121326109a5565b8061214e5750600182600381111561214c5761214c615c15565b145b8061216a5750600382600381111561216857612168615c15565b145b61014a611c9e565b6121868b8a61217f611cac565b8989612e00565b9094509250612193611aa8565b6001600160401b038111156121aa576121aa61552c565b6040519080825280602002602001820160405280156121d3578160200160208202803683370190505b50915050985098509895505050505050565b3330146122a3576000306001600160a01b0316600036604051612209929190615e76565b6000604051808303816000865af19150503d8060008114612246576040519150601f19603f3d011682016040523d82523d6000602084013e61224b565b606091505b50509050806000811461225a57fe5b60046000803e6000516001600160e01b0319166343adbafb60e01b8114612285573d6000803e3d6000fd5b506020600460003e604060205260243d03602460403e601c3d016000f35b60006122ad61187f565b90506122b98782612383565b6000806122d08c8c8c8c8c8c898d8d63ffffffff16565b50915091506122e381848663ffffffff16565b8051601f1982018390526343adbafb603f1983015260200260231982016044820181fd5b6000816123265760405162461bcd60e51b815260040161068190615d81565b82612333575060006105c1565b6000612347670de0b6b3a764000085615d12565b9050670de0b6b3a764000061235c8583615d47565b146123795760405162461bcd60e51b815260040161068190615da8565b6116878382615d47565b60005b61238e611aa8565b8110156109a0576123d18382815181106123aa576123aa615aa4565b60200260200101518383815181106123c4576123c4615aa4565b6020026020010151612e4a565b8382815181106123e3576123e3615aa4565b60209081029190910101526123f781615aba565b9050612386565b6109d98282612e9c565b1c63ffffffff1690565b60006105c163ffffffff61155484670de0b6b3a764000061160f8416565b600060608061243d611be1565b61244688612d75565b6124736124516109a5565b8061216a5750600361246286612dea565b600381111561216857612168615c15565b6124868861247f611cac565b8787612f37565b9093509150612493611aa8565b6001600160401b038111156124aa576124aa61552c565b6040519080825280602002602001820160405280156124d3578160200160208202803683370190505b509050985098509895505050505050565b60005b6124ef611aa8565b8110156109a05761253283828151811061250b5761250b615aa4565b602002602001015183838151811061252557612525615aa4565b602002602001015161168f565b83828151811061254457612544615aa4565b602090810291909101015261255881615aba565b90506124e7565b62461bcd60e51b6000908152602060045260076024526642414c23000030600a808404818106603090810160081b95839006959095019082900491820690940160101b939093010160c81b604452606490fd5b6001600160a01b03821660009081526002840160205260408120546125d981151584611c9e565b6125ed856125e8600184615a8d565b612fd7565b95945050505050565b60006105c161260483612fed565b612bf2565b60006106d48383612307565b60008360800151612627610b78610e61565b612632610b9e610849565b600061264186602001516125f6565b9050600061265287604001516125f6565b905060008751600181111561266957612669615c15565b141561270257600061267e8860600151613019565b905060008189606001516126929190615a8d565b90506126ab89602001516126a6838761303e565b61304a565b606089018290526126bc888561303e565b97506126c8878461303e565b96506126d889606001518561303e565b60608a015260006126ea8a8a8a61305c565b90506126f68185612609565b965050505050506114a2565b61270c868361303e565b9550612718858261303e565b945061272887606001518261303e565b6060880152600061273a88888861307c565b90506127468184613094565b90506000612753826130a0565b905060006127618383615a8d565b90506127758a602001516126a6838861303e565b5094506114a292505050565b600061278b610e61565b6001600160a01b031663aaabadc56040518163ffffffff1660e01b815260040160206040518083038186803b1580156127c357600080fd5b505afa1580156127d7573d6000803e3d6000fd5b505050506040513d601f19601f8201168201806040525081019061060e9190615e86565b60606000612807611cac565b91506000905060008260008151811061282257612822615aa4565b602002602001015190506000600190505b835181101561288f578184828151811061284f5761284f615aa4565b6020026020010151111561287d5780925083818151811061287257612872615aa4565b602002602001015191505b8061288781615aba565b915050612833565b50509091565b670de0b6b3a764000060005b835181101561290d576128f96128f28583815181106128c2576128c2615aa4565b60200260200101518584815181106128dc576128dc615aa4565b60200260200101516130ca90919063ffffffff16565b8390612e4a565b91508061290581615aba565b9150506128a1565b50600081116105c15760405162461bcd60e51b815260206004820152600e60248201526d16915493d7d2539590549250539560921b6044820152606401610681565b6000612959611b3b565b60405161190160f01b6020820152602281019190915260428101839052606201610dfa565b6000606061298a611be1565b600061299584612dea565b90506129b660008260038111156129ae576129ae615c15565b1460ce611c9e565b60006129c185613119565b90506129ce6108c7611aa8565b6129d88187612383565b60006129e26127fb565b50905060006129f18284612895565b905060006129fd611aa8565b612a079083615d12565b60099290925550945090925050505b9550959350505050565b6109d9828261312f565b612a43611fbd826000612a3c60085490565b91906115e8565b60405181151581527f5a9e84f78f7957cb4ed7478eb0fcad35ee4ecbe2e0f298420b28a3955392573f9060200161180f565b600281511015612a825750565b600081600081518110612a9757612a97615aa4565b602002602001015190506000600190505b82518110156109a0576000838281518110612ac557612ac5615aa4565b60200260200101519050612aee816001600160a01b0316846001600160a01b0316106065611c9e565b9150612af981615aba565b9050612aa8565b600073ba1ba1ba1ba1ba1ba1ba1ba1ba1ba1ba1ba1ba1b612b1f610e3d565b6001600160a01b031614158015612b3a5750612b3a836131a0565b15612b6257612b47610e3d565b6001600160a01b0316336001600160a01b03161490506105c1565b612b6a612781565b6040516326f8aa2160e21b8152600481018590526001600160a01b0384811660248301523060448301529190911690639be2a8849060640160206040518083038186803b158015612bba57600080fd5b505afa158015612bce573d6000803e3d6000fd5b505050506040513d601f19601f820116820180604052508101906113569190615ea3565b6000601f606083901c16612c0781600a615fa4565b6106d490670de0b6b3a7640000615d12565b6000612c288484111583611c9e565b60006125ed8486615a8d565b60004281612c4160085490565b905063ffffffff600882901c811690602883901c16808410612c6f57670de0b6b3a764000094505050505090565b818411612c8157600094505050505090565b6000612c8d8383615a8d565b90506000612c9b8487615a8d565b9050612ca78183612307565b965050505050505090565b600080612cc76001600160401b0385166131f5565b90506000612cde604086901c63ffffffff16612412565b9050831580612cec57508082145b15612cf9575090506105c1565b670de0b6b3a76400008410612d115791506105c19050565b80821115612d45576000612d2f612d288385615a8d565b8690612e4a565b9050612d3b8184615a8d565b93505050506105c1565b6000612d54612d288484615a8d565b9050612d3b8184615ad5565b600854612d6f908260006114bf565b60085550565b60005b612d80611aa8565b8110156109d957612dbd612d95600c83612fd7565b838381518110612da757612da7615aa4565b60200260200101516114e190919063ffffffff16565b828281518110612dcf57612dcf615aa4565b6020908102919091010152612de381615aba565b9050612d78565b6000818060200190518101906105c19190615fbd565b600060606000612e0f84612dea565b90506003816003811115612e2557612e25615c15565b1415612e3e57612e3488613214565b9250925050612a16565b612e34878787876132e3565b600080612e578385615d12565b9050831580612e6e575082612e6c8583615d47565b145b612e8a5760405162461bcd60e51b815260040161068190615d5b565b61152e670de0b6b3a764000082615d47565b612eb36001600160a01b038316151561019b611c9e565b6001600160a01b038216600090815260208190526040902054612ed990826101a1612c19565b6001600160a01b038316600090815260208190526040902055600254612f00908290615a8d565b6002556040518181526000906001600160a01b03841690600080516020616232833981519152906020015b60405180910390a35050565b600060606000612f4684612dea565b90506001816003811115612f5c57612f5c615c15565b1415612f7857612f6e8787878761336e565b9250925050612fce565b6002816003811115612f8c57612f8c615c15565b1415612f9d57612f6e8787866133e5565b6003816003811115612fb157612fb1615c15565b1415612fc157612f6e87856134e5565b612fcc61013661255f565b505b94509492505050565b6000908152600191820160205260409020015490565b6001600160a01b0381166000908152600b6020526040902054613014811515610135611c9e565b919050565b60008061303261302b60085460c01c90565b849061160f565b90506106d48184615a8d565b60006106d48383612e4a565b6109d961305683613518565b82613528565b60006130716130696109a5565b610147611c9e565b61152e848484613588565b60006130896130696109a5565b61152e8484846135bb565b60006106d4838361168f565b60006105c16130b160085460c01c90565b6130c390670de0b6b3a7640000615a8d565b839061168f565b6000806130d784846135ee565b905060006130f16130ea8361271061160f565b600161159a565b905080821015613106576000925050506105c1565b61311082826114e1565b925050506105c1565b6060818060200190518101906106d49190615fda565b8060025461313d9190615ad5565b6002556001600160a01b038216600090815260208190526040902054613164908290615ad5565b6001600160a01b038316600081815260208181526040808320949094559251848152919290916000805160206162328339815191529101612f2b565b60006131b2633e56920560e01b610db2565b8214806131cd57506131ca633806be4b60e21b610db2565b82145b806131e657506131e3632dbb8aaf60e11b610db2565b82145b806105c157506105c18261375d565b60006105c16001600160401b0361155484670de0b6b3a764000061160f565b60006060613220611be1565b6132376001600160a01b0384163014610151611c9e565b60009150613243611aa8565b6001600160401b0381111561325a5761325a61552c565b604051908082528060200260200182016040528015613283578160200160208202803683370190505b50905060005b613291611aa8565b8110156132dd576132a3600c82612fd7565b8282815181106132b5576132b5615aa4565b60209081029190910101526132cd600c82600061378f565b6132d681615aba565b9050613289565b50915091565b6000606060006132f284612dea565b9050600081600381111561330857613308615c15565b141561331957612f6e8787866137a7565b600181600381111561332d5761332d615c15565b141561333d57612f6e878561381d565b600281600381111561335157613351615c15565b141561336357612f6e87878787613843565b612fcc61015061255f565b6000606060008061337e856138ae565b9150915061339461338d611aa8565b8351611c7a565b61339e8287612383565b6000806133bb8a8a866133b060025490565b60085460c01c6138d1565b915091506133c881613a61565b6133d68383101560d0611c9e565b50989197509095505050505050565b600060606000806133f585613ab3565b9150915061340d613404611aa8565b82106064611c9e565b60008061345c89848151811061342557613425615aa4565b602002602001015189858151811061343f5761343f615aa4565b60200260200101518661345160025490565b60085460c01c613aca565b9150915061346a8382613528565b6000613474611aa8565b6001600160401b0381111561348b5761348b61552c565b6040519080825280602002602001820160405280156134b4578160200160208202803683370190505b509050828185815181106134ca576134ca615aa4565b60209081029190910101529399939850929650505050505050565b6000606060006134f484613be3565b9050600061350b868361350660025490565b613bf9565b9196919550909350505050565b60006105c1600c83610135613cc1565b80156109d957600061355a827f0000000000000000000000000000000000000000000000000000000000000000612e4a565b90506000613569600c85612fd7565b905061358284613579838561159a565b600c919061378f565b50505050565b6000613592611be1565b61152e836135a38660200151613cf3565b846135b18860400151613cf3565b8860600151613d17565b60006135c5611be1565b61152e836135d68660200151613cf3565b846135e48860400151613cf3565b8860600151613dc2565b6000816136045750670de0b6b3a76400006105c1565b82613611575060006105c1565b613622600160ff1b84106006611c9e565b8261364661363d68056bc75e2d63100000600160fe1b615d47565b84106007611c9e565b8260008261366467016345785d8a0000670de0b6b3a7640000616020565b1280156136895750613686670de0b6b3a764000067016345785d8a000061605f565b83125b156136f257600061369984613e69565b9050670de0b6b3a7640000836136af82846160a0565b6136b991906160b4565b6136c39190616139565b836136d6670de0b6b3a764000084616139565b6136e091906160b4565b6136ea919061605f565b915050613709565b816136fc846140a0565b61370691906160b4565b90505b61371b670de0b6b3a764000082616139565b905061374a81680238fd42c5cf03ffff1913158015613743575068070c1cc73b00c800008213155b6008611c9e565b61375381614682565b9695505050505050565b600061376f631c74c91760e11b610db2565b8214806105c157506137876350dd6ed960e01b610db2565b821492915050565b60009182526001928301602052604090912090910155565b600060606137b3611be1565b6000806137bf85613ab3565b915091506137ce613404611aa8565b60008061345c8984815181106137e6576137e6615aa4565b602002602001015189858151811061380057613800615aa4565b60200260200101518661381260025490565b60085460c01c614cb7565b60006060600061382c84613be3565b9050600061350b868361383e60025490565b614da9565b6000606061384f611be1565b60008061385b856138ae565b9150915061386c8251610b15611aa8565b6138768287612383565b6000806138938a8a8661388860025490565b60085460c01c614e51565b915091506138a58383111560cf611c9e565b6133d681613a61565b60606000828060200190518101906138c69190616167565b909590945092505050565b60006060600085516001600160401b038111156138f0576138f061552c565b604051908082528060200260200182016040528015613919578160200160208202803683370190505b5090506000805b8951811015613a05576139848a828151811061393e5761393e615aa4565b602002602001015189838151811061395857613958615aa4565b60200260200101518c848151811061397257613972615aa4565b6020026020010151610b639190615ad5565b83828151811061399657613996615aa4565b6020026020010181815250506139e78982815181106139b7576139b7615aa4565b60200260200101518483815181106139d1576139d1615aa4565b6020026020010151612e4a90919063ffffffff16565b6139f19083615ad5565b9150806139fd81615aba565b915050613920565b50600080613a178b8b8b87878c614f9a565b915091506000670de0b6b3a76400008311613a33576000613a4f565b613a4f613a48670de0b6b3a764000085615a8d565b8a90612e4a565b9c919b50909950505050505050505050565b613a6e8151610b15611aa8565b60005b613a79611aa8565b8110156109d957613aa381838381518110613a9657613a96615aa4565b6020026020010151613528565b613aac81615aba565b9050613a71565b600080828060200190518101906138c691906161af565b60008080613adc856115548882615ad5565b90506729a2241af62c0000811115613b315760405162461bcd60e51b815260206004820152601860248201527726a0ac2fa7aaaa2fa1282a2fa327a92faa27a5a2a72fa4a760411b6044820152606401610681565b6000613b4f613b48670de0b6b3a76400008a61168f565b839061515f565b90506000613b6f613b68670de0b6b3a764000084615a8d565b8b9061160f565b90506000613b7c8a61518b565b90506000613b8a838361160f565b90506000613b988285615a8d565b90506000613bb8613bb18b670de0b6b3a7640000615a8d565b849061168f565b9050613bc48382615a8d565b9750613bd08183615ad5565b9850505050505050509550959350505050565b6000818060200190518101906106d491906161e6565b60606000613c07848461168f565b9050600085516001600160401b03811115613c2457613c2461552c565b604051908082528060200260200182016040528015613c4d578160200160208202803683370190505b50905060005b8651811015613cb757613c8883888381518110613c7257613c72615aa4565b602002602001015161160f90919063ffffffff16565b828281518110613c9a57613c9a615aa4565b602090810291909101015280613caf81615aba565b915050613c53565b5095945050505050565b6001600160a01b0382166000908152600284016020526040812054613ce881151584611c9e565b6125ed600182615a8d565b600080613cfe612c34565b90506000613d0b84612fed565b905061152e8183612cb2565b6000613d2b86670429d069189e0000612e4a565b821115613d695760405162461bcd60e51b815260206004820152600c60248201526b4d41585f494e5f524154494f60a01b6044820152606401610681565b6000613d758388615ad5565b90506000613d83888361168f565b90506000613d918887612307565b90506000613d9f838361515f565b9050613db4613dad8261518b565b8990612e4a565b9a9950505050505050505050565b6000613dd684670429d069189e0000612e4a565b821115613e155760405162461bcd60e51b815260206004820152600d60248201526c4d41585f4f55545f524154494f60981b6044820152606401610681565b6000613e2b613e248487615a8d565b869061168f565b90506000613e39858861168f565b90506000613e47838361515f565b90506000613e5d670de0b6b3a764000083615a8d565b9050613db48a8261160f565b6000613e7d670de0b6b3a7640000836160b4565b91506000613e996a0c097ce7bc90715b34b9f160241b8461605f565b6a0c097ce7bc90715b34b9f160241b613eb28186616020565b613ebc91906160b4565b613ec69190616139565b905060006a0c097ce7bc90715b34b9f160241b613ee383806160b4565b613eed9190616139565b905081806a0c097ce7bc90715b34b9f160241b613f0a84836160b4565b613f149190616139565b9150613f21600383616139565b613f2b908261605f565b90506a0c097ce7bc90715b34b9f160241b613f4684846160b4565b613f509190616139565b9150613f5d600583616139565b613f67908261605f565b90506a0c097ce7bc90715b34b9f160241b613f8284846160b4565b613f8c9190616139565b9150613f99600783616139565b613fa3908261605f565b90506a0c097ce7bc90715b34b9f160241b613fbe84846160b4565b613fc89190616139565b9150613fd5600983616139565b613fdf908261605f565b90506a0c097ce7bc90715b34b9f160241b613ffa84846160b4565b6140049190616139565b9150614011600b83616139565b61401b908261605f565b90506a0c097ce7bc90715b34b9f160241b61403684846160b4565b6140409190616139565b915061404d600d83616139565b614057908261605f565b90506a0c097ce7bc90715b34b9f160241b61407284846160b4565b61407c9190616139565b9150614089600f83616139565b614093908261605f565b90506137538160026160b4565b6000670de0b6b3a76400008212156140e0576140d7826140c8670de0b6b3a7640000806160b4565b6140d29190616139565b6140a0565b6105c190616214565b600061410a670de0b6b3a764000072195e54c5dd42177f53a27172fa9ec63026282760241b6160b4565b83126141485761413072195e54c5dd42177f53a27172fa9ec63026282760241b84616139565b92506141456806f05b59d3b20000008261605f565b90505b614166670de0b6b3a76400006b1425982cf597cd205cef73806160b4565b831261419a576141826b1425982cf597cd205cef738084616139565b92506141976803782dace9d90000008261605f565b90505b6141a56064826160b4565b90506141b26064846160b4565b92506e01855144814a7ff805980ff0084000831261420f576e01855144814a7ff805980ff00840006141ed68056bc75e2d63100000856160b4565b6141f79190616139565b925061420c68ad78ebc5ac620000008261605f565b90505b6b02df0ab5a80a22c61ab5a7008312614264576b02df0ab5a80a22c61ab5a70061424268056bc75e2d63100000856160b4565b61424c9190616139565b92506142616856bc75e2d6310000008261605f565b90505b693f1fce3da636ea5cf85083126142b557693f1fce3da636ea5cf85061429368056bc75e2d63100000856160b4565b61429d9190616139565b92506142b2682b5e3af16b188000008261605f565b90505b690127fa27722cc06cc5e2831261430657690127fa27722cc06cc5e26142e468056bc75e2d63100000856160b4565b6142ee9190616139565b92506143036815af1d78b58c4000008261605f565b90505b68280e60114edb805d0383126143555768280e60114edb805d0361433368056bc75e2d63100000856160b4565b61433d9190616139565b9250614352680ad78ebc5ac62000008261605f565b90505b680ebc5fb4174612111083126143a457680ebc5fb4174612111061438268056bc75e2d63100000856160b4565b61438c9190616139565b92506143a168056bc75e2d631000008261605f565b90505b6808f00f760a4b2db55d83126143f3576808f00f760a4b2db55d6143d168056bc75e2d63100000856160b4565b6143db9190616139565b92506143f06802b5e3af16b18800008261605f565b90505b6806f5f17757889379378312614442576806f5f177578893793761442068056bc75e2d63100000856160b4565b61442a9190616139565b925061443f68015af1d78b58c400008261605f565b90505b6806248f33704b2866038312614490576806248f33704b28660361446f68056bc75e2d63100000856160b4565b6144799190616139565b925061448d67ad78ebc5ac6200008261605f565b90505b6805c548670b9510e7ac83126144de576805c548670b9510e7ac6144bd68056bc75e2d63100000856160b4565b6144c79190616139565b92506144db6756bc75e2d63100008261605f565b90505b60006144f368056bc75e2d631000008561605f565b68056bc75e2d631000006145078187616020565b61451191906160b4565b61451b9190616139565b9050600068056bc75e2d6310000061453383806160b4565b61453d9190616139565b9050818068056bc75e2d6310000061455584836160b4565b61455f9190616139565b915061456c600383616139565b614576908261605f565b905068056bc75e2d6310000061458c84846160b4565b6145969190616139565b91506145a3600583616139565b6145ad908261605f565b905068056bc75e2d631000006145c384846160b4565b6145cd9190616139565b91506145da600783616139565b6145e4908261605f565b905068056bc75e2d631000006145fa84846160b4565b6146049190616139565b9150614611600983616139565b61461b908261605f565b905068056bc75e2d6310000061463184846160b4565b61463b9190616139565b9150614648600b83616139565b614652908261605f565b905061465f6002826160b4565b9050606461466d828761605f565b6146779190616139565b979650505050505050565b60006146b1680238fd42c5cf03ffff1983121580156146aa575068070c1cc73b00c800008313155b6009611c9e565b60008212156146e7576146cb6146c683616214565b614682565b6146dd670de0b6b3a7640000806160b4565b6105c19190616139565b60006806f05b59d3b2000000831261472c5761470c6806f05b59d3b200000084616020565b925072195e54c5dd42177f53a27172fa9ec63026282760241b9050614769565b6803782dace9d900000083126147655761474f6803782dace9d900000084616020565b92506b1425982cf597cd205cef73809050614769565b5060015b6147746064846160b4565b925068056bc75e2d6310000068ad78ebc5ac6200000084126147d5576147a368ad78ebc5ac6200000085616020565b935068056bc75e2d631000006147c86e01855144814a7ff805980ff0084000836160b4565b6147d29190616139565b90505b6856bc75e2d6310000008412614827576147f86856bc75e2d63100000085616020565b935068056bc75e2d6310000061481a6b02df0ab5a80a22c61ab5a700836160b4565b6148249190616139565b90505b682b5e3af16b1880000084126148775761484a682b5e3af16b1880000085616020565b935068056bc75e2d6310000061486a693f1fce3da636ea5cf850836160b4565b6148749190616139565b90505b6815af1d78b58c40000084126148c75761489a6815af1d78b58c40000085616020565b935068056bc75e2d631000006148ba690127fa27722cc06cc5e2836160b4565b6148c49190616139565b90505b680ad78ebc5ac62000008412614916576148ea680ad78ebc5ac620000085616020565b935068056bc75e2d6310000061490968280e60114edb805d03836160b4565b6149139190616139565b90505b68056bc75e2d6310000084126149655761493968056bc75e2d6310000085616020565b935068056bc75e2d63100000614958680ebc5fb41746121110836160b4565b6149629190616139565b90505b6802b5e3af16b188000084126149b4576149886802b5e3af16b188000085616020565b935068056bc75e2d631000006149a76808f00f760a4b2db55d836160b4565b6149b19190616139565b90505b68015af1d78b58c400008412614a03576149d768015af1d78b58c4000085616020565b935068056bc75e2d631000006149f66806f5f1775788937937836160b4565b614a009190616139565b90505b68056bc75e2d6310000084614a18818361605f565b9150600268056bc75e2d63100000614a3088846160b4565b614a3a9190616139565b614a449190616139565b9050614a50818361605f565b9150600368056bc75e2d63100000614a6888846160b4565b614a729190616139565b614a7c9190616139565b9050614a88818361605f565b9150600468056bc75e2d63100000614aa088846160b4565b614aaa9190616139565b614ab49190616139565b9050614ac0818361605f565b9150600568056bc75e2d63100000614ad888846160b4565b614ae29190616139565b614aec9190616139565b9050614af8818361605f565b9150600668056bc75e2d63100000614b1088846160b4565b614b1a9190616139565b614b249190616139565b9050614b30818361605f565b9150600768056bc75e2d63100000614b4888846160b4565b614b529190616139565b614b5c9190616139565b9050614b68818361605f565b9150600868056bc75e2d63100000614b8088846160b4565b614b8a9190616139565b614b949190616139565b9050614ba0818361605f565b9150600968056bc75e2d63100000614bb888846160b4565b614bc29190616139565b614bcc9190616139565b9050614bd8818361605f565b9150600a68056bc75e2d63100000614bf088846160b4565b614bfa9190616139565b614c049190616139565b9050614c10818361605f565b9150600b68056bc75e2d63100000614c2888846160b4565b614c329190616139565b614c3c9190616139565b9050614c48818361605f565b9150600c68056bc75e2d63100000614c6088846160b4565b614c6a9190616139565b614c749190616139565b9050614c80818361605f565b915060648468056bc75e2d63100000614c9985876160b4565b614ca39190616139565b614cad91906160b4565b6137539190616139565b60008080614cc9856115548882615a8d565b90506709b6e64a8ec60000811015614d1e5760405162461bcd60e51b815260206004820152601860248201527713525397d0941517d25397d193d497d513d2d15397d3d55560421b6044820152606401610681565b6000614d35613b48670de0b6b3a76400008a612307565b90506000614d4c614d458361518b565b8b90612e4a565b90506000614d598a61518b565b90506000614d67838361160f565b90506000614d758285615a8d565b9050614d81828a61160f565b9650614d8d8783615a8d565b614d979082615ad5565b97505050505050509550959350505050565b60606000614db78484612307565b9050600085516001600160401b03811115614dd457614dd461552c565b604051908082528060200260200182016040528015614dfd578160200160208202803683370190505b50905060005b8651811015613cb757614e22838883815181106139d1576139d1615aa4565b828281518110614e3457614e34615aa4565b602090810291909101015280614e4981615aba565b915050614e03565b60006060600085516001600160401b03811115614e7057614e7061552c565b604051908082528060200260200182016040528015614e99578160200160208202803683370190505b5090506000805b8951811015614f6f57614f048a8281518110614ebe57614ebe615aa4565b6020026020010151898381518110614ed857614ed8615aa4565b60200260200101518c8481518110614ef257614ef2615aa4565b60200260200101516115549190615a8d565b838281518110614f1657614f16615aa4565b602002602001018181525050614f51898281518110614f3757614f37615aa4565b6020026020010151848381518110613c7257613c72615aa4565b614f5b9083615ad5565b915080614f6781615aba565b915050614ea0565b50600080614f818b8b8b87878c6151b5565b915091506000613a4f614f938461518b565b8a9061160f565b6000606085516001600160401b03811115614fb757614fb761552c565b604051908082528060200260200182016040528015614fe0578160200160208202803683370190505b509050670de0b6b3a7640000915060005b88518110156151535760008587838151811061500f5761500f615aa4565b602002602001015111156150bc576000615046615034670de0b6b3a764000089615a8d565b8c85815181106139d1576139d1615aa4565b90506000818a858151811061505d5761505d615aa4565b602002602001015161506f9190615a8d565b9050600061507d828961160f565b90506150898183615a8d565b6150939084615ad5565b9350808686815181106150a8576150a8615aa4565b6020026020010181815250505050506150d9565b8782815181106150ce576150ce615aa4565b602002602001015190505b600061510b8b84815181106150f0576150f0615aa4565b6020026020010151838d868151811061397257613972615aa4565b905061513c612d288b858151811061512557615125615aa4565b6020026020010151836130ca90919063ffffffff16565b94505050808061514b90615aba565b915050614ff1565b50965096945050505050565b60008061516c84846135ee565b9050600061517f6130ea8361271061160f565b90506125ed828261159a565b6000670de0b6b3a764000082106151a35760006105c1565b6105c182670de0b6b3a7640000615a8d565b6000606085516001600160401b038111156151d2576151d261552c565b6040519080825280602002602001820160405280156151fb578160200160208202803683370190505b509050670de0b6b3a7640000915060005b885181101561515357600086828151811061522957615229615aa4565b60200260200101518611156152c55760006152466150348861518b565b90506000818a858151811061525d5761525d615aa4565b602002602001015161526f9190615a8d565b905060006152886130c389670de0b6b3a7640000615a8d565b90506152948282615a8d565b8686815181106152a6576152a6615aa4565b60209081029190910101526152bb8184615ad5565b93505050506152e2565b8782815181106152d7576152d7615aa4565b602002602001015190505b60006153268b84815181106152f9576152f9615aa4565b6020026020010151838d868151811061531457615314615aa4565b6020026020010151610b639190615a8d565b9050615340612d288b858151811061512557615125615aa4565b94505050808061534f90615aba565b91505061520c565b6000815180845260005b8181101561537d57602081850181015186830182015201615361565b8181111561538f576000602083870101525b50601f01601f19169290920160200192915050565b6020815260006106d46020830184615357565b6001600160a01b03811681146105d857600080fd5b8035613014816153b7565b600080604083850312156153ea57600080fd5b82356153f5816153b7565b946020939093013593505050565b80151581146105d857600080fd5b60006020828403121561542357600080fd5b81356106d481615403565b600081518084526020808501945080840160005b8381101561545e57815187529582019590820190600101615442565b509495945050505050565b6020815260006106d4602083018461542e565b60008060006060848603121561549157600080fd5b833561549c816153b7565b925060208401356154ac816153b7565b929592945050506040919091013590565b604080825283519082018190526000906020906060840190828701845b828110156154ff5781516001600160a01b0316845292840192908401906001016154da565b50505083810382850152613753818661542e565b60006020828403121561552557600080fd5b5035919050565b634e487b7160e01b600052604160045260246000fd5b60405161012081016001600160401b03811182821017156155655761556561552c565b60405290565b604051601f8201601f191681016001600160401b03811182821017156155935761559361552c565b604052919050565b60006001600160401b038211156155b4576155b461552c565b5060051b60200190565b600082601f8301126155cf57600080fd5b813560206155e46155df8361559b565b61556b565b82815260059290921b8401810191818101908684111561560357600080fd5b8286015b8481101561561e5780358352918301918301615607565b509695505050505050565b60008060006060848603121561563e57600080fd5b833592506020840135915060408401356001600160401b0381111561566257600080fd5b61566e868287016155be565b9150509250925092565b600082601f83011261568957600080fd5b81356001600160401b038111156156a2576156a261552c565b6156b5601f8201601f191660200161556b565b8181528460208386010111156156ca57600080fd5b816020850160208301376000918101602001919091529392505050565b600080604083850312156156fa57600080fd5b8235615705816153b7565b915060208301356001600160401b0381111561572057600080fd5b61572c85828601615678565b9150509250929050565b60006020828403121561574857600080fd5b81356106d4816153b7565b600080600080600080600060e0888a03121561576e57600080fd5b873596506020880135615780816153b7565b95506040880135615790816153b7565b945060608801356001600160401b03808211156157ac57600080fd5b6157b88b838c016155be565b955060808a0135945060a08a0135935060c08a01359150808211156157dc57600080fd5b506157e98a828b01615678565b91505092959891949750929550565b82815260406020820152600061152e604083018461542e565b604081526000615824604083018561542e565b82810360208401526125ed818561542e565b8381528260208201526060604082015260006125ed606083018461542e565b60006020828403121561586757600080fd5b81356001600160e01b0319811681146106d457600080fd5b80356002811061301457600080fd5b6000806000606084860312156158a357600080fd5b83356001600160401b03808211156158ba57600080fd5b9085019061012082880312156158cf57600080fd5b6158d7615542565b6158e08361587f565b81526158ee602084016153cc565b60208201526158ff604084016153cc565b6040820152606083013560608201526080830135608082015260a083013560a082015261592e60c084016153cc565b60c082015261593f60e084016153cc565b60e0820152610100808401358381111561595857600080fd5b6159648a828701615678565b9183019190915250976020870135975060409096013595945050505050565b60ff811681146105d857600080fd5b600080600080600080600060e0888a0312156159ad57600080fd5b87356159b8816153b7565b965060208801356159c8816153b7565b9550604088013594506060880135935060808801356159e681615983565b9699959850939692959460a0840135945060c09093013592915050565b60008060408385031215615a1657600080fd5b8235615a21816153b7565b91506020830135615a31816153b7565b809150509250929050565b600181811c90821680615a5057607f821691505b60208210811415615a7157634e487b7160e01b600052602260045260246000fd5b50919050565b634e487b7160e01b600052601160045260246000fd5b600082821015615a9f57615a9f615a77565b500390565b634e487b7160e01b600052603260045260246000fd5b6000600019821415615ace57615ace615a77565b5060010190565b60008219821115615ae857615ae8615a77565b500190565b600082601f830112615afe57600080fd5b81516020615b0e6155df8361559b565b82815260059290921b84018101918181019086841115615b2d57600080fd5b8286015b8481101561561e5780518352918301918301615b31565b600080600060608486031215615b5d57600080fd5b83516001600160401b0380821115615b7457600080fd5b818601915086601f830112615b8857600080fd5b81516020615b986155df8361559b565b82815260059290921b8401810191818101908a841115615bb757600080fd5b948201945b83861015615bde578551615bcf816153b7565b82529482019490820190615bbc565b91890151919750909350505080821115615bf757600080fd5b50615c0486828701615aed565b925050604084015190509250925092565b634e487b7160e01b600052602160045260246000fd5b6020810160048310615c4d57634e487b7160e01b600052602160045260246000fd5b91905290565b8481526000602060018060a01b038087168285015280861660408501526080606085015261010084018551608080870152818151808452610120880191508583019350600092505b80831015615cbd57835185168252928501926001929092019190850190615c9b565b50848801519450607f199350838782030160a0880152615cdd818661542e565b94505050506040850151818584030160c0860152615cfb8382615357565b92505050606084015161561e60e085018215159052565b6000816000190483118215151615615d2c57615d2c615a77565b500290565b634e487b7160e01b600052601260045260246000fd5b600082615d5657615d56615d31565b500490565b6020808252600c908201526b4d554c5f4f564552464c4f5760a01b604082015260600190565b6020808252600d908201526c2d22a927afa224ab24a9a4a7a760991b604082015260600190565b6020808252600c908201526b11125597d25395115493905360a21b604082015260600190565b600060208284031215615de057600080fd5b81516106d481615983565b848152836020820152608060408201526000615e0a608083018561542e565b8281036060840152614677818561542e565b60008060008060808587031215615e3257600080fd5b8451935060208501519250604085015191506060850151615e52816153b7565b939692955090935050565b82815260406020820152600061152e6040830184615357565b8183823760009101908152919050565b600060208284031215615e9857600080fd5b81516106d4816153b7565b600060208284031215615eb557600080fd5b81516106d481615403565b600181815b80851115615efb578160001904821115615ee157615ee1615a77565b80851615615eee57918102915b93841c9390800290615ec5565b509250929050565b600082615f12575060016105c1565b81615f1f575060006105c1565b8160018114615f355760028114615f3f57615f5b565b60019150506105c1565b60ff841115615f5057615f50615a77565b50506001821b6105c1565b5060208310610133831016604e8410600b8410161715615f7e575081810a6105c1565b615f888383615ec0565b8060001904821115615f9c57615f9c615a77565b029392505050565b60006106d48383615f03565b600481106105d857600080fd5b600060208284031215615fcf57600080fd5b81516106d481615fb0565b60008060408385031215615fed57600080fd5b8251615ff881615fb0565b60208401519092506001600160401b0381111561601457600080fd5b61572c85828601615aed565b60008083128015600160ff1b85018412161561603e5761603e615a77565b6001600160ff1b038401831381161561605957616059615a77565b50500390565b600080821280156001600160ff1b038490038513161561608157616081615a77565b600160ff1b839003841281161561609a5761609a615a77565b50500190565b6000826160af576160af615d31565b500790565b60006001600160ff1b03818413828413808216868404861116156160da576160da615a77565b600160ff1b60008712828116878305891216156160f9576160f9615a77565b6000871292508782058712848416161561611557616115615a77565b8785058712818416161561612b5761612b615a77565b505050929093029392505050565b60008261614857616148615d31565b600160ff1b82146000198414161561616257616162615a77565b500590565b60008060006060848603121561617c57600080fd5b835161618781615fb0565b60208501519093506001600160401b038111156161a357600080fd5b615c0486828701615aed565b6000806000606084860312156161c457600080fd5b83516161cf81615fb0565b602085015160409095015190969495509392505050565b600080604083850312156161f957600080fd5b825161620481615fb0565b6020939093015192949293505050565b6000600160ff1b82141561622a5761622a615a77565b506000039056feddf252ad1be2c89b69c2b068fc378daa952ba7f163c4a11628f55a4df523b3efa2646970667358221220c36e5494629471568347411b6587b4f50fd6aa7c2e8403d73195f103be2120d664736f6c63430008090033",
  "linkReferences": {},
  "deployedLinkReferences": {}
}