{
  "_format": "hh-sol-artifact-1",
  "contractName": "DeflatingERC20",
  "sourceName": "contracts/test/DeflatingERC20.sol",
  "abi": [
    {
      "inputs": [
        {
          "internalType": "uint256",
          "name": "_totalSupply",
          "type": "uint256"
        }
      ],
      "stateMutability": "nonpayable",
      "type": "constructor"
    },
    {
      "anonymous": false,
      "inputs": [
        {
          "indexed": true,
          "internalType": "address",
          "name": "owner",
          "type": "address"
        },
        {
          "indexed": true,
          "internalType": "address",
          "name": "spender",
          "type": "address"
        },
        {
          "indexed": false,
          "internalType": "uint256",
          "name": "value",
          "type": "uint256"
        }
      ],
      "name": "Approval",
      "type": "event"
    },
    {
      "anonymous": false,
      "inputs": [
        {
          "indexed": true,
          "internalType": "address",
          "name": "from",
          "type": "address"
        },
        {
          "indexed": true,
          "internalType": "address",
          "name": "to",
          "type": "address"
        },
        {
          "indexed": false,
          "internalType": "uint256",
          "name": "value",
          "type": "uint256"
        }
      ],
      "name": "Transfer",
      "type": "event"
    },
    {
      "inputs": [],
      "name": "DOMAIN_SEPARATOR",
      "outputs": [
        {
          "internalType": "bytes32",
          "name": "",
          "type": "bytes32"
        }
      ],
      "stateMutability": "view",
      "type": "function"
    },
    {
      "inputs": [],
      "name": "PERMIT_TYPEHASH",
      "outputs": [
        {
          "internalType": "bytes32",
          "name": "",
          "type": "bytes32"
        }
      ],
      "stateMutability": "view",
      "type": "function"
    },
    {
      "inputs": [
        {
          "internalType": "address",
          "name": "",
          "type": "address"
        },
        {
          "internalType": "address",
          "name": "",
          "type": "address"
        }
      ],
      "name": "allowance",
      "outputs": [
        {
          "internalType": "uint256",
          "name": "",
          "type": "uint256"
        }
      ],
      "stateMutability": "view",
      "type": "function"
    },
    {
      "inputs": [
        {
          "internalType": "address",
          "name": "spender",
          "type": "address"
        },
        {
          "internalType": "uint256",
          "name": "value",
          "type": "uint256"
        }
      ],
      "name": "approve",
      "outputs": [
        {
          "internalType": "bool",
          "name": "",
          "type": "bool"
        }
      ],
      "stateMutability": "nonpayable",
      "type": "function"
    },
    {
      "inputs": [
        {
          "internalType": "address",
          "name": "",
          "type": "address"
        }
      ],
      "name": "balanceOf",
      "outputs": [
        {
          "internalType": "uint256",
          "name": "",
          "type": "uint256"
        }
      ],
      "stateMutability": "view",
      "type": "function"
    },
    {
      "inputs": [],
      "name": "decimals",
      "outputs": [
        {
          "internalType": "uint8",
          "name": "",
          "type": "uint8"
        }
      ],
      "stateMutability": "view",
      "type": "function"
    },
    {
      "inputs": [
        {
          "internalType": "address",
          "name": "dst",
          "type": "address"
        },
        {
          "internalType": "uint256",
          "name": "amt",
          "type": "uint256"
        }
      ],
      "name": "mint",
      "outputs": [
        {
          "internalType": "bool",
          "name": "",
          "type": "bool"
        }
      ],
      "stateMutability": "nonpayable",
      "type": "function"
    },
    {
      "inputs": [],
      "name": "name",
      "outputs": [
        {
          "internalType": "string",
          "name": "",
          "type": "string"
        }
      ],
      "stateMutability": "view",
      "type": "function"
    },
    {
      "inputs": [
        {
          "internalType": "address",
          "name": "",
          "type": "address"
        }
      ],
      "name": "nonces",
      "outputs": [
        {
          "internalType": "uint256",
          "name": "",
          "type": "uint256"
        }
      ],
      "stateMutability": "view",
      "type": "function"
    },
    {
      "inputs": [
        {
          "internalType": "address",
          "name": "owner",
          "type": "address"
        },
        {
          "internalType": "address",
          "name": "spender",
          "type": "address"
        },
        {
          "internalType": "uint256",
          "name": "value",
          "type": "uint256"
        },
        {
          "internalType": "uint256",
          "name": "deadline",
          "type": "uint256"
        },
        {
          "internalType": "uint8",
          "name": "v",
          "type": "uint8"
        },
        {
          "internalType": "bytes32",
          "name": "r",
          "type": "bytes32"
        },
        {
          "internalType": "bytes32",
          "name": "s",
          "type": "bytes32"
        }
      ],
      "name": "permit",
      "outputs": [],
      "stateMutability": "nonpayable",
      "type": "function"
    },
    {
      "inputs": [],
      "name": "symbol",
      "outputs": [
        {
          "internalType": "string",
          "name": "",
          "type": "string"
        }
      ],
      "stateMutability": "view",
      "type": "function"
    },
    {
      "inputs": [],
      "name": "totalSupply",
      "outputs": [
        {
          "internalType": "uint256",
          "name": "",
          "type": "uint256"
        }
      ],
      "stateMutability": "view",
      "type": "function"
    },
    {
      "inputs": [
        {
          "internalType": "address",
          "name": "to",
          "type": "address"
        },
        {
          "internalType": "uint256",
          "name": "value",
          "type": "uint256"
        }
      ],
      "name": "transfer",
      "outputs": [
        {
          "internalType": "bool",
          "name": "",
          "type": "bool"
        }
      ],
      "stateMutability": "nonpayable",
      "type": "function"
    },
    {
      "inputs": [
        {
          "internalType": "address",
          "name": "from",
          "type": "address"
        },
        {
          "internalType": "address",
          "name": "to",
          "type": "address"
        },
        {
          "internalType": "uint256",
          "name": "value",
          "type": "uint256"
        }
      ],
      "name": "transferFrom",
      "outputs": [
        {
          "internalType": "bool",
          "name": "",
          "type": "bool"
        }
      ],
      "stateMutability": "nonpayable",
      "type": "function"
    }
  ],
  "bytecode": "0x608060405234801561001057600080fd5b50604051610c16380380610c1683398101604081905261002f916101b7565b604080518082018252601481527f4465666c6174696e67205465737420546f6b656e0000000000000000000000006020918201528151808301835260018152603160f81b9082015281517f8b73c3c69bb8fe3d512ecc4cf759cc79239f7b179b0ffacaa9a75d522b39400f818301527ff89e31130e6fd3d87d62a1ac2770fba58bed5a06c47ce70fa97f8218b1b2743a818401527fc89efdaa54c0f20c7adf612882df0950f5a951637e0307cdcb4c672f298b8bc6606082015246608082018190523060a0808401919091528451808403909101815260c0909201909352805191012060035561011f3383610126565b50506101f6565b8060005461013491906101d0565b60009081556001600160a01b03831681526001602052604090205461015a9082906101d0565b6001600160a01b0383166000818152600160205260408082209390935591519091907fddf252ad1be2c89b69c2b068fc378daa952ba7f163c4a11628f55a4df523b3ef906101ab9085815260200190565b60405180910390a35050565b6000602082840312156101c957600080fd5b5051919050565b600082198211156101f157634e487b7160e01b600052601160045260246000fd5b500190565b610a11806102056000396000f3fe608060405234801561001057600080fd5b50600436106100ea5760003560e01c806340c10f191161008c57806395d89b411161006657806395d89b4114610222578063a9059cbb14610244578063d505accf14610257578063dd62ed3e1461026c57600080fd5b806340c10f19146101cf57806370a08231146101e25780637ecebe001461020257600080fd5b806323b872dd116100c857806323b872dd1461017257806330adf81f14610185578063313ce567146101ac5780633644e515146101c657600080fd5b806306fdde03146100ef578063095ea7b31461013857806318160ddd1461015b575b600080fd5b610122604051806040016040528060148152602001732232b33630ba34b733902a32b9ba102a37b5b2b760611b81525081565b60405161012f91906107ba565b60405180910390f35b61014b61014636600461082b565b610297565b604051901515815260200161012f565b61016460005481565b60405190815260200161012f565b61014b610180366004610855565b6102ad565b6101647f6e71edae12b1b97f4d1f60370fef10105fa2faae0126114a169c64845d6126c981565b6101b4601281565b60405160ff909116815260200161012f565b61016460035481565b61014b6101dd36600461082b565b610342565b6101646101f0366004610891565b60016020526000908152604090205481565b610164610210366004610891565b60046020526000908152604090205481565b6101226040518060400160405280600381526020016211151560ea1b81525081565b61014b61025236600461082b565b61034e565b61026a6102653660046108b3565b61035b565b005b61016461027a366004610926565b600260209081526000928352604080842090915290825290205481565b60006102a433848461055d565b50600192915050565b6001600160a01b03831660009081526002602090815260408083203384529091528120546000191461032d576001600160a01b038416600090815260026020908152604080832033845290915290205461030890839061096f565b6001600160a01b03851660009081526002602090815260408083203384529091529020555b6103388484846105be565b5060019392505050565b60006102a4838361069d565b60006102a43384846105be565b4284101561039a5760405162461bcd60e51b81526020600482015260076024820152661156141254915160ca1b60448201526064015b60405180910390fd5b6003546001600160a01b038816600090815260046020526040812080549192917f6e71edae12b1b97f4d1f60370fef10105fa2faae0126114a169c64845d6126c9918b918b918b9190876103ed83610986565b909155506040805160208101969096526001600160a01b0394851690860152929091166060840152608083015260a082015260c0810187905260e0016040516020818303038152906040528051906020012060405160200161046692919061190160f01b81526002810192909252602282015260420190565b60408051601f198184030181528282528051602091820120600080855291840180845281905260ff88169284019290925260608301869052608083018590529092509060019060a0016020604051602081039080840390855afa1580156104d1573d6000803e3d6000fd5b5050604051601f1901519150506001600160a01b038116158015906105075750886001600160a01b0316816001600160a01b0316145b6105475760405162461bcd60e51b8152602060048201526011602482015270494e56414c49445f5349474e415455524560781b6044820152606401610391565b61055289898961055d565b505050505050505050565b6001600160a01b0383811660008181526002602090815260408083209487168084529482529182902085905590518481527f8c5be1e5ebec7d5bd14f71427d1e84f3dd0314c0f7b2291e5b200ac8c7c3b925910160405180910390a3505050565b60006105cb6064836109a1565b90506105d7848261072e565b60006105e3828461096f565b6001600160a01b03861660009081526001602052604090205490915061060a90829061096f565b6001600160a01b03808716600090815260016020526040808220939093559086168152205461063a9082906109c3565b6001600160a01b0380861660008181526001602052604090819020939093559151908716907fddf252ad1be2c89b69c2b068fc378daa952ba7f163c4a11628f55a4df523b3ef9061068e9085815260200190565b60405180910390a35050505050565b806000546106ab91906109c3565b60009081556001600160a01b0383168152600160205260409020546106d19082906109c3565b6001600160a01b0383166000818152600160205260408082209390935591519091907fddf252ad1be2c89b69c2b068fc378daa952ba7f163c4a11628f55a4df523b3ef906107229085815260200190565b60405180910390a35050565b6001600160a01b03821660009081526001602052604090205461075290829061096f565b6001600160a01b0383166000908152600160205260408120919091555461077a90829061096f565b60009081556040518281526001600160a01b038416907fddf252ad1be2c89b69c2b068fc378daa952ba7f163c4a11628f55a4df523b3ef90602001610722565b600060208083528351808285015260005b818110156107e7578581018301518582016040015282016107cb565b818111156107f9576000604083870101525b50601f01601f1916929092016040019392505050565b80356001600160a01b038116811461082657600080fd5b919050565b6000806040838503121561083e57600080fd5b6108478361080f565b946020939093013593505050565b60008060006060848603121561086a57600080fd5b6108738461080f565b92506108816020850161080f565b9150604084013590509250925092565b6000602082840312156108a357600080fd5b6108ac8261080f565b9392505050565b600080600080600080600060e0888a0312156108ce57600080fd5b6108d78861080f565b96506108e56020890161080f565b95506040880135945060608801359350608088013560ff8116811461090957600080fd5b9699959850939692959460a0840135945060c09093013592915050565b6000806040838503121561093957600080fd5b6109428361080f565b91506109506020840161080f565b90509250929050565b634e487b7160e01b600052601160045260246000fd5b60008282101561098157610981610959565b500390565b600060001982141561099a5761099a610959565b5060010190565b6000826109be57634e487b7160e01b600052601260045260246000fd5b500490565b600082198211156109d6576109d6610959565b50019056fea2646970667358221220634be62c519ba7f92a075db1ecb8eb8704ed6edd848f76a10dd5dc23d14fc1c764736f6c63430008090033",
  "linkReferences": {},
  "deployedLinkReferences": {}
}