{
  "_format": "hh-sol-artifact-1",
  "contractName": "ProtocolFeesCollector",
  "sourceName": "contracts/ProtocolFeesCollector.sol",
  "abi": [
    {
      "inputs": [
        {
          "internalType": "contract IVault",
          "name": "_vault",
          "type": "address"
        }
      ],
      "stateMutability": "nonpayable",
      "type": "constructor"
    },
    {
      "anonymous": false,
      "inputs": [
        {
          "indexed": false,
          "internalType": "uint256",
          "name": "newFlashLoanFeePercentage",
          "type": "uint256"
        }
      ],
      "name": "FlashLoanFeePercentageChanged",
      "type": "event"
    },
    {
      "anonymous": false,
      "inputs": [
        {
          "indexed": false,
          "internalType": "uint256",
          "name": "newSwapFeePercentage",
          "type": "uint256"
        }
      ],
      "name": "SwapFeePercentageChanged",
      "type": "event"
    },
    {
      "inputs": [
        {
          "internalType": "bytes4",
          "name": "selector",
          "type": "bytes4"
        }
      ],
      "name": "getActionId",
      "outputs": [
        {
          "internalType": "bytes32",
          "name": "",
          "type": "bytes32"
        }
      ],
      "stateMutability": "view",
      "type": "function"
    },
    {
      "inputs": [],
      "name": "getAuthorizer",
      "outputs": [
        {
          "internalType": "contract IAuthorizer",
          "name": "",
          "type": "address"
        }
      ],
      "stateMutability": "view",
      "type": "function"
    },
    {
      "inputs": [
        {
          "internalType": "contract IERC20[]",
          "name": "tokens",
          "type": "address[]"
        }
      ],
      "name": "getCollectedFeeAmounts",
      "outputs": [
        {
          "internalType": "uint256[]",
          "name": "feeAmounts",
          "type": "uint256[]"
        }
      ],
      "stateMutability": "view",
      "type": "function"
    },
    {
      "inputs": [],
      "name": "getFlashLoanFeePercentage",
      "outputs": [
        {
          "internalType": "uint256",
          "name": "",
          "type": "uint256"
        }
      ],
      "stateMutability": "view",
      "type": "function"
    },
    {
      "inputs": [],
      "name": "getSwapFeePercentage",
      "outputs": [
        {
          "internalType": "uint256",
          "name": "",
          "type": "uint256"
        }
      ],
      "stateMutability": "view",
      "type": "function"
    },
    {
      "inputs": [
        {
          "internalType": "uint256",
          "name": "newFlashLoanFeePercentage",
          "type": "uint256"
        }
      ],
      "name": "setFlashLoanFeePercentage",
      "outputs": [],
      "stateMutability": "nonpayable",
      "type": "function"
    },
    {
      "inputs": [
        {
          "internalType": "uint256",
          "name": "newSwapFeePercentage",
          "type": "uint256"
        }
      ],
      "name": "setSwapFeePercentage",
      "outputs": [],
      "stateMutability": "nonpayable",
      "type": "function"
    },
    {
      "inputs": [],
      "name": "vault",
      "outputs": [
        {
          "internalType": "contract IVault",
          "name": "",
          "type": "address"
        }
      ],
      "stateMutability": "view",
      "type": "function"
    },
    {
      "inputs": [
        {
          "internalType": "contract IERC20[]",
          "name": "tokens",
          "type": "address[]"
        },
        {
          "internalType": "uint256[]",
          "name": "amounts",
          "type": "uint256[]"
        },
        {
          "internalType": "address",
          "name": "recipient",
          "type": "address"
        }
      ],
      "name": "withdrawCollectedFees",
      "outputs": [],
      "stateMutability": "nonpayable",
      "type": "function"
    }
  ],
  "bytecode": "0x60c060405234801561001057600080fd5b50604051610b23380380610b2383398101604081905261002f9161004c565b3060601b60805260016000556001600160a01b031660a05261007c565b60006020828403121561005e57600080fd5b81516001600160a01b038116811461007557600080fd5b9392505050565b60805160a051610a7b6100a86000396000818161012f01526104ec015260006102ac0152610a7b6000f3fe608060405234801561001057600080fd5b50600436106100835760003560e01c806338e9922e1461008857806355c676281461009d5780636b6b9f69146100b45780636daefab6146100c7578063851c1bb3146100da578063aaabadc5146100ed578063d877845c14610102578063e42abf351461010a578063fbfa77cf1461012a575b600080fd5b61009b6100963660046106ee565b610151565b005b6001545b6040519081526020015b60405180910390f35b61009b6100c23660046106ee565b6101ac565b61009b6100d5366004610767565b6101ff565b6100a16100e83660046107ea565b6102a8565b6100f561030d565b6040516100ab9190610814565b6002546100a1565b61011d61011836600461084e565b61031c565b6040516100ab9190610912565b6100f57f000000000000000000000000000000000000000000000000000000000000000081565b610159610428565b6101706706f05b59d3b20000821115610258610459565b60018190556040518181527fa9ba3ffe0b6c366b81232caab38605a0699ad5398d6cce76f91ee809e322dafc906020015b60405180910390a150565b6101b4610428565b6101ca662386f26fc10000821115610259610459565b60028190556040518181527f5a0b7386237e7f07fa741efc64e59c9387d2cccafec760efed4d53387f20e19a906020016101a1565b61020761046b565b61020f610428565b6102198483610484565b60005b8481101561029657600086868381811061023857610238610956565b905060200201602081019061024d919061096c565b9050600085858481811061026357610263610956565b6020029190910135915061028390506001600160a01b0383168583610491565b50508061028f90610989565b905061021c565b506102a16001600055565b5050505050565b60007f0000000000000000000000000000000000000000000000000000000000000000826040516020016102f09291909182526001600160e01b031916602082015260240190565b604051602081830303815290604052805190602001209050919050565b60006103176104e8565b905090565b606081516001600160401b0381111561033757610337610828565b604051908082528060200260200182016040528015610360578160200160208202803683370190505b50905060005b82518110156104225782818151811061038157610381610956565b60200260200101516001600160a01b03166370a08231306040518263ffffffff1660e01b81526004016103b49190610814565b602060405180830381865afa1580156103d1573d6000803e3d6000fd5b505050506040513d601f19601f820116820180604052508101906103f591906109b2565b82828151811061040757610407610956565b602090810291909101015261041b81610989565b9050610366565b50919050565b600061043f6000356001600160e01b0319166102a8565b905061045661044e823361056c565b610191610459565b50565b8161046757610467816105f6565b5050565b61047d60026000541415610190610459565b6002600055565b6104678183146067610459565b604080516001600160a01b038416602482015260448082018490528251808303909101815260649091019091526020810180516001600160e01b031663a9059cbb60e01b1790526104e3908490610649565b505050565b60007f00000000000000000000000000000000000000000000000000000000000000006001600160a01b031663aaabadc56040518163ffffffff1660e01b8152600401602060405180830381865afa158015610548573d6000803e3d6000fd5b505050506040513d601f19601f8201168201806040525081019061031791906109cb565b60006105766104e8565b6040516326f8aa2160e21b8152600481018590526001600160a01b0384811660248301523060448301529190911690639be2a88490606401602060405180830381865afa1580156105cb573d6000803e3d6000fd5b505050506040513d601f19601f820116820180604052508101906105ef91906109e8565b9392505050565b62461bcd60e51b6000908152602060045260076024526642414c23000030600a808404818106603090810160081b95839006959095019082900491820690940160101b939093010160c81b604452606490fd5b600080836001600160a01b0316836040516106649190610a0a565b6000604051808303816000865af19150503d80600081146106a1576040519150601f19603f3d011682016040523d82523d6000602084013e6106a6565b606091505b509150915060008214156106be573d6000803e3d6000fd5b6106e88151600014806106e05750818060200190518101906106e091906109e8565b6101a2610459565b50505050565b60006020828403121561070057600080fd5b5035919050565b60008083601f84011261071957600080fd5b5081356001600160401b0381111561073057600080fd5b6020830191508360208260051b850101111561074b57600080fd5b9250929050565b6001600160a01b038116811461045657600080fd5b60008060008060006060868803121561077f57600080fd5b85356001600160401b038082111561079657600080fd5b6107a289838a01610707565b909750955060208801359150808211156107bb57600080fd5b506107c888828901610707565b90945092505060408601356107dc81610752565b809150509295509295909350565b6000602082840312156107fc57600080fd5b81356001600160e01b0319811681146105ef57600080fd5b6001600160a01b0391909116815260200190565b634e487b7160e01b600052604160045260246000fd5b803561084981610752565b919050565b6000602080838503121561086157600080fd5b82356001600160401b038082111561087857600080fd5b818501915085601f83011261088c57600080fd5b81358181111561089e5761089e610828565b8060051b604051601f19603f830116810181811085821117156108c3576108c3610828565b6040529182528482019250838101850191888311156108e157600080fd5b938501935b82851015610906576108f78561083e565b845293850193928501926108e6565b98975050505050505050565b6020808252825182820181905260009190848201906040850190845b8181101561094a5783518352928401929184019160010161092e565b50909695505050505050565b634e487b7160e01b600052603260045260246000fd5b60006020828403121561097e57600080fd5b81356105ef81610752565b60006000198214156109ab57634e487b7160e01b600052601160045260246000fd5b5060010190565b6000602082840312156109c457600080fd5b5051919050565b6000602082840312156109dd57600080fd5b81516105ef81610752565b6000602082840312156109fa57600080fd5b815180151581146105ef57600080fd5b6000825160005b81811015610a2b5760208186018101518583015201610a11565b81811115610a3a576000828501525b50919091019291505056fea26469706673582212203e9606a8422c19fcf9296b4744af008c544aebe84b5537e480f26d57d465ed9164736f6c634300080a0033",
  "linkReferences": {},
  "deployedLinkReferences": {}
}