{
  "_format": "hh-sol-artifact-1",
  "contractName": "MockAssetTransfersHandler",
  "sourceName": "contracts/test/vault/MockAssetTransfersHandler.sol",
  "abi": [
    {
      "inputs": [
        {
          "internalType": "contract IWETH",
          "name": "weth",
          "type": "address"
        }
      ],
      "stateMutability": "nonpayable",
      "type": "constructor"
    },
    {
      "inputs": [
        {
          "internalType": "address",
          "name": "account",
          "type": "address"
        },
        {
          "internalType": "contract IERC20",
          "name": "token",
          "type": "address"
        },
        {
          "internalType": "uint256",
          "name": "amount",
          "type": "uint256"
        }
      ],
      "name": "depositToInternalBalance",
      "outputs": [],
      "stateMutability": "nonpayable",
      "type": "function"
    },
    {
      "inputs": [
        {
          "internalType": "address",
          "name": "account",
          "type": "address"
        },
        {
          "internalType": "contract IERC20",
          "name": "token",
          "type": "address"
        }
      ],
      "name": "getInternalBalance",
      "outputs": [
        {
          "internalType": "uint256",
          "name": "",
          "type": "uint256"
        }
      ],
      "stateMutability": "view",
      "type": "function"
    },
    {
      "inputs": [
        {
          "internalType": "contract IAsset",
          "name": "asset",
          "type": "address"
        },
        {
          "internalType": "uint256",
          "name": "amount",
          "type": "uint256"
        },
        {
          "internalType": "address",
          "name": "sender",
          "type": "address"
        },
        {
          "internalType": "bool",
          "name": "fromInternalBalance",
          "type": "bool"
        }
      ],
      "name": "receiveAsset",
      "outputs": [],
      "stateMutability": "payable",
      "type": "function"
    },
    {
      "inputs": [
        {
          "internalType": "contract IAsset",
          "name": "asset",
          "type": "address"
        },
        {
          "internalType": "uint256",
          "name": "amount",
          "type": "uint256"
        },
        {
          "internalType": "address payable",
          "name": "recipient",
          "type": "address"
        },
        {
          "internalType": "bool",
          "name": "toInternalBalance",
          "type": "bool"
        }
      ],
      "name": "sendAsset",
      "outputs": [],
      "stateMutability": "nonpayable",
      "type": "function"
    },
    {
      "stateMutability": "payable",
      "type": "receive"
    }
  ],
  "bytecode": "0x60a060405234801561001057600080fd5b5060405161088a38038061088a83398101604081905261002f91610040565b6001600160a01b0316608052610070565b60006020828403121561005257600080fd5b81516001600160a01b038116811461006957600080fd5b9392505050565b6080516107f26100986000396000818160560152818161021a01526103a101526107f26000f3fe6080604052600436106100435760003560e01c80631f51af7d146100865780638a65d2e0146100a657806390c185ae146100fc578063e65f97021461011c57600080fd5b366100815761007f336001600160a01b037f0000000000000000000000000000000000000000000000000000000000000000161461020661012f565b005b600080fd5b34801561009257600080fd5b5061007f6100a1366004610652565b610141565b3480156100b257600080fd5b506100ea6100c13660046106a5565b6001600160a01b0391821660009081526020818152604080832093909416825291909152205490565b60405190815260200160405180910390f35b34801561010857600080fd5b5061007f6101173660046106de565b610153565b61007f61012a366004610652565b610178565b8161013d5761013d81610184565b5050565b61014d848484846101d7565b50505050565b6101686001600160a01b0383168430846102c1565b61017383838361032c565b505050565b61014d8484848461036b565b62461bcd60e51b6000908152602060045260076024526642414c23000030600a808404818106603090810160081b95839006959095019082900491820690940160101b939093010160c81b604452606490fd5b826101e15761014d565b6001600160a01b03841661028f576101fc811561020261012f565b604051632e1a7d4d60e01b8152600481018490526001600160a01b037f00000000000000000000000000000000000000000000000000000000000000001690632e1a7d4d90602401600060405180830381600087803b15801561025e57600080fd5b505af1158015610272573d6000803e3d6000fd5b5061028a925050506001600160a01b03831684610459565b61014d565b8381156102a6576102a183828661032c565b6102ba565b6102ba6001600160a01b03821684866104ca565b5050505050565b6040516001600160a01b038085166024830152831660448201526064810182905261014d9085906323b872dd60e01b906084015b60408051601f198184030181529190526020810180516001600160e01b03166001600160e01b0319909316929092179091526104fa565b6001600160a01b0380841660009081526020818152604080832093861683529290529081208054839290610361908490610735565b9091555050505050565b826103755761014d565b6001600160a01b03841661041857610390811561020261012f565b61039f8347101561020461012f565b7f00000000000000000000000000000000000000000000000000000000000000006001600160a01b031663d0e30db0846040518263ffffffff1660e01b81526004016000604051808303818588803b1580156103fa57600080fd5b505af115801561040e573d6000803e3d6000fd5b505050505061014d565b83811561043e57600061042e8483876001610599565b905061043a818661074d565b9450505b83156102ba576102ba6001600160a01b0382168430876102c1565b610468814710156101a361012f565b6000826001600160a01b03168260405160006040518083038185875af1925050503d80600081146104b5576040519150601f19603f3d011682016040523d82523d6000602084013e6104ba565b606091505b50509050610173816101a461012f565b6040516001600160a01b03831660248201526044810182905261017390849063a9059cbb60e01b906064016102f5565b600080836001600160a01b0316836040516105159190610764565b6000604051808303816000865af19150503d8060008114610552576040519150601f19603f3d011682016040523d82523d6000602084013e610557565b606091505b5091509150600082141561056f573d6000803e3d6000fd5b61014d815160001480610591575081806020019051810190610591919061079f565b6101a261012f565b6001600160a01b03808516600090815260208181526040808320938716835292905290812054826105ca57836105d4565b6105d48185610614565b91506105e0828261074d565b6001600160a01b03968716600090815260208181526040808320989099168252969096529590942094909455509192915050565b60008183106106235781610625565b825b9392505050565b6001600160a01b038116811461064157600080fd5b50565b801515811461064157600080fd5b6000806000806080858703121561066857600080fd5b84356106738161062c565b935060208501359250604085013561068a8161062c565b9150606085013561069a81610644565b939692955090935050565b600080604083850312156106b857600080fd5b82356106c38161062c565b915060208301356106d38161062c565b809150509250929050565b6000806000606084860312156106f357600080fd5b83356106fe8161062c565b9250602084013561070e8161062c565b929592945050506040919091013590565b634e487b7160e01b600052601160045260246000fd5b600082198211156107485761074861071f565b500190565b60008282101561075f5761075f61071f565b500390565b6000825160005b81811015610785576020818601810151858301520161076b565b81811115610794576000828501525b509190910192915050565b6000602082840312156107b157600080fd5b81516106258161064456fea264697066735822122013a08474d5c39dfd0f514fea83ca6db4bd537f0ebe13602f3afe563bcc72de8b64736f6c63430008090033",
  "linkReferences": {},
  "deployedLinkReferences": {}
}