{
  "_format": "hh-sol-artifact-1",
  "contractName": "LiquidityBootstrappingPool",
  "sourceName": "contracts/libraries/smart/LiquidityBootstrappingPool.sol",
  "abi": [
    {
      "inputs": [
        {
          "internalType": "contract IVault",
          "name": "vault",
          "type": "address"
        },
        {
          "internalType": "string",
          "name": "name",
          "type": "string"
        },
        {
          "internalType": "string",
          "name": "symbol",
          "type": "string"
        },
        {
          "internalType": "contract IERC20[]",
          "name": "tokens",
          "type": "address[]"
        },
        {
          "internalType": "uint256[]",
          "name": "normalizedWeights",
          "type": "uint256[]"
        },
        {
          "internalType": "uint256",
          "name": "swapFeePercentage",
          "type": "uint256"
        },
        {
          "internalType": "uint256",
          "name": "pauseWindowDuration",
          "type": "uint256"
        },
        {
          "internalType": "uint256",
          "name": "bufferPeriodDuration",
          "type": "uint256"
        },
        {
          "internalType": "address",
          "name": "owner",
          "type": "address"
        },
        {
          "internalType": "bool",
          "name": "swapEnabledOnStart",
          "type": "bool"
        }
      ],
      "stateMutability": "nonpayable",
      "type": "constructor"
    },
    {
      "anonymous": false,
      "inputs": [
        {
          "indexed": true,
          "internalType": "address",
          "name": "owner",
          "type": "address"
        },
        {
          "indexed": true,
          "internalType": "address",
          "name": "spender",
          "type": "address"
        },
        {
          "indexed": false,
          "internalType": "uint256",
          "name": "value",
          "type": "uint256"
        }
      ],
      "name": "Approval",
      "type": "event"
    },
    {
      "anonymous": false,
      "inputs": [
        {
          "indexed": false,
          "internalType": "uint256",
          "name": "startTime",
          "type": "uint256"
        },
        {
          "indexed": false,
          "internalType": "uint256",
          "name": "endTime",
          "type": "uint256"
        },
        {
          "indexed": false,
          "internalType": "uint256[]",
          "name": "startWeights",
          "type": "uint256[]"
        },
        {
          "indexed": false,
          "internalType": "uint256[]",
          "name": "endWeights",
          "type": "uint256[]"
        }
      ],
      "name": "GradualWeightUpdateScheduled",
      "type": "event"
    },
    {
      "anonymous": false,
      "inputs": [
        {
          "indexed": false,
          "internalType": "bool",
          "name": "paused",
          "type": "bool"
        }
      ],
      "name": "PausedStateChanged",
      "type": "event"
    },
    {
      "anonymous": false,
      "inputs": [
        {
          "indexed": false,
          "internalType": "bool",
          "name": "swapEnabled",
          "type": "bool"
        }
      ],
      "name": "SwapEnabledSet",
      "type": "event"
    },
    {
      "anonymous": false,
      "inputs": [
        {
          "indexed": false,
          "internalType": "uint256",
          "name": "swapFeePercentage",
          "type": "uint256"
        }
      ],
      "name": "SwapFeePercentageChanged",
      "type": "event"
    },
    {
      "anonymous": false,
      "inputs": [
        {
          "indexed": true,
          "internalType": "address",
          "name": "from",
          "type": "address"
        },
        {
          "indexed": true,
          "internalType": "address",
          "name": "to",
          "type": "address"
        },
        {
          "indexed": false,
          "internalType": "uint256",
          "name": "value",
          "type": "uint256"
        }
      ],
      "name": "Transfer",
      "type": "event"
    },
    {
      "inputs": [],
      "name": "DOMAIN_SEPARATOR",
      "outputs": [
        {
          "internalType": "bytes32",
          "name": "",
          "type": "bytes32"
        }
      ],
      "stateMutability": "view",
      "type": "function"
    },
    {
      "inputs": [
        {
          "internalType": "address",
          "name": "owner",
          "type": "address"
        },
        {
          "internalType": "address",
          "name": "spender",
          "type": "address"
        }
      ],
      "name": "allowance",
      "outputs": [
        {
          "internalType": "uint256",
          "name": "",
          "type": "uint256"
        }
      ],
      "stateMutability": "view",
      "type": "function"
    },
    {
      "inputs": [
        {
          "internalType": "address",
          "name": "spender",
          "type": "address"
        },
        {
          "internalType": "uint256",
          "name": "amount",
          "type": "uint256"
        }
      ],
      "name": "approve",
      "outputs": [
        {
          "internalType": "bool",
          "name": "",
          "type": "bool"
        }
      ],
      "stateMutability": "nonpayable",
      "type": "function"
    },
    {
      "inputs": [
        {
          "internalType": "address",
          "name": "account",
          "type": "address"
        }
      ],
      "name": "balanceOf",
      "outputs": [
        {
          "internalType": "uint256",
          "name": "",
          "type": "uint256"
        }
      ],
      "stateMutability": "view",
      "type": "function"
    },
    {
      "inputs": [],
      "name": "decimals",
      "outputs": [
        {
          "internalType": "uint8",
          "name": "",
          "type": "uint8"
        }
      ],
      "stateMutability": "view",
      "type": "function"
    },
    {
      "inputs": [
        {
          "internalType": "address",
          "name": "spender",
          "type": "address"
        },
        {
          "internalType": "uint256",
          "name": "amount",
          "type": "uint256"
        }
      ],
      "name": "decreaseAllowance",
      "outputs": [
        {
          "internalType": "bool",
          "name": "",
          "type": "bool"
        }
      ],
      "stateMutability": "nonpayable",
      "type": "function"
    },
    {
      "inputs": [
        {
          "internalType": "bytes4",
          "name": "selector",
          "type": "bytes4"
        }
      ],
      "name": "getActionId",
      "outputs": [
        {
          "internalType": "bytes32",
          "name": "",
          "type": "bytes32"
        }
      ],
      "stateMutability": "view",
      "type": "function"
    },
    {
      "inputs": [],
      "name": "getAuthorizer",
      "outputs": [
        {
          "internalType": "contract IAuthorizer",
          "name": "",
          "type": "address"
        }
      ],
      "stateMutability": "view",
      "type": "function"
    },
    {
      "inputs": [],
      "name": "getGradualWeightUpdateParams",
      "outputs": [
        {
          "internalType": "uint256",
          "name": "startTime",
          "type": "uint256"
        },
        {
          "internalType": "uint256",
          "name": "endTime",
          "type": "uint256"
        },
        {
          "internalType": "uint256[]",
          "name": "endWeights",
          "type": "uint256[]"
        }
      ],
      "stateMutability": "view",
      "type": "function"
    },
    {
      "inputs": [],
      "name": "getInvariant",
      "outputs": [
        {
          "internalType": "uint256",
          "name": "",
          "type": "uint256"
        }
      ],
      "stateMutability": "view",
      "type": "function"
    },
    {
      "inputs": [],
      "name": "getLastInvariant",
      "outputs": [
        {
          "internalType": "uint256",
          "name": "",
          "type": "uint256"
        }
      ],
      "stateMutability": "view",
      "type": "function"
    },
    {
      "inputs": [],
      "name": "getNormalizedWeights",
      "outputs": [
        {
          "internalType": "uint256[]",
          "name": "",
          "type": "uint256[]"
        }
      ],
      "stateMutability": "view",
      "type": "function"
    },
    {
      "inputs": [],
      "name": "getOwner",
      "outputs": [
        {
          "internalType": "address",
          "name": "",
          "type": "address"
        }
      ],
      "stateMutability": "view",
      "type": "function"
    },
    {
      "inputs": [],
      "name": "getPausedState",
      "outputs": [
        {
          "internalType": "bool",
          "name": "paused",
          "type": "bool"
        },
        {
          "internalType": "uint256",
          "name": "pauseWindowEndTime",
          "type": "uint256"
        },
        {
          "internalType": "uint256",
          "name": "bufferPeriodEndTime",
          "type": "uint256"
        }
      ],
      "stateMutability": "view",
      "type": "function"
    },
    {
      "inputs": [],
      "name": "getPoolId",
      "outputs": [
        {
          "internalType": "bytes32",
          "name": "",
          "type": "bytes32"
        }
      ],
      "stateMutability": "view",
      "type": "function"
    },
    {
      "inputs": [],
      "name": "getRate",
      "outputs": [
        {
          "internalType": "uint256",
          "name": "",
          "type": "uint256"
        }
      ],
      "stateMutability": "view",
      "type": "function"
    },
    {
      "inputs": [],
      "name": "getScalingFactors",
      "outputs": [
        {
          "internalType": "uint256[]",
          "name": "",
          "type": "uint256[]"
        }
      ],
      "stateMutability": "view",
      "type": "function"
    },
    {
      "inputs": [],
      "name": "getSwapEnabled",
      "outputs": [
        {
          "internalType": "bool",
          "name": "",
          "type": "bool"
        }
      ],
      "stateMutability": "view",
      "type": "function"
    },
    {
      "inputs": [],
      "name": "getSwapFeePercentage",
      "outputs": [
        {
          "internalType": "uint256",
          "name": "",
          "type": "uint256"
        }
      ],
      "stateMutability": "view",
      "type": "function"
    },
    {
      "inputs": [],
      "name": "getVault",
      "outputs": [
        {
          "internalType": "contract IVault",
          "name": "",
          "type": "address"
        }
      ],
      "stateMutability": "view",
      "type": "function"
    },
    {
      "inputs": [
        {
          "internalType": "address",
          "name": "spender",
          "type": "address"
        },
        {
          "internalType": "uint256",
          "name": "addedValue",
          "type": "uint256"
        }
      ],
      "name": "increaseAllowance",
      "outputs": [
        {
          "internalType": "bool",
          "name": "",
          "type": "bool"
        }
      ],
      "stateMutability": "nonpayable",
      "type": "function"
    },
    {
      "inputs": [],
      "name": "name",
      "outputs": [
        {
          "internalType": "string",
          "name": "",
          "type": "string"
        }
      ],
      "stateMutability": "view",
      "type": "function"
    },
    {
      "inputs": [
        {
          "internalType": "address",
          "name": "owner",
          "type": "address"
        }
      ],
      "name": "nonces",
      "outputs": [
        {
          "internalType": "uint256",
          "name": "",
          "type": "uint256"
        }
      ],
      "stateMutability": "view",
      "type": "function"
    },
    {
      "inputs": [
        {
          "internalType": "bytes32",
          "name": "poolId",
          "type": "bytes32"
        },
        {
          "internalType": "address",
          "name": "sender",
          "type": "address"
        },
        {
          "internalType": "address",
          "name": "recipient",
          "type": "address"
        },
        {
          "internalType": "uint256[]",
          "name": "balances",
          "type": "uint256[]"
        },
        {
          "internalType": "uint256",
          "name": "lastChangeBlock",
          "type": "uint256"
        },
        {
          "internalType": "uint256",
          "name": "protocolSwapFeePercentage",
          "type": "uint256"
        },
        {
          "internalType": "bytes",
          "name": "userData",
          "type": "bytes"
        }
      ],
      "name": "onExitPool",
      "outputs": [
        {
          "internalType": "uint256[]",
          "name": "",
          "type": "uint256[]"
        },
        {
          "internalType": "uint256[]",
          "name": "",
          "type": "uint256[]"
        }
      ],
      "stateMutability": "nonpayable",
      "type": "function"
    },
    {
      "inputs": [
        {
          "internalType": "bytes32",
          "name": "poolId",
          "type": "bytes32"
        },
        {
          "internalType": "address",
          "name": "sender",
          "type": "address"
        },
        {
          "internalType": "address",
          "name": "recipient",
          "type": "address"
        },
        {
          "internalType": "uint256[]",
          "name": "balances",
          "type": "uint256[]"
        },
        {
          "internalType": "uint256",
          "name": "lastChangeBlock",
          "type": "uint256"
        },
        {
          "internalType": "uint256",
          "name": "protocolSwapFeePercentage",
          "type": "uint256"
        },
        {
          "internalType": "bytes",
          "name": "userData",
          "type": "bytes"
        }
      ],
      "name": "onJoinPool",
      "outputs": [
        {
          "internalType": "uint256[]",
          "name": "",
          "type": "uint256[]"
        },
        {
          "internalType": "uint256[]",
          "name": "",
          "type": "uint256[]"
        }
      ],
      "stateMutability": "nonpayable",
      "type": "function"
    },
    {
      "inputs": [
        {
          "components": [
            {
              "internalType": "enum IVault.SwapKind",
              "name": "kind",
              "type": "uint8"
            },
            {
              "internalType": "contract IERC20",
              "name": "tokenIn",
              "type": "address"
            },
            {
              "internalType": "contract IERC20",
              "name": "tokenOut",
              "type": "address"
            },
            {
              "internalType": "uint256",
              "name": "amount",
              "type": "uint256"
            },
            {
              "internalType": "bytes32",
              "name": "poolId",
              "type": "bytes32"
            },
            {
              "internalType": "uint256",
              "name": "lastChangeBlock",
              "type": "uint256"
            },
            {
              "internalType": "address",
              "name": "from",
              "type": "address"
            },
            {
              "internalType": "address",
              "name": "to",
              "type": "address"
            },
            {
              "internalType": "bytes",
              "name": "userData",
              "type": "bytes"
            }
          ],
          "internalType": "struct IPoolSwapStructs.SwapRequest",
          "name": "request",
          "type": "tuple"
        },
        {
          "internalType": "uint256",
          "name": "balanceTokenIn",
          "type": "uint256"
        },
        {
          "internalType": "uint256",
          "name": "balanceTokenOut",
          "type": "uint256"
        }
      ],
      "name": "onSwap",
      "outputs": [
        {
          "internalType": "uint256",
          "name": "",
          "type": "uint256"
        }
      ],
      "stateMutability": "nonpayable",
      "type": "function"
    },
    {
      "inputs": [
        {
          "internalType": "address",
          "name": "owner",
          "type": "address"
        },
        {
          "internalType": "address",
          "name": "spender",
          "type": "address"
        },
        {
          "internalType": "uint256",
          "name": "value",
          "type": "uint256"
        },
        {
          "internalType": "uint256",
          "name": "deadline",
          "type": "uint256"
        },
        {
          "internalType": "uint8",
          "name": "v",
          "type": "uint8"
        },
        {
          "internalType": "bytes32",
          "name": "r",
          "type": "bytes32"
        },
        {
          "internalType": "bytes32",
          "name": "s",
          "type": "bytes32"
        }
      ],
      "name": "permit",
      "outputs": [],
      "stateMutability": "nonpayable",
      "type": "function"
    },
    {
      "inputs": [
        {
          "internalType": "bytes32",
          "name": "poolId",
          "type": "bytes32"
        },
        {
          "internalType": "address",
          "name": "sender",
          "type": "address"
        },
        {
          "internalType": "address",
          "name": "recipient",
          "type": "address"
        },
        {
          "internalType": "uint256[]",
          "name": "balances",
          "type": "uint256[]"
        },
        {
          "internalType": "uint256",
          "name": "lastChangeBlock",
          "type": "uint256"
        },
        {
          "internalType": "uint256",
          "name": "protocolSwapFeePercentage",
          "type": "uint256"
        },
        {
          "internalType": "bytes",
          "name": "userData",
          "type": "bytes"
        }
      ],
      "name": "queryExit",
      "outputs": [
        {
          "internalType": "uint256",
          "name": "bptIn",
          "type": "uint256"
        },
        {
          "internalType": "uint256[]",
          "name": "amountsOut",
          "type": "uint256[]"
        }
      ],
      "stateMutability": "nonpayable",
      "type": "function"
    },
    {
      "inputs": [
        {
          "internalType": "bytes32",
          "name": "poolId",
          "type": "bytes32"
        },
        {
          "internalType": "address",
          "name": "sender",
          "type": "address"
        },
        {
          "internalType": "address",
          "name": "recipient",
          "type": "address"
        },
        {
          "internalType": "uint256[]",
          "name": "balances",
          "type": "uint256[]"
        },
        {
          "internalType": "uint256",
          "name": "lastChangeBlock",
          "type": "uint256"
        },
        {
          "internalType": "uint256",
          "name": "protocolSwapFeePercentage",
          "type": "uint256"
        },
        {
          "internalType": "bytes",
          "name": "userData",
          "type": "bytes"
        }
      ],
      "name": "queryJoin",
      "outputs": [
        {
          "internalType": "uint256",
          "name": "bptOut",
          "type": "uint256"
        },
        {
          "internalType": "uint256[]",
          "name": "amountsIn",
          "type": "uint256[]"
        }
      ],
      "stateMutability": "nonpayable",
      "type": "function"
    },
    {
      "inputs": [
        {
          "internalType": "contract IERC20",
          "name": "token",
          "type": "address"
        },
        {
          "internalType": "bytes",
          "name": "poolConfig",
          "type": "bytes"
        }
      ],
      "name": "setAssetManagerPoolConfig",
      "outputs": [],
      "stateMutability": "nonpayable",
      "type": "function"
    },
    {
      "inputs": [
        {
          "internalType": "bool",
          "name": "paused",
          "type": "bool"
        }
      ],
      "name": "setPaused",
      "outputs": [],
      "stateMutability": "nonpayable",
      "type": "function"
    },
    {
      "inputs": [
        {
          "internalType": "bool",
          "name": "swapEnabled",
          "type": "bool"
        }
      ],
      "name": "setSwapEnabled",
      "outputs": [],
      "stateMutability": "nonpayable",
      "type": "function"
    },
    {
      "inputs": [
        {
          "internalType": "uint256",
          "name": "swapFeePercentage",
          "type": "uint256"
        }
      ],
      "name": "setSwapFeePercentage",
      "outputs": [],
      "stateMutability": "nonpayable",
      "type": "function"
    },
    {
      "inputs": [],
      "name": "symbol",
      "outputs": [
        {
          "internalType": "string",
          "name": "",
          "type": "string"
        }
      ],
      "stateMutability": "view",
      "type": "function"
    },
    {
      "inputs": [],
      "name": "totalSupply",
      "outputs": [
        {
          "internalType": "uint256",
          "name": "",
          "type": "uint256"
        }
      ],
      "stateMutability": "view",
      "type": "function"
    },
    {
      "inputs": [
        {
          "internalType": "address",
          "name": "recipient",
          "type": "address"
        },
        {
          "internalType": "uint256",
          "name": "amount",
          "type": "uint256"
        }
      ],
      "name": "transfer",
      "outputs": [
        {
          "internalType": "bool",
          "name": "",
          "type": "bool"
        }
      ],
      "stateMutability": "nonpayable",
      "type": "function"
    },
    {
      "inputs": [
        {
          "internalType": "address",
          "name": "sender",
          "type": "address"
        },
        {
          "internalType": "address",
          "name": "recipient",
          "type": "address"
        },
        {
          "internalType": "uint256",
          "name": "amount",
          "type": "uint256"
        }
      ],
      "name": "transferFrom",
      "outputs": [
        {
          "internalType": "bool",
          "name": "",
          "type": "bool"
        }
      ],
      "stateMutability": "nonpayable",
      "type": "function"
    },
    {
      "inputs": [
        {
          "internalType": "uint256",
          "name": "startTime",
          "type": "uint256"
        },
        {
          "internalType": "uint256",
          "name": "endTime",
          "type": "uint256"
        },
        {
          "internalType": "uint256[]",
          "name": "endWeights",
          "type": "uint256[]"
        }
      ],
      "name": "updateWeightsGradually",
      "outputs": [],
      "stateMutability": "nonpayable",
      "type": "function"
    }
  ],
  "bytecode": "0x6102e06040527f6e71edae12b1b97f4d1f60370fef10105fa2faae0126114a169c64845d6126c9610120523480156200003757600080fd5b506040516200732c3803806200732c8339810160408190526200005a9162000f61565b898989898a516001600160401b038111156200007a576200007a62000d6c565b604051908082528060200260200182016040528015620000a4578160200160208202803683370190505b5089898989888651600214620000bc576001620000bf565b60025b8989898989898989828289898d8280604051806040016040528060018152602001603160f81b81525085858a6060336001600160a01b0316901b60001b806080818152505050806001600160a01b031660a0816001600160a01b0316815250505081600390805190602001906200013892919062000c9b565b5080516200014e90600490602084019062000c9b565b50506005805460ff1916601217905550815160209283012060c052805191012060e052507f8b73c3c69bb8fe3d512ecc4cf759cc79239f7b179b0ffacaa9a75d522b39400f610100526001600160a01b03166101405250620001bb90506276a70083111561019462000535565b620001cf62278d0082111561019562000535565b6000620001dd834262001088565b6101608190529050620001f1828262001088565b61018052505086516200020b91506002111560c862000535565b6200021d60048751111560c962000535565b62000233866200054a60201b620011741760201c565b6200023e8462000556565b6040516309b2760f60e01b81526000906001600160a01b038c16906309b2760f906200026f908d90600401620010a3565b602060405180830381600087803b1580156200028a57600080fd5b505af11580156200029f573d6000803e3d6000fd5b505050506040513d601f19601f82011682018060405250810190620002c59190620010cc565b604051633354e3e960e11b81529091506001600160a01b038c16906366a9c7d290620002fa9084908b908b90600401620010e6565b600060405180830381600087803b1580156200031557600080fd5b505af11580156200032a573d6000803e3d6000fd5b50505050806101a0818152505050505050505050505050505050505050505050506001600a8190555060008751905062000371818851620005dc60201b6200117e1760201c565b6101c0819052875188906000906200038d576200038d62001182565b60200260200101516001600160a01b03166101e0816001600160a01b03168152505087600181518110620003c557620003c562001182565b60209081029190910101516001600160a01b03166102005260028111620003ee5760006200040d565b8760028151811062000404576200040462001182565b60200260200101515b6001600160a01b031661022052600381116200042b5760006200044a565b8760038151811062000441576200044162001182565b60200260200101515b6001600160a01b03166102405287516200048690899060009062000472576200047262001182565b6020026020010151620005eb60201b60201c565b610260528751620004a7908990600190811062000472576200047262001182565b6102805260028111620004bc576000620004d6565b620004d68860028151811062000472576200047262001182565b6102a05260038111620004eb57600062000505565b620005058860038151811062000472576200047262001182565b6102c052426200051881808a80620006c4565b620005238362000895565b505050505050505050505050620013ff565b8162000546576200054681620008ea565b5050565b8062000546816200093d565b6200056b64e8d4a5100082101560cb62000535565b6200058367016345785d8a000082111560ca62000535565b620005a28160c0600854620009e060201b6200118b179092919060201c565b6008556040518181527fa9ba3ffe0b6c366b81232caab38605a0699ad5398d6cce76f91ee809e322dafc906020015b60405180910390a150565b62000546828214606762000535565b60006001600160a01b0382163014156200060e5750670de0b6b3a7640000919050565b6000826001600160a01b031663313ce5676040518163ffffffff1660e01b815260040160206040518083038186803b1580156200064a57600080fd5b505afa1580156200065f573d6000803e3d6000fd5b505050506040513d601f19601f8201168201806040525081019062000685919062001198565b60ff169050600062000699826012620011bd565b9050620006a881600a620012d4565b620006bc90670de0b6b3a7640000620012e2565b949350505050565b600b546000805b8351811015620007f8576000848281518110620006ec57620006ec62001182565b6020026020010151905062000714662386f26fc1000082101561012e6200053560201b60201c565b620007c36200072e82620009f560201b620011a01760201c565b6200073b846010620012e2565b6200074890608062001088565b620007ae6200077e8a878151811062000765576200076562001182565b602002602001015162000a3c60201b620011c01760201c565b6200078b87601f620012e2565b6200079890600462001088565b8962000a6960201b620011dc179092919060201c565b62000a7b60201b620011ee179092919060201c565b9350620007df818462000a8b60201b620011fe1790919060201c565b9250508080620007ef9062001304565b915050620006cb565b5062000811670de0b6b3a7640000821461013462000535565b6200084a8560e0620008358960c08762000ae860201b6200124c179092919060201c565b62000ae860201b6200124c179092919060201c565b600b556040517f0f3631f9dab08169d1db21c6dc5f32536fb2b0a6b9bb5330d71c52132f968be090620008859088908890889088906200135f565b60405180910390a1505050505050565b620008b4816000600b5462000afa60201b6200125e179092919060201c565b600b5560405181151581527f5a9e84f78f7957cb4ed7478eb0fcad35ee4ecbe2e0f298420b28a3955392573f90602001620005d1565b62461bcd60e51b6000908152602060045260076024526642414c23000030600a808404818106603090810160081b95839006959095019082900491820690940160101b939093010160c81b604452606490fd5b6002815110156200094b5750565b60008160008151811062000963576200096362001182565b602002602001015190506000600190505b8251811015620009db57600083828151811062000995576200099562001182565b60200260200101519050620009c6816001600160a01b0316846001600160a01b03161060656200053560201b60201c565b9150620009d38162001304565b905062000974565b505050565b6001600160401b03811b1992909216911b1790565b600062000a36670de0b6b3a764000062000a2261ffff80168562000b2360201b620012851790919060201c565b62000bd260201b620013241790919060201c565b92915050565b600062000a36670de0b6b3a764000062000a22637fffffff8562000b2360201b620012851790919060201c565b637fffffff811b1992909216911b1790565b61ffff811b1992909216911b1790565b60008062000a9a838562001088565b90508381101562000ae15760405162461bcd60e51b815260206004820152600c60248201526b4144445f4f564552464c4f5760a01b60448201526064015b60405180910390fd5b9392505050565b63ffffffff811b1992909216911b1790565b60006001821b198416828462000b1257600062000b15565b60015b60ff16901b17949350505050565b60008062000b328385620012e2565b905083158062000b4c57508262000b4a85836200139f565b145b62000b895760405162461bcd60e51b815260206004820152600c60248201526b4d554c5f4f564552464c4f5760a01b604482015260640162000ad8565b8062000b9a57600091505062000a36565b670de0b6b3a764000062000bb0600183620011bd565b62000bbc91906200139f565b62000bc990600162001088565b91505062000a36565b60008162000c135760405162461bcd60e51b815260206004820152600d60248201526c2d22a927afa224ab24a9a4a7a760991b604482015260640162000ad8565b8262000c225750600062000a36565b600062000c38670de0b6b3a764000085620012e2565b9050670de0b6b3a764000062000c4f85836200139f565b1462000c8d5760405162461bcd60e51b815260206004820152600c60248201526b11125597d25395115493905360a21b604482015260640162000ad8565b8262000bb0600183620011bd565b82805462000ca990620013c2565b90600052602060002090601f01602090048101928262000ccd576000855562000d18565b82601f1062000ce857805160ff191683800117855562000d18565b8280016001018555821562000d18579182015b8281111562000d1857825182559160200191906001019062000cfb565b5062000d2692915062000d2a565b5090565b5b8082111562000d26576000815560010162000d2b565b6001600160a01b038116811462000d5757600080fd5b50565b805162000d678162000d41565b919050565b634e487b7160e01b600052604160045260246000fd5b604051601f8201601f191681016001600160401b038111828210171562000dad5762000dad62000d6c565b604052919050565b600082601f83011262000dc757600080fd5b81516001600160401b0381111562000de35762000de362000d6c565b602062000df9601f8301601f1916820162000d82565b828152858284870101111562000e0e57600080fd5b60005b8381101562000e2e57858101830151828201840152820162000e11565b8381111562000e405760008385840101525b5095945050505050565b60006001600160401b0382111562000e665762000e6662000d6c565b5060051b60200190565b600082601f83011262000e8257600080fd5b8151602062000e9b62000e958362000e4a565b62000d82565b82815260059290921b8401810191818101908684111562000ebb57600080fd5b8286015b8481101562000ee357805162000ed58162000d41565b835291830191830162000ebf565b509695505050505050565b600082601f83011262000f0057600080fd5b8151602062000f1362000e958362000e4a565b82815260059290921b8401810191818101908684111562000f3357600080fd5b8286015b8481101562000ee3578051835291830191830162000f37565b8051801515811462000d6757600080fd5b6000806000806000806000806000806101408b8d03121562000f8257600080fd5b62000f8d8b62000d5a565b60208c0151909a506001600160401b038082111562000fab57600080fd5b62000fb98e838f0162000db5565b9a5060408d015191508082111562000fd057600080fd5b62000fde8e838f0162000db5565b995060608d015191508082111562000ff557600080fd5b620010038e838f0162000e70565b985060808d01519150808211156200101a57600080fd5b50620010298d828e0162000eee565b96505060a08b0151945060c08b0151935060e08b01519250620010506101008c0162000d5a565b9150620010616101208c0162000f50565b90509295989b9194979a5092959850565b634e487b7160e01b600052601160045260246000fd5b600082198211156200109e576200109e62001072565b500190565b6020810160038310620010c657634e487b7160e01b600052602160045260246000fd5b91905290565b600060208284031215620010df57600080fd5b5051919050565b6000606082018583526020606081850152818651808452608086019150828801935060005b81811015620011325784516001600160a01b0316835293830193918301916001016200110b565b50508481036040860152855180825290820192508186019060005b81811015620011745782516001600160a01b0316855293830193918301916001016200114d565b509298975050505050505050565b634e487b7160e01b600052603260045260246000fd5b600060208284031215620011ab57600080fd5b815160ff8116811462000ae157600080fd5b600082821015620011d257620011d262001072565b500390565b600181815b8085111562001218578160001904821115620011fc57620011fc62001072565b808516156200120a57918102915b93841c9390800290620011dc565b509250929050565b600082620012315750600162000a36565b81620012405750600062000a36565b8160018114620012595760028114620012645762001284565b600191505062000a36565b60ff84111562001278576200127862001072565b50506001821b62000a36565b5060208310610133831016604e8410600b8410161715620012a9575081810a62000a36565b620012b58383620011d7565b8060001904821115620012cc57620012cc62001072565b029392505050565b600062000ae1838362001220565b6000816000190483118215151615620012ff57620012ff62001072565b500290565b60006000198214156200131b576200131b62001072565b5060010190565b600081518084526020808501945080840160005b83811015620013545781518752958201959082019060010162001336565b509495945050505050565b84815283602082015260806040820152600062001380608083018562001322565b828103606084015262001394818562001322565b979650505050505050565b600082620013bd57634e487b7160e01b600052601260045260246000fd5b500490565b600181811c90821680620013d757607f821691505b60208210811415620013f957634e487b7160e01b600052602260045260246000fd5b50919050565b60805160a05160c05160e05161010051610120516101405161016051610180516101a0516101c0516101e05161020051610220516102405161026051610280516102a0516102c051615d916200159b6000396000818161167e01526122ea01526000818161163501526122890152600081816115ec01526122280152600081816115ac01526121c70152600081816122af015261340a01526000818161224e01526133c80152600081816121ed015261338601526000818161218c0152613344015260006118da01526000818161031e015281816108f601528181610b2901528181610d0501528181610f8b0152611bac01526000818161066b015281816114af0152611524015260008181610648015261147c0152600081816104a9015281816108b601528181610b0201528181610d3801528181610f62015281816110cb01528181611bd101526123e301526000610e180152600061179a015260006117dc015260006117bb01526000818161046f015281816120ae015281816125fe01528181612746015261279101526000610a5d0152615d916000f3fe608060405234801561001057600080fd5b50600436106102325760003560e01c806374f3b009116101305780639d2c110c116100b8578063d505accf1161007c578063d505accf14610526578063d5c096c414610539578063dd62ed3e1461054c578063e01af92c1461055f578063f89f27ed1461057257600080fd5b80639d2c110c146104dd578063a457c2d7146104f0578063a9059cbb14610503578063aaabadc514610516578063c0ff1a151461051e57600080fd5b806387ec6817116100ff57806387ec68171461045a578063893d20e81461046d5780638d928af8146104a757806395d89b41146104cd5780639b02cdde146104d557600080fd5b806374f3b009146103e65780637beed220146104075780637ecebe001461041e578063851c1bb31461044757600080fd5b806338e9922e116101be57806350dd6ed91161018257806350dd6ed91461037657806355c67628146103895780636028bfd414610394578063679aefce146103b557806370a08231146103bd57600080fd5b806338e9922e1461030957806338fff2d01461031c57806339509351146103425780633e5692051461035557806347bc4d921461036857600080fd5b80631c0de051116102055780631c0de0511461029f5780631dd746ea146102c457806323b872dd146102d9578063313ce567146102ec5780633644e5151461030157600080fd5b806306fdde0314610237578063095ea7b31461025557806316c38b3c1461027857806318160ddd1461028d575b600080fd5b61023f61057a565b60405161024c9190615194565b60405180910390f35b6102686102633660046151c7565b61060c565b604051901515815260200161024c565b61028b610286366004615201565b610623565b005b6002545b60405190815260200161024c565b6102a7610637565b60408051931515845260208401929092529082015260600161024c565b6102cc610690565b60405161024c9190615259565b6102686102e736600461526c565b61069f565b60055460405160ff909116815260200161024c565b610291610767565b61028b6103173660046152ad565b610771565b7f0000000000000000000000000000000000000000000000000000000000000000610291565b6102686103503660046151c7565b61078a565b61028b6103633660046153c3565b6107c1565b600b54600190811614610268565b61028b610384366004615481565b61082a565b60085460c01c610291565b6103a76103a23660046154d0565b610848565b60405161024c929190615575565b61029161087f565b6102916103cb36600461558e565b6001600160a01b031660009081526020819052604090205490565b6103f96103f43660046154d0565b6108ad565b60405161024c9291906155ab565b61040f610984565b60405161024c939291906155d0565b61029161042c36600461558e565b6001600160a01b031660009081526006602052604090205490565b6102916104553660046155ef565b610a59565b6103a76104683660046154d0565b610abe565b7f00000000000000000000000000000000000000000000000000000000000000005b6040516001600160a01b03909116815260200161024c565b7f000000000000000000000000000000000000000000000000000000000000000061048f565b61023f610ae4565b600954610291565b6102916104eb366004615628565b610af3565b6102686104fe3660046151c7565b610c9f565b6102686105113660046151c7565b610cdf565b61048f610cec565b610291610cf6565b61028b61053436600461571d565b610de9565b6103f96105473660046154d0565b610f59565b61029161055a366004615794565b6110c7565b61028b61056d366004615201565b61113f565b6102cc61116a565b606060038054610589906157cd565b80601f01602080910402602001604051908101604052809291908181526020018280546105b5906157cd565b80156106025780601f106105d757610100808354040283529160200191610602565b820191906000526020600020905b8154815290600101906020018083116105e557829003601f168201915b5050505050905090565b60006106193384846113e1565b5060015b92915050565b61062b611443565b61063481611471565b50565b6000806000610644611520565b15937f000000000000000000000000000000000000000000000000000000000000000093507f000000000000000000000000000000000000000000000000000000000000000092509050565b606061069a611556565b905090565b6000806106ac85336110c7565b9050336001600160a01b03861614806106c55750828110155b6107165760405162461bcd60e51b815260206004820181905260248201527f45524332305f5452414e534645525f455843454544535f414c4c4f57414e434560448201526064015b60405180910390fd5b6107218585856116c1565b336001600160a01b0386161480159061074157506001600160801b038114155b1561075a5761075a8533610755868561581e565b6113e1565b60019150505b9392505050565b600061069a611796565b610779611443565b61078161183c565b61063481611851565b3360008181526001602090815260408083206001600160a01b03871684529091528120549091610619918590610755908690615835565b6107c9611443565b6107d161183c565b6107d96118bf565b6107eb6107e46118d8565b825161117e565b426107f681856118fc565b935061080783851115610146611913565b61081a8484610814611921565b85611a47565b506108256001600a55565b505050565b610832611443565b61083a61183c565b6108448282611ba8565b5050565b6000606061085e86516108596118d8565b61117e565b61087389898989898989611cde611dad611e28565b97509795505050505050565b600061069a61088d60025490565b6108956118d8565b61089d610cf6565b6108a7919061584d565b90611f4a565b606080886108f17f00000000000000000000000000000000000000000000000000000000000000005b6001600160a01b0316336001600160a01b03161460cd611913565b6109207f00000000000000000000000000000000000000000000000000000000000000005b82146101f4611913565b600061092a611556565b90506109368882612005565b600080600061094b8e8e8e8e8e8e8a8f611cde565b92509250925061095b8d84612080565b6109658285611dad565b61096f8185611dad565b909550935050505b5097509795505050505050565b600b5463ffffffff60c082901c169060e081901c9060609060006109a66118d8565b9050806001600160401b038111156109c0576109c06152c6565b6040519080825280602002602001820160405280156109e9578160200160208202803683370190505b50925060005b81811015610a5157610a22610a1d610a0883601061584d565b610a13906080615835565b85901c61ffff1690565b61208a565b848281518110610a3457610a3461586c565b602090810291909101015280610a4981615882565b9150506109ef565b505050909192565b60007f000000000000000000000000000000000000000000000000000000000000000082604051602001610aa19291909182526001600160e01b031916602082015260240190565b604051602081830303815290604052805190602001209050919050565b60006060610acf86516108596118d8565b610873898989898989896120a461210d611e28565b606060048054610589906157cd565b60008360800151610b246108d67f000000000000000000000000000000000000000000000000000000000000000090565b610b4d7f0000000000000000000000000000000000000000000000000000000000000000610916565b6000610b5c8660200151612188565b90506000610b6d8760400151612188565b9050600087516001811115610b8457610b8461589d565b1415610c18576000610b99886060015161231e565b90506000818960600151610bad919061581e565b9050610bc189602001516108448387612343565b60608901829052610bd28885612343565b9750610bde8784612343565b9650610bee896060015185612343565b60608a01526000610c008a8a8a61234f565b9050610c0c818561237e565b96505050505050610c97565b610c228683612343565b9550610c2e8582612343565b9450610c3e876060015182612343565b60608801526000610c5088888861238a565b9050610c5c81846123a9565b90506000610c69826123b5565b90506000610c77838361581e565b9050610c8b8a602001516108448388612343565b509450610c9792505050565b509392505050565b600080610cac33856110c7565b9050808310610cc657610cc1338560006113e1565b610cd5565b610cd53385610755868561581e565b5060019392505050565b60006106193384846116c1565b600061069a6123df565b604051631f29a8cd60e31b81527f0000000000000000000000000000000000000000000000000000000000000000600482015260009081906001600160a01b037f0000000000000000000000000000000000000000000000000000000000000000169063f94d46689060240160006040518083038186803b158015610d7a57600080fd5b505afa158015610d8e573d6000803e3d6000fd5b505050506040513d6000823e601f3d908101601f19168201604052610db6919081019061590e565b50915050610dcb81610dc6611556565b612005565b6000610dd5612472565b509050610de2818361250c565b9250505090565b610df78442111560d1611913565b6001600160a01b0387811660008181526006602090815260408083205481517f00000000000000000000000000000000000000000000000000000000000000008185015280830195909552948b166060850152608084018a905260a0840185905260c08085018a90528151808603909101815260e09094019052825192019190912090610e83826125c6565b6040805160008082526020820180845284905260ff8a169282019290925260608101889052608081018790529192509060019060a0016020604051602081039080840390855afa158015610edb573d6000803e3d6000fd5b5050604051601f1901519150610f1d90506001600160a01b03821615801590610f1557508b6001600160a01b0316826001600160a01b0316145b6101f8611913565b610f28846001615835565b6001600160a01b038c16600090815260066020526040902055610f4c8b8b8b6113e1565b5050505050505050505050565b60608088610f867f00000000000000000000000000000000000000000000000000000000000000006108d6565b610faf7f0000000000000000000000000000000000000000000000000000000000000000610916565b6000610fb9611556565b9050610fc460025490565b61107757600080610fd88d8d8d868b6125f5565b91509150610ff3610fe9620f424090565b83101560cc611913565b6110066000620f4240612654565b612654565b6110178b611001620f42408561581e565b611021818461210d565b8061102a6118d8565b6001600160401b03811115611041576110416152c6565b60405190808252806020026020018201604052801561106a578160200160208202803683370190505b5095509550505050610977565b6110818882612005565b60008060006110968e8e8e8e8e8e8a8f6120a4565b9250925092506110a68c84612654565b6110b0828561210d565b6110ba8185611dad565b9095509350610977915050565b60007f00000000000000000000000000000000000000000000000000000000000000006001600160a01b0316826001600160a01b0316141561111157506001600160801b0361061d565b6001600160a01b038084166000908152600160209081526040808320938616835292905220545b905061061d565b611147611443565b61114f61183c565b6111576118bf565b6111608161265e565b6106346001600a55565b606061069a611921565b80610844816126a2565b6108448183146067611913565b6001600160401b03811b1992909216911b1790565b600061061d670de0b6b3a76400006111ba8461ffff611285565b90611324565b600061061d670de0b6b3a76400006111ba84637fffffff611285565b637fffffff811b1992909216911b1790565b61ffff811b1992909216911b1790565b60008061120b8385615835565b9050838110156107605760405162461bcd60e51b815260206004820152600c60248201526b4144445f4f564552464c4f5760a01b604482015260640161070d565b63ffffffff811b1992909216911b1790565b60006001821b1984168284611274576000611277565b60015b60ff16901b17949350505050565b600080611292838561584d565b90508315806112a95750826112a785836159f1565b145b6112e45760405162461bcd60e51b815260206004820152600c60248201526b4d554c5f4f564552464c4f5760a01b604482015260640161070d565b806112f357600091505061061d565b670de0b6b3a764000061130760018361581e565b61131191906159f1565b61131c906001615835565b91505061061d565b6000816113635760405162461bcd60e51b815260206004820152600d60248201526c2d22a927afa224ab24a9a4a7a760991b604482015260640161070d565b826113705750600061061d565b6000611384670de0b6b3a76400008561584d565b9050670de0b6b3a764000061139985836159f1565b146113d55760405162461bcd60e51b815260206004820152600c60248201526b11125597d25395115493905360a21b604482015260640161070d565b8261130760018361581e565b6001600160a01b0383811660008181526001602090815260408083209487168084529482529182902085905590518481527f8c5be1e5ebec7d5bd14f71427d1e84f3dd0314c0f7b2291e5b200ac8c7c3b92591015b60405180910390a3505050565b600061145a6000356001600160e01b031916610a59565b9050610634611469823361272d565b610191611913565b80156114aa576114a57f00000000000000000000000000000000000000000000000000000000000000004210610193611913565b6114d8565b6114d87f000000000000000000000000000000000000000000000000000000000000000042106101a9611913565b6007805460ff19168215159081179091556040519081527f9e3a5e37224532dea67b89face185703738a228a6e8a23dee546960180d3be64906020015b60405180910390a150565b60007f000000000000000000000000000000000000000000000000000000000000000042118061069a57505060075460ff161590565b606060006115626118d8565b90506000816001600160401b0381111561157e5761157e6152c6565b6040519080825280602002602001820160405280156115a7578160200160208202803683370190505b5090507f0000000000000000000000000000000000000000000000000000000000000000816000815181106115de576115de61586c565b6020026020010181815250507f00000000000000000000000000000000000000000000000000000000000000008160018151811061161e5761161e61586c565b602002602001018181525050600282111561061d577f0000000000000000000000000000000000000000000000000000000000000000816002815181106116675761166761586c565b602002602001018181525050600382111561061d577f0000000000000000000000000000000000000000000000000000000000000000816003815181106116b0576116b061586c565b60200260200101818152505061061d565b6116d86001600160a01b0384161515610198611913565b6116ef6001600160a01b0383161515610199611913565b6001600160a01b03831660009081526020819052604090205461171590826101a0612847565b6001600160a01b038085166000908152602081905260408082209390935590841681522054611745908290615835565b6001600160a01b038381166000818152602081815260409182902094909455518481529092918616917fddf252ad1be2c89b69c2b068fc378daa952ba7f163c4a11628f55a4df523b3ef9101611436565b60007f00000000000000000000000000000000000000000000000000000000000000007f00000000000000000000000000000000000000000000000000000000000000007f000000000000000000000000000000000000000000000000000000000000000046604080516020810195909552840192909252606083015260808201523060a082015260c00160405160208183030381529060405280519060200120905090565b61184f611847611520565b610192611913565b565b61186464e8d4a5100082101560cb611913565b61187a67016345785d8a000082111560ca611913565b6008546001600160c01b031660c082901b176008556040518181527fa9ba3ffe0b6c366b81232caab38605a0699ad5398d6cce76f91ee809e322dafc90602001611515565b6118d16002600a541415610190611913565b6002600a55565b7f000000000000000000000000000000000000000000000000000000000000000090565b60008183101561190c5781610760565b5090919050565b81610844576108448161286b565b6060600061192d6118d8565b90506000816001600160401b03811115611949576119496152c6565b604051908082528060200260200182016040528015611972578160200160208202803683370190505b50600b549091506119846000826128be565b826000815181106119975761199761586c565b6020026020010181815250506119ae6001826128be565b826001815181106119c1576119c161586c565b60200260200101818152505082600214156119dd575092915050565b6119e86002826128be565b826002815181106119fb576119fb61586c565b6020026020010181815250508260031415611a17575092915050565b611a226003826128be565b82600381518110611a3557611a3561586c565b60209081029190910101525092915050565b600b546000805b8351811015611b29576000848281518110611a6b57611a6b61586c565b60200260200101519050611a8b662386f26fc1000082101561012e611913565b611b07611a97826111a0565b611aa284601061584d565b611aad906080615835565b611af9611ad28a8781518110611ac557611ac561586c565b60200260200101516111c0565b611add87601f61584d565b611ae8906004615835565b637fffffff811b198a1691901b1790565b61ffff821b191691901b1790565b9350611b1383826111fe565b9250508080611b2190615882565b915050611a4e565b50611b40670de0b6b3a76400008214610134611913565b60e085901b6001600160e01b0360c088901b166001600160c01b0384161717600b556040517f0f3631f9dab08169d1db21c6dc5f32536fb2b0a6b9bb5330d71c52132f968be090611b98908890889088908890615a05565b60405180910390a1505050505050565b60007f0000000000000000000000000000000000000000000000000000000000000000905060007f000000000000000000000000000000000000000000000000000000000000000060405163160bf1c960e31b8152600481018490526001600160a01b038681166024830152919091169063b05f8e489060440160806040518083038186803b158015611c3a57600080fd5b505afa158015611c4e573d6000803e3d6000fd5b505050506040513d601f19601f82011682018060405250810190611c729190615a36565b604051630639cdb560e21b81529094506001600160a01b03851693506318e736d49250611ca6915085908790600401615a77565b600060405180830381600087803b158015611cc057600080fd5b505af1158015611cd4573d6000803e3d6000fd5b5050505050505050565b6000606080600080611cee612472565b91509150611cfa611520565b15611d32576000611d0b838c61250c565b9050611d1d8b8484600954858e61293c565b9350611d2c8b856129fe612a4b565b50611d7e565b611d3a6118d8565b6001600160401b03811115611d5157611d516152c6565b604051908082528060200260200182016040528015611d7a578160200160208202803683370190505b5092505b611d8a8a838989612ad0565b9095509350611d9a8a8584612b70565b6009555050985098509895505050505050565b60005b611db86118d8565b81101561082557611dfb838281518110611dd457611dd461586c565b6020026020010151838381518110611dee57611dee61586c565b6020026020010151611f4a565b838281518110611e0d57611e0d61586c565b6020908102919091010152611e2181615882565b9050611db0565b333014611ee6576000306001600160a01b0316600036604051611e4c929190615a90565b6000604051808303816000865af19150503d8060008114611e89576040519150601f19603f3d011682016040523d82523d6000602084013e611e8e565b606091505b505090508060008114611e9d57fe5b60046000803e6000516001600160e01b0319166343adbafb60e01b8114611ec8573d6000803e3d6000fd5b506020600460003e604060205260243d03602460403e601c3d016000f35b6000611ef0611556565b9050611efc8782612005565b600080611f138c8c8c8c8c8c898d8d63ffffffff16565b5091509150611f2681848663ffffffff16565b8051601f1982018390526343adbafb603f1983015260200260231982016044820181fd5b600081611f895760405162461bcd60e51b815260206004820152600d60248201526c2d22a927afa224ab24a9a4a7a760991b604482015260640161070d565b82611f965750600061061d565b6000611faa670de0b6b3a76400008561584d565b9050670de0b6b3a7640000611fbf85836159f1565b14611ffb5760405162461bcd60e51b815260206004820152600c60248201526b11125597d25395115493905360a21b604482015260640161070d565b61131c83826159f1565b60005b6120106118d8565b8110156108255761205383828151811061202c5761202c61586c565b60200260200101518383815181106120465761204661586c565b6020026020010151612b89565b8382815181106120655761206561586c565b602090810291909101015261207981615882565b9050612008565b6108448282612bfa565b600061061d61ffff6111ba84670de0b6b3a7640000611285565b60006060806120e97f00000000000000000000000000000000000000000000000000000000000000006001600160a01b03168b6001600160a01b031614610148611913565b6120f98b8b8b8b8b8b8b8b612ca7565b925092509250985098509895505050505050565b60005b6121186118d8565b8110156108255761215b8382815181106121345761213461586c565b602002602001015183838151811061214e5761214e61586c565b6020026020010151611324565b83828151811061216d5761216d61586c565b602090810291909101015261218181615882565b9050612110565b60007f00000000000000000000000000000000000000000000000000000000000000006001600160a01b0316826001600160a01b031614156121eb57507f0000000000000000000000000000000000000000000000000000000000000000919050565b7f00000000000000000000000000000000000000000000000000000000000000006001600160a01b0316826001600160a01b0316141561224c57507f0000000000000000000000000000000000000000000000000000000000000000919050565b7f00000000000000000000000000000000000000000000000000000000000000006001600160a01b0316826001600160a01b031614156122ad57507f0000000000000000000000000000000000000000000000000000000000000000919050565b7f00000000000000000000000000000000000000000000000000000000000000006001600160a01b0316826001600160a01b0316141561230e57507f0000000000000000000000000000000000000000000000000000000000000000919050565b61231961013561286b565b919050565b60008061233761233060085460c01c90565b8490611285565b9050610760818461581e565b60006107608383612b89565b600061236b612363600b5460019081161490565b610147611913565b612376848484612d2b565b949350505050565b60006107608383611f4a565b600061239e612363600b5460019081161490565b612376848484612d5e565b60006107608383611324565b600061061d6123c660085460c01c90565b6123d890670de0b6b3a764000061581e565b8390611324565b60007f00000000000000000000000000000000000000000000000000000000000000006001600160a01b031663aaabadc56040518163ffffffff1660e01b815260040160206040518083038186803b15801561243a57600080fd5b505afa15801561244e573d6000803e3d6000fd5b505050506040513d601f19601f8201168201806040525081019061069a9190615aa0565b6060600061247e611921565b9150600090506000826000815181106124995761249961586c565b602002602001015190506000600190505b835181101561250657818482815181106124c6576124c661586c565b602002602001015111156124f4578092508381815181106124e9576124e961586c565b602002602001015191505b806124fe81615882565b9150506124aa565b50509091565b670de0b6b3a764000060005b8351811015612584576125706125698583815181106125395761253961586c565b60200260200101518584815181106125535761255361586c565b6020026020010151612d9190919063ffffffff16565b8390612b89565b91508061257c81615882565b915050612518565b506000811161061d5760405162461bcd60e51b815260206004820152600e60248201526d16915493d7d2539590549250539560921b604482015260640161070d565b60006125d0611796565b60405161190160f01b6020820152602281019190915260428101839052606201610aa1565b600060606126397f00000000000000000000000000000000000000000000000000000000000000006001600160a01b0316876001600160a01b031614610148611913565b6126468787878787612de0565b915091509550959350505050565b6108448282612e80565b600b5461266d9082600061125e565b600b5560405181151581527f5a9e84f78f7957cb4ed7478eb0fcad35ee4ecbe2e0f298420b28a3955392573f90602001611515565b6002815110156126af5750565b6000816000815181106126c4576126c461586c565b602002602001015190506000600190505b82518110156108255760008382815181106126f2576126f261586c565b6020026020010151905061271b816001600160a01b0316846001600160a01b0316106065611913565b915061272681615882565b90506126d5565b600073ba1ba1ba1ba1ba1ba1ba1ba1ba1ba1ba1ba1ba1b7f00000000000000000000000000000000000000000000000000000000000000006001600160a01b031614158015612780575061278083612f03565b156127b75750336001600160a01b037f0000000000000000000000000000000000000000000000000000000000000000161461061d565b6127bf6123df565b6040516326f8aa2160e21b8152600481018590526001600160a01b0384811660248301523060448301529190911690639be2a8849060640160206040518083038186803b15801561280f57600080fd5b505afa158015612823573d6000803e3d6000fd5b505050506040513d601f19601f820116820180604052508101906111389190615abd565b60006128568484111583611913565b6000612862848661581e565b95945050505050565b62461bcd60e51b6000908152602060045260076024526642414c23000030600a808404818106603090810160081b95839006959095019082900491820690940160101b939093010160c81b604452606490fd5b6000806128ee6128e96128d286601f61584d565b6128dd906004615835565b85901c637fffffff1690565b612f3f565b90506000612918610a1d61290387601061584d565b61290e906080615835565b86901c61ffff1690565b9050600061292585612f5b565b9050612932838383612fe1565b9695505050505050565b606060006129486118d8565b6001600160401b0381111561295f5761295f6152c6565b604051908082528060200260200182016040528015612988578160200160208202803683370190505b50905082612997579050612932565b6129d68887815181106129ac576129ac61586c565b60200260200101518888815181106129c6576129c661586c565b602002602001015187878761305e565b8187815181106129e8576129e861586c565b6020908102919091010152979650505050505050565b600082821115612a3f5760405162461bcd60e51b815260206004820152600c60248201526b5355425f4f564552464c4f5760a01b604482015260640161070d565b6000612376838561581e565b60005b612a566118d8565b811015612aca57612a9d848281518110612a7257612a7261586c565b6020026020010151848381518110612a8c57612a8c61586c565b60200260200101518463ffffffff16565b848281518110612aaf57612aaf61586c565b6020908102919091010152612ac381615882565b9050612a4e565b50505050565b600060606000612adf846130e4565b90506000816003811115612af557612af561589d565b1415612b1057612b068787866130fa565b9250925050612b67565b6001816003811115612b2457612b2461589d565b1415612b3457612b0687856131f8565b6002816003811115612b4857612b4861589d565b1415612b5a57612b068787878761322b565b612b6561015061286b565b505b94509492505050565b6000612b7f84846129fe612a4b565b612376828561250c565b600080612b96838561584d565b9050831580612bad575082612bab85836159f1565b145b612be85760405162461bcd60e51b815260206004820152600c60248201526b4d554c5f4f564552464c4f5760a01b604482015260640161070d565b612376670de0b6b3a7640000826159f1565b612c116001600160a01b038316151561019b611913565b6001600160a01b038216600090815260208190526040902054612c3790826101a1612847565b6001600160a01b038316600090815260208190526040902055600254612c5e90829061581e565b6002556040518181526000906001600160a01b038416907fddf252ad1be2c89b69c2b068fc378daa952ba7f163c4a11628f55a4df523b3ef906020015b60405180910390a35050565b6000606080612cb461183c565b600080612cbf612472565b915091506000612ccf838c61250c565b90506000612ce38c8585600954868f61293c565b9050612cf28c826129fe612a4b565b600080612d018e878d8d6132a5565b91509150612d108e8288613330565b60095590975095509350505050985098509895505050505050565b6000612d3561183c565b61237683612d46866020015161333f565b84612d54886040015161333f565b8860600151613461565b6000612d6861183c565b61237683612d79866020015161333f565b84612d87886040015161333f565b88606001516134fe565b600080612d9e84846135a5565b90506000612db8612db183612710611285565b60016111fe565b905080821015612dcd5760009250505061061d565b612dd782826129fe565b9250505061061d565b60006060612dec61183c565b6000612df7846130e4565b9050612e186000826003811115612e1057612e1061589d565b1460ce611913565b6000612e238561370a565b9050612e306107e46118d8565b612e3a8187612005565b6000612e44612472565b5090506000612e53828461250c565b90506000612e5f6118d8565b612e69908361584d565b600992909255509a91995090975050505050505050565b80600254612e8e9190615835565b6002556001600160a01b038216600090815260208190526040902054612eb5908290615835565b6001600160a01b038316600081815260208181526040808320949094559251848152919290917fddf252ad1be2c89b69c2b068fc378daa952ba7f163c4a11628f55a4df523b3ef9101612c9b565b6000612f15633806be4b60e21b610a59565b821480612f305750612f2d633e56920560e01b610a59565b82145b8061061d575061061d82613720565b600061061d637fffffff6111ba84670de0b6b3a7640000611285565b60004263ffffffff60c084901c1660e084901c80831115612f885750670de0b6b3a7640000949350505050565b81831015612f9b57506000949350505050565b6000612fa7838361581e565b90506000612fb5848661581e565b90508115612fcc57612fc78183611f4a565b612fd6565b670de0b6b3a76400005b979650505050505050565b6000811580612fef57508284145b15612ffb575082610760565b670de0b6b3a76400008210613011575081610760565b8284111561304357600061302f613028858761581e565b8490612b89565b905061303b85826129fe565b915050610760565b6000613052613028868661581e565b905061303b85826111fe565b600083831161306f57506000612862565b600061307b8585611324565b90506000613091670de0b6b3a764000088611f4a565b90506130a5826709b6e64a8ec600006118fc565b915060006130b38383613752565b905060006130ca6130c38361377e565b8b90612b89565b90506130d68187612b89565b9a9950505050505050505050565b60008180602001905181019061061d9190615ae7565b6000606061310661183c565b600080613112856137a8565b9150915061312a6131216118d8565b82106064611913565b6000806131798984815181106131425761314261586c565b602002602001015189858151811061315c5761315c61586c565b60200260200101518661316e60025490565b60085460c01c6137ca565b9150915060006131876118d8565b6001600160401b0381111561319e5761319e6152c6565b6040519080825280602002602001820160405280156131c7578160200160208202803683370190505b509050828185815181106131dd576131dd61586c565b60209081029190910101529399939850929650505050505050565b600060606000613207846138c1565b9050600061321e868361321960025490565b6138d7565b9196919550909350505050565b6000606061323761183c565b6000806132438561399f565b9150915061325482516108596118d8565b61325e8287612005565b60008061327b8a8a8661327060025490565b60085460c01c6139b7565b9150915061328d8383111560cf611913565b61329681613b28565b50989197509095505050505050565b6000606060006132b4846130e4565b905060018160038111156132ca576132ca61589d565b14156132dc57612b0687878787613b6d565b60028160038111156132f0576132f061589d565b141561330157612b06878786613bd5565b60038160038111156133155761331561589d565b141561332557612b068785613c43565b612b6561013661286b565b6000612b7f84846111fe612a4b565b6000807f00000000000000000000000000000000000000000000000000000000000000006001600160a01b0316836001600160a01b0316141561338457506000613455565b7f00000000000000000000000000000000000000000000000000000000000000006001600160a01b0316836001600160a01b031614156133c657506001613455565b7f00000000000000000000000000000000000000000000000000000000000000006001600160a01b0316836001600160a01b0316141561340857506002613455565b7f00000000000000000000000000000000000000000000000000000000000000006001600160a01b0316836001600160a01b0316141561344a57506003613455565b61345561013561286b565b61076081600b546128be565b600061347586670429d069189e0000612b89565b8211156134b35760405162461bcd60e51b815260206004820152600c60248201526b4d41585f494e5f524154494f60a01b604482015260640161070d565b60006134bf8388615835565b905060006134cd8883611324565b905060006134db8887611f4a565b905060006134e98383613752565b90506130d66134f78261377e565b8990612b89565b600061351284670429d069189e0000612b89565b8211156135515760405162461bcd60e51b815260206004820152600d60248201526c4d41585f4f55545f524154494f60981b604482015260640161070d565b6000613567613560848761581e565b8690611324565b905060006135758588611324565b905060006135838383613752565b90506000613599670de0b6b3a76400008361581e565b90506130d68a82611285565b6000816135bb5750670de0b6b3a764000061061d565b826135c85750600061061d565b6135d9600160ff1b84106006611913565b826135fd6135f468056bc75e2d63100000600160fe1b6159f1565b84106007611913565b8260008261361b67016345785d8a0000670de0b6b3a7640000615b04565b128015613640575061363d670de0b6b3a764000067016345785d8a0000615b43565b83125b156136a957600061365084613c69565b9050670de0b6b3a7640000836136668284615b84565b6136709190615b98565b61367a9190615c1d565b8361368d670de0b6b3a764000084615c1d565b6136979190615b98565b6136a19190615b43565b9150506136c0565b816136b384613ea0565b6136bd9190615b98565b90505b6136d2670de0b6b3a764000082615c1d565b905061370181680238fd42c5cf03ffff19131580156136fa575068070c1cc73b00c800008213155b6008611913565b6129328161447b565b6060818060200190518101906107609190615c4b565b6000613732631c74c91760e11b610a59565b82148061061d575061374a6350dd6ed960e01b610a59565b821492915050565b60008061375f84846135a5565b90506000613772612db183612710611285565b905061286282826111fe565b6000670de0b6b3a7640000821061379657600061061d565b61061d82670de0b6b3a764000061581e565b600080828060200190518101906137bf9190615c91565b909590945092505050565b600080806137dc856111ba888261581e565b90506709b6e64a8ec600008110156138365760405162461bcd60e51b815260206004820152601860248201527f4d494e5f4250545f494e5f464f525f544f4b454e5f4f55540000000000000000604482015260640161070d565b600061385461384d670de0b6b3a76400008a611f4a565b8390613752565b905060006138646130c38361377e565b905060006138718a61377e565b9050600061387f8383611285565b9050600061388d828561581e565b9050613899828a611285565b96506138a5878361581e565b6138af9082615835565b97505050505050509550959350505050565b6000818060200190518101906107609190615cc8565b606060006138e58484611f4a565b9050600085516001600160401b03811115613902576139026152c6565b60405190808252806020026020018201604052801561392b578160200160208202803683370190505b50905060005b865181101561399557613966838883815181106139505761395061586c565b6020026020010151612b8990919063ffffffff16565b8282815181106139785761397861586c565b60209081029190910101528061398d81615882565b915050613931565b5095945050505050565b60606000828060200190518101906137bf9190615cf6565b60006060600085516001600160401b038111156139d6576139d66152c6565b6040519080825280602002602001820160405280156139ff578160200160208202803683370190505b5090506000805b8951811015613aeb57613a6a8a8281518110613a2457613a2461586c565b6020026020010151898381518110613a3e57613a3e61586c565b60200260200101518c8481518110613a5857613a5861586c565b60200260200101516111ba919061581e565b838281518110613a7c57613a7c61586c565b602002602001018181525050613acd898281518110613a9d57613a9d61586c565b6020026020010151848381518110613ab757613ab761586c565b602002602001015161128590919063ffffffff16565b613ad79083615835565b915080613ae381615882565b915050613a06565b50600080613afd8b8b8b87878c614ab2565b915091506000613b16613b0f8461377e565b8a90611285565b9c919b50909950505050505050505050565b613b3581516108596118d8565b60005b613b406118d8565b81101561084457613b5d818383815181106108255761082561586c565b613b6681615882565b9050613b38565b60006060600080613b7d8561399f565b91509150613b93613b8c6118d8565b835161117e565b613b9d8287612005565b600080613bba8a8a86613baf60025490565b60085460c01c614c90565b91509150613bc781613b28565b6132968383101560d0611913565b60006060600080613be5856137a8565b91509150613bf46131216118d8565b600080613179898481518110613c0c57613c0c61586c565b6020026020010151898581518110613c2657613c2661586c565b602002602001015186613c3860025490565b60085460c01c614df8565b600060606000613c52846138c1565b9050600061321e8683613c6460025490565b614f0f565b6000613c7d670de0b6b3a764000083615b98565b91506000613c996a0c097ce7bc90715b34b9f160241b84615b43565b6a0c097ce7bc90715b34b9f160241b613cb28186615b04565b613cbc9190615b98565b613cc69190615c1d565b905060006a0c097ce7bc90715b34b9f160241b613ce38380615b98565b613ced9190615c1d565b905081806a0c097ce7bc90715b34b9f160241b613d0a8483615b98565b613d149190615c1d565b9150613d21600383615c1d565b613d2b9082615b43565b90506a0c097ce7bc90715b34b9f160241b613d468484615b98565b613d509190615c1d565b9150613d5d600583615c1d565b613d679082615b43565b90506a0c097ce7bc90715b34b9f160241b613d828484615b98565b613d8c9190615c1d565b9150613d99600783615c1d565b613da39082615b43565b90506a0c097ce7bc90715b34b9f160241b613dbe8484615b98565b613dc89190615c1d565b9150613dd5600983615c1d565b613ddf9082615b43565b90506a0c097ce7bc90715b34b9f160241b613dfa8484615b98565b613e049190615c1d565b9150613e11600b83615c1d565b613e1b9082615b43565b90506a0c097ce7bc90715b34b9f160241b613e368484615b98565b613e409190615c1d565b9150613e4d600d83615c1d565b613e579082615b43565b90506a0c097ce7bc90715b34b9f160241b613e728484615b98565b613e7c9190615c1d565b9150613e89600f83615c1d565b613e939082615b43565b9050612932816002615b98565b6000670de0b6b3a7640000821215613ee057613ed782613ec8670de0b6b3a764000080615b98565b613ed29190615c1d565b613ea0565b61061d90615d3e565b6000613f0c670de0b6b3a7640000770195e54c5dd42177f53a27172fa9ec630262827000000000615b98565b8312613f4c57613f34770195e54c5dd42177f53a27172fa9ec63026282700000000084615c1d565b9250613f496806f05b59d3b200000082615b43565b90505b613f6a670de0b6b3a76400006b1425982cf597cd205cef7380615b98565b8312613f9e57613f866b1425982cf597cd205cef738084615c1d565b9250613f9b6803782dace9d900000082615b43565b90505b613fa9606482615b98565b9050613fb6606484615b98565b92506e01855144814a7ff805980ff00840008312614013576e01855144814a7ff805980ff0084000613ff168056bc75e2d6310000085615b98565b613ffb9190615c1d565b925061401068ad78ebc5ac6200000082615b43565b90505b6b02df0ab5a80a22c61ab5a7008312614068576b02df0ab5a80a22c61ab5a70061404668056bc75e2d6310000085615b98565b6140509190615c1d565b92506140656856bc75e2d63100000082615b43565b90505b693f1fce3da636ea5cf85083126140b957693f1fce3da636ea5cf85061409768056bc75e2d6310000085615b98565b6140a19190615c1d565b92506140b6682b5e3af16b1880000082615b43565b90505b690127fa27722cc06cc5e2831261410a57690127fa27722cc06cc5e26140e868056bc75e2d6310000085615b98565b6140f29190615c1d565b92506141076815af1d78b58c40000082615b43565b90505b68280e60114edb805d0383126141595768280e60114edb805d0361413768056bc75e2d6310000085615b98565b6141419190615c1d565b9250614156680ad78ebc5ac620000082615b43565b90505b680ebc5fb4174612111083126141a857680ebc5fb4174612111061418668056bc75e2d6310000085615b98565b6141909190615c1d565b92506141a568056bc75e2d6310000082615b43565b90505b6808f00f760a4b2db55d83126141f7576808f00f760a4b2db55d6141d568056bc75e2d6310000085615b98565b6141df9190615c1d565b92506141f46802b5e3af16b188000082615b43565b90505b6806f5f17757889379378312614246576806f5f177578893793761422468056bc75e2d6310000085615b98565b61422e9190615c1d565b925061424368015af1d78b58c4000082615b43565b90505b6806248f33704b2866038312614294576806248f33704b28660361427368056bc75e2d6310000085615b98565b61427d9190615c1d565b925061429167ad78ebc5ac62000082615b43565b90505b6805c548670b9510e7ac83126142e2576805c548670b9510e7ac6142c168056bc75e2d6310000085615b98565b6142cb9190615c1d565b92506142df6756bc75e2d631000082615b43565b90505b60006142f768056bc75e2d6310000085615b43565b68056bc75e2d6310000061430b8187615b04565b6143159190615b98565b61431f9190615c1d565b9050600068056bc75e2d631000006143378380615b98565b6143419190615c1d565b9050818068056bc75e2d631000006143598483615b98565b6143639190615c1d565b9150614370600383615c1d565b61437a9082615b43565b905068056bc75e2d631000006143908484615b98565b61439a9190615c1d565b91506143a7600583615c1d565b6143b19082615b43565b905068056bc75e2d631000006143c78484615b98565b6143d19190615c1d565b91506143de600783615c1d565b6143e89082615b43565b905068056bc75e2d631000006143fe8484615b98565b6144089190615c1d565b9150614415600983615c1d565b61441f9082615b43565b905068056bc75e2d631000006144358484615b98565b61443f9190615c1d565b915061444c600b83615c1d565b6144569082615b43565b9050614463600282615b98565b905060646144718287615b43565b612fd69190615c1d565b60006144aa680238fd42c5cf03ffff1983121580156144a3575068070c1cc73b00c800008313155b6009611913565b60008212156144e0576144c46144bf83615d3e565b61447b565b6144d6670de0b6b3a764000080615b98565b61061d9190615c1d565b60006806f05b59d3b20000008312614527576145056806f05b59d3b200000084615b04565b9250770195e54c5dd42177f53a27172fa9ec6302628270000000009050614564565b6803782dace9d900000083126145605761454a6803782dace9d900000084615b04565b92506b1425982cf597cd205cef73809050614564565b5060015b61456f606484615b98565b925068056bc75e2d6310000068ad78ebc5ac6200000084126145d05761459e68ad78ebc5ac6200000085615b04565b935068056bc75e2d631000006145c36e01855144814a7ff805980ff008400083615b98565b6145cd9190615c1d565b90505b6856bc75e2d6310000008412614622576145f36856bc75e2d63100000085615b04565b935068056bc75e2d631000006146156b02df0ab5a80a22c61ab5a70083615b98565b61461f9190615c1d565b90505b682b5e3af16b18800000841261467257614645682b5e3af16b1880000085615b04565b935068056bc75e2d63100000614665693f1fce3da636ea5cf85083615b98565b61466f9190615c1d565b90505b6815af1d78b58c40000084126146c2576146956815af1d78b58c40000085615b04565b935068056bc75e2d631000006146b5690127fa27722cc06cc5e283615b98565b6146bf9190615c1d565b90505b680ad78ebc5ac62000008412614711576146e5680ad78ebc5ac620000085615b04565b935068056bc75e2d6310000061470468280e60114edb805d0383615b98565b61470e9190615c1d565b90505b68056bc75e2d6310000084126147605761473468056bc75e2d6310000085615b04565b935068056bc75e2d63100000614753680ebc5fb4174612111083615b98565b61475d9190615c1d565b90505b6802b5e3af16b188000084126147af576147836802b5e3af16b188000085615b04565b935068056bc75e2d631000006147a26808f00f760a4b2db55d83615b98565b6147ac9190615c1d565b90505b68015af1d78b58c4000084126147fe576147d268015af1d78b58c4000085615b04565b935068056bc75e2d631000006147f16806f5f177578893793783615b98565b6147fb9190615c1d565b90505b68056bc75e2d63100000846148138183615b43565b9150600268056bc75e2d6310000061482b8884615b98565b6148359190615c1d565b61483f9190615c1d565b905061484b8183615b43565b9150600368056bc75e2d631000006148638884615b98565b61486d9190615c1d565b6148779190615c1d565b90506148838183615b43565b9150600468056bc75e2d6310000061489b8884615b98565b6148a59190615c1d565b6148af9190615c1d565b90506148bb8183615b43565b9150600568056bc75e2d631000006148d38884615b98565b6148dd9190615c1d565b6148e79190615c1d565b90506148f38183615b43565b9150600668056bc75e2d6310000061490b8884615b98565b6149159190615c1d565b61491f9190615c1d565b905061492b8183615b43565b9150600768056bc75e2d631000006149438884615b98565b61494d9190615c1d565b6149579190615c1d565b90506149638183615b43565b9150600868056bc75e2d6310000061497b8884615b98565b6149859190615c1d565b61498f9190615c1d565b905061499b8183615b43565b9150600968056bc75e2d631000006149b38884615b98565b6149bd9190615c1d565b6149c79190615c1d565b90506149d38183615b43565b9150600a68056bc75e2d631000006149eb8884615b98565b6149f59190615c1d565b6149ff9190615c1d565b9050614a0b8183615b43565b9150600b68056bc75e2d63100000614a238884615b98565b614a2d9190615c1d565b614a379190615c1d565b9050614a438183615b43565b9150600c68056bc75e2d63100000614a5b8884615b98565b614a659190615c1d565b614a6f9190615c1d565b9050614a7b8183615b43565b915060648468056bc75e2d63100000614a948587615b98565b614a9e9190615c1d565b614aa89190615b98565b6129329190615c1d565b6000606085516001600160401b03811115614acf57614acf6152c6565b604051908082528060200260200182016040528015614af8578160200160208202803683370190505b509050670de0b6b3a7640000915060005b8851811015614c84576000868281518110614b2657614b2661586c565b6020026020010151861115614bd4576000614b55614b438861377e565b8c85815181106139505761395061586c565b90506000818a8581518110614b6c57614b6c61586c565b6020026020010151614b7e919061581e565b90506000614b976123d889670de0b6b3a764000061581e565b9050614ba3828261581e565b868681518110614bb557614bb561586c565b6020908102919091010152614bca8184615835565b9350505050614bf1565b878281518110614be657614be661586c565b602002602001015190505b6000614c358b8481518110614c0857614c0861586c565b6020026020010151838d8681518110614c2357614c2361586c565b60200260200101516108a7919061581e565b9050614c6d614c668b8581518110614c4f57614c4f61586c565b602002602001015183612d9190919063ffffffff16565b8690612b89565b945050508080614c7c90615882565b915050614b09565b50965096945050505050565b60006060600085516001600160401b03811115614caf57614caf6152c6565b604051908082528060200260200182016040528015614cd8578160200160208202803683370190505b5090506000805b8951811015614dae57614d438a8281518110614cfd57614cfd61586c565b6020026020010151898381518110614d1757614d1761586c565b60200260200101518c8481518110614d3157614d3161586c565b60200260200101516108a79190615835565b838281518110614d5557614d5561586c565b602002602001018181525050614d90898281518110614d7657614d7661586c565b60200260200101518483815181106139505761395061586c565b614d9a9083615835565b915080614da681615882565b915050614cdf565b50600080614dc08b8b8b87878c614fb7565b915091506000670de0b6b3a76400008311614ddc576000613b16565b613b16614df1670de0b6b3a76400008561581e565b8a90612b89565b60008080614e0a856111ba8882615835565b90506729a2241af62c0000811115614e645760405162461bcd60e51b815260206004820152601860248201527f4d41585f4f55545f4250545f464f525f544f4b454e5f494e0000000000000000604482015260640161070d565b6000614e7b61384d670de0b6b3a76400008a611324565b90506000614e9b614e94670de0b6b3a76400008461581e565b8b90611285565b90506000614ea88a61377e565b90506000614eb68383611285565b90506000614ec4828561581e565b90506000614ee4614edd8b670de0b6b3a764000061581e565b8490611324565b9050614ef0838261581e565b9750614efc8183615835565b9850505050505050509550959350505050565b60606000614f1d8484611324565b9050600085516001600160401b03811115614f3a57614f3a6152c6565b604051908082528060200260200182016040528015614f63578160200160208202803683370190505b50905060005b865181101561399557614f8883888381518110613ab757613ab761586c565b828281518110614f9a57614f9a61586c565b602090810291909101015280614faf81615882565b915050614f69565b6000606085516001600160401b03811115614fd457614fd46152c6565b604051908082528060200260200182016040528015614ffd578160200160208202803683370190505b509050670de0b6b3a7640000915060005b8851811015614c845760008587838151811061502c5761502c61586c565b602002602001015111156150c7576000615051614b43670de0b6b3a76400008961581e565b90506000818a85815181106150685761506861586c565b602002602001015161507a919061581e565b905060006150888289611285565b9050615094818361581e565b61509e9084615835565b9350808686815181106150b3576150b361586c565b6020026020010181815250505050506150e4565b8782815181106150d9576150d961586c565b602002602001015190505b60006151168b84815181106150fb576150fb61586c565b6020026020010151838d8681518110614d3157614d3161586c565b9050615130614c668b8581518110614c4f57614c4f61586c565b94505050808061513f90615882565b91505061500e565b6000815180845260005b8181101561516d57602081850181015186830182015201615151565b8181111561517f576000602083870101525b50601f01601f19169290920160200192915050565b6020815260006107606020830184615147565b6001600160a01b038116811461063457600080fd5b8035612319816151a7565b600080604083850312156151da57600080fd5b82356151e5816151a7565b946020939093013593505050565b801515811461063457600080fd5b60006020828403121561521357600080fd5b8135610760816151f3565b600081518084526020808501945080840160005b8381101561524e57815187529582019590820190600101615232565b509495945050505050565b602081526000610760602083018461521e565b60008060006060848603121561528157600080fd5b833561528c816151a7565b9250602084013561529c816151a7565b929592945050506040919091013590565b6000602082840312156152bf57600080fd5b5035919050565b634e487b7160e01b600052604160045260246000fd5b60405161012081016001600160401b03811182821017156152ff576152ff6152c6565b60405290565b604051601f8201601f191681016001600160401b038111828210171561532d5761532d6152c6565b604052919050565b60006001600160401b0382111561534e5761534e6152c6565b5060051b60200190565b600082601f83011261536957600080fd5b8135602061537e61537983615335565b615305565b82815260059290921b8401810191818101908684111561539d57600080fd5b8286015b848110156153b857803583529183019183016153a1565b509695505050505050565b6000806000606084860312156153d857600080fd5b833592506020840135915060408401356001600160401b038111156153fc57600080fd5b61540886828701615358565b9150509250925092565b600082601f83011261542357600080fd5b81356001600160401b0381111561543c5761543c6152c6565b61544f601f8201601f1916602001615305565b81815284602083860101111561546457600080fd5b816020850160208301376000918101602001919091529392505050565b6000806040838503121561549457600080fd5b823561549f816151a7565b915060208301356001600160401b038111156154ba57600080fd5b6154c685828601615412565b9150509250929050565b600080600080600080600060e0888a0312156154eb57600080fd5b8735965060208801356154fd816151a7565b9550604088013561550d816151a7565b945060608801356001600160401b038082111561552957600080fd5b6155358b838c01615358565b955060808a0135945060a08a0135935060c08a013591508082111561555957600080fd5b506155668a828b01615412565b91505092959891949750929550565b828152604060208201526000612376604083018461521e565b6000602082840312156155a057600080fd5b8135610760816151a7565b6040815260006155be604083018561521e565b8281036020840152612862818561521e565b838152826020820152606060408201526000612862606083018461521e565b60006020828403121561560157600080fd5b81356001600160e01b03198116811461076057600080fd5b80356002811061231957600080fd5b60008060006060848603121561563d57600080fd5b83356001600160401b038082111561565457600080fd5b90850190610120828803121561566957600080fd5b6156716152dc565b61567a83615619565b8152615688602084016151bc565b6020820152615699604084016151bc565b6040820152606083013560608201526080830135608082015260a083013560a08201526156c860c084016151bc565b60c08201526156d960e084016151bc565b60e082015261010080840135838111156156f257600080fd5b6156fe8a828701615412565b9183019190915250976020870135975060409096013595945050505050565b600080600080600080600060e0888a03121561573857600080fd5b8735615743816151a7565b96506020880135615753816151a7565b95506040880135945060608801359350608088013560ff8116811461577757600080fd5b9699959850939692959460a0840135945060c09093013592915050565b600080604083850312156157a757600080fd5b82356157b2816151a7565b915060208301356157c2816151a7565b809150509250929050565b600181811c908216806157e157607f821691505b6020821081141561580257634e487b7160e01b600052602260045260246000fd5b50919050565b634e487b7160e01b600052601160045260246000fd5b60008282101561583057615830615808565b500390565b6000821982111561584857615848615808565b500190565b600081600019048311821515161561586757615867615808565b500290565b634e487b7160e01b600052603260045260246000fd5b600060001982141561589657615896615808565b5060010190565b634e487b7160e01b600052602160045260246000fd5b600082601f8301126158c457600080fd5b815160206158d461537983615335565b82815260059290921b840181019181810190868411156158f357600080fd5b8286015b848110156153b857805183529183019183016158f7565b60008060006060848603121561592357600080fd5b83516001600160401b038082111561593a57600080fd5b818601915086601f83011261594e57600080fd5b8151602061595e61537983615335565b82815260059290921b8401810191818101908a84111561597d57600080fd5b948201945b838610156159a4578551615995816151a7565b82529482019490820190615982565b918901519197509093505050808211156159bd57600080fd5b506159ca868287016158b3565b925050604084015190509250925092565b634e487b7160e01b600052601260045260246000fd5b600082615a0057615a006159db565b500490565b848152836020820152608060408201526000615a24608083018561521e565b8281036060840152612fd6818561521e565b60008060008060808587031215615a4c57600080fd5b8451935060208501519250604085015191506060850151615a6c816151a7565b939692955090935050565b8281526040602082015260006123766040830184615147565b8183823760009101908152919050565b600060208284031215615ab257600080fd5b8151610760816151a7565b600060208284031215615acf57600080fd5b8151610760816151f3565b6004811061063457600080fd5b600060208284031215615af957600080fd5b815161076081615ada565b60008083128015600160ff1b850184121615615b2257615b22615808565b6001600160ff1b0384018313811615615b3d57615b3d615808565b50500390565b600080821280156001600160ff1b0384900385131615615b6557615b65615808565b600160ff1b8390038412811615615b7e57615b7e615808565b50500190565b600082615b9357615b936159db565b500790565b60006001600160ff1b0381841382841380821686840486111615615bbe57615bbe615808565b600160ff1b6000871282811687830589121615615bdd57615bdd615808565b60008712925087820587128484161615615bf957615bf9615808565b87850587128184161615615c0f57615c0f615808565b505050929093029392505050565b600082615c2c57615c2c6159db565b600160ff1b821460001984141615615c4657615c46615808565b500590565b60008060408385031215615c5e57600080fd5b8251615c6981615ada565b60208401519092506001600160401b03811115615c8557600080fd5b6154c6858286016158b3565b600080600060608486031215615ca657600080fd5b8351615cb181615ada565b602085015160409095015190969495509392505050565b60008060408385031215615cdb57600080fd5b8251615ce681615ada565b6020939093015192949293505050565b600080600060608486031215615d0b57600080fd5b8351615d1681615ada565b60208501519093506001600160401b03811115615d3257600080fd5b6159ca868287016158b3565b6000600160ff1b821415615d5457615d54615808565b506000039056fea264697066735822122096846ee6dec29b8cb7c2896a8a98168c18310c0bff73de4900ded4e71b9b0cd864736f6c63430008090033",
  "linkReferences": {},
  "deployedLinkReferences": {}
}