{
  "_format": "hh-sol-artifact-1",
  "contractName": "LiquidityBootstrappingPool",
  "sourceName": "contracts/libraries/smart/LiquidityBootstrappingPool.sol",
  "abi": [
    {
      "inputs": [
        {
          "internalType": "contract IVault",
          "name": "vault",
          "type": "address"
        },
        {
          "internalType": "string",
          "name": "name",
          "type": "string"
        },
        {
          "internalType": "string",
          "name": "symbol",
          "type": "string"
        },
        {
          "internalType": "contract IERC20[]",
          "name": "tokens",
          "type": "address[]"
        },
        {
          "internalType": "uint256[]",
          "name": "normalizedWeights",
          "type": "uint256[]"
        },
        {
          "internalType": "uint256",
          "name": "swapFeePercentage",
          "type": "uint256"
        },
        {
          "internalType": "uint256",
          "name": "pauseWindowDuration",
          "type": "uint256"
        },
        {
          "internalType": "uint256",
          "name": "bufferPeriodDuration",
          "type": "uint256"
        },
        {
          "internalType": "address",
          "name": "owner",
          "type": "address"
        },
        {
          "internalType": "bool",
          "name": "swapEnabledOnStart",
          "type": "bool"
        }
      ],
      "stateMutability": "nonpayable",
      "type": "constructor"
    },
    {
      "anonymous": false,
      "inputs": [
        {
          "indexed": true,
          "internalType": "address",
          "name": "owner",
          "type": "address"
        },
        {
          "indexed": true,
          "internalType": "address",
          "name": "spender",
          "type": "address"
        },
        {
          "indexed": false,
          "internalType": "uint256",
          "name": "value",
          "type": "uint256"
        }
      ],
      "name": "Approval",
      "type": "event"
    },
    {
      "anonymous": false,
      "inputs": [
        {
          "indexed": false,
          "internalType": "uint256",
          "name": "startTime",
          "type": "uint256"
        },
        {
          "indexed": false,
          "internalType": "uint256",
          "name": "endTime",
          "type": "uint256"
        },
        {
          "indexed": false,
          "internalType": "uint256[]",
          "name": "startWeights",
          "type": "uint256[]"
        },
        {
          "indexed": false,
          "internalType": "uint256[]",
          "name": "endWeights",
          "type": "uint256[]"
        }
      ],
      "name": "GradualWeightUpdateScheduled",
      "type": "event"
    },
    {
      "anonymous": false,
      "inputs": [
        {
          "indexed": false,
          "internalType": "bool",
          "name": "paused",
          "type": "bool"
        }
      ],
      "name": "PausedStateChanged",
      "type": "event"
    },
    {
      "anonymous": false,
      "inputs": [
        {
          "indexed": false,
          "internalType": "bool",
          "name": "swapEnabled",
          "type": "bool"
        }
      ],
      "name": "SwapEnabledSet",
      "type": "event"
    },
    {
      "anonymous": false,
      "inputs": [
        {
          "indexed": false,
          "internalType": "uint256",
          "name": "swapFeePercentage",
          "type": "uint256"
        }
      ],
      "name": "SwapFeePercentageChanged",
      "type": "event"
    },
    {
      "anonymous": false,
      "inputs": [
        {
          "indexed": true,
          "internalType": "address",
          "name": "from",
          "type": "address"
        },
        {
          "indexed": true,
          "internalType": "address",
          "name": "to",
          "type": "address"
        },
        {
          "indexed": false,
          "internalType": "uint256",
          "name": "value",
          "type": "uint256"
        }
      ],
      "name": "Transfer",
      "type": "event"
    },
    {
      "inputs": [],
      "name": "DOMAIN_SEPARATOR",
      "outputs": [
        {
          "internalType": "bytes32",
          "name": "",
          "type": "bytes32"
        }
      ],
      "stateMutability": "view",
      "type": "function"
    },
    {
      "inputs": [
        {
          "internalType": "address",
          "name": "owner",
          "type": "address"
        },
        {
          "internalType": "address",
          "name": "spender",
          "type": "address"
        }
      ],
      "name": "allowance",
      "outputs": [
        {
          "internalType": "uint256",
          "name": "",
          "type": "uint256"
        }
      ],
      "stateMutability": "view",
      "type": "function"
    },
    {
      "inputs": [
        {
          "internalType": "address",
          "name": "spender",
          "type": "address"
        },
        {
          "internalType": "uint256",
          "name": "amount",
          "type": "uint256"
        }
      ],
      "name": "approve",
      "outputs": [
        {
          "internalType": "bool",
          "name": "",
          "type": "bool"
        }
      ],
      "stateMutability": "nonpayable",
      "type": "function"
    },
    {
      "inputs": [
        {
          "internalType": "address",
          "name": "account",
          "type": "address"
        }
      ],
      "name": "balanceOf",
      "outputs": [
        {
          "internalType": "uint256",
          "name": "",
          "type": "uint256"
        }
      ],
      "stateMutability": "view",
      "type": "function"
    },
    {
      "inputs": [],
      "name": "decimals",
      "outputs": [
        {
          "internalType": "uint8",
          "name": "",
          "type": "uint8"
        }
      ],
      "stateMutability": "view",
      "type": "function"
    },
    {
      "inputs": [
        {
          "internalType": "address",
          "name": "spender",
          "type": "address"
        },
        {
          "internalType": "uint256",
          "name": "amount",
          "type": "uint256"
        }
      ],
      "name": "decreaseAllowance",
      "outputs": [
        {
          "internalType": "bool",
          "name": "",
          "type": "bool"
        }
      ],
      "stateMutability": "nonpayable",
      "type": "function"
    },
    {
      "inputs": [
        {
          "internalType": "bytes4",
          "name": "selector",
          "type": "bytes4"
        }
      ],
      "name": "getActionId",
      "outputs": [
        {
          "internalType": "bytes32",
          "name": "",
          "type": "bytes32"
        }
      ],
      "stateMutability": "view",
      "type": "function"
    },
    {
      "inputs": [],
      "name": "getAuthorizer",
      "outputs": [
        {
          "internalType": "contract IAuthorizer",
          "name": "",
          "type": "address"
        }
      ],
      "stateMutability": "view",
      "type": "function"
    },
    {
      "inputs": [],
      "name": "getGradualWeightUpdateParams",
      "outputs": [
        {
          "internalType": "uint256",
          "name": "startTime",
          "type": "uint256"
        },
        {
          "internalType": "uint256",
          "name": "endTime",
          "type": "uint256"
        },
        {
          "internalType": "uint256[]",
          "name": "endWeights",
          "type": "uint256[]"
        }
      ],
      "stateMutability": "view",
      "type": "function"
    },
    {
      "inputs": [],
      "name": "getInvariant",
      "outputs": [
        {
          "internalType": "uint256",
          "name": "",
          "type": "uint256"
        }
      ],
      "stateMutability": "view",
      "type": "function"
    },
    {
      "inputs": [],
      "name": "getLastInvariant",
      "outputs": [
        {
          "internalType": "uint256",
          "name": "",
          "type": "uint256"
        }
      ],
      "stateMutability": "view",
      "type": "function"
    },
    {
      "inputs": [],
      "name": "getNormalizedWeights",
      "outputs": [
        {
          "internalType": "uint256[]",
          "name": "",
          "type": "uint256[]"
        }
      ],
      "stateMutability": "view",
      "type": "function"
    },
    {
      "inputs": [],
      "name": "getOwner",
      "outputs": [
        {
          "internalType": "address",
          "name": "",
          "type": "address"
        }
      ],
      "stateMutability": "view",
      "type": "function"
    },
    {
      "inputs": [],
      "name": "getPausedState",
      "outputs": [
        {
          "internalType": "bool",
          "name": "paused",
          "type": "bool"
        },
        {
          "internalType": "uint256",
          "name": "pauseWindowEndTime",
          "type": "uint256"
        },
        {
          "internalType": "uint256",
          "name": "bufferPeriodEndTime",
          "type": "uint256"
        }
      ],
      "stateMutability": "view",
      "type": "function"
    },
    {
      "inputs": [],
      "name": "getPoolId",
      "outputs": [
        {
          "internalType": "bytes32",
          "name": "",
          "type": "bytes32"
        }
      ],
      "stateMutability": "view",
      "type": "function"
    },
    {
      "inputs": [],
      "name": "getRate",
      "outputs": [
        {
          "internalType": "uint256",
          "name": "",
          "type": "uint256"
        }
      ],
      "stateMutability": "view",
      "type": "function"
    },
    {
      "inputs": [],
      "name": "getScalingFactors",
      "outputs": [
        {
          "internalType": "uint256[]",
          "name": "",
          "type": "uint256[]"
        }
      ],
      "stateMutability": "view",
      "type": "function"
    },
    {
      "inputs": [],
      "name": "getSwapEnabled",
      "outputs": [
        {
          "internalType": "bool",
          "name": "",
          "type": "bool"
        }
      ],
      "stateMutability": "view",
      "type": "function"
    },
    {
      "inputs": [],
      "name": "getSwapFeePercentage",
      "outputs": [
        {
          "internalType": "uint256",
          "name": "",
          "type": "uint256"
        }
      ],
      "stateMutability": "view",
      "type": "function"
    },
    {
      "inputs": [],
      "name": "getVault",
      "outputs": [
        {
          "internalType": "contract IVault",
          "name": "",
          "type": "address"
        }
      ],
      "stateMutability": "view",
      "type": "function"
    },
    {
      "inputs": [
        {
          "internalType": "address",
          "name": "spender",
          "type": "address"
        },
        {
          "internalType": "uint256",
          "name": "addedValue",
          "type": "uint256"
        }
      ],
      "name": "increaseAllowance",
      "outputs": [
        {
          "internalType": "bool",
          "name": "",
          "type": "bool"
        }
      ],
      "stateMutability": "nonpayable",
      "type": "function"
    },
    {
      "inputs": [],
      "name": "name",
      "outputs": [
        {
          "internalType": "string",
          "name": "",
          "type": "string"
        }
      ],
      "stateMutability": "view",
      "type": "function"
    },
    {
      "inputs": [
        {
          "internalType": "address",
          "name": "owner",
          "type": "address"
        }
      ],
      "name": "nonces",
      "outputs": [
        {
          "internalType": "uint256",
          "name": "",
          "type": "uint256"
        }
      ],
      "stateMutability": "view",
      "type": "function"
    },
    {
      "inputs": [
        {
          "internalType": "bytes32",
          "name": "poolId",
          "type": "bytes32"
        },
        {
          "internalType": "address",
          "name": "sender",
          "type": "address"
        },
        {
          "internalType": "address",
          "name": "recipient",
          "type": "address"
        },
        {
          "internalType": "uint256[]",
          "name": "balances",
          "type": "uint256[]"
        },
        {
          "internalType": "uint256",
          "name": "lastChangeBlock",
          "type": "uint256"
        },
        {
          "internalType": "uint256",
          "name": "protocolSwapFeePercentage",
          "type": "uint256"
        },
        {
          "internalType": "bytes",
          "name": "userData",
          "type": "bytes"
        }
      ],
      "name": "onExitPool",
      "outputs": [
        {
          "internalType": "uint256[]",
          "name": "",
          "type": "uint256[]"
        },
        {
          "internalType": "uint256[]",
          "name": "",
          "type": "uint256[]"
        }
      ],
      "stateMutability": "nonpayable",
      "type": "function"
    },
    {
      "inputs": [
        {
          "internalType": "bytes32",
          "name": "poolId",
          "type": "bytes32"
        },
        {
          "internalType": "address",
          "name": "sender",
          "type": "address"
        },
        {
          "internalType": "address",
          "name": "recipient",
          "type": "address"
        },
        {
          "internalType": "uint256[]",
          "name": "balances",
          "type": "uint256[]"
        },
        {
          "internalType": "uint256",
          "name": "lastChangeBlock",
          "type": "uint256"
        },
        {
          "internalType": "uint256",
          "name": "protocolSwapFeePercentage",
          "type": "uint256"
        },
        {
          "internalType": "bytes",
          "name": "userData",
          "type": "bytes"
        }
      ],
      "name": "onJoinPool",
      "outputs": [
        {
          "internalType": "uint256[]",
          "name": "",
          "type": "uint256[]"
        },
        {
          "internalType": "uint256[]",
          "name": "",
          "type": "uint256[]"
        }
      ],
      "stateMutability": "nonpayable",
      "type": "function"
    },
    {
      "inputs": [
        {
          "components": [
            {
              "internalType": "enum IVault.SwapKind",
              "name": "kind",
              "type": "uint8"
            },
            {
              "internalType": "contract IERC20",
              "name": "tokenIn",
              "type": "address"
            },
            {
              "internalType": "contract IERC20",
              "name": "tokenOut",
              "type": "address"
            },
            {
              "internalType": "uint256",
              "name": "amount",
              "type": "uint256"
            },
            {
              "internalType": "bytes32",
              "name": "poolId",
              "type": "bytes32"
            },
            {
              "internalType": "uint256",
              "name": "lastChangeBlock",
              "type": "uint256"
            },
            {
              "internalType": "address",
              "name": "from",
              "type": "address"
            },
            {
              "internalType": "address",
              "name": "to",
              "type": "address"
            },
            {
              "internalType": "bytes",
              "name": "userData",
              "type": "bytes"
            }
          ],
          "internalType": "struct IPoolSwapStructs.SwapRequest",
          "name": "request",
          "type": "tuple"
        },
        {
          "internalType": "uint256",
          "name": "balanceTokenIn",
          "type": "uint256"
        },
        {
          "internalType": "uint256",
          "name": "balanceTokenOut",
          "type": "uint256"
        }
      ],
      "name": "onSwap",
      "outputs": [
        {
          "internalType": "uint256",
          "name": "",
          "type": "uint256"
        }
      ],
      "stateMutability": "nonpayable",
      "type": "function"
    },
    {
      "inputs": [
        {
          "internalType": "address",
          "name": "owner",
          "type": "address"
        },
        {
          "internalType": "address",
          "name": "spender",
          "type": "address"
        },
        {
          "internalType": "uint256",
          "name": "value",
          "type": "uint256"
        },
        {
          "internalType": "uint256",
          "name": "deadline",
          "type": "uint256"
        },
        {
          "internalType": "uint8",
          "name": "v",
          "type": "uint8"
        },
        {
          "internalType": "bytes32",
          "name": "r",
          "type": "bytes32"
        },
        {
          "internalType": "bytes32",
          "name": "s",
          "type": "bytes32"
        }
      ],
      "name": "permit",
      "outputs": [],
      "stateMutability": "nonpayable",
      "type": "function"
    },
    {
      "inputs": [
        {
          "internalType": "bytes32",
          "name": "poolId",
          "type": "bytes32"
        },
        {
          "internalType": "address",
          "name": "sender",
          "type": "address"
        },
        {
          "internalType": "address",
          "name": "recipient",
          "type": "address"
        },
        {
          "internalType": "uint256[]",
          "name": "balances",
          "type": "uint256[]"
        },
        {
          "internalType": "uint256",
          "name": "lastChangeBlock",
          "type": "uint256"
        },
        {
          "internalType": "uint256",
          "name": "protocolSwapFeePercentage",
          "type": "uint256"
        },
        {
          "internalType": "bytes",
          "name": "userData",
          "type": "bytes"
        }
      ],
      "name": "queryExit",
      "outputs": [
        {
          "internalType": "uint256",
          "name": "bptIn",
          "type": "uint256"
        },
        {
          "internalType": "uint256[]",
          "name": "amountsOut",
          "type": "uint256[]"
        }
      ],
      "stateMutability": "nonpayable",
      "type": "function"
    },
    {
      "inputs": [
        {
          "internalType": "bytes32",
          "name": "poolId",
          "type": "bytes32"
        },
        {
          "internalType": "address",
          "name": "sender",
          "type": "address"
        },
        {
          "internalType": "address",
          "name": "recipient",
          "type": "address"
        },
        {
          "internalType": "uint256[]",
          "name": "balances",
          "type": "uint256[]"
        },
        {
          "internalType": "uint256",
          "name": "lastChangeBlock",
          "type": "uint256"
        },
        {
          "internalType": "uint256",
          "name": "protocolSwapFeePercentage",
          "type": "uint256"
        },
        {
          "internalType": "bytes",
          "name": "userData",
          "type": "bytes"
        }
      ],
      "name": "queryJoin",
      "outputs": [
        {
          "internalType": "uint256",
          "name": "bptOut",
          "type": "uint256"
        },
        {
          "internalType": "uint256[]",
          "name": "amountsIn",
          "type": "uint256[]"
        }
      ],
      "stateMutability": "nonpayable",
      "type": "function"
    },
    {
      "inputs": [
        {
          "internalType": "contract IERC20",
          "name": "token",
          "type": "address"
        },
        {
          "internalType": "bytes",
          "name": "poolConfig",
          "type": "bytes"
        }
      ],
      "name": "setAssetManagerPoolConfig",
      "outputs": [],
      "stateMutability": "nonpayable",
      "type": "function"
    },
    {
      "inputs": [
        {
          "internalType": "bool",
          "name": "paused",
          "type": "bool"
        }
      ],
      "name": "setPaused",
      "outputs": [],
      "stateMutability": "nonpayable",
      "type": "function"
    },
    {
      "inputs": [
        {
          "internalType": "bool",
          "name": "swapEnabled",
          "type": "bool"
        }
      ],
      "name": "setSwapEnabled",
      "outputs": [],
      "stateMutability": "nonpayable",
      "type": "function"
    },
    {
      "inputs": [
        {
          "internalType": "uint256",
          "name": "swapFeePercentage",
          "type": "uint256"
        }
      ],
      "name": "setSwapFeePercentage",
      "outputs": [],
      "stateMutability": "nonpayable",
      "type": "function"
    },
    {
      "inputs": [],
      "name": "symbol",
      "outputs": [
        {
          "internalType": "string",
          "name": "",
          "type": "string"
        }
      ],
      "stateMutability": "view",
      "type": "function"
    },
    {
      "inputs": [],
      "name": "totalSupply",
      "outputs": [
        {
          "internalType": "uint256",
          "name": "",
          "type": "uint256"
        }
      ],
      "stateMutability": "view",
      "type": "function"
    },
    {
      "inputs": [
        {
          "internalType": "address",
          "name": "recipient",
          "type": "address"
        },
        {
          "internalType": "uint256",
          "name": "amount",
          "type": "uint256"
        }
      ],
      "name": "transfer",
      "outputs": [
        {
          "internalType": "bool",
          "name": "",
          "type": "bool"
        }
      ],
      "stateMutability": "nonpayable",
      "type": "function"
    },
    {
      "inputs": [
        {
          "internalType": "address",
          "name": "sender",
          "type": "address"
        },
        {
          "internalType": "address",
          "name": "recipient",
          "type": "address"
        },
        {
          "internalType": "uint256",
          "name": "amount",
          "type": "uint256"
        }
      ],
      "name": "transferFrom",
      "outputs": [
        {
          "internalType": "bool",
          "name": "",
          "type": "bool"
        }
      ],
      "stateMutability": "nonpayable",
      "type": "function"
    },
    {
      "inputs": [
        {
          "internalType": "uint256",
          "name": "startTime",
          "type": "uint256"
        },
        {
          "internalType": "uint256",
          "name": "endTime",
          "type": "uint256"
        },
        {
          "internalType": "uint256[]",
          "name": "endWeights",
          "type": "uint256[]"
        }
      ],
      "name": "updateWeightsGradually",
      "outputs": [],
      "stateMutability": "nonpayable",
      "type": "function"
    }
  ],
  "bytecode": "0x6102e06040527f6e71edae12b1b97f4d1f60370fef10105fa2faae0126114a169c64845d6126c9610120523480156200003757600080fd5b5060405162007011380380620070118339810160408190526200005a9162000fb4565b898989898a516001600160401b038111156200007a576200007a62000dbf565b604051908082528060200260200182016040528015620000a4578160200160208202803683370190505b5089898989888651600214620000bc576001620000bf565b60025b8989898989898989828289898d8280604051806040016040528060018152602001603160f81b81525085858a6060336001600160a01b0316901b60001b806080818152505050806001600160a01b031660a0816001600160a01b0316815250505081600390805190602001906200013892919062000cee565b5080516200014e90600490602084019062000cee565b50506005805460ff1916601217905550815160209283012060c05280519082012060e0527f8b73c3c69bb8fe3d512ecc4cf759cc79239f7b179b0ffacaa9a75d522b39400f610100526001600160a01b039092166101405250620001c992506276a70085111591506101949062000fe862000557821b17901c565b620001e862278d008211156101956200055760201b62000fe81760201c565b6000620001f68342620010db565b61016081905290506200020a8282620010db565b61018081815250505050506200023260028751101560c86200055760201b62000fe81760201c565b6200024f60048751111560c96200055760201b62000fe81760201c565b62000265866200057760201b62000ff61760201c565b620002708462000583565b6040516309b2760f60e01b81526000906001600160a01b038c16906309b2760f90620002a1908d90600401620010f6565b6020604051808303816000875af1158015620002c1573d6000803e3d6000fd5b505050506040513d601f19601f82011682018060405250810190620002e791906200111f565b604051633354e3e960e11b81529091506001600160a01b038c16906366a9c7d2906200031c9084908b908b9060040162001139565b600060405180830381600087803b1580156200033757600080fd5b505af11580156200034c573d6000803e3d6000fd5b50505050806101a0818152505050505050505050505050505050505050505050506001600a81905550600087519050620003938188516200061f60201b620010001760201c565b6101c081905287518890600090620003af57620003af620011d5565b60200260200101516001600160a01b03166101e0816001600160a01b03168152505087600181518110620003e757620003e7620011d5565b60209081029190910101516001600160a01b03166102005260028111620004105760006200042f565b87600281518110620004265762000426620011d5565b60200260200101515b6001600160a01b031661022052600381116200044d5760006200046c565b87600381518110620004635762000463620011d5565b60200260200101515b6001600160a01b0316610240528751620004a8908990600090620004945762000494620011d5565b60200260200101516200063960201b60201c565b610260528751620004c99089906001908110620004945762000494620011d5565b6102805260028111620004de576000620004f8565b620004f888600281518110620004945762000494620011d5565b6102a052600381116200050d57600062000527565b6200052788600381518110620004945762000494620011d5565b6102c052426200053a81808a8062000702565b6200054583620008e3565b50505050505050505050505062001452565b81620005735762000573816200093860201b6200100d1760201c565b5050565b8062000573816200098b565b620005a364e8d4a5100082101560cb6200055760201b62000fe81760201c565b620005c667016345785d8a000082111560ca6200055760201b62000fe81760201c565b620005e58160c060085462000a3360201b62001060179092919060201c565b6008556040518181527fa9ba3ffe0b6c366b81232caab38605a0699ad5398d6cce76f91ee809e322dafc906020015b60405180910390a150565b6200057381831460676200055760201b62000fe81760201c565b60006001600160a01b0382163014156200065c5750670de0b6b3a7640000919050565b6000826001600160a01b031663313ce5676040518163ffffffff1660e01b8152600401602060405180830381865afa1580156200069d573d6000803e3d6000fd5b505050506040513d601f19601f82011682018060405250810190620006c39190620011eb565b60ff1690506000620006d782601262001210565b9050620006e681600a62001327565b620006fa90670de0b6b3a764000062001335565b949350505050565b600b546000805b83518110156200083b5760008482815181106200072a576200072a620011d5565b6020026020010151905062000757662386f26fc1000082101561012e6200055760201b62000fe81760201c565b62000806620007718262000a4860201b620010751760201c565b6200077e84601062001335565b6200078b906080620010db565b620007f1620007c18a8781518110620007a857620007a8620011d5565b602002602001015162000a8f60201b620010951760201c565b620007ce87601f62001335565b620007db906004620010db565b8962000abc60201b620010b1179092919060201c565b62000ace60201b620010c3179092919060201c565b935062000822818462000ade60201b620010d31790919060201c565b9250508080620008329062001357565b91505062000709565b506200085f670de0b6b3a764000082146101346200055760201b62000fe81760201c565b620008988560e0620008838960c08762000b3b60201b62001121179092919060201c565b62000b3b60201b62001121179092919060201c565b600b556040517f0f3631f9dab08169d1db21c6dc5f32536fb2b0a6b9bb5330d71c52132f968be090620008d3908890889088908890620013b2565b60405180910390a1505050505050565b62000902816000600b5462000b4d60201b62001133179092919060201c565b600b5560405181151581527f5a9e84f78f7957cb4ed7478eb0fcad35ee4ecbe2e0f298420b28a3955392573f9060200162000614565b62461bcd60e51b6000908152602060045260076024526642414c23000030600a808404818106603090810160081b95839006959095019082900491820690940160101b939093010160c81b604452606490fd5b600281511015620009995750565b600081600081518110620009b157620009b1620011d5565b602002602001015190506000600190505b825181101562000a2e576000838281518110620009e357620009e3620011d5565b6020026020010151905062000a19816001600160a01b0316846001600160a01b03161060656200055760201b62000fe81760201c565b915062000a268162001357565b9050620009c2565b505050565b6001600160401b03811b1992909216911b1790565b600062000a89670de0b6b3a764000062000a7561ffff80168562000b7660201b6200115a1790919060201c565b62000c2560201b620011da1790919060201c565b92915050565b600062000a89670de0b6b3a764000062000a75637fffffff8562000b7660201b6200115a1790919060201c565b637fffffff811b1992909216911b1790565b61ffff811b1992909216911b1790565b60008062000aed8385620010db565b90508381101562000b345760405162461bcd60e51b815260206004820152600c60248201526b4144445f4f564552464c4f5760a01b60448201526064015b60405180910390fd5b9392505050565b63ffffffff811b1992909216911b1790565b60006001821b198416828462000b6557600062000b68565b60015b60ff16901b17949350505050565b60008062000b85838562001335565b905083158062000b9f57508262000b9d8583620013f2565b145b62000bdc5760405162461bcd60e51b815260206004820152600c60248201526b4d554c5f4f564552464c4f5760a01b604482015260640162000b2b565b8062000bed57600091505062000a89565b670de0b6b3a764000062000c0360018362001210565b62000c0f9190620013f2565b62000c1c906001620010db565b91505062000a89565b60008162000c665760405162461bcd60e51b815260206004820152600d60248201526c2d22a927afa224ab24a9a4a7a760991b604482015260640162000b2b565b8262000c755750600062000a89565b600062000c8b670de0b6b3a76400008562001335565b9050670de0b6b3a764000062000ca28583620013f2565b1462000ce05760405162461bcd60e51b815260206004820152600c60248201526b11125597d25395115493905360a21b604482015260640162000b2b565b8262000c0360018362001210565b82805462000cfc9062001415565b90600052602060002090601f01602090048101928262000d20576000855562000d6b565b82601f1062000d3b57805160ff191683800117855562000d6b565b8280016001018555821562000d6b579182015b8281111562000d6b57825182559160200191906001019062000d4e565b5062000d7992915062000d7d565b5090565b5b8082111562000d79576000815560010162000d7e565b6001600160a01b038116811462000daa57600080fd5b50565b805162000dba8162000d94565b919050565b634e487b7160e01b600052604160045260246000fd5b604051601f8201601f191681016001600160401b038111828210171562000e005762000e0062000dbf565b604052919050565b600082601f83011262000e1a57600080fd5b81516001600160401b0381111562000e365762000e3662000dbf565b602062000e4c601f8301601f1916820162000dd5565b828152858284870101111562000e6157600080fd5b60005b8381101562000e8157858101830151828201840152820162000e64565b8381111562000e935760008385840101525b5095945050505050565b60006001600160401b0382111562000eb95762000eb962000dbf565b5060051b60200190565b600082601f83011262000ed557600080fd5b8151602062000eee62000ee88362000e9d565b62000dd5565b82815260059290921b8401810191818101908684111562000f0e57600080fd5b8286015b8481101562000f3657805162000f288162000d94565b835291830191830162000f12565b509695505050505050565b600082601f83011262000f5357600080fd5b8151602062000f6662000ee88362000e9d565b82815260059290921b8401810191818101908684111562000f8657600080fd5b8286015b8481101562000f36578051835291830191830162000f8a565b8051801515811462000dba57600080fd5b6000806000806000806000806000806101408b8d03121562000fd557600080fd5b62000fe08b62000dad565b60208c0151909a506001600160401b038082111562000ffe57600080fd5b6200100c8e838f0162000e08565b9a5060408d01519150808211156200102357600080fd5b620010318e838f0162000e08565b995060608d01519150808211156200104857600080fd5b620010568e838f0162000ec3565b985060808d01519150808211156200106d57600080fd5b506200107c8d828e0162000f41565b96505060a08b0151945060c08b0151935060e08b01519250620010a36101008c0162000dad565b9150620010b46101208c0162000fa3565b90509295989b9194979a5092959850565b634e487b7160e01b600052601160045260246000fd5b60008219821115620010f157620010f1620010c5565b500190565b60208101600383106200111957634e487b7160e01b600052602160045260246000fd5b91905290565b6000602082840312156200113257600080fd5b5051919050565b6000606082018583526020606081850152818651808452608086019150828801935060005b81811015620011855784516001600160a01b0316835293830193918301916001016200115e565b50508481036040860152855180825290820192508186019060005b81811015620011c75782516001600160a01b031685529383019391830191600101620011a0565b509298975050505050505050565b634e487b7160e01b600052603260045260246000fd5b600060208284031215620011fe57600080fd5b815160ff8116811462000b3457600080fd5b600082821015620012255762001225620010c5565b500390565b600181815b808511156200126b5781600019048211156200124f576200124f620010c5565b808516156200125d57918102915b93841c93908002906200122f565b509250929050565b600082620012845750600162000a89565b81620012935750600062000a89565b8160018114620012ac5760028114620012b757620012d7565b600191505062000a89565b60ff841115620012cb57620012cb620010c5565b50506001821b62000a89565b5060208310610133831016604e8410600b8410161715620012fc575081810a62000a89565b6200130883836200122a565b80600019048211156200131f576200131f620010c5565b029392505050565b600062000b34838362001273565b6000816000190483118215151615620013525762001352620010c5565b500290565b60006000198214156200136e576200136e620010c5565b5060010190565b600081518084526020808501945080840160005b83811015620013a75781518752958201959082019060010162001389565b509495945050505050565b848152836020820152608060408201526000620013d3608083018562001375565b8281036060840152620013e7818562001375565b979650505050505050565b6000826200141057634e487b7160e01b600052601260045260246000fd5b500490565b600181811c908216806200142a57607f821691505b602082108114156200144c57634e487b7160e01b600052602260045260246000fd5b50919050565b60805160a05160c05160e05161010051610120516101405161016051610180516101a0516101c0516101e05161020051610220516102405161026051610280516102a0516102c051615aa862001569600039600081816114f2015261208c0152600081816114a9015261202b0152600081816114600152611fca0152600081816114200152611f69015260008181612051015261309e015260008181611ff0015261305c015260008181611f8f015261301a015260008181611f2e0152612fd80152600061173901526000610696015260006113a80152600061138401526000610a0401526000610ce1015260006115fc0152600061163e0152600061161d015260006109e0015260006109570152615aa86000f3fe608060405234801561001057600080fd5b50600436106101c25760003560e01c806306fdde03146101c7578063095ea7b3146101e557806316c38b3c1461020857806318160ddd1461021d5780631c0de0511461022f5780631dd746ea1461025457806323b872dd14610269578063313ce5671461027c5780633644e5151461029157806338e9922e1461029957806338fff2d0146102ac57806339509351146102b45780633e569205146102c757806347bc4d92146102da57806350dd6ed9146102e857806355c67628146102fb5780636028bfd414610306578063679aefce1461032757806370a082311461032f57806374f3b009146103585780637beed220146103795780637ecebe0014610390578063851c1bb3146103b957806387ec6817146103cc578063893d20e8146103df5780638d928af8146103ff57806395d89b41146104075780639b02cdde1461040f5780639d2c110c14610417578063a457c2d71461042a578063a9059cbb1461043d578063aaabadc514610450578063c0ff1a1514610458578063d505accf14610460578063d5c096c414610473578063dd62ed3e14610486578063e01af92c14610499578063f89f27ed146104ac575b600080fd5b6101cf6104b4565b6040516101dc9190614e18565b60405180910390f35b6101f86101f3366004614e4b565b610546565b60405190151581526020016101dc565b61021b610216366004614e85565b61055d565b005b6002545b6040519081526020016101dc565b610237610571565b6040805193151584526020840192909252908201526060016101dc565b61025c61059a565b6040516101dc9190614edd565b6101f8610277366004614ef0565b6105a9565b60055460405160ff90911681526020016101dc565b610221610671565b61021b6102a7366004614f31565b61067b565b610221610694565b6101f86102c2366004614e4b565b6106b8565b61021b6102d5366004615047565b6106ef565b600b546001908116146101f8565b61021b6102f6366004615105565b610758565b60085460c01c610221565b610319610314366004615154565b610776565b6040516101dc9291906151f9565b6102216107ad565b61022161033d366004615212565b6001600160a01b031660009081526020819052604090205490565b61036b610366366004615154565b6107db565b6040516101dc92919061522f565b61038161087e565b6040516101dc93929190615254565b61022161039e366004615212565b6001600160a01b031660009081526006602052604090205490565b6102216103c7366004615273565b610953565b6103196103da366004615154565b6109b8565b6103e76109de565b6040516001600160a01b0390911681526020016101dc565b6103e7610a02565b6101cf610a26565b600954610221565b6102216104253660046152ac565b610a35565b6101f8610438366004614e4b565b610ba4565b6101f861044b366004614e4b565b610be4565b6103e7610bf1565b610221610bfb565b61021b61046e3660046153a1565b610cb2565b61036b610481366004615154565b610e22565b610221610494366004615418565b610f54565b61021b6104a7366004614e85565b610fb3565b61025c610fde565b6060600380546104c390615451565b80601f01602080910402602001604051908101604052809291908181526020018280546104ef90615451565b801561053c5780601f106105115761010080835404028352916020019161053c565b820191906000526020600020905b81548152906001019060200180831161051f57829003601f168201915b5050505050905090565b6000610553338484611258565b5060015b92915050565b6105656112ba565b61056e816112e8565b50565b600080600061057e611365565b159250610589611382565b91506105936113a6565b9050909192565b60606105a46113ca565b905090565b6000806105b68533610f54565b9050336001600160a01b03861614806105cf5750828110155b6106205760405162461bcd60e51b815260206004820181905260248201527f45524332305f5452414e534645525f455843454544535f414c4c4f57414e434560448201526064015b60405180910390fd5b61062b858585611535565b336001600160a01b0386161480159061064b57506001600160801b038114155b1561066457610664853361065f86856154a2565b611258565b60019150505b9392505050565b60006105a46115f8565b6106836112ba565b61068b61169e565b61056e816116b3565b7f000000000000000000000000000000000000000000000000000000000000000090565b3360008181526001602090815260408083206001600160a01b0387168452909152812054909161055391859061065f9086906154b9565b6106f76112ba565b6106ff61169e565b61070761171e565b610719610712611737565b8251611000565b42610724818561175b565b935061073583851115610146610fe8565b6107488484610742611772565b85611898565b506107536001600a55565b505050565b6107606112ba565b61076861169e565b61077282826119e3565b5050565b6000606061078c8651610787611737565b611000565b6107a189898989898989611ad8611ba7611c22565b97509795505050505050565b60006105a46107bb60025490565b6107c3611737565b6107cb610bfb565b6107d591906154d1565b90611d44565b606080886108056107ea610a02565b6001600160a01b0316336001600160a01b03161460cd610fe8565b61081a610810610694565b82146101f4610fe8565b60006108246113ca565b90506108308882611dc0565b60008060006108458e8e8e8e8e8e8a8f611ad8565b9250925092506108558d84611e3b565b61085f8285611ba7565b6108698185611ba7565b909550935050505b5097509795505050505050565b600b5463ffffffff60c082901c169060e081901c9060609060006108a0611737565b9050806001600160401b038111156108ba576108ba614f4a565b6040519080825280602002602001820160405280156108e3578160200160208202803683370190505b50925060005b8181101561094b5761091c6109176109028360106154d1565b61090d9060806154b9565b85901c61ffff1690565b611e45565b84828151811061092e5761092e6154f0565b60209081029190910101528061094381615506565b9150506108e9565b505050909192565b60007f00000000000000000000000000000000000000000000000000000000000000008260405160200161099b9291909182526001600160e01b031916602082015260240190565b604051602081830303815290604052805190602001209050919050565b600060606109c98651610787611737565b6107a189898989898989611e5f611eaf611c22565b7f000000000000000000000000000000000000000000000000000000000000000090565b7f000000000000000000000000000000000000000000000000000000000000000090565b6060600480546104c390615451565b60008360800151610a476107ea610a02565b610a52610810610694565b6000610a618660200151611f2a565b90506000610a728760400151611f2a565b9050600087516001811115610a8957610a89615521565b1415610b1d576000610a9e88606001516120c0565b90506000818960600151610ab291906154a2565b9050610ac6896020015161077283876120e5565b60608901829052610ad788856120e5565b9750610ae387846120e5565b9650610af38960600151856120e5565b60608a01526000610b058a8a8a6120f1565b9050610b118185612120565b96505050505050610b9c565b610b2786836120e5565b9550610b3385826120e5565b9450610b438760600151826120e5565b60608801526000610b5588888861212c565b9050610b61818461214b565b90506000610b6e82612157565b90506000610b7c83836154a2565b9050610b908a6020015161077283886120e5565b509450610b9c92505050565b509392505050565b600080610bb13385610f54565b9050808310610bcb57610bc633856000611258565b610bda565b610bda338561065f86856154a2565b5060019392505050565b6000610553338484611535565b60006105a4612181565b600080610c06610a02565b6001600160a01b031663f94d4668610c1c610694565b6040518263ffffffff1660e01b8152600401610c3a91815260200190565b600060405180830381865afa158015610c57573d6000803e3d6000fd5b505050506040513d6000823e601f3d908101601f19168201604052610c7f9190810190615592565b50915050610c9481610c8f6113ca565b611dc0565b6000610c9e6121ec565b509050610cab8183612286565b9250505090565b610cc08442111560d1610fe8565b6001600160a01b0387811660008181526006602090815260408083205481517f00000000000000000000000000000000000000000000000000000000000000008185015280830195909552948b166060850152608084018a905260a0840185905260c08085018a90528151808603909101815260e09094019052825192019190912090610d4c82612340565b6040805160008082526020820180845284905260ff8a169282019290925260608101889052608081018790529192509060019060a0016020604051602081039080840390855afa158015610da4573d6000803e3d6000fd5b5050604051601f1901519150610de690506001600160a01b03821615801590610dde57508b6001600160a01b0316826001600160a01b0316145b6101f8610fe8565b610df18460016154b9565b6001600160a01b038c16600090815260066020526040902055610e158b8b8b611258565b5050505050505050505050565b60608088610e316107ea610a02565b610e3c610810610694565b6000610e466113ca565b9050610e5160025490565b610f0457600080610e658d8d8d868b61236f565b91509150610e80610e76620f424090565b83101560cc610fe8565b610e936000620f42406123b5565b6123b5565b610ea48b610e8e620f4240856154a2565b610eae8184611eaf565b80610eb7611737565b6001600160401b03811115610ece57610ece614f4a565b604051908082528060200260200182016040528015610ef7578160200160208202803683370190505b5095509550505050610871565b610f0e8882611dc0565b6000806000610f238e8e8e8e8e8e8a8f611e5f565b925092509250610f338c846123b5565b610f3d8285611eaf565b610f478185611ba7565b9095509350610871915050565b6000610f5e610a02565b6001600160a01b0316826001600160a01b03161415610f8557506001600160801b03610557565b6001600160a01b038084166000908152600160209081526040808320938616835292905220545b9050610557565b610fbb6112ba565b610fc361169e565b610fcb61171e565b610fd4816123bf565b61056e6001600a55565b60606105a4611772565b81610772576107728161100d565b8061077281612403565b6107728183146067610fe8565b62461bcd60e51b6000908152602060045260076024526642414c23000030600a808404818106603090810160081b95839006959095019082900491820690940160101b939093010160c81b604452606490fd5b6001600160401b03811b1992909216911b1790565b6000610557670de0b6b3a764000061108f8461ffff61115a565b906111da565b6000610557670de0b6b3a764000061108f84637fffffff61115a565b637fffffff811b1992909216911b1790565b61ffff811b1992909216911b1790565b6000806110e083856154b9565b90508381101561066a5760405162461bcd60e51b815260206004820152600c60248201526b4144445f4f564552464c4f5760a01b6044820152606401610617565b63ffffffff811b1992909216911b1790565b60006001821b198416828461114957600061114c565b60015b60ff16901b17949350505050565b60008061116783856154d1565b905083158061117e57508261117c8583615675565b145b61119a5760405162461bcd60e51b815260040161061790615689565b806111a9576000915050610557565b670de0b6b3a76400006111bd6001836154a2565b6111c79190615675565b6111d29060016154b9565b915050610557565b6000816111f95760405162461bcd60e51b8152600401610617906156af565b8261120657506000610557565b600061121a670de0b6b3a7640000856154d1565b9050670de0b6b3a764000061122f8583615675565b1461124c5760405162461bcd60e51b8152600401610617906156d6565b826111bd6001836154a2565b6001600160a01b0383811660008181526001602090815260408083209487168084529482529182902085905590518481527f8c5be1e5ebec7d5bd14f71427d1e84f3dd0314c0f7b2291e5b200ac8c7c3b92591015b60405180910390a3505050565b60006112d16000356001600160e01b031916610953565b905061056e6112e0823361248e565b610191610fe8565b8015611308576113036112f9611382565b4210610193610fe8565b61131d565b61131d6113136113a6565b42106101a9610fe8565b6007805460ff19168215159081179091556040519081527f9e3a5e37224532dea67b89face185703738a228a6e8a23dee546960180d3be64906020015b60405180910390a150565b600061136f6113a6565b4211806105a457505060075460ff161590565b7f000000000000000000000000000000000000000000000000000000000000000090565b7f000000000000000000000000000000000000000000000000000000000000000090565b606060006113d6611737565b90506000816001600160401b038111156113f2576113f2614f4a565b60405190808252806020026020018201604052801561141b578160200160208202803683370190505b5090507f000000000000000000000000000000000000000000000000000000000000000081600081518110611452576114526154f0565b6020026020010181815250507f000000000000000000000000000000000000000000000000000000000000000081600181518110611492576114926154f0565b6020026020010181815250506002821115610557577f0000000000000000000000000000000000000000000000000000000000000000816002815181106114db576114db6154f0565b6020026020010181815250506003821115610557577f000000000000000000000000000000000000000000000000000000000000000081600381518110611524576115246154f0565b602002602001018181525050610557565b61154c6001600160a01b0384161515610198610fe8565b6115636001600160a01b0383161515610199610fe8565b6001600160a01b03831660009081526020819052604090205461158990826101a0612571565b6001600160a01b0380851660009081526020819052604080822093909355908416815220546115b99082906154b9565b6001600160a01b03838116600081815260208181526040918290209490945551848152909291861691600080516020615a5383398151915291016112ad565b60007f00000000000000000000000000000000000000000000000000000000000000007f00000000000000000000000000000000000000000000000000000000000000007f000000000000000000000000000000000000000000000000000000000000000046604080516020810195909552840192909252606083015260808201523060a082015260c00160405160208183030381529060405280519060200120905090565b6116b16116a9611365565b610192610fe8565b565b6116c664e8d4a5100082101560cb610fe8565b6116dc67016345785d8a000082111560ca610fe8565b6008546116eb908260c0611060565b6008556040518181527fa9ba3ffe0b6c366b81232caab38605a0699ad5398d6cce76f91ee809e322dafc9060200161135a565b6117306002600a541415610190610fe8565b6002600a55565b7f000000000000000000000000000000000000000000000000000000000000000090565b60008183101561176b578161066a565b5090919050565b6060600061177e611737565b90506000816001600160401b0381111561179a5761179a614f4a565b6040519080825280602002602001820160405280156117c3578160200160208202803683370190505b50600b549091506117d5600082612595565b826000815181106117e8576117e86154f0565b6020026020010181815250506117ff600182612595565b82600181518110611812576118126154f0565b602002602001018181525050826002141561182e575092915050565b611839600282612595565b8260028151811061184c5761184c6154f0565b6020026020010181815250508260031415611868575092915050565b611873600382612595565b82600381518110611886576118866154f0565b60209081029190910101525092915050565b600b546000805b835181101561196a5760008482815181106118bc576118bc6154f0565b602002602001015190506118dc662386f26fc1000082101561012e610fe8565b6119486118e882611075565b6118f38460106154d1565b6118fe9060806154b9565b6119416119238a8781518110611916576119166154f0565b6020026020010151611095565b61192e87601f6154d1565b6119399060046154b9565b8991906110b1565b91906110c3565b935061195483826110d3565b925050808061196290615506565b91505061189f565b50611981670de0b6b3a76400008214610134610fe8565b61199a8560e0611993858a60c0611121565b9190611121565b600b556040517f0f3631f9dab08169d1db21c6dc5f32536fb2b0a6b9bb5330d71c52132f968be0906119d39088908890889088906156fc565b60405180910390a1505050505050565b60006119ed610694565b905060006119f9610a02565b60405163160bf1c960e31b8152600481018490526001600160a01b038681166024830152919091169063b05f8e4890604401608060405180830381865afa158015611a48573d6000803e3d6000fd5b505050506040513d601f19601f82011682018060405250810190611a6c919061572d565b604051630639cdb560e21b81529094506001600160a01b03851693506318e736d49250611aa091508590879060040161576e565b600060405180830381600087803b158015611aba57600080fd5b505af1158015611ace573d6000803e3d6000fd5b5050505050505050565b6000606080600080611ae86121ec565b91509150611af4611365565b15611b2c576000611b05838c612286565b9050611b178b8484600954858e612613565b9350611b268b856126d5612722565b50611b78565b611b34611737565b6001600160401b03811115611b4b57611b4b614f4a565b604051908082528060200260200182016040528015611b74578160200160208202803683370190505b5092505b611b848a8389896127a7565b9095509350611b948a8584612847565b6009555050985098509895505050505050565b60005b611bb2611737565b81101561075357611bf5838281518110611bce57611bce6154f0565b6020026020010151838381518110611be857611be86154f0565b6020026020010151611d44565b838281518110611c0757611c076154f0565b6020908102919091010152611c1b81615506565b9050611baa565b333014611ce0576000306001600160a01b0316600036604051611c46929190615787565b6000604051808303816000865af19150503d8060008114611c83576040519150601f19603f3d011682016040523d82523d6000602084013e611c88565b606091505b505090508060008114611c9757fe5b60046000803e6000516001600160e01b0319166343adbafb60e01b8114611cc2573d6000803e3d6000fd5b506020600460003e604060205260243d03602460403e601c3d016000f35b6000611cea6113ca565b9050611cf68782611dc0565b600080611d0d8c8c8c8c8c8c898d8d63ffffffff16565b5091509150611d2081848663ffffffff16565b8051601f1982018390526343adbafb603f1983015260200260231982016044820181fd5b600081611d635760405162461bcd60e51b8152600401610617906156af565b82611d7057506000610557565b6000611d84670de0b6b3a7640000856154d1565b9050670de0b6b3a7640000611d998583615675565b14611db65760405162461bcd60e51b8152600401610617906156d6565b6111d28382615675565b60005b611dcb611737565b81101561075357611e0e838281518110611de757611de76154f0565b6020026020010151838381518110611e0157611e016154f0565b6020026020010151612860565b838281518110611e2057611e206154f0565b6020908102919091010152611e3481615506565b9050611dc3565b61077282826128b2565b600061055761ffff61108f84670de0b6b3a764000061115a565b6000606080611e8b611e6f6109de565b6001600160a01b03168b6001600160a01b031614610148610fe8565b611e9b8b8b8b8b8b8b8b8b61294d565b925092509250985098509895505050505050565b60005b611eba611737565b81101561075357611efd838281518110611ed657611ed66154f0565b6020026020010151838381518110611ef057611ef06154f0565b60200260200101516111da565b838281518110611f0f57611f0f6154f0565b6020908102919091010152611f2381615506565b9050611eb2565b60007f00000000000000000000000000000000000000000000000000000000000000006001600160a01b0316826001600160a01b03161415611f8d57507f0000000000000000000000000000000000000000000000000000000000000000919050565b7f00000000000000000000000000000000000000000000000000000000000000006001600160a01b0316826001600160a01b03161415611fee57507f0000000000000000000000000000000000000000000000000000000000000000919050565b7f00000000000000000000000000000000000000000000000000000000000000006001600160a01b0316826001600160a01b0316141561204f57507f0000000000000000000000000000000000000000000000000000000000000000919050565b7f00000000000000000000000000000000000000000000000000000000000000006001600160a01b0316826001600160a01b031614156120b057507f0000000000000000000000000000000000000000000000000000000000000000919050565b6120bb61013561100d565b919050565b6000806120d96120d260085460c01c90565b849061115a565b905061066a81846154a2565b600061066a8383612860565b600061210d612105600b5460019081161490565b610147610fe8565b6121188484846129d1565b949350505050565b600061066a8383611d44565b6000612140612105600b5460019081161490565b612118848484612a04565b600061066a83836111da565b600061055761216860085460c01c90565b61217a90670de0b6b3a76400006154a2565b83906111da565b600061218b610a02565b6001600160a01b031663aaabadc56040518163ffffffff1660e01b8152600401602060405180830381865afa1580156121c8573d6000803e3d6000fd5b505050506040513d601f19601f820116820180604052508101906105a49190615797565b606060006121f8611772565b915060009050600082600081518110612213576122136154f0565b602002602001015190506000600190505b83518110156122805781848281518110612240576122406154f0565b6020026020010151111561226e57809250838181518110612263576122636154f0565b602002602001015191505b8061227881615506565b915050612224565b50509091565b670de0b6b3a764000060005b83518110156122fe576122ea6122e38583815181106122b3576122b36154f0565b60200260200101518584815181106122cd576122cd6154f0565b6020026020010151612a3790919063ffffffff16565b8390612860565b9150806122f681615506565b915050612292565b50600081116105575760405162461bcd60e51b815260206004820152600e60248201526d16915493d7d2539590549250539560921b6044820152606401610617565b600061234a6115f8565b60405161190160f01b602082015260228101919091526042810183905260620161099b565b6000606061239a61237e6109de565b6001600160a01b0316876001600160a01b031614610148610fe8565b6123a78787878787612a86565b915091509550959350505050565b6107728282612b26565b600b546123ce90826000611133565b600b5560405181151581527f5a9e84f78f7957cb4ed7478eb0fcad35ee4ecbe2e0f298420b28a3955392573f9060200161135a565b6002815110156124105750565b600081600081518110612425576124256154f0565b602002602001015190506000600190505b8251811015610753576000838281518110612453576124536154f0565b6020026020010151905061247c816001600160a01b0316846001600160a01b0316106065610fe8565b915061248781615506565b9050612436565b600073ba1ba1ba1ba1ba1ba1ba1ba1ba1ba1ba1ba1ba1b6124ad6109de565b6001600160a01b0316141580156124c857506124c883612b97565b156124f0576124d56109de565b6001600160a01b0316336001600160a01b0316149050610557565b6124f8612181565b6040516326f8aa2160e21b8152600481018590526001600160a01b0384811660248301523060448301529190911690639be2a88490606401602060405180830381865afa15801561254d573d6000803e3d6000fd5b505050506040513d601f19601f82011682018060405250810190610fac91906157b4565b60006125808484111583610fe8565b600061258c84866154a2565b95945050505050565b6000806125c56125c06125a986601f6154d1565b6125b49060046154b9565b85901c637fffffff1690565b612bd3565b905060006125ef6109176125da8760106154d1565b6125e59060806154b9565b86901c61ffff1690565b905060006125fc85612bef565b9050612609838383612c75565b9695505050505050565b6060600061261f611737565b6001600160401b0381111561263657612636614f4a565b60405190808252806020026020018201604052801561265f578160200160208202803683370190505b5090508261266e579050612609565b6126ad888781518110612683576126836154f0565b602002602001015188888151811061269d5761269d6154f0565b6020026020010151878787612cf2565b8187815181106126bf576126bf6154f0565b6020908102919091010152979650505050505050565b6000828211156127165760405162461bcd60e51b815260206004820152600c60248201526b5355425f4f564552464c4f5760a01b6044820152606401610617565b600061211883856154a2565b60005b61272d611737565b8110156127a157612774848281518110612749576127496154f0565b6020026020010151848381518110612763576127636154f0565b60200260200101518463ffffffff16565b848281518110612786576127866154f0565b602090810291909101015261279a81615506565b9050612725565b50505050565b6000606060006127b684612d78565b905060008160038111156127cc576127cc615521565b14156127e7576127dd878786612d8e565b925092505061283e565b60018160038111156127fb576127fb615521565b141561280b576127dd8785612e8c565b600281600381111561281f5761281f615521565b1415612831576127dd87878787612ebf565b61283c61015061100d565b505b94509492505050565b600061285684846126d5612722565b6121188285612286565b60008061286d83856154d1565b90508315806128845750826128828583615675565b145b6128a05760405162461bcd60e51b815260040161061790615689565b612118670de0b6b3a764000082615675565b6128c96001600160a01b038316151561019b610fe8565b6001600160a01b0382166000908152602081905260409020546128ef90826101a1612571565b6001600160a01b0383166000908152602081905260409020556002546129169082906154a2565b6002556040518181526000906001600160a01b03841690600080516020615a53833981519152906020015b60405180910390a35050565b600060608061295a61169e565b6000806129656121ec565b915091506000612975838c612286565b905060006129898c8585600954868f612613565b90506129988c826126d5612722565b6000806129a78e878d8d612f39565b915091506129b68e8288612fc4565b60095590975095509350505050985098509895505050505050565b60006129db61169e565b612118836129ec8660200151612fd3565b846129fa8860400151612fd3565b88606001516130f5565b6000612a0e61169e565b61211883612a1f8660200151612fd3565b84612a2d8860400151612fd3565b8860600151613192565b600080612a448484613239565b90506000612a5e612a578361271061115a565b60016110d3565b905080821015612a7357600092505050610557565b612a7d82826126d5565b92505050610557565b60006060612a9261169e565b6000612a9d84612d78565b9050612abe6000826003811115612ab657612ab6615521565b1460ce610fe8565b6000612ac98561339e565b9050612ad6610712611737565b612ae08187611dc0565b6000612aea6121ec565b5090506000612af98284612286565b90506000612b05611737565b612b0f90836154d1565b600992909255509a91995090975050505050505050565b80600254612b3491906154b9565b6002556001600160a01b038216600090815260208190526040902054612b5b9082906154b9565b6001600160a01b03831660008181526020818152604080832094909455925184815291929091600080516020615a538339815191529101612941565b6000612ba9633806be4b60e21b610953565b821480612bc45750612bc1633e56920560e01b610953565b82145b806105575750610557826133b4565b6000610557637fffffff61108f84670de0b6b3a764000061115a565b60004263ffffffff60c084901c1660e084901c80831115612c1c5750670de0b6b3a7640000949350505050565b81831015612c2f57506000949350505050565b6000612c3b83836154a2565b90506000612c4984866154a2565b90508115612c6057612c5b8183611d44565b612c6a565b670de0b6b3a76400005b979650505050505050565b6000811580612c8357508284145b15612c8f57508261066a565b670de0b6b3a76400008210612ca557508161066a565b82841115612cd7576000612cc3612cbc85876154a2565b8490612860565b9050612ccf85826126d5565b91505061066a565b6000612ce6612cbc86866154a2565b9050612ccf85826110d3565b6000838311612d035750600061258c565b6000612d0f85856111da565b90506000612d25670de0b6b3a764000088611d44565b9050612d39826709b6e64a8ec6000061175b565b91506000612d4783836133e6565b90506000612d5e612d5783613412565b8b90612860565b9050612d6a8187612860565b9a9950505050505050505050565b60008180602001905181019061055791906157de565b60006060612d9a61169e565b600080612da68561343c565b91509150612dbe612db5611737565b82106064610fe8565b600080612e0d898481518110612dd657612dd66154f0565b6020026020010151898581518110612df057612df06154f0565b602002602001015186612e0260025490565b60085460c01c61345e565b915091506000612e1b611737565b6001600160401b03811115612e3257612e32614f4a565b604051908082528060200260200182016040528015612e5b578160200160208202803683370190505b50905082818581518110612e7157612e716154f0565b60209081029190910101529399939850929650505050505050565b600060606000612e9b84613550565b90506000612eb28683612ead60025490565b613566565b9196919550909350505050565b60006060612ecb61169e565b600080612ed78561362e565b91509150612ee88251610787611737565b612ef28287611dc0565b600080612f0f8a8a86612f0460025490565b60085460c01c613646565b91509150612f218383111560cf610fe8565b612f2a816137b7565b50989197509095505050505050565b600060606000612f4884612d78565b90506001816003811115612f5e57612f5e615521565b1415612f70576127dd878787876137fc565b6002816003811115612f8457612f84615521565b1415612f95576127dd878786613864565b6003816003811115612fa957612fa9615521565b1415612fb9576127dd87856138d2565b61283c61013661100d565b600061285684846110d3612722565b6000807f00000000000000000000000000000000000000000000000000000000000000006001600160a01b0316836001600160a01b03161415613018575060006130e9565b7f00000000000000000000000000000000000000000000000000000000000000006001600160a01b0316836001600160a01b0316141561305a575060016130e9565b7f00000000000000000000000000000000000000000000000000000000000000006001600160a01b0316836001600160a01b0316141561309c575060026130e9565b7f00000000000000000000000000000000000000000000000000000000000000006001600160a01b0316836001600160a01b031614156130de575060036130e9565b6130e961013561100d565b61066a81600b54612595565b600061310986670429d069189e0000612860565b8211156131475760405162461bcd60e51b815260206004820152600c60248201526b4d41585f494e5f524154494f60a01b6044820152606401610617565b600061315383886154b9565b9050600061316188836111da565b9050600061316f8887611d44565b9050600061317d83836133e6565b9050612d6a61318b82613412565b8990612860565b60006131a684670429d069189e0000612860565b8211156131e55760405162461bcd60e51b815260206004820152600d60248201526c4d41585f4f55545f524154494f60981b6044820152606401610617565b60006131fb6131f484876154a2565b86906111da565b9050600061320985886111da565b9050600061321783836133e6565b9050600061322d670de0b6b3a7640000836154a2565b9050612d6a8a8261115a565b60008161324f5750670de0b6b3a7640000610557565b8261325c57506000610557565b61326d600160ff1b84106006610fe8565b8261329161328868056bc75e2d63100000600160fe1b615675565b84106007610fe8565b826000826132af67016345785d8a0000670de0b6b3a76400006157fb565b1280156132d457506132d1670de0b6b3a764000067016345785d8a000061583a565b83125b1561333d5760006132e4846138f8565b9050670de0b6b3a7640000836132fa828461587b565b613304919061588f565b61330e9190615914565b83613321670de0b6b3a764000084615914565b61332b919061588f565b613335919061583a565b915050613354565b8161334784613b2f565b613351919061588f565b90505b613366670de0b6b3a764000082615914565b905061339581680238fd42c5cf03ffff191315801561338e575068070c1cc73b00c800008213155b6008610fe8565b61260981614106565b60608180602001905181019061066a9190615942565b60006133c6631c74c91760e11b610953565b82148061055757506133de6350dd6ed960e01b610953565b821492915050565b6000806133f38484613239565b90506000613406612a578361271061115a565b905061258c82826110d3565b6000670de0b6b3a7640000821061342a576000610557565b61055782670de0b6b3a76400006154a2565b600080828060200190518101906134539190615988565b909590945092505050565b600080806134708561108f88826154a2565b90506709b6e64a8ec600008110156134c55760405162461bcd60e51b815260206004820152601860248201527713525397d0941517d25397d193d497d513d2d15397d3d55560421b6044820152606401610617565b60006134e36134dc670de0b6b3a76400008a611d44565b83906133e6565b905060006134f3612d5783613412565b905060006135008a613412565b9050600061350e838361115a565b9050600061351c82856154a2565b9050613528828a61115a565b965061353487836154a2565b61353e90826154b9565b97505050505050509550959350505050565b60008180602001905181019061066a91906159bf565b606060006135748484611d44565b9050600085516001600160401b0381111561359157613591614f4a565b6040519080825280602002602001820160405280156135ba578160200160208202803683370190505b50905060005b8651811015613624576135f5838883815181106135df576135df6154f0565b602002602001015161286090919063ffffffff16565b828281518110613607576136076154f0565b60209081029190910101528061361c81615506565b9150506135c0565b5095945050505050565b606060008280602001905181019061345391906159ed565b60006060600085516001600160401b0381111561366557613665614f4a565b60405190808252806020026020018201604052801561368e578160200160208202803683370190505b5090506000805b895181101561377a576136f98a82815181106136b3576136b36154f0565b60200260200101518983815181106136cd576136cd6154f0565b60200260200101518c84815181106136e7576136e76154f0565b602002602001015161108f91906154a2565b83828151811061370b5761370b6154f0565b60200260200101818152505061375c89828151811061372c5761372c6154f0565b6020026020010151848381518110613746576137466154f0565b602002602001015161115a90919063ffffffff16565b61376690836154b9565b91508061377281615506565b915050613695565b5060008061378c8b8b8b87878c61473b565b9150915060006137a561379e84613412565b8a9061115a565b9c919b50909950505050505050505050565b6137c48151610787611737565b60005b6137cf611737565b811015610772576137ec81838381518110610753576107536154f0565b6137f581615506565b90506137c7565b6000606060008061380c8561362e565b9150915061382261381b611737565b8351611000565b61382c8287611dc0565b6000806138498a8a8661383e60025490565b60085460c01c614919565b91509150613856816137b7565b612f2a8383101560d0610fe8565b600060606000806138748561343c565b91509150613883612db5611737565b600080612e0d89848151811061389b5761389b6154f0565b60200260200101518985815181106138b5576138b56154f0565b6020026020010151866138c760025490565b60085460c01c614a81565b6000606060006138e184613550565b90506000612eb286836138f360025490565b614b93565b600061390c670de0b6b3a76400008361588f565b915060006139286a0c097ce7bc90715b34b9f160241b8461583a565b6a0c097ce7bc90715b34b9f160241b61394181866157fb565b61394b919061588f565b6139559190615914565b905060006a0c097ce7bc90715b34b9f160241b613972838061588f565b61397c9190615914565b905081806a0c097ce7bc90715b34b9f160241b613999848361588f565b6139a39190615914565b91506139b0600383615914565b6139ba908261583a565b90506a0c097ce7bc90715b34b9f160241b6139d5848461588f565b6139df9190615914565b91506139ec600583615914565b6139f6908261583a565b90506a0c097ce7bc90715b34b9f160241b613a11848461588f565b613a1b9190615914565b9150613a28600783615914565b613a32908261583a565b90506a0c097ce7bc90715b34b9f160241b613a4d848461588f565b613a579190615914565b9150613a64600983615914565b613a6e908261583a565b90506a0c097ce7bc90715b34b9f160241b613a89848461588f565b613a939190615914565b9150613aa0600b83615914565b613aaa908261583a565b90506a0c097ce7bc90715b34b9f160241b613ac5848461588f565b613acf9190615914565b9150613adc600d83615914565b613ae6908261583a565b90506a0c097ce7bc90715b34b9f160241b613b01848461588f565b613b0b9190615914565b9150613b18600f83615914565b613b22908261583a565b905061260981600261588f565b6000670de0b6b3a7640000821215613b6f57613b6682613b57670de0b6b3a76400008061588f565b613b619190615914565b613b2f565b61055790615a35565b6000613b99670de0b6b3a764000072195e54c5dd42177f53a27172fa9ec63026282760241b61588f565b8312613bd757613bbf72195e54c5dd42177f53a27172fa9ec63026282760241b84615914565b9250613bd46806f05b59d3b20000008261583a565b90505b613bf5670de0b6b3a76400006b1425982cf597cd205cef738061588f565b8312613c2957613c116b1425982cf597cd205cef738084615914565b9250613c266803782dace9d90000008261583a565b90505b613c3460648261588f565b9050613c4160648461588f565b92506e01855144814a7ff805980ff00840008312613c9e576e01855144814a7ff805980ff0084000613c7c68056bc75e2d631000008561588f565b613c869190615914565b9250613c9b68ad78ebc5ac620000008261583a565b90505b6b02df0ab5a80a22c61ab5a7008312613cf3576b02df0ab5a80a22c61ab5a700613cd168056bc75e2d631000008561588f565b613cdb9190615914565b9250613cf06856bc75e2d6310000008261583a565b90505b693f1fce3da636ea5cf8508312613d4457693f1fce3da636ea5cf850613d2268056bc75e2d631000008561588f565b613d2c9190615914565b9250613d41682b5e3af16b188000008261583a565b90505b690127fa27722cc06cc5e28312613d9557690127fa27722cc06cc5e2613d7368056bc75e2d631000008561588f565b613d7d9190615914565b9250613d926815af1d78b58c4000008261583a565b90505b68280e60114edb805d038312613de45768280e60114edb805d03613dc268056bc75e2d631000008561588f565b613dcc9190615914565b9250613de1680ad78ebc5ac62000008261583a565b90505b680ebc5fb417461211108312613e3357680ebc5fb41746121110613e1168056bc75e2d631000008561588f565b613e1b9190615914565b9250613e3068056bc75e2d631000008261583a565b90505b6808f00f760a4b2db55d8312613e82576808f00f760a4b2db55d613e6068056bc75e2d631000008561588f565b613e6a9190615914565b9250613e7f6802b5e3af16b18800008261583a565b90505b6806f5f17757889379378312613ed1576806f5f1775788937937613eaf68056bc75e2d631000008561588f565b613eb99190615914565b9250613ece68015af1d78b58c400008261583a565b90505b6806248f33704b2866038312613f1f576806248f33704b286603613efe68056bc75e2d631000008561588f565b613f089190615914565b9250613f1c67ad78ebc5ac6200008261583a565b90505b6805c548670b9510e7ac8312613f6d576805c548670b9510e7ac613f4c68056bc75e2d631000008561588f565b613f569190615914565b9250613f6a6756bc75e2d63100008261583a565b90505b6000613f8268056bc75e2d631000008561583a565b68056bc75e2d63100000613f9681876157fb565b613fa0919061588f565b613faa9190615914565b9050600068056bc75e2d63100000613fc2838061588f565b613fcc9190615914565b9050818068056bc75e2d63100000613fe4848361588f565b613fee9190615914565b9150613ffb600383615914565b614005908261583a565b905068056bc75e2d6310000061401b848461588f565b6140259190615914565b9150614032600583615914565b61403c908261583a565b905068056bc75e2d63100000614052848461588f565b61405c9190615914565b9150614069600783615914565b614073908261583a565b905068056bc75e2d63100000614089848461588f565b6140939190615914565b91506140a0600983615914565b6140aa908261583a565b905068056bc75e2d631000006140c0848461588f565b6140ca9190615914565b91506140d7600b83615914565b6140e1908261583a565b90506140ee60028261588f565b905060646140fc828761583a565b612c6a9190615914565b6000614135680238fd42c5cf03ffff19831215801561412e575068070c1cc73b00c800008313155b6009610fe8565b600082121561416b5761414f61414a83615a35565b614106565b614161670de0b6b3a76400008061588f565b6105579190615914565b60006806f05b59d3b200000083126141b0576141906806f05b59d3b2000000846157fb565b925072195e54c5dd42177f53a27172fa9ec63026282760241b90506141ed565b6803782dace9d900000083126141e9576141d36803782dace9d9000000846157fb565b92506b1425982cf597cd205cef738090506141ed565b5060015b6141f860648461588f565b925068056bc75e2d6310000068ad78ebc5ac6200000084126142595761422768ad78ebc5ac62000000856157fb565b935068056bc75e2d6310000061424c6e01855144814a7ff805980ff00840008361588f565b6142569190615914565b90505b6856bc75e2d63100000084126142ab5761427c6856bc75e2d631000000856157fb565b935068056bc75e2d6310000061429e6b02df0ab5a80a22c61ab5a7008361588f565b6142a89190615914565b90505b682b5e3af16b1880000084126142fb576142ce682b5e3af16b18800000856157fb565b935068056bc75e2d631000006142ee693f1fce3da636ea5cf8508361588f565b6142f89190615914565b90505b6815af1d78b58c400000841261434b5761431e6815af1d78b58c400000856157fb565b935068056bc75e2d6310000061433e690127fa27722cc06cc5e28361588f565b6143489190615914565b90505b680ad78ebc5ac6200000841261439a5761436e680ad78ebc5ac6200000856157fb565b935068056bc75e2d6310000061438d68280e60114edb805d038361588f565b6143979190615914565b90505b68056bc75e2d6310000084126143e9576143bd68056bc75e2d63100000856157fb565b935068056bc75e2d631000006143dc680ebc5fb417461211108361588f565b6143e69190615914565b90505b6802b5e3af16b188000084126144385761440c6802b5e3af16b1880000856157fb565b935068056bc75e2d6310000061442b6808f00f760a4b2db55d8361588f565b6144359190615914565b90505b68015af1d78b58c4000084126144875761445b68015af1d78b58c40000856157fb565b935068056bc75e2d6310000061447a6806f5f17757889379378361588f565b6144849190615914565b90505b68056bc75e2d631000008461449c818361583a565b9150600268056bc75e2d631000006144b4888461588f565b6144be9190615914565b6144c89190615914565b90506144d4818361583a565b9150600368056bc75e2d631000006144ec888461588f565b6144f69190615914565b6145009190615914565b905061450c818361583a565b9150600468056bc75e2d63100000614524888461588f565b61452e9190615914565b6145389190615914565b9050614544818361583a565b9150600568056bc75e2d6310000061455c888461588f565b6145669190615914565b6145709190615914565b905061457c818361583a565b9150600668056bc75e2d63100000614594888461588f565b61459e9190615914565b6145a89190615914565b90506145b4818361583a565b9150600768056bc75e2d631000006145cc888461588f565b6145d69190615914565b6145e09190615914565b90506145ec818361583a565b9150600868056bc75e2d63100000614604888461588f565b61460e9190615914565b6146189190615914565b9050614624818361583a565b9150600968056bc75e2d6310000061463c888461588f565b6146469190615914565b6146509190615914565b905061465c818361583a565b9150600a68056bc75e2d63100000614674888461588f565b61467e9190615914565b6146889190615914565b9050614694818361583a565b9150600b68056bc75e2d631000006146ac888461588f565b6146b69190615914565b6146c09190615914565b90506146cc818361583a565b9150600c68056bc75e2d631000006146e4888461588f565b6146ee9190615914565b6146f89190615914565b9050614704818361583a565b915060648468056bc75e2d6310000061471d858761588f565b6147279190615914565b614731919061588f565b6126099190615914565b6000606085516001600160401b0381111561475857614758614f4a565b604051908082528060200260200182016040528015614781578160200160208202803683370190505b509050670de0b6b3a7640000915060005b885181101561490d5760008682815181106147af576147af6154f0565b602002602001015186111561485d5760006147de6147cc88613412565b8c85815181106135df576135df6154f0565b90506000818a85815181106147f5576147f56154f0565b602002602001015161480791906154a2565b9050600061482061217a89670de0b6b3a76400006154a2565b905061482c82826154a2565b86868151811061483e5761483e6154f0565b602090810291909101015261485381846154b9565b935050505061487a565b87828151811061486f5761486f6154f0565b602002602001015190505b60006148be8b8481518110614891576148916154f0565b6020026020010151838d86815181106148ac576148ac6154f0565b60200260200101516107d591906154a2565b90506148f66148ef8b85815181106148d8576148d86154f0565b602002602001015183612a3790919063ffffffff16565b8690612860565b94505050808061490590615506565b915050614792565b50965096945050505050565b60006060600085516001600160401b0381111561493857614938614f4a565b604051908082528060200260200182016040528015614961578160200160208202803683370190505b5090506000805b8951811015614a37576149cc8a8281518110614986576149866154f0565b60200260200101518983815181106149a0576149a06154f0565b60200260200101518c84815181106149ba576149ba6154f0565b60200260200101516107d591906154b9565b8382815181106149de576149de6154f0565b602002602001018181525050614a198982815181106149ff576149ff6154f0565b60200260200101518483815181106135df576135df6154f0565b614a2390836154b9565b915080614a2f81615506565b915050614968565b50600080614a498b8b8b87878c614c3b565b915091506000670de0b6b3a76400008311614a655760006137a5565b6137a5614a7a670de0b6b3a7640000856154a2565b8a90612860565b60008080614a938561108f88826154b9565b90506729a2241af62c0000811115614ae85760405162461bcd60e51b815260206004820152601860248201527726a0ac2fa7aaaa2fa1282a2fa327a92faa27a5a2a72fa4a760411b6044820152606401610617565b6000614aff6134dc670de0b6b3a76400008a6111da565b90506000614b1f614b18670de0b6b3a7640000846154a2565b8b9061115a565b90506000614b2c8a613412565b90506000614b3a838361115a565b90506000614b4882856154a2565b90506000614b68614b618b670de0b6b3a76400006154a2565b84906111da565b9050614b7483826154a2565b9750614b8081836154b9565b9850505050505050509550959350505050565b60606000614ba184846111da565b9050600085516001600160401b03811115614bbe57614bbe614f4a565b604051908082528060200260200182016040528015614be7578160200160208202803683370190505b50905060005b865181101561362457614c0c83888381518110613746576137466154f0565b828281518110614c1e57614c1e6154f0565b602090810291909101015280614c3381615506565b915050614bed565b6000606085516001600160401b03811115614c5857614c58614f4a565b604051908082528060200260200182016040528015614c81578160200160208202803683370190505b509050670de0b6b3a7640000915060005b885181101561490d57600085878381518110614cb057614cb06154f0565b60200260200101511115614d4b576000614cd56147cc670de0b6b3a7640000896154a2565b90506000818a8581518110614cec57614cec6154f0565b6020026020010151614cfe91906154a2565b90506000614d0c828961115a565b9050614d1881836154a2565b614d2290846154b9565b935080868681518110614d3757614d376154f0565b602002602001018181525050505050614d68565b878281518110614d5d57614d5d6154f0565b602002602001015190505b6000614d9a8b8481518110614d7f57614d7f6154f0565b6020026020010151838d86815181106149ba576149ba6154f0565b9050614db46148ef8b85815181106148d8576148d86154f0565b945050508080614dc390615506565b915050614c92565b6000815180845260005b81811015614df157602081850181015186830182015201614dd5565b81811115614e03576000602083870101525b50601f01601f19169290920160200192915050565b60208152600061066a6020830184614dcb565b6001600160a01b038116811461056e57600080fd5b80356120bb81614e2b565b60008060408385031215614e5e57600080fd5b8235614e6981614e2b565b946020939093013593505050565b801515811461056e57600080fd5b600060208284031215614e9757600080fd5b813561066a81614e77565b600081518084526020808501945080840160005b83811015614ed257815187529582019590820190600101614eb6565b509495945050505050565b60208152600061066a6020830184614ea2565b600080600060608486031215614f0557600080fd5b8335614f1081614e2b565b92506020840135614f2081614e2b565b929592945050506040919091013590565b600060208284031215614f4357600080fd5b5035919050565b634e487b7160e01b600052604160045260246000fd5b60405161012081016001600160401b0381118282101715614f8357614f83614f4a565b60405290565b604051601f8201601f191681016001600160401b0381118282101715614fb157614fb1614f4a565b604052919050565b60006001600160401b03821115614fd257614fd2614f4a565b5060051b60200190565b600082601f830112614fed57600080fd5b81356020615002614ffd83614fb9565b614f89565b82815260059290921b8401810191818101908684111561502157600080fd5b8286015b8481101561503c5780358352918301918301615025565b509695505050505050565b60008060006060848603121561505c57600080fd5b833592506020840135915060408401356001600160401b0381111561508057600080fd5b61508c86828701614fdc565b9150509250925092565b600082601f8301126150a757600080fd5b81356001600160401b038111156150c0576150c0614f4a565b6150d3601f8201601f1916602001614f89565b8181528460208386010111156150e857600080fd5b816020850160208301376000918101602001919091529392505050565b6000806040838503121561511857600080fd5b823561512381614e2b565b915060208301356001600160401b0381111561513e57600080fd5b61514a85828601615096565b9150509250929050565b600080600080600080600060e0888a03121561516f57600080fd5b87359650602088013561518181614e2b565b9550604088013561519181614e2b565b945060608801356001600160401b03808211156151ad57600080fd5b6151b98b838c01614fdc565b955060808a0135945060a08a0135935060c08a01359150808211156151dd57600080fd5b506151ea8a828b01615096565b91505092959891949750929550565b8281526040602082015260006121186040830184614ea2565b60006020828403121561522457600080fd5b813561066a81614e2b565b6040815260006152426040830185614ea2565b828103602084015261258c8185614ea2565b83815282602082015260606040820152600061258c6060830184614ea2565b60006020828403121561528557600080fd5b81356001600160e01b03198116811461066a57600080fd5b8035600281106120bb57600080fd5b6000806000606084860312156152c157600080fd5b83356001600160401b03808211156152d857600080fd5b9085019061012082880312156152ed57600080fd5b6152f5614f60565b6152fe8361529d565b815261530c60208401614e40565b602082015261531d60408401614e40565b6040820152606083013560608201526080830135608082015260a083013560a082015261534c60c08401614e40565b60c082015261535d60e08401614e40565b60e0820152610100808401358381111561537657600080fd5b6153828a828701615096565b9183019190915250976020870135975060409096013595945050505050565b600080600080600080600060e0888a0312156153bc57600080fd5b87356153c781614e2b565b965060208801356153d781614e2b565b95506040880135945060608801359350608088013560ff811681146153fb57600080fd5b9699959850939692959460a0840135945060c09093013592915050565b6000806040838503121561542b57600080fd5b823561543681614e2b565b9150602083013561544681614e2b565b809150509250929050565b600181811c9082168061546557607f821691505b6020821081141561548657634e487b7160e01b600052602260045260246000fd5b50919050565b634e487b7160e01b600052601160045260246000fd5b6000828210156154b4576154b461548c565b500390565b600082198211156154cc576154cc61548c565b500190565b60008160001904831182151516156154eb576154eb61548c565b500290565b634e487b7160e01b600052603260045260246000fd5b600060001982141561551a5761551a61548c565b5060010190565b634e487b7160e01b600052602160045260246000fd5b600082601f83011261554857600080fd5b81516020615558614ffd83614fb9565b82815260059290921b8401810191818101908684111561557757600080fd5b8286015b8481101561503c578051835291830191830161557b565b6000806000606084860312156155a757600080fd5b83516001600160401b03808211156155be57600080fd5b818601915086601f8301126155d257600080fd5b815160206155e2614ffd83614fb9565b82815260059290921b8401810191818101908a84111561560157600080fd5b948201945b8386101561562857855161561981614e2b565b82529482019490820190615606565b9189015191975090935050508082111561564157600080fd5b5061564e86828701615537565b925050604084015190509250925092565b634e487b7160e01b600052601260045260246000fd5b6000826156845761568461565f565b500490565b6020808252600c908201526b4d554c5f4f564552464c4f5760a01b604082015260600190565b6020808252600d908201526c2d22a927afa224ab24a9a4a7a760991b604082015260600190565b6020808252600c908201526b11125597d25395115493905360a21b604082015260600190565b84815283602082015260806040820152600061571b6080830185614ea2565b8281036060840152612c6a8185614ea2565b6000806000806080858703121561574357600080fd5b845193506020850151925060408501519150606085015161576381614e2b565b939692955090935050565b8281526040602082015260006121186040830184614dcb565b8183823760009101908152919050565b6000602082840312156157a957600080fd5b815161066a81614e2b565b6000602082840312156157c657600080fd5b815161066a81614e77565b6004811061056e57600080fd5b6000602082840312156157f057600080fd5b815161066a816157d1565b60008083128015600160ff1b8501841216156158195761581961548c565b6001600160ff1b03840183138116156158345761583461548c565b50500390565b600080821280156001600160ff1b038490038513161561585c5761585c61548c565b600160ff1b83900384128116156158755761587561548c565b50500190565b60008261588a5761588a61565f565b500790565b60006001600160ff1b03818413828413808216868404861116156158b5576158b561548c565b600160ff1b60008712828116878305891216156158d4576158d461548c565b600087129250878205871284841616156158f0576158f061548c565b878505871281841616156159065761590661548c565b505050929093029392505050565b6000826159235761592361565f565b600160ff1b82146000198414161561593d5761593d61548c565b500590565b6000806040838503121561595557600080fd5b8251615960816157d1565b60208401519092506001600160401b0381111561597c57600080fd5b61514a85828601615537565b60008060006060848603121561599d57600080fd5b83516159a8816157d1565b602085015160409095015190969495509392505050565b600080604083850312156159d257600080fd5b82516159dd816157d1565b6020939093015192949293505050565b600080600060608486031215615a0257600080fd5b8351615a0d816157d1565b60208501519093506001600160401b03811115615a2957600080fd5b61564e86828701615537565b6000600160ff1b821415615a4b57615a4b61548c565b506000039056feddf252ad1be2c89b69c2b068fc378daa952ba7f163c4a11628f55a4df523b3efa2646970667358221220896b0f5eb31a8b3a6f3da7d5f2c46f0cef04c90d5953454588731947c0d9887964736f6c634300080a0033",
  "linkReferences": {},
  "deployedLinkReferences": {}
}