{
  "_format": "hh-sol-artifact-1",
  "contractName": "StakePoolEpochReward",
  "sourceName": "contracts/StakePoolEpochReward.sol",
  "abi": [
    {
      "inputs": [
        {
          "internalType": "address",
          "name": "_controller",
          "type": "address"
        },
        {
          "internalType": "uint256",
          "name": "_version",
          "type": "uint256"
        }
      ],
      "stateMutability": "nonpayable",
      "type": "constructor"
    },
    {
      "anonymous": false,
      "inputs": [
        {
          "indexed": false,
          "internalType": "uint256",
          "name": "blocktime",
          "type": "uint256"
        },
        {
          "indexed": false,
          "internalType": "uint256",
          "name": "amount",
          "type": "uint256"
        }
      ],
      "name": "AllocateReward",
      "type": "event"
    },
    {
      "anonymous": false,
      "inputs": [
        {
          "indexed": true,
          "internalType": "address",
          "name": "account",
          "type": "address"
        },
        {
          "indexed": false,
          "internalType": "uint256",
          "name": "amount",
          "type": "uint256"
        }
      ],
      "name": "Deposit",
      "type": "event"
    },
    {
      "anonymous": false,
      "inputs": [
        {
          "indexed": true,
          "internalType": "uint256",
          "name": "poolId",
          "type": "uint256"
        },
        {
          "indexed": true,
          "internalType": "address",
          "name": "rewardToken",
          "type": "address"
        },
        {
          "indexed": true,
          "internalType": "address",
          "name": "account",
          "type": "address"
        },
        {
          "indexed": false,
          "internalType": "uint256",
          "name": "pendingReward",
          "type": "uint256"
        },
        {
          "indexed": false,
          "internalType": "uint256",
          "name": "rebaseAmount",
          "type": "uint256"
        },
        {
          "indexed": false,
          "internalType": "uint256",
          "name": "paidReward",
          "type": "uint256"
        }
      ],
      "name": "PayRewardPool",
      "type": "event"
    },
    {
      "anonymous": false,
      "inputs": [
        {
          "indexed": true,
          "internalType": "address",
          "name": "account",
          "type": "address"
        },
        {
          "indexed": false,
          "internalType": "uint256",
          "name": "amount",
          "type": "uint256"
        }
      ],
      "name": "Withdraw",
      "type": "event"
    },
    {
      "inputs": [],
      "name": "BLOCKS_PER_DAY",
      "outputs": [
        {
          "internalType": "uint256",
          "name": "",
          "type": "uint256"
        }
      ],
      "stateMutability": "view",
      "type": "function"
    },
    {
      "inputs": [
        {
          "internalType": "uint256",
          "name": "_amount",
          "type": "uint256"
        }
      ],
      "name": "allocateReward",
      "outputs": [],
      "stateMutability": "nonpayable",
      "type": "function"
    },
    {
      "inputs": [
        {
          "internalType": "address",
          "name": "_token",
          "type": "address"
        }
      ],
      "name": "allowRecoverRewardToken",
      "outputs": [
        {
          "internalType": "bool",
          "name": "",
          "type": "bool"
        }
      ],
      "stateMutability": "view",
      "type": "function"
    },
    {
      "inputs": [],
      "name": "balance",
      "outputs": [
        {
          "internalType": "uint256",
          "name": "",
          "type": "uint256"
        }
      ],
      "stateMutability": "view",
      "type": "function"
    },
    {
      "inputs": [
        {
          "internalType": "address",
          "name": "_account",
          "type": "address"
        }
      ],
      "name": "canClaimReward",
      "outputs": [
        {
          "internalType": "bool",
          "name": "",
          "type": "bool"
        }
      ],
      "stateMutability": "view",
      "type": "function"
    },
    {
      "inputs": [
        {
          "internalType": "address",
          "name": "_account",
          "type": "address"
        }
      ],
      "name": "canWithdraw",
      "outputs": [
        {
          "internalType": "bool",
          "name": "",
          "type": "bool"
        }
      ],
      "stateMutability": "view",
      "type": "function"
    },
    {
      "inputs": [],
      "name": "claimReward",
      "outputs": [],
      "stateMutability": "nonpayable",
      "type": "function"
    },
    {
      "inputs": [],
      "name": "controller",
      "outputs": [
        {
          "internalType": "address",
          "name": "",
          "type": "address"
        }
      ],
      "stateMutability": "view",
      "type": "function"
    },
    {
      "inputs": [
        {
          "internalType": "address",
          "name": "_account",
          "type": "address"
        }
      ],
      "name": "earned",
      "outputs": [
        {
          "internalType": "uint256",
          "name": "",
          "type": "uint256"
        }
      ],
      "stateMutability": "view",
      "type": "function"
    },
    {
      "inputs": [],
      "name": "emergencyWithdraw",
      "outputs": [],
      "stateMutability": "nonpayable",
      "type": "function"
    },
    {
      "inputs": [],
      "name": "epoch",
      "outputs": [
        {
          "internalType": "uint256",
          "name": "",
          "type": "uint256"
        }
      ],
      "stateMutability": "view",
      "type": "function"
    },
    {
      "inputs": [],
      "name": "epochController",
      "outputs": [
        {
          "internalType": "address",
          "name": "",
          "type": "address"
        }
      ],
      "stateMutability": "view",
      "type": "function"
    },
    {
      "inputs": [],
      "name": "exit",
      "outputs": [],
      "stateMutability": "nonpayable",
      "type": "function"
    },
    {
      "inputs": [
        {
          "internalType": "address",
          "name": "_account",
          "type": "address"
        }
      ],
      "name": "getLastSnapshotIndexOf",
      "outputs": [
        {
          "internalType": "uint256",
          "name": "",
          "type": "uint256"
        }
      ],
      "stateMutability": "view",
      "type": "function"
    },
    {
      "inputs": [
        {
          "internalType": "address",
          "name": "_stakeToken",
          "type": "address"
        },
        {
          "internalType": "address",
          "name": "_rewardFund",
          "type": "address"
        },
        {
          "internalType": "address",
          "name": "_timelock",
          "type": "address"
        },
        {
          "internalType": "address",
          "name": "_epochController",
          "type": "address"
        },
        {
          "internalType": "address",
          "name": "_rewardToken",
          "type": "address"
        },
        {
          "internalType": "uint256",
          "name": "_withdrawLockupEpochs",
          "type": "uint256"
        },
        {
          "internalType": "uint256",
          "name": "_rewardLockupEpochs",
          "type": "uint256"
        }
      ],
      "name": "initialize",
      "outputs": [],
      "stateMutability": "nonpayable",
      "type": "function"
    },
    {
      "inputs": [],
      "name": "latestSnapshotIndex",
      "outputs": [
        {
          "internalType": "uint256",
          "name": "",
          "type": "uint256"
        }
      ],
      "stateMutability": "view",
      "type": "function"
    },
    {
      "inputs": [],
      "name": "nextEpochAllocatedReward",
      "outputs": [
        {
          "internalType": "uint256",
          "name": "",
          "type": "uint256"
        }
      ],
      "stateMutability": "view",
      "type": "function"
    },
    {
      "inputs": [],
      "name": "nextEpochLength",
      "outputs": [
        {
          "internalType": "uint256",
          "name": "",
          "type": "uint256"
        }
      ],
      "stateMutability": "view",
      "type": "function"
    },
    {
      "inputs": [],
      "name": "nextEpochPoint",
      "outputs": [
        {
          "internalType": "uint256",
          "name": "",
          "type": "uint256"
        }
      ],
      "stateMutability": "view",
      "type": "function"
    },
    {
      "inputs": [],
      "name": "rewardFund",
      "outputs": [
        {
          "internalType": "address",
          "name": "",
          "type": "address"
        }
      ],
      "stateMutability": "view",
      "type": "function"
    },
    {
      "inputs": [],
      "name": "rewardLockupEpochs",
      "outputs": [
        {
          "internalType": "uint256",
          "name": "",
          "type": "uint256"
        }
      ],
      "stateMutability": "view",
      "type": "function"
    },
    {
      "inputs": [],
      "name": "rewardPerShare",
      "outputs": [
        {
          "internalType": "uint256",
          "name": "",
          "type": "uint256"
        }
      ],
      "stateMutability": "view",
      "type": "function"
    },
    {
      "inputs": [],
      "name": "rewardToken",
      "outputs": [
        {
          "internalType": "address",
          "name": "",
          "type": "address"
        }
      ],
      "stateMutability": "view",
      "type": "function"
    },
    {
      "inputs": [
        {
          "internalType": "address",
          "name": "_epochController",
          "type": "address"
        }
      ],
      "name": "setEpochController",
      "outputs": [],
      "stateMutability": "nonpayable",
      "type": "function"
    },
    {
      "inputs": [
        {
          "internalType": "uint256",
          "name": "_withdrawLockupEpochs",
          "type": "uint256"
        },
        {
          "internalType": "uint256",
          "name": "_rewardLockupEpochs",
          "type": "uint256"
        }
      ],
      "name": "setLockUp",
      "outputs": [],
      "stateMutability": "nonpayable",
      "type": "function"
    },
    {
      "inputs": [
        {
          "internalType": "uint256",
          "name": "",
          "type": "uint256"
        }
      ],
      "name": "snapshotHistory",
      "outputs": [
        {
          "internalType": "uint256",
          "name": "time",
          "type": "uint256"
        },
        {
          "internalType": "uint256",
          "name": "rewardReceived",
          "type": "uint256"
        },
        {
          "internalType": "uint256",
          "name": "rewardPerShare",
          "type": "uint256"
        }
      ],
      "stateMutability": "view",
      "type": "function"
    },
    {
      "inputs": [
        {
          "internalType": "uint256",
          "name": "_amount",
          "type": "uint256"
        }
      ],
      "name": "stake",
      "outputs": [],
      "stateMutability": "nonpayable",
      "type": "function"
    },
    {
      "inputs": [
        {
          "internalType": "address",
          "name": "_account",
          "type": "address"
        }
      ],
      "name": "stakeFor",
      "outputs": [],
      "stateMutability": "nonpayable",
      "type": "function"
    },
    {
      "inputs": [],
      "name": "stakeToken",
      "outputs": [
        {
          "internalType": "address",
          "name": "",
          "type": "address"
        }
      ],
      "stateMutability": "view",
      "type": "function"
    },
    {
      "inputs": [],
      "name": "timelock",
      "outputs": [
        {
          "internalType": "address",
          "name": "",
          "type": "address"
        }
      ],
      "stateMutability": "view",
      "type": "function"
    },
    {
      "inputs": [
        {
          "internalType": "address",
          "name": "_account",
          "type": "address"
        }
      ],
      "name": "unlockRewardEpoch",
      "outputs": [
        {
          "internalType": "uint256",
          "name": "",
          "type": "uint256"
        }
      ],
      "stateMutability": "view",
      "type": "function"
    },
    {
      "inputs": [
        {
          "internalType": "address",
          "name": "_account",
          "type": "address"
        }
      ],
      "name": "unlockWithdrawEpoch",
      "outputs": [
        {
          "internalType": "uint256",
          "name": "",
          "type": "uint256"
        }
      ],
      "stateMutability": "view",
      "type": "function"
    },
    {
      "inputs": [
        {
          "internalType": "address",
          "name": "",
          "type": "address"
        }
      ],
      "name": "userInfo",
      "outputs": [
        {
          "internalType": "uint256",
          "name": "amount",
          "type": "uint256"
        },
        {
          "internalType": "uint256",
          "name": "lastSnapshotIndex",
          "type": "uint256"
        },
        {
          "internalType": "uint256",
          "name": "rewardEarned",
          "type": "uint256"
        },
        {
          "internalType": "uint256",
          "name": "epochTimerStart",
          "type": "uint256"
        }
      ],
      "stateMutability": "view",
      "type": "function"
    },
    {
      "inputs": [],
      "name": "version",
      "outputs": [
        {
          "internalType": "uint256",
          "name": "",
          "type": "uint256"
        }
      ],
      "stateMutability": "view",
      "type": "function"
    },
    {
      "inputs": [
        {
          "internalType": "uint256",
          "name": "_amount",
          "type": "uint256"
        }
      ],
      "name": "withdraw",
      "outputs": [],
      "stateMutability": "nonpayable",
      "type": "function"
    },
    {
      "inputs": [],
      "name": "withdrawLockupEpochs",
      "outputs": [
        {
          "internalType": "uint256",
          "name": "",
          "type": "uint256"
        }
      ],
      "stateMutability": "view",
      "type": "function"
    }
  ],
  "bytecode": "0x60806040526001600c55600d805460ff1916905534801561001f57600080fd5b50604051611d89380380611d8983398101604081905261003e91610112565b600a80546001600160a01b039093166001600160a01b031993841617905560098054909216331790915560009081556040805160608101825243815260208101838152918101838152600680546001810182559452905160039093027ff652222313e28459528d920b65115c16c04f3efc82aaedc97be59f3f377c0d3f81019390935590517ff652222313e28459528d920b65115c16c04f3efc82aaedc97be59f3f377c0d40830155517ff652222313e28459528d920b65115c16c04f3efc82aaedc97be59f3f377c0d419091015561014c565b6000806040838503121561012557600080fd5b82516001600160a01b038116811461013c57600080fd5b6020939093015192949293505050565b611c2e8061015b6000396000f3fe608060405234801561001057600080fd5b506004361061021b5760003560e01c80635a9c064411610125578063c5967c26116100ad578063e7d80e311161007c578063e7d80e3114610496578063e9fad8ee146104a9578063efe22266146104b1578063f77c4791146104c4578063f7c618c1146104d757600080fd5b8063c5967c2614610460578063d33219b414610468578063db2e21bc1461047b578063e2dcb6161461048357600080fd5b8063900cf0cf116100f4578063900cf0cf14610421578063a694fc3a14610429578063b33f95271461043c578063b69ef8a81461044f578063b88a802f1461045857600080fd5b80635a9c0644146103c657806362e7e463146103d95780636bb987fe146103ec578063714b4658146103f557600080fd5b806322455618116101a85780633f9e3f04116101775780633f9e3f0414610387578063446a2ec81461038f5780634bf692061461039757806351ed6a30146103aa57806354fd4d50146103bd57600080fd5b806322455618146103445780632e1a7d4d1461034c5780632ffaaa09146103615780633468a5b81461037457600080fd5b806307284ce9116101ef57806307284ce91461029d57806311815a39146102a557806319262d30146102d35780631959a002146102e65780631e85cd651461033b57600080fd5b80628cc26214610220578063022ba18d1461024657806303df48681461024f578063046335d01461027a575b600080fd5b61023361022e3660046119f2565b6104ea565b6040519081526020015b60405180910390f35b61023360045481565b600154610262906001600160a01b031681565b6040516001600160a01b03909116815260200161023d565b61028d6102883660046119f2565b610590565b604051901515815260200161023d565b6102336105ca565b6102b86102b3366004611a0d565b61064c565b6040805193845260208401929092529082015260600161023d565b61028d6102e13660046119f2565b61067f565b61031b6102f43660046119f2565b60056020526000908152604090208054600182015460028301546003909301549192909184565b60408051948552602085019390935291830152606082015260800161023d565b61023360035481565b6102336106b2565b61035f61035a366004611a0d565b6106f6565b005b61035f61036f366004611a26565b610783565b61028d6103823660046119f2565b610863565b6102336108b3565b6102336108c4565b61035f6103a53660046119f2565b6108d7565b600754610262906001600160a01b031681565b61023360005481565b61035f6103d43660046119f2565b6109cd565b6102336103e73660046119f2565b610a87565b61023361708081565b6102336104033660046119f2565b6001600160a01b031660009081526005602052604090206001015490565b610233610ab8565b61035f610437366004611a0d565b610afd565b61035f61044a366004611a48565b610b45565b610233600b5481565b61035f610c1e565b610233610c2a565b600954610262906001600160a01b031681565b61035f610c6f565b61035f610491366004611a0d565b610d93565b6102336104a43660046119f2565b6110cd565b61035f6110f6565b600854610262906001600160a01b031681565b600a54610262906001600160a01b031681565b600254610262906001600160a01b031681565b6000806104f561110f565b604001519050600061050684611189565b6040908101516001600160a01b0386166000908152600560209081529083902083516080810185528154815260018201549281019290925260028101549382018490526003015460608201529092509061058790610581670de0b6b3a764000061057b610573888861121f565b865190611234565b90611240565b9061124c565b95945050505050565b600061059a610ab8565b6004546001600160a01b0384166000908152600560205260409020600301546105c29161124c565b111592915050565b600154604080516307284ce960e01b815290516000926001600160a01b0316916307284ce9916004808301926020929190829003018186803b15801561060f57600080fd5b505afa158015610623573d6000803e3d6000fd5b505050506040513d601f19601f820116820180604052508101906106479190611ac0565b905090565b6006818154811061065c57600080fd5b600091825260209091206003909102018054600182015460029092015490925083565b6000610689610ab8565b600380546001600160a01b0385166000908152600560205260409020909101546105c29161124c565b600154604051633f7fd2db60e11b81523060048201526000916001600160a01b031690637effa5b69060240160206040518083038186803b15801561060f57600080fd5b600c546001146107215760405162461bcd60e51b815260040161071890611ad9565b60405180910390fd5b6000600c5561072f81611269565b600754610746906001600160a01b03163383611370565b60405181815233907f884edad9ce6fa2440d8a54cc123490eb96d2768479d49ff9c7366125a94243649060200160405180910390a2506001600c55565b600c546001146107a55760405162461bcd60e51b815260040161071890611ad9565b6000600c556009546001600160a01b031633146107f65760405162461bcd60e51b815260206004820152600f60248201526e535045523a202174696d656c6f636b60881b6044820152606401610718565b808210158015610807575060388211155b6108535760405162461bcd60e51b815260206004820152601c60248201527f5f77697468647261774c6f636b757045706f6368733a2072616e6765000000006044820152606401610718565b6003919091556004556001600c55565b6002546000906001600160a01b03838116911614156108ab576108896170806007611b15565b61089161110f565b5161089c9190611b34565b4310156108ab57506000919050565b506001919050565b60065460009061064790600161121f565b60006108ce61110f565b60400151905090565b600c546001146108f95760405162461bcd60e51b815260040161071890611ad9565b6000600c55600a54604051630e4e9d2160e21b81523360048201526001600160a01b039091169063393a74849060240160206040518083038186803b15801561094157600080fd5b505afa158015610955573d6000803e3d6000fd5b505050506040513d601f19601f820116820180604052508101906109799190611b4c565b6109bc5760405162461bcd60e51b815260206004820152601460248201527329a822a91d1024b73b30b634b21039b2b73232b960611b6044820152606401610718565b6109c58161148b565b506001600c55565b600c546001146109ef5760405162461bcd60e51b815260040161071890611ad9565b6000600c556009546001600160a01b03163314610a405760405162461bcd60e51b815260206004820152600f60248201526e535045523a202174696d656c6f636b60881b6044820152606401610718565b600180546001600160a01b0319166001600160a01b038316179055610a63610ab8565b50610a6c610c2a565b50610a756105ca565b50610a7e6106b2565b50506001600c55565b6004546001600160a01b0382166000908152600560205260408120600301549091610ab2919061124c565b92915050565b6001546040805163900cf0cf60e01b815290516000926001600160a01b03169163900cf0cf916004808301926020929190829003018186803b15801561060f57600080fd5b600c54600114610b1f5760405162461bcd60e51b815260040161071890611ad9565b6000600c55600754610b3c906001600160a01b03163330846115e8565b6109c53361148b565b600d5460ff1615610b985760405162461bcd60e51b815260206004820152601f60248201527f535045523a20496e697469616c697a65206d7573742062652066616c73652e006044820152606401610718565b600780546001600160a01b03808a166001600160a01b031992831617909255600280548684169083161790556008805492891692909116919091179055610bde846109cd565b610be88282610783565b5050600980546001600160a01b0319166001600160a01b0394909416939093179092555050600d805460ff191660011790555050565b610c286001611718565b565b600154604080516362cb3e1360e11b815290516000926001600160a01b03169163c5967c26916004808301926020929190829003018186803b15801561060f57600080fd5b600c54600114610c915760405162461bcd60e51b815260040161071890611ad9565b6000600c55600a5460405163753a084f60e11b81523060048201526001600160a01b039091169063ea74109e9060240160206040518083038186803b158015610cd957600080fd5b505afa158015610ced573d6000803e3d6000fd5b505050506040513d601f19601f82011682018060405250810190610d119190611b4c565b610d515760405162461bcd60e51b815260206004820152601160248201527014d411548e88139bdd08185b1b1bddd959607a1b6044820152606401610718565b3360009081526005602052604090208054600b54610d6f908261121f565b600b5560008083556002830155600754610a7e906001600160a01b03163383611370565b600c54600114610db55760405162461bcd60e51b815260040161071890611ad9565b6000600c556001546001600160a01b03163314610e0d5760405162461bcd60e51b815260206004820152601660248201527529a822a91d1010b2b837b1b421b7b73a3937b63632b960511b6044820152606401610718565b60008111610e5d5760405162461bcd60e51b815260206004820152601760248201527f535045523a2043616e6e6f7420616c6c6f6361746520300000000000000000006044820152606401610718565b6002546008546040516370a0823160e01b81526001600160a01b03918216600482015260009291909116906370a082319060240160206040518083038186803b158015610ea957600080fd5b505afa158015610ebd573d6000803e3d6000fd5b505050506040513d601f19601f82011682018060405250810190610ee19190611ac0565b600254600854919250610f03916001600160a01b0391821691339116856115e8565b600b5415610a7e576002546008546040516370a0823160e01b81526001600160a01b03918216600482015260009291909116906370a082319060240160206040518083038186803b158015610f5757600080fd5b505afa158015610f6b573d6000803e3d6000fd5b505050506040513d601f19601f82011682018060405250810190610f8f9190611ac0565b9050610f9b818361121f565b92506000610fa761110f565b6040015190506000610fda610fd3600b5461057b670de0b6b3a76400008961123490919063ffffffff16565b839061124c565b604080516060810182524380825260208083018a905282840185905283519182528101899052929350917fae0e1452e3105698745005d16edaee897b9daf225b8434ea419008b58e60cb76910160405180910390a160068054600181018255600091909152815160039091027ff652222313e28459528d920b65115c16c04f3efc82aaedc97be59f3f377c0d3f81019190915560208201517ff652222313e28459528d920b65115c16c04f3efc82aaedc97be59f3f377c0d408201556040909101517ff652222313e28459528d920b65115c16c04f3efc82aaedc97be59f3f377c0d419091015550505050506001600c55565b600380546001600160a01b038316600090815260056020526040812090920154610ab29161124c565b33600090815260056020526040902054610c28906106f6565b61113360405180606001604052806000815260200160008152602001600081525090565b600661113d6108b3565b8154811061114d5761114d611b6e565b90600052602060002090600302016040518060600160405290816000820154815260200160018201548152602001600282015481525050905090565b6111ad60405180606001604052806000815260200160008152602001600081525090565b60066111d1836001600160a01b031660009081526005602052604090206001015490565b815481106111e1576111e1611b6e565b906000526020600020906003020160405180606001604052908160008201548152602001600182015481526020016002820154815250509050919050565b600061122d83836001611956565b9392505050565b600061122d8284611b15565b600061122d8284611b84565b6000806112598385611b34565b905061122d848210156000611971565b33600090815260056020526040812090611281610ab8565b90508061129d600354846003015461124c90919063ffffffff16565b11156112eb5760405162461bcd60e51b815260206004820152601e60248201527f535045523a207374696c6c20696e207769746864726177206c6f636b757000006044820152606401610718565b815483111561133c5760405162461bcd60e51b815260206004820152601d60248201527f535045523a20696e76616c696420776974686472617720616d6f756e740000006044820152606401610718565b6113466000611718565b600b54611353908461121f565b600b55600382018190558154611369908461121f565b9091555050565b604080516001600160a01b038481166024830152604480830185905283518084039091018152606490920183526020820180516001600160e01b031663a9059cbb60e01b17905291516000928392908716916113cc9190611ba6565b6000604051808303816000865af19150503d8060008114611409576040519150601f19603f3d011682016040523d82523d6000602084013e61140e565b606091505b50915091508180156114385750805115806114385750808060200190518101906114389190611b4c565b6114845760405162461bcd60e51b815260206004820152601f60248201527f5472616e7366657248656c7065723a205452414e534645525f4641494c4544006044820152606401610718565b5050505050565b600b546007546040516370a0823160e01b81523060048201526000926115189290916001600160a01b03909116906370a082319060240160206040518083038186803b1580156114da57600080fd5b505afa1580156114ee573d6000803e3d6000fd5b505050506040513d601f19601f820116820180604052508101906115129190611ac0565b9061121f565b9050600081116115625760405162461bcd60e51b8152602060048201526015602482015274535045523a20496e76616c69642062616c616e636560581b6044820152606401610718565b600b5461156f908261124c565b600b556001600160a01b0382166000908152600560205260409020611592610ab8565b600382015580546115a3908361124c565b81556040518281526001600160a01b038416907fe1fffcc4923d04b559f4d29a8bfc6cda04eb5b0d3c460751c2402c5c5cc9109c9060200160405180910390a2505050565b604080516001600160a01b0385811660248301528481166044830152606480830185905283518084039091018152608490920183526020820180516001600160e01b03166323b872dd60e01b179052915160009283929088169161164c9190611ba6565b6000604051808303816000865af19150503d8060008114611689576040519150601f19603f3d011682016040523d82523d6000602084013e61168e565b606091505b50915091508180156116b85750805115806116b85750808060200190518101906116b89190611b4c565b6117105760405162461bcd60e51b8152602060048201526024808201527f5472616e7366657248656c7065723a205452414e534645525f46524f4d5f46416044820152631253115160e21b6064820152608401610718565b505050505050565b338015611754576001600160a01b0381166000908152600560205260409020611740826104ea565b600282015561174d6108b3565b6001909101555b336000908152600560205260409020600281015480156119505783156117ee57600061177e610ab8565b90508061179a600454856003015461124c90919063ffffffff16565b11156117e85760405162461bcd60e51b815260206004820152601c60248201527f535045523a207374696c6c20696e20726577617264206c6f636b7570000000006044820152606401610718565b60038301555b60006002838101829055546008546040516370a0823160e01b81526001600160a01b0391821660048201529116906370a082319060240160206040518083038186803b15801561183d57600080fd5b505afa158015611851573d6000803e3d6000fd5b505050506040513d601f19601f820116820180604052508101906118759190611ac0565b905060008282116118865781611888565b825b60085460025460405163d1660f9960e01b81526001600160a01b03918216600482015233602482015260448101849052929350169063d1660f9990606401600060405180830381600087803b1580156118e057600080fd5b505af11580156118f4573d6000803e3d6000fd5b505060025460408051878152602081018890529081018590523393506001600160a01b0390911691506000907f16dc511f817964d1eb39e0c3e84ce317f07b5b12cdfa1f8c2f179a08836af51a9060600160405180910390a450505b50505050565b60006119658484111583611971565b60006105878486611be1565b8161197f5761197f81611983565b5050565b62461bcd60e51b6000908152602060045260076024526642414c23000030600a808404818106603090810160081b95839006959095019082900491820690940160101b939093010160c81b604452606490fd5b80356001600160a01b03811681146119ed57600080fd5b919050565b600060208284031215611a0457600080fd5b61122d826119d6565b600060208284031215611a1f57600080fd5b5035919050565b60008060408385031215611a3957600080fd5b50508035926020909101359150565b600080600080600080600060e0888a031215611a6357600080fd5b611a6c886119d6565b9650611a7a602089016119d6565b9550611a88604089016119d6565b9450611a96606089016119d6565b9350611aa4608089016119d6565b925060a0880135915060c0880135905092959891949750929550565b600060208284031215611ad257600080fd5b5051919050565b6020808252600c908201526b14d411548e881313d0d2d15160a21b604082015260600190565b634e487b7160e01b600052601160045260246000fd5b6000816000190483118215151615611b2f57611b2f611aff565b500290565b60008219821115611b4757611b47611aff565b500190565b600060208284031215611b5e57600080fd5b8151801515811461122d57600080fd5b634e487b7160e01b600052603260045260246000fd5b600082611ba157634e487b7160e01b600052601260045260246000fd5b500490565b6000825160005b81811015611bc75760208186018101518583015201611bad565b81811115611bd6576000828501525b509190910192915050565b600082821015611bf357611bf3611aff565b50039056fea264697066735822122082e1ffbf9cf757f0bba70f258362d409eae3837bd79143847e8cf194b124e05064736f6c63430008090033",
  "linkReferences": {},
  "deployedLinkReferences": {}
}