{
  "_format": "hh-sol-artifact-1",
  "contractName": "TestToken",
  "sourceName": "contracts/test/TestToken.sol",
  "abi": [
    {
      "inputs": [
        {
          "internalType": "address",
          "name": "admin",
          "type": "address"
        },
        {
          "internalType": "string",
          "name": "name",
          "type": "string"
        },
        {
          "internalType": "string",
          "name": "symbol",
          "type": "string"
        }
      ],
      "stateMutability": "nonpayable",
      "type": "constructor"
    },
    {
      "anonymous": false,
      "inputs": [
        {
          "indexed": true,
          "internalType": "address",
          "name": "owner",
          "type": "address"
        },
        {
          "indexed": true,
          "internalType": "address",
          "name": "spender",
          "type": "address"
        },
        {
          "indexed": false,
          "internalType": "uint256",
          "name": "value",
          "type": "uint256"
        }
      ],
      "name": "Approval",
      "type": "event"
    },
    {
      "anonymous": false,
      "inputs": [
        {
          "indexed": true,
          "internalType": "bytes32",
          "name": "role",
          "type": "bytes32"
        },
        {
          "indexed": true,
          "internalType": "bytes32",
          "name": "previousAdminRole",
          "type": "bytes32"
        },
        {
          "indexed": true,
          "internalType": "bytes32",
          "name": "newAdminRole",
          "type": "bytes32"
        }
      ],
      "name": "RoleAdminChanged",
      "type": "event"
    },
    {
      "anonymous": false,
      "inputs": [
        {
          "indexed": true,
          "internalType": "bytes32",
          "name": "role",
          "type": "bytes32"
        },
        {
          "indexed": true,
          "internalType": "address",
          "name": "account",
          "type": "address"
        },
        {
          "indexed": true,
          "internalType": "address",
          "name": "sender",
          "type": "address"
        }
      ],
      "name": "RoleGranted",
      "type": "event"
    },
    {
      "anonymous": false,
      "inputs": [
        {
          "indexed": true,
          "internalType": "bytes32",
          "name": "role",
          "type": "bytes32"
        },
        {
          "indexed": true,
          "internalType": "address",
          "name": "account",
          "type": "address"
        },
        {
          "indexed": true,
          "internalType": "address",
          "name": "sender",
          "type": "address"
        }
      ],
      "name": "RoleRevoked",
      "type": "event"
    },
    {
      "anonymous": false,
      "inputs": [
        {
          "indexed": true,
          "internalType": "address",
          "name": "from",
          "type": "address"
        },
        {
          "indexed": true,
          "internalType": "address",
          "name": "to",
          "type": "address"
        },
        {
          "indexed": false,
          "internalType": "uint256",
          "name": "value",
          "type": "uint256"
        }
      ],
      "name": "Transfer",
      "type": "event"
    },
    {
      "inputs": [],
      "name": "DEFAULT_ADMIN_ROLE",
      "outputs": [
        {
          "internalType": "bytes32",
          "name": "",
          "type": "bytes32"
        }
      ],
      "stateMutability": "view",
      "type": "function"
    },
    {
      "inputs": [],
      "name": "MINTER_ROLE",
      "outputs": [
        {
          "internalType": "bytes32",
          "name": "",
          "type": "bytes32"
        }
      ],
      "stateMutability": "view",
      "type": "function"
    },
    {
      "inputs": [
        {
          "internalType": "address",
          "name": "owner",
          "type": "address"
        },
        {
          "internalType": "address",
          "name": "spender",
          "type": "address"
        }
      ],
      "name": "allowance",
      "outputs": [
        {
          "internalType": "uint256",
          "name": "",
          "type": "uint256"
        }
      ],
      "stateMutability": "view",
      "type": "function"
    },
    {
      "inputs": [
        {
          "internalType": "address",
          "name": "spender",
          "type": "address"
        },
        {
          "internalType": "uint256",
          "name": "amount",
          "type": "uint256"
        }
      ],
      "name": "approve",
      "outputs": [
        {
          "internalType": "bool",
          "name": "",
          "type": "bool"
        }
      ],
      "stateMutability": "nonpayable",
      "type": "function"
    },
    {
      "inputs": [
        {
          "internalType": "address",
          "name": "account",
          "type": "address"
        }
      ],
      "name": "balanceOf",
      "outputs": [
        {
          "internalType": "uint256",
          "name": "",
          "type": "uint256"
        }
      ],
      "stateMutability": "view",
      "type": "function"
    },
    {
      "inputs": [
        {
          "internalType": "uint256",
          "name": "amount",
          "type": "uint256"
        }
      ],
      "name": "burn",
      "outputs": [],
      "stateMutability": "nonpayable",
      "type": "function"
    },
    {
      "inputs": [
        {
          "internalType": "address",
          "name": "account",
          "type": "address"
        },
        {
          "internalType": "uint256",
          "name": "amount",
          "type": "uint256"
        }
      ],
      "name": "burnFrom",
      "outputs": [],
      "stateMutability": "nonpayable",
      "type": "function"
    },
    {
      "inputs": [],
      "name": "decimals",
      "outputs": [
        {
          "internalType": "uint8",
          "name": "",
          "type": "uint8"
        }
      ],
      "stateMutability": "view",
      "type": "function"
    },
    {
      "inputs": [
        {
          "internalType": "address",
          "name": "spender",
          "type": "address"
        },
        {
          "internalType": "uint256",
          "name": "subtractedValue",
          "type": "uint256"
        }
      ],
      "name": "decreaseAllowance",
      "outputs": [
        {
          "internalType": "bool",
          "name": "",
          "type": "bool"
        }
      ],
      "stateMutability": "nonpayable",
      "type": "function"
    },
    {
      "inputs": [
        {
          "internalType": "bytes32",
          "name": "role",
          "type": "bytes32"
        }
      ],
      "name": "getRoleAdmin",
      "outputs": [
        {
          "internalType": "bytes32",
          "name": "",
          "type": "bytes32"
        }
      ],
      "stateMutability": "view",
      "type": "function"
    },
    {
      "inputs": [
        {
          "internalType": "bytes32",
          "name": "role",
          "type": "bytes32"
        },
        {
          "internalType": "uint256",
          "name": "index",
          "type": "uint256"
        }
      ],
      "name": "getRoleMember",
      "outputs": [
        {
          "internalType": "address",
          "name": "",
          "type": "address"
        }
      ],
      "stateMutability": "view",
      "type": "function"
    },
    {
      "inputs": [
        {
          "internalType": "bytes32",
          "name": "role",
          "type": "bytes32"
        }
      ],
      "name": "getRoleMemberCount",
      "outputs": [
        {
          "internalType": "uint256",
          "name": "",
          "type": "uint256"
        }
      ],
      "stateMutability": "view",
      "type": "function"
    },
    {
      "inputs": [
        {
          "internalType": "bytes32",
          "name": "role",
          "type": "bytes32"
        },
        {
          "internalType": "address",
          "name": "account",
          "type": "address"
        }
      ],
      "name": "grantRole",
      "outputs": [],
      "stateMutability": "nonpayable",
      "type": "function"
    },
    {
      "inputs": [
        {
          "internalType": "bytes32",
          "name": "role",
          "type": "bytes32"
        },
        {
          "internalType": "address",
          "name": "account",
          "type": "address"
        }
      ],
      "name": "hasRole",
      "outputs": [
        {
          "internalType": "bool",
          "name": "",
          "type": "bool"
        }
      ],
      "stateMutability": "view",
      "type": "function"
    },
    {
      "inputs": [
        {
          "internalType": "address",
          "name": "spender",
          "type": "address"
        },
        {
          "internalType": "uint256",
          "name": "addedValue",
          "type": "uint256"
        }
      ],
      "name": "increaseAllowance",
      "outputs": [
        {
          "internalType": "bool",
          "name": "",
          "type": "bool"
        }
      ],
      "stateMutability": "nonpayable",
      "type": "function"
    },
    {
      "inputs": [
        {
          "internalType": "address",
          "name": "recipient",
          "type": "address"
        },
        {
          "internalType": "uint256",
          "name": "amount",
          "type": "uint256"
        }
      ],
      "name": "mint",
      "outputs": [],
      "stateMutability": "nonpayable",
      "type": "function"
    },
    {
      "inputs": [],
      "name": "name",
      "outputs": [
        {
          "internalType": "string",
          "name": "",
          "type": "string"
        }
      ],
      "stateMutability": "view",
      "type": "function"
    },
    {
      "inputs": [
        {
          "internalType": "bytes32",
          "name": "role",
          "type": "bytes32"
        },
        {
          "internalType": "address",
          "name": "account",
          "type": "address"
        }
      ],
      "name": "renounceRole",
      "outputs": [],
      "stateMutability": "nonpayable",
      "type": "function"
    },
    {
      "inputs": [
        {
          "internalType": "bytes32",
          "name": "role",
          "type": "bytes32"
        },
        {
          "internalType": "address",
          "name": "account",
          "type": "address"
        }
      ],
      "name": "revokeRole",
      "outputs": [],
      "stateMutability": "nonpayable",
      "type": "function"
    },
    {
      "inputs": [],
      "name": "symbol",
      "outputs": [
        {
          "internalType": "string",
          "name": "",
          "type": "string"
        }
      ],
      "stateMutability": "view",
      "type": "function"
    },
    {
      "inputs": [],
      "name": "totalSupply",
      "outputs": [
        {
          "internalType": "uint256",
          "name": "",
          "type": "uint256"
        }
      ],
      "stateMutability": "view",
      "type": "function"
    },
    {
      "inputs": [
        {
          "internalType": "address",
          "name": "recipient",
          "type": "address"
        },
        {
          "internalType": "uint256",
          "name": "amount",
          "type": "uint256"
        }
      ],
      "name": "transfer",
      "outputs": [
        {
          "internalType": "bool",
          "name": "",
          "type": "bool"
        }
      ],
      "stateMutability": "nonpayable",
      "type": "function"
    },
    {
      "inputs": [
        {
          "internalType": "address",
          "name": "sender",
          "type": "address"
        },
        {
          "internalType": "address",
          "name": "recipient",
          "type": "address"
        },
        {
          "internalType": "uint256",
          "name": "amount",
          "type": "uint256"
        }
      ],
      "name": "transferFrom",
      "outputs": [
        {
          "internalType": "bool",
          "name": "",
          "type": "bool"
        }
      ],
      "stateMutability": "nonpayable",
      "type": "function"
    }
  ],
  "bytecode": "0x60806040523480156200001157600080fd5b506040516200125f3803806200125f833981016040819052620000349162000315565b8151829082906200004d906004906020850190620001a2565b50805162000063906005906020840190620001a2565b50506006805460ff191660121790555062000080600084620000b5565b620000ac7f9f2df0fed2c77648de5860a4cc508cd0818c85b8b8a1ab4ceeef8d981c8956a684620000b5565b505050620003dc565b620000c18282620000c5565b5050565b600082815260208181526040909120620000ea9183906200063f6200012c821b17901c565b15620000c15760405133906001600160a01b0383169084907f2f8788117e7eff1d82e926ec794901d17c78024a50270940304540a733656f0d90600090a45050565b6001600160a01b03811660009081526001830160205260408120546200019857508154600180820184556000848152602080822090930180546001600160a01b0319166001600160a01b038616908117909155855490825282860190935260409020919091556200019c565b5060005b92915050565b828054620001b0906200039f565b90600052602060002090601f016020900481019282620001d457600085556200021f565b82601f10620001ef57805160ff19168380011785556200021f565b828001600101855582156200021f579182015b828111156200021f57825182559160200191906001019062000202565b506200022d92915062000231565b5090565b5b808211156200022d576000815560010162000232565b634e487b7160e01b600052604160045260246000fd5b600082601f8301126200027057600080fd5b81516001600160401b03808211156200028d576200028d62000248565b604051601f8301601f19908116603f01168101908282118183101715620002b857620002b862000248565b81604052838152602092508683858801011115620002d557600080fd5b600091505b83821015620002f95785820183015181830184015290820190620002da565b838211156200030b5760008385830101525b9695505050505050565b6000806000606084860312156200032b57600080fd5b83516001600160a01b03811681146200034357600080fd5b60208501519093506001600160401b03808211156200036157600080fd5b6200036f878388016200025e565b935060408601519150808211156200038657600080fd5b5062000395868287016200025e565b9150509250925092565b600181811c90821680620003b457607f821691505b60208210811415620003d657634e487b7160e01b600052602260045260246000fd5b50919050565b610e7380620003ec6000396000f3fe608060405234801561001057600080fd5b506004361061011d5760003560e01c806306fdde0314610122578063095ea7b31461014057806318160ddd1461016357806323b872dd14610175578063248a9ca3146101885780632f2ff15d146101ab578063313ce567146101c057806336568abe146101d557806339509351146101e857806340c10f19146101fb57806342966c681461020e57806370a082311461022157806379cc67901461024a5780639010d07c1461025d57806391d148541461028857806395d89b411461029b578063a217fddf146102a3578063a457c2d7146102ab578063a9059cbb146102be578063ca15c873146102d1578063d5391393146102e4578063d547741f146102f9578063dd62ed3e1461030c575b600080fd5b61012a61031f565b6040516101379190610bce565b60405180910390f35b61015361014e366004610c3f565b6103b1565b6040519015158152602001610137565b6003545b604051908152602001610137565b610153610183366004610c69565b6103c8565b610167610196366004610ca5565b60009081526020819052604090206002015490565b6101be6101b9366004610cbe565b61041c565b005b60065460405160ff9091168152602001610137565b6101be6101e3366004610cbe565b610452565b6101536101f6366004610c3f565b610473565b6101be610209366004610c3f565b6104aa565b6101be61021c366004610ca5565b610509565b61016761022f366004610cea565b6001600160a01b031660009081526001602052604090205490565b6101be610258366004610c3f565b610516565b61027061026b366004610d05565b61054c565b6040516001600160a01b039091168152602001610137565b610153610296366004610cbe565b61056b565b61012a610583565b610167600081565b6101536102b9366004610c3f565b610592565b6101536102cc366004610c3f565b6105cb565b6101676102df366004610ca5565b6105d8565b610167600080516020610dfe83398151915281565b6101be610307366004610cbe565b6105ec565b61016761031a366004610d27565b610614565b60606004805461032e90610d51565b80601f016020809104026020016040519081016040528092919081815260200182805461035a90610d51565b80156103a75780601f1061037c576101008083540402835291602001916103a7565b820191906000526020600020905b81548152906001019060200180831161038a57829003601f168201915b5050505050905090565b60006103be3384846106a2565b5060015b92915050565b60006103d5848484610704565b6001600160a01b03841660009081526002602090815260408083203380855292529091205461041291869161040d908661019e6107ca565b6106a2565b5060019392505050565b6000828152602081905260409020600201546104449061043c903361056b565b6101a66107ee565b61044e82826107fc565b5050565b6104696001600160a01b03821633146101a86107ee565b61044e8282610855565b3360008181526002602090815260408083206001600160a01b038716845290915281205490916103be91859061040d908690610da2565b6104c2600080516020610dfe8339815191523361056b565b6104ff5760405162461bcd60e51b815260206004820152600a6024820152692727aa2fa6a4a72a22a960b11b604482015260640160405180910390fd5b61044e82826108ae565b610513338261092e565b50565b6000610530826101a16105298633610614565b91906107ca565b905061053d8333836106a2565b610547838361092e565b505050565b600082815260208190526040812061056490836109c1565b9392505050565b600082815260208190526040812061056490836109dd565b60606005805461032e90610d51565b3360008181526002602090815260408083206001600160a01b038716845290915281205490916103be91859061040d908661019f6107ca565b60006103be338484610704565b6000818152602081905260408120546103c2565b6000828152602081905260409020600201546104699061060c903361056b565b6101a76107ee565b6001600160a01b03918216600090815260026020908152604080832093909416825291909152205490565b600061064b83836109dd565b61069a57508154600180820184556000848152602080822090930180546001600160a01b0319166001600160a01b038616908117909155855490825282860190935260409020919091556103c2565b5060006103c2565b6001600160a01b0383811660008181526002602090815260408083209487168084529482529182902085905590518481527f8c5be1e5ebec7d5bd14f71427d1e84f3dd0314c0f7b2291e5b200ac8c7c3b92591015b60405180910390a3505050565b61071b6001600160a01b03841615156101986107ee565b6107326001600160a01b03831615156101996107ee565b6001600160a01b03831660009081526001602052604090205461075890826101a06107ca565b6001600160a01b038085166000908152600160205260408082209390935590841681522054610788908290610da2565b6001600160a01b038084166000818152600160205260409081902093909355915190851690600080516020610e1e833981519152906106f79085815260200190565b60006107d984841115836107ee565b60006107e58486610dba565b95945050505050565b8161044e5761044e816109fe565b6000828152602081905260409020610814908261063f565b1561044e5760405133906001600160a01b0383169084907f2f8788117e7eff1d82e926ec794901d17c78024a50270940304540a733656f0d90600090a45050565b600082815260208190526040902061086d9082610a51565b1561044e5760405133906001600160a01b0383169084907ff6391f5c32d9c69d2a47ea670b442974b53935d1edc7fd64eb21e047a839171b90600090a45050565b806003546108bc9190610da2565b6003556001600160a01b0382166000908152600160205260409020546108e3908290610da2565b6001600160a01b038316600081815260016020526040808220939093559151909190600080516020610e1e833981519152906109229085815260200190565b60405180910390a35050565b6109456001600160a01b038316151561019b6107ee565b6001600160a01b03821660009081526001602052604090205461096b90826101a16107ca565b6001600160a01b038316600090815260016020526040902055600354610992908290610dba565b6003556040518181526000906001600160a01b03841690600080516020610e1e83398151915290602001610922565b81546000906109d390831060646107ee565b6105648383610b9b565b6001600160a01b031660009081526001919091016020526040902054151590565b62461bcd60e51b6000908152602060045260076024526642414c23000030600a808404818106603090810160081b95839006959095019082900491820690940160101b939093010160c81b604452606490fd5b6001600160a01b03811660009081526001830160205260408120548015610b91576000610a7f600183610dba565b8554909150600090610a9390600190610dba565b9050808214610b33576000866000018281548110610ab357610ab3610dd1565b60009182526020909120015487546001600160a01b0390911691508190889085908110610ae257610ae2610dd1565b600091825260209091200180546001600160a01b0319166001600160a01b0392909216919091179055610b16836001610da2565b6001600160a01b0390911660009081526001880160205260409020555b8554869080610b4457610b44610de7565b60008281526020808220830160001990810180546001600160a01b03191690559092019092556001600160a01b03871682526001888101909152604082209190915593506103c292505050565b60009150506103c2565b6000826000018281548110610bb257610bb2610dd1565b6000918252602090912001546001600160a01b03169392505050565b600060208083528351808285015260005b81811015610bfb57858101830151858201604001528201610bdf565b81811115610c0d576000604083870101525b50601f01601f1916929092016040019392505050565b80356001600160a01b0381168114610c3a57600080fd5b919050565b60008060408385031215610c5257600080fd5b610c5b83610c23565b946020939093013593505050565b600080600060608486031215610c7e57600080fd5b610c8784610c23565b9250610c9560208501610c23565b9150604084013590509250925092565b600060208284031215610cb757600080fd5b5035919050565b60008060408385031215610cd157600080fd5b82359150610ce160208401610c23565b90509250929050565b600060208284031215610cfc57600080fd5b61056482610c23565b60008060408385031215610d1857600080fd5b50508035926020909101359150565b60008060408385031215610d3a57600080fd5b610d4383610c23565b9150610ce160208401610c23565b600181811c90821680610d6557607f821691505b60208210811415610d8657634e487b7160e01b600052602260045260246000fd5b50919050565b634e487b7160e01b600052601160045260246000fd5b60008219821115610db557610db5610d8c565b500190565b600082821015610dcc57610dcc610d8c565b500390565b634e487b7160e01b600052603260045260246000fd5b634e487b7160e01b600052603160045260246000fdfe9f2df0fed2c77648de5860a4cc508cd0818c85b8b8a1ab4ceeef8d981c8956a6ddf252ad1be2c89b69c2b068fc378daa952ba7f163c4a11628f55a4df523b3efa26469706673582212204fc14d083307a23e3397be1fac274031646e1cfe9bbdff8d1c60c4627bf6f39564736f6c634300080a0033",
  "linkReferences": {},
  "deployedLinkReferences": {}
}