{
  "_format": "hh-sol-artifact-1",
  "contractName": "Vault",
  "sourceName": "contracts/Vault.sol",
  "abi": [
    {
      "inputs": [
        {
          "internalType": "contract IAuthorizer",
          "name": "authorizer",
          "type": "address"
        },
        {
          "internalType": "contract IWETH",
          "name": "weth",
          "type": "address"
        },
        {
          "internalType": "uint256",
          "name": "pauseWindowDuration",
          "type": "uint256"
        },
        {
          "internalType": "uint256",
          "name": "bufferPeriodDuration",
          "type": "uint256"
        }
      ],
      "stateMutability": "nonpayable",
      "type": "constructor"
    },
    {
      "anonymous": false,
      "inputs": [
        {
          "indexed": true,
          "internalType": "contract IAuthorizer",
          "name": "newAuthorizer",
          "type": "address"
        }
      ],
      "name": "AuthorizerChanged",
      "type": "event"
    },
    {
      "anonymous": false,
      "inputs": [
        {
          "indexed": true,
          "internalType": "contract IERC20",
          "name": "token",
          "type": "address"
        },
        {
          "indexed": true,
          "internalType": "address",
          "name": "sender",
          "type": "address"
        },
        {
          "indexed": false,
          "internalType": "address",
          "name": "recipient",
          "type": "address"
        },
        {
          "indexed": false,
          "internalType": "uint256",
          "name": "amount",
          "type": "uint256"
        }
      ],
      "name": "ExternalBalanceTransfer",
      "type": "event"
    },
    {
      "anonymous": false,
      "inputs": [
        {
          "indexed": true,
          "internalType": "contract IFlashLoanRecipient",
          "name": "recipient",
          "type": "address"
        },
        {
          "indexed": true,
          "internalType": "contract IERC20",
          "name": "token",
          "type": "address"
        },
        {
          "indexed": false,
          "internalType": "uint256",
          "name": "amount",
          "type": "uint256"
        },
        {
          "indexed": false,
          "internalType": "uint256",
          "name": "feeAmount",
          "type": "uint256"
        }
      ],
      "name": "FlashLoan",
      "type": "event"
    },
    {
      "anonymous": false,
      "inputs": [
        {
          "indexed": true,
          "internalType": "address",
          "name": "user",
          "type": "address"
        },
        {
          "indexed": true,
          "internalType": "contract IERC20",
          "name": "token",
          "type": "address"
        },
        {
          "indexed": false,
          "internalType": "int256",
          "name": "delta",
          "type": "int256"
        }
      ],
      "name": "InternalBalanceChanged",
      "type": "event"
    },
    {
      "anonymous": false,
      "inputs": [
        {
          "indexed": false,
          "internalType": "bool",
          "name": "paused",
          "type": "bool"
        }
      ],
      "name": "PausedStateChanged",
      "type": "event"
    },
    {
      "anonymous": false,
      "inputs": [
        {
          "indexed": true,
          "internalType": "bytes32",
          "name": "poolId",
          "type": "bytes32"
        },
        {
          "indexed": true,
          "internalType": "address",
          "name": "liquidityProvider",
          "type": "address"
        },
        {
          "indexed": false,
          "internalType": "contract IERC20[]",
          "name": "tokens",
          "type": "address[]"
        },
        {
          "indexed": false,
          "internalType": "int256[]",
          "name": "deltas",
          "type": "int256[]"
        },
        {
          "indexed": false,
          "internalType": "uint256[]",
          "name": "protocolFeeAmounts",
          "type": "uint256[]"
        }
      ],
      "name": "PoolBalanceChanged",
      "type": "event"
    },
    {
      "anonymous": false,
      "inputs": [
        {
          "indexed": true,
          "internalType": "bytes32",
          "name": "poolId",
          "type": "bytes32"
        },
        {
          "indexed": true,
          "internalType": "address",
          "name": "assetManager",
          "type": "address"
        },
        {
          "indexed": true,
          "internalType": "contract IERC20",
          "name": "token",
          "type": "address"
        },
        {
          "indexed": false,
          "internalType": "int256",
          "name": "cashDelta",
          "type": "int256"
        },
        {
          "indexed": false,
          "internalType": "int256",
          "name": "managedDelta",
          "type": "int256"
        }
      ],
      "name": "PoolBalanceManaged",
      "type": "event"
    },
    {
      "anonymous": false,
      "inputs": [
        {
          "indexed": true,
          "internalType": "bytes32",
          "name": "poolId",
          "type": "bytes32"
        },
        {
          "indexed": true,
          "internalType": "address",
          "name": "poolAddress",
          "type": "address"
        },
        {
          "indexed": false,
          "internalType": "enum IVault.PoolSpecialization",
          "name": "specialization",
          "type": "uint8"
        }
      ],
      "name": "PoolRegistered",
      "type": "event"
    },
    {
      "anonymous": false,
      "inputs": [
        {
          "indexed": true,
          "internalType": "address",
          "name": "relayer",
          "type": "address"
        },
        {
          "indexed": true,
          "internalType": "address",
          "name": "sender",
          "type": "address"
        },
        {
          "indexed": false,
          "internalType": "bool",
          "name": "approved",
          "type": "bool"
        }
      ],
      "name": "RelayerApprovalChanged",
      "type": "event"
    },
    {
      "anonymous": false,
      "inputs": [
        {
          "indexed": true,
          "internalType": "bytes32",
          "name": "poolId",
          "type": "bytes32"
        },
        {
          "indexed": true,
          "internalType": "contract IERC20",
          "name": "tokenIn",
          "type": "address"
        },
        {
          "indexed": true,
          "internalType": "contract IERC20",
          "name": "tokenOut",
          "type": "address"
        },
        {
          "indexed": false,
          "internalType": "uint256",
          "name": "amountIn",
          "type": "uint256"
        },
        {
          "indexed": false,
          "internalType": "uint256",
          "name": "amountOut",
          "type": "uint256"
        }
      ],
      "name": "Swap",
      "type": "event"
    },
    {
      "anonymous": false,
      "inputs": [
        {
          "indexed": true,
          "internalType": "bytes32",
          "name": "poolId",
          "type": "bytes32"
        },
        {
          "indexed": false,
          "internalType": "contract IERC20[]",
          "name": "tokens",
          "type": "address[]"
        }
      ],
      "name": "TokensDeregistered",
      "type": "event"
    },
    {
      "anonymous": false,
      "inputs": [
        {
          "indexed": true,
          "internalType": "bytes32",
          "name": "poolId",
          "type": "bytes32"
        },
        {
          "indexed": false,
          "internalType": "contract IERC20[]",
          "name": "tokens",
          "type": "address[]"
        },
        {
          "indexed": false,
          "internalType": "address[]",
          "name": "assetManagers",
          "type": "address[]"
        }
      ],
      "name": "TokensRegistered",
      "type": "event"
    },
    {
      "inputs": [],
      "name": "WETH",
      "outputs": [
        {
          "internalType": "contract IWETH",
          "name": "",
          "type": "address"
        }
      ],
      "stateMutability": "view",
      "type": "function"
    },
    {
      "inputs": [
        {
          "internalType": "enum IVault.SwapKind",
          "name": "kind",
          "type": "uint8"
        },
        {
          "components": [
            {
              "internalType": "bytes32",
              "name": "poolId",
              "type": "bytes32"
            },
            {
              "internalType": "uint256",
              "name": "assetInIndex",
              "type": "uint256"
            },
            {
              "internalType": "uint256",
              "name": "assetOutIndex",
              "type": "uint256"
            },
            {
              "internalType": "uint256",
              "name": "amount",
              "type": "uint256"
            },
            {
              "internalType": "bytes",
              "name": "userData",
              "type": "bytes"
            }
          ],
          "internalType": "struct IVault.BatchSwapStep[]",
          "name": "swaps",
          "type": "tuple[]"
        },
        {
          "internalType": "contract IAsset[]",
          "name": "assets",
          "type": "address[]"
        },
        {
          "components": [
            {
              "internalType": "address",
              "name": "sender",
              "type": "address"
            },
            {
              "internalType": "bool",
              "name": "fromInternalBalance",
              "type": "bool"
            },
            {
              "internalType": "address payable",
              "name": "recipient",
              "type": "address"
            },
            {
              "internalType": "bool",
              "name": "toInternalBalance",
              "type": "bool"
            }
          ],
          "internalType": "struct IVault.FundManagement",
          "name": "funds",
          "type": "tuple"
        },
        {
          "internalType": "int256[]",
          "name": "limits",
          "type": "int256[]"
        },
        {
          "internalType": "uint256",
          "name": "deadline",
          "type": "uint256"
        }
      ],
      "name": "batchSwap",
      "outputs": [
        {
          "internalType": "int256[]",
          "name": "assetDeltas",
          "type": "int256[]"
        }
      ],
      "stateMutability": "payable",
      "type": "function"
    },
    {
      "inputs": [
        {
          "internalType": "bytes32",
          "name": "poolId",
          "type": "bytes32"
        },
        {
          "internalType": "contract IERC20[]",
          "name": "tokens",
          "type": "address[]"
        }
      ],
      "name": "deregisterTokens",
      "outputs": [],
      "stateMutability": "nonpayable",
      "type": "function"
    },
    {
      "inputs": [
        {
          "internalType": "bytes32",
          "name": "poolId",
          "type": "bytes32"
        },
        {
          "internalType": "address",
          "name": "sender",
          "type": "address"
        },
        {
          "internalType": "address payable",
          "name": "recipient",
          "type": "address"
        },
        {
          "components": [
            {
              "internalType": "contract IAsset[]",
              "name": "assets",
              "type": "address[]"
            },
            {
              "internalType": "uint256[]",
              "name": "minAmountsOut",
              "type": "uint256[]"
            },
            {
              "internalType": "bytes",
              "name": "userData",
              "type": "bytes"
            },
            {
              "internalType": "bool",
              "name": "toInternalBalance",
              "type": "bool"
            }
          ],
          "internalType": "struct IVault.ExitPoolRequest",
          "name": "request",
          "type": "tuple"
        }
      ],
      "name": "exitPool",
      "outputs": [],
      "stateMutability": "nonpayable",
      "type": "function"
    },
    {
      "inputs": [
        {
          "internalType": "contract IFlashLoanRecipient",
          "name": "recipient",
          "type": "address"
        },
        {
          "internalType": "contract IERC20[]",
          "name": "tokens",
          "type": "address[]"
        },
        {
          "internalType": "uint256[]",
          "name": "amounts",
          "type": "uint256[]"
        },
        {
          "internalType": "bytes",
          "name": "userData",
          "type": "bytes"
        }
      ],
      "name": "flashLoan",
      "outputs": [],
      "stateMutability": "nonpayable",
      "type": "function"
    },
    {
      "inputs": [
        {
          "internalType": "bytes4",
          "name": "selector",
          "type": "bytes4"
        }
      ],
      "name": "getActionId",
      "outputs": [
        {
          "internalType": "bytes32",
          "name": "",
          "type": "bytes32"
        }
      ],
      "stateMutability": "view",
      "type": "function"
    },
    {
      "inputs": [],
      "name": "getAuthorizer",
      "outputs": [
        {
          "internalType": "contract IAuthorizer",
          "name": "",
          "type": "address"
        }
      ],
      "stateMutability": "view",
      "type": "function"
    },
    {
      "inputs": [],
      "name": "getDomainSeparator",
      "outputs": [
        {
          "internalType": "bytes32",
          "name": "",
          "type": "bytes32"
        }
      ],
      "stateMutability": "view",
      "type": "function"
    },
    {
      "inputs": [
        {
          "internalType": "address",
          "name": "user",
          "type": "address"
        },
        {
          "internalType": "contract IERC20[]",
          "name": "tokens",
          "type": "address[]"
        }
      ],
      "name": "getInternalBalance",
      "outputs": [
        {
          "internalType": "uint256[]",
          "name": "balances",
          "type": "uint256[]"
        }
      ],
      "stateMutability": "view",
      "type": "function"
    },
    {
      "inputs": [
        {
          "internalType": "address",
          "name": "user",
          "type": "address"
        }
      ],
      "name": "getNextNonce",
      "outputs": [
        {
          "internalType": "uint256",
          "name": "",
          "type": "uint256"
        }
      ],
      "stateMutability": "view",
      "type": "function"
    },
    {
      "inputs": [],
      "name": "getPausedState",
      "outputs": [
        {
          "internalType": "bool",
          "name": "paused",
          "type": "bool"
        },
        {
          "internalType": "uint256",
          "name": "pauseWindowEndTime",
          "type": "uint256"
        },
        {
          "internalType": "uint256",
          "name": "bufferPeriodEndTime",
          "type": "uint256"
        }
      ],
      "stateMutability": "view",
      "type": "function"
    },
    {
      "inputs": [
        {
          "internalType": "bytes32",
          "name": "poolId",
          "type": "bytes32"
        }
      ],
      "name": "getPool",
      "outputs": [
        {
          "internalType": "address",
          "name": "",
          "type": "address"
        },
        {
          "internalType": "enum IVault.PoolSpecialization",
          "name": "",
          "type": "uint8"
        }
      ],
      "stateMutability": "view",
      "type": "function"
    },
    {
      "inputs": [
        {
          "internalType": "bytes32",
          "name": "poolId",
          "type": "bytes32"
        },
        {
          "internalType": "contract IERC20",
          "name": "token",
          "type": "address"
        }
      ],
      "name": "getPoolTokenInfo",
      "outputs": [
        {
          "internalType": "uint256",
          "name": "cash",
          "type": "uint256"
        },
        {
          "internalType": "uint256",
          "name": "managed",
          "type": "uint256"
        },
        {
          "internalType": "uint256",
          "name": "lastChangeBlock",
          "type": "uint256"
        },
        {
          "internalType": "address",
          "name": "assetManager",
          "type": "address"
        }
      ],
      "stateMutability": "view",
      "type": "function"
    },
    {
      "inputs": [
        {
          "internalType": "bytes32",
          "name": "poolId",
          "type": "bytes32"
        }
      ],
      "name": "getPoolTokens",
      "outputs": [
        {
          "internalType": "contract IERC20[]",
          "name": "tokens",
          "type": "address[]"
        },
        {
          "internalType": "uint256[]",
          "name": "balances",
          "type": "uint256[]"
        },
        {
          "internalType": "uint256",
          "name": "lastChangeBlock",
          "type": "uint256"
        }
      ],
      "stateMutability": "view",
      "type": "function"
    },
    {
      "inputs": [],
      "name": "getProtocolFeesCollector",
      "outputs": [
        {
          "internalType": "contract IProtocolFeesCollector",
          "name": "",
          "type": "address"
        }
      ],
      "stateMutability": "view",
      "type": "function"
    },
    {
      "inputs": [
        {
          "internalType": "address",
          "name": "user",
          "type": "address"
        },
        {
          "internalType": "address",
          "name": "relayer",
          "type": "address"
        }
      ],
      "name": "hasApprovedRelayer",
      "outputs": [
        {
          "internalType": "bool",
          "name": "",
          "type": "bool"
        }
      ],
      "stateMutability": "view",
      "type": "function"
    },
    {
      "inputs": [
        {
          "internalType": "bytes32",
          "name": "poolId",
          "type": "bytes32"
        },
        {
          "internalType": "address",
          "name": "sender",
          "type": "address"
        },
        {
          "internalType": "address",
          "name": "recipient",
          "type": "address"
        },
        {
          "components": [
            {
              "internalType": "contract IAsset[]",
              "name": "assets",
              "type": "address[]"
            },
            {
              "internalType": "uint256[]",
              "name": "maxAmountsIn",
              "type": "uint256[]"
            },
            {
              "internalType": "bytes",
              "name": "userData",
              "type": "bytes"
            },
            {
              "internalType": "bool",
              "name": "fromInternalBalance",
              "type": "bool"
            }
          ],
          "internalType": "struct IVault.JoinPoolRequest",
          "name": "request",
          "type": "tuple"
        }
      ],
      "name": "joinPool",
      "outputs": [],
      "stateMutability": "payable",
      "type": "function"
    },
    {
      "inputs": [
        {
          "components": [
            {
              "internalType": "enum IVault.PoolBalanceOpKind",
              "name": "kind",
              "type": "uint8"
            },
            {
              "internalType": "bytes32",
              "name": "poolId",
              "type": "bytes32"
            },
            {
              "internalType": "contract IERC20",
              "name": "token",
              "type": "address"
            },
            {
              "internalType": "uint256",
              "name": "amount",
              "type": "uint256"
            }
          ],
          "internalType": "struct IVault.PoolBalanceOp[]",
          "name": "ops",
          "type": "tuple[]"
        }
      ],
      "name": "managePoolBalance",
      "outputs": [],
      "stateMutability": "nonpayable",
      "type": "function"
    },
    {
      "inputs": [
        {
          "components": [
            {
              "internalType": "enum IVault.UserBalanceOpKind",
              "name": "kind",
              "type": "uint8"
            },
            {
              "internalType": "contract IAsset",
              "name": "asset",
              "type": "address"
            },
            {
              "internalType": "uint256",
              "name": "amount",
              "type": "uint256"
            },
            {
              "internalType": "address",
              "name": "sender",
              "type": "address"
            },
            {
              "internalType": "address payable",
              "name": "recipient",
              "type": "address"
            }
          ],
          "internalType": "struct IVault.UserBalanceOp[]",
          "name": "ops",
          "type": "tuple[]"
        }
      ],
      "name": "manageUserBalance",
      "outputs": [],
      "stateMutability": "payable",
      "type": "function"
    },
    {
      "inputs": [
        {
          "internalType": "enum IVault.SwapKind",
          "name": "kind",
          "type": "uint8"
        },
        {
          "components": [
            {
              "internalType": "bytes32",
              "name": "poolId",
              "type": "bytes32"
            },
            {
              "internalType": "uint256",
              "name": "assetInIndex",
              "type": "uint256"
            },
            {
              "internalType": "uint256",
              "name": "assetOutIndex",
              "type": "uint256"
            },
            {
              "internalType": "uint256",
              "name": "amount",
              "type": "uint256"
            },
            {
              "internalType": "bytes",
              "name": "userData",
              "type": "bytes"
            }
          ],
          "internalType": "struct IVault.BatchSwapStep[]",
          "name": "swaps",
          "type": "tuple[]"
        },
        {
          "internalType": "contract IAsset[]",
          "name": "assets",
          "type": "address[]"
        },
        {
          "components": [
            {
              "internalType": "address",
              "name": "sender",
              "type": "address"
            },
            {
              "internalType": "bool",
              "name": "fromInternalBalance",
              "type": "bool"
            },
            {
              "internalType": "address payable",
              "name": "recipient",
              "type": "address"
            },
            {
              "internalType": "bool",
              "name": "toInternalBalance",
              "type": "bool"
            }
          ],
          "internalType": "struct IVault.FundManagement",
          "name": "funds",
          "type": "tuple"
        }
      ],
      "name": "queryBatchSwap",
      "outputs": [
        {
          "internalType": "int256[]",
          "name": "",
          "type": "int256[]"
        }
      ],
      "stateMutability": "nonpayable",
      "type": "function"
    },
    {
      "inputs": [
        {
          "internalType": "enum IVault.PoolSpecialization",
          "name": "specialization",
          "type": "uint8"
        }
      ],
      "name": "registerPool",
      "outputs": [
        {
          "internalType": "bytes32",
          "name": "",
          "type": "bytes32"
        }
      ],
      "stateMutability": "nonpayable",
      "type": "function"
    },
    {
      "inputs": [
        {
          "internalType": "bytes32",
          "name": "poolId",
          "type": "bytes32"
        },
        {
          "internalType": "contract IERC20[]",
          "name": "tokens",
          "type": "address[]"
        },
        {
          "internalType": "address[]",
          "name": "assetManagers",
          "type": "address[]"
        }
      ],
      "name": "registerTokens",
      "outputs": [],
      "stateMutability": "nonpayable",
      "type": "function"
    },
    {
      "inputs": [
        {
          "internalType": "contract IAuthorizer",
          "name": "newAuthorizer",
          "type": "address"
        }
      ],
      "name": "setAuthorizer",
      "outputs": [],
      "stateMutability": "nonpayable",
      "type": "function"
    },
    {
      "inputs": [
        {
          "internalType": "bool",
          "name": "paused",
          "type": "bool"
        }
      ],
      "name": "setPaused",
      "outputs": [],
      "stateMutability": "nonpayable",
      "type": "function"
    },
    {
      "inputs": [
        {
          "internalType": "address",
          "name": "sender",
          "type": "address"
        },
        {
          "internalType": "address",
          "name": "relayer",
          "type": "address"
        },
        {
          "internalType": "bool",
          "name": "approved",
          "type": "bool"
        }
      ],
      "name": "setRelayerApproval",
      "outputs": [],
      "stateMutability": "nonpayable",
      "type": "function"
    },
    {
      "inputs": [
        {
          "components": [
            {
              "internalType": "bytes32",
              "name": "poolId",
              "type": "bytes32"
            },
            {
              "internalType": "enum IVault.SwapKind",
              "name": "kind",
              "type": "uint8"
            },
            {
              "internalType": "contract IAsset",
              "name": "assetIn",
              "type": "address"
            },
            {
              "internalType": "contract IAsset",
              "name": "assetOut",
              "type": "address"
            },
            {
              "internalType": "uint256",
              "name": "amount",
              "type": "uint256"
            },
            {
              "internalType": "bytes",
              "name": "userData",
              "type": "bytes"
            }
          ],
          "internalType": "struct IVault.SingleSwap",
          "name": "singleSwap",
          "type": "tuple"
        },
        {
          "components": [
            {
              "internalType": "address",
              "name": "sender",
              "type": "address"
            },
            {
              "internalType": "bool",
              "name": "fromInternalBalance",
              "type": "bool"
            },
            {
              "internalType": "address payable",
              "name": "recipient",
              "type": "address"
            },
            {
              "internalType": "bool",
              "name": "toInternalBalance",
              "type": "bool"
            }
          ],
          "internalType": "struct IVault.FundManagement",
          "name": "funds",
          "type": "tuple"
        },
        {
          "internalType": "uint256",
          "name": "limit",
          "type": "uint256"
        },
        {
          "internalType": "uint256",
          "name": "deadline",
          "type": "uint256"
        }
      ],
      "name": "swap",
      "outputs": [
        {
          "internalType": "uint256",
          "name": "amountCalculated",
          "type": "uint256"
        }
      ],
      "stateMutability": "payable",
      "type": "function"
    },
    {
      "stateMutability": "payable",
      "type": "receive"
    }
  ],
  "bytecode": "0x6101806040523480156200001257600080fd5b506040516200744238038062007442833981016040819052620000359162000271565b604080518082018252601081526f14995c5d5a595b48158c8815985d5b1d60821b6020808301919091528251808401845260018152603160f81b918101919091526001600160a01b03861660805291518692859285929091829130606081901b91620000a1906200024a565b6001600160a01b039091168152602001604051809103906000f080158015620000ce573d6000803e3d6000fd5b506001600160a01b031660a052600160005560c052815160209283012060e052805191012061010052507f8b73c3c69bb8fe3d512ecc4cf759cc79239f7b179b0ffacaa9a75d522b39400f61012052620001316276a70083111561019462000186565b6200014562278d0082111561019562000186565b6000620001538342620002be565b6101408190529050620001678282620002be565b61016052506200017b91508290506200019b565b5050505050620002e5565b8162000197576200019781620001f7565b5050565b6040516001600160a01b038216907f94b979b6831a51293e2641426f97747feed46f17779fed9cd18d1ecefcfe92ef90600090a2600380546001600160a01b0390921661010002610100600160a81b0319909216919091179055565b62461bcd60e51b6000908152602060045260076024526642414c23000030600a808404818106603090810160081b95839006959095019082900491820690940160101b939093010160c81b604452606490fd5b610b5b80620068e783390190565b6001600160a01b03811681146200026e57600080fd5b50565b600080600080608085870312156200028857600080fd5b8451620002958162000258565b6020860151909450620002a88162000258565b6040860151606090960151949790965092505050565b60008219821115620002e057634e487b7160e01b600052601160045260246000fd5b500190565b60805160a05160c05160e0516101005161012051610140516101605161655662000391600039600081816108ed01528181611bbe0152611c320152600081816108ca0152611b8b01526000612b5601526000612b9801526000612b770152600061127401526000818161047e01528181611fc7015281816120da0152614968015260008181610198015281816103ef01528181611caf01528181611e130152611f1501526165566000f3fe6080604052600436106101855760003560e01c8063945bcec9116100d1578063e6c460921161008a578063f84d066e11610064578063f84d066e14610505578063f94d466814610525578063fa6e671d14610554578063fec90d721461057457600080fd5b8063e6c46092146104a2578063ed24911d146104c2578063f6c00927146104d757600080fd5b8063945bcec914610396578063aaabadc5146103a9578063ad5c4648146103e0578063b05f8e4814610413578063b95cac281461045c578063d2946c2b1461046f57600080fd5b806352bbbe291161013e5780637d3aeb96116101185780637d3aeb9614610300578063851c1bb3146103205780638bdb39131461034057806390193b7c1461036057600080fd5b806352bbbe29146102ad5780635c38449e146102c057806366a9c7d2146102e057600080fd5b8063058a628f146101c857806309b2760f146101e85780630e8e3e841461021b5780630f5a6efa1461022e57806316c38b3c1461025b5780631c0de0511461027b57600080fd5b366101c3576101c1336001600160a01b037f000000000000000000000000000000000000000000000000000000000000000016146102066105a4565b005b600080fd5b3480156101d457600080fd5b506101c16101e33660046152e8565b6105b6565b3480156101f457600080fd5b50610208610203366004615312565b6105dc565b6040519081526020015b60405180910390f35b6101c1610229366004615404565b6106a0565b34801561023a57600080fd5b5061024e610249366004615572565b6107f3565b60405161021291906155fc565b34801561026757600080fd5b506101c161027636600461561d565b61089f565b34801561028757600080fd5b506102906108b8565b604080519315158452602084019290925290820152606001610212565b6102086102bb366004615720565b610914565b3480156102cc57600080fd5b506101c16102db366004615855565b610ad0565b3480156102ec57600080fd5b506101c16102fb3660046158ef565b610f27565b34801561030c57600080fd5b506101c161031b3660046159ba565b6110f4565b34801561032c57600080fd5b5061020861033b3660046159ea565b611270565b34801561034c57600080fd5b506101c161035b366004615aaf565b6112d5565b34801561036c57600080fd5b5061020861037b3660046152e8565b6001600160a01b031660009081526002602052604090205490565b61024e6103a4366004615bf1565b6112eb565b3480156103b557600080fd5b5060035461010090046001600160a01b03165b6040516001600160a01b039091168152602001610212565b3480156103ec57600080fd5b507f00000000000000000000000000000000000000000000000000000000000000006103c8565b34801561041f57600080fd5b5061043361042e366004615cfb565b611446565b604080519485526020850193909352918301526001600160a01b03166060820152608001610212565b6101c161046a366004615aaf565b611521565b34801561047b57600080fd5b507f00000000000000000000000000000000000000000000000000000000000000006103c8565b3480156104ae57600080fd5b506101c16104bd366004615d2b565b61153a565b3480156104ce57600080fd5b50610208611687565b3480156104e357600080fd5b506104f76104f2366004615dfb565b611691565b604051610212929190615e3e565b34801561051157600080fd5b5061024e610520366004615e5b565b6116bc565b34801561053157600080fd5b50610545610540366004615dfb565b6117a0565b60405161021293929190615f19565b34801561056057600080fd5b506101c161056f366004615f4f565b6117d4565b34801561058057600080fd5b5061059461058f366004615f9a565b611864565b6040519015158152602001610212565b816105b2576105b281611879565b5050565b6105be6118cc565b6105c66118e5565b6105cf81611913565b6105d96001600055565b50565b60006105e66118cc565b6105ee61196f565b60006105fd3384600654611984565b60008181526005602052604090205490915061061f9060ff16156101f46105a4565b6000818152600560205260408120805460ff19166001908117909155600680549192909161064e908490615fde565b9091555050604051339082907f3c13bc30b8e878c53fd2a36b679409c073afd75950be43d8858768e956fbc20e90610687908790615ff6565b60405180910390a3905061069b6001600055565b919050565b6106a86118cc565b6000806000805b84518110156107dc5760008060008060006106e38a87815181106106d5576106d5616004565b6020026020010151896119c4565b9c50939850919650945092509050600185600381111561070557610705615e14565b141561071c5761071784838386611a3c565b6107c4565b8661072e5761072961196f565b600196505b600085600381111561074257610742615e14565b14156107735761075484838386611a5f565b6001600160a01b0384166107175761076c838a615fde565b98506107c4565b61078a6001600160a01b03851615156102076105a4565b83600286600381111561079f5761079f615e14565b14156107b6576107b181848487611a7f565b6107c2565b6107c281848487611a98565b505b505050505080806107d49061601a565b9150506106af565b506107e683611b05565b5050506105d96001600055565b606081516001600160401b0381111561080e5761080e61532f565b604051908082528060200260200182016040528015610837578160200160208202803683370190505b50905060005b8251811015610898576108698484838151811061085c5761085c616004565b6020026020010151611b55565b82828151811061087b5761087b616004565b6020908102919091010152806108908161601a565b91505061083d565b5092915050565b6108a76118cc565b6108af6118e5565b6105cf81611b80565b60008060006108c5611c2e565b1592507f000000000000000000000000000000000000000000000000000000000000000091507f00000000000000000000000000000000000000000000000000000000000000005b9050909192565b600061091e6118cc565b61092661196f565b835161093181611c64565b610940834211156101fc6105a4565b61095360008760800151116101fe6105a4565b60006109628760400151611c96565b905060006109738860600151611c96565b9050610996816001600160a01b0316836001600160a01b031614156101fd6105a4565b61099e615283565b885160808201526020890151819060018111156109bd576109bd615e14565b908160018111156109d0576109d0615e14565b9052506001600160a01b03808416602083015282811660408084019190915260808b0151606084015260a08b01516101008401528951821660c08401528901511660e0820152600080610a2283611cd3565b91985092509050610a5f60008c602001516001811115610a4457610a44615e14565b14610a525789831115610a57565b898210155b6101fb6105a4565b610a778b60400151838c600001518d60200151611ddd565b610a8f8b60600151828c604001518d60600151611ed2565b610ab8610aa78c604001516001600160a01b03161590565b610ab2576000611b05565b82611b05565b505050505050610ac86001600055565b949350505050565b610ad86118cc565b610ae061196f565b610aec83518351611fb5565b600083516001600160401b03811115610b0757610b0761532f565b604051908082528060200260200182016040528015610b30578160200160208202803683370190505b509050600084516001600160401b03811115610b4e57610b4e61532f565b604051908082528060200260200182016040528015610b77578160200160208202803683370190505b5090506000805b8651811015610d13576000878281518110610b9b57610b9b616004565b602002602001015190506000878381518110610bb957610bb9616004565b60200260200101519050610c03846001600160a01b0316836001600160a01b03161160006001600160a01b0316846001600160a01b031614610bfc5760666105a4565b60686105a4565b6040516370a0823160e01b815230600482015291935083916001600160a01b038316906370a082319060240160206040518083038186803b158015610c4757600080fd5b505afa158015610c5b573d6000803e3d6000fd5b505050506040513d601f19601f82011682018060405250810190610c7f9190616035565b858481518110610c9157610c91616004565b602002602001018181525050610ca681611fc2565b868481518110610cb857610cb8616004565b602002602001018181525050610cec81868581518110610cda57610cda616004565b602002602001015110156102106105a4565b610d006001600160a01b0383168b83612062565b505080610d0c9061601a565b9050610b7e565b5060405163f04f270760e01b81526001600160a01b0388169063f04f270790610d46908990899088908a906004016160a6565b600060405180830381600087803b158015610d6057600080fd5b505af1158015610d74573d6000803e3d6000fd5b5050505060005b8651811015610f13576000878281518110610d9857610d98616004565b602002602001015190506000848381518110610db657610db6616004565b60209081029190910101516040516370a0823160e01b81523060048201529091506000906001600160a01b038416906370a082319060240160206040518083038186803b158015610e0657600080fd5b505afa158015610e1a573d6000803e3d6000fd5b505050506040513d601f19601f82011682018060405250810190610e3e9190616035565b9050610e4f828210156102036105a4565b6000610e5b83836160f3565b9050610e85888681518110610e7257610e72616004565b602002602001015182101561025a6105a4565b610e8f84826120c5565b836001600160a01b03168c6001600160a01b03167f0d7d75e01ab95780d3cd1c8ec0dd6c2ce19e3a20427eec8bf53283b6fb8e95f08c8881518110610ed657610ed6616004565b602002602001015184604051610ef6929190918252602082015260400190565b60405180910390a35050505080610f0c9061601a565b9050610d7b565b50505050610f216001600055565b50505050565b610f2f6118cc565b610f3761196f565b82610f41816120ff565b610f4d83518351611fb5565b60005b8351811015610fff576000848281518110610f6d57610f6d616004565b60200260200101519050610f9960006001600160a01b0316826001600160a01b031614156101356105a4565b838281518110610fab57610fab616004565b6020908102919091018101516000888152600a835260408082206001600160a01b0395861683529093529190912080546001600160a01b03191692909116919091179055610ff88161601a565b9050610f50565b50600061100b85612131565b9050600281600281111561102157611021615e14565b141561107b57611037845160021461020c6105a4565b611076858560008151811061104e5761104e616004565b60200260200101518660018151811061106957611069616004565b602002602001015161214b565b6110a9565b600181600281111561108f5761108f615e14565b141561109f5761107685856121f7565b6110a9858561225d565b847ff5847d3f2197b16cdcd2098ec95d0905cd1abdaf415f07bb7cef2bba8ac5dec485856040516110db92919061610a565b60405180910390a250506110ef6001600055565b505050565b6110fc6118cc565b61110461196f565b8161110e816120ff565b600061111984612131565b9050600281600281111561112f5761112f615e14565b141561118957611145835160021461020c6105a4565b611184848460008151811061115c5761115c616004565b60200260200101518560018151811061117757611177616004565b60200260200101516122c0565b6111b7565b600181600281111561119d5761119d615e14565b14156111ad576111848484612339565b6111b784846123fa565b60005b835181101561122b57600a600086815260200190815260200160002060008583815181106111ea576111ea616004565b6020908102919091018101516001600160a01b0316825281019190915260400160002080546001600160a01b03191690556112248161601a565b90506111ba565b50837f7dcdc6d02ef40c7c1a7046a011b058bd7f988fa14e20a66344f9d4e60657d6108460405161125c919061616a565b60405180910390a250506105b26001600055565b60007f0000000000000000000000000000000000000000000000000000000000000000826040516020016112b89291909182526001600160e01b031916602082015260240190565b604051602081830303815290604052805190602001209050919050565b610f2160018585856112e686612470565b6124a1565b60606112f56118cc565b6112fd61196f565b835161130881611c64565b611317834211156101fc6105a4565b61132386518551611fb5565b61132f8787878b612653565b91506000805b875181101561142157600088828151811061135257611352616004565b60200260200101519050600085838151811061137057611370616004565b602002602001015190506113a288848151811061138f5761138f616004565b60200260200101518213156101fb6105a4565b60008113156113e257885160208a015182916113c19185918491611ddd565b6001600160a01b0383166113dc576113d98186615fde565b94505b5061140e565b600081121561140e5760006113f68261617d565b905061140c83828c604001518d60600151611ed2565b505b50508061141a9061601a565b9050611335565b5061142b81611b05565b50506114376001600055565b9695505050505050565b905090565b600080600080856114568161293d565b60008061146289612131565b9050600281600281111561147857611478615e14565b141561148f57611488898961295b565b91506114c0565b60018160028111156114a3576114a3615e14565b14156114b35761148889896129d5565b6114bd8989612a57565b91505b6001600160701b03821696506114df8260701c6001600160701b031690565b95506114eb8260e01c90565b6000998a52600a60209081526040808c206001600160a01b039b8c168d5290915290992054969995989796909616955050505050565b61152961196f565b610f2160008585856112e686612470565b6115426118cc565b61154a61196f565b6040805160808101825260008082526020820181905291810182905260608101829052905b825181101561167b5782818151811061158a5761158a616004565b602002602001015191506000826020015190506115a68161293d565b60408301516115c06115b88383612a6f565b6102096105a4565b6000828152600a602090815260408083206001600160a01b0385811685529252909120546115f3911633146101f66105a4565b8351606085015160008061160984878786612ad7565b91509150846001600160a01b0316336001600160a01b0316877f6edcaf6241105b4c94c2efdbf3a6b12458eb3d07be3a0e81d24b13c44045fe7a858560405161165c929190918252602082015260400190565b60405180910390a4505050505050806116749061601a565b905061156f565b50506105d96001600055565b6000611441612b52565b6000808261169e8161293d565b6116a88460601c90565b6116b185612131565b925092505b50915091565b6060333014611776576000306001600160a01b03166000366040516116e292919061619a565b6000604051808303816000865af19150503d806000811461171f576040519150601f19603f3d011682016040523d82523d6000602084013e611724565b606091505b50509050806000811461173357fe5b60046000803e6000516001600160e01b031916637d30e60960e11b811461175e573d6000803e3d6000fd5b50602060005260043d0380600460203e602081016000f35b600061178485858589612653565b9050602081510263fa61cc126020830352600482036024820181fd5b6060806000836117af8161293d565b60606117ba86612bf8565b90955090506117c881612c57565b95979096509350505050565b6117dc6118cc565b6117e461196f565b826117ee81611c64565b6001600160a01b03848116600081815260046020908152604080832094881680845294825291829020805460ff191687151590811790915591519182529192917f46961fdb4502b646d5095fba7600486a8ac05041d55cdf0f16ed677180b5cad8910160405180910390a3506110ef6001600055565b60006118708383612d1e565b90505b92915050565b62461bcd60e51b6000908152602060045260076024526642414c23000030600a808404818106603090810160081b95839006959095019082900491820690940160101b939093010160c81b604452606490fd5b6118de600260005414156101906105a4565b6002600055565b60006118fc6000356001600160e01b031916611270565b90506105d961190b8233612d4c565b6101916105a4565b6040516001600160a01b038216907f94b979b6831a51293e2641426f97747feed46f17779fed9cd18d1ecefcfe92ef90600090a2600380546001600160a01b0390921661010002610100600160a81b0319909216919091179055565b61198261197a611c2e565b6101926105a4565b565b600069ffffffffffffffffffff821660508460028111156119a7576119a7615e14565b901b1760c085901b6001600160c01b0319161790505b9392505050565b600080600080600080600088606001519050336001600160a01b0316816001600160a01b031614611a165787611a01576119fc6118e5565b600197505b611a16611a0e8233612d1e565b6101f76105a4565b885160208a015160408b01516080909b0151919b909a9992985090965090945092505050565b611a5183611a4986611c96565b836000612ddc565b50610f218482846000611ed2565b611a7282611a6c86611c96565b83612e43565b610f218482856000611ddd565b611a8c8385836000612ddc565b50610f21828583612e43565b8015610f2157611ab36001600160a01b038516848484612e6e565b604080516001600160a01b0384811682526020820184905280861692908716917f540a1a3f28340caec336c81d8d7b3df139ee5cdc1839a4f283d7ebb7eaae2d5c91015b60405180910390a350505050565b611b14813410156102046105a4565b6000611b2082346160f3565b905080156105b257604051339082156108fc029083906000818181858888f193505050501580156110ef573d6000803e3d6000fd5b6001600160a01b039182166000908152600b6020908152604080832093909416825291909152205490565b8015611bb957611bb47f000000000000000000000000000000000000000000000000000000000000000042106101936105a4565b611be7565b611be77f000000000000000000000000000000000000000000000000000000000000000042106101a96105a4565b6003805460ff19168215159081179091556040519081527f9e3a5e37224532dea67b89face185703738a228a6e8a23dee546960180d3be649060200160405180910390a150565b60007f000000000000000000000000000000000000000000000000000000000000000042118061144157505060035460ff161590565b336001600160a01b038216146105d957611c7c6118e5565b611c868133612d1e565b6105d9576105d9816101f7612ea6565b60006001600160a01b03821615611cad5781611873565b7f0000000000000000000000000000000000000000000000000000000000000000611873565b600080600080611ce7856080015160601c90565b90506000611cf88660800151612131565b90506002816002811115611d0e57611d0e615e14565b1415611d2557611d1e8683612ee4565b9450611d56565b6001816002811115611d3957611d39615e14565b1415611d4957611d1e8683612f94565b611d538683613027565b94505b611d698660000151876060015187613283565b809450819550505085604001516001600160a01b031686602001516001600160a01b031687608001517f2170c741c41531aec20e7c107c24eecfdd15e69c9bb0a8dd37b1840b9e0b207b8787604051611dcc929190918252602082015260400190565b60405180910390a450509193909250565b82611de757610f21565b6001600160a01b038416611e8a57611e0281156102026105a4565b611e11834710156102046105a4565b7f00000000000000000000000000000000000000000000000000000000000000006001600160a01b031663d0e30db0846040518263ffffffff1660e01b81526004016000604051808303818588803b158015611e6c57600080fd5b505af1158015611e80573d6000803e3d6000fd5b5050505050610f21565b838115611eb0576000611ea08483876001612ddc565b9050611eac81866160f3565b9450505b8315611ecb57611ecb6001600160a01b038216843087612e6e565b5050505050565b82611edc57610f21565b6001600160a01b038416611f8a57611ef781156102026105a4565b604051632e1a7d4d60e01b8152600481018490526001600160a01b037f00000000000000000000000000000000000000000000000000000000000000001690632e1a7d4d90602401600060405180830381600087803b158015611f5957600080fd5b505af1158015611f6d573d6000803e3d6000fd5b50611f85925050506001600160a01b038316846132b7565b610f21565b838115611fa157611f9c838286612e43565b611ecb565b611ecb6001600160a01b0382168486612062565b6105b281831460676105a4565b6000807f00000000000000000000000000000000000000000000000000000000000000006001600160a01b031663d877845c6040518163ffffffff1660e01b815260040160206040518083038186803b15801561201e57600080fd5b505afa158015612032573d6000803e3d6000fd5b505050506040513d601f19601f820116820180604052508101906120569190616035565b90506119bd8382613328565b6040516001600160a01b0383166024820152604481018290526110ef90849063a9059cbb60e01b906064015b60408051601f198184030181529190526020810180516001600160e01b03166001600160e01b0319909316929092179091526133c4565b80156105b2576105b26001600160a01b0383167f000000000000000000000000000000000000000000000000000000000000000083612062565b6121088161293d565b6105d96121158260601c90565b6001600160a01b0316336001600160a01b0316146101f56105a4565b600061ffff605083901c16611873600382106101f46105a4565b61216c816001600160a01b0316836001600160a01b0316141561020a6105a4565b61218b816001600160a01b0316836001600160a01b03161060666105a4565b600083815260096020526040902080546121c8906001600160a01b03161580156121c0575060018201546001600160a01b0316155b61020b6105a4565b80546001600160a01b039384166001600160a01b03199182161782556001909101805492909316911617905550565b6000828152600860205260408120905b8251811015610f2157600061223e84838151811061222757612227616004565b60200260200101518461346390919063ffffffff16565b905061224c8161020a6105a4565b506122568161601a565b9050612207565b6000828152600160205260408120905b8251811015610f215760006122a184838151811061228d5761228d616004565b6020908102919091010151849060006134d5565b90506122af8161020a6105a4565b506122b98161601a565b905061226d565b60008060006122d08686866135b4565b9250925092506123056122ea846001600160e01b03161590565b80156122fd57506001600160e01b038316155b61020d6105a4565b600095865260096020526040862080546001600160a01b031990811682556001909101805490911690559490945550505050565b6000828152600860205260408120905b8251811015610f2157600083828151811061236657612366616004565b60209081029190910181015160008781526007835260408082206001600160a01b038416835290935291909120549091506123aa906001600160e01b0316156122fd565b60008581526007602090815260408083206001600160a01b038516845290915281208190556123d98483613682565b90506123e7816102096105a4565b5050806123f39061601a565b9050612349565b6000828152600160205260408120905b8251811015610f2157600083828151811061242757612427616004565b60200260200101519050600061243d84836137cc565b90506124526001600160e01b038216156122fd565b61245c84836137db565b505050806124699061601a565b905061240a565b61249d60405180608001604052806060815260200160608152602001606081526020016000151581525090565b5090565b6124a96118cc565b836124b38161293d565b836124bd81611c64565b6124d1836000015151846020015151611fb5565b60006124e084600001516138d4565b905060006124ee8883613978565b905060008060006125038c8c8c8c8c89613a1d565b92509250925060006125148c612131565b9050600281600281111561252a5761252a615e14565b14156125aa576125a58c8760008151811061254757612547616004565b60200260200101518660008151811061256257612562616004565b60200260200101518960018151811061257d5761257d616004565b60200260200101518860018151811061259857612598616004565b6020026020010151613bef565b6125d9565b60018160028111156125be576125be615e14565b14156125cf576125a58c8786613c2e565b6125d98c85613cb8565b6000808e60018111156125ee576125ee615e14565b1490508b6001600160a01b03168d7fe5ce249087ce04f05a957192435400fd97868dba0e6a4b4c049abf8af80dae78896126288886613d0f565b87604051612638939291906161aa565b60405180910390a3505050505050505050611ecb6001600055565b606083516001600160401b0381111561266e5761266e61532f565b604051908082528060200260200182016040528015612697578160200160208202803683370190505b5090506126cf6040518060a0016040528060008019168152602001600081526020016000815260200160008152602001606081525090565b6126d7615283565b60008060005b8951811015612930578981815181106126f8576126f8616004565b6020026020010151945060008951866020015110801561271c575089518660400151105b90506127298160646105a4565b60006127518b88602001518151811061274457612744616004565b6020026020010151611c96565b9050600061276e8c89604001518151811061274457612744616004565b9050612791816001600160a01b0316836001600160a01b031614156101fd6105a4565b60608801516127e1576127a9600085116101fe6105a4565b60006127b68b8484613dd9565b6001600160a01b0316876001600160a01b03161490506127d8816101ff6105a4565b50606088018590525b87516080880152868a60018111156127fb576127fb615e14565b9081600181111561280e5761280e615e14565b9052506001600160a01b0380831660208901528181166040808a01919091526060808b0151908a015260808a01516101008a01528c51821660c08a01528c01511660e088015260008061286089611cd3565b919850925090506128728c8585613e01565b975061287d82613e21565b8b8b602001518151811061289357612893616004565b60200260200101516128a591906161e3565b8b8b60200151815181106128bb576128bb616004565b6020026020010181815250506128d081613e21565b8b8b60400151815181106128e6576128e6616004565b60200260200101516128f89190616224565b8b8b604001518151811061290e5761290e616004565b6020026020010181815250505050505050806129299061601a565b90506126dd565b5050505050949350505050565b6000818152600560205260409020546105d99060ff166101f46105a4565b600080600080600061296c87613e35565b945094509450945050836001600160a01b0316866001600160a01b0316141561299b5782945050505050611873565b816001600160a01b0316866001600160a01b031614156129c057935061187392505050565b6129cb610209611879565b5050505092915050565b60008281526007602090815260408083206001600160a01b0385168452909152812054816001600160e01b038216151580612a34575060008581526008602090815260408083206001600160a01b038816845260010190915290205415155b905080612a4f57612a448561293d565b612a4f610209611879565b509392505050565b6000828152600160205260408120610ac881846137cc565b600080612a7b84612131565b90506002816002811115612a9157612a91615e14565b1415612aa957612aa18484613eab565b915050611873565b6001816002811115612abd57612abd615e14565b1415612acd57612aa18484613efc565b612aa18484613f2a565b6000806000612ae586612131565b90506000876002811115612afb57612afb615e14565b1415612b1757612b0d86828787613f58565b9250925050612b49565b6001876002811115612b2b57612b2b615e14565b1415612b3d57612b0d86828787613fe4565b612b0d86828787614073565b94509492505050565b60007f00000000000000000000000000000000000000000000000000000000000000007f00000000000000000000000000000000000000000000000000000000000000007f000000000000000000000000000000000000000000000000000000000000000046604080516020810195909552840192909252606083015260808201523060a082015260c00160405160208183030381529060405280519060200120905090565b6060806000612c0684612131565b90506002816002811115612c1c57612c1c615e14565b1415612c2b576116b1846140e2565b6001816002811115612c3f57612c3f615e14565b1415612c4e576116b18461422e565b6116b184614362565b6060600082516001600160401b03811115612c7457612c7461532f565b604051908082528060200260200182016040528015612c9d578160200160208202803683370190505b5091506000905060005b82518110156116b6576000848281518110612cc457612cc4616004565b60200260200101519050612cd781614484565b848381518110612ce957612ce9616004565b602002602001018181525050612d0883612d038360e01c90565b6144ac565b9250508080612d169061601a565b915050612ca7565b6001600160a01b03918216600090815260046020908152604080832093909416825291909152205460ff1690565b6003546040516326f8aa2160e21b8152600481018490526001600160a01b03838116602483015230604483015260009261010090041690639be2a8849060640160206040518083038186803b158015612da457600080fd5b505afa158015612db8573d6000803e3d6000fd5b505050506040513d601f19601f820116820180604052508101906118709190616263565b600080612de98686611b55565b9050612e028380612dfa5750848210155b6102016105a4565b612e0c81856144c3565b91506000612e1a83836160f3565b9050612e39878783612e2b87613e21565b612e349061617d565b6144d2565b5050949350505050565b6000612e4f8484611b55565b90506000612e5d8383615fde565b9050611ecb858583612e3487613e21565b6040516001600160a01b0380851660248301528316604482015260648101829052610f219085906323b872dd60e01b9060840161208e565b6001600160a01b038216600090815260026020526040812080549082612ecb8361601a565b9190505590506110ef612ede848361452b565b836105a4565b600080600080612f018660800151876020015188604001516135b4565b92509250925060008087604001516001600160a01b031688602001516001600160a01b03161015612f36575083905082612f3c565b50829050835b612f488888848461467a565b60408b015160208c01519199509294509092506001600160a01b03918216911610612f7c57612f778183614779565b612f86565b612f868282614779565b909255509295945050505050565b600080612fa9846080015185602001516129d5565b90506000612fbf856080015186604001516129d5565b9050612fcd8585848461467a565b6080880180516000908152600760208181526040808420828e01516001600160a01b03908116865290835281852098909855935183529081528282209a830151909516815298909352919096209590955550929392505050565b60808201516000908152600160209081526040808320828601516001600160a01b03168452600281019092528220548291829160006130738860400151846147b890919063ffffffff16565b9050811580613080575080155b1561309d57613092886080015161293d565b61309d610209611879565b6130a86001836160f3565b91506130b56001826160f3565b905060006130c1845490565b90506000816001600160401b038111156130dd576130dd61532f565b604051908082528060200260200182016040528015613106578160200160208202803683370190505b50600060a08c018190529091505b8281101561319d57600081815260018781016020526040909120015461313981614484565b83838151811061314b5761314b616004565b6020026020010181815250506131698c60a00151612d038360e01c90565b60a08d01528186141561317e5780985061318a565b8482141561318a578097505b50806131958161601a565b915050613114565b5060405162f64aa560e11b81526001600160a01b038a16906301ec954a906131cf908d9085908990899060040161633d565b602060405180830381600087803b1580156131e957600080fd5b505af11580156131fd573d6000803e3d6000fd5b505050506040513d601f19601f820116820180604052508101906132219190616035565b97506000806132398c600001518d606001518c613283565b909250905061324889836147d7565b98506132548882614812565b60009687526001978801602052604080882089019a909a55948652505050949091209091015550909392505050565b6000808085600181111561329957613299615e14565b14156132a95750829050816132af565b50819050825b935093915050565b6132c6814710156101a36105a4565b6000826001600160a01b03168260405160006040518083038185875af1925050503d8060008114613313576040519150601f19603f3d011682016040523d82523d6000602084013e613318565b606091505b505090506110ef816101a46105a4565b6000806133358385616376565b905083158061334c57508261334a8583616395565b145b61338c5760405162461bcd60e51b815260206004820152600c60248201526b4d554c5f4f564552464c4f5760a01b60448201526064015b60405180910390fd5b8061339b576000915050611873565b670de0b6b3a76400006133af6001836160f3565b6133b99190616395565b612aa1906001615fde565b600080836001600160a01b0316836040516133df91906163b7565b6000604051808303816000865af19150503d806000811461341c576040519150601f19603f3d011682016040523d82523d6000602084013e613421565b606091505b50915091506000821415613439573d6000803e3d6000fd5b610f2181516000148061345b57508180602001905181019061345b9190616263565b6101a26105a4565b6001600160a01b03811660009081526001830160205260408120546134cd57508154600180820184556000848152602080822090930180546001600160a01b0319166001600160a01b03861690811790915585549082528286019093526040902091909155611873565b506000611873565b6001600160a01b0382166000908152600284016020526040812054806135815784546040805180820182526001600160a01b038781168252602080830188815260008681526001808d0190935294909420925183546001600160a01b031916921691909117825591519082015561354d908290615fde565b865561355a816001615fde565b6001600160a01b038616600090815260028801602052604090205550600191506119bd9050565b8285600101600060018461359591906160f3565b81526020019081526020016000206001018190555060009150506119bd565b60008060008060006135c68787614840565b9150915060006135d68383614871565b60008a8152600960209081526040808320848452600201909152812080546001820154919750929350906001600160e01b03831615158061361f57506001600160e01b03821615155b80613640575061362f8c87613eab565b801561364057506136408c86613eab565b90508061365b576136508c61293d565b61365b610209611879565b61366583836148bb565b985061367183836148e4565b975050505050505093509350939050565b6001600160a01b038116600090815260018301602052604081205480156137c25760006136b06001836160f3565b85549091506000906136c4906001906160f3565b90508082146137645760008660000182815481106136e4576136e4616004565b60009182526020909120015487546001600160a01b039091169150819088908590811061371357613713616004565b600091825260209091200180546001600160a01b0319166001600160a01b0392909216919091179055613747836001615fde565b6001600160a01b0390911660009081526001880160205260409020555b8554869080613775576137756163d3565b60008281526020808220830160001990810180546001600160a01b03191690559092019092556001600160a01b038716825260018881019091526040822091909155935061187392505050565b6000915050611873565b6000611870838361020961490f565b6001600160a01b038116600090815260028301602052604081205480156137c25760006138096001836160f3565b905060006001866000015461381e91906160f3565b905080821461388a576000818152600180880160205260408083208584529220825481546001600160a01b0319166001600160a01b03909116178155828201549082015561386d908490615fde565b90546001600160a01b031660009081526002880160205260409020555b600081815260018088016020908152604080842080546001600160a01b031916815583018490559389556001600160a01b0388168352600289019052918120559250611873915050565b6060600082516001600160401b038111156138f1576138f161532f565b60405190808252806020026020018201604052801561391a578160200160208202803683370190505b50905060005b83518110156108985761393e84828151811061274457612744616004565b82828151811061395057613950616004565b6001600160a01b03909216602092830291909101909101526139718161601a565b9050613920565b606060008061398685612bf8565b9150915061399682518551611fb5565b6139a6600083511161020f6105a4565b60005b8251811015613a1457613a048582815181106139c7576139c7616004565b60200260200101516001600160a01b03168483815181106139ea576139ea616004565b60200260200101516001600160a01b0316146102086105a4565b613a0d8161601a565b90506139a9565b50949350505050565b6060806060600080613a2e86612c57565b915091506000613a3e8b60601c90565b905060008c6001811115613a5457613a54615e14565b14613af757806001600160a01b03166374f3b0098c8c8c8787613a75614964565b8f604001516040518863ffffffff1660e01b8152600401613a9c97969594939291906163e9565b600060405180830381600087803b158015613ab657600080fd5b505af1158015613aca573d6000803e3d6000fd5b505050506040513d6000823e601f3d908101601f19168201604052613af291908101906164a2565b613b90565b806001600160a01b031663d5c096c48c8c8c8787613b13614964565b8f604001516040518863ffffffff1660e01b8152600401613b3a97969594939291906163e9565b600060405180830381600087803b158015613b5457600080fd5b505af1158015613b68573d6000803e3d6000fd5b505050506040513d6000823e601f3d908101601f19168201604052613b9091908101906164a2565b8095508196505050613ba68751865186516149f7565b60008c6001811115613bba57613bba615e14565b14613bd157613bcc8989898888614a0f565b613bde565b613bde8a89898888614b80565b955050505096509650969350505050565b6000613bfb8584614871565b60008781526009602090815260408083208484526002019091529020909150613c248584614779565b9055505050505050565b60005b8251811015610f2157818181518110613c4c57613c4c616004565b6020026020010151600760008681526020019081526020016000206000858481518110613c7b57613c7b616004565b60200260200101516001600160a01b03166001600160a01b031681526020019081526020016000208190555080613cb19061601a565b9050613c31565b6000828152600160205260408120905b8251811015610f2157613cff81848381518110613ce757613ce7616004565b6020026020010151846148289092919063ffffffff16565b613d088161601a565b9050613cc8565b606082516001600160401b03811115613d2a57613d2a61532f565b604051908082528060200260200182016040528015613d53578160200160208202803683370190505b50905060005b83518110156108985782613d8f57838181518110613d7957613d79616004565b6020026020010151613d8a9061617d565b613daa565b838181518110613da157613da1616004565b60200260200101515b828281518110613dbc57613dbc616004565b602090810291909101015280613dd18161601a565b915050613d59565b600080846001811115613dee57613dee615e14565b14613df95781610ac8565b509092915050565b600080846001811115613e1657613e16615e14565b146108985782610ac8565b600061249d600160ff1b83106101a56105a4565b6000818152600960205260408120805460018201546001600160a01b0391821692849290911690829081613e698685614871565b6000818152600284016020526040902080546001820154919950919250613e9082826148bb565b9650613e9c82826148e4565b94505050505091939590929450565b600082815260096020526040812080546001600160a01b0384811691161480613ee3575060018101546001600160a01b038481169116145b8015610ac8575050506001600160a01b03161515919050565b60008281526008602090815260408083206001600160a01b0385168452600181019092528220541515610ac8565b60008281526001602090815260408083206001600160a01b0385168452600281019092528220541515610ac8565b6000806002856002811115613f6f57613f6f615e14565b1415613f8557613f80868585614d34565b613fb5565b6001856002811115613f9957613f99615e14565b1415613faa57613f80868585614d42565b613fb5868585614d50565b8215613fcf57613fcf6001600160a01b0385163385612062565b613fd88361617d565b96929550919350505050565b6000806002856002811115613ffb57613ffb615e14565b14156140115761400c868585614d5e565b614041565b600185600281111561402557614025615e14565b14156140365761400c868585614d6c565b614041868585614d7a565b821561405c5761405c6001600160a01b038516333086612e6e565b8291506140688261617d565b905094509492505050565b600080600285600281111561408a5761408a615e14565b14156140a25761409b868585614d88565b90506140d5565b60018560028111156140b6576140b6615e14565b14156140c75761409b868585614d98565b6140d2868585614da8565b90505b6000915094509492505050565b6060806000806000806140f487613e35565b92975090955093509150506001600160a01b038416158061411c57506001600160a01b038216155b1561414457505060408051600080825260208201908152818301909252969095509350505050565b6040805160028082526060820183529091602083019080368337019050509550838660008151811061417857614178616004565b60200260200101906001600160a01b031690816001600160a01b03168152505081866001815181106141ac576141ac616004565b6001600160a01b039290921660209283029190910182015260408051600280825260608201835290929091908301908036833701905050945082856000815181106141f9576141f9616004565b602002602001018181525050808560018151811061421957614219616004565b60200260200101818152505050505050915091565b6000818152600860205260409020805460609182916001600160401b0381111561425a5761425a61532f565b604051908082528060200260200182016040528015614283578160200160208202803683370190505b50925082516001600160401b0381111561429f5761429f61532f565b6040519080825280602002602001820160405280156142c8578160200160208202803683370190505b50915060005b835181101561435b5760006142e38383614db8565b9050808583815181106142f8576142f8616004565b6001600160a01b0392831660209182029290920181019190915260008881526007825260408082209385168252929091522054845185908490811061433f5761433f616004565b6020908102919091010152506143548161601a565b90506142ce565b5050915091565b6000818152600160205260409020805460609182916001600160401b0381111561438e5761438e61532f565b6040519080825280602002602001820160405280156143b7578160200160208202803683370190505b50925082516001600160401b038111156143d3576143d361532f565b6040519080825280602002602001820160405280156143fc578160200160208202803683370190505b50915060005b835181101561435b5760008181526001808401602052604090912080549101546001600160a01b039091169085838151811061444057614440616004565b6020026020010185848151811061445957614459616004565b60209081029190910101919091526001600160a01b03909116905261447d8161601a565b9050614402565b60006144998260701c6001600160701b031690565b611873906001600160701b038416615fde565b6000818310156144bc5781611870565b5090919050565b60008183106144bc5781611870565b6001600160a01b038481166000818152600b602090815260408083209488168084529482529182902086905590518481527f18e1ea4139e68413d7d08aa752e71568e36b2c5bf940893314c2c5b01eaa0c429101611af7565b600036607f19013542811015614545576000915050611873565b600061454f614deb565b90508061456157600092505050611873565b60008161456c614efb565b80516020918201206040805192830193909352918101919091523360608201526080810186905260a0810184905260c00160405160208183030381529060405280519060200120905060006145c082614f4b565b905060008060006145cf614f7a565b925092509250600060018585858560405160008152602001604052604051614613949392919093845260ff9290921660208401526040830152606082015260800190565b6020604051602081039080840390855afa158015614635573d6000803e3d6000fd5b5050604051601f1901519150506001600160a01b0381161580159061466b57508a6001600160a01b0316816001600160a01b0316145b9b9a5050505050505050505050565b60008060008061468986614484565b9050600061469686614484565b90506146af6146a58860e01c90565b612d038860e01c90565b60a08a015260405163274b044360e21b81526001600160a01b03891690639d2c110c906146e4908c90869086906004016164fb565b602060405180830381600087803b1580156146fe57600080fd5b505af1158015614712573d6000803e3d6000fd5b505050506040513d601f19601f820116820180604052508101906147369190616035565b925060008061474e8b600001518c6060015187613283565b909250905061475d89836147d7565b96506147698882614812565b9550505050509450945094915050565b6000806147936147898560e01c90565b612d038560e01c90565b9050610ac86001600160701b0385166001600160701b0385168363ffffffff16614f96565b6001600160a01b03166000908152600291909101602052604090205490565b6000806147ed836001600160701b038616615fde565b905060006148048560701c6001600160701b031690565b905043611437838383614fb5565b6000806147ed836001600160701b0386166160f3565b60009182526001928301602052604090912090910155565b600080826001600160a01b0316846001600160a01b031610614863578284614866565b83835b915091509250929050565b6040516bffffffffffffffffffffffff19606084811b8216602084015283901b16603482015260009060480160405160208183030381529060405280519060200120905092915050565b60006118706001600160701b0384166001600160701b0384165b6148df8660e01c90565b614fb5565b60006118706148fc8460701c6001600160701b031690565b6148d58460701c6001600160701b031690565b6001600160a01b0382166000908152600284016020526040812054614936811515846105a4565b61495b856149456001846160f3565b6000908152600191820160205260409020015490565b95945050505050565b60007f00000000000000000000000000000000000000000000000000000000000000006001600160a01b03166355c676286040518163ffffffff1660e01b815260040160206040518083038186803b1580156149bf57600080fd5b505afa1580156149d3573d6000803e3d6000fd5b505050506040513d601f19601f820116820180604052508101906114419190616035565b6110ef8284148015614a0857508183145b60676105a4565b606083516001600160401b03811115614a2a57614a2a61532f565b604051908082528060200260200182016040528015614a53578160200160208202803683370190505b50905060005b855151811015614b76576000848281518110614a7757614a77616004565b60200260200101519050614aad87602001518381518110614a9a57614a9a616004565b60200260200101518210156101f96105a4565b600087600001518381518110614ac557614ac5616004565b60200260200101519050614adf81838b8b60600151611ed2565b6000858481518110614af357614af3616004565b60200260200101519050614b0f614b0983611c96565b826120c5565b614b44614b1c8285615fde565b898681518110614b2e57614b2e616004565b602002602001015161481290919063ffffffff16565b858581518110614b5657614b56616004565b60200260200101818152505050505080614b6f9061601a565b9050614a59565b5095945050505050565b6060600084516001600160401b03811115614b9d57614b9d61532f565b604051908082528060200260200182016040528015614bc6578160200160208202803683370190505b50915060005b865151811015614d2a576000858281518110614bea57614bea616004565b60200260200101519050614c2088602001518381518110614c0d57614c0d616004565b60200260200101518211156101fa6105a4565b600088600001518381518110614c3857614c38616004565b60200260200101519050614c5281838c8c60600151611ddd565b6001600160a01b038116614c6d57614c6a8285615fde565b93505b6000868481518110614c8157614c81616004565b60200260200101519050614c97614b0983611c96565b80831015614cc357614cbe614cac84836160f3565b8a8681518110614b2e57614b2e616004565b614cf8565b614cf8614cd082856160f3565b8a8681518110614ce257614ce2616004565b60200260200101516147d790919063ffffffff16565b868581518110614d0a57614d0a616004565b60200260200101818152505050505080614d239061601a565b9050614bcc565b50614b7681611b05565b610f2183836150278461507a565b610f21838361502784615125565b610f21838361502784615180565b610f2183836151cf8461507a565b610f2183836151cf84615125565b610f2183836151cf84615180565b6000610ac884846152078561507a565b6000610ac8848461520785615125565b6000610ac8848461520785615180565b6000826000018281548110614dcf57614dcf616004565b6000918252602090912001546001600160a01b03169392505050565b6000803560e01c8063b95cac288114614e3357638bdb39138114614e5b576352bbbe298114614e835763945bcec98114614eab5763fa6e671d8114614ed35760009250505090565b7f3f7b71252bd19113ff48c19c6e004a9bcfcca320a0d74d58e85877cbd7dcae589250505090565b7f8bbc57f66ea936902f50a71ce12b92c43f3c5340bb40c27c4e90ab84eeae33539250505090565b7fe192dcbc143b1e244ad73b813fd3c097b832ad260a157340b4e5e5beda067abe9250505090565b7f9bfc43a4d98313c6766986ffd7c916c7481566d9f224c6819af0a53388aced3a9250505090565b7fa3f865aa351e51cfeb40f5178d1564bb629fe9030b83caf6361d1baaf5b90b5a9250505090565b60606000368080601f016020809104026020016040519081016040528093929190818152602001838380828437600092019190915250508251929350505060801015614f48576080360381525b90565b6000614f55612b52565b60405161190160f01b60208201526022810191909152604281018390526062016112b8565b36605f1981013590603f1981013590600090601f19013561090d565b600083614fab607085901b60e085901b615fde565b610ac89190615fde565b600080614fc28486615fde565b9050848110158015614fd75750600160701b81105b61501c5760405162461bcd60e51b815260206004820152601660248201527542414c414e43455f544f54414c5f4f564552464c4f5760501b6044820152606401613383565b61495b858585614f96565b60008061503d836001600160701b0386166160f3565b90506000836150558660701c6001600160701b031690565b61505f9190615fde565b9050600061506d8660e01c90565b9050611437838383614fb5565b600080600080600061508b89613e35565b9450509350935093506000836001600160a01b0316896001600160a01b031614156150d65760006150c084898b63ffffffff16565b90506150cc818561521f565b90935090506150f8565b60006150e683898b63ffffffff16565b90506150f2818461521f565b90925090505b6151028383614779565b855561510e8383615251565b600190950194909455509192505050949350505050565b60008061513286866129d5565b9050600061514482858763ffffffff16565b60008881526007602090815260408083206001600160a01b038b16845290915290208190559050615175818361521f565b979650505050505050565b60008481526001602052604081208161519982876137cc565b905060006151ab82868863ffffffff16565b90506151b88388836134d5565b506151c3818361521f565b98975050505050505050565b6000806151e5836001600160701b038616615fde565b90506000836151fd8660701c6001600160701b031690565b61505f91906160f3565b60006001600160701b0383164361495b828583614fb5565b60006152348260701c6001600160701b031690565b6152478460701c6001600160701b031690565b6118709190616224565b60006118706152698460701c6001600160701b031690565b61527c8460701c6001600160701b031690565b6000614f96565b60408051610120810190915280600081526000602082018190526040820181905260608083018290526080830182905260a0830182905260c0830182905260e08301919091526101009091015290565b6001600160a01b03811681146105d957600080fd5b6000602082840312156152fa57600080fd5b81356119bd816152d3565b600381106105d957600080fd5b60006020828403121561532457600080fd5b81356119bd81615305565b634e487b7160e01b600052604160045260246000fd5b60405160a081016001600160401b03811182821017156153675761536761532f565b60405290565b604051608081016001600160401b03811182821017156153675761536761532f565b60405160c081016001600160401b03811182821017156153675761536761532f565b604051601f8201601f191681016001600160401b03811182821017156153d9576153d961532f565b604052919050565b60006001600160401b038211156153fa576153fa61532f565b5060051b60200190565b6000602080838503121561541757600080fd5b82356001600160401b0381111561542d57600080fd5b8301601f8101851361543e57600080fd5b803561545161544c826153e1565b6153b1565b81815260a0918202830184019184820191908884111561547057600080fd5b938501935b838510156154f75780858a03121561548d5760008081fd5b615495615345565b8535600481106154a55760008081fd5b8152858701356154b4816152d3565b81880152604086810135908201526060808701356154d1816152d3565b908201526080868101356154e4816152d3565b9082015283529384019391850191615475565b50979650505050505050565b600082601f83011261551457600080fd5b8135602061552461544c836153e1565b82815260059290921b8401810191818101908684111561554357600080fd5b8286015b8481101561556757803561555a816152d3565b8352918301918301615547565b509695505050505050565b6000806040838503121561558557600080fd5b8235615590816152d3565b915060208301356001600160401b038111156155ab57600080fd5b6155b785828601615503565b9150509250929050565b600081518084526020808501945080840160005b838110156155f1578151875295820195908201906001016155d5565b509495945050505050565b60208152600061187060208301846155c1565b80151581146105d957600080fd5b60006020828403121561562f57600080fd5b81356119bd8161560f565b80356002811061069b57600080fd5b600082601f83011261565a57600080fd5b81356001600160401b038111156156735761567361532f565b615686601f8201601f19166020016153b1565b81815284602083860101111561569b57600080fd5b816020850160208301376000918101602001919091529392505050565b6000608082840312156156ca57600080fd5b6156d261536d565b905081356156df816152d3565b815260208201356156ef8161560f565b60208201526040820135615702816152d3565b604082015260608201356157158161560f565b606082015292915050565b60008060008060e0858703121561573657600080fd5b84356001600160401b038082111561574d57600080fd5b9086019060c0828903121561576157600080fd5b61576961538f565b823581526157796020840161563a565b6020820152604083013561578c816152d3565b6040820152606083013561579f816152d3565b60608201526080838101359082015260a0830135828111156157c057600080fd5b6157cc8a828601615649565b60a0830152508096505050506157e586602087016156b8565b939693955050505060a08201359160c0013590565b600082601f83011261580b57600080fd5b8135602061581b61544c836153e1565b82815260059290921b8401810191818101908684111561583a57600080fd5b8286015b84811015615567578035835291830191830161583e565b6000806000806080858703121561586b57600080fd5b8435615876816152d3565b935060208501356001600160401b038082111561589257600080fd5b61589e88838901615503565b945060408701359150808211156158b457600080fd5b6158c0888389016157fa565b935060608701359150808211156158d657600080fd5b506158e387828801615649565b91505092959194509250565b60008060006060848603121561590457600080fd5b833592506020808501356001600160401b038082111561592357600080fd5b61592f88838901615503565b9450604087013591508082111561594557600080fd5b508501601f8101871361595757600080fd5b803561596561544c826153e1565b81815260059190911b8201830190838101908983111561598457600080fd5b928401925b828410156159ab57833561599c816152d3565b82529284019290840190615989565b80955050505050509250925092565b600080604083850312156159cd57600080fd5b8235915060208301356001600160401b038111156155ab57600080fd5b6000602082840312156159fc57600080fd5b81356001600160e01b0319811681146119bd57600080fd5b600060808284031215615a2657600080fd5b615a2e61536d565b905081356001600160401b0380821115615a4757600080fd5b615a5385838601615503565b83526020840135915080821115615a6957600080fd5b615a75858386016157fa565b60208401526040840135915080821115615a8e57600080fd5b50615a9b84828501615649565b60408301525060608201356157158161560f565b60008060008060808587031215615ac557600080fd5b843593506020850135615ad7816152d3565b92506040850135615ae7816152d3565b915060608501356001600160401b03811115615b0257600080fd5b6158e387828801615a14565b600082601f830112615b1f57600080fd5b81356020615b2f61544c836153e1565b82815260059290921b84018101918181019086841115615b4e57600080fd5b8286015b848110156155675780356001600160401b0380821115615b725760008081fd5b9088019060a0828b03601f1901811315615b8c5760008081fd5b615b94615345565b87840135815260408085013589830152606080860135828401526080915081860135818401525082850135925083831115615bcf5760008081fd5b615bdd8d8a85880101615649565b908201528652505050918301918301615b52565b6000806000806000806101208789031215615c0b57600080fd5b615c148761563a565b95506020808801356001600160401b0380821115615c3157600080fd5b615c3d8b838c01615b0e565b975060408a0135915080821115615c5357600080fd5b615c5f8b838c01615503565b9650615c6e8b60608c016156b8565b955060e08a0135915080821115615c8457600080fd5b508801601f81018a13615c9657600080fd5b8035615ca461544c826153e1565b81815260059190911b8201830190838101908c831115615cc357600080fd5b928401925b82841015615ce157833582529284019290840190615cc8565b809650505050505061010087013590509295509295509295565b60008060408385031215615d0e57600080fd5b823591506020830135615d20816152d3565b809150509250929050565b60006020808385031215615d3e57600080fd5b82356001600160401b03811115615d5457600080fd5b8301601f81018513615d6557600080fd5b8035615d7361544c826153e1565b81815260079190911b82018301908381019087831115615d9257600080fd5b928401925b828410156151755760808489031215615db05760008081fd5b615db861536d565b8435615dc381615305565b81528486013586820152604080860135615ddc816152d3565b9082015260608581013590820152825260809093019290840190615d97565b600060208284031215615e0d57600080fd5b5035919050565b634e487b7160e01b600052602160045260246000fd5b60038110615e3a57615e3a615e14565b9052565b6001600160a01b0383168152604081016119bd6020830184615e2a565b60008060008060e08587031215615e7157600080fd5b615e7a8561563a565b935060208501356001600160401b0380821115615e9657600080fd5b615ea288838901615b0e565b94506040870135915080821115615eb857600080fd5b50615ec587828801615503565b925050615ed586606087016156b8565b905092959194509250565b600081518084526020808501945080840160005b838110156155f15781516001600160a01b031687529582019590820190600101615ef4565b606081526000615f2c6060830186615ee0565b8281036020840152615f3e81866155c1565b915050826040830152949350505050565b600080600060608486031215615f6457600080fd5b8335615f6f816152d3565b92506020840135615f7f816152d3565b91506040840135615f8f8161560f565b809150509250925092565b60008060408385031215615fad57600080fd5b8235615fb8816152d3565b91506020830135615d20816152d3565b634e487b7160e01b600052601160045260246000fd5b60008219821115615ff157615ff1615fc8565b500190565b602081016118738284615e2a565b634e487b7160e01b600052603260045260246000fd5b600060001982141561602e5761602e615fc8565b5060010190565b60006020828403121561604757600080fd5b5051919050565b60005b83811015616069578181015183820152602001616051565b83811115610f215750506000910152565b6000815180845261609281602086016020860161604e565b601f01601f19169290920160200192915050565b6080815260006160b96080830187615ee0565b82810360208401526160cb81876155c1565b905082810360408401526160df81866155c1565b90508281036060840152615175818561607a565b60008282101561610557616105615fc8565b500390565b60408152600061611d6040830185615ee0565b82810360208481019190915284518083528582019282019060005b8181101561615d5784516001600160a01b031683529383019391830191600101616138565b5090979650505050505050565b6020815260006118706020830184615ee0565b6000600160ff1b82141561619357616193615fc8565b5060000390565b8183823760009101908152919050565b6060815260006161bd6060830186615ee0565b82810360208401526161cf81866155c1565b9050828103604084015261143781856155c1565b600080821280156001600160ff1b038490038513161561620557616205615fc8565b600160ff1b839003841281161561621e5761621e615fc8565b50500190565b60008083128015600160ff1b85018412161561624257616242615fc8565b6001600160ff1b038401831381161561625d5761625d615fc8565b50500390565b60006020828403121561627557600080fd5b81516119bd8161560f565b600061012082516002811061629757616297615e14565b8085525060208301516162b560208601826001600160a01b03169052565b5060408301516162d060408601826001600160a01b03169052565b50606083015160608501526080830151608085015260a083015160a085015260c083015161630960c08601826001600160a01b03169052565b5060e083015161632460e08601826001600160a01b03169052565b506101008084015182828701526114378387018261607a565b6080815260006163506080830187616280565b828103602084015261636281876155c1565b604084019590955250506060015292915050565b600081600019048311821515161561639057616390615fc8565b500290565b6000826163b257634e487b7160e01b600052601260045260246000fd5b500490565b600082516163c981846020870161604e565b9190910192915050565b634e487b7160e01b600052603160045260246000fd5b8781526001600160a01b0387811660208301528616604082015260e06060820181905260009061641b908301876155c1565b8560808401528460a084015282810360c0840152616439818561607a565b9a9950505050505050505050565b600082601f83011261645857600080fd5b8151602061646861544c836153e1565b82815260059290921b8401810191818101908684111561648757600080fd5b8286015b84811015615567578051835291830191830161648b565b600080604083850312156164b557600080fd5b82516001600160401b03808211156164cc57600080fd5b6164d886838701616447565b935060208501519150808211156164ee57600080fd5b506155b785828601616447565b60608152600061650e6060830186616280565b6020830194909452506040015291905056fea264697066735822122002041648a227889b210de6a990f47b3117dfa9be6b668242fdcbb7caae210b5364736f6c6343000809003360c060405234801561001057600080fd5b50604051610b5b380380610b5b83398101604081905261002f9161004c565b3060601b60805260016000556001600160a01b031660a05261007c565b60006020828403121561005e57600080fd5b81516001600160a01b038116811461007557600080fd5b9392505050565b60805160a051610ab36100a86000396000818161014a0152610517015260006102c70152610ab36000f3fe608060405234801561001057600080fd5b50600436106100935760003560e01c8063851c1bb311610066578063851c1bb3146100ea578063aaabadc5146100fd578063d877845c1461011d578063e42abf3514610125578063fbfa77cf1461014557600080fd5b806338e9922e1461009857806355c67628146100ad5780636b6b9f69146100c45780636daefab6146100d7575b600080fd5b6100ab6100a6366004610737565b61016c565b005b6001545b6040519081526020015b60405180910390f35b6100ab6100d2366004610737565b6101c7565b6100ab6100e53660046107b1565b61021a565b6100b16100f8366004610835565b6102c3565b610105610328565b6040516001600160a01b0390911681526020016100bb565b6002546100b1565b610138610133366004610885565b610337565b6040516100bb919061094a565b6101057f000000000000000000000000000000000000000000000000000000000000000081565b610174610453565b61018b6706f05b59d3b20000821115610258610484565b60018190556040518181527fa9ba3ffe0b6c366b81232caab38605a0699ad5398d6cce76f91ee809e322dafc906020015b60405180910390a150565b6101cf610453565b6101e5662386f26fc10000821115610259610484565b60028190556040518181527f5a0b7386237e7f07fa741efc64e59c9387d2cccafec760efed4d53387f20e19a906020016101bc565b610222610496565b61022a610453565b61023484836104af565b60005b848110156102b15760008686838181106102535761025361098e565b905060200201602081019061026891906109a4565b9050600085858481811061027e5761027e61098e565b6020029190910135915061029e90506001600160a01b03831685836104bc565b5050806102aa906109c1565b9050610237565b506102bc6001600055565b5050505050565b60007f00000000000000000000000000000000000000000000000000000000000000008260405160200161030b9291909182526001600160e01b031916602082015260240190565b604051602081830303815290604052805190602001209050919050565b6000610332610513565b905090565b6060815167ffffffffffffffff8111156103535761035361085f565b60405190808252806020026020018201604052801561037c578160200160208202803683370190505b50905060005b825181101561044d5782818151811061039d5761039d61098e565b60209081029190910101516040516370a0823160e01b81523060048201526001600160a01b03909116906370a082319060240160206040518083038186803b1580156103e857600080fd5b505afa1580156103fc573d6000803e3d6000fd5b505050506040513d601f19601f8201168201806040525081019061042091906109ea565b8282815181106104325761043261098e565b6020908102919091010152610446816109c1565b9050610382565b50919050565b600061046a6000356001600160e01b0319166102c3565b905061048161047982336105a6565b610191610484565b50565b81610492576104928161063f565b5050565b6104a860026000541415610190610484565b6002600055565b6104928183146067610484565b604080516001600160a01b038416602482015260448082018490528251808303909101815260649091019091526020810180516001600160e01b031663a9059cbb60e01b17905261050e908490610692565b505050565b60007f00000000000000000000000000000000000000000000000000000000000000006001600160a01b031663aaabadc56040518163ffffffff1660e01b815260040160206040518083038186803b15801561056e57600080fd5b505afa158015610582573d6000803e3d6000fd5b505050506040513d601f19601f820116820180604052508101906103329190610a03565b60006105b0610513565b6040516326f8aa2160e21b8152600481018590526001600160a01b0384811660248301523060448301529190911690639be2a8849060640160206040518083038186803b15801561060057600080fd5b505afa158015610614573d6000803e3d6000fd5b505050506040513d601f19601f820116820180604052508101906106389190610a20565b9392505050565b62461bcd60e51b6000908152602060045260076024526642414c23000030600a808404818106603090810160081b95839006959095019082900491820690940160101b939093010160c81b604452606490fd5b600080836001600160a01b0316836040516106ad9190610a42565b6000604051808303816000865af19150503d80600081146106ea576040519150601f19603f3d011682016040523d82523d6000602084013e6106ef565b606091505b50915091506000821415610707573d6000803e3d6000fd5b6107318151600014806107295750818060200190518101906107299190610a20565b6101a2610484565b50505050565b60006020828403121561074957600080fd5b5035919050565b60008083601f84011261076257600080fd5b50813567ffffffffffffffff81111561077a57600080fd5b6020830191508360208260051b850101111561079557600080fd5b9250929050565b6001600160a01b038116811461048157600080fd5b6000806000806000606086880312156107c957600080fd5b853567ffffffffffffffff808211156107e157600080fd5b6107ed89838a01610750565b9097509550602088013591508082111561080657600080fd5b5061081388828901610750565b90945092505060408601356108278161079c565b809150509295509295909350565b60006020828403121561084757600080fd5b81356001600160e01b03198116811461063857600080fd5b634e487b7160e01b600052604160045260246000fd5b80356108808161079c565b919050565b6000602080838503121561089857600080fd5b823567ffffffffffffffff808211156108b057600080fd5b818501915085601f8301126108c457600080fd5b8135818111156108d6576108d661085f565b8060051b604051601f19603f830116810181811085821117156108fb576108fb61085f565b60405291825284820192508381018501918883111561091957600080fd5b938501935b8285101561093e5761092f85610875565b8452938501939285019261091e565b98975050505050505050565b6020808252825182820181905260009190848201906040850190845b8181101561098257835183529284019291840191600101610966565b50909695505050505050565b634e487b7160e01b600052603260045260246000fd5b6000602082840312156109b657600080fd5b81356106388161079c565b60006000198214156109e357634e487b7160e01b600052601160045260246000fd5b5060010190565b6000602082840312156109fc57600080fd5b5051919050565b600060208284031215610a1557600080fd5b81516106388161079c565b600060208284031215610a3257600080fd5b8151801515811461063857600080fd5b6000825160005b81811015610a635760208186018101518583015201610a49565b81811115610a72576000828501525b50919091019291505056fea2646970667358221220c79cc2d5444036513fe99df722ba214264552889fad59955255408980beb8b5564736f6c63430008090033",
  "linkReferences": {},
  "deployedLinkReferences": {}
}