{
  "address": "0x8A791620dd6260079BF849Dc5567aDC3F2FdC318",
  "abi": [
    {
      "inputs": [
        {
          "internalType": "address",
          "name": "admin",
          "type": "address"
        }
      ],
      "stateMutability": "nonpayable",
      "type": "constructor"
    },
    {
      "anonymous": false,
      "inputs": [
        {
          "indexed": true,
          "internalType": "bytes32",
          "name": "role",
          "type": "bytes32"
        },
        {
          "indexed": true,
          "internalType": "bytes32",
          "name": "previousAdminRole",
          "type": "bytes32"
        },
        {
          "indexed": true,
          "internalType": "bytes32",
          "name": "newAdminRole",
          "type": "bytes32"
        }
      ],
      "name": "RoleAdminChanged",
      "type": "event"
    },
    {
      "anonymous": false,
      "inputs": [
        {
          "indexed": true,
          "internalType": "bytes32",
          "name": "role",
          "type": "bytes32"
        },
        {
          "indexed": true,
          "internalType": "address",
          "name": "account",
          "type": "address"
        },
        {
          "indexed": true,
          "internalType": "address",
          "name": "sender",
          "type": "address"
        }
      ],
      "name": "RoleGranted",
      "type": "event"
    },
    {
      "anonymous": false,
      "inputs": [
        {
          "indexed": true,
          "internalType": "bytes32",
          "name": "role",
          "type": "bytes32"
        },
        {
          "indexed": true,
          "internalType": "address",
          "name": "account",
          "type": "address"
        },
        {
          "indexed": true,
          "internalType": "address",
          "name": "sender",
          "type": "address"
        }
      ],
      "name": "RoleRevoked",
      "type": "event"
    },
    {
      "inputs": [],
      "name": "DEFAULT_ADMIN_ROLE",
      "outputs": [
        {
          "internalType": "bytes32",
          "name": "",
          "type": "bytes32"
        }
      ],
      "stateMutability": "view",
      "type": "function"
    },
    {
      "inputs": [
        {
          "internalType": "bytes32",
          "name": "actionId",
          "type": "bytes32"
        },
        {
          "internalType": "address",
          "name": "account",
          "type": "address"
        },
        {
          "internalType": "address",
          "name": "",
          "type": "address"
        }
      ],
      "name": "canPerform",
      "outputs": [
        {
          "internalType": "bool",
          "name": "",
          "type": "bool"
        }
      ],
      "stateMutability": "view",
      "type": "function"
    },
    {
      "inputs": [
        {
          "internalType": "bytes32",
          "name": "role",
          "type": "bytes32"
        }
      ],
      "name": "getRoleAdmin",
      "outputs": [
        {
          "internalType": "bytes32",
          "name": "",
          "type": "bytes32"
        }
      ],
      "stateMutability": "view",
      "type": "function"
    },
    {
      "inputs": [
        {
          "internalType": "bytes32",
          "name": "role",
          "type": "bytes32"
        },
        {
          "internalType": "uint256",
          "name": "index",
          "type": "uint256"
        }
      ],
      "name": "getRoleMember",
      "outputs": [
        {
          "internalType": "address",
          "name": "",
          "type": "address"
        }
      ],
      "stateMutability": "view",
      "type": "function"
    },
    {
      "inputs": [
        {
          "internalType": "bytes32",
          "name": "role",
          "type": "bytes32"
        }
      ],
      "name": "getRoleMemberCount",
      "outputs": [
        {
          "internalType": "uint256",
          "name": "",
          "type": "uint256"
        }
      ],
      "stateMutability": "view",
      "type": "function"
    },
    {
      "inputs": [
        {
          "internalType": "bytes32",
          "name": "role",
          "type": "bytes32"
        },
        {
          "internalType": "address",
          "name": "account",
          "type": "address"
        }
      ],
      "name": "grantRole",
      "outputs": [],
      "stateMutability": "nonpayable",
      "type": "function"
    },
    {
      "inputs": [
        {
          "internalType": "bytes32[]",
          "name": "roles",
          "type": "bytes32[]"
        },
        {
          "internalType": "address",
          "name": "account",
          "type": "address"
        }
      ],
      "name": "grantRoles",
      "outputs": [],
      "stateMutability": "nonpayable",
      "type": "function"
    },
    {
      "inputs": [
        {
          "internalType": "bytes32[]",
          "name": "roles",
          "type": "bytes32[]"
        },
        {
          "internalType": "address[]",
          "name": "accounts",
          "type": "address[]"
        }
      ],
      "name": "grantRolesToMany",
      "outputs": [],
      "stateMutability": "nonpayable",
      "type": "function"
    },
    {
      "inputs": [
        {
          "internalType": "bytes32",
          "name": "role",
          "type": "bytes32"
        },
        {
          "internalType": "address",
          "name": "account",
          "type": "address"
        }
      ],
      "name": "hasRole",
      "outputs": [
        {
          "internalType": "bool",
          "name": "",
          "type": "bool"
        }
      ],
      "stateMutability": "view",
      "type": "function"
    },
    {
      "inputs": [
        {
          "internalType": "bytes32",
          "name": "role",
          "type": "bytes32"
        },
        {
          "internalType": "address",
          "name": "account",
          "type": "address"
        }
      ],
      "name": "renounceRole",
      "outputs": [],
      "stateMutability": "nonpayable",
      "type": "function"
    },
    {
      "inputs": [
        {
          "internalType": "bytes32",
          "name": "role",
          "type": "bytes32"
        },
        {
          "internalType": "address",
          "name": "account",
          "type": "address"
        }
      ],
      "name": "revokeRole",
      "outputs": [],
      "stateMutability": "nonpayable",
      "type": "function"
    },
    {
      "inputs": [
        {
          "internalType": "bytes32[]",
          "name": "roles",
          "type": "bytes32[]"
        },
        {
          "internalType": "address",
          "name": "account",
          "type": "address"
        }
      ],
      "name": "revokeRoles",
      "outputs": [],
      "stateMutability": "nonpayable",
      "type": "function"
    },
    {
      "inputs": [
        {
          "internalType": "bytes32[]",
          "name": "roles",
          "type": "bytes32[]"
        },
        {
          "internalType": "address[]",
          "name": "accounts",
          "type": "address[]"
        }
      ],
      "name": "revokeRolesFromMany",
      "outputs": [],
      "stateMutability": "nonpayable",
      "type": "function"
    }
  ],
  "transactionHash": "0x699be0395cbd448548aaac86a244478cf9205f14a7f66476f2da0eaefb1e3452",
  "args": [
    "0xf39Fd6e51aad88F6F4ce6aB8827279cffFb92266"
  ],
  "solcInputHash": "9345430ff535676c81d552ae4ee93854",
  "bytecode": "0x608060405234801561001057600080fd5b50604051610c17380380610c1783398101604081905261002f91610125565b61003a600082610040565b50610155565b61004a828261004e565b5050565b6000828152602081815260409091206100709183906104206100b1821b17901c565b1561004a5760405133906001600160a01b0383169084907f2f8788117e7eff1d82e926ec794901d17c78024a50270940304540a733656f0d90600090a45050565b6001600160a01b038116600090815260018301602052604081205461011b57508154600180820184556000848152602080822090930180546001600160a01b0319166001600160a01b0386169081179091558554908252828601909352604090209190915561011f565b5060005b92915050565b60006020828403121561013757600080fd5b81516001600160a01b038116811461014e57600080fd5b9392505050565b610ab3806101646000396000f3fe608060405234801561001057600080fd5b50600436106100af5760003560e01c806318b2cde9146100b4578063248a9ca3146100c95780632f2ff15d146100ff57806336568abe146101125780639010d07c1461012557806391d1485414610150578063988360a3146101735780639be2a88414610186578063a217fddf14610199578063a73cb2ab146101a1578063ca15c873146101b4578063d547741f146101c7578063fcd7627e146101da575b600080fd5b6100c76100c2366004610849565b6101ed565b005b6100ec6100d736600461090a565b60009081526020819052604090206002015490565b6040519081526020015b60405180910390f35b6100c761010d366004610923565b610258565b6100c7610120366004610923565b61028e565b61013861013336600461094f565b6102af565b6040516001600160a01b0390911681526020016100f6565b61016361015e366004610923565b6102d0565b60405190151581526020016100f6565b6100c7610181366004610971565b6102e8565b6101636101943660046109b5565b610329565b6100ec600081565b6100c76101af366004610849565b61033d565b6100ec6101c236600461090a565b6103a3565b6100c76101d5366004610923565b6103b7565b6100c76101e8366004610971565b6103df565b6101f982518251610483565b60005b82518110156102535761024183828151811061021a5761021a6109f1565b6020026020010151838381518110610234576102346109f1565b60200260200101516103b7565b8061024b81610a1d565b9150506101fc565b505050565b6000828152602081905260409020600201546102809061027890336102d0565b6101a661048c565b61028a828261049a565b5050565b6102a56001600160a01b03821633146101a861048c565b61028a82826104f3565b60008281526020819052604081206102c7908361054c565b90505b92915050565b60008281526020819052604081206102c79083610568565b60005b825181101561025357610317838281518110610309576103096109f1565b6020026020010151836103b7565b8061032181610a1d565b9150506102eb565b600061033584846102d0565b949350505050565b61034982518251610483565b60005b82518110156102535761039183828151811061036a5761036a6109f1565b6020026020010151838381518110610384576103846109f1565b6020026020010151610258565b8061039b81610a1d565b91505061034c565b6000818152602081905260408120546102ca565b6000828152602081905260409020600201546102a5906103d790336102d0565b6101a761048c565b60005b82518110156102535761040e838281518110610400576104006109f1565b602002602001015183610258565b8061041881610a1d565b9150506103e2565b600061042c8383610568565b61047b57508154600180820184556000848152602080822090930180546001600160a01b0319166001600160a01b038616908117909155855490825282860190935260409020919091556102ca565b5060006102ca565b61028a81831460675b8161028a5761028a81610589565b60008281526020819052604090206104b29082610420565b1561028a5760405133906001600160a01b0383169084907f2f8788117e7eff1d82e926ec794901d17c78024a50270940304540a733656f0d90600090a45050565b600082815260208190526040902061050b90826105dc565b1561028a5760405133906001600160a01b0383169084907ff6391f5c32d9c69d2a47ea670b442974b53935d1edc7fd64eb21e047a839171b90600090a45050565b815460009061055e908310606461048c565b6102c78383610726565b6001600160a01b031660009081526001919091016020526040902054151590565b62461bcd60e51b6000908152602060045260076024526642414c23000030600a808404818106603090810160081b95839006959095019082900491820690940160101b939093010160c81b604452606490fd5b6001600160a01b0381166000908152600183016020526040812054801561071c57600061060a600183610a38565b855490915060009061061e90600190610a38565b90508082146106be57600086600001828154811061063e5761063e6109f1565b60009182526020909120015487546001600160a01b039091169150819088908590811061066d5761066d6109f1565b600091825260209091200180546001600160a01b0319166001600160a01b03929092169190911790556106a1836001610a4f565b6001600160a01b0390911660009081526001880160205260409020555b85548690806106cf576106cf610a67565b60008281526020808220830160001990810180546001600160a01b03191690559092019092556001600160a01b03871682526001888101909152604082209190915593506102ca92505050565b60009150506102ca565b600082600001828154811061073d5761073d6109f1565b6000918252602090912001546001600160a01b03169392505050565b634e487b7160e01b600052604160045260246000fd5b604051601f8201601f191681016001600160401b038111828210171561079757610797610759565b604052919050565b60006001600160401b038211156107b8576107b8610759565b5060051b60200190565b600082601f8301126107d357600080fd5b813560206107e86107e38361079f565b61076f565b82815260059290921b8401810191818101908684111561080757600080fd5b8286015b84811015610822578035835291830191830161080b565b509695505050505050565b80356001600160a01b038116811461084457600080fd5b919050565b6000806040838503121561085c57600080fd5b82356001600160401b038082111561087357600080fd5b61087f868387016107c2565b935060209150818501358181111561089657600080fd5b85019050601f810186136108a957600080fd5b80356108b76107e38261079f565b81815260059190911b820183019083810190888311156108d657600080fd5b928401925b828410156108fb576108ec8461082d565b825292840192908401906108db565b80955050505050509250929050565b60006020828403121561091c57600080fd5b5035919050565b6000806040838503121561093657600080fd5b823591506109466020840161082d565b90509250929050565b6000806040838503121561096257600080fd5b50508035926020909101359150565b6000806040838503121561098457600080fd5b82356001600160401b0381111561099a57600080fd5b6109a6858286016107c2565b9250506109466020840161082d565b6000806000606084860312156109ca57600080fd5b833592506109da6020850161082d565b91506109e86040850161082d565b90509250925092565b634e487b7160e01b600052603260045260246000fd5b634e487b7160e01b600052601160045260246000fd5b6000600019821415610a3157610a31610a07565b5060010190565b600082821015610a4a57610a4a610a07565b500390565b60008219821115610a6257610a62610a07565b500190565b634e487b7160e01b600052603160045260246000fdfea2646970667358221220ddba345a301ce4b289b779ee1f3c32d8667e58f347541e4957dc30cfebf6e7e464736f6c634300080a0033",
  "devdoc": {
    "details": "Basic Authorizer implementation, based on OpenZeppelin's Access Control. Users are allowed to perform actions if they have the role with the same identifier. In this sense, roles are not being truly used as such, since they each map to a single action identifier. This temporary implementation is expected to be replaced soon after launch by a more sophisticated one, able to manage permissions across multiple contracts and to natively handle timelocks.",
    "kind": "dev",
    "methods": {
      "getRoleAdmin(bytes32)": {
        "details": "Returns the admin role that controls `role`. See {grantRole} and {revokeRole}. To change a role's admin, use {_setRoleAdmin}."
      },
      "getRoleMember(bytes32,uint256)": {
        "details": "Returns one of the accounts that have `role`. `index` must be a value between 0 and {getRoleMemberCount}, non-inclusive. Role bearers are not sorted in any particular way, and their ordering may change at any point. WARNING: When using {getRoleMember} and {getRoleMemberCount}, make sure you perform all queries on the same block. See the following https://forum.openzeppelin.com/t/iterating-over-elements-on-enumerableset-in-openzeppelin-contracts/2296[forum post] for more information."
      },
      "getRoleMemberCount(bytes32)": {
        "details": "Returns the number of accounts that have `role`. Can be used together with {getRoleMember} to enumerate all bearers of a role."
      },
      "grantRole(bytes32,address)": {
        "details": "Grants `role` to `account`. If `account` had not been already granted `role`, emits a {RoleGranted} event. Requirements: - the caller must have ``role``'s admin role."
      },
      "grantRoles(bytes32[],address)": {
        "details": "Grants multiple roles to a single account."
      },
      "grantRolesToMany(bytes32[],address[])": {
        "details": "Grants roles to a list of accounts."
      },
      "hasRole(bytes32,address)": {
        "details": "Returns `true` if `account` has been granted `role`."
      },
      "renounceRole(bytes32,address)": {
        "details": "Revokes `role` from the calling account. Roles are often managed via {grantRole} and {revokeRole}: this function's purpose is to provide a mechanism for accounts to lose their privileges if they are compromised (such as when a trusted device is misplaced). If the calling account had been granted `role`, emits a {RoleRevoked} event. Requirements: - the caller must be `account`."
      },
      "revokeRole(bytes32,address)": {
        "details": "Revokes `role` from `account`. If `account` had already been granted `role`, emits a {RoleRevoked} event. Requirements: - the caller must have ``role``'s admin role."
      },
      "revokeRoles(bytes32[],address)": {
        "details": "Revokes multiple roles from a single account."
      },
      "revokeRolesFromMany(bytes32[],address[])": {
        "details": "Revokes roles from a list of accounts."
      }
    },
    "version": 1
  },
  "userdoc": {
    "kind": "user",
    "methods": {},
    "version": 1
  },
  "storageLayout": {
    "storage": [
      {
        "astId": 17634,
        "contract": "contracts/Authorizer.sol:Authorizer",
        "label": "_roles",
        "offset": 0,
        "slot": "0",
        "type": "t_mapping(t_bytes32,t_struct(RoleData)17629_storage)"
      }
    ],
    "types": {
      "t_address": {
        "encoding": "inplace",
        "label": "address",
        "numberOfBytes": "20"
      },
      "t_array(t_address)dyn_storage": {
        "base": "t_address",
        "encoding": "dynamic_array",
        "label": "address[]",
        "numberOfBytes": "32"
      },
      "t_bytes32": {
        "encoding": "inplace",
        "label": "bytes32",
        "numberOfBytes": "32"
      },
      "t_mapping(t_address,t_uint256)": {
        "encoding": "mapping",
        "key": "t_address",
        "label": "mapping(address => uint256)",
        "numberOfBytes": "32",
        "value": "t_uint256"
      },
      "t_mapping(t_bytes32,t_struct(RoleData)17629_storage)": {
        "encoding": "mapping",
        "key": "t_bytes32",
        "label": "mapping(bytes32 => struct AccessControl.RoleData)",
        "numberOfBytes": "32",
        "value": "t_struct(RoleData)17629_storage"
      },
      "t_struct(AddressSet)19665_storage": {
        "encoding": "inplace",
        "label": "struct EnumerableSet.AddressSet",
        "members": [
          {
            "astId": 19660,
            "contract": "contracts/Authorizer.sol:Authorizer",
            "label": "_values",
            "offset": 0,
            "slot": "0",
            "type": "t_array(t_address)dyn_storage"
          },
          {
            "astId": 19664,
            "contract": "contracts/Authorizer.sol:Authorizer",
            "label": "_indexes",
            "offset": 0,
            "slot": "1",
            "type": "t_mapping(t_address,t_uint256)"
          }
        ],
        "numberOfBytes": "64"
      },
      "t_struct(RoleData)17629_storage": {
        "encoding": "inplace",
        "label": "struct AccessControl.RoleData",
        "members": [
          {
            "astId": 17626,
            "contract": "contracts/Authorizer.sol:Authorizer",
            "label": "members",
            "offset": 0,
            "slot": "0",
            "type": "t_struct(AddressSet)19665_storage"
          },
          {
            "astId": 17628,
            "contract": "contracts/Authorizer.sol:Authorizer",
            "label": "adminRole",
            "offset": 0,
            "slot": "2",
            "type": "t_bytes32"
          }
        ],
        "numberOfBytes": "96"
      },
      "t_uint256": {
        "encoding": "inplace",
        "label": "uint256",
        "numberOfBytes": "32"
      }
    }
  }
}