{
  "_format": "hh-sol-artifact-1",
  "contractName": "WeightedPoolFactory",
  "sourceName": "contracts/WeightedPoolFactory.sol",
  "abi": [
    {
      "inputs": [
        {
          "internalType": "contract IVault",
          "name": "vault",
          "type": "address"
        }
      ],
      "stateMutability": "nonpayable",
      "type": "constructor"
    },
    {
      "anonymous": false,
      "inputs": [
        {
          "indexed": true,
          "internalType": "address",
          "name": "pool",
          "type": "address"
        }
      ],
      "name": "PoolCreated",
      "type": "event"
    },
    {
      "inputs": [
        {
          "internalType": "string",
          "name": "name",
          "type": "string"
        },
        {
          "internalType": "string",
          "name": "symbol",
          "type": "string"
        },
        {
          "internalType": "contract IERC20[]",
          "name": "tokens",
          "type": "address[]"
        },
        {
          "internalType": "uint256[]",
          "name": "weights",
          "type": "uint256[]"
        },
        {
          "internalType": "address[]",
          "name": "assetManagers",
          "type": "address[]"
        },
        {
          "internalType": "uint256",
          "name": "swapFeePercentage",
          "type": "uint256"
        },
        {
          "internalType": "address",
          "name": "owner",
          "type": "address"
        }
      ],
      "name": "create",
      "outputs": [
        {
          "internalType": "address",
          "name": "",
          "type": "address"
        }
      ],
      "stateMutability": "nonpayable",
      "type": "function"
    },
    {
      "inputs": [],
      "name": "getCreationCode",
      "outputs": [
        {
          "internalType": "bytes",
          "name": "",
          "type": "bytes"
        }
      ],
      "stateMutability": "view",
      "type": "function"
    },
    {
      "inputs": [],
      "name": "getCreationCodeContracts",
      "outputs": [
        {
          "internalType": "address",
          "name": "contractA",
          "type": "address"
        },
        {
          "internalType": "address",
          "name": "contractB",
          "type": "address"
        }
      ],
      "stateMutability": "view",
      "type": "function"
    },
    {
      "inputs": [],
      "name": "getPauseConfiguration",
      "outputs": [
        {
          "internalType": "uint256",
          "name": "pauseWindowDuration",
          "type": "uint256"
        },
        {
          "internalType": "uint256",
          "name": "bufferPeriodDuration",
          "type": "uint256"
        }
      ],
      "stateMutability": "view",
      "type": "function"
    },
    {
      "inputs": [],
      "name": "getVault",
      "outputs": [
        {
          "internalType": "contract IVault",
          "name": "",
          "type": "address"
        }
      ],
      "stateMutability": "view",
      "type": "function"
    },
    {
      "inputs": [
        {
          "internalType": "address",
          "name": "pool",
          "type": "address"
        }
      ],
      "name": "isPoolFromFactory",
      "outputs": [
        {
          "internalType": "bool",
          "name": "",
          "type": "bool"
        }
      ],
      "stateMutability": "view",
      "type": "function"
    }
  ],
  "bytecode": "0x6101406040523480156200001257600080fd5b5060405162009594380380620095948339810160408190526200003591620001ae565b80604051806020016200004890620001a0565b601f1982820381018352601f909101166040528051819060006200006e600283620001f6565b60a08190529050600062000083828462000219565b60e0819052828552905083620000a5816200010a602090811b6200027e17901c565b6001600160a01b03166080528285018051838252620000d0826200010a602090811b6200027e17901c565b6001600160a01b0390811660c05295909252525050929092166101005250620000ff90506276a7004262000233565b61012052506200024e565b80517f602038038060206000396000f3fefefefefefefefefefefefefefefefefefefe808352600091602081018484f090845291506001600160a01b0382166200019a5760405162461bcd60e51b815260206004820152601660248201527f434f44455f4445504c4f594d454e545f4641494c454400000000000000000000604482015260640160405180910390fd5b50919050565b6187ef8062000da583390190565b600060208284031215620001c157600080fd5b81516001600160a01b0381168114620001d957600080fd5b9392505050565b634e487b7160e01b600052601160045260246000fd5b6000826200021457634e487b7160e01b600052601260045260246000fd5b500490565b6000828210156200022e576200022e620001e0565b500390565b60008219821115620002495762000249620001e0565b500190565b60805160a05160c05160e0516101005161012051610af4620002b16000396000818161019301526101bf0152600061025c0152600061037301526000818160b7015261035201526000610331015260008181609201526103100152610af46000f3fe608060405234801561001057600080fd5b50600436106100615760003560e01c8062c194db14610066578063174481fa146100845780632da47c40146100e25780636634b753146100ff57806380773a931461013b5780638d928af814610166575b600080fd5b61006e61016e565b60405161007b9190610550565b60405180910390f35b604080516001600160a01b037f0000000000000000000000000000000000000000000000000000000000000000811682527f00000000000000000000000000000000000000000000000000000000000000001660208201520161007b565b6100ea61018d565b6040805192835260208301919091520161007b565b61012b61010d36600461058b565b6001600160a01b031660009081526020819052604090205460ff1690565b604051901515815260200161007b565b61014e61014936600461074f565b6101fa565b6040516001600160a01b03909116815260200161007b565b61014e61025a565b60606101886040518060200160405280600081525061030c565b905090565b600080427f00000000000000000000000000000000000000000000000000000000000000008110156101ef576101e3817f0000000000000000000000000000000000000000000000000000000000000000610850565b9362278d009350915050565b506000928392509050565b600080600061020761018d565b9150915061024c61021661025a565b8b8b8b8b8b8b89898d6040516020016102389a999897969594939291906108db565b6040516020818303038152906040526103f8565b9a9950505050505050505050565b7f000000000000000000000000000000000000000000000000000000000000000090565b80517f602038038060206000396000f3fefefefefefefefefefefefefefefefefefefe808352600091602081018484f090845291506001600160a01b0382166103065760405162461bcd60e51b815260206004820152601660248201527510d3d11157d111541313d65351539517d1905253115160521b604482015260640160405180910390fd5b50919050565b60607f00000000000000000000000000000000000000000000000000000000000000007f00000000000000000000000000000000000000000000000000000000000000007f00000000000000000000000000000000000000000000000000000000000000007f0000000000000000000000000000000000000000000000000000000000000000600061039e82856109b4565b875190915060006103af82846109b4565b9050604051975060208101880160405280885260208801866000828a3c846000888301883c50602089810190898501016103ea818386610458565b505050505050505050919050565b600080610404836104c9565b6001600160a01b038116600081815260208190526040808220805460ff191660011790555192935090917f83a48fbcfc991335314e74d0496aab6a1987e992ddc85dddbcc4d6dd6ef2e9fc9190a292915050565b60208110610490578151835261046f6020846109b4565b925061047c6020836109b4565b9150610489602082610850565b9050610458565b6000600161049f836020610850565b6104ab90610100610ab2565b6104b59190610850565b925184518416931916929092179092525050565b6000806104d58361030c565b905060008151602083016000f090506001600160a01b0381166104fc573d6000803e3d6000fd5b9392505050565b6000815180845260005b818110156105295760208185018101518683018201520161050d565b8181111561053b576000602083870101525b50601f01601f19169290920160200192915050565b6020815260006104fc6020830184610503565b6001600160a01b038116811461057857600080fd5b50565b803561058681610563565b919050565b60006020828403121561059d57600080fd5b81356104fc81610563565b634e487b7160e01b600052604160045260246000fd5b604051601f8201601f191681016001600160401b03811182821017156105e6576105e66105a8565b604052919050565b600082601f8301126105ff57600080fd5b81356001600160401b03811115610618576106186105a8565b61062b601f8201601f19166020016105be565b81815284602083860101111561064057600080fd5b816020850160208301376000918101602001919091529392505050565b60006001600160401b03821115610676576106766105a8565b5060051b60200190565b600082601f83011261069157600080fd5b813560206106a66106a18361065d565b6105be565b82815260059290921b840181019181810190868411156106c557600080fd5b8286015b848110156106e95780356106dc81610563565b83529183019183016106c9565b509695505050505050565b600082601f83011261070557600080fd5b813560206107156106a18361065d565b82815260059290921b8401810191818101908684111561073457600080fd5b8286015b848110156106e95780358352918301918301610738565b600080600080600080600060e0888a03121561076a57600080fd5b87356001600160401b038082111561078157600080fd5b61078d8b838c016105ee565b985060208a01359150808211156107a357600080fd5b6107af8b838c016105ee565b975060408a01359150808211156107c557600080fd5b6107d18b838c01610680565b965060608a01359150808211156107e757600080fd5b6107f38b838c016106f4565b955060808a013591508082111561080957600080fd5b506108168a828b01610680565b93505060a0880135915061082c60c0890161057b565b905092959891949750929550565b634e487b7160e01b600052601160045260246000fd5b6000828210156108625761086261083a565b500390565b600081518084526020808501945080840160005b838110156108975781518752958201959082019060010161087b565b509495945050505050565b600081518084526020808501945080840160005b838110156108975781516001600160a01b0316875295820195908201906001016108b6565b6001600160a01b038b811682526101406020808401829052600092906109038584018f610503565b92508483036040860152610917838e610503565b85810360608701528c51808252828e0194509082019060005b8181101561094e578551851683529483019491830191600101610930565b50508581036080870152610962818d610867565b935050505082810360a084015261097981896108a2565b9150508560c08301528460e0830152836101008301526109a56101208301846001600160a01b03169052565b9b9a5050505050505050505050565b600082198211156109c7576109c761083a565b500190565b600181815b80851115610a075781600019048211156109ed576109ed61083a565b808516156109fa57918102915b93841c93908002906109d1565b509250929050565b600082610a1e57506001610aac565b81610a2b57506000610aac565b8160018114610a415760028114610a4b57610a67565b6001915050610aac565b60ff841115610a5c57610a5c61083a565b50506001821b610aac565b5060208310610133831016604e8410600b8410161715610a8a575081810a610aac565b610a9483836109cc565b8060001904821115610aa857610aa861083a565b0290505b92915050565b60006104fc8383610a0f56fea264697066735822122031bb1bb862626b717f2ff4650ef6675bf255292a2312d5d0aab10d3fbd2182de64736f6c634300080a00336109806040527f6e71edae12b1b97f4d1f60370fef10105fa2faae0126114a169c64845d6126c9610120523480156200003757600080fd5b50604051620087ef380380620087ef8339810160408190526200005a916200163b565b8989898988888888888886516002146200007657600162000079565b60025b8989898989898989828289898d8280604051806040016040528060018152602001603160f81b81525085858a6060336001600160a01b0316901b60001b806080818152505050806001600160a01b031660a0816001600160a01b031681525050508160039080519060200190620000f292919062001386565b5080516200010890600490602084019062001386565b50506005805460ff1916601217905550815160209283012060c05280519082012060e0527f8b73c3c69bb8fe3d512ecc4cf759cc79239f7b179b0ffacaa9a75d522b39400f610100526001600160a01b0390921661014052506200018392506276a70085111591506101949062000e066200106e821b17901c565b620001a262278d008211156101956200106e60201b62000e061760201c565b6000620001b0834262001777565b6101608190529050620001c4828262001777565b6101808181525050505050620001ec60028751101560c86200106e60201b62000e061760201c565b6200020960148751111560c96200106e60201b62000e061760201c565b6200021f866200108e60201b62000e141760201c565b6200022a846200109a565b6040516309b2760f60e01b81526000906001600160a01b038c16906309b2760f906200025b908d9060040162001792565b6020604051808303816000875af11580156200027b573d6000803e3d6000fd5b505050506040513d601f19601f82011682018060405250810190620002a19190620017bb565b604051633354e3e960e11b81529091506001600160a01b038c16906366a9c7d290620002d69084908b908b90600401620017d5565b600060405180830381600087803b158015620002f157600080fd5b505af115801562000306573d6000803e3d6000fd5b50505050806101a081815250505050505050505050505050505050505050505050600087519050620003458188516200113560201b62000e1e1760201c565b6101c081905260008080805b848160ff161015620003e95760008b8260ff168151811062000377576200037762001871565b60200260200101519050620003a4662386f26fc1000082101561012e6200106e60201b62000e061760201c565b620003be81866200114f60201b62000e2b1790919060201c565b945082811115620003d3578160ff1693508092505b5080620003e08162001887565b91505062000351565b506200040d670de0b6b3a764000084146101346200106e60201b62000e061760201c565b6106e082905289518a9060009062000429576200042962001871565b60200260200101516107008181525050896001815181106200044f576200044f62001871565b6020026020010151610720818152505060028411620004705760006200048f565b8960028151811062000486576200048662001871565b60200260200101515b6107405260038411620004a4576000620004c3565b89600381518110620004ba57620004ba62001871565b60200260200101515b6107605260048411620004d8576000620004f7565b89600481518110620004ee57620004ee62001871565b60200260200101515b61078052600584116200050c5760006200052b565b8960058151811062000522576200052262001871565b60200260200101515b6107a05260068411620005405760006200055f565b8960068151811062000556576200055662001871565b60200260200101515b6107c052600784116200057457600062000593565b896007815181106200058a576200058a62001871565b60200260200101515b6107e05260088411620005a8576000620005c7565b89600881518110620005be57620005be62001871565b60200260200101515b6108005260098411620005dc576000620005fb565b89600981518110620005f257620005f262001871565b60200260200101515b61082052600a8411620006105760006200062f565b89600a8151811062000626576200062662001871565b60200260200101515b61084052600b84116200064457600062000663565b89600b815181106200065a576200065a62001871565b60200260200101515b61086052600c84116200067857600062000697565b89600c815181106200068e576200068e62001871565b60200260200101515b61088052600d8411620006ac576000620006cb565b89600d81518110620006c257620006c262001871565b60200260200101515b6108a052600e8411620006e0576000620006ff565b89600e81518110620006f657620006f662001871565b60200260200101515b6108c052600f84116200071457600062000733565b89600f815181106200072a576200072a62001871565b60200260200101515b6108e052601084116200074857600062000767565b896010815181106200075e576200075e62001871565b60200260200101515b61090052601184116200077c5760006200079b565b8960118151811062000792576200079262001871565b60200260200101515b6109205260128411620007b0576000620007cf565b89601281518110620007c657620007c662001871565b60200260200101515b6109405260138411620007e457600062000803565b89601381518110620007fa57620007fa62001871565b60200260200101515b610960528a518b906000906200081d576200081d62001871565b60200260200101516001600160a01b03166101e0816001600160a01b0316815250508a60018151811062000855576200085562001871565b60209081029190910101516001600160a01b031661020052600284116200087e5760006200089d565b8a60028151811062000894576200089462001871565b60200260200101515b6001600160a01b03166102205260038411620008bb576000620008da565b8a600381518110620008d157620008d162001871565b60200260200101515b6001600160a01b03166102405260048411620008f857600062000917565b8a6004815181106200090e576200090e62001871565b60200260200101515b6001600160a01b031661026052600584116200093557600062000954565b8a6005815181106200094b576200094b62001871565b60200260200101515b6001600160a01b031661028052600684116200097257600062000991565b8a60068151811062000988576200098862001871565b60200260200101515b6001600160a01b03166102a05260078411620009af576000620009ce565b8a600781518110620009c557620009c562001871565b60200260200101515b6001600160a01b03166102c05260088411620009ec57600062000a0b565b8a60088151811062000a025762000a0262001871565b60200260200101515b6001600160a01b03166102e0526009841162000a2957600062000a48565b8a60098151811062000a3f5762000a3f62001871565b60200260200101515b6001600160a01b031661030052600a841162000a6657600062000a85565b8a600a8151811062000a7c5762000a7c62001871565b60200260200101515b6001600160a01b031661032052600b841162000aa357600062000ac2565b8a600b8151811062000ab95762000ab962001871565b60200260200101515b6001600160a01b031661034052600c841162000ae057600062000aff565b8a600c8151811062000af65762000af662001871565b60200260200101515b6001600160a01b031661036052600d841162000b1d57600062000b3c565b8a600d8151811062000b335762000b3362001871565b60200260200101515b6001600160a01b031661038052600e841162000b5a57600062000b79565b8a600e8151811062000b705762000b7062001871565b60200260200101515b6001600160a01b03166103a052600f841162000b9757600062000bb6565b8a600f8151811062000bad5762000bad62001871565b60200260200101515b6001600160a01b03166103c0526010841162000bd457600062000bf3565b8a60108151811062000bea5762000bea62001871565b60200260200101515b6001600160a01b03166103e0526011841162000c1157600062000c30565b8a60118151811062000c275762000c2762001871565b60200260200101515b6001600160a01b0316610400526012841162000c4e57600062000c6d565b8a60128151811062000c645762000c6462001871565b60200260200101515b6001600160a01b0316610420526013841162000c8b57600062000caa565b8a60138151811062000ca15762000ca162001871565b60200260200101515b6001600160a01b0316610440528a5162000ce6908c9060009062000cd25762000cd262001871565b6020026020010151620011ad60201b60201c565b610460528a5162000d07908c90600190811062000cd25762000cd262001871565b610480526002841162000d1c57600062000d36565b62000d368b60028151811062000cd25762000cd262001871565b6104a0526003841162000d4b57600062000d65565b62000d658b60038151811062000cd25762000cd262001871565b6104c0526004841162000d7a57600062000d94565b62000d948b60048151811062000cd25762000cd262001871565b6104e0526005841162000da957600062000dc3565b62000dc38b60058151811062000cd25762000cd262001871565b610500526006841162000dd857600062000df2565b62000df28b60068151811062000cd25762000cd262001871565b610520526007841162000e0757600062000e21565b62000e218b60078151811062000cd25762000cd262001871565b610540526008841162000e3657600062000e50565b62000e508b60088151811062000cd25762000cd262001871565b610560526009841162000e6557600062000e7f565b62000e7f8b60098151811062000cd25762000cd262001871565b61058052600a841162000e9457600062000eae565b62000eae8b600a8151811062000cd25762000cd262001871565b6105a052600b841162000ec357600062000edd565b62000edd8b600b8151811062000cd25762000cd262001871565b6105c052600c841162000ef257600062000f0c565b62000f0c8b600c8151811062000cd25762000cd262001871565b6105e052600d841162000f2157600062000f3b565b62000f3b8b600d8151811062000cd25762000cd262001871565b61060052600e841162000f5057600062000f6a565b62000f6a8b600e8151811062000cd25762000cd262001871565b61062052600f841162000f7f57600062000f99565b62000f998b600f8151811062000cd25762000cd262001871565b610640526010841162000fae57600062000fc8565b62000fc88b60108151811062000cd25762000cd262001871565b610660526011841162000fdd57600062000ff7565b62000ff78b60118151811062000cd25762000cd262001871565b61068052601284116200100c57600062001026565b620010268b60128151811062000cd25762000cd262001871565b6106a052601384116200103b57600062001055565b620010558b60138151811062000cd25762000cd262001871565b6106c0525062001a789c50505050505050505050505050565b816200108a576200108a816200127660201b62000e801760201c565b5050565b806200108a81620012c9565b620010ba64e8d4a5100082101560cb6200106e60201b62000e061760201c565b620010dd67016345785d8a000082111560ca6200106e60201b62000e061760201c565b620010fc8160c06008546200137160201b62000ed3179092919060201c565b6008556040518181527fa9ba3ffe0b6c366b81232caab38605a0699ad5398d6cce76f91ee809e322dafc9060200160405180910390a150565b6200108a81831460676200106e60201b62000e061760201c565b6000806200115e838562001777565b905083811015620011a45760405162461bcd60e51b815260206004820152600c60248201526b4144445f4f564552464c4f5760a01b604482015260640160405180910390fd5b90505b92915050565b60006001600160a01b038216301415620011d05750670de0b6b3a7640000919050565b6000826001600160a01b031663313ce5676040518163ffffffff1660e01b8152600401602060405180830381865afa15801562001211573d6000803e3d6000fd5b505050506040513d601f19601f82011682018060405250810190620012379190620018aa565b60ff16905060006200124b826012620018cf565b90506200125a81600a620019e6565b6200126e90670de0b6b3a7640000620019fb565b949350505050565b62461bcd60e51b6000908152602060045260076024526642414c23000030600a808404818106603090810160081b95839006959095019082900491820690940160101b939093010160c81b604452606490fd5b600281511015620012d75750565b600081600081518110620012ef57620012ef62001871565b602002602001015190506000600190505b82518110156200136c57600083828151811062001321576200132162001871565b6020026020010151905062001357816001600160a01b0316846001600160a01b03161060656200106e60201b62000e061760201c565b9150620013648162001a1d565b905062001300565b505050565b6001600160401b03811b1992909216911b1790565b828054620013949062001a3b565b90600052602060002090601f016020900481019282620013b8576000855562001403565b82601f10620013d357805160ff191683800117855562001403565b8280016001018555821562001403579182015b8281111562001403578251825591602001919060010190620013e6565b506200141192915062001415565b5090565b5b8082111562001411576000815560010162001416565b6001600160a01b03811681146200144257600080fd5b50565b805162001452816200142c565b919050565b634e487b7160e01b600052604160045260246000fd5b604051601f8201601f191681016001600160401b038111828210171562001498576200149862001457565b604052919050565b600082601f830112620014b257600080fd5b81516001600160401b03811115620014ce57620014ce62001457565b6020620014e4601f8301601f191682016200146d565b8281528582848701011115620014f957600080fd5b60005b8381101562001519578581018301518282018401528201620014fc565b838111156200152b5760008385840101525b5095945050505050565b60006001600160401b0382111562001551576200155162001457565b5060051b60200190565b600082601f8301126200156d57600080fd5b8151602062001586620015808362001535565b6200146d565b82815260059290921b84018101918181019086841115620015a657600080fd5b8286015b84811015620015ce578051620015c0816200142c565b8352918301918301620015aa565b509695505050505050565b600082601f830112620015eb57600080fd5b81516020620015fe620015808362001535565b82815260059290921b840181019181810190868411156200161e57600080fd5b8286015b84811015620015ce578051835291830191830162001622565b6000806000806000806000806000806101408b8d0312156200165c57600080fd5b620016678b62001445565b60208c0151909a506001600160401b03808211156200168557600080fd5b620016938e838f01620014a0565b9a5060408d0151915080821115620016aa57600080fd5b620016b88e838f01620014a0565b995060608d0151915080821115620016cf57600080fd5b620016dd8e838f016200155b565b985060808d0151915080821115620016f457600080fd5b620017028e838f01620015d9565b975060a08d01519150808211156200171957600080fd5b50620017288d828e016200155b565b95505060c08b0151935060e08b015192506101008b01519150620017506101208c0162001445565b90509295989b9194979a5092959850565b634e487b7160e01b600052601160045260246000fd5b600082198211156200178d576200178d62001761565b500190565b6020810160038310620017b557634e487b7160e01b600052602160045260246000fd5b91905290565b600060208284031215620017ce57600080fd5b5051919050565b6000606082018583526020606081850152818651808452608086019150828801935060005b81811015620018215784516001600160a01b031683529383019391830191600101620017fa565b50508481036040860152855180825290820192508186019060005b81811015620018635782516001600160a01b0316855293830193918301916001016200183c565b509298975050505050505050565b634e487b7160e01b600052603260045260246000fd5b600060ff821660ff811415620018a157620018a162001761565b60010192915050565b600060208284031215620018bd57600080fd5b815160ff81168114620011a457600080fd5b600082821015620018e457620018e462001761565b500390565b600181815b808511156200192a5781600019048211156200190e576200190e62001761565b808516156200191c57918102915b93841c9390800290620018ee565b509250929050565b6000826200194357506001620011a7565b816200195257506000620011a7565b81600181146200196b5760028114620019765762001996565b6001915050620011a7565b60ff8411156200198a576200198a62001761565b50506001821b620011a7565b5060208310610133831016604e8410600b8410161715620019bb575081810a620011a7565b620019c78383620018e9565b8060001904821115620019de57620019de62001761565b029392505050565b6000620019f4838362001932565b9392505050565b600081600019048311821515161562001a185762001a1862001761565b500290565b600060001982141562001a345762001a3462001761565b5060010190565b600181811c9082168062001a5057607f821691505b6020821081141562001a7257634e487b7160e01b600052602260045260246000fd5b50919050565b60805160a05160c05160e05161010051610120516101405161016051610180516101a0516101c0516101e05161020051610220516102405161026051610280516102a0516102c0516102e05161030051610320516103405161036051610380516103a0516103c0516103e05161040051610420516104405161046051610480516104a0516104c0516104e05161050051610520516105405161056051610580516105a0516105c0516105e05161060051610620516106405161066051610680516106a0516106c0516106e05161070051610720516107405161076051610780516107a0516107c0516107e05161080051610820516108405161086051610880516108a0516108c0516108e051610900516109205161094051610960516168ad62001f4260003960008181612e480152613c4a015260008181612dff0152613be9015260008181612db60152613b88015260008181612d6d0152613b27015260008181612d240152613ac6015260008181612cdb0152613a65015260008181612c920152613a04015260008181612c4901526139a3015260008181612c000152613942015260008181612bb701526138e1015260008181612b6e0152613880015260008181612b25015261381f015260008181612adc01526137be015260008181612a93015261375d015260008181612a4a01526136fc015260008181612a01015261369b0152600081816129b8015261363a01526000818161296f01526135d901526000818161292601526135780152600081816128e60152613517015260006126d101526000818161161201526125420152600081816115c901526124e10152600081816115800152612480015260008181611537015261241f0152600081816114ee01526123be0152600081816114a5015261235d01526000818161145c01526122fc015260008181611413015261229b0152600081816113ca015261223a01526000818161138101526121d901526000818161133801526121780152600081816112ef01526121170152600081816112a601526120b601526000818161125d01526120550152600081816112140152611ff40152600081816111cb0152611f930152600081816111820152611f320152600081816111390152611ed10152600081816110f00152611e700152600081816110b00152611e0f0152600081816125070152613c0f0152600081816124a60152613bae0152600081816124450152613b4d0152600081816123e40152613aec0152600081816123830152613a8b0152600081816123220152613a2a0152600081816122c101526139c901526000818161226001526139680152600081816121ff015261390701526000818161219e01526138a601526000818161213d01526138450152600081816120dc01526137e401526000818161207b015261378301526000818161201a0152613722015260008181611fb901526136c1015260008181611f580152613660015260008181611ef701526135ff015260008181611e96015261359e015260008181611e35015261353d015260008181611dd401526134dc015260006119350152600061061d01526000611038015260006110140152600061084d01526000610b2a0152600061171c0152600061175e0152600061173d01526000610829015260006107a001526168ad6000f3fe608060405234801561001057600080fd5b50600436106101965760003560e01c806306fdde031461019b578063095ea7b3146101b957806316c38b3c146101dc57806318160ddd146101f15780631c0de051146102035780631dd746ea1461022857806323b872dd1461023d578063313ce567146102505780633644e5151461026557806338e9922e1461026d57806338fff2d014610280578063395093511461028857806350dd6ed91461029b57806355c67628146102ae5780636028bfd4146102b9578063679aefce146102da57806370a08231146102e257806374f3b0091461030b5780637ecebe001461032c578063851c1bb31461035557806387ec681714610368578063893d20e81461037b5780638d928af81461039b57806395d89b41146103a35780639b02cdde146103ab5780639d2c110c146103b3578063a457c2d7146103c6578063a9059cbb146103d9578063aaabadc5146103ec578063c0ff1a15146103f4578063d505accf146103fc578063d5c096c41461040f578063dd62ed3e14610422578063f89f27ed14610435575b600080fd5b6101a361043d565b6040516101b09190615cc0565b60405180910390f35b6101cc6101c7366004615cf3565b6104cf565b60405190151581526020016101b0565b6101ef6101ea366004615d2d565b6104e6565b005b6002545b6040519081526020016101b0565b61020b6104fa565b6040805193151584526020840192909252908201526060016101b0565b610230610523565b6040516101b09190615d85565b6101cc61024b366004615d98565b610532565b60055460405160ff90911681526020016101b0565b6101f56105f8565b6101ef61027b366004615dd9565b610602565b6101f561061b565b6101cc610296366004615cf3565b61063f565b6101ef6102a9366004615ed0565b610676565b60085460c01c6101f5565b6102cc6102c7366004615f42565b610694565b6040516101b0929190616043565b6101f56106cb565b6101f56102f036600461605c565b6001600160a01b031660009081526020819052604090205490565b61031e610319366004615f42565b6106f9565b6040516101b0929190616079565b6101f561033a36600461605c565b6001600160a01b031660009081526006602052604090205490565b6101f561036336600461609e565b61079c565b6102cc610376366004615f42565b610801565b610383610827565b6040516001600160a01b0390911681526020016101b0565b61038361084b565b6101a361086f565b6009546101f5565b6101f56103c13660046160d7565b61087e565b6101cc6103d4366004615cf3565b6109ed565b6101cc6103e7366004615cf3565b610a2d565b610383610a3a565b6101f5610a44565b6101ef61040a3660046161cc565b610afb565b61031e61041d366004615f42565b610c6b565b6101f5610430366004616243565b610d9d565b610230610dfc565b60606003805461044c9061627c565b80601f01602080910402602001604051908101604052809291908181526020018280546104789061627c565b80156104c55780601f1061049a576101008083540402835291602001916104c5565b820191906000526020600020905b8154815290600101906020018083116104a857829003601f168201915b5050505050905090565b60006104dc338484610ee8565b5060015b92915050565b6104ee610f4a565b6104f781610f78565b50565b6000806000610507610ff5565b159250610512611012565b915061051c611036565b9050909192565b606061052d61105a565b905090565b60008061053f8533610d9d565b9050336001600160a01b03861614806105585750828110155b6105a95760405162461bcd60e51b815260206004820181905260248201527f45524332305f5452414e534645525f455843454544535f414c4c4f57414e434560448201526064015b60405180910390fd5b6105b4858585611655565b336001600160a01b038616148015906105d457506001600160801b038114155b156105ed576105ed85336105e886856162cd565b610ee8565b506001949350505050565b600061052d611718565b61060a610f4a565b6106126117be565b6104f7816117d3565b7f000000000000000000000000000000000000000000000000000000000000000090565b3360008181526001602090815260408083206001600160a01b038716845290915281205490916104dc9185906105e89086906162e4565b61067e610f4a565b6106866117be565b610690828261183e565b5050565b600060606106aa86516106a5611933565b610e1e565b6106bf89898989898989611957611a26611aa6565b97509795505050505050565b600061052d6106d960025490565b6106e1611933565b6106e9610a44565b6106f391906162fc565b90611bc8565b6060808861072361070861084b565b6001600160a01b0316336001600160a01b03161460cd610e06565b61073861072e61061b565b82146101f4610e06565b600061074261105a565b905061074e8882611c4c565b60008060006107638e8e8e8e8e8e8a8f611957565b9250925092506107738d84611cc7565b61077d8285611a26565b6107878185611a26565b909550935050505b5097509795505050505050565b60007f0000000000000000000000000000000000000000000000000000000000000000826040516020016107e49291909182526001600160e01b031916602082015260240190565b604051602081830303815290604052805190602001209050919050565b6000606061081286516106a5611933565b6106bf89898989898989611cd1611d55611aa6565b7f000000000000000000000000000000000000000000000000000000000000000090565b7f000000000000000000000000000000000000000000000000000000000000000090565b60606004805461044c9061627c565b6000836080015161089061070861084b565b61089b61072e61061b565b60006108aa8660200151611dd0565b905060006108bb8760400151611dd0565b90506000875160018111156108d2576108d261631b565b14156109665760006108e78860600151612576565b905060008189606001516108fb91906162cd565b905061090f8960200151610690838761259b565b60608901829052610920888561259b565b975061092c878461259b565b965061093c89606001518561259b565b60608a0152600061094e8a8a8a6125a7565b905061095a81856125e2565b965050505050506109e5565b610970868361259b565b955061097c858261259b565b945061098c87606001518261259b565b6060880152600061099e8888886125ee565b90506109aa8184612621565b905060006109b78261262d565b905060006109c583836162cd565b90506109d98a60200151610690838861259b565b5094506109e592505050565b509392505050565b6000806109fa3385610d9d565b9050808310610a1457610a0f33856000610ee8565b610a23565b610a2333856105e886856162cd565b5060019392505050565b60006104dc338484611655565b600061052d612657565b600080610a4f61084b565b6001600160a01b031663f94d4668610a6561061b565b6040518263ffffffff1660e01b8152600401610a8391815260200190565b600060405180830381865afa158015610aa0573d6000803e3d6000fd5b505050506040513d6000823e601f3d908101601f19168201604052610ac89190810190616397565b50915050610add81610ad861105a565b611c4c565b6000610ae76126c2565b509050610af481836126f6565b9250505090565b610b098442111560d1610e06565b6001600160a01b0387811660008181526006602090815260408083205481517f00000000000000000000000000000000000000000000000000000000000000008185015280830195909552948b166060850152608084018a905260a0840185905260c08085018a90528151808603909101815260e09094019052825192019190912090610b95826127b0565b6040805160008082526020820180845284905260ff8a169282019290925260608101889052608081018790529192509060019060a0016020604051602081039080840390855afa158015610bed573d6000803e3d6000fd5b5050604051601f1901519150610c2f90506001600160a01b03821615801590610c2757508b6001600160a01b0316826001600160a01b0316145b6101f8610e06565b610c3a8460016162e4565b6001600160a01b038c16600090815260066020526040902055610c5e8b8b8b610ee8565b5050505050505050505050565b60608088610c7a61070861084b565b610c8561072e61061b565b6000610c8f61105a565b9050610c9a60025490565b610d4d57600080610cae8d8d8d868b6127df565b91509150610cc9610cbf620f424090565b83101560cc610e06565b610cdc6000620f4240612886565b612886565b610ced8b610cd7620f4240856162cd565b610cf78184611d55565b80610d00611933565b6001600160401b03811115610d1757610d17615df2565b604051908082528060200260200182016040528015610d40578160200160208202803683370190505b509550955050505061078f565b610d578882611c4c565b6000806000610d6c8e8e8e8e8e8e8a8f611cd1565b925092509250610d7c8c84612886565b610d868285611d55565b610d908185611a26565b909550935061078f915050565b6000610da761084b565b6001600160a01b0316826001600160a01b03161415610dce57506001600160801b036104e0565b6001600160a01b038084166000908152600160209081526040808320938616835292905220545b90506104e0565b606061052d612890565b816106905761069081610e80565b8061069081612e7a565b6106908183146067610e06565b600080610e3883856162e4565b905083811015610e795760405162461bcd60e51b815260206004820152600c60248201526b4144445f4f564552464c4f5760a01b60448201526064016105a0565b9392505050565b62461bcd60e51b6000908152602060045260076024526642414c23000030600a808404818106603090810160081b95839006959095019082900491820690940160101b939093010160c81b604452606490fd5b6001600160401b03811b1992909216911b1790565b6001600160a01b0383811660008181526001602090815260408083209487168084529482529182902085905590518481527f8c5be1e5ebec7d5bd14f71427d1e84f3dd0314c0f7b2291e5b200ac8c7c3b92591015b60405180910390a3505050565b6000610f616000356001600160e01b03191661079c565b90506104f7610f708233612f05565b610191610e06565b8015610f9857610f93610f89611012565b4210610193610e06565b610fad565b610fad610fa3611036565b42106101a9610e06565b6007805460ff19168215159081179091556040519081527f9e3a5e37224532dea67b89face185703738a228a6e8a23dee546960180d3be64906020015b60405180910390a150565b6000610fff611036565b42118061052d57505060075460ff161590565b7f000000000000000000000000000000000000000000000000000000000000000090565b7f000000000000000000000000000000000000000000000000000000000000000090565b60606000611066611933565b90506000816001600160401b0381111561108257611082615df2565b6040519080825280602002602001820160405280156110ab578160200160208202803683370190505b5090507f0000000000000000000000000000000000000000000000000000000000000000816000815181106110e2576110e2616464565b6020026020010181815250507f00000000000000000000000000000000000000000000000000000000000000008160018151811061112257611122616464565b60200260200101818152505060028211156104e0577f00000000000000000000000000000000000000000000000000000000000000008160028151811061116b5761116b616464565b60200260200101818152505060038211156104e0577f0000000000000000000000000000000000000000000000000000000000000000816003815181106111b4576111b4616464565b60200260200101818152505060048211156104e0577f0000000000000000000000000000000000000000000000000000000000000000816004815181106111fd576111fd616464565b60200260200101818152505060058211156104e0577f00000000000000000000000000000000000000000000000000000000000000008160058151811061124657611246616464565b60200260200101818152505060068211156104e0577f00000000000000000000000000000000000000000000000000000000000000008160068151811061128f5761128f616464565b60200260200101818152505060078211156104e0577f0000000000000000000000000000000000000000000000000000000000000000816007815181106112d8576112d8616464565b60200260200101818152505060088211156104e0577f00000000000000000000000000000000000000000000000000000000000000008160088151811061132157611321616464565b60200260200101818152505060098211156104e0577f00000000000000000000000000000000000000000000000000000000000000008160098151811061136a5761136a616464565b602002602001018181525050600a8211156104e0577f000000000000000000000000000000000000000000000000000000000000000081600a815181106113b3576113b3616464565b602002602001018181525050600b8211156104e0577f000000000000000000000000000000000000000000000000000000000000000081600b815181106113fc576113fc616464565b602002602001018181525050600c8211156104e0577f000000000000000000000000000000000000000000000000000000000000000081600c8151811061144557611445616464565b602002602001018181525050600d8211156104e0577f000000000000000000000000000000000000000000000000000000000000000081600d8151811061148e5761148e616464565b602002602001018181525050600e8211156104e0577f000000000000000000000000000000000000000000000000000000000000000081600e815181106114d7576114d7616464565b602002602001018181525050600f8211156104e0577f000000000000000000000000000000000000000000000000000000000000000081600f8151811061152057611520616464565b60200260200101818152505060108211156104e0577f00000000000000000000000000000000000000000000000000000000000000008160108151811061156957611569616464565b60200260200101818152505060118211156104e0577f0000000000000000000000000000000000000000000000000000000000000000816011815181106115b2576115b2616464565b60200260200101818152505060128211156104e0577f0000000000000000000000000000000000000000000000000000000000000000816012815181106115fb576115fb616464565b60200260200101818152505060138211156104e0577f00000000000000000000000000000000000000000000000000000000000000008160138151811061164457611644616464565b6020026020010181815250506104e0565b61166c6001600160a01b0384161515610198610e06565b6116836001600160a01b0383161515610199610e06565b6001600160a01b0383166000908152602081905260409020546116a990826101a0612fe8565b6001600160a01b0380851660009081526020819052604080822093909355908416815220546116d99082906162e4565b6001600160a01b038381166000818152602081815260409182902094909455518481529092918616916000805160206168588339815191529101610f3d565b60007f00000000000000000000000000000000000000000000000000000000000000007f00000000000000000000000000000000000000000000000000000000000000007f000000000000000000000000000000000000000000000000000000000000000046604080516020810195909552840192909252606083015260808201523060a082015260c00160405160208183030381529060405280519060200120905090565b6117d16117c9610ff5565b610192610e06565b565b6117e664e8d4a5100082101560cb610e06565b6117fc67016345785d8a000082111560ca610e06565b60085461180b908260c0610ed3565b6008556040518181527fa9ba3ffe0b6c366b81232caab38605a0699ad5398d6cce76f91ee809e322dafc90602001610fea565b600061184861061b565b9050600061185461084b565b60405163160bf1c960e31b8152600481018490526001600160a01b038681166024830152919091169063b05f8e4890604401608060405180830381865afa1580156118a3573d6000803e3d6000fd5b505050506040513d601f19601f820116820180604052508101906118c7919061647a565b604051630639cdb560e21b81529094506001600160a01b03851693506318e736d492506118fb9150859087906004016164bb565b600060405180830381600087803b15801561191557600080fd5b505af1158015611929573d6000803e3d6000fd5b5050505050505050565b7f000000000000000000000000000000000000000000000000000000000000000090565b60006060806000806119676126c2565b91509150611973610ff5565b156119ab576000611984838c6126f6565b90506119968b8484600954858e61300c565b93506119a58b856130d061311d565b506119f7565b6119b3611933565b6001600160401b038111156119ca576119ca615df2565b6040519080825280602002602001820160405280156119f3578160200160208202803683370190505b5092505b611a038a8389896131a2565b9095509350611a138a8584613242565b6009555050985098509895505050505050565b60005b611a31611933565b811015611aa157611a74838281518110611a4d57611a4d616464565b6020026020010151838381518110611a6757611a67616464565b6020026020010151611bc8565b838281518110611a8657611a86616464565b6020908102919091010152611a9a816164d4565b9050611a29565b505050565b333014611b64576000306001600160a01b0316600036604051611aca9291906164ef565b6000604051808303816000865af19150503d8060008114611b07576040519150601f19603f3d011682016040523d82523d6000602084013e611b0c565b606091505b505090508060008114611b1b57fe5b60046000803e6000516001600160e01b0319166343adbafb60e01b8114611b46573d6000803e3d6000fd5b506020600460003e604060205260243d03602460403e601c3d016000f35b6000611b6e61105a565b9050611b7a8782611c4c565b600080611b918c8c8c8c8c8c898d8d63ffffffff16565b5091509150611ba481848663ffffffff16565b8051601f1982018390526343adbafb603f1983015260200260231982016044820181fd5b600081611be75760405162461bcd60e51b81526004016105a0906164ff565b82611bf4575060006104e0565b6000611c08670de0b6b3a7640000856162fc565b9050670de0b6b3a7640000611c1d858361653c565b14611c3a5760405162461bcd60e51b81526004016105a090616550565b611c44838261653c565b9150506104e0565b60005b611c57611933565b811015611aa157611c9a838281518110611c7357611c73616464565b6020026020010151838381518110611c8d57611c8d616464565b602002602001015161325b565b838281518110611cac57611cac616464565b6020908102919091010152611cc0816164d4565b9050611c4f565b61069082826132ad565b6000606080611cde6117be565b600080611ce96126c2565b915091506000611cf9838c6126f6565b90506000611d0d8c8585600954868f61300c565b9050611d1c8c826130d061311d565b600080611d2b8e878d8d613348565b91509150611d3a8e82886133d3565b60095590975095509350505050985098509895505050505050565b60005b611d60611933565b811015611aa157611da3838281518110611d7c57611d7c616464565b6020026020010151838381518110611d9657611d96616464565b60200260200101516133e2565b838281518110611db557611db5616464565b6020908102919091010152611dc9816164d4565b9050611d58565b60007f00000000000000000000000000000000000000000000000000000000000000006001600160a01b0316826001600160a01b03161415611e3357507f0000000000000000000000000000000000000000000000000000000000000000919050565b7f00000000000000000000000000000000000000000000000000000000000000006001600160a01b0316826001600160a01b03161415611e9457507f0000000000000000000000000000000000000000000000000000000000000000919050565b7f00000000000000000000000000000000000000000000000000000000000000006001600160a01b0316826001600160a01b03161415611ef557507f0000000000000000000000000000000000000000000000000000000000000000919050565b7f00000000000000000000000000000000000000000000000000000000000000006001600160a01b0316826001600160a01b03161415611f5657507f0000000000000000000000000000000000000000000000000000000000000000919050565b7f00000000000000000000000000000000000000000000000000000000000000006001600160a01b0316826001600160a01b03161415611fb757507f0000000000000000000000000000000000000000000000000000000000000000919050565b7f00000000000000000000000000000000000000000000000000000000000000006001600160a01b0316826001600160a01b0316141561201857507f0000000000000000000000000000000000000000000000000000000000000000919050565b7f00000000000000000000000000000000000000000000000000000000000000006001600160a01b0316826001600160a01b0316141561207957507f0000000000000000000000000000000000000000000000000000000000000000919050565b7f00000000000000000000000000000000000000000000000000000000000000006001600160a01b0316826001600160a01b031614156120da57507f0000000000000000000000000000000000000000000000000000000000000000919050565b7f00000000000000000000000000000000000000000000000000000000000000006001600160a01b0316826001600160a01b0316141561213b57507f0000000000000000000000000000000000000000000000000000000000000000919050565b7f00000000000000000000000000000000000000000000000000000000000000006001600160a01b0316826001600160a01b0316141561219c57507f0000000000000000000000000000000000000000000000000000000000000000919050565b7f00000000000000000000000000000000000000000000000000000000000000006001600160a01b0316826001600160a01b031614156121fd57507f0000000000000000000000000000000000000000000000000000000000000000919050565b7f00000000000000000000000000000000000000000000000000000000000000006001600160a01b0316826001600160a01b0316141561225e57507f0000000000000000000000000000000000000000000000000000000000000000919050565b7f00000000000000000000000000000000000000000000000000000000000000006001600160a01b0316826001600160a01b031614156122bf57507f0000000000000000000000000000000000000000000000000000000000000000919050565b7f00000000000000000000000000000000000000000000000000000000000000006001600160a01b0316826001600160a01b0316141561232057507f0000000000000000000000000000000000000000000000000000000000000000919050565b7f00000000000000000000000000000000000000000000000000000000000000006001600160a01b0316826001600160a01b0316141561238157507f0000000000000000000000000000000000000000000000000000000000000000919050565b7f00000000000000000000000000000000000000000000000000000000000000006001600160a01b0316826001600160a01b031614156123e257507f0000000000000000000000000000000000000000000000000000000000000000919050565b7f00000000000000000000000000000000000000000000000000000000000000006001600160a01b0316826001600160a01b0316141561244357507f0000000000000000000000000000000000000000000000000000000000000000919050565b7f00000000000000000000000000000000000000000000000000000000000000006001600160a01b0316826001600160a01b031614156124a457507f0000000000000000000000000000000000000000000000000000000000000000919050565b7f00000000000000000000000000000000000000000000000000000000000000006001600160a01b0316826001600160a01b0316141561250557507f0000000000000000000000000000000000000000000000000000000000000000919050565b7f00000000000000000000000000000000000000000000000000000000000000006001600160a01b0316826001600160a01b0316141561256657507f0000000000000000000000000000000000000000000000000000000000000000919050565b612571610135610e80565b919050565b60008061258f61258860085460c01c90565b8490613475565b9050610e7981846162cd565b6000610e79838361325b565b60006125b16117be565b6125da836125c286602001516134d8565b846125d088604001516134d8565b8860600151613c6e565b949350505050565b6000610e798383611bc8565b60006125f86117be565b6125da8361260986602001516134d8565b8461261788604001516134d8565b8860600151613d19565b6000610e7983836133e2565b60006104e061263e60085460c01c90565b61265090670de0b6b3a76400006162cd565b83906133e2565b600061266161084b565b6001600160a01b031663aaabadc56040518163ffffffff1660e01b8152600401602060405180830381865afa15801561269e573d6000803e3d6000fd5b505050506040513d601f19601f8201168201806040525081019061052d9190616576565b606060006126ce612890565b927f000000000000000000000000000000000000000000000000000000000000000092509050565b670de0b6b3a764000060005b835181101561276e5761275a61275385838151811061272357612723616464565b602002602001015185848151811061273d5761273d616464565b6020026020010151613dc090919063ffffffff16565b839061325b565b915080612766816164d4565b915050612702565b50600081116104e05760405162461bcd60e51b815260206004820152600e60248201526d16915493d7d2539590549250539560921b60448201526064016105a0565b60006127ba611718565b60405161190160f01b60208201526022810191909152604281018390526062016107e4565b600060606127eb6117be565b60006127f684613e0f565b9050612817600082600381111561280f5761280f61631b565b1460ce610e06565b600061282285613e25565b905061283661282f611933565b8251610e1e565b6128408187611c4c565b600061284a6126c2565b509050600061285982846126f6565b90506000612865611933565b61286f90836162fc565b600992909255509a91995090975050505050505050565b6106908282613e3b565b6060600061289c611933565b90506000816001600160401b038111156128b8576128b8615df2565b6040519080825280602002602001820160405280156128e1578160200160208202803683370190505b5090507f00000000000000000000000000000000000000000000000000000000000000008160008151811061291857612918616464565b6020026020010181815250507f00000000000000000000000000000000000000000000000000000000000000008160018151811061295857612958616464565b60200260200101818152505060028211156104e0577f0000000000000000000000000000000000000000000000000000000000000000816002815181106129a1576129a1616464565b60200260200101818152505060038211156104e0577f0000000000000000000000000000000000000000000000000000000000000000816003815181106129ea576129ea616464565b60200260200101818152505060048211156104e0577f000000000000000000000000000000000000000000000000000000000000000081600481518110612a3357612a33616464565b60200260200101818152505060058211156104e0577f000000000000000000000000000000000000000000000000000000000000000081600581518110612a7c57612a7c616464565b60200260200101818152505060068211156104e0577f000000000000000000000000000000000000000000000000000000000000000081600681518110612ac557612ac5616464565b60200260200101818152505060078211156104e0577f000000000000000000000000000000000000000000000000000000000000000081600781518110612b0e57612b0e616464565b60200260200101818152505060088211156104e0577f000000000000000000000000000000000000000000000000000000000000000081600881518110612b5757612b57616464565b60200260200101818152505060098211156104e0577f000000000000000000000000000000000000000000000000000000000000000081600981518110612ba057612ba0616464565b602002602001018181525050600a8211156104e0577f000000000000000000000000000000000000000000000000000000000000000081600a81518110612be957612be9616464565b602002602001018181525050600b8211156104e0577f000000000000000000000000000000000000000000000000000000000000000081600b81518110612c3257612c32616464565b602002602001018181525050600c8211156104e0577f000000000000000000000000000000000000000000000000000000000000000081600c81518110612c7b57612c7b616464565b602002602001018181525050600d8211156104e0577f000000000000000000000000000000000000000000000000000000000000000081600d81518110612cc457612cc4616464565b602002602001018181525050600e8211156104e0577f000000000000000000000000000000000000000000000000000000000000000081600e81518110612d0d57612d0d616464565b602002602001018181525050600f8211156104e0577f000000000000000000000000000000000000000000000000000000000000000081600f81518110612d5657612d56616464565b60200260200101818152505060108211156104e0577f000000000000000000000000000000000000000000000000000000000000000081601081518110612d9f57612d9f616464565b60200260200101818152505060118211156104e0577f000000000000000000000000000000000000000000000000000000000000000081601181518110612de857612de8616464565b60200260200101818152505060128211156104e0577f000000000000000000000000000000000000000000000000000000000000000081601281518110612e3157612e31616464565b60200260200101818152505060138211156104e0577f00000000000000000000000000000000000000000000000000000000000000008160138151811061164457611644616464565b600281511015612e875750565b600081600081518110612e9c57612e9c616464565b602002602001015190506000600190505b8251811015611aa1576000838281518110612eca57612eca616464565b60200260200101519050612ef3816001600160a01b0316846001600160a01b0316106065610e06565b9150612efe816164d4565b9050612ead565b600073ba1ba1ba1ba1ba1ba1ba1ba1ba1ba1ba1ba1ba1b612f24610827565b6001600160a01b031614158015612f3f5750612f3f83613eac565b15612f6757612f4c610827565b6001600160a01b0316336001600160a01b03161490506104e0565b612f6f612657565b6040516326f8aa2160e21b8152600481018590526001600160a01b0384811660248301523060448301529190911690639be2a88490606401602060405180830381865afa158015612fc4573d6000803e3d6000fd5b505050506040513d601f19601f82011682018060405250810190610df59190616593565b6000612ff78484111583610e06565b600061300384866162cd565b95945050505050565b60606000613018611933565b6001600160401b0381111561302f5761302f615df2565b604051908082528060200260200182016040528015613058578160200160208202803683370190505b509050826130675790506130c6565b6130a688878151811061307c5761307c616464565b602002602001015188888151811061309657613096616464565b6020026020010151878787613ede565b8187815181106130b8576130b8616464565b602090810291909101015290505b9695505050505050565b6000828211156131115760405162461bcd60e51b815260206004820152600c60248201526b5355425f4f564552464c4f5760a01b60448201526064016105a0565b60006125da83856162cd565b60005b613128611933565b81101561319c5761316f84828151811061314457613144616464565b602002602001015184838151811061315e5761315e616464565b60200260200101518463ffffffff16565b84828151811061318157613181616464565b6020908102919091010152613195816164d4565b9050613120565b50505050565b6000606060006131b184613e0f565b905060008160038111156131c7576131c761631b565b14156131e2576131d8878786613f56565b9250925050613239565b60018160038111156131f6576131f661631b565b1415613206576131d88785614054565b600281600381111561321a5761321a61631b565b141561322c576131d887878787614087565b613237610150610e80565b505b94509492505050565b600061325184846130d061311d565b6125da82856126f6565b60008061326883856162fc565b905083158061327f57508261327d858361653c565b145b61329b5760405162461bcd60e51b81526004016105a0906165b0565b6125da670de0b6b3a76400008261653c565b6132c46001600160a01b038316151561019b610e06565b6001600160a01b0382166000908152602081905260409020546132ea90826101a1612fe8565b6001600160a01b0383166000908152602081905260409020556002546133119082906162cd565b6002556040518181526000906001600160a01b03841690600080516020616858833981519152906020015b60405180910390a35050565b60006060600061335784613e0f565b9050600181600381111561336d5761336d61631b565b141561337f576131d887878787614101565b60028160038111156133935761339361631b565b14156133a4576131d8878786614169565b60038160038111156133b8576133b861631b565b14156133c8576131d887856141d7565b613237610136610e80565b60006132518484610e2b61311d565b6000816134015760405162461bcd60e51b81526004016105a0906164ff565b8261340e575060006104e0565b6000613422670de0b6b3a7640000856162fc565b9050670de0b6b3a7640000613437858361653c565b146134545760405162461bcd60e51b81526004016105a090616550565b826134606001836162cd565b61346a919061653c565b611c449060016162e4565b60008061348283856162fc565b9050831580613499575082613497858361653c565b145b6134b55760405162461bcd60e51b81526004016105a0906165b0565b806134c45760009150506104e0565b670de0b6b3a76400006134606001836162cd565b60007f00000000000000000000000000000000000000000000000000000000000000006001600160a01b0316826001600160a01b0316141561353b57507f0000000000000000000000000000000000000000000000000000000000000000919050565b7f00000000000000000000000000000000000000000000000000000000000000006001600160a01b0316826001600160a01b0316141561359c57507f0000000000000000000000000000000000000000000000000000000000000000919050565b7f00000000000000000000000000000000000000000000000000000000000000006001600160a01b0316826001600160a01b031614156135fd57507f0000000000000000000000000000000000000000000000000000000000000000919050565b7f00000000000000000000000000000000000000000000000000000000000000006001600160a01b0316826001600160a01b0316141561365e57507f0000000000000000000000000000000000000000000000000000000000000000919050565b7f00000000000000000000000000000000000000000000000000000000000000006001600160a01b0316826001600160a01b031614156136bf57507f0000000000000000000000000000000000000000000000000000000000000000919050565b7f00000000000000000000000000000000000000000000000000000000000000006001600160a01b0316826001600160a01b0316141561372057507f0000000000000000000000000000000000000000000000000000000000000000919050565b7f00000000000000000000000000000000000000000000000000000000000000006001600160a01b0316826001600160a01b0316141561378157507f0000000000000000000000000000000000000000000000000000000000000000919050565b7f00000000000000000000000000000000000000000000000000000000000000006001600160a01b0316826001600160a01b031614156137e257507f0000000000000000000000000000000000000000000000000000000000000000919050565b7f00000000000000000000000000000000000000000000000000000000000000006001600160a01b0316826001600160a01b0316141561384357507f0000000000000000000000000000000000000000000000000000000000000000919050565b7f00000000000000000000000000000000000000000000000000000000000000006001600160a01b0316826001600160a01b031614156138a457507f0000000000000000000000000000000000000000000000000000000000000000919050565b7f00000000000000000000000000000000000000000000000000000000000000006001600160a01b0316826001600160a01b0316141561390557507f0000000000000000000000000000000000000000000000000000000000000000919050565b7f00000000000000000000000000000000000000000000000000000000000000006001600160a01b0316826001600160a01b0316141561396657507f0000000000000000000000000000000000000000000000000000000000000000919050565b7f00000000000000000000000000000000000000000000000000000000000000006001600160a01b0316826001600160a01b031614156139c757507f0000000000000000000000000000000000000000000000000000000000000000919050565b7f00000000000000000000000000000000000000000000000000000000000000006001600160a01b0316826001600160a01b03161415613a2857507f0000000000000000000000000000000000000000000000000000000000000000919050565b7f00000000000000000000000000000000000000000000000000000000000000006001600160a01b0316826001600160a01b03161415613a8957507f0000000000000000000000000000000000000000000000000000000000000000919050565b7f00000000000000000000000000000000000000000000000000000000000000006001600160a01b0316826001600160a01b03161415613aea57507f0000000000000000000000000000000000000000000000000000000000000000919050565b7f00000000000000000000000000000000000000000000000000000000000000006001600160a01b0316826001600160a01b03161415613b4b57507f0000000000000000000000000000000000000000000000000000000000000000919050565b7f00000000000000000000000000000000000000000000000000000000000000006001600160a01b0316826001600160a01b03161415613bac57507f0000000000000000000000000000000000000000000000000000000000000000919050565b7f00000000000000000000000000000000000000000000000000000000000000006001600160a01b0316826001600160a01b03161415613c0d57507f0000000000000000000000000000000000000000000000000000000000000000919050565b7f00000000000000000000000000000000000000000000000000000000000000006001600160a01b0316826001600160a01b0316141561256657507f0000000000000000000000000000000000000000000000000000000000000000919050565b6000613c8286670429d069189e000061325b565b821115613cc05760405162461bcd60e51b815260206004820152600c60248201526b4d41585f494e5f524154494f60a01b60448201526064016105a0565b6000613ccc83886162e4565b90506000613cda88836133e2565b90506000613ce88887611bc8565b90506000613cf683836141fd565b9050613d0b613d0482614229565b899061325b565b9a9950505050505050505050565b6000613d2d84670429d069189e000061325b565b821115613d6c5760405162461bcd60e51b815260206004820152600d60248201526c4d41585f4f55545f524154494f60981b60448201526064016105a0565b6000613d82613d7b84876162cd565b86906133e2565b90506000613d9085886133e2565b90506000613d9e83836141fd565b90506000613db4670de0b6b3a7640000836162cd565b9050613d0b8a82613475565b600080613dcd8484614253565b90506000613de7613de083612710613475565b6001610e2b565b905080821015613dfc576000925050506104e0565b613e0682826130d0565b925050506104e0565b6000818060200190518101906104e091906165e3565b606081806020019051810190610e799190616600565b80600254613e4991906162e4565b6002556001600160a01b038216600090815260208190526040902054613e709082906162e4565b6001600160a01b03831660008181526020818152604080832094909455925184815291929091600080516020616858833981519152910161333c565b6000613ebe631c74c91760e11b61079c565b8214806104e05750613ed66350dd6ed960e01b61079c565b821492915050565b6000838311613eef57506000613003565b6000613efb85856133e2565b90506000613f11670de0b6b3a764000088611bc8565b9050613f25826709b6e64a8ec600006143b8565b91506000613f3383836141fd565b90506000613f4a613f4383614229565b8b9061325b565b9050613d0b818761325b565b60006060613f626117be565b600080613f6e856143cf565b91509150613f86613f7d611933565b82106064610e06565b600080613fd5898481518110613f9e57613f9e616464565b6020026020010151898581518110613fb857613fb8616464565b602002602001015186613fca60025490565b60085460c01c6143f1565b915091506000613fe3611933565b6001600160401b03811115613ffa57613ffa615df2565b604051908082528060200260200182016040528015614023578160200160208202803683370190505b5090508281858151811061403957614039616464565b60209081029190910101529399939850929650505050505050565b600060606000614063846144e9565b9050600061407a868361407560025490565b6144ff565b9196919550909350505050565b600060606140936117be565b60008061409f856145c7565b915091506140b082516106a5611933565b6140ba8287611c4c565b6000806140d78a8a866140cc60025490565b60085460c01c6145df565b915091506140e98383111560cf610e06565b6140f281614750565b50989197509095505050505050565b60006060600080614111856145c7565b91509150614127614120611933565b8351610e1e565b6141318287611c4c565b60008061414e8a8a8661414360025490565b60085460c01c614795565b9150915061415b81614750565b6140f28383101560d0610e06565b60006060600080614179856143cf565b91509150614188613f7d611933565b600080613fd58984815181106141a0576141a0616464565b60200260200101518985815181106141ba576141ba616464565b6020026020010151866141cc60025490565b60085460c01c6148fd565b6000606060006141e6846144e9565b9050600061407a86836141f860025490565b614a0f565b60008061420a8484614253565b9050600061421d613de083612710613475565b90506130038282610e2b565b6000670de0b6b3a764000082106142415760006104e0565b6104e082670de0b6b3a76400006162cd565b6000816142695750670de0b6b3a76400006104e0565b82614276575060006104e0565b614287600160ff1b84106006610e06565b826142ab6142a268056bc75e2d63100000600160fe1b61653c565b84106007610e06565b826000826142c967016345785d8a0000670de0b6b3a7640000616646565b1280156142ee57506142eb670de0b6b3a764000067016345785d8a0000616685565b83125b156143575760006142fe84614ab7565b9050670de0b6b3a76400008361431482846166c6565b61431e91906166da565b614328919061675f565b8361433b670de0b6b3a76400008461675f565b61434591906166da565b61434f9190616685565b91505061436e565b8161436184614cee565b61436b91906166da565b90505b614380670de0b6b3a76400008261675f565b90506143af81680238fd42c5cf03ffff19131580156143a8575068070c1cc73b00c800008213155b6008610e06565b6130c6816152d0565b6000818310156143c85781610e79565b5090919050565b600080828060200190518101906143e6919061678d565b909590945092505050565b600080806144098561440388826162cd565b906133e2565b90506709b6e64a8ec6000081101561445e5760405162461bcd60e51b815260206004820152601860248201527713525397d0941517d25397d193d497d513d2d15397d3d55560421b60448201526064016105a0565b600061447c614475670de0b6b3a76400008a611bc8565b83906141fd565b9050600061448c613f4383614229565b905060006144998a614229565b905060006144a78383613475565b905060006144b582856162cd565b90506144c1828a613475565b96506144cd87836162cd565b6144d790826162e4565b97505050505050509550959350505050565b600081806020019051810190610e7991906167c4565b6060600061450d8484611bc8565b9050600085516001600160401b0381111561452a5761452a615df2565b604051908082528060200260200182016040528015614553578160200160208202803683370190505b50905060005b86518110156145bd5761458e8388838151811061457857614578616464565b602002602001015161325b90919063ffffffff16565b8282815181106145a0576145a0616464565b6020908102919091010152806145b5816164d4565b915050614559565b5095945050505050565b60606000828060200190518101906143e691906167f2565b60006060600085516001600160401b038111156145fe576145fe615df2565b604051908082528060200260200182016040528015614627578160200160208202803683370190505b5090506000805b8951811015614713576146928a828151811061464c5761464c616464565b602002602001015189838151811061466657614666616464565b60200260200101518c848151811061468057614680616464565b602002602001015161440391906162cd565b8382815181106146a4576146a4616464565b6020026020010181815250506146f58982815181106146c5576146c5616464565b60200260200101518483815181106146df576146df616464565b602002602001015161347590919063ffffffff16565b6146ff90836162e4565b91508061470b816164d4565b91505061462e565b506000806147258b8b8b87878c615905565b91509150600061473e61473784614229565b8a90613475565b9c919b50909950505050505050505050565b61475d81516106a5611933565b60005b614768611933565b8110156106905761478581838381518110611aa157611aa1616464565b61478e816164d4565b9050614760565b60006060600085516001600160401b038111156147b4576147b4615df2565b6040519080825280602002602001820160405280156147dd578160200160208202803683370190505b5090506000805b89518110156148b3576148488a828151811061480257614802616464565b602002602001015189838151811061481c5761481c616464565b60200260200101518c848151811061483657614836616464565b60200260200101516106f391906162e4565b83828151811061485a5761485a616464565b60200260200101818152505061489589828151811061487b5761487b616464565b602002602001015184838151811061457857614578616464565b61489f90836162e4565b9150806148ab816164d4565b9150506147e4565b506000806148c58b8b8b87878c615ae3565b915091506000670de0b6b3a764000083116148e157600061473e565b61473e6148f6670de0b6b3a7640000856162cd565b8a9061325b565b6000808061490f8561440388826162e4565b90506729a2241af62c00008111156149645760405162461bcd60e51b815260206004820152601860248201527726a0ac2fa7aaaa2fa1282a2fa327a92faa27a5a2a72fa4a760411b60448201526064016105a0565b600061497b614475670de0b6b3a76400008a6133e2565b9050600061499b614994670de0b6b3a7640000846162cd565b8b90613475565b905060006149a88a614229565b905060006149b68383613475565b905060006149c482856162cd565b905060006149e46149dd8b670de0b6b3a76400006162cd565b84906133e2565b90506149f083826162cd565b97506149fc81836162e4565b9850505050505050509550959350505050565b60606000614a1d84846133e2565b9050600085516001600160401b03811115614a3a57614a3a615df2565b604051908082528060200260200182016040528015614a63578160200160208202803683370190505b50905060005b86518110156145bd57614a88838883815181106146df576146df616464565b828281518110614a9a57614a9a616464565b602090810291909101015280614aaf816164d4565b915050614a69565b6000614acb670de0b6b3a7640000836166da565b91506000614ae76a0c097ce7bc90715b34b9f160241b84616685565b6a0c097ce7bc90715b34b9f160241b614b008186616646565b614b0a91906166da565b614b14919061675f565b905060006a0c097ce7bc90715b34b9f160241b614b3183806166da565b614b3b919061675f565b905081806a0c097ce7bc90715b34b9f160241b614b5884836166da565b614b62919061675f565b9150614b6f60038361675f565b614b799082616685565b90506a0c097ce7bc90715b34b9f160241b614b9484846166da565b614b9e919061675f565b9150614bab60058361675f565b614bb59082616685565b90506a0c097ce7bc90715b34b9f160241b614bd084846166da565b614bda919061675f565b9150614be760078361675f565b614bf19082616685565b90506a0c097ce7bc90715b34b9f160241b614c0c84846166da565b614c16919061675f565b9150614c2360098361675f565b614c2d9082616685565b90506a0c097ce7bc90715b34b9f160241b614c4884846166da565b614c52919061675f565b9150614c5f600b8361675f565b614c699082616685565b90506a0c097ce7bc90715b34b9f160241b614c8484846166da565b614c8e919061675f565b9150614c9b600d8361675f565b614ca59082616685565b90506a0c097ce7bc90715b34b9f160241b614cc084846166da565b614cca919061675f565b9150614cd7600f8361675f565b614ce19082616685565b90506130c68160026166da565b6000670de0b6b3a7640000821215614d2e57614d2582614d16670de0b6b3a7640000806166da565b614d20919061675f565b614cee565b6104e09061683a565b6000614d58670de0b6b3a764000072195e54c5dd42177f53a27172fa9ec63026282760241b6166da565b8312614d9657614d7e72195e54c5dd42177f53a27172fa9ec63026282760241b8461675f565b9250614d936806f05b59d3b200000082616685565b90505b614db4670de0b6b3a76400006b1425982cf597cd205cef73806166da565b8312614de857614dd06b1425982cf597cd205cef73808461675f565b9250614de56803782dace9d900000082616685565b90505b614df36064826166da565b9050614e006064846166da565b92506e01855144814a7ff805980ff00840008312614e5d576e01855144814a7ff805980ff0084000614e3b68056bc75e2d63100000856166da565b614e45919061675f565b9250614e5a68ad78ebc5ac6200000082616685565b90505b6b02df0ab5a80a22c61ab5a7008312614eb2576b02df0ab5a80a22c61ab5a700614e9068056bc75e2d63100000856166da565b614e9a919061675f565b9250614eaf6856bc75e2d63100000082616685565b90505b693f1fce3da636ea5cf8508312614f0357693f1fce3da636ea5cf850614ee168056bc75e2d63100000856166da565b614eeb919061675f565b9250614f00682b5e3af16b1880000082616685565b90505b690127fa27722cc06cc5e28312614f5457690127fa27722cc06cc5e2614f3268056bc75e2d63100000856166da565b614f3c919061675f565b9250614f516815af1d78b58c40000082616685565b90505b68280e60114edb805d038312614fa35768280e60114edb805d03614f8168056bc75e2d63100000856166da565b614f8b919061675f565b9250614fa0680ad78ebc5ac620000082616685565b90505b680ebc5fb417461211108312614ff257680ebc5fb41746121110614fd068056bc75e2d63100000856166da565b614fda919061675f565b9250614fef68056bc75e2d6310000082616685565b90505b6808f00f760a4b2db55d8312615041576808f00f760a4b2db55d61501f68056bc75e2d63100000856166da565b615029919061675f565b925061503e6802b5e3af16b188000082616685565b90505b6806f5f17757889379378312615090576806f5f177578893793761506e68056bc75e2d63100000856166da565b615078919061675f565b925061508d68015af1d78b58c4000082616685565b90505b6806248f33704b28660383126150de576806248f33704b2866036150bd68056bc75e2d63100000856166da565b6150c7919061675f565b92506150db67ad78ebc5ac62000082616685565b90505b6805c548670b9510e7ac831261512c576805c548670b9510e7ac61510b68056bc75e2d63100000856166da565b615115919061675f565b92506151296756bc75e2d631000082616685565b90505b600061514168056bc75e2d6310000085616685565b68056bc75e2d631000006151558187616646565b61515f91906166da565b615169919061675f565b9050600068056bc75e2d6310000061518183806166da565b61518b919061675f565b9050818068056bc75e2d631000006151a384836166da565b6151ad919061675f565b91506151ba60038361675f565b6151c49082616685565b905068056bc75e2d631000006151da84846166da565b6151e4919061675f565b91506151f160058361675f565b6151fb9082616685565b905068056bc75e2d6310000061521184846166da565b61521b919061675f565b915061522860078361675f565b6152329082616685565b905068056bc75e2d6310000061524884846166da565b615252919061675f565b915061525f60098361675f565b6152699082616685565b905068056bc75e2d6310000061527f84846166da565b615289919061675f565b9150615296600b8361675f565b6152a09082616685565b90506152ad6002826166da565b905060646152bb8287616685565b6152c5919061675f565b979650505050505050565b60006152ff680238fd42c5cf03ffff1983121580156152f8575068070c1cc73b00c800008313155b6009610e06565b6000821215615335576153196153148361683a565b6152d0565b61532b670de0b6b3a7640000806166da565b6104e0919061675f565b60006806f05b59d3b2000000831261537a5761535a6806f05b59d3b200000084616646565b925072195e54c5dd42177f53a27172fa9ec63026282760241b90506153b7565b6803782dace9d900000083126153b35761539d6803782dace9d900000084616646565b92506b1425982cf597cd205cef738090506153b7565b5060015b6153c26064846166da565b925068056bc75e2d6310000068ad78ebc5ac620000008412615423576153f168ad78ebc5ac6200000085616646565b935068056bc75e2d631000006154166e01855144814a7ff805980ff0084000836166da565b615420919061675f565b90505b6856bc75e2d6310000008412615475576154466856bc75e2d63100000085616646565b935068056bc75e2d631000006154686b02df0ab5a80a22c61ab5a700836166da565b615472919061675f565b90505b682b5e3af16b1880000084126154c557615498682b5e3af16b1880000085616646565b935068056bc75e2d631000006154b8693f1fce3da636ea5cf850836166da565b6154c2919061675f565b90505b6815af1d78b58c4000008412615515576154e86815af1d78b58c40000085616646565b935068056bc75e2d63100000615508690127fa27722cc06cc5e2836166da565b615512919061675f565b90505b680ad78ebc5ac6200000841261556457615538680ad78ebc5ac620000085616646565b935068056bc75e2d6310000061555768280e60114edb805d03836166da565b615561919061675f565b90505b68056bc75e2d6310000084126155b35761558768056bc75e2d6310000085616646565b935068056bc75e2d631000006155a6680ebc5fb41746121110836166da565b6155b0919061675f565b90505b6802b5e3af16b18800008412615602576155d66802b5e3af16b188000085616646565b935068056bc75e2d631000006155f56808f00f760a4b2db55d836166da565b6155ff919061675f565b90505b68015af1d78b58c4000084126156515761562568015af1d78b58c4000085616646565b935068056bc75e2d631000006156446806f5f1775788937937836166da565b61564e919061675f565b90505b68056bc75e2d63100000846156668183616685565b9150600268056bc75e2d6310000061567e88846166da565b615688919061675f565b615692919061675f565b905061569e8183616685565b9150600368056bc75e2d631000006156b688846166da565b6156c0919061675f565b6156ca919061675f565b90506156d68183616685565b9150600468056bc75e2d631000006156ee88846166da565b6156f8919061675f565b615702919061675f565b905061570e8183616685565b9150600568056bc75e2d6310000061572688846166da565b615730919061675f565b61573a919061675f565b90506157468183616685565b9150600668056bc75e2d6310000061575e88846166da565b615768919061675f565b615772919061675f565b905061577e8183616685565b9150600768056bc75e2d6310000061579688846166da565b6157a0919061675f565b6157aa919061675f565b90506157b68183616685565b9150600868056bc75e2d631000006157ce88846166da565b6157d8919061675f565b6157e2919061675f565b90506157ee8183616685565b9150600968056bc75e2d6310000061580688846166da565b615810919061675f565b61581a919061675f565b90506158268183616685565b9150600a68056bc75e2d6310000061583e88846166da565b615848919061675f565b615852919061675f565b905061585e8183616685565b9150600b68056bc75e2d6310000061587688846166da565b615880919061675f565b61588a919061675f565b90506158968183616685565b9150600c68056bc75e2d631000006158ae88846166da565b6158b8919061675f565b6158c2919061675f565b90506158ce8183616685565b915060648468056bc75e2d631000006158e785876166da565b6158f1919061675f565b6158fb91906166da565b6130c6919061675f565b6000606085516001600160401b0381111561592257615922615df2565b60405190808252806020026020018201604052801561594b578160200160208202803683370190505b509050670de0b6b3a7640000915060005b8851811015615ad757600086828151811061597957615979616464565b6020026020010151861115615a275760006159a861599688614229565b8c858151811061457857614578616464565b90506000818a85815181106159bf576159bf616464565b60200260200101516159d191906162cd565b905060006159ea61265089670de0b6b3a76400006162cd565b90506159f682826162cd565b868681518110615a0857615a08616464565b6020908102919091010152615a1d81846162e4565b9350505050615a44565b878281518110615a3957615a39616464565b602002602001015190505b6000615a888b8481518110615a5b57615a5b616464565b6020026020010151838d8681518110615a7657615a76616464565b60200260200101516106f391906162cd565b9050615ac0615ab98b8581518110615aa257615aa2616464565b602002602001015183613dc090919063ffffffff16565b869061325b565b945050508080615acf906164d4565b91505061595c565b50965096945050505050565b6000606085516001600160401b03811115615b0057615b00615df2565b604051908082528060200260200182016040528015615b29578160200160208202803683370190505b509050670de0b6b3a7640000915060005b8851811015615ad757600085878381518110615b5857615b58616464565b60200260200101511115615bf3576000615b7d615996670de0b6b3a7640000896162cd565b90506000818a8581518110615b9457615b94616464565b6020026020010151615ba691906162cd565b90506000615bb48289613475565b9050615bc081836162cd565b615bca90846162e4565b935080868681518110615bdf57615bdf616464565b602002602001018181525050505050615c10565b878281518110615c0557615c05616464565b602002602001015190505b6000615c428b8481518110615c2757615c27616464565b6020026020010151838d868151811061483657614836616464565b9050615c5c615ab98b8581518110615aa257615aa2616464565b945050508080615c6b906164d4565b915050615b3a565b6000815180845260005b81811015615c9957602081850181015186830182015201615c7d565b81811115615cab576000602083870101525b50601f01601f19169290920160200192915050565b602081526000610e796020830184615c73565b6001600160a01b03811681146104f757600080fd5b803561257181615cd3565b60008060408385031215615d0657600080fd5b8235615d1181615cd3565b946020939093013593505050565b80151581146104f757600080fd5b600060208284031215615d3f57600080fd5b8135610e7981615d1f565b600081518084526020808501945080840160005b83811015615d7a57815187529582019590820190600101615d5e565b509495945050505050565b602081526000610e796020830184615d4a565b600080600060608486031215615dad57600080fd5b8335615db881615cd3565b92506020840135615dc881615cd3565b929592945050506040919091013590565b600060208284031215615deb57600080fd5b5035919050565b634e487b7160e01b600052604160045260246000fd5b60405161012081016001600160401b0381118282101715615e2b57615e2b615df2565b60405290565b604051601f8201601f191681016001600160401b0381118282101715615e5957615e59615df2565b604052919050565b600082601f830112615e7257600080fd5b81356001600160401b03811115615e8b57615e8b615df2565b615e9e601f8201601f1916602001615e31565b818152846020838601011115615eb357600080fd5b816020850160208301376000918101602001919091529392505050565b60008060408385031215615ee357600080fd5b8235615eee81615cd3565b915060208301356001600160401b03811115615f0957600080fd5b615f1585828601615e61565b9150509250929050565b60006001600160401b03821115615f3857615f38615df2565b5060051b60200190565b600080600080600080600060e0888a031215615f5d57600080fd5b87359650602080890135615f7081615cd3565b96506040890135615f8081615cd3565b955060608901356001600160401b0380821115615f9c57600080fd5b818b0191508b601f830112615fb057600080fd5b8135615fc3615fbe82615f1f565b615e31565b81815260059190911b8301840190848101908e831115615fe257600080fd5b938501935b8285101561600057843582529385019390850190615fe7565b9850505060808b0135955060a08b0135945060c08b013592508083111561602657600080fd5b50506160348a828b01615e61565b91505092959891949750929550565b8281526040602082015260006125da6040830184615d4a565b60006020828403121561606e57600080fd5b8135610e7981615cd3565b60408152600061608c6040830185615d4a565b82810360208401526130038185615d4a565b6000602082840312156160b057600080fd5b81356001600160e01b031981168114610e7957600080fd5b80356002811061257157600080fd5b6000806000606084860312156160ec57600080fd5b83356001600160401b038082111561610357600080fd5b90850190610120828803121561611857600080fd5b616120615e08565b616129836160c8565b815261613760208401615ce8565b602082015261614860408401615ce8565b6040820152606083013560608201526080830135608082015260a083013560a082015261617760c08401615ce8565b60c082015261618860e08401615ce8565b60e082015261010080840135838111156161a157600080fd5b6161ad8a828701615e61565b9183019190915250976020870135975060409096013595945050505050565b600080600080600080600060e0888a0312156161e757600080fd5b87356161f281615cd3565b9650602088013561620281615cd3565b95506040880135945060608801359350608088013560ff8116811461622657600080fd5b9699959850939692959460a0840135945060c09093013592915050565b6000806040838503121561625657600080fd5b823561626181615cd3565b9150602083013561627181615cd3565b809150509250929050565b600181811c9082168061629057607f821691505b602082108114156162b157634e487b7160e01b600052602260045260246000fd5b50919050565b634e487b7160e01b600052601160045260246000fd5b6000828210156162df576162df6162b7565b500390565b600082198211156162f7576162f76162b7565b500190565b6000816000190483118215151615616316576163166162b7565b500290565b634e487b7160e01b600052602160045260246000fd5b600082601f83011261634257600080fd5b81516020616352615fbe83615f1f565b82815260059290921b8401810191818101908684111561637157600080fd5b8286015b8481101561638c5780518352918301918301616375565b509695505050505050565b6000806000606084860312156163ac57600080fd5b83516001600160401b03808211156163c357600080fd5b818601915086601f8301126163d757600080fd5b815160206163e7615fbe83615f1f565b82815260059290921b8401810191818101908a84111561640657600080fd5b948201945b8386101561642d57855161641e81615cd3565b8252948201949082019061640b565b9189015191975090935050508082111561644657600080fd5b5061645386828701616331565b925050604084015190509250925092565b634e487b7160e01b600052603260045260246000fd5b6000806000806080858703121561649057600080fd5b84519350602085015192506040850151915060608501516164b081615cd3565b939692955090935050565b8281526040602082015260006125da6040830184615c73565b60006000198214156164e8576164e86162b7565b5060010190565b8183823760009101908152919050565b6020808252600d908201526c2d22a927afa224ab24a9a4a7a760991b604082015260600190565b634e487b7160e01b600052601260045260246000fd5b60008261654b5761654b616526565b500490565b6020808252600c908201526b11125597d25395115493905360a21b604082015260600190565b60006020828403121561658857600080fd5b8151610e7981615cd3565b6000602082840312156165a557600080fd5b8151610e7981615d1f565b6020808252600c908201526b4d554c5f4f564552464c4f5760a01b604082015260600190565b600481106104f757600080fd5b6000602082840312156165f557600080fd5b8151610e79816165d6565b6000806040838503121561661357600080fd5b825161661e816165d6565b60208401519092506001600160401b0381111561663a57600080fd5b615f1585828601616331565b60008083128015600160ff1b850184121615616664576166646162b7565b6001600160ff1b038401831381161561667f5761667f6162b7565b50500390565b600080821280156001600160ff1b03849003851316156166a7576166a76162b7565b600160ff1b83900384128116156166c0576166c06162b7565b50500190565b6000826166d5576166d5616526565b500790565b60006001600160ff1b0381841382841380821686840486111615616700576167006162b7565b600160ff1b600087128281168783058912161561671f5761671f6162b7565b6000871292508782058712848416161561673b5761673b6162b7565b87850587128184161615616751576167516162b7565b505050929093029392505050565b60008261676e5761676e616526565b600160ff1b821460001984141615616788576167886162b7565b500590565b6000806000606084860312156167a257600080fd5b83516167ad816165d6565b602085015160409095015190969495509392505050565b600080604083850312156167d757600080fd5b82516167e2816165d6565b6020939093015192949293505050565b60008060006060848603121561680757600080fd5b8351616812816165d6565b60208501519093506001600160401b0381111561682e57600080fd5b61645386828701616331565b6000600160ff1b821415616850576168506162b7565b506000039056feddf252ad1be2c89b69c2b068fc378daa952ba7f163c4a11628f55a4df523b3efa2646970667358221220bda1dadce32d8d1f63ce36566c6bab54a1be93d3bfeb88732af2a44ed9952ede64736f6c634300080a0033",
  "linkReferences": {},
  "deployedLinkReferences": {}
}