{
	"data": {
		"bytecode": {
			"linkReferences": {},
			"object": "6101806040523480156200001257600080fd5b5060405162006e5b38038062006e5b833981016040819052620000359162000294565b604080518082018252601081526f14995c5d5a595b48158c8815985d5b1d60821b6020808301919091528251808401845260018152603160f81b918101919091526001600160a01b03861660805291518692859285929091829130606081901b91620000a1906200026d565b6001600160a01b039091168152602001604051809103906000f080158015620000ce573d6000803e3d6000fd5b506001600160a01b031660a052600160005560c052815160209283012060e052805190820120610100527f8b73c3c69bb8fe3d512ecc4cf759cc79239f7b179b0ffacaa9a75d522b39400f610120526200013e91506276a7008411159061019490620005996200019e821b17901c565b6200015d62278d008211156101956200019e60201b620005991760201c565b60006200016b8342620002e1565b61014081905290506200017f8282620002e1565b6101605250620001939150829050620001be565b505050505062000308565b81620001ba57620001ba816200021a60201b620014a01760201c565b5050565b6040516001600160a01b038216907f94b979b6831a51293e2641426f97747feed46f17779fed9cd18d1ecefcfe92ef90600090a2600380546001600160a01b0390921661010002610100600160a81b0319909216919091179055565b62461bcd60e51b6000908152602060045260076024526642414c23000030600a808404818106603090810160081b95839006959095019082900491820690940160101b939093010160c81b604452606490fd5b610b7080620062eb83390190565b6001600160a01b03811681146200029157600080fd5b50565b60008060008060808587031215620002ab57600080fd5b8451620002b8816200027b565b6020860151909450620002cb816200027b565b6040860151606090960151949790965092505050565b600082198211156200030357634e487b7160e01b600052601160045260246000fd5b500190565b60805160a05160c05160e05161010051610120516101405161016051615f3e620003ad60003960008181610908015281816117f6015261186a0152600081816108e501526117c3015260006126ab015260006126ed015260006126cc01526000610e75015260008181610473015281816144720152614aef0152600081816101ad015281816103e40152818161190401528181611a680152611b6a0152615f3e6000f3fe60806040526004361061019a5760003560e01c8063945bcec9116100e1578063e6c460921161008a578063f84d066e11610064578063f84d066e146104fa578063f94d46681461051a578063fa6e671d14610549578063fec90d721461056957600080fd5b8063e6c4609214610497578063ed24911d146104b7578063f6c00927146104cc57600080fd5b8063b05f8e48116100bb578063b05f8e4814610408578063b95cac2814610451578063d2946c2b1461046457600080fd5b8063945bcec91461038b578063aaabadc51461039e578063ad5c4648146103d557600080fd5b806352bbbe2911610143578063851c1bb31161011d578063851c1bb3146103155780638bdb39131461033557806390193b7c1461035557600080fd5b806352bbbe29146102c257806366a9c7d2146102d55780637d3aeb96146102f557600080fd5b80630f5a6efa116101745780630f5a6efa1461024357806316c38b3c146102705780631c0de0511461029057600080fd5b8063058a628f146101dd57806309b2760f146101fd5780630e8e3e841461023057600080fd5b366101d8576101d6336001600160a01b037f00000000000000000000000000000000000000000000000000000000000000001614610206610599565b005b600080fd5b3480156101e957600080fd5b506101d66101f8366004614d85565b6105ab565b34801561020957600080fd5b5061021d610218366004614daf565b6105d1565b6040519081526020015b60405180910390f35b6101d661023e366004614ea1565b610695565b34801561024f57600080fd5b5061026361025e36600461500f565b6107e8565b6040516102279190615099565b34801561027c57600080fd5b506101d661028b3660046150c5565b6108ba565b34801561029c57600080fd5b506102a56108d3565b604080519315158452602084019290925290820152606001610227565b61021d6102d03660046151c8565b61092f565b3480156102e157600080fd5b506101d66102f03660046152a2565b610b28565b34801561030157600080fd5b506101d661031036600461536d565b610cf5565b34801561032157600080fd5b5061021d61033036600461539d565b610e71565b34801561034157600080fd5b506101d6610350366004615519565b610ed6565b34801561036157600080fd5b5061021d610370366004614d85565b6001600160a01b031660009081526002602052604090205490565b610263610399366004615667565b610ef2565b3480156103aa57600080fd5b5060035461010090046001600160a01b03165b6040516001600160a01b039091168152602001610227565b3480156103e157600080fd5b507f00000000000000000000000000000000000000000000000000000000000000006103bd565b34801561041457600080fd5b50610428610423366004615771565b61104d565b604080519485526020850193909352918301526001600160a01b03166060820152608001610227565b6101d661045f366004615519565b611128565b34801561047057600080fd5b507f00000000000000000000000000000000000000000000000000000000000000006103bd565b3480156104a357600080fd5b506101d66104b23660046157a1565b611141565b3480156104c357600080fd5b5061021d61128e565b3480156104d857600080fd5b506104ec6104e7366004615871565b611298565b6040516102279291906158b4565b34801561050657600080fd5b506102636105153660046158d1565b6112c3565b34801561052657600080fd5b5061053a610535366004615871565b6113a7565b6040516102279392919061598f565b34801561055557600080fd5b506101d66105643660046159c5565b6113db565b34801561057557600080fd5b50610589610584366004615a10565b61146b565b6040519015158152602001610227565b816105a7576105a7816114a0565b5050565b6105b36114f3565b6105bb61150c565b6105c48161153a565b6105ce6001600055565b50565b60006105db6114f3565b6105e36115a3565b60006105f233846006546115b8565b6000818152600560205260409020549091506106149060ff16156101f4610599565b6000818152600560205260408120805460ff191660019081179091556006805491929091610643908490615a54565b9091555050604051339082907f3c13bc30b8e878c53fd2a36b679409c073afd75950be43d8858768e956fbc20e9061067c908790615a6c565b60405180910390a390506106906001600055565b919050565b61069d6114f3565b6000806000805b84518110156107d15760008060008060006106d88a87815181106106ca576106ca615a7a565b602002602001015189611609565b9c5093985091965094509250905060018560038111156106fa576106fa61588a565b14156107115761070c8483838661169f565b6107b9565b866107235761071e6115a3565b600196505b60008560038111156107375761073761588a565b141561076857610749848383866116c2565b6001600160a01b03841661070c57610761838a615a54565b98506107b9565b61077f6001600160a01b0385161515610207610599565b8360028660038111156107945761079461588a565b14156107ab576107a6818484876116e2565b6107b7565b6107b7818484876116fb565b505b505050505080806107c990615a90565b9150506106a4565b506107db83611768565b5050506105ce6001600055565b606081516001600160401b0381111561080357610803614dcc565b60405190808252806020026020018201604052801561082c578160200160208202803683370190505b50905060005b82518110156108b3576108848484838151811061085157610851615a7a565b60200260200101516001600160a01b039182166000908152600b6020908152604080832093909416825291909152205490565b82828151811061089657610896615a7a565b6020908102919091010152806108ab81615a90565b915050610832565b5092915050565b6108c26114f3565b6108ca61150c565b6105c4816117b8565b60008060006108e0611866565b1592507f000000000000000000000000000000000000000000000000000000000000000091507f00000000000000000000000000000000000000000000000000000000000000005b9050909192565b60006109396114f3565b6109416115a3565b835161094c8161189c565b61095b834211156101fc610599565b61096e60008760800151116101fe610599565b600061097d87604001516118eb565b9050600061098e88606001516118eb565b90506109b1816001600160a01b0316836001600160a01b031614156101fd610599565b60408051610120810182526000808252602080830182905292820181905260608083018290526080830182815260a0840183905260c0840183905260e08401929092526101008301528a5190529089015181906001811115610a1557610a1561588a565b90816001811115610a2857610a2861588a565b9052506001600160a01b03808416602083015282811660408084019190915260808b0151606084015260a08b01516101008401528951821660c08401528901511660e0820152600080610a7a83611928565b91985092509050610ab760008c602001516001811115610a9c57610a9c61588a565b14610aaa5789831115610aaf565b898210155b6101fb610599565b610acf8b60400151838c600001518d60200151611a32565b610ae78b60600151828c604001518d60600151611b27565b610b10610aff8c604001516001600160a01b03161590565b610b0a576000611768565b82611768565b505050505050610b206001600055565b949350505050565b610b306114f3565b610b386115a3565b82610b4281611c0a565b610b4e83518351611c3c565b60005b8351811015610c00576000848281518110610b6e57610b6e615a7a565b60200260200101519050610b9a60006001600160a01b0316826001600160a01b03161415610135610599565b838281518110610bac57610bac615a7a565b6020908102919091018101516000888152600a835260408082206001600160a01b0395861683529093529190912080546001600160a01b03191692909116919091179055610bf981615a90565b9050610b51565b506000610c0c85611c49565b90506002816002811115610c2257610c2261588a565b1415610c7c57610c38845160021461020c610599565b610c778585600081518110610c4f57610c4f615a7a565b602002602001015186600181518110610c6a57610c6a615a7a565b6020026020010151611c63565b610caa565b6001816002811115610c9057610c9061588a565b1415610ca057610c778585611d0f565b610caa8585611d75565b847ff5847d3f2197b16cdcd2098ec95d0905cd1abdaf415f07bb7cef2bba8ac5dec48585604051610cdc929190615aab565b60405180910390a25050610cf06001600055565b505050565b610cfd6114f3565b610d056115a3565b81610d0f81611c0a565b6000610d1a84611c49565b90506002816002811115610d3057610d3061588a565b1415610d8a57610d46835160021461020c610599565b610d858484600081518110610d5d57610d5d615a7a565b602002602001015185600181518110610d7857610d78615a7a565b6020026020010151611dd8565b610db8565b6001816002811115610d9e57610d9e61588a565b1415610dae57610d858484611e51565b610db88484611f12565b60005b8351811015610e2c57600a60008681526020019081526020016000206000858381518110610deb57610deb615a7a565b6020908102919091018101516001600160a01b0316825281019190915260400160002080546001600160a01b0319169055610e2581615a90565b9050610dbb565b50837f7dcdc6d02ef40c7c1a7046a011b058bd7f988fa14e20a66344f9d4e60657d61084604051610e5d9190615b0b565b60405180910390a250506105a76001600055565b60007f000000000000000000000000000000000000000000000000000000000000000082604051602001610eb99291909182526001600160e01b031916602082015260240190565b604051602081830303815290604052805190602001209050919050565b610eec6001858585610ee786611f88565b611fb9565b50505050565b6060610efc6114f3565b610f046115a3565b8351610f0f8161189c565b610f1e834211156101fc610599565b610f2a86518551611c3c565b610f368787878b61216b565b91506000805b8751811015611028576000888281518110610f5957610f59615a7a565b602002602001015190506000858381518110610f7757610f77615a7a565b60200260200101519050610fa9888481518110610f9657610f96615a7a565b60200260200101518213156101fb610599565b6000811315610fe957885160208a01518291610fc89185918491611a32565b6001600160a01b038316610fe357610fe08186615a54565b94505b50611015565b6000811215611015576000610ffd82615b1e565b905061101383828c604001518d60600151611b27565b505b50508061102190615a90565b9050610f3c565b5061103281611768565b505061103e6001600055565b9695505050505050565b905090565b6000806000808561105d81612492565b60008061106989611c49565b9050600281600281111561107f5761107f61588a565b14156110965761108f89896124b0565b91506110c7565b60018160028111156110aa576110aa61588a565b14156110ba5761108f898961252a565b6110c489896125ac565b91505b6001600160701b03821696506110e68260701c6001600160701b031690565b95506110f28260e01c90565b6000998a52600a60209081526040808c206001600160a01b039b8c168d5290915290992054969995989796909616955050505050565b6111306115a3565b610eec6000858585610ee786611f88565b6111496114f3565b6111516115a3565b6040805160808101825260008082526020820181905291810182905260608101829052905b82518110156112825782818151811061119157611191615a7a565b602002602001015191506000826020015190506111ad81612492565b60408301516111c76111bf83836125c4565b610209610599565b6000828152600a602090815260408083206001600160a01b0385811685529252909120546111fa911633146101f6610599565b835160608501516000806112108487878661262c565b91509150846001600160a01b0316336001600160a01b0316877f6edcaf6241105b4c94c2efdbf3a6b12458eb3d07be3a0e81d24b13c44045fe7a8585604051611263929190918252602082015260400190565b60405180910390a45050505050508061127b90615a90565b9050611176565b50506105ce6001600055565b60006110486126a7565b600080826112a581612492565b6112af8460601c90565b6112b885611c49565b925092505b50915091565b606033301461137d576000306001600160a01b03166000366040516112e9929190615b3b565b6000604051808303816000865af19150503d8060008114611326576040519150601f19603f3d011682016040523d82523d6000602084013e61132b565b606091505b50509050806000811461133a57fe5b60046000803e6000516001600160e01b031916637d30e60960e11b8114611365573d6000803e3d6000fd5b50602060005260043d0380600460203e602081016000f35b600061138b8585858961216b565b9050602081510263fa61cc126020830352600482036024820181fd5b6060806000836113b681612492565b60606113c18661274d565b90955090506113cf816127ac565b95979096509350505050565b6113e36114f3565b6113eb6115a3565b826113f58161189c565b6001600160a01b03848116600081815260046020908152604080832094881680845294825291829020805460ff191687151590811790915591519182529192917f46961fdb4502b646d5095fba7600486a8ac05041d55cdf0f16ed677180b5cad8910160405180910390a350610cf06001600055565b6001600160a01b03808316600090815260046020908152604080832093851683529290529081205460ff165b90505b92915050565b62461bcd60e51b6000908152602060045260076024526642414c23000030600a808404818106603090810160081b95839006959095019082900491820690940160101b939093010160c81b604452606490fd5b61150560026000541415610190610599565b6002600055565b60006115236000356001600160e01b031916610e71565b90506105ce6115328233612873565b610191610599565b6040516001600160a01b038216907f94b979b6831a51293e2641426f97747feed46f17779fed9cd18d1ecefcfe92ef90600090a2600380546001600160a01b039092166101000274ffffffffffffffffffffffffffffffffffffffff0019909216919091179055565b6115b66115ae611866565b610192610599565b565b600069ffffffffffffffffffff821660508460028111156115db576115db61588a565b901b1760c085901b77ffffffffffffffffffffffffffffffffffffffffffffffff19161790505b9392505050565b600080600080600080600088606001519050336001600160a01b0316816001600160a01b03161461167957876116465761164161150c565b600197505b6001600160a01b03811660009081526004602090815260408083203384529091529020546116799060ff166101f7610599565b885160208a015160408b01516080909b0151919b909a9992985090965090945092505050565b6116b4836116ac866118eb565b836000612903565b50610eec8482846000611b27565b6116d5826116cf866118eb565b83612983565b610eec8482856000611a32565b6116ef8385836000612903565b50610eec828583612983565b8015610eec576117166001600160a01b0385168484846129c7565b604080516001600160a01b0384811682526020820184905280861692908716917f540a1a3f28340caec336c81d8d7b3df139ee5cdc1839a4f283d7ebb7eaae2d5c91015b60405180910390a350505050565b61177781341015610204610599565b60006117838234615b4b565b905080156105a757604051339082156108fc029083906000818181858888f19350505050158015610cf0573d6000803e3d6000fd5b80156117f1576117ec7f00000000000000000000000000000000000000000000000000000000000000004210610193610599565b61181f565b61181f7f000000000000000000000000000000000000000000000000000000000000000042106101a9610599565b6003805460ff19168215159081179091556040519081527f9e3a5e37224532dea67b89face185703738a228a6e8a23dee546960180d3be649060200160405180910390a150565b60007f000000000000000000000000000000000000000000000000000000000000000042118061104857505060035460ff161590565b336001600160a01b038216146105ce576118b461150c565b6001600160a01b038116600090815260046020908152604080832033845290915290205460ff166105ce576105ce816101f7612a32565b60006001600160a01b03821615611902578161149a565b7f000000000000000000000000000000000000000000000000000000000000000061149a565b60008060008061193c856080015160601c90565b9050600061194d8660800151611c49565b905060028160028111156119635761196361588a565b141561197a576119738683612a70565b94506119ab565b600181600281111561198e5761198e61588a565b141561199e576119738683612b20565b6119a88683612bb3565b94505b6119be8660000151876060015187612e0f565b809450819550505085604001516001600160a01b031686602001516001600160a01b031687608001517f2170c741c41531aec20e7c107c24eecfdd15e69c9bb0a8dd37b1840b9e0b207b8787604051611a21929190918252602082015260400190565b60405180910390a450509193909250565b82611a3c57610eec565b6001600160a01b038416611adf57611a578115610202610599565b611a6683471015610204610599565b7f00000000000000000000000000000000000000000000000000000000000000006001600160a01b031663d0e30db0846040518263ffffffff1660e01b81526004016000604051808303818588803b158015611ac157600080fd5b505af1158015611ad5573d6000803e3d6000fd5b5050505050610eec565b838115611b05576000611af58483876001612903565b9050611b018186615b4b565b9450505b8315611b2057611b206001600160a01b0382168430876129c7565b5050505050565b82611b3157610eec565b6001600160a01b038416611bdf57611b4c8115610202610599565b604051632e1a7d4d60e01b8152600481018490526001600160a01b037f00000000000000000000000000000000000000000000000000000000000000001690632e1a7d4d90602401600060405180830381600087803b158015611bae57600080fd5b505af1158015611bc2573d6000803e3d6000fd5b50611bda925050506001600160a01b03831684612e43565b610eec565b838115611bf657611bf1838286612983565b611b20565b611b206001600160a01b0382168486612eb4565b611c1381612492565b6105ce611c208260601c90565b6001600160a01b0316336001600160a01b0316146101f5610599565b6105a78183146067610599565b600061ffff605083901c1661149a600382106101f4610599565b611c84816001600160a01b0316836001600160a01b0316141561020a610599565b611ca3816001600160a01b0316836001600160a01b0316106066610599565b60008381526009602052604090208054611ce0906001600160a01b0316158015611cd8575060018201546001600160a01b0316155b61020b610599565b80546001600160a01b039384166001600160a01b03199182161782556001909101805492909316911617905550565b6000828152600860205260408120905b8251811015610eec576000611d56848381518110611d3f57611d3f615a7a565b602002602001015184612ee490919063ffffffff16565b9050611d648161020a610599565b50611d6e81615a90565b9050611d1f565b6000828152600160205260408120905b8251811015610eec576000611db9848381518110611da557611da5615a7a565b602090810291909101015184906000612f56565b9050611dc78161020a610599565b50611dd181615a90565b9050611d85565b6000806000611de8868686613035565b925092509250611e1d611e02846001600160e01b03161590565b8015611e1557506001600160e01b038316155b61020d610599565b600095865260096020526040862080546001600160a01b031990811682556001909101805490911690559490945550505050565b6000828152600860205260408120905b8251811015610eec576000838281518110611e7e57611e7e615a7a565b60209081029190910181015160008781526007835260408082206001600160a01b03841683529093529190912054909150611ec2906001600160e01b031615611e15565b60008581526007602090815260408083206001600160a01b03851684529091528120819055611ef18483613103565b9050611eff81610209610599565b505080611f0b90615a90565b9050611e61565b6000828152600160205260408120905b8251811015610eec576000838281518110611f3f57611f3f615a7a565b602002602001015190506000611f55848361324d565b9050611f6a6001600160e01b03821615611e15565b611f74848361325c565b50505080611f8190615a90565b9050611f22565b611fb560405180608001604052806060815260200160608152602001606081526020016000151581525090565b5090565b611fc16114f3565b83611fcb81612492565b83611fd58161189c565b611fe9836000015151846020015151611c3c565b6000611ff88460000151613355565b9050600061200688836133f9565b9050600080600061201b8c8c8c8c8c8961349e565b925092509250600061202c8c611c49565b905060028160028111156120425761204261588a565b14156120c2576120bd8c8760008151811061205f5761205f615a7a565b60200260200101518660008151811061207a5761207a615a7a565b60200260200101518960018151811061209557612095615a7a565b6020026020010151886001815181106120b0576120b0615a7a565b6020026020010151613670565b6120f1565b60018160028111156120d6576120d661588a565b14156120e7576120bd8c87866136af565b6120f18c85613739565b6000808e60018111156121065761210661588a565b1490508b6001600160a01b03168d7fe5ce249087ce04f05a957192435400fd97868dba0e6a4b4c049abf8af80dae78896121408886613790565b8760405161215093929190615b62565b60405180910390a3505050505050505050611b206001600055565b606083516001600160401b0381111561218657612186614dcc565b6040519080825280602002602001820160405280156121af578160200160208202803683370190505b5090506121e76040518060a0016040528060008019168152602001600081526020016000815260200160008152602001606081525090565b604080516101208101825260008082526020820181905291810182905260608082018390526080820183905260a0820183905260c0820183905260e082018390526101008201529080805b89518110156124855789818151811061224d5761224d615a7a565b60200260200101519450600089518660200151108015612271575089518660400151105b905061227e816064610599565b60006122a68b88602001518151811061229957612299615a7a565b60200260200101516118eb565b905060006122c38c89604001518151811061229957612299615a7a565b90506122e6816001600160a01b0316836001600160a01b031614156101fd610599565b6060880151612336576122fe600085116101fe610599565b600061230b8b848461385a565b6001600160a01b0316876001600160a01b031614905061232d816101ff610599565b50606088018590525b87516080880152868a60018111156123505761235061588a565b908160018111156123635761236361588a565b9052506001600160a01b0380831660208901528181166040808a01919091526060808b0151908a015260808a01516101008a01528c51821660c08a01528c01511660e08801526000806123b589611928565b919850925090506123c78c8585613882565b97506123d2826138a2565b8b8b60200151815181106123e8576123e8615a7a565b60200260200101516123fa9190615b9b565b8b8b602001518151811061241057612410615a7a565b602002602001018181525050612425816138a2565b8b8b604001518151811061243b5761243b615a7a565b602002602001015161244d9190615bdc565b8b8b604001518151811061246357612463615a7a565b60200260200101818152505050505050508061247e90615a90565b9050612232565b5050505050949350505050565b6000818152600560205260409020546105ce9060ff166101f4610599565b60008060008060006124c1876138b6565b945094509450945050836001600160a01b0316866001600160a01b031614156124f0578294505050505061149a565b816001600160a01b0316866001600160a01b0316141561251557935061149a92505050565b6125206102096114a0565b5050505092915050565b60008281526007602090815260408083206001600160a01b0385168452909152812054816001600160e01b038216151580612589575060008581526008602090815260408083206001600160a01b038816845260010190915290205415155b9050806125a45761259985612492565b6125a46102096114a0565b509392505050565b6000828152600160205260408120610b20818461324d565b6000806125d084611c49565b905060028160028111156125e6576125e661588a565b14156125fe576125f6848461392c565b91505061149a565b60018160028111156126125761261261588a565b1415612622576125f6848461397d565b6125f684846139ab565b600080600061263a86611c49565b905060008760028111156126505761265061588a565b141561266c57612662868287876139d9565b925092505061269e565b60018760028111156126805761268061588a565b14156126925761266286828787613a65565b61266286828787613af4565b94509492505050565b60007f00000000000000000000000000000000000000000000000000000000000000007f00000000000000000000000000000000000000000000000000000000000000007f000000000000000000000000000000000000000000000000000000000000000046604080516020810195909552840192909252606083015260808201523060a082015260c00160405160208183030381529060405280519060200120905090565b606080600061275b84611c49565b905060028160028111156127715761277161588a565b1415612780576112b884613b63565b60018160028111156127945761279461588a565b14156127a3576112b884613caf565b6112b884613de3565b6060600082516001600160401b038111156127c9576127c9614dcc565b6040519080825280602002602001820160405280156127f2578160200160208202803683370190505b5091506000905060005b82518110156112bd57600084828151811061281957612819615a7a565b6020026020010151905061282c81613f05565b84838151811061283e5761283e615a7a565b60200260200101818152505061285d836128588360e01c90565b613f2d565b925050808061286b90615a90565b9150506127fc565b6003546040516326f8aa2160e21b8152600481018490526001600160a01b03838116602483015230604483015260009261010090041690639be2a8849060640160206040518083038186803b1580156128cb57600080fd5b505afa1580156128df573d6000803e3d6000fd5b505050506040513d601f19601f820116820180604052508101906114979190615c1b565b6001600160a01b038085166000908152600b60209081526040808320938716835292905290812054612942838061293a5750848210155b610201610599565b61294c8185613f44565b9150600061295a8383615b4b565b905061297987878361296b876138a2565b61297490615b1e565b613f53565b5050949350505050565b6001600160a01b038381166000908152600b60209081526040808320938616835292905290812054906129b68383615a54565b9050611b20858583612974876138a2565b6040516001600160a01b0380851660248301528316604482015260648101829052610eec9085906323b872dd60e01b906084015b60408051601f198184030181529190526020810180516001600160e01b03166001600160e01b031990931692909217909152613fac565b6001600160a01b038216600090815260026020526040812080549082612a5783615a90565b919050559050610cf0612a6a848361404b565b83610599565b600080600080612a8d866080015187602001518860400151613035565b92509250925060008087604001516001600160a01b031688602001516001600160a01b03161015612ac2575083905082612ac8565b50829050835b612ad48888848461419a565b60408b015160208c01519199509294509092506001600160a01b03918216911610612b0857612b038183614299565b612b12565b612b128282614299565b909255509295945050505050565b600080612b358460800151856020015161252a565b90506000612b4b8560800151866040015161252a565b9050612b598585848461419a565b6080880180516000908152600760208181526040808420828e01516001600160a01b03908116865290835281852098909855935183529081528282209a830151909516815298909352919096209590955550929392505050565b60808201516000908152600160209081526040808320828601516001600160a01b0316845260028101909252822054829182916000612bff8860400151846142d890919063ffffffff16565b9050811580612c0c575080155b15612c2957612c1e8860800151612492565b612c296102096114a0565b612c34600183615b4b565b9150612c41600182615b4b565b90506000612c4d845490565b90506000816001600160401b03811115612c6957612c69614dcc565b604051908082528060200260200182016040528015612c92578160200160208202803683370190505b50600060a08c018190529091505b82811015612d29576000818152600187810160205260409091200154612cc581613f05565b838381518110612cd757612cd7615a7a565b602002602001018181525050612cf58c60a001516128588360e01c90565b60a08d015281861415612d0a57809850612d16565b84821415612d16578097505b5080612d2181615a90565b915050612ca0565b5060405162f64aa560e11b81526001600160a01b038a16906301ec954a90612d5b908d90859089908990600401615d4d565b602060405180830381600087803b158015612d7557600080fd5b505af1158015612d89573d6000803e3d6000fd5b505050506040513d601f19601f82011682018060405250810190612dad9190615d86565b9750600080612dc58c600001518d606001518c612e0f565b9092509050612dd489836142f7565b9850612de088826142f7565b60009687526001978801602052604080882089019a909a55948652505050949091209091015550909392505050565b60008080856001811115612e2557612e2561588a565b1415612e35575082905081612e3b565b50819050825b935093915050565b612e52814710156101a3610599565b6000826001600160a01b03168260405160006040518083038185875af1925050503d8060008114612e9f576040519150601f19603f3d011682016040523d82523d6000602084013e612ea4565b606091505b50509050610cf0816101a4610599565b6040516001600160a01b038316602482015260448101829052610cf090849063a9059cbb60e01b906064016129fb565b6001600160a01b0381166000908152600183016020526040812054612f4e57508154600180820184556000848152602080822090930180546001600160a01b0319166001600160a01b0386169081179091558554908252828601909352604090209190915561149a565b50600061149a565b6001600160a01b0382166000908152600284016020526040812054806130025784546040805180820182526001600160a01b038781168252602080830188815260008681526001808d0190935294909420925183546001600160a01b0319169216919091178255915190820155612fce908290615a54565b8655612fdb816001615a54565b6001600160a01b038616600090815260028801602052604090205550600191506116029050565b828560010160006001846130169190615b4b565b8152602001908152602001600020600101819055506000915050611602565b6000806000806000613047878761434a565b915091506000613057838361437b565b60008a8152600960209081526040808320848452600201909152812080546001820154919750929350906001600160e01b0383161515806130a057506001600160e01b03821615155b806130c157506130b08c8761392c565b80156130c157506130c18c8661392c565b9050806130dc576130d18c612492565b6130dc6102096114a0565b6130e683836143c5565b98506130f283836143ee565b975050505050505093509350939050565b6001600160a01b03811660009081526001830160205260408120548015613243576000613131600183615b4b565b855490915060009061314590600190615b4b565b90508082146131e557600086600001828154811061316557613165615a7a565b60009182526020909120015487546001600160a01b039091169150819088908590811061319457613194615a7a565b600091825260209091200180546001600160a01b0319166001600160a01b03929092169190911790556131c8836001615a54565b6001600160a01b0390911660009081526001880160205260409020555b85548690806131f6576131f6615d9f565b60008281526020808220830160001990810180546001600160a01b03191690559092019092556001600160a01b038716825260018881019091526040822091909155935061149a92505050565b600091505061149a565b60006114978383610209614419565b6001600160a01b0381166000908152600283016020526040812054801561324357600061328a600183615b4b565b905060006001866000015461329f9190615b4b565b905080821461330b576000818152600180880160205260408083208584529220825481546001600160a01b0319166001600160a01b0390911617815582820154908201556132ee908490615a54565b90546001600160a01b031660009081526002880160205260409020555b600081815260018088016020908152604080842080546001600160a01b031916815583018490559389556001600160a01b038816835260028901905291812055925061149a915050565b6060600082516001600160401b0381111561337257613372614dcc565b60405190808252806020026020018201604052801561339b578160200160208202803683370190505b50905060005b83518110156108b3576133bf84828151811061229957612299615a7a565b8282815181106133d1576133d1615a7a565b6001600160a01b03909216602092830291909101909101526133f281615a90565b90506133a1565b60606000806134078561274d565b9150915061341782518551611c3c565b613427600083511161020f610599565b60005b82518110156134955761348585828151811061344857613448615a7a565b60200260200101516001600160a01b031684838151811061346b5761346b615a7a565b60200260200101516001600160a01b031614610208610599565b61348e81615a90565b905061342a565b50949350505050565b60608060606000806134af866127ac565b9150915060006134bf8b60601c90565b905060008c60018111156134d5576134d561588a565b1461357857806001600160a01b03166374f3b0098c8c8c87876134f661446e565b8f604001516040518863ffffffff1660e01b815260040161351d9796959493929190615db5565b600060405180830381600087803b15801561353757600080fd5b505af115801561354b573d6000803e3d6000fd5b505050506040513d6000823e601f3d908101601f191682016040526135739190810190615e6e565b613611565b806001600160a01b031663d5c096c48c8c8c878761359461446e565b8f604001516040518863ffffffff1660e01b81526004016135bb9796959493929190615db5565b600060405180830381600087803b1580156135d557600080fd5b505af11580156135e9573d6000803e3d6000fd5b505050506040513d6000823e601f3d908101601f191682016040526136119190810190615e6e565b8095508196505050613627875186518651614501565b60008c600181111561363b5761363b61588a565b146136525761364d8989898888614519565b61365f565b61365f8a8989888861468a565b955050505096509650969350505050565b600061367c858461437b565b600087815260096020908152604080832084845260020190915290209091506136a58584614299565b9055505050505050565b60005b8251811015610eec578181815181106136cd576136cd615a7a565b60200260200101516007600086815260200190815260200160002060008584815181106136fc576136fc615a7a565b60200260200101516001600160a01b03166001600160a01b03168152602001908152602001600020819055508061373290615a90565b90506136b2565b6000828152600160205260408120905b8251811015610eec576137808184838151811061376857613768615a7a565b6020026020010151846143329092919063ffffffff16565b61378981615a90565b9050613749565b606082516001600160401b038111156137ab576137ab614dcc565b6040519080825280602002602001820160405280156137d4578160200160208202803683370190505b50905060005b83518110156108b35782613810578381815181106137fa576137fa615a7a565b602002602001015161380b90615b1e565b61382b565b83818151811061382257613822615a7a565b60200260200101515b82828151811061383d5761383d615a7a565b60209081029190910101528061385281615a90565b9150506137da565b60008084600181111561386f5761386f61588a565b1461387a5781610b20565b509092915050565b6000808460018111156138975761389761588a565b146108b35782610b20565b6000611fb5600160ff1b83106101a5610599565b6000818152600960205260408120805460018201546001600160a01b03918216928492909116908290816138ea868561437b565b600081815260028401602052604090208054600182015491995091925061391182826143c5565b965061391d82826143ee565b94505050505091939590929450565b600082815260096020526040812080546001600160a01b0384811691161480613964575060018101546001600160a01b038481169116145b8015610b20575050506001600160a01b03161515919050565b60008281526008602090815260408083206001600160a01b0385168452600181019092528220541515610b20565b60008281526001602090815260408083206001600160a01b0385168452600281019092528220541515610b20565b60008060028560028111156139f0576139f061588a565b1415613a0657613a01868585614816565b613a36565b6001856002811115613a1a57613a1a61588a565b1415613a2b57613a01868585614824565b613a36868585614832565b8215613a5057613a506001600160a01b0385163385612eb4565b613a5983615b1e565b96929550919350505050565b6000806002856002811115613a7c57613a7c61588a565b1415613a9257613a8d868585614840565b613ac2565b6001856002811115613aa657613aa661588a565b1415613ab757613a8d86858561484e565b613ac286858561485c565b8215613add57613add6001600160a01b0385163330866129c7565b829150613ae982615b1e565b905094509492505050565b6000806002856002811115613b0b57613b0b61588a565b1415613b2357613b1c86858561486a565b9050613b56565b6001856002811115613b3757613b3761588a565b1415613b4857613b1c86858561487a565b613b5386858561488a565b90505b6000915094509492505050565b606080600080600080613b75876138b6565b92975090955093509150506001600160a01b0384161580613b9d57506001600160a01b038216155b15613bc557505060408051600080825260208201908152818301909252969095509350505050565b60408051600280825260608201835290916020830190803683370190505095508386600081518110613bf957613bf9615a7a565b60200260200101906001600160a01b031690816001600160a01b0316815250508186600181518110613c2d57613c2d615a7a565b6001600160a01b03929092166020928302919091018201526040805160028082526060820183529092909190830190803683370190505094508285600081518110613c7a57613c7a615a7a565b6020026020010181815250508085600181518110613c9a57613c9a615a7a565b60200260200101818152505050505050915091565b6000818152600860205260409020805460609182916001600160401b03811115613cdb57613cdb614dcc565b604051908082528060200260200182016040528015613d04578160200160208202803683370190505b50925082516001600160401b03811115613d2057613d20614dcc565b604051908082528060200260200182016040528015613d49578160200160208202803683370190505b50915060005b8351811015613ddc576000613d64838361489a565b905080858381518110613d7957613d79615a7a565b6001600160a01b03928316602091820292909201810191909152600088815260078252604080822093851682529290915220548451859084908110613dc057613dc0615a7a565b602090810291909101015250613dd581615a90565b9050613d4f565b5050915091565b6000818152600160205260409020805460609182916001600160401b03811115613e0f57613e0f614dcc565b604051908082528060200260200182016040528015613e38578160200160208202803683370190505b50925082516001600160401b03811115613e5457613e54614dcc565b604051908082528060200260200182016040528015613e7d578160200160208202803683370190505b50915060005b8351811015613ddc5760008181526001808401602052604090912080549101546001600160a01b0390911690858381518110613ec157613ec1615a7a565b60200260200101858481518110613eda57613eda615a7a565b60209081029190910101919091526001600160a01b039091169052613efe81615a90565b9050613e83565b6000613f1a8260701c6001600160701b031690565b61149a906001600160701b038416615a54565b600081831015613f3d5781611497565b5090919050565b6000818310613f3d5781611497565b6001600160a01b038481166000818152600b602090815260408083209488168084529482529182902086905590518481527f18e1ea4139e68413d7d08aa752e71568e36b2c5bf940893314c2c5b01eaa0c42910161175a565b600080836001600160a01b031683604051613fc79190615ec7565b6000604051808303816000865af19150503d8060008114614004576040519150601f19603f3d011682016040523d82523d6000602084013e614009565b606091505b50915091506000821415614021573d6000803e3d6000fd5b610eec8151600014806140435750818060200190518101906140439190615c1b565b6101a2610599565b600036607f1901354281101561406557600091505061149a565b600061406f6148cd565b9050806140815760009250505061149a565b60008161408c6149dd565b80516020918201206040805192830193909352918101919091523360608201526080810186905260a0810184905260c00160405160208183030381529060405280519060200120905060006140e082614a2d565b905060008060006140ef614a5c565b925092509250600060018585858560405160008152602001604052604051614133949392919093845260ff9290921660208401526040830152606082015260800190565b6020604051602081039080840390855afa158015614155573d6000803e3d6000fd5b5050604051601f1901519150506001600160a01b0381161580159061418b57508a6001600160a01b0316816001600160a01b0316145b9b9a5050505050505050505050565b6000806000806141a986613f05565b905060006141b686613f05565b90506141cf6141c58860e01c90565b6128588860e01c90565b60a08a015260405163274b044360e21b81526001600160a01b03891690639d2c110c90614204908c9086908690600401615ee3565b602060405180830381600087803b15801561421e57600080fd5b505af1158015614232573d6000803e3d6000fd5b505050506040513d601f19601f820116820180604052508101906142569190615d86565b925060008061426e8b600001518c6060015187612e0f565b909250905061427d89836142f7565b965061428988826142f7565b9550505050509450945094915050565b6000806142b36142a98560e01c90565b6128588560e01c90565b9050610b206001600160701b0385166001600160701b0385168363ffffffff16614a78565b6001600160a01b03166000908152600291909101602052604090205490565b60008061430d836001600160701b038616615a54565b905060006143248560701c6001600160701b031690565b90504361103e838383614a97565b60009182526001928301602052604090912090910155565b600080826001600160a01b0316846001600160a01b03161061436d578284614370565b83835b915091509250929050565b6040516bffffffffffffffffffffffff19606084811b8216602084015283901b16603482015260009060480160405160208183030381529060405280519060200120905092915050565b60006114976001600160701b0384166001600160701b0384165b6143e98660e01c90565b614a97565b60006114976144068460701c6001600160701b031690565b6143df8460701c6001600160701b031690565b6001600160a01b038216600090815260028401602052604081205461444081151584610599565b6144658561444f600184615b4b565b6000908152600191820160205260409020015490565b95945050505050565b60007f00000000000000000000000000000000000000000000000000000000000000006001600160a01b03166355c676286040518163ffffffff1660e01b815260040160206040518083038186803b1580156144c957600080fd5b505afa1580156144dd573d6000803e3d6000fd5b505050506040513d601f19601f820116820180604052508101906110489190615d86565b610cf0828414801561451257508183145b6067610599565b606083516001600160401b0381111561453457614534614dcc565b60405190808252806020026020018201604052801561455d578160200160208202803683370190505b50905060005b85515181101561468057600084828151811061458157614581615a7a565b602002602001015190506145b7876020015183815181106145a4576145a4615a7a565b60200260200101518210156101f9610599565b6000876000015183815181106145cf576145cf615a7a565b602002602001015190506145e981838b8b60600151611b27565b60008584815181106145fd576145fd615a7a565b60200260200101519050614619614613836118eb565b82614ada565b61464e6146268285615a54565b89868151811061463857614638615a7a565b60200260200101516142f790919063ffffffff16565b85858151811061466057614660615a7a565b6020026020010181815250505050508061467990615a90565b9050614563565b5095945050505050565b6060600084516001600160401b038111156146a7576146a7614dcc565b6040519080825280602002602001820160405280156146d0578160200160208202803683370190505b50915060005b86515181101561480c5760008582815181106146f4576146f4615a7a565b6020026020010151905061472a8860200151838151811061471757614717615a7a565b60200260200101518211156101fa610599565b60008860000151838151811061474257614742615a7a565b6020026020010151905061475c81838c8c60600151611a32565b6001600160a01b038116614777576147748285615a54565b93505b600086848151811061478b5761478b615a7a565b602002602001015190506147a1614613836118eb565b808310156147cd576147c86147b68483615b4b565b8a868151811061463857614638615a7a565b6147da565b6147da6147b68285615b4b565b8685815181106147ec576147ec615a7a565b6020026020010181815250505050508061480590615a90565b90506146d6565b5061468081611768565b610eec8383614b1484614b67565b610eec8383614b1484614c12565b610eec8383614b1484614c6d565b610eec8383614cbc84614b67565b610eec8383614cbc84614c12565b610eec8383614cbc84614c6d565b6000610b208484614cf485614b67565b6000610b208484614cf485614c12565b6000610b208484614cf485614c6d565b60008260000182815481106148b1576148b1615a7a565b6000918252602090912001546001600160a01b03169392505050565b6000803560e01c8063b95cac28811461491557638bdb3913811461493d576352bbbe2981146149655763945bcec9811461498d5763fa6e671d81146149b55760009250505090565b7f3f7b71252bd19113ff48c19c6e004a9bcfcca320a0d74d58e85877cbd7dcae589250505090565b7f8bbc57f66ea936902f50a71ce12b92c43f3c5340bb40c27c4e90ab84eeae33539250505090565b7fe192dcbc143b1e244ad73b813fd3c097b832ad260a157340b4e5e5beda067abe9250505090565b7f9bfc43a4d98313c6766986ffd7c916c7481566d9f224c6819af0a53388aced3a9250505090565b7fa3f865aa351e51cfeb40f5178d1564bb629fe9030b83caf6361d1baaf5b90b5a9250505090565b60606000368080601f016020809104026020016040519081016040528093929190818152602001838380828437600092019190915250508251929350505060801015614a2a576080360381525b90565b6000614a376126a7565b60405161190160f01b6020820152602281019190915260428101839052606201610eb9565b36605f1981013590603f1981013590600090601f190135610928565b600083614a8d607085901b60e085901b615a54565b610b209190615a54565b600080614aa48486615a54565b9050614acf858210158015614ac757506e01000000000000000000000000000082105b61020e610599565b614465858585614a78565b80156105a7576105a76001600160a01b0383167f000000000000000000000000000000000000000000000000000000000000000083612eb4565b600080614b2a836001600160701b038616615a54565b9050600083614b428660701c6001600160701b031690565b614b4c9190615a54565b90506000614b5a8660e01c90565b905061103e838383614a97565b6000806000806000614b78896138b6565b9450509350935093506000836001600160a01b0316896001600160a01b03161415614bc3576000614bad84898b63ffffffff16565b9050614bb98185614d0c565b9093509050614be5565b6000614bd383898b63ffffffff16565b9050614bdf8184614d0c565b90925090505b614bef8383614299565b8555614bfb8383614d3e565b600190950194909455509192505050949350505050565b600080614c1f868661252a565b90506000614c3182858763ffffffff16565b60008881526007602090815260408083206001600160a01b038b16845290915290208190559050614c628183614d0c565b979650505050505050565b600084815260016020526040812081614c86828761324d565b90506000614c9882868863ffffffff16565b9050614ca5838883612f56565b50614cb08183614d0c565b98975050505050505050565b600080614cd2836001600160701b038616615a54565b9050600083614cea8660701c6001600160701b031690565b614b4c9190615b4b565b60006001600160701b03831643614465828583614a97565b6000614d218260701c6001600160701b031690565b614d348460701c6001600160701b031690565b6114979190615bdc565b6000611497614d568460701c6001600160701b031690565b614d698460701c6001600160701b031690565b6000614a78565b6001600160a01b03811681146105ce57600080fd5b600060208284031215614d9757600080fd5b813561160281614d70565b600381106105ce57600080fd5b600060208284031215614dc157600080fd5b813561160281614da2565b634e487b7160e01b600052604160045260246000fd5b60405160a081016001600160401b0381118282101715614e0457614e04614dcc565b60405290565b604051608081016001600160401b0381118282101715614e0457614e04614dcc565b60405160c081016001600160401b0381118282101715614e0457614e04614dcc565b604051601f8201601f191681016001600160401b0381118282101715614e7657614e76614dcc565b604052919050565b60006001600160401b03821115614e9757614e97614dcc565b5060051b60200190565b60006020808385031215614eb457600080fd5b82356001600160401b03811115614eca57600080fd5b8301601f81018513614edb57600080fd5b8035614eee614ee982614e7e565b614e4e565b81815260a09182028301840191848201919088841115614f0d57600080fd5b938501935b83851015614f945780858a031215614f2a5760008081fd5b614f32614de2565b853560048110614f425760008081fd5b815285870135614f5181614d70565b8188015260408681013590820152606080870135614f6e81614d70565b90820152608086810135614f8181614d70565b9082015283529384019391850191614f12565b50979650505050505050565b600082601f830112614fb157600080fd5b81356020614fc1614ee983614e7e565b82815260059290921b84018101918181019086841115614fe057600080fd5b8286015b84811015615004578035614ff781614d70565b8352918301918301614fe4565b509695505050505050565b6000806040838503121561502257600080fd5b823561502d81614d70565b915060208301356001600160401b0381111561504857600080fd5b61505485828601614fa0565b9150509250929050565b600081518084526020808501945080840160005b8381101561508e57815187529582019590820190600101615072565b509495945050505050565b602081526000611497602083018461505e565b80151581146105ce57600080fd5b8035610690816150ac565b6000602082840312156150d757600080fd5b8135611602816150ac565b80356002811061069057600080fd5b600082601f83011261510257600080fd5b81356001600160401b0381111561511b5761511b614dcc565b61512e601f8201601f1916602001614e4e565b81815284602083860101111561514357600080fd5b816020850160208301376000918101602001919091529392505050565b60006080828403121561517257600080fd5b61517a614e0a565b9050813561518781614d70565b81526020820135615197816150ac565b602082015260408201356151aa81614d70565b604082015260608201356151bd816150ac565b606082015292915050565b60008060008060e085870312156151de57600080fd5b84356001600160401b03808211156151f557600080fd5b9086019060c0828903121561520957600080fd5b615211614e2c565b82358152615221602084016150e2565b6020820152604083013561523481614d70565b6040820152606083013561524781614d70565b60608201526080838101359082015260a08301358281111561526857600080fd5b6152748a8286016150f1565b60a08301525080965050505061528d8660208701615160565b939693955050505060a08201359160c0013590565b6000806000606084860312156152b757600080fd5b833592506020808501356001600160401b03808211156152d657600080fd5b6152e288838901614fa0565b945060408701359150808211156152f857600080fd5b508501601f8101871361530a57600080fd5b8035615318614ee982614e7e565b81815260059190911b8201830190838101908983111561533757600080fd5b928401925b8284101561535e57833561534f81614d70565b8252928401929084019061533c565b80955050505050509250925092565b6000806040838503121561538057600080fd5b8235915060208301356001600160401b0381111561504857600080fd5b6000602082840312156153af57600080fd5b81356001600160e01b03198116811461160257600080fd5b600082601f8301126153d857600080fd5b813560206153e8614ee983614e7e565b82815260059290921b8401810191818101908684111561540757600080fd5b8286015b8481101561500457803561541e81614d70565b835291830191830161540b565b60006080828403121561543d57600080fd5b615445614e0a565b905081356001600160401b038082111561545e57600080fd5b61546a858386016153c7565b835260209150818401358181111561548157600080fd5b8401601f8101861361549257600080fd5b80356154a0614ee982614e7e565b81815260059190911b820184019084810190888311156154bf57600080fd5b928501925b828410156154dd578335825292850192908501906154c4565b80868801525050505060408401359150808211156154fa57600080fd5b50615507848285016150f1565b6040830152506151bd606083016150ba565b6000806000806080858703121561552f57600080fd5b84359350602085013561554181614d70565b9250604085013561555181614d70565b915060608501356001600160401b0381111561556c57600080fd5b6155788782880161542b565b91505092959194509250565b600082601f83011261559557600080fd5b813560206155a5614ee983614e7e565b82815260059290921b840181019181810190868411156155c457600080fd5b8286015b848110156150045780356001600160401b03808211156155e85760008081fd5b9088019060a0828b03601f19018113156156025760008081fd5b61560a614de2565b878401358152604080850135898301526060808601358284015260809150818601358184015250828501359250838311156156455760008081fd5b6156538d8a858801016150f1565b9082015286525050509183019183016155c8565b600080600080600080610120878903121561568157600080fd5b61568a876150e2565b95506020808801356001600160401b03808211156156a757600080fd5b6156b38b838c01615584565b975060408a01359150808211156156c957600080fd5b6156d58b838c016153c7565b96506156e48b60608c01615160565b955060e08a01359150808211156156fa57600080fd5b508801601f81018a1361570c57600080fd5b803561571a614ee982614e7e565b81815260059190911b8201830190838101908c83111561573957600080fd5b928401925b828410156157575783358252928401929084019061573e565b809650505050505061010087013590509295509295509295565b6000806040838503121561578457600080fd5b82359150602083013561579681614d70565b809150509250929050565b600060208083850312156157b457600080fd5b82356001600160401b038111156157ca57600080fd5b8301601f810185136157db57600080fd5b80356157e9614ee982614e7e565b81815260079190911b8201830190838101908783111561580857600080fd5b928401925b82841015614c6257608084890312156158265760008081fd5b61582e614e0a565b843561583981614da2565b8152848601358682015260408086013561585281614d70565b908201526060858101359082015282526080909301929084019061580d565b60006020828403121561588357600080fd5b5035919050565b634e487b7160e01b600052602160045260246000fd5b600381106158b0576158b061588a565b9052565b6001600160a01b03831681526040810161160260208301846158a0565b60008060008060e085870312156158e757600080fd5b6158f0856150e2565b935060208501356001600160401b038082111561590c57600080fd5b61591888838901615584565b9450604087013591508082111561592e57600080fd5b5061593b878288016153c7565b92505061594b8660608701615160565b905092959194509250565b600081518084526020808501945080840160005b8381101561508e5781516001600160a01b03168752958201959082019060010161596a565b6060815260006159a26060830186615956565b82810360208401526159b4818661505e565b915050826040830152949350505050565b6000806000606084860312156159da57600080fd5b83356159e581614d70565b925060208401356159f581614d70565b91506040840135615a05816150ac565b809150509250925092565b60008060408385031215615a2357600080fd5b8235615a2e81614d70565b9150602083013561579681614d70565b634e487b7160e01b600052601160045260246000fd5b60008219821115615a6757615a67615a3e565b500190565b6020810161149a82846158a0565b634e487b7160e01b600052603260045260246000fd5b6000600019821415615aa457615aa4615a3e565b5060010190565b604081526000615abe6040830185615956565b82810360208481019190915284518083528582019282019060005b81811015615afe5784516001600160a01b031683529383019391830191600101615ad9565b5090979650505050505050565b6020815260006114976020830184615956565b6000600160ff1b821415615b3457615b34615a3e565b5060000390565b8183823760009101908152919050565b600082821015615b5d57615b5d615a3e565b500390565b606081526000615b756060830186615956565b8281036020840152615b87818661505e565b9050828103604084015261103e818561505e565b600080821280156001600160ff1b0384900385131615615bbd57615bbd615a3e565b600160ff1b8390038412811615615bd657615bd6615a3e565b50500190565b60008083128015600160ff1b850184121615615bfa57615bfa615a3e565b6001600160ff1b0384018313811615615c1557615c15615a3e565b50500390565b600060208284031215615c2d57600080fd5b8151611602816150ac565b60005b83811015615c53578181015183820152602001615c3b565b83811115610eec5750506000910152565b60008151808452615c7c816020860160208601615c38565b601f01601f19169290920160200192915050565b6000610120825160028110615ca757615ca761588a565b808552506020830151615cc560208601826001600160a01b03169052565b506040830151615ce060408601826001600160a01b03169052565b50606083015160608501526080830151608085015260a083015160a085015260c0830151615d1960c08601826001600160a01b03169052565b5060e0830151615d3460e08601826001600160a01b03169052565b5061010080840151828287015261103e83870182615c64565b608081526000615d606080830187615c90565b8281036020840152615d72818761505e565b604084019590955250506060015292915050565b600060208284031215615d9857600080fd5b5051919050565b634e487b7160e01b600052603160045260246000fd5b87815260006001600160a01b03808916602084015280881660408401525060e06060830152615de760e083018761505e565b8560808401528460a084015282810360c0840152615e058185615c64565b9a9950505050505050505050565b600082601f830112615e2457600080fd5b81516020615e34614ee983614e7e565b82815260059290921b84018101918181019086841115615e5357600080fd5b8286015b848110156150045780518352918301918301615e57565b60008060408385031215615e8157600080fd5b82516001600160401b0380821115615e9857600080fd5b615ea486838701615e13565b93506020850151915080821115615eba57600080fd5b5061505485828601615e13565b60008251615ed9818460208701615c38565b9190910192915050565b606081526000615ef66060830186615c90565b6020830194909452506040015291905056fea2646970667358221220eb58d331c4d9943a46f12cc7a61500511d16610c1fd28c6592e28f7609203f5664736f6c6343000809003360c060405234801561001057600080fd5b50604051610b70380380610b7083398101604081905261002f9161004c565b3060601b60805260016000556001600160a01b031660a05261007c565b60006020828403121561005e57600080fd5b81516001600160a01b038116811461007557600080fd5b9392505050565b60805160a051610ac86100a86000396000818161014a015261052c015260006102c70152610ac86000f3fe608060405234801561001057600080fd5b50600436106100935760003560e01c8063851c1bb311610066578063851c1bb3146100ea578063aaabadc5146100fd578063d877845c1461011d578063e42abf3514610125578063fbfa77cf1461014557600080fd5b806338e9922e1461009857806355c67628146100ad5780636b6b9f69146100c45780636daefab6146100d7575b600080fd5b6100ab6100a636600461074c565b61016c565b005b6001545b6040519081526020015b60405180910390f35b6100ab6100d236600461074c565b6101c7565b6100ab6100e53660046107c6565b61021a565b6100b16100f836600461084a565b6102c3565b610105610328565b6040516001600160a01b0390911681526020016100bb565b6002546100b1565b61013861013336600461089a565b610337565b6040516100bb919061095f565b6101057f000000000000000000000000000000000000000000000000000000000000000081565b610174610453565b61018b6706f05b59d3b20000821115610258610484565b60018190556040518181527fa9ba3ffe0b6c366b81232caab38605a0699ad5398d6cce76f91ee809e322dafc906020015b60405180910390a150565b6101cf610453565b6101e5662386f26fc10000821115610259610484565b60028190556040518181527f5a0b7386237e7f07fa741efc64e59c9387d2cccafec760efed4d53387f20e19a906020016101bc565b610222610496565b61022a610453565b61023484836104af565b60005b848110156102b1576000868683818110610253576102536109a3565b905060200201602081019061026891906109b9565b9050600085858481811061027e5761027e6109a3565b6020029190910135915061029e90506001600160a01b03831685836104bc565b5050806102aa906109d6565b9050610237565b506102bc6001600055565b5050505050565b60007f00000000000000000000000000000000000000000000000000000000000000008260405160200161030b9291909182526001600160e01b031916602082015260240190565b604051602081830303815290604052805190602001209050919050565b6000610332610528565b905090565b6060815167ffffffffffffffff81111561035357610353610874565b60405190808252806020026020018201604052801561037c578160200160208202803683370190505b50905060005b825181101561044d5782818151811061039d5761039d6109a3565b60209081029190910101516040516370a0823160e01b81523060048201526001600160a01b03909116906370a082319060240160206040518083038186803b1580156103e857600080fd5b505afa1580156103fc573d6000803e3d6000fd5b505050506040513d601f19601f8201168201806040525081019061042091906109ff565b828281518110610432576104326109a3565b6020908102919091010152610446816109d6565b9050610382565b50919050565b600061046a6000356001600160e01b0319166102c3565b905061048161047982336105bb565b610191610484565b50565b816104925761049281610654565b5050565b6104a860026000541415610190610484565b6002600055565b6104928183146067610484565b604080516001600160a01b038416602482015260448082018490528251808303909101815260649091019091526020810180517bffffffffffffffffffffffffffffffffffffffffffffffffffffffff1663a9059cbb60e01b1790526105239084906106a7565b505050565b60007f00000000000000000000000000000000000000000000000000000000000000006001600160a01b031663aaabadc56040518163ffffffff1660e01b815260040160206040518083038186803b15801561058357600080fd5b505afa158015610597573d6000803e3d6000fd5b505050506040513d601f19601f820116820180604052508101906103329190610a18565b60006105c5610528565b6040516326f8aa2160e21b8152600481018590526001600160a01b0384811660248301523060448301529190911690639be2a8849060640160206040518083038186803b15801561061557600080fd5b505afa158015610629573d6000803e3d6000fd5b505050506040513d601f19601f8201168201806040525081019061064d9190610a35565b9392505050565b62461bcd60e51b6000908152602060045260076024526642414c23000030600a808404818106603090810160081b95839006959095019082900491820690940160101b939093010160c81b604452606490fd5b600080836001600160a01b0316836040516106c29190610a57565b6000604051808303816000865af19150503d80600081146106ff576040519150601f19603f3d011682016040523d82523d6000602084013e610704565b606091505b5091509150600082141561071c573d6000803e3d6000fd5b61074681516000148061073e57508180602001905181019061073e9190610a35565b6101a2610484565b50505050565b60006020828403121561075e57600080fd5b5035919050565b60008083601f84011261077757600080fd5b50813567ffffffffffffffff81111561078f57600080fd5b6020830191508360208260051b85010111156107aa57600080fd5b9250929050565b6001600160a01b038116811461048157600080fd5b6000806000806000606086880312156107de57600080fd5b853567ffffffffffffffff808211156107f657600080fd5b61080289838a01610765565b9097509550602088013591508082111561081b57600080fd5b5061082888828901610765565b909450925050604086013561083c816107b1565b809150509295509295909350565b60006020828403121561085c57600080fd5b81356001600160e01b03198116811461064d57600080fd5b634e487b7160e01b600052604160045260246000fd5b8035610895816107b1565b919050565b600060208083850312156108ad57600080fd5b823567ffffffffffffffff808211156108c557600080fd5b818501915085601f8301126108d957600080fd5b8135818111156108eb576108eb610874565b8060051b604051601f19603f8301168101818110858211171561091057610910610874565b60405291825284820192508381018501918883111561092e57600080fd5b938501935b82851015610953576109448561088a565b84529385019392850192610933565b98975050505050505050565b6020808252825182820181905260009190848201906040850190845b818110156109975783518352928401929184019160010161097b565b50909695505050505050565b634e487b7160e01b600052603260045260246000fd5b6000602082840312156109cb57600080fd5b813561064d816107b1565b60006000198214156109f857634e487b7160e01b600052601160045260246000fd5b5060010190565b600060208284031215610a1157600080fd5b5051919050565b600060208284031215610a2a57600080fd5b815161064d816107b1565b600060208284031215610a4757600080fd5b8151801515811461064d57600080fd5b6000825160005b81811015610a785760208186018101518583015201610a5e565b81811115610a87576000828501525b50919091019291505056fea26469706673582212208ed2a392edc448105814ae623b8c5fdf37eb7e46dccd1989efd501a395559e4264736f6c63430008090033",
			"opcodes": "PUSH2 0x180 PUSH1 0x40 MSTORE CALLVALUE DUP1 ISZERO PUSH3 0x12 JUMPI PUSH1 0x0 DUP1 REVERT JUMPDEST POP PUSH1 0x40 MLOAD PUSH3 0x6E5B CODESIZE SUB DUP1 PUSH3 0x6E5B DUP4 CODECOPY DUP2 ADD PUSH1 0x40 DUP2 SWAP1 MSTORE PUSH3 0x35 SWAP2 PUSH3 0x294 JUMP JUMPDEST PUSH1 0x40 DUP1 MLOAD DUP1 DUP3 ADD DUP3 MSTORE PUSH1 0x10 DUP2 MSTORE PUSH16 0x14995C5D5A595B48158C8815985D5B1D PUSH1 0x82 SHL PUSH1 0x20 DUP1 DUP4 ADD SWAP2 SWAP1 SWAP2 MSTORE DUP3 MLOAD DUP1 DUP5 ADD DUP5 MSTORE PUSH1 0x1 DUP2 MSTORE PUSH1 0x31 PUSH1 0xF8 SHL SWAP2 DUP2 ADD SWAP2 SWAP1 SWAP2 MSTORE PUSH1 0x1 PUSH1 0x1 PUSH1 0xA0 SHL SUB DUP7 AND PUSH1 0x80 MSTORE SWAP2 MLOAD DUP7 SWAP3 DUP6 SWAP3 DUP6 SWAP3 SWAP1 SWAP2 DUP3 SWAP2 ADDRESS PUSH1 0x60 DUP2 SWAP1 SHL SWAP2 PUSH3 0xA1 SWAP1 PUSH3 0x26D JUMP JUMPDEST PUSH1 0x1 PUSH1 0x1 PUSH1 0xA0 SHL SUB SWAP1 SWAP2 AND DUP2 MSTORE PUSH1 0x20 ADD PUSH1 0x40 MLOAD DUP1 SWAP2 SUB SWAP1 PUSH1 0x0 CREATE DUP1 ISZERO DUP1 ISZERO PUSH3 0xCE JUMPI RETURNDATASIZE PUSH1 0x0 DUP1 RETURNDATACOPY RETURNDATASIZE PUSH1 0x0 REVERT JUMPDEST POP PUSH1 0x1 PUSH1 0x1 PUSH1 0xA0 SHL SUB AND PUSH1 0xA0 MSTORE PUSH1 0x1 PUSH1 0x0 SSTORE PUSH1 0xC0 MSTORE DUP2 MLOAD PUSH1 0x20 SWAP3 DUP4 ADD KECCAK256 PUSH1 0xE0 MSTORE DUP1 MLOAD SWAP1 DUP3 ADD KECCAK256 PUSH2 0x100 MSTORE PUSH32 0x8B73C3C69BB8FE3D512ECC4CF759CC79239F7B179B0FFACAA9A75D522B39400F PUSH2 0x120 MSTORE PUSH3 0x13E SWAP2 POP PUSH3 0x76A700 DUP5 GT ISZERO SWAP1 PUSH2 0x194 SWAP1 PUSH3 0x599 PUSH3 0x19E DUP3 SHL OR SWAP1 SHR JUMP JUMPDEST PUSH3 0x15D PUSH3 0x278D00 DUP3 GT ISZERO PUSH2 0x195 PUSH3 0x19E PUSH1 0x20 SHL PUSH3 0x599 OR PUSH1 0x20 SHR JUMP JUMPDEST PUSH1 0x0 PUSH3 0x16B DUP4 TIMESTAMP PUSH3 0x2E1 JUMP JUMPDEST PUSH2 0x140 DUP2 SWAP1 MSTORE SWAP1 POP PUSH3 0x17F DUP3 DUP3 PUSH3 0x2E1 JUMP JUMPDEST PUSH2 0x160 MSTORE POP PUSH3 0x193 SWAP2 POP DUP3 SWAP1 POP PUSH3 0x1BE JUMP JUMPDEST POP POP POP POP POP PUSH3 0x308 JUMP JUMPDEST DUP2 PUSH3 0x1BA JUMPI PUSH3 0x1BA DUP2 PUSH3 0x21A PUSH1 0x20 SHL PUSH3 0x14A0 OR PUSH1 0x20 SHR JUMP JUMPDEST POP POP JUMP JUMPDEST PUSH1 0x40 MLOAD PUSH1 0x1 PUSH1 0x1 PUSH1 0xA0 SHL SUB DUP3 AND SWAP1 PUSH32 0x94B979B6831A51293E2641426F97747FEED46F17779FED9CD18D1ECEFCFE92EF SWAP1 PUSH1 0x0 SWAP1 LOG2 PUSH1 0x3 DUP1 SLOAD PUSH1 0x1 PUSH1 0x1 PUSH1 0xA0 SHL SUB SWAP1 SWAP3 AND PUSH2 0x100 MUL PUSH2 0x100 PUSH1 0x1 PUSH1 0xA8 SHL SUB NOT SWAP1 SWAP3 AND SWAP2 SWAP1 SWAP2 OR SWAP1 SSTORE JUMP JUMPDEST PUSH3 0x461BCD PUSH1 0xE5 SHL PUSH1 0x0 SWAP1 DUP2 MSTORE PUSH1 0x20 PUSH1 0x4 MSTORE PUSH1 0x7 PUSH1 0x24 MSTORE PUSH7 0x42414C23000030 PUSH1 0xA DUP1 DUP5 DIV DUP2 DUP2 MOD PUSH1 0x30 SWAP1 DUP2 ADD PUSH1 0x8 SHL SWAP6 DUP4 SWAP1 MOD SWAP6 SWAP1 SWAP6 ADD SWAP1 DUP3 SWAP1 DIV SWAP2 DUP3 MOD SWAP1 SWAP5 ADD PUSH1 0x10 SHL SWAP4 SWAP1 SWAP4 ADD ADD PUSH1 0xC8 SHL PUSH1 0x44 MSTORE PUSH1 0x64 SWAP1 REVERT JUMPDEST PUSH2 0xB70 DUP1 PUSH3 0x62EB DUP4 CODECOPY ADD SWAP1 JUMP JUMPDEST PUSH1 0x1 PUSH1 0x1 PUSH1 0xA0 SHL SUB DUP2 AND DUP2 EQ PUSH3 0x291 JUMPI PUSH1 0x0 DUP1 REVERT JUMPDEST POP JUMP JUMPDEST PUSH1 0x0 DUP1 PUSH1 0x0 DUP1 PUSH1 0x80 DUP6 DUP8 SUB SLT ISZERO PUSH3 0x2AB JUMPI PUSH1 0x0 DUP1 REVERT JUMPDEST DUP5 MLOAD PUSH3 0x2B8 DUP2 PUSH3 0x27B JUMP JUMPDEST PUSH1 0x20 DUP7 ADD MLOAD SWAP1 SWAP5 POP PUSH3 0x2CB DUP2 PUSH3 0x27B JUMP JUMPDEST PUSH1 0x40 DUP7 ADD MLOAD PUSH1 0x60 SWAP1 SWAP7 ADD MLOAD SWAP5 SWAP8 SWAP1 SWAP7 POP SWAP3 POP POP POP JUMP JUMPDEST PUSH1 0x0 DUP3 NOT DUP3 GT ISZERO PUSH3 0x303 JUMPI PUSH4 0x4E487B71 PUSH1 0xE0 SHL PUSH1 0x0 MSTORE PUSH1 0x11 PUSH1 0x4 MSTORE PUSH1 0x24 PUSH1 0x0 REVERT JUMPDEST POP ADD SWAP1 JUMP JUMPDEST PUSH1 0x80 MLOAD PUSH1 0xA0 MLOAD PUSH1 0xC0 MLOAD PUSH1 0xE0 MLOAD PUSH2 0x100 MLOAD PUSH2 0x120 MLOAD PUSH2 0x140 MLOAD PUSH2 0x160 MLOAD PUSH2 0x5F3E PUSH3 0x3AD PUSH1 0x0 CODECOPY PUSH1 0x0 DUP2 DUP2 PUSH2 0x908 ADD MSTORE DUP2 DUP2 PUSH2 0x17F6 ADD MSTORE PUSH2 0x186A ADD MSTORE PUSH1 0x0 DUP2 DUP2 PUSH2 0x8E5 ADD MSTORE PUSH2 0x17C3 ADD MSTORE PUSH1 0x0 PUSH2 0x26AB ADD MSTORE PUSH1 0x0 PUSH2 0x26ED ADD MSTORE PUSH1 0x0 PUSH2 0x26CC ADD MSTORE PUSH1 0x0 PUSH2 0xE75 ADD MSTORE PUSH1 0x0 DUP2 DUP2 PUSH2 0x473 ADD MSTORE DUP2 DUP2 PUSH2 0x4472 ADD MSTORE PUSH2 0x4AEF ADD MSTORE PUSH1 0x0 DUP2 DUP2 PUSH2 0x1AD ADD MSTORE DUP2 DUP2 PUSH2 0x3E4 ADD MSTORE DUP2 DUP2 PUSH2 0x1904 ADD MSTORE DUP2 DUP2 PUSH2 0x1A68 ADD MSTORE PUSH2 0x1B6A ADD MSTORE PUSH2 0x5F3E PUSH1 0x0 RETURN INVALID PUSH1 0x80 PUSH1 0x40 MSTORE PUSH1 0x4 CALLDATASIZE LT PUSH2 0x19A JUMPI PUSH1 0x0 CALLDATALOAD PUSH1 0xE0 SHR DUP1 PUSH4 0x945BCEC9 GT PUSH2 0xE1 JUMPI DUP1 PUSH4 0xE6C46092 GT PUSH2 0x8A JUMPI DUP1 PUSH4 0xF84D066E GT PUSH2 0x64 JUMPI DUP1 PUSH4 0xF84D066E EQ PUSH2 0x4FA JUMPI DUP1 PUSH4 0xF94D4668 EQ PUSH2 0x51A JUMPI DUP1 PUSH4 0xFA6E671D EQ PUSH2 0x549 JUMPI DUP1 PUSH4 0xFEC90D72 EQ PUSH2 0x569 JUMPI PUSH1 0x0 DUP1 REVERT JUMPDEST DUP1 PUSH4 0xE6C46092 EQ PUSH2 0x497 JUMPI DUP1 PUSH4 0xED24911D EQ PUSH2 0x4B7 JUMPI DUP1 PUSH4 0xF6C00927 EQ PUSH2 0x4CC JUMPI PUSH1 0x0 DUP1 REVERT JUMPDEST DUP1 PUSH4 0xB05F8E48 GT PUSH2 0xBB JUMPI DUP1 PUSH4 0xB05F8E48 EQ PUSH2 0x408 JUMPI DUP1 PUSH4 0xB95CAC28 EQ PUSH2 0x451 JUMPI DUP1 PUSH4 0xD2946C2B EQ PUSH2 0x464 JUMPI PUSH1 0x0 DUP1 REVERT JUMPDEST DUP1 PUSH4 0x945BCEC9 EQ PUSH2 0x38B JUMPI DUP1 PUSH4 0xAAABADC5 EQ PUSH2 0x39E JUMPI DUP1 PUSH4 0xAD5C4648 EQ PUSH2 0x3D5 JUMPI PUSH1 0x0 DUP1 REVERT JUMPDEST DUP1 PUSH4 0x52BBBE29 GT PUSH2 0x143 JUMPI DUP1 PUSH4 0x851C1BB3 GT PUSH2 0x11D JUMPI DUP1 PUSH4 0x851C1BB3 EQ PUSH2 0x315 JUMPI DUP1 PUSH4 0x8BDB3913 EQ PUSH2 0x335 JUMPI DUP1 PUSH4 0x90193B7C EQ PUSH2 0x355 JUMPI PUSH1 0x0 DUP1 REVERT JUMPDEST DUP1 PUSH4 0x52BBBE29 EQ PUSH2 0x2C2 JUMPI DUP1 PUSH4 0x66A9C7D2 EQ PUSH2 0x2D5 JUMPI DUP1 PUSH4 0x7D3AEB96 EQ PUSH2 0x2F5 JUMPI PUSH1 0x0 DUP1 REVERT JUMPDEST DUP1 PUSH4 0xF5A6EFA GT PUSH2 0x174 JUMPI DUP1 PUSH4 0xF5A6EFA EQ PUSH2 0x243 JUMPI DUP1 PUSH4 0x16C38B3C EQ PUSH2 0x270 JUMPI DUP1 PUSH4 0x1C0DE051 EQ PUSH2 0x290 JUMPI PUSH1 0x0 DUP1 REVERT JUMPDEST DUP1 PUSH4 0x58A628F EQ PUSH2 0x1DD JUMPI DUP1 PUSH4 0x9B2760F EQ PUSH2 0x1FD JUMPI DUP1 PUSH4 0xE8E3E84 EQ PUSH2 0x230 JUMPI PUSH1 0x0 DUP1 REVERT JUMPDEST CALLDATASIZE PUSH2 0x1D8 JUMPI PUSH2 0x1D6 CALLER PUSH1 0x1 PUSH1 0x1 PUSH1 0xA0 SHL SUB PUSH32 0x0 AND EQ PUSH2 0x206 PUSH2 0x599 JUMP JUMPDEST STOP JUMPDEST PUSH1 0x0 DUP1 REVERT JUMPDEST CALLVALUE DUP1 ISZERO PUSH2 0x1E9 JUMPI PUSH1 0x0 DUP1 REVERT JUMPDEST POP PUSH2 0x1D6 PUSH2 0x1F8 CALLDATASIZE PUSH1 0x4 PUSH2 0x4D85 JUMP JUMPDEST PUSH2 0x5AB JUMP JUMPDEST CALLVALUE DUP1 ISZERO PUSH2 0x209 JUMPI PUSH1 0x0 DUP1 REVERT JUMPDEST POP PUSH2 0x21D PUSH2 0x218 CALLDATASIZE PUSH1 0x4 PUSH2 0x4DAF JUMP JUMPDEST PUSH2 0x5D1 JUMP JUMPDEST PUSH1 0x40 MLOAD SWAP1 DUP2 MSTORE PUSH1 0x20 ADD JUMPDEST PUSH1 0x40 MLOAD DUP1 SWAP2 SUB SWAP1 RETURN JUMPDEST PUSH2 0x1D6 PUSH2 0x23E CALLDATASIZE PUSH1 0x4 PUSH2 0x4EA1 JUMP JUMPDEST PUSH2 0x695 JUMP JUMPDEST CALLVALUE DUP1 ISZERO PUSH2 0x24F JUMPI PUSH1 0x0 DUP1 REVERT JUMPDEST POP PUSH2 0x263 PUSH2 0x25E CALLDATASIZE PUSH1 0x4 PUSH2 0x500F JUMP JUMPDEST PUSH2 0x7E8 JUMP JUMPDEST PUSH1 0x40 MLOAD PUSH2 0x227 SWAP2 SWAP1 PUSH2 0x5099 JUMP JUMPDEST CALLVALUE DUP1 ISZERO PUSH2 0x27C JUMPI PUSH1 0x0 DUP1 REVERT JUMPDEST POP PUSH2 0x1D6 PUSH2 0x28B CALLDATASIZE PUSH1 0x4 PUSH2 0x50C5 JUMP JUMPDEST PUSH2 0x8BA JUMP JUMPDEST CALLVALUE DUP1 ISZERO PUSH2 0x29C JUMPI PUSH1 0x0 DUP1 REVERT JUMPDEST POP PUSH2 0x2A5 PUSH2 0x8D3 JUMP JUMPDEST PUSH1 0x40 DUP1 MLOAD SWAP4 ISZERO ISZERO DUP5 MSTORE PUSH1 0x20 DUP5 ADD SWAP3 SWAP1 SWAP3 MSTORE SWAP1 DUP3 ADD MSTORE PUSH1 0x60 ADD PUSH2 0x227 JUMP JUMPDEST PUSH2 0x21D PUSH2 0x2D0 CALLDATASIZE PUSH1 0x4 PUSH2 0x51C8 JUMP JUMPDEST PUSH2 0x92F JUMP JUMPDEST CALLVALUE DUP1 ISZERO PUSH2 0x2E1 JUMPI PUSH1 0x0 DUP1 REVERT JUMPDEST POP PUSH2 0x1D6 PUSH2 0x2F0 CALLDATASIZE PUSH1 0x4 PUSH2 0x52A2 JUMP JUMPDEST PUSH2 0xB28 JUMP JUMPDEST CALLVALUE DUP1 ISZERO PUSH2 0x301 JUMPI PUSH1 0x0 DUP1 REVERT JUMPDEST POP PUSH2 0x1D6 PUSH2 0x310 CALLDATASIZE PUSH1 0x4 PUSH2 0x536D JUMP JUMPDEST PUSH2 0xCF5 JUMP JUMPDEST CALLVALUE DUP1 ISZERO PUSH2 0x321 JUMPI PUSH1 0x0 DUP1 REVERT JUMPDEST POP PUSH2 0x21D PUSH2 0x330 CALLDATASIZE PUSH1 0x4 PUSH2 0x539D JUMP JUMPDEST PUSH2 0xE71 JUMP JUMPDEST CALLVALUE DUP1 ISZERO PUSH2 0x341 JUMPI PUSH1 0x0 DUP1 REVERT JUMPDEST POP PUSH2 0x1D6 PUSH2 0x350 CALLDATASIZE PUSH1 0x4 PUSH2 0x5519 JUMP JUMPDEST PUSH2 0xED6 JUMP JUMPDEST CALLVALUE DUP1 ISZERO PUSH2 0x361 JUMPI PUSH1 0x0 DUP1 REVERT JUMPDEST POP PUSH2 0x21D PUSH2 0x370 CALLDATASIZE PUSH1 0x4 PUSH2 0x4D85 JUMP JUMPDEST PUSH1 0x1 PUSH1 0x1 PUSH1 0xA0 SHL SUB AND PUSH1 0x0 SWAP1 DUP2 MSTORE PUSH1 0x2 PUSH1 0x20 MSTORE PUSH1 0x40 SWAP1 KECCAK256 SLOAD SWAP1 JUMP JUMPDEST PUSH2 0x263 PUSH2 0x399 CALLDATASIZE PUSH1 0x4 PUSH2 0x5667 JUMP JUMPDEST PUSH2 0xEF2 JUMP JUMPDEST CALLVALUE DUP1 ISZERO PUSH2 0x3AA JUMPI PUSH1 0x0 DUP1 REVERT JUMPDEST POP PUSH1 0x3 SLOAD PUSH2 0x100 SWAP1 DIV PUSH1 0x1 PUSH1 0x1 PUSH1 0xA0 SHL SUB AND JUMPDEST PUSH1 0x40 MLOAD PUSH1 0x1 PUSH1 0x1 PUSH1 0xA0 SHL SUB SWAP1 SWAP2 AND DUP2 MSTORE PUSH1 0x20 ADD PUSH2 0x227 JUMP JUMPDEST CALLVALUE DUP1 ISZERO PUSH2 0x3E1 JUMPI PUSH1 0x0 DUP1 REVERT JUMPDEST POP PUSH32 0x0 PUSH2 0x3BD JUMP JUMPDEST CALLVALUE DUP1 ISZERO PUSH2 0x414 JUMPI PUSH1 0x0 DUP1 REVERT JUMPDEST POP PUSH2 0x428 PUSH2 0x423 CALLDATASIZE PUSH1 0x4 PUSH2 0x5771 JUMP JUMPDEST PUSH2 0x104D JUMP JUMPDEST PUSH1 0x40 DUP1 MLOAD SWAP5 DUP6 MSTORE PUSH1 0x20 DUP6 ADD SWAP4 SWAP1 SWAP4 MSTORE SWAP2 DUP4 ADD MSTORE PUSH1 0x1 PUSH1 0x1 PUSH1 0xA0 SHL SUB AND PUSH1 0x60 DUP3 ADD MSTORE PUSH1 0x80 ADD PUSH2 0x227 JUMP JUMPDEST PUSH2 0x1D6 PUSH2 0x45F CALLDATASIZE PUSH1 0x4 PUSH2 0x5519 JUMP JUMPDEST PUSH2 0x1128 JUMP JUMPDEST CALLVALUE DUP1 ISZERO PUSH2 0x470 JUMPI PUSH1 0x0 DUP1 REVERT JUMPDEST POP PUSH32 0x0 PUSH2 0x3BD JUMP JUMPDEST CALLVALUE DUP1 ISZERO PUSH2 0x4A3 JUMPI PUSH1 0x0 DUP1 REVERT JUMPDEST POP PUSH2 0x1D6 PUSH2 0x4B2 CALLDATASIZE PUSH1 0x4 PUSH2 0x57A1 JUMP JUMPDEST PUSH2 0x1141 JUMP JUMPDEST CALLVALUE DUP1 ISZERO PUSH2 0x4C3 JUMPI PUSH1 0x0 DUP1 REVERT JUMPDEST POP PUSH2 0x21D PUSH2 0x128E JUMP JUMPDEST CALLVALUE DUP1 ISZERO PUSH2 0x4D8 JUMPI PUSH1 0x0 DUP1 REVERT JUMPDEST POP PUSH2 0x4EC PUSH2 0x4E7 CALLDATASIZE PUSH1 0x4 PUSH2 0x5871 JUMP JUMPDEST PUSH2 0x1298 JUMP JUMPDEST PUSH1 0x40 MLOAD PUSH2 0x227 SWAP3 SWAP2 SWAP1 PUSH2 0x58B4 JUMP JUMPDEST CALLVALUE DUP1 ISZERO PUSH2 0x506 JUMPI PUSH1 0x0 DUP1 REVERT JUMPDEST POP PUSH2 0x263 PUSH2 0x515 CALLDATASIZE PUSH1 0x4 PUSH2 0x58D1 JUMP JUMPDEST PUSH2 0x12C3 JUMP JUMPDEST CALLVALUE DUP1 ISZERO PUSH2 0x526 JUMPI PUSH1 0x0 DUP1 REVERT JUMPDEST POP PUSH2 0x53A PUSH2 0x535 CALLDATASIZE PUSH1 0x4 PUSH2 0x5871 JUMP JUMPDEST PUSH2 0x13A7 JUMP JUMPDEST PUSH1 0x40 MLOAD PUSH2 0x227 SWAP4 SWAP3 SWAP2 SWAP1 PUSH2 0x598F JUMP JUMPDEST CALLVALUE DUP1 ISZERO PUSH2 0x555 JUMPI PUSH1 0x0 DUP1 REVERT JUMPDEST POP PUSH2 0x1D6 PUSH2 0x564 CALLDATASIZE PUSH1 0x4 PUSH2 0x59C5 JUMP JUMPDEST PUSH2 0x13DB JUMP JUMPDEST CALLVALUE DUP1 ISZERO PUSH2 0x575 JUMPI PUSH1 0x0 DUP1 REVERT JUMPDEST POP PUSH2 0x589 PUSH2 0x584 CALLDATASIZE PUSH1 0x4 PUSH2 0x5A10 JUMP JUMPDEST PUSH2 0x146B JUMP JUMPDEST PUSH1 0x40 MLOAD SWAP1 ISZERO ISZERO DUP2 MSTORE PUSH1 0x20 ADD PUSH2 0x227 JUMP JUMPDEST DUP2 PUSH2 0x5A7 JUMPI PUSH2 0x5A7 DUP2 PUSH2 0x14A0 JUMP JUMPDEST POP POP JUMP JUMPDEST PUSH2 0x5B3 PUSH2 0x14F3 JUMP JUMPDEST PUSH2 0x5BB PUSH2 0x150C JUMP JUMPDEST PUSH2 0x5C4 DUP2 PUSH2 0x153A JUMP JUMPDEST PUSH2 0x5CE PUSH1 0x1 PUSH1 0x0 SSTORE JUMP JUMPDEST POP JUMP JUMPDEST PUSH1 0x0 PUSH2 0x5DB PUSH2 0x14F3 JUMP JUMPDEST PUSH2 0x5E3 PUSH2 0x15A3 JUMP JUMPDEST PUSH1 0x0 PUSH2 0x5F2 CALLER DUP5 PUSH1 0x6 SLOAD PUSH2 0x15B8 JUMP JUMPDEST PUSH1 0x0 DUP2 DUP2 MSTORE PUSH1 0x5 PUSH1 0x20 MSTORE PUSH1 0x40 SWAP1 KECCAK256 SLOAD SWAP1 SWAP2 POP PUSH2 0x614 SWAP1 PUSH1 0xFF AND ISZERO PUSH2 0x1F4 PUSH2 0x599 JUMP JUMPDEST PUSH1 0x0 DUP2 DUP2 MSTORE PUSH1 0x5 PUSH1 0x20 MSTORE PUSH1 0x40 DUP2 KECCAK256 DUP1 SLOAD PUSH1 0xFF NOT AND PUSH1 0x1 SWAP1 DUP2 OR SWAP1 SWAP2 SSTORE PUSH1 0x6 DUP1 SLOAD SWAP2 SWAP3 SWAP1 SWAP2 PUSH2 0x643 SWAP1 DUP5 SWAP1 PUSH2 0x5A54 JUMP JUMPDEST SWAP1 SWAP2 SSTORE POP POP PUSH1 0x40 MLOAD CALLER SWAP1 DUP3 SWAP1 PUSH32 0x3C13BC30B8E878C53FD2A36B679409C073AFD75950BE43D8858768E956FBC20E SWAP1 PUSH2 0x67C SWAP1 DUP8 SWAP1 PUSH2 0x5A6C JUMP JUMPDEST PUSH1 0x40 MLOAD DUP1 SWAP2 SUB SWAP1 LOG3 SWAP1 POP PUSH2 0x690 PUSH1 0x1 PUSH1 0x0 SSTORE JUMP JUMPDEST SWAP2 SWAP1 POP JUMP JUMPDEST PUSH2 0x69D PUSH2 0x14F3 JUMP JUMPDEST PUSH1 0x0 DUP1 PUSH1 0x0 DUP1 JUMPDEST DUP5 MLOAD DUP2 LT ISZERO PUSH2 0x7D1 JUMPI PUSH1 0x0 DUP1 PUSH1 0x0 DUP1 PUSH1 0x0 PUSH2 0x6D8 DUP11 DUP8 DUP2 MLOAD DUP2 LT PUSH2 0x6CA JUMPI PUSH2 0x6CA PUSH2 0x5A7A JUMP JUMPDEST PUSH1 0x20 MUL PUSH1 0x20 ADD ADD MLOAD DUP10 PUSH2 0x1609 JUMP JUMPDEST SWAP13 POP SWAP4 SWAP9 POP SWAP2 SWAP7 POP SWAP5 POP SWAP3 POP SWAP1 POP PUSH1 0x1 DUP6 PUSH1 0x3 DUP2 GT ISZERO PUSH2 0x6FA JUMPI PUSH2 0x6FA PUSH2 0x588A JUMP JUMPDEST EQ ISZERO PUSH2 0x711 JUMPI PUSH2 0x70C DUP5 DUP4 DUP4 DUP7 PUSH2 0x169F JUMP JUMPDEST PUSH2 0x7B9 JUMP JUMPDEST DUP7 PUSH2 0x723 JUMPI PUSH2 0x71E PUSH2 0x15A3 JUMP JUMPDEST PUSH1 0x1 SWAP7 POP JUMPDEST PUSH1 0x0 DUP6 PUSH1 0x3 DUP2 GT ISZERO PUSH2 0x737 JUMPI PUSH2 0x737 PUSH2 0x588A JUMP JUMPDEST EQ ISZERO PUSH2 0x768 JUMPI PUSH2 0x749 DUP5 DUP4 DUP4 DUP7 PUSH2 0x16C2 JUMP JUMPDEST PUSH1 0x1 PUSH1 0x1 PUSH1 0xA0 SHL SUB DUP5 AND PUSH2 0x70C JUMPI PUSH2 0x761 DUP4 DUP11 PUSH2 0x5A54 JUMP JUMPDEST SWAP9 POP PUSH2 0x7B9 JUMP JUMPDEST PUSH2 0x77F PUSH1 0x1 PUSH1 0x1 PUSH1 0xA0 SHL SUB DUP6 AND ISZERO ISZERO PUSH2 0x207 PUSH2 0x599 JUMP JUMPDEST DUP4 PUSH1 0x2 DUP7 PUSH1 0x3 DUP2 GT ISZERO PUSH2 0x794 JUMPI PUSH2 0x794 PUSH2 0x588A JUMP JUMPDEST EQ ISZERO PUSH2 0x7AB JUMPI PUSH2 0x7A6 DUP2 DUP5 DUP5 DUP8 PUSH2 0x16E2 JUMP JUMPDEST PUSH2 0x7B7 JUMP JUMPDEST PUSH2 0x7B7 DUP2 DUP5 DUP5 DUP8 PUSH2 0x16FB JUMP JUMPDEST POP JUMPDEST POP POP POP POP POP DUP1 DUP1 PUSH2 0x7C9 SWAP1 PUSH2 0x5A90 JUMP JUMPDEST SWAP2 POP POP PUSH2 0x6A4 JUMP JUMPDEST POP PUSH2 0x7DB DUP4 PUSH2 0x1768 JUMP JUMPDEST POP POP POP PUSH2 0x5CE PUSH1 0x1 PUSH1 0x0 SSTORE JUMP JUMPDEST PUSH1 0x60 DUP2 MLOAD PUSH1 0x1 PUSH1 0x1 PUSH1 0x40 SHL SUB DUP2 GT ISZERO PUSH2 0x803 JUMPI PUSH2 0x803 PUSH2 0x4DCC JUMP JUMPDEST PUSH1 0x40 MLOAD SWAP1 DUP1 DUP3 MSTORE DUP1 PUSH1 0x20 MUL PUSH1 0x20 ADD DUP3 ADD PUSH1 0x40 MSTORE DUP1 ISZERO PUSH2 0x82C JUMPI DUP2 PUSH1 0x20 ADD PUSH1 0x20 DUP3 MUL DUP1 CALLDATASIZE DUP4 CALLDATACOPY ADD SWAP1 POP JUMPDEST POP SWAP1 POP PUSH1 0x0 JUMPDEST DUP3 MLOAD DUP2 LT ISZERO PUSH2 0x8B3 JUMPI PUSH2 0x884 DUP5 DUP5 DUP4 DUP2 MLOAD DUP2 LT PUSH2 0x851 JUMPI PUSH2 0x851 PUSH2 0x5A7A JUMP JUMPDEST PUSH1 0x20 MUL PUSH1 0x20 ADD ADD MLOAD PUSH1 0x1 PUSH1 0x1 PUSH1 0xA0 SHL SUB SWAP2 DUP3 AND PUSH1 0x0 SWAP1 DUP2 MSTORE PUSH1 0xB PUSH1 0x20 SWAP1 DUP2 MSTORE PUSH1 0x40 DUP1 DUP4 KECCAK256 SWAP4 SWAP1 SWAP5 AND DUP3 MSTORE SWAP2 SWAP1 SWAP2 MSTORE KECCAK256 SLOAD SWAP1 JUMP JUMPDEST DUP3 DUP3 DUP2 MLOAD DUP2 LT PUSH2 0x896 JUMPI PUSH2 0x896 PUSH2 0x5A7A JUMP JUMPDEST PUSH1 0x20 SWAP1 DUP2 MUL SWAP2 SWAP1 SWAP2 ADD ADD MSTORE DUP1 PUSH2 0x8AB DUP2 PUSH2 0x5A90 JUMP JUMPDEST SWAP2 POP POP PUSH2 0x832 JUMP JUMPDEST POP SWAP3 SWAP2 POP POP JUMP JUMPDEST PUSH2 0x8C2 PUSH2 0x14F3 JUMP JUMPDEST PUSH2 0x8CA PUSH2 0x150C JUMP JUMPDEST PUSH2 0x5C4 DUP2 PUSH2 0x17B8 JUMP JUMPDEST PUSH1 0x0 DUP1 PUSH1 0x0 PUSH2 0x8E0 PUSH2 0x1866 JUMP JUMPDEST ISZERO SWAP3 POP PUSH32 0x0 SWAP2 POP PUSH32 0x0 JUMPDEST SWAP1 POP SWAP1 SWAP2 SWAP3 JUMP JUMPDEST PUSH1 0x0 PUSH2 0x939 PUSH2 0x14F3 JUMP JUMPDEST PUSH2 0x941 PUSH2 0x15A3 JUMP JUMPDEST DUP4 MLOAD PUSH2 0x94C DUP2 PUSH2 0x189C JUMP JUMPDEST PUSH2 0x95B DUP4 TIMESTAMP GT ISZERO PUSH2 0x1FC PUSH2 0x599 JUMP JUMPDEST PUSH2 0x96E PUSH1 0x0 DUP8 PUSH1 0x80 ADD MLOAD GT PUSH2 0x1FE PUSH2 0x599 JUMP JUMPDEST PUSH1 0x0 PUSH2 0x97D DUP8 PUSH1 0x40 ADD MLOAD PUSH2 0x18EB JUMP JUMPDEST SWAP1 POP PUSH1 0x0 PUSH2 0x98E DUP9 PUSH1 0x60 ADD MLOAD PUSH2 0x18EB JUMP JUMPDEST SWAP1 POP PUSH2 0x9B1 DUP2 PUSH1 0x1 PUSH1 0x1 PUSH1 0xA0 SHL SUB AND DUP4 PUSH1 0x1 PUSH1 0x1 PUSH1 0xA0 SHL SUB AND EQ ISZERO PUSH2 0x1FD PUSH2 0x599 JUMP JUMPDEST PUSH1 0x40 DUP1 MLOAD PUSH2 0x120 DUP2 ADD DUP3 MSTORE PUSH1 0x0 DUP1 DUP3 MSTORE PUSH1 0x20 DUP1 DUP4 ADD DUP3 SWAP1 MSTORE SWAP3 DUP3 ADD DUP2 SWAP1 MSTORE PUSH1 0x60 DUP1 DUP4 ADD DUP3 SWAP1 MSTORE PUSH1 0x80 DUP4 ADD DUP3 DUP2 MSTORE PUSH1 0xA0 DUP5 ADD DUP4 SWAP1 MSTORE PUSH1 0xC0 DUP5 ADD DUP4 SWAP1 MSTORE PUSH1 0xE0 DUP5 ADD SWAP3 SWAP1 SWAP3 MSTORE PUSH2 0x100 DUP4 ADD MSTORE DUP11 MLOAD SWAP1 MSTORE SWAP1 DUP10 ADD MLOAD DUP2 SWAP1 PUSH1 0x1 DUP2 GT ISZERO PUSH2 0xA15 JUMPI PUSH2 0xA15 PUSH2 0x588A JUMP JUMPDEST SWAP1 DUP2 PUSH1 0x1 DUP2 GT ISZERO PUSH2 0xA28 JUMPI PUSH2 0xA28 PUSH2 0x588A JUMP JUMPDEST SWAP1 MSTORE POP PUSH1 0x1 PUSH1 0x1 PUSH1 0xA0 SHL SUB DUP1 DUP5 AND PUSH1 0x20 DUP4 ADD MSTORE DUP3 DUP2 AND PUSH1 0x40 DUP1 DUP5 ADD SWAP2 SWAP1 SWAP2 MSTORE PUSH1 0x80 DUP12 ADD MLOAD PUSH1 0x60 DUP5 ADD MSTORE PUSH1 0xA0 DUP12 ADD MLOAD PUSH2 0x100 DUP5 ADD MSTORE DUP10 MLOAD DUP3 AND PUSH1 0xC0 DUP5 ADD MSTORE DUP10 ADD MLOAD AND PUSH1 0xE0 DUP3 ADD MSTORE PUSH1 0x0 DUP1 PUSH2 0xA7A DUP4 PUSH2 0x1928 JUMP JUMPDEST SWAP2 SWAP9 POP SWAP3 POP SWAP1 POP PUSH2 0xAB7 PUSH1 0x0 DUP13 PUSH1 0x20 ADD MLOAD PUSH1 0x1 DUP2 GT ISZERO PUSH2 0xA9C JUMPI PUSH2 0xA9C PUSH2 0x588A JUMP JUMPDEST EQ PUSH2 0xAAA JUMPI DUP10 DUP4 GT ISZERO PUSH2 0xAAF JUMP JUMPDEST DUP10 DUP3 LT ISZERO JUMPDEST PUSH2 0x1FB PUSH2 0x599 JUMP JUMPDEST PUSH2 0xACF DUP12 PUSH1 0x40 ADD MLOAD DUP4 DUP13 PUSH1 0x0 ADD MLOAD DUP14 PUSH1 0x20 ADD MLOAD PUSH2 0x1A32 JUMP JUMPDEST PUSH2 0xAE7 DUP12 PUSH1 0x60 ADD MLOAD DUP3 DUP13 PUSH1 0x40 ADD MLOAD DUP14 PUSH1 0x60 ADD MLOAD PUSH2 0x1B27 JUMP JUMPDEST PUSH2 0xB10 PUSH2 0xAFF DUP13 PUSH1 0x40 ADD MLOAD PUSH1 0x1 PUSH1 0x1 PUSH1 0xA0 SHL SUB AND ISZERO SWAP1 JUMP JUMPDEST PUSH2 0xB0A JUMPI PUSH1 0x0 PUSH2 0x1768 JUMP JUMPDEST DUP3 PUSH2 0x1768 JUMP JUMPDEST POP POP POP POP POP POP PUSH2 0xB20 PUSH1 0x1 PUSH1 0x0 SSTORE JUMP JUMPDEST SWAP5 SWAP4 POP POP POP POP JUMP JUMPDEST PUSH2 0xB30 PUSH2 0x14F3 JUMP JUMPDEST PUSH2 0xB38 PUSH2 0x15A3 JUMP JUMPDEST DUP3 PUSH2 0xB42 DUP2 PUSH2 0x1C0A JUMP JUMPDEST PUSH2 0xB4E DUP4 MLOAD DUP4 MLOAD PUSH2 0x1C3C JUMP JUMPDEST PUSH1 0x0 JUMPDEST DUP4 MLOAD DUP2 LT ISZERO PUSH2 0xC00 JUMPI PUSH1 0x0 DUP5 DUP3 DUP2 MLOAD DUP2 LT PUSH2 0xB6E JUMPI PUSH2 0xB6E PUSH2 0x5A7A JUMP JUMPDEST PUSH1 0x20 MUL PUSH1 0x20 ADD ADD MLOAD SWAP1 POP PUSH2 0xB9A PUSH1 0x0 PUSH1 0x1 PUSH1 0x1 PUSH1 0xA0 SHL SUB AND DUP3 PUSH1 0x1 PUSH1 0x1 PUSH1 0xA0 SHL SUB AND EQ ISZERO PUSH2 0x135 PUSH2 0x599 JUMP JUMPDEST DUP4 DUP3 DUP2 MLOAD DUP2 LT PUSH2 0xBAC JUMPI PUSH2 0xBAC PUSH2 0x5A7A JUMP JUMPDEST PUSH1 0x20 SWAP1 DUP2 MUL SWAP2 SWAP1 SWAP2 ADD DUP2 ADD MLOAD PUSH1 0x0 DUP9 DUP2 MSTORE PUSH1 0xA DUP4 MSTORE PUSH1 0x40 DUP1 DUP3 KECCAK256 PUSH1 0x1 PUSH1 0x1 PUSH1 0xA0 SHL SUB SWAP6 DUP7 AND DUP4 MSTORE SWAP1 SWAP4 MSTORE SWAP2 SWAP1 SWAP2 KECCAK256 DUP1 SLOAD PUSH1 0x1 PUSH1 0x1 PUSH1 0xA0 SHL SUB NOT AND SWAP3 SWAP1 SWAP2 AND SWAP2 SWAP1 SWAP2 OR SWAP1 SSTORE PUSH2 0xBF9 DUP2 PUSH2 0x5A90 JUMP JUMPDEST SWAP1 POP PUSH2 0xB51 JUMP JUMPDEST POP PUSH1 0x0 PUSH2 0xC0C DUP6 PUSH2 0x1C49 JUMP JUMPDEST SWAP1 POP PUSH1 0x2 DUP2 PUSH1 0x2 DUP2 GT ISZERO PUSH2 0xC22 JUMPI PUSH2 0xC22 PUSH2 0x588A JUMP JUMPDEST EQ ISZERO PUSH2 0xC7C JUMPI PUSH2 0xC38 DUP5 MLOAD PUSH1 0x2 EQ PUSH2 0x20C PUSH2 0x599 JUMP JUMPDEST PUSH2 0xC77 DUP6 DUP6 PUSH1 0x0 DUP2 MLOAD DUP2 LT PUSH2 0xC4F JUMPI PUSH2 0xC4F PUSH2 0x5A7A JUMP JUMPDEST PUSH1 0x20 MUL PUSH1 0x20 ADD ADD MLOAD DUP7 PUSH1 0x1 DUP2 MLOAD DUP2 LT PUSH2 0xC6A JUMPI PUSH2 0xC6A PUSH2 0x5A7A JUMP JUMPDEST PUSH1 0x20 MUL PUSH1 0x20 ADD ADD MLOAD PUSH2 0x1C63 JUMP JUMPDEST PUSH2 0xCAA JUMP JUMPDEST PUSH1 0x1 DUP2 PUSH1 0x2 DUP2 GT ISZERO PUSH2 0xC90 JUMPI PUSH2 0xC90 PUSH2 0x588A JUMP JUMPDEST EQ ISZERO PUSH2 0xCA0 JUMPI PUSH2 0xC77 DUP6 DUP6 PUSH2 0x1D0F JUMP JUMPDEST PUSH2 0xCAA DUP6 DUP6 PUSH2 0x1D75 JUMP JUMPDEST DUP5 PUSH32 0xF5847D3F2197B16CDCD2098EC95D0905CD1ABDAF415F07BB7CEF2BBA8AC5DEC4 DUP6 DUP6 PUSH1 0x40 MLOAD PUSH2 0xCDC SWAP3 SWAP2 SWAP1 PUSH2 0x5AAB JUMP JUMPDEST PUSH1 0x40 MLOAD DUP1 SWAP2 SUB SWAP1 LOG2 POP POP PUSH2 0xCF0 PUSH1 0x1 PUSH1 0x0 SSTORE JUMP JUMPDEST POP POP POP JUMP JUMPDEST PUSH2 0xCFD PUSH2 0x14F3 JUMP JUMPDEST PUSH2 0xD05 PUSH2 0x15A3 JUMP JUMPDEST DUP2 PUSH2 0xD0F DUP2 PUSH2 0x1C0A JUMP JUMPDEST PUSH1 0x0 PUSH2 0xD1A DUP5 PUSH2 0x1C49 JUMP JUMPDEST SWAP1 POP PUSH1 0x2 DUP2 PUSH1 0x2 DUP2 GT ISZERO PUSH2 0xD30 JUMPI PUSH2 0xD30 PUSH2 0x588A JUMP JUMPDEST EQ ISZERO PUSH2 0xD8A JUMPI PUSH2 0xD46 DUP4 MLOAD PUSH1 0x2 EQ PUSH2 0x20C PUSH2 0x599 JUMP JUMPDEST PUSH2 0xD85 DUP5 DUP5 PUSH1 0x0 DUP2 MLOAD DUP2 LT PUSH2 0xD5D JUMPI PUSH2 0xD5D PUSH2 0x5A7A JUMP JUMPDEST PUSH1 0x20 MUL PUSH1 0x20 ADD ADD MLOAD DUP6 PUSH1 0x1 DUP2 MLOAD DUP2 LT PUSH2 0xD78 JUMPI PUSH2 0xD78 PUSH2 0x5A7A JUMP JUMPDEST PUSH1 0x20 MUL PUSH1 0x20 ADD ADD MLOAD PUSH2 0x1DD8 JUMP JUMPDEST PUSH2 0xDB8 JUMP JUMPDEST PUSH1 0x1 DUP2 PUSH1 0x2 DUP2 GT ISZERO PUSH2 0xD9E JUMPI PUSH2 0xD9E PUSH2 0x588A JUMP JUMPDEST EQ ISZERO PUSH2 0xDAE JUMPI PUSH2 0xD85 DUP5 DUP5 PUSH2 0x1E51 JUMP JUMPDEST PUSH2 0xDB8 DUP5 DUP5 PUSH2 0x1F12 JUMP JUMPDEST PUSH1 0x0 JUMPDEST DUP4 MLOAD DUP2 LT ISZERO PUSH2 0xE2C JUMPI PUSH1 0xA PUSH1 0x0 DUP7 DUP2 MSTORE PUSH1 0x20 ADD SWAP1 DUP2 MSTORE PUSH1 0x20 ADD PUSH1 0x0 KECCAK256 PUSH1 0x0 DUP6 DUP4 DUP2 MLOAD DUP2 LT PUSH2 0xDEB JUMPI PUSH2 0xDEB PUSH2 0x5A7A JUMP JUMPDEST PUSH1 0x20 SWAP1 DUP2 MUL SWAP2 SWAP1 SWAP2 ADD DUP2 ADD MLOAD PUSH1 0x1 PUSH1 0x1 PUSH1 0xA0 SHL SUB AND DUP3 MSTORE DUP2 ADD SWAP2 SWAP1 SWAP2 MSTORE PUSH1 0x40 ADD PUSH1 0x0 KECCAK256 DUP1 SLOAD PUSH1 0x1 PUSH1 0x1 PUSH1 0xA0 SHL SUB NOT AND SWAP1 SSTORE PUSH2 0xE25 DUP2 PUSH2 0x5A90 JUMP JUMPDEST SWAP1 POP PUSH2 0xDBB JUMP JUMPDEST POP DUP4 PUSH32 0x7DCDC6D02EF40C7C1A7046A011B058BD7F988FA14E20A66344F9D4E60657D610 DUP5 PUSH1 0x40 MLOAD PUSH2 0xE5D SWAP2 SWAP1 PUSH2 0x5B0B JUMP JUMPDEST PUSH1 0x40 MLOAD DUP1 SWAP2 SUB SWAP1 LOG2 POP POP PUSH2 0x5A7 PUSH1 0x1 PUSH1 0x0 SSTORE JUMP JUMPDEST PUSH1 0x0 PUSH32 0x0 DUP3 PUSH1 0x40 MLOAD PUSH1 0x20 ADD PUSH2 0xEB9 SWAP3 SWAP2 SWAP1 SWAP2 DUP3 MSTORE PUSH1 0x1 PUSH1 0x1 PUSH1 0xE0 SHL SUB NOT AND PUSH1 0x20 DUP3 ADD MSTORE PUSH1 0x24 ADD SWAP1 JUMP JUMPDEST PUSH1 0x40 MLOAD PUSH1 0x20 DUP2 DUP4 SUB SUB DUP2 MSTORE SWAP1 PUSH1 0x40 MSTORE DUP1 MLOAD SWAP1 PUSH1 0x20 ADD KECCAK256 SWAP1 POP SWAP2 SWAP1 POP JUMP JUMPDEST PUSH2 0xEEC PUSH1 0x1 DUP6 DUP6 DUP6 PUSH2 0xEE7 DUP7 PUSH2 0x1F88 JUMP JUMPDEST PUSH2 0x1FB9 JUMP JUMPDEST POP POP POP POP JUMP JUMPDEST PUSH1 0x60 PUSH2 0xEFC PUSH2 0x14F3 JUMP JUMPDEST PUSH2 0xF04 PUSH2 0x15A3 JUMP JUMPDEST DUP4 MLOAD PUSH2 0xF0F DUP2 PUSH2 0x189C JUMP JUMPDEST PUSH2 0xF1E DUP4 TIMESTAMP GT ISZERO PUSH2 0x1FC PUSH2 0x599 JUMP JUMPDEST PUSH2 0xF2A DUP7 MLOAD DUP6 MLOAD PUSH2 0x1C3C JUMP JUMPDEST PUSH2 0xF36 DUP8 DUP8 DUP8 DUP12 PUSH2 0x216B JUMP JUMPDEST SWAP2 POP PUSH1 0x0 DUP1 JUMPDEST DUP8 MLOAD DUP2 LT ISZERO PUSH2 0x1028 JUMPI PUSH1 0x0 DUP9 DUP3 DUP2 MLOAD DUP2 LT PUSH2 0xF59 JUMPI PUSH2 0xF59 PUSH2 0x5A7A JUMP JUMPDEST PUSH1 0x20 MUL PUSH1 0x20 ADD ADD MLOAD SWAP1 POP PUSH1 0x0 DUP6 DUP4 DUP2 MLOAD DUP2 LT PUSH2 0xF77 JUMPI PUSH2 0xF77 PUSH2 0x5A7A JUMP JUMPDEST PUSH1 0x20 MUL PUSH1 0x20 ADD ADD MLOAD SWAP1 POP PUSH2 0xFA9 DUP9 DUP5 DUP2 MLOAD DUP2 LT PUSH2 0xF96 JUMPI PUSH2 0xF96 PUSH2 0x5A7A JUMP JUMPDEST PUSH1 0x20 MUL PUSH1 0x20 ADD ADD MLOAD DUP3 SGT ISZERO PUSH2 0x1FB PUSH2 0x599 JUMP JUMPDEST PUSH1 0x0 DUP2 SGT ISZERO PUSH2 0xFE9 JUMPI DUP9 MLOAD PUSH1 0x20 DUP11 ADD MLOAD DUP3 SWAP2 PUSH2 0xFC8 SWAP2 DUP6 SWAP2 DUP5 SWAP2 PUSH2 0x1A32 JUMP JUMPDEST PUSH1 0x1 PUSH1 0x1 PUSH1 0xA0 SHL SUB DUP4 AND PUSH2 0xFE3 JUMPI PUSH2 0xFE0 DUP2 DUP7 PUSH2 0x5A54 JUMP JUMPDEST SWAP5 POP JUMPDEST POP PUSH2 0x1015 JUMP JUMPDEST PUSH1 0x0 DUP2 SLT ISZERO PUSH2 0x1015 JUMPI PUSH1 0x0 PUSH2 0xFFD DUP3 PUSH2 0x5B1E JUMP JUMPDEST SWAP1 POP PUSH2 0x1013 DUP4 DUP3 DUP13 PUSH1 0x40 ADD MLOAD DUP14 PUSH1 0x60 ADD MLOAD PUSH2 0x1B27 JUMP JUMPDEST POP JUMPDEST POP POP DUP1 PUSH2 0x1021 SWAP1 PUSH2 0x5A90 JUMP JUMPDEST SWAP1 POP PUSH2 0xF3C JUMP JUMPDEST POP PUSH2 0x1032 DUP2 PUSH2 0x1768 JUMP JUMPDEST POP POP PUSH2 0x103E PUSH1 0x1 PUSH1 0x0 SSTORE JUMP JUMPDEST SWAP7 SWAP6 POP POP POP POP POP POP JUMP JUMPDEST SWAP1 POP SWAP1 JUMP JUMPDEST PUSH1 0x0 DUP1 PUSH1 0x0 DUP1 DUP6 PUSH2 0x105D DUP2 PUSH2 0x2492 JUMP JUMPDEST PUSH1 0x0 DUP1 PUSH2 0x1069 DUP10 PUSH2 0x1C49 JUMP JUMPDEST SWAP1 POP PUSH1 0x2 DUP2 PUSH1 0x2 DUP2 GT ISZERO PUSH2 0x107F JUMPI PUSH2 0x107F PUSH2 0x588A JUMP JUMPDEST EQ ISZERO PUSH2 0x1096 JUMPI PUSH2 0x108F DUP10 DUP10 PUSH2 0x24B0 JUMP JUMPDEST SWAP2 POP PUSH2 0x10C7 JUMP JUMPDEST PUSH1 0x1 DUP2 PUSH1 0x2 DUP2 GT ISZERO PUSH2 0x10AA JUMPI PUSH2 0x10AA PUSH2 0x588A JUMP JUMPDEST EQ ISZERO PUSH2 0x10BA JUMPI PUSH2 0x108F DUP10 DUP10 PUSH2 0x252A JUMP JUMPDEST PUSH2 0x10C4 DUP10 DUP10 PUSH2 0x25AC JUMP JUMPDEST SWAP2 POP JUMPDEST PUSH1 0x1 PUSH1 0x1 PUSH1 0x70 SHL SUB DUP3 AND SWAP7 POP PUSH2 0x10E6 DUP3 PUSH1 0x70 SHR PUSH1 0x1 PUSH1 0x1 PUSH1 0x70 SHL SUB AND SWAP1 JUMP JUMPDEST SWAP6 POP PUSH2 0x10F2 DUP3 PUSH1 0xE0 SHR SWAP1 JUMP JUMPDEST PUSH1 0x0 SWAP10 DUP11 MSTORE PUSH1 0xA PUSH1 0x20 SWAP1 DUP2 MSTORE PUSH1 0x40 DUP1 DUP13 KECCAK256 PUSH1 0x1 PUSH1 0x1 PUSH1 0xA0 SHL SUB SWAP12 DUP13 AND DUP14 MSTORE SWAP1 SWAP2 MSTORE SWAP1 SWAP10 KECCAK256 SLOAD SWAP7 SWAP10 SWAP6 SWAP9 SWAP8 SWAP7 SWAP1 SWAP7 AND SWAP6 POP POP POP POP POP JUMP JUMPDEST PUSH2 0x1130 PUSH2 0x15A3 JUMP JUMPDEST PUSH2 0xEEC PUSH1 0x0 DUP6 DUP6 DUP6 PUSH2 0xEE7 DUP7 PUSH2 0x1F88 JUMP JUMPDEST PUSH2 0x1149 PUSH2 0x14F3 JUMP JUMPDEST PUSH2 0x1151 PUSH2 0x15A3 JUMP JUMPDEST PUSH1 0x40 DUP1 MLOAD PUSH1 0x80 DUP2 ADD DUP3 MSTORE PUSH1 0x0 DUP1 DUP3 MSTORE PUSH1 0x20 DUP3 ADD DUP2 SWAP1 MSTORE SWAP2 DUP2 ADD DUP3 SWAP1 MSTORE PUSH1 0x60 DUP2 ADD DUP3 SWAP1 MSTORE SWAP1 JUMPDEST DUP3 MLOAD DUP2 LT ISZERO PUSH2 0x1282 JUMPI DUP3 DUP2 DUP2 MLOAD DUP2 LT PUSH2 0x1191 JUMPI PUSH2 0x1191 PUSH2 0x5A7A JUMP JUMPDEST PUSH1 0x20 MUL PUSH1 0x20 ADD ADD MLOAD SWAP2 POP PUSH1 0x0 DUP3 PUSH1 0x20 ADD MLOAD SWAP1 POP PUSH2 0x11AD DUP2 PUSH2 0x2492 JUMP JUMPDEST PUSH1 0x40 DUP4 ADD MLOAD PUSH2 0x11C7 PUSH2 0x11BF DUP4 DUP4 PUSH2 0x25C4 JUMP JUMPDEST PUSH2 0x209 PUSH2 0x599 JUMP JUMPDEST PUSH1 0x0 DUP3 DUP2 MSTORE PUSH1 0xA PUSH1 0x20 SWAP1 DUP2 MSTORE PUSH1 0x40 DUP1 DUP4 KECCAK256 PUSH1 0x1 PUSH1 0x1 PUSH1 0xA0 SHL SUB DUP6 DUP2 AND DUP6 MSTORE SWAP3 MSTORE SWAP1 SWAP2 KECCAK256 SLOAD PUSH2 0x11FA SWAP2 AND CALLER EQ PUSH2 0x1F6 PUSH2 0x599 JUMP JUMPDEST DUP4 MLOAD PUSH1 0x60 DUP6 ADD MLOAD PUSH1 0x0 DUP1 PUSH2 0x1210 DUP5 DUP8 DUP8 DUP7 PUSH2 0x262C JUMP JUMPDEST SWAP2 POP SWAP2 POP DUP5 PUSH1 0x1 PUSH1 0x1 PUSH1 0xA0 SHL SUB AND CALLER PUSH1 0x1 PUSH1 0x1 PUSH1 0xA0 SHL SUB AND DUP8 PUSH32 0x6EDCAF6241105B4C94C2EFDBF3A6B12458EB3D07BE3A0E81D24B13C44045FE7A DUP6 DUP6 PUSH1 0x40 MLOAD PUSH2 0x1263 SWAP3 SWAP2 SWAP1 SWAP2 DUP3 MSTORE PUSH1 0x20 DUP3 ADD MSTORE PUSH1 0x40 ADD SWAP1 JUMP JUMPDEST PUSH1 0x40 MLOAD DUP1 SWAP2 SUB SWAP1 LOG4 POP POP POP POP POP POP DUP1 PUSH2 0x127B SWAP1 PUSH2 0x5A90 JUMP JUMPDEST SWAP1 POP PUSH2 0x1176 JUMP JUMPDEST POP POP PUSH2 0x5CE PUSH1 0x1 PUSH1 0x0 SSTORE JUMP JUMPDEST PUSH1 0x0 PUSH2 0x1048 PUSH2 0x26A7 JUMP JUMPDEST PUSH1 0x0 DUP1 DUP3 PUSH2 0x12A5 DUP2 PUSH2 0x2492 JUMP JUMPDEST PUSH2 0x12AF DUP5 PUSH1 0x60 SHR SWAP1 JUMP JUMPDEST PUSH2 0x12B8 DUP6 PUSH2 0x1C49 JUMP JUMPDEST SWAP3 POP SWAP3 POP JUMPDEST POP SWAP2 POP SWAP2 JUMP JUMPDEST PUSH1 0x60 CALLER ADDRESS EQ PUSH2 0x137D JUMPI PUSH1 0x0 ADDRESS PUSH1 0x1 PUSH1 0x1 PUSH1 0xA0 SHL SUB AND PUSH1 0x0 CALLDATASIZE PUSH1 0x40 MLOAD PUSH2 0x12E9 SWAP3 SWAP2 SWAP1 PUSH2 0x5B3B JUMP JUMPDEST PUSH1 0x0 PUSH1 0x40 MLOAD DUP1 DUP4 SUB DUP2 PUSH1 0x0 DUP7 GAS CALL SWAP2 POP POP RETURNDATASIZE DUP1 PUSH1 0x0 DUP2 EQ PUSH2 0x1326 JUMPI PUSH1 0x40 MLOAD SWAP2 POP PUSH1 0x1F NOT PUSH1 0x3F RETURNDATASIZE ADD AND DUP3 ADD PUSH1 0x40 MSTORE RETURNDATASIZE DUP3 MSTORE RETURNDATASIZE PUSH1 0x0 PUSH1 0x20 DUP5 ADD RETURNDATACOPY PUSH2 0x132B JUMP JUMPDEST PUSH1 0x60 SWAP2 POP JUMPDEST POP POP SWAP1 POP DUP1 PUSH1 0x0 DUP2 EQ PUSH2 0x133A JUMPI INVALID JUMPDEST PUSH1 0x4 PUSH1 0x0 DUP1 RETURNDATACOPY PUSH1 0x0 MLOAD PUSH1 0x1 PUSH1 0x1 PUSH1 0xE0 SHL SUB NOT AND PUSH4 0x7D30E609 PUSH1 0xE1 SHL DUP2 EQ PUSH2 0x1365 JUMPI RETURNDATASIZE PUSH1 0x0 DUP1 RETURNDATACOPY RETURNDATASIZE PUSH1 0x0 REVERT JUMPDEST POP PUSH1 0x20 PUSH1 0x0 MSTORE PUSH1 0x4 RETURNDATASIZE SUB DUP1 PUSH1 0x4 PUSH1 0x20 RETURNDATACOPY PUSH1 0x20 DUP2 ADD PUSH1 0x0 RETURN JUMPDEST PUSH1 0x0 PUSH2 0x138B DUP6 DUP6 DUP6 DUP10 PUSH2 0x216B JUMP JUMPDEST SWAP1 POP PUSH1 0x20 DUP2 MLOAD MUL PUSH4 0xFA61CC12 PUSH1 0x20 DUP4 SUB MSTORE PUSH1 0x4 DUP3 SUB PUSH1 0x24 DUP3 ADD DUP2 REVERT JUMPDEST PUSH1 0x60 DUP1 PUSH1 0x0 DUP4 PUSH2 0x13B6 DUP2 PUSH2 0x2492 JUMP JUMPDEST PUSH1 0x60 PUSH2 0x13C1 DUP7 PUSH2 0x274D JUMP JUMPDEST SWAP1 SWAP6 POP SWAP1 POP PUSH2 0x13CF DUP2 PUSH2 0x27AC JUMP JUMPDEST SWAP6 SWAP8 SWAP1 SWAP7 POP SWAP4 POP POP POP POP JUMP JUMPDEST PUSH2 0x13E3 PUSH2 0x14F3 JUMP JUMPDEST PUSH2 0x13EB PUSH2 0x15A3 JUMP JUMPDEST DUP3 PUSH2 0x13F5 DUP2 PUSH2 0x189C JUMP JUMPDEST PUSH1 0x1 PUSH1 0x1 PUSH1 0xA0 SHL SUB DUP5 DUP2 AND PUSH1 0x0 DUP2 DUP2 MSTORE PUSH1 0x4 PUSH1 0x20 SWAP1 DUP2 MSTORE PUSH1 0x40 DUP1 DUP4 KECCAK256 SWAP5 DUP9 AND DUP1 DUP5 MSTORE SWAP5 DUP3 MSTORE SWAP2 DUP3 SWAP1 KECCAK256 DUP1 SLOAD PUSH1 0xFF NOT AND DUP8 ISZERO ISZERO SWAP1 DUP2 OR SWAP1 SWAP2 SSTORE SWAP2 MLOAD SWAP2 DUP3 MSTORE SWAP2 SWAP3 SWAP2 PUSH32 0x46961FDB4502B646D5095FBA7600486A8AC05041D55CDF0F16ED677180B5CAD8 SWAP2 ADD PUSH1 0x40 MLOAD DUP1 SWAP2 SUB SWAP1 LOG3 POP PUSH2 0xCF0 PUSH1 0x1 PUSH1 0x0 SSTORE JUMP JUMPDEST PUSH1 0x1 PUSH1 0x1 PUSH1 0xA0 SHL SUB DUP1 DUP4 AND PUSH1 0x0 SWAP1 DUP2 MSTORE PUSH1 0x4 PUSH1 0x20 SWAP1 DUP2 MSTORE PUSH1 0x40 DUP1 DUP4 KECCAK256 SWAP4 DUP6 AND DUP4 MSTORE SWAP3 SWAP1 MSTORE SWAP1 DUP2 KECCAK256 SLOAD PUSH1 0xFF AND JUMPDEST SWAP1 POP JUMPDEST SWAP3 SWAP2 POP POP JUMP JUMPDEST PUSH3 0x461BCD PUSH1 0xE5 SHL PUSH1 0x0 SWAP1 DUP2 MSTORE PUSH1 0x20 PUSH1 0x4 MSTORE PUSH1 0x7 PUSH1 0x24 MSTORE PUSH7 0x42414C23000030 PUSH1 0xA DUP1 DUP5 DIV DUP2 DUP2 MOD PUSH1 0x30 SWAP1 DUP2 ADD PUSH1 0x8 SHL SWAP6 DUP4 SWAP1 MOD SWAP6 SWAP1 SWAP6 ADD SWAP1 DUP3 SWAP1 DIV SWAP2 DUP3 MOD SWAP1 SWAP5 ADD PUSH1 0x10 SHL SWAP4 SWAP1 SWAP4 ADD ADD PUSH1 0xC8 SHL PUSH1 0x44 MSTORE PUSH1 0x64 SWAP1 REVERT JUMPDEST PUSH2 0x1505 PUSH1 0x2 PUSH1 0x0 SLOAD EQ ISZERO PUSH2 0x190 PUSH2 0x599 JUMP JUMPDEST PUSH1 0x2 PUSH1 0x0 SSTORE JUMP JUMPDEST PUSH1 0x0 PUSH2 0x1523 PUSH1 0x0 CALLDATALOAD PUSH1 0x1 PUSH1 0x1 PUSH1 0xE0 SHL SUB NOT AND PUSH2 0xE71 JUMP JUMPDEST SWAP1 POP PUSH2 0x5CE PUSH2 0x1532 DUP3 CALLER PUSH2 0x2873 JUMP JUMPDEST PUSH2 0x191 PUSH2 0x599 JUMP JUMPDEST PUSH1 0x40 MLOAD PUSH1 0x1 PUSH1 0x1 PUSH1 0xA0 SHL SUB DUP3 AND SWAP1 PUSH32 0x94B979B6831A51293E2641426F97747FEED46F17779FED9CD18D1ECEFCFE92EF SWAP1 PUSH1 0x0 SWAP1 LOG2 PUSH1 0x3 DUP1 SLOAD PUSH1 0x1 PUSH1 0x1 PUSH1 0xA0 SHL SUB SWAP1 SWAP3 AND PUSH2 0x100 MUL PUSH21 0xFFFFFFFFFFFFFFFFFFFFFFFFFFFFFFFFFFFFFFFF00 NOT SWAP1 SWAP3 AND SWAP2 SWAP1 SWAP2 OR SWAP1 SSTORE JUMP JUMPDEST PUSH2 0x15B6 PUSH2 0x15AE PUSH2 0x1866 JUMP JUMPDEST PUSH2 0x192 PUSH2 0x599 JUMP JUMPDEST JUMP JUMPDEST PUSH1 0x0 PUSH10 0xFFFFFFFFFFFFFFFFFFFF DUP3 AND PUSH1 0x50 DUP5 PUSH1 0x2 DUP2 GT ISZERO PUSH2 0x15DB JUMPI PUSH2 0x15DB PUSH2 0x588A JUMP JUMPDEST SWAP1 SHL OR PUSH1 0xC0 DUP6 SWAP1 SHL PUSH24 0xFFFFFFFFFFFFFFFFFFFFFFFFFFFFFFFFFFFFFFFFFFFFFFFF NOT AND OR SWAP1 POP JUMPDEST SWAP4 SWAP3 POP POP POP JUMP JUMPDEST PUSH1 0x0 DUP1 PUSH1 0x0 DUP1 PUSH1 0x0 DUP1 PUSH1 0x0 DUP9 PUSH1 0x60 ADD MLOAD SWAP1 POP CALLER PUSH1 0x1 PUSH1 0x1 PUSH1 0xA0 SHL SUB AND DUP2 PUSH1 0x1 PUSH1 0x1 PUSH1 0xA0 SHL SUB AND EQ PUSH2 0x1679 JUMPI DUP8 PUSH2 0x1646 JUMPI PUSH2 0x1641 PUSH2 0x150C JUMP JUMPDEST PUSH1 0x1 SWAP8 POP JUMPDEST PUSH1 0x1 PUSH1 0x1 PUSH1 0xA0 SHL SUB DUP2 AND PUSH1 0x0 SWAP1 DUP2 MSTORE PUSH1 0x4 PUSH1 0x20 SWAP1 DUP2 MSTORE PUSH1 0x40 DUP1 DUP4 KECCAK256 CALLER DUP5 MSTORE SWAP1 SWAP2 MSTORE SWAP1 KECCAK256 SLOAD PUSH2 0x1679 SWAP1 PUSH1 0xFF AND PUSH2 0x1F7 PUSH2 0x599 JUMP JUMPDEST DUP9 MLOAD PUSH1 0x20 DUP11 ADD MLOAD PUSH1 0x40 DUP12 ADD MLOAD PUSH1 0x80 SWAP1 SWAP12 ADD MLOAD SWAP2 SWAP12 SWAP1 SWAP11 SWAP10 SWAP3 SWAP9 POP SWAP1 SWAP7 POP SWAP1 SWAP5 POP SWAP3 POP POP POP JUMP JUMPDEST PUSH2 0x16B4 DUP4 PUSH2 0x16AC DUP7 PUSH2 0x18EB JUMP JUMPDEST DUP4 PUSH1 0x0 PUSH2 0x2903 JUMP JUMPDEST POP PUSH2 0xEEC DUP5 DUP3 DUP5 PUSH1 0x0 PUSH2 0x1B27 JUMP JUMPDEST PUSH2 0x16D5 DUP3 PUSH2 0x16CF DUP7 PUSH2 0x18EB JUMP JUMPDEST DUP4 PUSH2 0x2983 JUMP JUMPDEST PUSH2 0xEEC DUP5 DUP3 DUP6 PUSH1 0x0 PUSH2 0x1A32 JUMP JUMPDEST PUSH2 0x16EF DUP4 DUP6 DUP4 PUSH1 0x0 PUSH2 0x2903 JUMP JUMPDEST POP PUSH2 0xEEC DUP3 DUP6 DUP4 PUSH2 0x2983 JUMP JUMPDEST DUP1 ISZERO PUSH2 0xEEC JUMPI PUSH2 0x1716 PUSH1 0x1 PUSH1 0x1 PUSH1 0xA0 SHL SUB DUP6 AND DUP5 DUP5 DUP5 PUSH2 0x29C7 JUMP JUMPDEST PUSH1 0x40 DUP1 MLOAD PUSH1 0x1 PUSH1 0x1 PUSH1 0xA0 SHL SUB DUP5 DUP2 AND DUP3 MSTORE PUSH1 0x20 DUP3 ADD DUP5 SWAP1 MSTORE DUP1 DUP7 AND SWAP3 SWAP1 DUP8 AND SWAP2 PUSH32 0x540A1A3F28340CAEC336C81D8D7B3DF139EE5CDC1839A4F283D7EBB7EAAE2D5C SWAP2 ADD JUMPDEST PUSH1 0x40 MLOAD DUP1 SWAP2 SUB SWAP1 LOG3 POP POP POP POP JUMP JUMPDEST PUSH2 0x1777 DUP2 CALLVALUE LT ISZERO PUSH2 0x204 PUSH2 0x599 JUMP JUMPDEST PUSH1 0x0 PUSH2 0x1783 DUP3 CALLVALUE PUSH2 0x5B4B JUMP JUMPDEST SWAP1 POP DUP1 ISZERO PUSH2 0x5A7 JUMPI PUSH1 0x40 MLOAD CALLER SWAP1 DUP3 ISZERO PUSH2 0x8FC MUL SWAP1 DUP4 SWAP1 PUSH1 0x0 DUP2 DUP2 DUP2 DUP6 DUP9 DUP9 CALL SWAP4 POP POP POP POP ISZERO DUP1 ISZERO PUSH2 0xCF0 JUMPI RETURNDATASIZE PUSH1 0x0 DUP1 RETURNDATACOPY RETURNDATASIZE PUSH1 0x0 REVERT JUMPDEST DUP1 ISZERO PUSH2 0x17F1 JUMPI PUSH2 0x17EC PUSH32 0x0 TIMESTAMP LT PUSH2 0x193 PUSH2 0x599 JUMP JUMPDEST PUSH2 0x181F JUMP JUMPDEST PUSH2 0x181F PUSH32 0x0 TIMESTAMP LT PUSH2 0x1A9 PUSH2 0x599 JUMP JUMPDEST PUSH1 0x3 DUP1 SLOAD PUSH1 0xFF NOT AND DUP3 ISZERO ISZERO SWAP1 DUP2 OR SWAP1 SWAP2 SSTORE PUSH1 0x40 MLOAD SWAP1 DUP2 MSTORE PUSH32 0x9E3A5E37224532DEA67B89FACE185703738A228A6E8A23DEE546960180D3BE64 SWAP1 PUSH1 0x20 ADD PUSH1 0x40 MLOAD DUP1 SWAP2 SUB SWAP1 LOG1 POP JUMP JUMPDEST PUSH1 0x0 PUSH32 0x0 TIMESTAMP GT DUP1 PUSH2 0x1048 JUMPI POP POP PUSH1 0x3 SLOAD PUSH1 0xFF AND ISZERO SWAP1 JUMP JUMPDEST CALLER PUSH1 0x1 PUSH1 0x1 PUSH1 0xA0 SHL SUB DUP3 AND EQ PUSH2 0x5CE JUMPI PUSH2 0x18B4 PUSH2 0x150C JUMP JUMPDEST PUSH1 0x1 PUSH1 0x1 PUSH1 0xA0 SHL SUB DUP2 AND PUSH1 0x0 SWAP1 DUP2 MSTORE PUSH1 0x4 PUSH1 0x20 SWAP1 DUP2 MSTORE PUSH1 0x40 DUP1 DUP4 KECCAK256 CALLER DUP5 MSTORE SWAP1 SWAP2 MSTORE SWAP1 KECCAK256 SLOAD PUSH1 0xFF AND PUSH2 0x5CE JUMPI PUSH2 0x5CE DUP2 PUSH2 0x1F7 PUSH2 0x2A32 JUMP JUMPDEST PUSH1 0x0 PUSH1 0x1 PUSH1 0x1 PUSH1 0xA0 SHL SUB DUP3 AND ISZERO PUSH2 0x1902 JUMPI DUP2 PUSH2 0x149A JUMP JUMPDEST PUSH32 0x0 PUSH2 0x149A JUMP JUMPDEST PUSH1 0x0 DUP1 PUSH1 0x0 DUP1 PUSH2 0x193C DUP6 PUSH1 0x80 ADD MLOAD PUSH1 0x60 SHR SWAP1 JUMP JUMPDEST SWAP1 POP PUSH1 0x0 PUSH2 0x194D DUP7 PUSH1 0x80 ADD MLOAD PUSH2 0x1C49 JUMP JUMPDEST SWAP1 POP PUSH1 0x2 DUP2 PUSH1 0x2 DUP2 GT ISZERO PUSH2 0x1963 JUMPI PUSH2 0x1963 PUSH2 0x588A JUMP JUMPDEST EQ ISZERO PUSH2 0x197A JUMPI PUSH2 0x1973 DUP7 DUP4 PUSH2 0x2A70 JUMP JUMPDEST SWAP5 POP PUSH2 0x19AB JUMP JUMPDEST PUSH1 0x1 DUP2 PUSH1 0x2 DUP2 GT ISZERO PUSH2 0x198E JUMPI PUSH2 0x198E PUSH2 0x588A JUMP JUMPDEST EQ ISZERO PUSH2 0x199E JUMPI PUSH2 0x1973 DUP7 DUP4 PUSH2 0x2B20 JUMP JUMPDEST PUSH2 0x19A8 DUP7 DUP4 PUSH2 0x2BB3 JUMP JUMPDEST SWAP5 POP JUMPDEST PUSH2 0x19BE DUP7 PUSH1 0x0 ADD MLOAD DUP8 PUSH1 0x60 ADD MLOAD DUP8 PUSH2 0x2E0F JUMP JUMPDEST DUP1 SWAP5 POP DUP2 SWAP6 POP POP POP DUP6 PUSH1 0x40 ADD MLOAD PUSH1 0x1 PUSH1 0x1 PUSH1 0xA0 SHL SUB AND DUP7 PUSH1 0x20 ADD MLOAD PUSH1 0x1 PUSH1 0x1 PUSH1 0xA0 SHL SUB AND DUP8 PUSH1 0x80 ADD MLOAD PUSH32 0x2170C741C41531AEC20E7C107C24EECFDD15E69C9BB0A8DD37B1840B9E0B207B DUP8 DUP8 PUSH1 0x40 MLOAD PUSH2 0x1A21 SWAP3 SWAP2 SWAP1 SWAP2 DUP3 MSTORE PUSH1 0x20 DUP3 ADD MSTORE PUSH1 0x40 ADD SWAP1 JUMP JUMPDEST PUSH1 0x40 MLOAD DUP1 SWAP2 SUB SWAP1 LOG4 POP POP SWAP2 SWAP4 SWAP1 SWAP3 POP JUMP JUMPDEST DUP3 PUSH2 0x1A3C JUMPI PUSH2 0xEEC JUMP JUMPDEST PUSH1 0x1 PUSH1 0x1 PUSH1 0xA0 SHL SUB DUP5 AND PUSH2 0x1ADF JUMPI PUSH2 0x1A57 DUP2 ISZERO PUSH2 0x202 PUSH2 0x599 JUMP JUMPDEST PUSH2 0x1A66 DUP4 SELFBALANCE LT ISZERO PUSH2 0x204 PUSH2 0x599 JUMP JUMPDEST PUSH32 0x0 PUSH1 0x1 PUSH1 0x1 PUSH1 0xA0 SHL SUB AND PUSH4 0xD0E30DB0 DUP5 PUSH1 0x40 MLOAD DUP3 PUSH4 0xFFFFFFFF AND PUSH1 0xE0 SHL DUP2 MSTORE PUSH1 0x4 ADD PUSH1 0x0 PUSH1 0x40 MLOAD DUP1 DUP4 SUB DUP2 DUP6 DUP9 DUP1 EXTCODESIZE ISZERO DUP1 ISZERO PUSH2 0x1AC1 JUMPI PUSH1 0x0 DUP1 REVERT JUMPDEST POP GAS CALL ISZERO DUP1 ISZERO PUSH2 0x1AD5 JUMPI RETURNDATASIZE PUSH1 0x0 DUP1 RETURNDATACOPY RETURNDATASIZE PUSH1 0x0 REVERT JUMPDEST POP POP POP POP POP PUSH2 0xEEC JUMP JUMPDEST DUP4 DUP2 ISZERO PUSH2 0x1B05 JUMPI PUSH1 0x0 PUSH2 0x1AF5 DUP5 DUP4 DUP8 PUSH1 0x1 PUSH2 0x2903 JUMP JUMPDEST SWAP1 POP PUSH2 0x1B01 DUP2 DUP7 PUSH2 0x5B4B JUMP JUMPDEST SWAP5 POP POP JUMPDEST DUP4 ISZERO PUSH2 0x1B20 JUMPI PUSH2 0x1B20 PUSH1 0x1 PUSH1 0x1 PUSH1 0xA0 SHL SUB DUP3 AND DUP5 ADDRESS DUP8 PUSH2 0x29C7 JUMP JUMPDEST POP POP POP POP POP JUMP JUMPDEST DUP3 PUSH2 0x1B31 JUMPI PUSH2 0xEEC JUMP JUMPDEST PUSH1 0x1 PUSH1 0x1 PUSH1 0xA0 SHL SUB DUP5 AND PUSH2 0x1BDF JUMPI PUSH2 0x1B4C DUP2 ISZERO PUSH2 0x202 PUSH2 0x599 JUMP JUMPDEST PUSH1 0x40 MLOAD PUSH4 0x2E1A7D4D PUSH1 0xE0 SHL DUP2 MSTORE PUSH1 0x4 DUP2 ADD DUP5 SWAP1 MSTORE PUSH1 0x1 PUSH1 0x1 PUSH1 0xA0 SHL SUB PUSH32 0x0 AND SWAP1 PUSH4 0x2E1A7D4D SWAP1 PUSH1 0x24 ADD PUSH1 0x0 PUSH1 0x40 MLOAD DUP1 DUP4 SUB DUP2 PUSH1 0x0 DUP8 DUP1 EXTCODESIZE ISZERO DUP1 ISZERO PUSH2 0x1BAE JUMPI PUSH1 0x0 DUP1 REVERT JUMPDEST POP GAS CALL ISZERO DUP1 ISZERO PUSH2 0x1BC2 JUMPI RETURNDATASIZE PUSH1 0x0 DUP1 RETURNDATACOPY RETURNDATASIZE PUSH1 0x0 REVERT JUMPDEST POP PUSH2 0x1BDA SWAP3 POP POP POP PUSH1 0x1 PUSH1 0x1 PUSH1 0xA0 SHL SUB DUP4 AND DUP5 PUSH2 0x2E43 JUMP JUMPDEST PUSH2 0xEEC JUMP JUMPDEST DUP4 DUP2 ISZERO PUSH2 0x1BF6 JUMPI PUSH2 0x1BF1 DUP4 DUP3 DUP7 PUSH2 0x2983 JUMP JUMPDEST PUSH2 0x1B20 JUMP JUMPDEST PUSH2 0x1B20 PUSH1 0x1 PUSH1 0x1 PUSH1 0xA0 SHL SUB DUP3 AND DUP5 DUP7 PUSH2 0x2EB4 JUMP JUMPDEST PUSH2 0x1C13 DUP2 PUSH2 0x2492 JUMP JUMPDEST PUSH2 0x5CE PUSH2 0x1C20 DUP3 PUSH1 0x60 SHR SWAP1 JUMP JUMPDEST PUSH1 0x1 PUSH1 0x1 PUSH1 0xA0 SHL SUB AND CALLER PUSH1 0x1 PUSH1 0x1 PUSH1 0xA0 SHL SUB AND EQ PUSH2 0x1F5 PUSH2 0x599 JUMP JUMPDEST PUSH2 0x5A7 DUP2 DUP4 EQ PUSH1 0x67 PUSH2 0x599 JUMP JUMPDEST PUSH1 0x0 PUSH2 0xFFFF PUSH1 0x50 DUP4 SWAP1 SHR AND PUSH2 0x149A PUSH1 0x3 DUP3 LT PUSH2 0x1F4 PUSH2 0x599 JUMP JUMPDEST PUSH2 0x1C84 DUP2 PUSH1 0x1 PUSH1 0x1 PUSH1 0xA0 SHL SUB AND DUP4 PUSH1 0x1 PUSH1 0x1 PUSH1 0xA0 SHL SUB AND EQ ISZERO PUSH2 0x20A PUSH2 0x599 JUMP JUMPDEST PUSH2 0x1CA3 DUP2 PUSH1 0x1 PUSH1 0x1 PUSH1 0xA0 SHL SUB AND DUP4 PUSH1 0x1 PUSH1 0x1 PUSH1 0xA0 SHL SUB AND LT PUSH1 0x66 PUSH2 0x599 JUMP JUMPDEST PUSH1 0x0 DUP4 DUP2 MSTORE PUSH1 0x9 PUSH1 0x20 MSTORE PUSH1 0x40 SWAP1 KECCAK256 DUP1 SLOAD PUSH2 0x1CE0 SWAP1 PUSH1 0x1 PUSH1 0x1 PUSH1 0xA0 SHL SUB AND ISZERO DUP1 ISZERO PUSH2 0x1CD8 JUMPI POP PUSH1 0x1 DUP3 ADD SLOAD PUSH1 0x1 PUSH1 0x1 PUSH1 0xA0 SHL SUB AND ISZERO JUMPDEST PUSH2 0x20B PUSH2 0x599 JUMP JUMPDEST DUP1 SLOAD PUSH1 0x1 PUSH1 0x1 PUSH1 0xA0 SHL SUB SWAP4 DUP5 AND PUSH1 0x1 PUSH1 0x1 PUSH1 0xA0 SHL SUB NOT SWAP2 DUP3 AND OR DUP3 SSTORE PUSH1 0x1 SWAP1 SWAP2 ADD DUP1 SLOAD SWAP3 SWAP1 SWAP4 AND SWAP2 AND OR SWAP1 SSTORE POP JUMP JUMPDEST PUSH1 0x0 DUP3 DUP2 MSTORE PUSH1 0x8 PUSH1 0x20 MSTORE PUSH1 0x40 DUP2 KECCAK256 SWAP1 JUMPDEST DUP3 MLOAD DUP2 LT ISZERO PUSH2 0xEEC JUMPI PUSH1 0x0 PUSH2 0x1D56 DUP5 DUP4 DUP2 MLOAD DUP2 LT PUSH2 0x1D3F JUMPI PUSH2 0x1D3F PUSH2 0x5A7A JUMP JUMPDEST PUSH1 0x20 MUL PUSH1 0x20 ADD ADD MLOAD DUP5 PUSH2 0x2EE4 SWAP1 SWAP2 SWAP1 PUSH4 0xFFFFFFFF AND JUMP JUMPDEST SWAP1 POP PUSH2 0x1D64 DUP2 PUSH2 0x20A PUSH2 0x599 JUMP JUMPDEST POP PUSH2 0x1D6E DUP2 PUSH2 0x5A90 JUMP JUMPDEST SWAP1 POP PUSH2 0x1D1F JUMP JUMPDEST PUSH1 0x0 DUP3 DUP2 MSTORE PUSH1 0x1 PUSH1 0x20 MSTORE PUSH1 0x40 DUP2 KECCAK256 SWAP1 JUMPDEST DUP3 MLOAD DUP2 LT ISZERO PUSH2 0xEEC JUMPI PUSH1 0x0 PUSH2 0x1DB9 DUP5 DUP4 DUP2 MLOAD DUP2 LT PUSH2 0x1DA5 JUMPI PUSH2 0x1DA5 PUSH2 0x5A7A JUMP JUMPDEST PUSH1 0x20 SWAP1 DUP2 MUL SWAP2 SWAP1 SWAP2 ADD ADD MLOAD DUP5 SWAP1 PUSH1 0x0 PUSH2 0x2F56 JUMP JUMPDEST SWAP1 POP PUSH2 0x1DC7 DUP2 PUSH2 0x20A PUSH2 0x599 JUMP JUMPDEST POP PUSH2 0x1DD1 DUP2 PUSH2 0x5A90 JUMP JUMPDEST SWAP1 POP PUSH2 0x1D85 JUMP JUMPDEST PUSH1 0x0 DUP1 PUSH1 0x0 PUSH2 0x1DE8 DUP7 DUP7 DUP7 PUSH2 0x3035 JUMP JUMPDEST SWAP3 POP SWAP3 POP SWAP3 POP PUSH2 0x1E1D PUSH2 0x1E02 DUP5 PUSH1 0x1 PUSH1 0x1 PUSH1 0xE0 SHL SUB AND ISZERO SWAP1 JUMP JUMPDEST DUP1 ISZERO PUSH2 0x1E15 JUMPI POP PUSH1 0x1 PUSH1 0x1 PUSH1 0xE0 SHL SUB DUP4 AND ISZERO JUMPDEST PUSH2 0x20D PUSH2 0x599 JUMP JUMPDEST PUSH1 0x0 SWAP6 DUP7 MSTORE PUSH1 0x9 PUSH1 0x20 MSTORE PUSH1 0x40 DUP7 KECCAK256 DUP1 SLOAD PUSH1 0x1 PUSH1 0x1 PUSH1 0xA0 SHL SUB NOT SWAP1 DUP2 AND DUP3 SSTORE PUSH1 0x1 SWAP1 SWAP2 ADD DUP1 SLOAD SWAP1 SWAP2 AND SWAP1 SSTORE SWAP5 SWAP1 SWAP5 SSTORE POP POP POP POP JUMP JUMPDEST PUSH1 0x0 DUP3 DUP2 MSTORE PUSH1 0x8 PUSH1 0x20 MSTORE PUSH1 0x40 DUP2 KECCAK256 SWAP1 JUMPDEST DUP3 MLOAD DUP2 LT ISZERO PUSH2 0xEEC JUMPI PUSH1 0x0 DUP4 DUP3 DUP2 MLOAD DUP2 LT PUSH2 0x1E7E JUMPI PUSH2 0x1E7E PUSH2 0x5A7A JUMP JUMPDEST PUSH1 0x20 SWAP1 DUP2 MUL SWAP2 SWAP1 SWAP2 ADD DUP2 ADD MLOAD PUSH1 0x0 DUP8 DUP2 MSTORE PUSH1 0x7 DUP4 MSTORE PUSH1 0x40 DUP1 DUP3 KECCAK256 PUSH1 0x1 PUSH1 0x1 PUSH1 0xA0 SHL SUB DUP5 AND DUP4 MSTORE SWAP1 SWAP4 MSTORE SWAP2 SWAP1 SWAP2 KECCAK256 SLOAD SWAP1 SWAP2 POP PUSH2 0x1EC2 SWAP1 PUSH1 0x1 PUSH1 0x1 PUSH1 0xE0 SHL SUB AND ISZERO PUSH2 0x1E15 JUMP JUMPDEST PUSH1 0x0 DUP6 DUP2 MSTORE PUSH1 0x7 PUSH1 0x20 SWAP1 DUP2 MSTORE PUSH1 0x40 DUP1 DUP4 KECCAK256 PUSH1 0x1 PUSH1 0x1 PUSH1 0xA0 SHL SUB DUP6 AND DUP5 MSTORE SWAP1 SWAP2 MSTORE DUP2 KECCAK256 DUP2 SWAP1 SSTORE PUSH2 0x1EF1 DUP5 DUP4 PUSH2 0x3103 JUMP JUMPDEST SWAP1 POP PUSH2 0x1EFF DUP2 PUSH2 0x209 PUSH2 0x599 JUMP JUMPDEST POP POP DUP1 PUSH2 0x1F0B SWAP1 PUSH2 0x5A90 JUMP JUMPDEST SWAP1 POP PUSH2 0x1E61 JUMP JUMPDEST PUSH1 0x0 DUP3 DUP2 MSTORE PUSH1 0x1 PUSH1 0x20 MSTORE PUSH1 0x40 DUP2 KECCAK256 SWAP1 JUMPDEST DUP3 MLOAD DUP2 LT ISZERO PUSH2 0xEEC JUMPI PUSH1 0x0 DUP4 DUP3 DUP2 MLOAD DUP2 LT PUSH2 0x1F3F JUMPI PUSH2 0x1F3F PUSH2 0x5A7A JUMP JUMPDEST PUSH1 0x20 MUL PUSH1 0x20 ADD ADD MLOAD SWAP1 POP PUSH1 0x0 PUSH2 0x1F55 DUP5 DUP4 PUSH2 0x324D JUMP JUMPDEST SWAP1 POP PUSH2 0x1F6A PUSH1 0x1 PUSH1 0x1 PUSH1 0xE0 SHL SUB DUP3 AND ISZERO PUSH2 0x1E15 JUMP JUMPDEST PUSH2 0x1F74 DUP5 DUP4 PUSH2 0x325C JUMP JUMPDEST POP POP POP DUP1 PUSH2 0x1F81 SWAP1 PUSH2 0x5A90 JUMP JUMPDEST SWAP1 POP PUSH2 0x1F22 JUMP JUMPDEST PUSH2 0x1FB5 PUSH1 0x40 MLOAD DUP1 PUSH1 0x80 ADD PUSH1 0x40 MSTORE DUP1 PUSH1 0x60 DUP2 MSTORE PUSH1 0x20 ADD PUSH1 0x60 DUP2 MSTORE PUSH1 0x20 ADD PUSH1 0x60 DUP2 MSTORE PUSH1 0x20 ADD PUSH1 0x0 ISZERO ISZERO DUP2 MSTORE POP SWAP1 JUMP JUMPDEST POP SWAP1 JUMP JUMPDEST PUSH2 0x1FC1 PUSH2 0x14F3 JUMP JUMPDEST DUP4 PUSH2 0x1FCB DUP2 PUSH2 0x2492 JUMP JUMPDEST DUP4 PUSH2 0x1FD5 DUP2 PUSH2 0x189C JUMP JUMPDEST PUSH2 0x1FE9 DUP4 PUSH1 0x0 ADD MLOAD MLOAD DUP5 PUSH1 0x20 ADD MLOAD MLOAD PUSH2 0x1C3C JUMP JUMPDEST PUSH1 0x0 PUSH2 0x1FF8 DUP5 PUSH1 0x0 ADD MLOAD PUSH2 0x3355 JUMP JUMPDEST SWAP1 POP PUSH1 0x0 PUSH2 0x2006 DUP9 DUP4 PUSH2 0x33F9 JUMP JUMPDEST SWAP1 POP PUSH1 0x0 DUP1 PUSH1 0x0 PUSH2 0x201B DUP13 DUP13 DUP13 DUP13 DUP13 DUP10 PUSH2 0x349E JUMP JUMPDEST SWAP3 POP SWAP3 POP SWAP3 POP PUSH1 0x0 PUSH2 0x202C DUP13 PUSH2 0x1C49 JUMP JUMPDEST SWAP1 POP PUSH1 0x2 DUP2 PUSH1 0x2 DUP2 GT ISZERO PUSH2 0x2042 JUMPI PUSH2 0x2042 PUSH2 0x588A JUMP JUMPDEST EQ ISZERO PUSH2 0x20C2 JUMPI PUSH2 0x20BD DUP13 DUP8 PUSH1 0x0 DUP2 MLOAD DUP2 LT PUSH2 0x205F JUMPI PUSH2 0x205F PUSH2 0x5A7A JUMP JUMPDEST PUSH1 0x20 MUL PUSH1 0x20 ADD ADD MLOAD DUP7 PUSH1 0x0 DUP2 MLOAD DUP2 LT PUSH2 0x207A JUMPI PUSH2 0x207A PUSH2 0x5A7A JUMP JUMPDEST PUSH1 0x20 MUL PUSH1 0x20 ADD ADD MLOAD DUP10 PUSH1 0x1 DUP2 MLOAD DUP2 LT PUSH2 0x2095 JUMPI PUSH2 0x2095 PUSH2 0x5A7A JUMP JUMPDEST PUSH1 0x20 MUL PUSH1 0x20 ADD ADD MLOAD DUP9 PUSH1 0x1 DUP2 MLOAD DUP2 LT PUSH2 0x20B0 JUMPI PUSH2 0x20B0 PUSH2 0x5A7A JUMP JUMPDEST PUSH1 0x20 MUL PUSH1 0x20 ADD ADD MLOAD PUSH2 0x3670 JUMP JUMPDEST PUSH2 0x20F1 JUMP JUMPDEST PUSH1 0x1 DUP2 PUSH1 0x2 DUP2 GT ISZERO PUSH2 0x20D6 JUMPI PUSH2 0x20D6 PUSH2 0x588A JUMP JUMPDEST EQ ISZERO PUSH2 0x20E7 JUMPI PUSH2 0x20BD DUP13 DUP8 DUP7 PUSH2 0x36AF JUMP JUMPDEST PUSH2 0x20F1 DUP13 DUP6 PUSH2 0x3739 JUMP JUMPDEST PUSH1 0x0 DUP1 DUP15 PUSH1 0x1 DUP2 GT ISZERO PUSH2 0x2106 JUMPI PUSH2 0x2106 PUSH2 0x588A JUMP JUMPDEST EQ SWAP1 POP DUP12 PUSH1 0x1 PUSH1 0x1 PUSH1 0xA0 SHL SUB AND DUP14 PUSH32 0xE5CE249087CE04F05A957192435400FD97868DBA0E6A4B4C049ABF8AF80DAE78 DUP10 PUSH2 0x2140 DUP9 DUP7 PUSH2 0x3790 JUMP JUMPDEST DUP8 PUSH1 0x40 MLOAD PUSH2 0x2150 SWAP4 SWAP3 SWAP2 SWAP1 PUSH2 0x5B62 JUMP JUMPDEST PUSH1 0x40 MLOAD DUP1 SWAP2 SUB SWAP1 LOG3 POP POP POP POP POP POP POP POP POP PUSH2 0x1B20 PUSH1 0x1 PUSH1 0x0 SSTORE JUMP JUMPDEST PUSH1 0x60 DUP4 MLOAD PUSH1 0x1 PUSH1 0x1 PUSH1 0x40 SHL SUB DUP2 GT ISZERO PUSH2 0x2186 JUMPI PUSH2 0x2186 PUSH2 0x4DCC JUMP JUMPDEST PUSH1 0x40 MLOAD SWAP1 DUP1 DUP3 MSTORE DUP1 PUSH1 0x20 MUL PUSH1 0x20 ADD DUP3 ADD PUSH1 0x40 MSTORE DUP1 ISZERO PUSH2 0x21AF JUMPI DUP2 PUSH1 0x20 ADD PUSH1 0x20 DUP3 MUL DUP1 CALLDATASIZE DUP4 CALLDATACOPY ADD SWAP1 POP JUMPDEST POP SWAP1 POP PUSH2 0x21E7 PUSH1 0x40 MLOAD DUP1 PUSH1 0xA0 ADD PUSH1 0x40 MSTORE DUP1 PUSH1 0x0 DUP1 NOT AND DUP2 MSTORE PUSH1 0x20 ADD PUSH1 0x0 DUP2 MSTORE PUSH1 0x20 ADD PUSH1 0x0 DUP2 MSTORE PUSH1 0x20 ADD PUSH1 0x0 DUP2 MSTORE PUSH1 0x20 ADD PUSH1 0x60 DUP2 MSTORE POP SWAP1 JUMP JUMPDEST PUSH1 0x40 DUP1 MLOAD PUSH2 0x120 DUP2 ADD DUP3 MSTORE PUSH1 0x0 DUP1 DUP3 MSTORE PUSH1 0x20 DUP3 ADD DUP2 SWAP1 MSTORE SWAP2 DUP2 ADD DUP3 SWAP1 MSTORE PUSH1 0x60 DUP1 DUP3 ADD DUP4 SWAP1 MSTORE PUSH1 0x80 DUP3 ADD DUP4 SWAP1 MSTORE PUSH1 0xA0 DUP3 ADD DUP4 SWAP1 MSTORE PUSH1 0xC0 DUP3 ADD DUP4 SWAP1 MSTORE PUSH1 0xE0 DUP3 ADD DUP4 SWAP1 MSTORE PUSH2 0x100 DUP3 ADD MSTORE SWAP1 DUP1 DUP1 JUMPDEST DUP10 MLOAD DUP2 LT ISZERO PUSH2 0x2485 JUMPI DUP10 DUP2 DUP2 MLOAD DUP2 LT PUSH2 0x224D JUMPI PUSH2 0x224D PUSH2 0x5A7A JUMP JUMPDEST PUSH1 0x20 MUL PUSH1 0x20 ADD ADD MLOAD SWAP5 POP PUSH1 0x0 DUP10 MLOAD DUP7 PUSH1 0x20 ADD MLOAD LT DUP1 ISZERO PUSH2 0x2271 JUMPI POP DUP10 MLOAD DUP7 PUSH1 0x40 ADD MLOAD LT JUMPDEST SWAP1 POP PUSH2 0x227E DUP2 PUSH1 0x64 PUSH2 0x599 JUMP JUMPDEST PUSH1 0x0 PUSH2 0x22A6 DUP12 DUP9 PUSH1 0x20 ADD MLOAD DUP2 MLOAD DUP2 LT PUSH2 0x2299 JUMPI PUSH2 0x2299 PUSH2 0x5A7A JUMP JUMPDEST PUSH1 0x20 MUL PUSH1 0x20 ADD ADD MLOAD PUSH2 0x18EB JUMP JUMPDEST SWAP1 POP PUSH1 0x0 PUSH2 0x22C3 DUP13 DUP10 PUSH1 0x40 ADD MLOAD DUP2 MLOAD DUP2 LT PUSH2 0x2299 JUMPI PUSH2 0x2299 PUSH2 0x5A7A JUMP JUMPDEST SWAP1 POP PUSH2 0x22E6 DUP2 PUSH1 0x1 PUSH1 0x1 PUSH1 0xA0 SHL SUB AND DUP4 PUSH1 0x1 PUSH1 0x1 PUSH1 0xA0 SHL SUB AND EQ ISZERO PUSH2 0x1FD PUSH2 0x599 JUMP JUMPDEST PUSH1 0x60 DUP9 ADD MLOAD PUSH2 0x2336 JUMPI PUSH2 0x22FE PUSH1 0x0 DUP6 GT PUSH2 0x1FE PUSH2 0x599 JUMP JUMPDEST PUSH1 0x0 PUSH2 0x230B DUP12 DUP5 DUP5 PUSH2 0x385A JUMP JUMPDEST PUSH1 0x1 PUSH1 0x1 PUSH1 0xA0 SHL SUB AND DUP8 PUSH1 0x1 PUSH1 0x1 PUSH1 0xA0 SHL SUB AND EQ SWAP1 POP PUSH2 0x232D DUP2 PUSH2 0x1FF PUSH2 0x599 JUMP JUMPDEST POP PUSH1 0x60 DUP9 ADD DUP6 SWAP1 MSTORE JUMPDEST DUP8 MLOAD PUSH1 0x80 DUP9 ADD MSTORE DUP7 DUP11 PUSH1 0x1 DUP2 GT ISZERO PUSH2 0x2350 JUMPI PUSH2 0x2350 PUSH2 0x588A JUMP JUMPDEST SWAP1 DUP2 PUSH1 0x1 DUP2 GT ISZERO PUSH2 0x2363 JUMPI PUSH2 0x2363 PUSH2 0x588A JUMP JUMPDEST SWAP1 MSTORE POP PUSH1 0x1 PUSH1 0x1 PUSH1 0xA0 SHL SUB DUP1 DUP4 AND PUSH1 0x20 DUP10 ADD MSTORE DUP2 DUP2 AND PUSH1 0x40 DUP1 DUP11 ADD SWAP2 SWAP1 SWAP2 MSTORE PUSH1 0x60 DUP1 DUP12 ADD MLOAD SWAP1 DUP11 ADD MSTORE PUSH1 0x80 DUP11 ADD MLOAD PUSH2 0x100 DUP11 ADD MSTORE DUP13 MLOAD DUP3 AND PUSH1 0xC0 DUP11 ADD MSTORE DUP13 ADD MLOAD AND PUSH1 0xE0 DUP9 ADD MSTORE PUSH1 0x0 DUP1 PUSH2 0x23B5 DUP10 PUSH2 0x1928 JUMP JUMPDEST SWAP2 SWAP9 POP SWAP3 POP SWAP1 POP PUSH2 0x23C7 DUP13 DUP6 DUP6 PUSH2 0x3882 JUMP JUMPDEST SWAP8 POP PUSH2 0x23D2 DUP3 PUSH2 0x38A2 JUMP JUMPDEST DUP12 DUP12 PUSH1 0x20 ADD MLOAD DUP2 MLOAD DUP2 LT PUSH2 0x23E8 JUMPI PUSH2 0x23E8 PUSH2 0x5A7A JUMP JUMPDEST PUSH1 0x20 MUL PUSH1 0x20 ADD ADD MLOAD PUSH2 0x23FA SWAP2 SWAP1 PUSH2 0x5B9B JUMP JUMPDEST DUP12 DUP12 PUSH1 0x20 ADD MLOAD DUP2 MLOAD DUP2 LT PUSH2 0x2410 JUMPI PUSH2 0x2410 PUSH2 0x5A7A JUMP JUMPDEST PUSH1 0x20 MUL PUSH1 0x20 ADD ADD DUP2 DUP2 MSTORE POP POP PUSH2 0x2425 DUP2 PUSH2 0x38A2 JUMP JUMPDEST DUP12 DUP12 PUSH1 0x40 ADD MLOAD DUP2 MLOAD DUP2 LT PUSH2 0x243B JUMPI PUSH2 0x243B PUSH2 0x5A7A JUMP JUMPDEST PUSH1 0x20 MUL PUSH1 0x20 ADD ADD MLOAD PUSH2 0x244D SWAP2 SWAP1 PUSH2 0x5BDC JUMP JUMPDEST DUP12 DUP12 PUSH1 0x40 ADD MLOAD DUP2 MLOAD DUP2 LT PUSH2 0x2463 JUMPI PUSH2 0x2463 PUSH2 0x5A7A JUMP JUMPDEST PUSH1 0x20 MUL PUSH1 0x20 ADD ADD DUP2 DUP2 MSTORE POP POP POP POP POP POP POP DUP1 PUSH2 0x247E SWAP1 PUSH2 0x5A90 JUMP JUMPDEST SWAP1 POP PUSH2 0x2232 JUMP JUMPDEST POP POP POP POP POP SWAP5 SWAP4 POP POP POP POP JUMP JUMPDEST PUSH1 0x0 DUP2 DUP2 MSTORE PUSH1 0x5 PUSH1 0x20 MSTORE PUSH1 0x40 SWAP1 KECCAK256 SLOAD PUSH2 0x5CE SWAP1 PUSH1 0xFF AND PUSH2 0x1F4 PUSH2 0x599 JUMP JUMPDEST PUSH1 0x0 DUP1 PUSH1 0x0 DUP1 PUSH1 0x0 PUSH2 0x24C1 DUP8 PUSH2 0x38B6 JUMP JUMPDEST SWAP5 POP SWAP5 POP SWAP5 POP SWAP5 POP POP DUP4 PUSH1 0x1 PUSH1 0x1 PUSH1 0xA0 SHL SUB AND DUP7 PUSH1 0x1 PUSH1 0x1 PUSH1 0xA0 SHL SUB AND EQ ISZERO PUSH2 0x24F0 JUMPI DUP3 SWAP5 POP POP POP POP POP PUSH2 0x149A JUMP JUMPDEST DUP2 PUSH1 0x1 PUSH1 0x1 PUSH1 0xA0 SHL SUB AND DUP7 PUSH1 0x1 PUSH1 0x1 PUSH1 0xA0 SHL SUB AND EQ ISZERO PUSH2 0x2515 JUMPI SWAP4 POP PUSH2 0x149A SWAP3 POP POP POP JUMP JUMPDEST PUSH2 0x2520 PUSH2 0x209 PUSH2 0x14A0 JUMP JUMPDEST POP POP POP POP SWAP3 SWAP2 POP POP JUMP JUMPDEST PUSH1 0x0 DUP3 DUP2 MSTORE PUSH1 0x7 PUSH1 0x20 SWAP1 DUP2 MSTORE PUSH1 0x40 DUP1 DUP4 KECCAK256 PUSH1 0x1 PUSH1 0x1 PUSH1 0xA0 SHL SUB DUP6 AND DUP5 MSTORE SWAP1 SWAP2 MSTORE DUP2 KECCAK256 SLOAD DUP2 PUSH1 0x1 PUSH1 0x1 PUSH1 0xE0 SHL SUB DUP3 AND ISZERO ISZERO DUP1 PUSH2 0x2589 JUMPI POP PUSH1 0x0 DUP6 DUP2 MSTORE PUSH1 0x8 PUSH1 0x20 SWAP1 DUP2 MSTORE PUSH1 0x40 DUP1 DUP4 KECCAK256 PUSH1 0x1 PUSH1 0x1 PUSH1 0xA0 SHL SUB DUP9 AND DUP5 MSTORE PUSH1 0x1 ADD SWAP1 SWAP2 MSTORE SWAP1 KECCAK256 SLOAD ISZERO ISZERO JUMPDEST SWAP1 POP DUP1 PUSH2 0x25A4 JUMPI PUSH2 0x2599 DUP6 PUSH2 0x2492 JUMP JUMPDEST PUSH2 0x25A4 PUSH2 0x209 PUSH2 0x14A0 JUMP JUMPDEST POP SWAP4 SWAP3 POP POP POP JUMP JUMPDEST PUSH1 0x0 DUP3 DUP2 MSTORE PUSH1 0x1 PUSH1 0x20 MSTORE PUSH1 0x40 DUP2 KECCAK256 PUSH2 0xB20 DUP2 DUP5 PUSH2 0x324D JUMP JUMPDEST PUSH1 0x0 DUP1 PUSH2 0x25D0 DUP5 PUSH2 0x1C49 JUMP JUMPDEST SWAP1 POP PUSH1 0x2 DUP2 PUSH1 0x2 DUP2 GT ISZERO PUSH2 0x25E6 JUMPI PUSH2 0x25E6 PUSH2 0x588A JUMP JUMPDEST EQ ISZERO PUSH2 0x25FE JUMPI PUSH2 0x25F6 DUP5 DUP5 PUSH2 0x392C JUMP JUMPDEST SWAP2 POP POP PUSH2 0x149A JUMP JUMPDEST PUSH1 0x1 DUP2 PUSH1 0x2 DUP2 GT ISZERO PUSH2 0x2612 JUMPI PUSH2 0x2612 PUSH2 0x588A JUMP JUMPDEST EQ ISZERO PUSH2 0x2622 JUMPI PUSH2 0x25F6 DUP5 DUP5 PUSH2 0x397D JUMP JUMPDEST PUSH2 0x25F6 DUP5 DUP5 PUSH2 0x39AB JUMP JUMPDEST PUSH1 0x0 DUP1 PUSH1 0x0 PUSH2 0x263A DUP7 PUSH2 0x1C49 JUMP JUMPDEST SWAP1 POP PUSH1 0x0 DUP8 PUSH1 0x2 DUP2 GT ISZERO PUSH2 0x2650 JUMPI PUSH2 0x2650 PUSH2 0x588A JUMP JUMPDEST EQ ISZERO PUSH2 0x266C JUMPI PUSH2 0x2662 DUP7 DUP3 DUP8 DUP8 PUSH2 0x39D9 JUMP JUMPDEST SWAP3 POP SWAP3 POP POP PUSH2 0x269E JUMP JUMPDEST PUSH1 0x1 DUP8 PUSH1 0x2 DUP2 GT ISZERO PUSH2 0x2680 JUMPI PUSH2 0x2680 PUSH2 0x588A JUMP JUMPDEST EQ ISZERO PUSH2 0x2692 JUMPI PUSH2 0x2662 DUP7 DUP3 DUP8 DUP8 PUSH2 0x3A65 JUMP JUMPDEST PUSH2 0x2662 DUP7 DUP3 DUP8 DUP8 PUSH2 0x3AF4 JUMP JUMPDEST SWAP5 POP SWAP5 SWAP3 POP POP POP JUMP JUMPDEST PUSH1 0x0 PUSH32 0x0 PUSH32 0x0 PUSH32 0x0 CHAINID PUSH1 0x40 DUP1 MLOAD PUSH1 0x20 DUP2 ADD SWAP6 SWAP1 SWAP6 MSTORE DUP5 ADD SWAP3 SWAP1 SWAP3 MSTORE PUSH1 0x60 DUP4 ADD MSTORE PUSH1 0x80 DUP3 ADD MSTORE ADDRESS PUSH1 0xA0 DUP3 ADD MSTORE PUSH1 0xC0 ADD PUSH1 0x40 MLOAD PUSH1 0x20 DUP2 DUP4 SUB SUB DUP2 MSTORE SWAP1 PUSH1 0x40 MSTORE DUP1 MLOAD SWAP1 PUSH1 0x20 ADD KECCAK256 SWAP1 POP SWAP1 JUMP JUMPDEST PUSH1 0x60 DUP1 PUSH1 0x0 PUSH2 0x275B DUP5 PUSH2 0x1C49 JUMP JUMPDEST SWAP1 POP PUSH1 0x2 DUP2 PUSH1 0x2 DUP2 GT ISZERO PUSH2 0x2771 JUMPI PUSH2 0x2771 PUSH2 0x588A JUMP JUMPDEST EQ ISZERO PUSH2 0x2780 JUMPI PUSH2 0x12B8 DUP5 PUSH2 0x3B63 JUMP JUMPDEST PUSH1 0x1 DUP2 PUSH1 0x2 DUP2 GT ISZERO PUSH2 0x2794 JUMPI PUSH2 0x2794 PUSH2 0x588A JUMP JUMPDEST EQ ISZERO PUSH2 0x27A3 JUMPI PUSH2 0x12B8 DUP5 PUSH2 0x3CAF JUMP JUMPDEST PUSH2 0x12B8 DUP5 PUSH2 0x3DE3 JUMP JUMPDEST PUSH1 0x60 PUSH1 0x0 DUP3 MLOAD PUSH1 0x1 PUSH1 0x1 PUSH1 0x40 SHL SUB DUP2 GT ISZERO PUSH2 0x27C9 JUMPI PUSH2 0x27C9 PUSH2 0x4DCC JUMP JUMPDEST PUSH1 0x40 MLOAD SWAP1 DUP1 DUP3 MSTORE DUP1 PUSH1 0x20 MUL PUSH1 0x20 ADD DUP3 ADD PUSH1 0x40 MSTORE DUP1 ISZERO PUSH2 0x27F2 JUMPI DUP2 PUSH1 0x20 ADD PUSH1 0x20 DUP3 MUL DUP1 CALLDATASIZE DUP4 CALLDATACOPY ADD SWAP1 POP JUMPDEST POP SWAP2 POP PUSH1 0x0 SWAP1 POP PUSH1 0x0 JUMPDEST DUP3 MLOAD DUP2 LT ISZERO PUSH2 0x12BD JUMPI PUSH1 0x0 DUP5 DUP3 DUP2 MLOAD DUP2 LT PUSH2 0x2819 JUMPI PUSH2 0x2819 PUSH2 0x5A7A JUMP JUMPDEST PUSH1 0x20 MUL PUSH1 0x20 ADD ADD MLOAD SWAP1 POP PUSH2 0x282C DUP2 PUSH2 0x3F05 JUMP JUMPDEST DUP5 DUP4 DUP2 MLOAD DUP2 LT PUSH2 0x283E JUMPI PUSH2 0x283E PUSH2 0x5A7A JUMP JUMPDEST PUSH1 0x20 MUL PUSH1 0x20 ADD ADD DUP2 DUP2 MSTORE POP POP PUSH2 0x285D DUP4 PUSH2 0x2858 DUP4 PUSH1 0xE0 SHR SWAP1 JUMP JUMPDEST PUSH2 0x3F2D JUMP JUMPDEST SWAP3 POP POP DUP1 DUP1 PUSH2 0x286B SWAP1 PUSH2 0x5A90 JUMP JUMPDEST SWAP2 POP POP PUSH2 0x27FC JUMP JUMPDEST PUSH1 0x3 SLOAD PUSH1 0x40 MLOAD PUSH4 0x26F8AA21 PUSH1 0xE2 SHL DUP2 MSTORE PUSH1 0x4 DUP2 ADD DUP5 SWAP1 MSTORE PUSH1 0x1 PUSH1 0x1 PUSH1 0xA0 SHL SUB DUP4 DUP2 AND PUSH1 0x24 DUP4 ADD MSTORE ADDRESS PUSH1 0x44 DUP4 ADD MSTORE PUSH1 0x0 SWAP3 PUSH2 0x100 SWAP1 DIV AND SWAP1 PUSH4 0x9BE2A884 SWAP1 PUSH1 0x64 ADD PUSH1 0x20 PUSH1 0x40 MLOAD DUP1 DUP4 SUB DUP2 DUP7 DUP1 EXTCODESIZE ISZERO DUP1 ISZERO PUSH2 0x28CB JUMPI PUSH1 0x0 DUP1 REVERT JUMPDEST POP GAS STATICCALL ISZERO DUP1 ISZERO PUSH2 0x28DF JUMPI RETURNDATASIZE PUSH1 0x0 DUP1 RETURNDATACOPY RETURNDATASIZE PUSH1 0x0 REVERT JUMPDEST POP POP POP POP PUSH1 0x40 MLOAD RETURNDATASIZE PUSH1 0x1F NOT PUSH1 0x1F DUP3 ADD AND DUP3 ADD DUP1 PUSH1 0x40 MSTORE POP DUP2 ADD SWAP1 PUSH2 0x1497 SWAP2 SWAP1 PUSH2 0x5C1B JUMP JUMPDEST PUSH1 0x1 PUSH1 0x1 PUSH1 0xA0 SHL SUB DUP1 DUP6 AND PUSH1 0x0 SWAP1 DUP2 MSTORE PUSH1 0xB PUSH1 0x20 SWAP1 DUP2 MSTORE PUSH1 0x40 DUP1 DUP4 KECCAK256 SWAP4 DUP8 AND DUP4 MSTORE SWAP3 SWAP1 MSTORE SWAP1 DUP2 KECCAK256 SLOAD PUSH2 0x2942 DUP4 DUP1 PUSH2 0x293A JUMPI POP DUP5 DUP3 LT ISZERO JUMPDEST PUSH2 0x201 PUSH2 0x599 JUMP JUMPDEST PUSH2 0x294C DUP2 DUP6 PUSH2 0x3F44 JUMP JUMPDEST SWAP2 POP PUSH1 0x0 PUSH2 0x295A DUP4 DUP4 PUSH2 0x5B4B JUMP JUMPDEST SWAP1 POP PUSH2 0x2979 DUP8 DUP8 DUP4 PUSH2 0x296B DUP8 PUSH2 0x38A2 JUMP JUMPDEST PUSH2 0x2974 SWAP1 PUSH2 0x5B1E JUMP JUMPDEST PUSH2 0x3F53 JUMP JUMPDEST POP POP SWAP5 SWAP4 POP POP POP POP JUMP JUMPDEST PUSH1 0x1 PUSH1 0x1 PUSH1 0xA0 SHL SUB DUP4 DUP2 AND PUSH1 0x0 SWAP1 DUP2 MSTORE PUSH1 0xB PUSH1 0x20 SWAP1 DUP2 MSTORE PUSH1 0x40 DUP1 DUP4 KECCAK256 SWAP4 DUP7 AND DUP4 MSTORE SWAP3 SWAP1 MSTORE SWAP1 DUP2 KECCAK256 SLOAD SWAP1 PUSH2 0x29B6 DUP4 DUP4 PUSH2 0x5A54 JUMP JUMPDEST SWAP1 POP PUSH2 0x1B20 DUP6 DUP6 DUP4 PUSH2 0x2974 DUP8 PUSH2 0x38A2 JUMP JUMPDEST PUSH1 0x40 MLOAD PUSH1 0x1 PUSH1 0x1 PUSH1 0xA0 SHL SUB DUP1 DUP6 AND PUSH1 0x24 DUP4 ADD MSTORE DUP4 AND PUSH1 0x44 DUP3 ADD MSTORE PUSH1 0x64 DUP2 ADD DUP3 SWAP1 MSTORE PUSH2 0xEEC SWAP1 DUP6 SWAP1 PUSH4 0x23B872DD PUSH1 0xE0 SHL SWAP1 PUSH1 0x84 ADD JUMPDEST PUSH1 0x40 DUP1 MLOAD PUSH1 0x1F NOT DUP2 DUP5 SUB ADD DUP2 MSTORE SWAP2 SWAP1 MSTORE PUSH1 0x20 DUP2 ADD DUP1 MLOAD PUSH1 0x1 PUSH1 0x1 PUSH1 0xE0 SHL SUB AND PUSH1 0x1 PUSH1 0x1 PUSH1 0xE0 SHL SUB NOT SWAP1 SWAP4 AND SWAP3 SWAP1 SWAP3 OR SWAP1 SWAP2 MSTORE PUSH2 0x3FAC JUMP JUMPDEST PUSH1 0x1 PUSH1 0x1 PUSH1 0xA0 SHL SUB DUP3 AND PUSH1 0x0 SWAP1 DUP2 MSTORE PUSH1 0x2 PUSH1 0x20 MSTORE PUSH1 0x40 DUP2 KECCAK256 DUP1 SLOAD SWAP1 DUP3 PUSH2 0x2A57 DUP4 PUSH2 0x5A90 JUMP JUMPDEST SWAP2 SWAP1 POP SSTORE SWAP1 POP PUSH2 0xCF0 PUSH2 0x2A6A DUP5 DUP4 PUSH2 0x404B JUMP JUMPDEST DUP4 PUSH2 0x599 JUMP JUMPDEST PUSH1 0x0 DUP1 PUSH1 0x0 DUP1 PUSH2 0x2A8D DUP7 PUSH1 0x80 ADD MLOAD DUP8 PUSH1 0x20 ADD MLOAD DUP9 PUSH1 0x40 ADD MLOAD PUSH2 0x3035 JUMP JUMPDEST SWAP3 POP SWAP3 POP SWAP3 POP PUSH1 0x0 DUP1 DUP8 PUSH1 0x40 ADD MLOAD PUSH1 0x1 PUSH1 0x1 PUSH1 0xA0 SHL SUB AND DUP9 PUSH1 0x20 ADD MLOAD PUSH1 0x1 PUSH1 0x1 PUSH1 0xA0 SHL SUB AND LT ISZERO PUSH2 0x2AC2 JUMPI POP DUP4 SWAP1 POP DUP3 PUSH2 0x2AC8 JUMP JUMPDEST POP DUP3 SWAP1 POP DUP4 JUMPDEST PUSH2 0x2AD4 DUP9 DUP9 DUP5 DUP5 PUSH2 0x419A JUMP JUMPDEST PUSH1 0x40 DUP12 ADD MLOAD PUSH1 0x20 DUP13 ADD MLOAD SWAP2 SWAP10 POP SWAP3 SWAP5 POP SWAP1 SWAP3 POP PUSH1 0x1 PUSH1 0x1 PUSH1 0xA0 SHL SUB SWAP2 DUP3 AND SWAP2 AND LT PUSH2 0x2B08 JUMPI PUSH2 0x2B03 DUP2 DUP4 PUSH2 0x4299 JUMP JUMPDEST PUSH2 0x2B12 JUMP JUMPDEST PUSH2 0x2B12 DUP3 DUP3 PUSH2 0x4299 JUMP JUMPDEST SWAP1 SWAP3 SSTORE POP SWAP3 SWAP6 SWAP5 POP POP POP POP POP JUMP JUMPDEST PUSH1 0x0 DUP1 PUSH2 0x2B35 DUP5 PUSH1 0x80 ADD MLOAD DUP6 PUSH1 0x20 ADD MLOAD PUSH2 0x252A JUMP JUMPDEST SWAP1 POP PUSH1 0x0 PUSH2 0x2B4B DUP6 PUSH1 0x80 ADD MLOAD DUP7 PUSH1 0x40 ADD MLOAD PUSH2 0x252A JUMP JUMPDEST SWAP1 POP PUSH2 0x2B59 DUP6 DUP6 DUP5 DUP5 PUSH2 0x419A JUMP JUMPDEST PUSH1 0x80 DUP9 ADD DUP1 MLOAD PUSH1 0x0 SWAP1 DUP2 MSTORE PUSH1 0x7 PUSH1 0x20 DUP2 DUP2 MSTORE PUSH1 0x40 DUP1 DUP5 KECCAK256 DUP3 DUP15 ADD MLOAD PUSH1 0x1 PUSH1 0x1 PUSH1 0xA0 SHL SUB SWAP1 DUP2 AND DUP7 MSTORE SWAP1 DUP4 MSTORE DUP2 DUP6 KECCAK256 SWAP9 SWAP1 SWAP9 SSTORE SWAP4 MLOAD DUP4 MSTORE SWAP1 DUP2 MSTORE DUP3 DUP3 KECCAK256 SWAP11 DUP4 ADD MLOAD SWAP1 SWAP6 AND DUP2 MSTORE SWAP9 SWAP1 SWAP4 MSTORE SWAP2 SWAP1 SWAP7 KECCAK256 SWAP6 SWAP1 SWAP6 SSTORE POP SWAP3 SWAP4 SWAP3 POP POP POP JUMP JUMPDEST PUSH1 0x80 DUP3 ADD MLOAD PUSH1 0x0 SWAP1 DUP2 MSTORE PUSH1 0x1 PUSH1 0x20 SWAP1 DUP2 MSTORE PUSH1 0x40 DUP1 DUP4 KECCAK256 DUP3 DUP7 ADD MLOAD PUSH1 0x1 PUSH1 0x1 PUSH1 0xA0 SHL SUB AND DUP5 MSTORE PUSH1 0x2 DUP2 ADD SWAP1 SWAP3 MSTORE DUP3 KECCAK256 SLOAD DUP3 SWAP2 DUP3 SWAP2 PUSH1 0x0 PUSH2 0x2BFF DUP9 PUSH1 0x40 ADD MLOAD DUP5 PUSH2 0x42D8 SWAP1 SWAP2 SWAP1 PUSH4 0xFFFFFFFF AND JUMP JUMPDEST SWAP1 POP DUP2 ISZERO DUP1 PUSH2 0x2C0C JUMPI POP DUP1 ISZERO JUMPDEST ISZERO PUSH2 0x2C29 JUMPI PUSH2 0x2C1E DUP9 PUSH1 0x80 ADD MLOAD PUSH2 0x2492 JUMP JUMPDEST PUSH2 0x2C29 PUSH2 0x209 PUSH2 0x14A0 JUMP JUMPDEST PUSH2 0x2C34 PUSH1 0x1 DUP4 PUSH2 0x5B4B JUMP JUMPDEST SWAP2 POP PUSH2 0x2C41 PUSH1 0x1 DUP3 PUSH2 0x5B4B JUMP JUMPDEST SWAP1 POP PUSH1 0x0 PUSH2 0x2C4D DUP5 SLOAD SWAP1 JUMP JUMPDEST SWAP1 POP PUSH1 0x0 DUP2 PUSH1 0x1 PUSH1 0x1 PUSH1 0x40 SHL SUB DUP2 GT ISZERO PUSH2 0x2C69 JUMPI PUSH2 0x2C69 PUSH2 0x4DCC JUMP JUMPDEST PUSH1 0x40 MLOAD SWAP1 DUP1 DUP3 MSTORE DUP1 PUSH1 0x20 MUL PUSH1 0x20 ADD DUP3 ADD PUSH1 0x40 MSTORE DUP1 ISZERO PUSH2 0x2C92 JUMPI DUP2 PUSH1 0x20 ADD PUSH1 0x20 DUP3 MUL DUP1 CALLDATASIZE DUP4 CALLDATACOPY ADD SWAP1 POP JUMPDEST POP PUSH1 0x0 PUSH1 0xA0 DUP13 ADD DUP2 SWAP1 MSTORE SWAP1 SWAP2 POP JUMPDEST DUP3 DUP2 LT ISZERO PUSH2 0x2D29 JUMPI PUSH1 0x0 DUP2 DUP2 MSTORE PUSH1 0x1 DUP8 DUP2 ADD PUSH1 0x20 MSTORE PUSH1 0x40 SWAP1 SWAP2 KECCAK256 ADD SLOAD PUSH2 0x2CC5 DUP2 PUSH2 0x3F05 JUMP JUMPDEST DUP4 DUP4 DUP2 MLOAD DUP2 LT PUSH2 0x2CD7 JUMPI PUSH2 0x2CD7 PUSH2 0x5A7A JUMP JUMPDEST PUSH1 0x20 MUL PUSH1 0x20 ADD ADD DUP2 DUP2 MSTORE POP POP PUSH2 0x2CF5 DUP13 PUSH1 0xA0 ADD MLOAD PUSH2 0x2858 DUP4 PUSH1 0xE0 SHR SWAP1 JUMP JUMPDEST PUSH1 0xA0 DUP14 ADD MSTORE DUP2 DUP7 EQ ISZERO PUSH2 0x2D0A JUMPI DUP1 SWAP9 POP PUSH2 0x2D16 JUMP JUMPDEST DUP5 DUP3 EQ ISZERO PUSH2 0x2D16 JUMPI DUP1 SWAP8 POP JUMPDEST POP DUP1 PUSH2 0x2D21 DUP2 PUSH2 0x5A90 JUMP JUMPDEST SWAP2 POP POP PUSH2 0x2CA0 JUMP JUMPDEST POP PUSH1 0x40 MLOAD PUSH3 0xF64AA5 PUSH1 0xE1 SHL DUP2 MSTORE PUSH1 0x1 PUSH1 0x1 PUSH1 0xA0 SHL SUB DUP11 AND SWAP1 PUSH4 0x1EC954A SWAP1 PUSH2 0x2D5B SWAP1 DUP14 SWAP1 DUP6 SWAP1 DUP10 SWAP1 DUP10 SWAP1 PUSH1 0x4 ADD PUSH2 0x5D4D JUMP JUMPDEST PUSH1 0x20 PUSH1 0x40 MLOAD DUP1 DUP4 SUB DUP2 PUSH1 0x0 DUP8 DUP1 EXTCODESIZE ISZERO DUP1 ISZERO PUSH2 0x2D75 JUMPI PUSH1 0x0 DUP1 REVERT JUMPDEST POP GAS CALL ISZERO DUP1 ISZERO PUSH2 0x2D89 JUMPI RETURNDATASIZE PUSH1 0x0 DUP1 RETURNDATACOPY RETURNDATASIZE PUSH1 0x0 REVERT JUMPDEST POP POP POP POP PUSH1 0x40 MLOAD RETURNDATASIZE PUSH1 0x1F NOT PUSH1 0x1F DUP3 ADD AND DUP3 ADD DUP1 PUSH1 0x40 MSTORE POP DUP2 ADD SWAP1 PUSH2 0x2DAD SWAP2 SWAP1 PUSH2 0x5D86 JUMP JUMPDEST SWAP8 POP PUSH1 0x0 DUP1 PUSH2 0x2DC5 DUP13 PUSH1 0x0 ADD MLOAD DUP14 PUSH1 0x60 ADD MLOAD DUP13 PUSH2 0x2E0F JUMP JUMPDEST SWAP1 SWAP3 POP SWAP1 POP PUSH2 0x2DD4 DUP10 DUP4 PUSH2 0x42F7 JUMP JUMPDEST SWAP9 POP PUSH2 0x2DE0 DUP9 DUP3 PUSH2 0x42F7 JUMP JUMPDEST PUSH1 0x0 SWAP7 DUP8 MSTORE PUSH1 0x1 SWAP8 DUP9 ADD PUSH1 0x20 MSTORE PUSH1 0x40 DUP1 DUP9 KECCAK256 DUP10 ADD SWAP11 SWAP1 SWAP11 SSTORE SWAP5 DUP7 MSTORE POP POP POP SWAP5 SWAP1 SWAP2 KECCAK256 SWAP1 SWAP2 ADD SSTORE POP SWAP1 SWAP4 SWAP3 POP POP POP JUMP JUMPDEST PUSH1 0x0 DUP1 DUP1 DUP6 PUSH1 0x1 DUP2 GT ISZERO PUSH2 0x2E25 JUMPI PUSH2 0x2E25 PUSH2 0x588A JUMP JUMPDEST EQ ISZERO PUSH2 0x2E35 JUMPI POP DUP3 SWAP1 POP DUP2 PUSH2 0x2E3B JUMP JUMPDEST POP DUP2 SWAP1 POP DUP3 JUMPDEST SWAP4 POP SWAP4 SWAP2 POP POP JUMP JUMPDEST PUSH2 0x2E52 DUP2 SELFBALANCE LT ISZERO PUSH2 0x1A3 PUSH2 0x599 JUMP JUMPDEST PUSH1 0x0 DUP3 PUSH1 0x1 PUSH1 0x1 PUSH1 0xA0 SHL SUB AND DUP3 PUSH1 0x40 MLOAD PUSH1 0x0 PUSH1 0x40 MLOAD DUP1 DUP4 SUB DUP2 DUP6 DUP8 GAS CALL SWAP3 POP POP POP RETURNDATASIZE DUP1 PUSH1 0x0 DUP2 EQ PUSH2 0x2E9F JUMPI PUSH1 0x40 MLOAD SWAP2 POP PUSH1 0x1F NOT PUSH1 0x3F RETURNDATASIZE ADD AND DUP3 ADD PUSH1 0x40 MSTORE RETURNDATASIZE DUP3 MSTORE RETURNDATASIZE PUSH1 0x0 PUSH1 0x20 DUP5 ADD RETURNDATACOPY PUSH2 0x2EA4 JUMP JUMPDEST PUSH1 0x60 SWAP2 POP JUMPDEST POP POP SWAP1 POP PUSH2 0xCF0 DUP2 PUSH2 0x1A4 PUSH2 0x599 JUMP JUMPDEST PUSH1 0x40 MLOAD PUSH1 0x1 PUSH1 0x1 PUSH1 0xA0 SHL SUB DUP4 AND PUSH1 0x24 DUP3 ADD MSTORE PUSH1 0x44 DUP2 ADD DUP3 SWAP1 MSTORE PUSH2 0xCF0 SWAP1 DUP5 SWAP1 PUSH4 0xA9059CBB PUSH1 0xE0 SHL SWAP1 PUSH1 0x64 ADD PUSH2 0x29FB JUMP JUMPDEST PUSH1 0x1 PUSH1 0x1 PUSH1 0xA0 SHL SUB DUP2 AND PUSH1 0x0 SWAP1 DUP2 MSTORE PUSH1 0x1 DUP4 ADD PUSH1 0x20 MSTORE PUSH1 0x40 DUP2 KECCAK256 SLOAD PUSH2 0x2F4E JUMPI POP DUP2 SLOAD PUSH1 0x1 DUP1 DUP3 ADD DUP5 SSTORE PUSH1 0x0 DUP5 DUP2 MSTORE PUSH1 0x20 DUP1 DUP3 KECCAK256 SWAP1 SWAP4 ADD DUP1 SLOAD PUSH1 0x1 PUSH1 0x1 PUSH1 0xA0 SHL SUB NOT AND PUSH1 0x1 PUSH1 0x1 PUSH1 0xA0 SHL SUB DUP7 AND SWAP1 DUP2 OR SWAP1 SWAP2 SSTORE DUP6 SLOAD SWAP1 DUP3 MSTORE DUP3 DUP7 ADD SWAP1 SWAP4 MSTORE PUSH1 0x40 SWAP1 KECCAK256 SWAP2 SWAP1 SWAP2 SSTORE PUSH2 0x149A JUMP JUMPDEST POP PUSH1 0x0 PUSH2 0x149A JUMP JUMPDEST PUSH1 0x1 PUSH1 0x1 PUSH1 0xA0 SHL SUB DUP3 AND PUSH1 0x0 SWAP1 DUP2 MSTORE PUSH1 0x2 DUP5 ADD PUSH1 0x20 MSTORE PUSH1 0x40 DUP2 KECCAK256 SLOAD DUP1 PUSH2 0x3002 JUMPI DUP5 SLOAD PUSH1 0x40 DUP1 MLOAD DUP1 DUP3 ADD DUP3 MSTORE PUSH1 0x1 PUSH1 0x1 PUSH1 0xA0 SHL SUB DUP8 DUP2 AND DUP3 MSTORE PUSH1 0x20 DUP1 DUP4 ADD DUP9 DUP2 MSTORE PUSH1 0x0 DUP7 DUP2 MSTORE PUSH1 0x1 DUP1 DUP14 ADD SWAP1 SWAP4 MSTORE SWAP5 SWAP1 SWAP5 KECCAK256 SWAP3 MLOAD DUP4 SLOAD PUSH1 0x1 PUSH1 0x1 PUSH1 0xA0 SHL SUB NOT AND SWAP3 AND SWAP2 SWAP1 SWAP2 OR DUP3 SSTORE SWAP2 MLOAD SWAP1 DUP3 ADD SSTORE PUSH2 0x2FCE SWAP1 DUP3 SWAP1 PUSH2 0x5A54 JUMP JUMPDEST DUP7 SSTORE PUSH2 0x2FDB DUP2 PUSH1 0x1 PUSH2 0x5A54 JUMP JUMPDEST PUSH1 0x1 PUSH1 0x1 PUSH1 0xA0 SHL SUB DUP7 AND PUSH1 0x0 SWAP1 DUP2 MSTORE PUSH1 0x2 DUP9 ADD PUSH1 0x20 MSTORE PUSH1 0x40 SWAP1 KECCAK256 SSTORE POP PUSH1 0x1 SWAP2 POP PUSH2 0x1602 SWAP1 POP JUMP JUMPDEST DUP3 DUP6 PUSH1 0x1 ADD PUSH1 0x0 PUSH1 0x1 DUP5 PUSH2 0x3016 SWAP2 SWAP1 PUSH2 0x5B4B JUMP JUMPDEST DUP2 MSTORE PUSH1 0x20 ADD SWAP1 DUP2 MSTORE PUSH1 0x20 ADD PUSH1 0x0 KECCAK256 PUSH1 0x1 ADD DUP2 SWAP1 SSTORE POP PUSH1 0x0 SWAP2 POP POP PUSH2 0x1602 JUMP JUMPDEST PUSH1 0x0 DUP1 PUSH1 0x0 DUP1 PUSH1 0x0 PUSH2 0x3047 DUP8 DUP8 PUSH2 0x434A JUMP JUMPDEST SWAP2 POP SWAP2 POP PUSH1 0x0 PUSH2 0x3057 DUP4 DUP4 PUSH2 0x437B JUMP JUMPDEST PUSH1 0x0 DUP11 DUP2 MSTORE PUSH1 0x9 PUSH1 0x20 SWAP1 DUP2 MSTORE PUSH1 0x40 DUP1 DUP4 KECCAK256 DUP5 DUP5 MSTORE PUSH1 0x2 ADD SWAP1 SWAP2 MSTORE DUP2 KECCAK256 DUP1 SLOAD PUSH1 0x1 DUP3 ADD SLOAD SWAP2 SWAP8 POP SWAP3 SWAP4 POP SWAP1 PUSH1 0x1 PUSH1 0x1 PUSH1 0xE0 SHL SUB DUP4 AND ISZERO ISZERO DUP1 PUSH2 0x30A0 JUMPI POP PUSH1 0x1 PUSH1 0x1 PUSH1 0xE0 SHL SUB DUP3 AND ISZERO ISZERO JUMPDEST DUP1 PUSH2 0x30C1 JUMPI POP PUSH2 0x30B0 DUP13 DUP8 PUSH2 0x392C JUMP JUMPDEST DUP1 ISZERO PUSH2 0x30C1 JUMPI POP PUSH2 0x30C1 DUP13 DUP7 PUSH2 0x392C JUMP JUMPDEST SWAP1 POP DUP1 PUSH2 0x30DC JUMPI PUSH2 0x30D1 DUP13 PUSH2 0x2492 JUMP JUMPDEST PUSH2 0x30DC PUSH2 0x209 PUSH2 0x14A0 JUMP JUMPDEST PUSH2 0x30E6 DUP4 DUP4 PUSH2 0x43C5 JUMP JUMPDEST SWAP9 POP PUSH2 0x30F2 DUP4 DUP4 PUSH2 0x43EE JUMP JUMPDEST SWAP8 POP POP POP POP POP POP POP SWAP4 POP SWAP4 POP SWAP4 SWAP1 POP JUMP JUMPDEST PUSH1 0x1 PUSH1 0x1 PUSH1 0xA0 SHL SUB DUP2 AND PUSH1 0x0 SWAP1 DUP2 MSTORE PUSH1 0x1 DUP4 ADD PUSH1 0x20 MSTORE PUSH1 0x40 DUP2 KECCAK256 SLOAD DUP1 ISZERO PUSH2 0x3243 JUMPI PUSH1 0x0 PUSH2 0x3131 PUSH1 0x1 DUP4 PUSH2 0x5B4B JUMP JUMPDEST DUP6 SLOAD SWAP1 SWAP2 POP PUSH1 0x0 SWAP1 PUSH2 0x3145 SWAP1 PUSH1 0x1 SWAP1 PUSH2 0x5B4B JUMP JUMPDEST SWAP1 POP DUP1 DUP3 EQ PUSH2 0x31E5 JUMPI PUSH1 0x0 DUP7 PUSH1 0x0 ADD DUP3 DUP2 SLOAD DUP2 LT PUSH2 0x3165 JUMPI PUSH2 0x3165 PUSH2 0x5A7A JUMP JUMPDEST PUSH1 0x0 SWAP2 DUP3 MSTORE PUSH1 0x20 SWAP1 SWAP2 KECCAK256 ADD SLOAD DUP8 SLOAD PUSH1 0x1 PUSH1 0x1 PUSH1 0xA0 SHL SUB SWAP1 SWAP2 AND SWAP2 POP DUP2 SWAP1 DUP9 SWAP1 DUP6 SWAP1 DUP2 LT PUSH2 0x3194 JUMPI PUSH2 0x3194 PUSH2 0x5A7A JUMP JUMPDEST PUSH1 0x0 SWAP2 DUP3 MSTORE PUSH1 0x20 SWAP1 SWAP2 KECCAK256 ADD DUP1 SLOAD PUSH1 0x1 PUSH1 0x1 PUSH1 0xA0 SHL SUB NOT AND PUSH1 0x1 PUSH1 0x1 PUSH1 0xA0 SHL SUB SWAP3 SWAP1 SWAP3 AND SWAP2 SWAP1 SWAP2 OR SWAP1 SSTORE PUSH2 0x31C8 DUP4 PUSH1 0x1 PUSH2 0x5A54 JUMP JUMPDEST PUSH1 0x1 PUSH1 0x1 PUSH1 0xA0 SHL SUB SWAP1 SWAP2 AND PUSH1 0x0 SWAP1 DUP2 MSTORE PUSH1 0x1 DUP9 ADD PUSH1 0x20 MSTORE PUSH1 0x40 SWAP1 KECCAK256 SSTORE JUMPDEST DUP6 SLOAD DUP7 SWAP1 DUP1 PUSH2 0x31F6 JUMPI PUSH2 0x31F6 PUSH2 0x5D9F JUMP JUMPDEST PUSH1 0x0 DUP3 DUP2 MSTORE PUSH1 0x20 DUP1 DUP3 KECCAK256 DUP4 ADD PUSH1 0x0 NOT SWAP1 DUP2 ADD DUP1 SLOAD PUSH1 0x1 PUSH1 0x1 PUSH1 0xA0 SHL SUB NOT AND SWAP1 SSTORE SWAP1 SWAP3 ADD SWAP1 SWAP3 SSTORE PUSH1 0x1 PUSH1 0x1 PUSH1 0xA0 SHL SUB DUP8 AND DUP3 MSTORE PUSH1 0x1 DUP9 DUP2 ADD SWAP1 SWAP2 MSTORE PUSH1 0x40 DUP3 KECCAK256 SWAP2 SWAP1 SWAP2 SSTORE SWAP4 POP PUSH2 0x149A SWAP3 POP POP POP JUMP JUMPDEST PUSH1 0x0 SWAP2 POP POP PUSH2 0x149A JUMP JUMPDEST PUSH1 0x0 PUSH2 0x1497 DUP4 DUP4 PUSH2 0x209 PUSH2 0x4419 JUMP JUMPDEST PUSH1 0x1 PUSH1 0x1 PUSH1 0xA0 SHL SUB DUP2 AND PUSH1 0x0 SWAP1 DUP2 MSTORE PUSH1 0x2 DUP4 ADD PUSH1 0x20 MSTORE PUSH1 0x40 DUP2 KECCAK256 SLOAD DUP1 ISZERO PUSH2 0x3243 JUMPI PUSH1 0x0 PUSH2 0x328A PUSH1 0x1 DUP4 PUSH2 0x5B4B JUMP JUMPDEST SWAP1 POP PUSH1 0x0 PUSH1 0x1 DUP7 PUSH1 0x0 ADD SLOAD PUSH2 0x329F SWAP2 SWAP1 PUSH2 0x5B4B JUMP JUMPDEST SWAP1 POP DUP1 DUP3 EQ PUSH2 0x330B JUMPI PUSH1 0x0 DUP2 DUP2 MSTORE PUSH1 0x1 DUP1 DUP9 ADD PUSH1 0x20 MSTORE PUSH1 0x40 DUP1 DUP4 KECCAK256 DUP6 DUP5 MSTORE SWAP3 KECCAK256 DUP3 SLOAD DUP2 SLOAD PUSH1 0x1 PUSH1 0x1 PUSH1 0xA0 SHL SUB NOT AND PUSH1 0x1 PUSH1 0x1 PUSH1 0xA0 SHL SUB SWAP1 SWAP2 AND OR DUP2 SSTORE DUP3 DUP3 ADD SLOAD SWAP1 DUP3 ADD SSTORE PUSH2 0x32EE SWAP1 DUP5 SWAP1 PUSH2 0x5A54 JUMP JUMPDEST SWAP1 SLOAD PUSH1 0x1 PUSH1 0x1 PUSH1 0xA0 SHL SUB AND PUSH1 0x0 SWAP1 DUP2 MSTORE PUSH1 0x2 DUP9 ADD PUSH1 0x20 MSTORE PUSH1 0x40 SWAP1 KECCAK256 SSTORE JUMPDEST PUSH1 0x0 DUP2 DUP2 MSTORE PUSH1 0x1 DUP1 DUP9 ADD PUSH1 0x20 SWAP1 DUP2 MSTORE PUSH1 0x40 DUP1 DUP5 KECCAK256 DUP1 SLOAD PUSH1 0x1 PUSH1 0x1 PUSH1 0xA0 SHL SUB NOT AND DUP2 SSTORE DUP4 ADD DUP5 SWAP1 SSTORE SWAP4 DUP10 SSTORE PUSH1 0x1 PUSH1 0x1 PUSH1 0xA0 SHL SUB DUP9 AND DUP4 MSTORE PUSH1 0x2 DUP10 ADD SWAP1 MSTORE SWAP2 DUP2 KECCAK256 SSTORE SWAP3 POP PUSH2 0x149A SWAP2 POP POP JUMP JUMPDEST PUSH1 0x60 PUSH1 0x0 DUP3 MLOAD PUSH1 0x1 PUSH1 0x1 PUSH1 0x40 SHL SUB DUP2 GT ISZERO PUSH2 0x3372 JUMPI PUSH2 0x3372 PUSH2 0x4DCC JUMP JUMPDEST PUSH1 0x40 MLOAD SWAP1 DUP1 DUP3 MSTORE DUP1 PUSH1 0x20 MUL PUSH1 0x20 ADD DUP3 ADD PUSH1 0x40 MSTORE DUP1 ISZERO PUSH2 0x339B JUMPI DUP2 PUSH1 0x20 ADD PUSH1 0x20 DUP3 MUL DUP1 CALLDATASIZE DUP4 CALLDATACOPY ADD SWAP1 POP JUMPDEST POP SWAP1 POP PUSH1 0x0 JUMPDEST DUP4 MLOAD DUP2 LT ISZERO PUSH2 0x8B3 JUMPI PUSH2 0x33BF DUP5 DUP3 DUP2 MLOAD DUP2 LT PUSH2 0x2299 JUMPI PUSH2 0x2299 PUSH2 0x5A7A JUMP JUMPDEST DUP3 DUP3 DUP2 MLOAD DUP2 LT PUSH2 0x33D1 JUMPI PUSH2 0x33D1 PUSH2 0x5A7A JUMP JUMPDEST PUSH1 0x1 PUSH1 0x1 PUSH1 0xA0 SHL SUB SWAP1 SWAP3 AND PUSH1 0x20 SWAP3 DUP4 MUL SWAP2 SWAP1 SWAP2 ADD SWAP1 SWAP2 ADD MSTORE PUSH2 0x33F2 DUP2 PUSH2 0x5A90 JUMP JUMPDEST SWAP1 POP PUSH2 0x33A1 JUMP JUMPDEST PUSH1 0x60 PUSH1 0x0 DUP1 PUSH2 0x3407 DUP6 PUSH2 0x274D JUMP JUMPDEST SWAP2 POP SWAP2 POP PUSH2 0x3417 DUP3 MLOAD DUP6 MLOAD PUSH2 0x1C3C JUMP JUMPDEST PUSH2 0x3427 PUSH1 0x0 DUP4 MLOAD GT PUSH2 0x20F PUSH2 0x599 JUMP JUMPDEST PUSH1 0x0 JUMPDEST DUP3 MLOAD DUP2 LT ISZERO PUSH2 0x3495 JUMPI PUSH2 0x3485 DUP6 DUP3 DUP2 MLOAD DUP2 LT PUSH2 0x3448 JUMPI PUSH2 0x3448 PUSH2 0x5A7A JUMP JUMPDEST PUSH1 0x20 MUL PUSH1 0x20 ADD ADD MLOAD PUSH1 0x1 PUSH1 0x1 PUSH1 0xA0 SHL SUB AND DUP5 DUP4 DUP2 MLOAD DUP2 LT PUSH2 0x346B JUMPI PUSH2 0x346B PUSH2 0x5A7A JUMP JUMPDEST PUSH1 0x20 MUL PUSH1 0x20 ADD ADD MLOAD PUSH1 0x1 PUSH1 0x1 PUSH1 0xA0 SHL SUB AND EQ PUSH2 0x208 PUSH2 0x599 JUMP JUMPDEST PUSH2 0x348E DUP2 PUSH2 0x5A90 JUMP JUMPDEST SWAP1 POP PUSH2 0x342A JUMP JUMPDEST POP SWAP5 SWAP4 POP POP POP POP JUMP JUMPDEST PUSH1 0x60 DUP1 PUSH1 0x60 PUSH1 0x0 DUP1 PUSH2 0x34AF DUP7 PUSH2 0x27AC JUMP JUMPDEST SWAP2 POP SWAP2 POP PUSH1 0x0 PUSH2 0x34BF DUP12 PUSH1 0x60 SHR SWAP1 JUMP JUMPDEST SWAP1 POP PUSH1 0x0 DUP13 PUSH1 0x1 DUP2 GT ISZERO PUSH2 0x34D5 JUMPI PUSH2 0x34D5 PUSH2 0x588A JUMP JUMPDEST EQ PUSH2 0x3578 JUMPI DUP1 PUSH1 0x1 PUSH1 0x1 PUSH1 0xA0 SHL SUB AND PUSH4 0x74F3B009 DUP13 DUP13 DUP13 DUP8 DUP8 PUSH2 0x34F6 PUSH2 0x446E JUMP JUMPDEST DUP16 PUSH1 0x40 ADD MLOAD PUSH1 0x40 MLOAD DUP9 PUSH4 0xFFFFFFFF AND PUSH1 0xE0 SHL DUP2 MSTORE PUSH1 0x4 ADD PUSH2 0x351D SWAP8 SWAP7 SWAP6 SWAP5 SWAP4 SWAP3 SWAP2 SWAP1 PUSH2 0x5DB5 JUMP JUMPDEST PUSH1 0x0 PUSH1 0x40 MLOAD DUP1 DUP4 SUB DUP2 PUSH1 0x0 DUP8 DUP1 EXTCODESIZE ISZERO DUP1 ISZERO PUSH2 0x3537 JUMPI PUSH1 0x0 DUP1 REVERT JUMPDEST POP GAS CALL ISZERO DUP1 ISZERO PUSH2 0x354B JUMPI RETURNDATASIZE PUSH1 0x0 DUP1 RETURNDATACOPY RETURNDATASIZE PUSH1 0x0 REVERT JUMPDEST POP POP POP POP PUSH1 0x40 MLOAD RETURNDATASIZE PUSH1 0x0 DUP3 RETURNDATACOPY PUSH1 0x1F RETURNDATASIZE SWAP1 DUP2 ADD PUSH1 0x1F NOT AND DUP3 ADD PUSH1 0x40 MSTORE PUSH2 0x3573 SWAP2 SWAP1 DUP2 ADD SWAP1 PUSH2 0x5E6E JUMP JUMPDEST PUSH2 0x3611 JUMP JUMPDEST DUP1 PUSH1 0x1 PUSH1 0x1 PUSH1 0xA0 SHL SUB AND PUSH4 0xD5C096C4 DUP13 DUP13 DUP13 DUP8 DUP8 PUSH2 0x3594 PUSH2 0x446E JUMP JUMPDEST DUP16 PUSH1 0x40 ADD MLOAD PUSH1 0x40 MLOAD DUP9 PUSH4 0xFFFFFFFF AND PUSH1 0xE0 SHL DUP2 MSTORE PUSH1 0x4 ADD PUSH2 0x35BB SWAP8 SWAP7 SWAP6 SWAP5 SWAP4 SWAP3 SWAP2 SWAP1 PUSH2 0x5DB5 JUMP JUMPDEST PUSH1 0x0 PUSH1 0x40 MLOAD DUP1 DUP4 SUB DUP2 PUSH1 0x0 DUP8 DUP1 EXTCODESIZE ISZERO DUP1 ISZERO PUSH2 0x35D5 JUMPI PUSH1 0x0 DUP1 REVERT JUMPDEST POP GAS CALL ISZERO DUP1 ISZERO PUSH2 0x35E9 JUMPI RETURNDATASIZE PUSH1 0x0 DUP1 RETURNDATACOPY RETURNDATASIZE PUSH1 0x0 REVERT JUMPDEST POP POP POP POP PUSH1 0x40 MLOAD RETURNDATASIZE PUSH1 0x0 DUP3 RETURNDATACOPY PUSH1 0x1F RETURNDATASIZE SWAP1 DUP2 ADD PUSH1 0x1F NOT AND DUP3 ADD PUSH1 0x40 MSTORE PUSH2 0x3611 SWAP2 SWAP1 DUP2 ADD SWAP1 PUSH2 0x5E6E JUMP JUMPDEST DUP1 SWAP6 POP DUP2 SWAP7 POP POP POP PUSH2 0x3627 DUP8 MLOAD DUP7 MLOAD DUP7 MLOAD PUSH2 0x4501 JUMP JUMPDEST PUSH1 0x0 DUP13 PUSH1 0x1 DUP2 GT ISZERO PUSH2 0x363B JUMPI PUSH2 0x363B PUSH2 0x588A JUMP JUMPDEST EQ PUSH2 0x3652 JUMPI PUSH2 0x364D DUP10 DUP10 DUP10 DUP9 DUP9 PUSH2 0x4519 JUMP JUMPDEST PUSH2 0x365F JUMP JUMPDEST PUSH2 0x365F DUP11 DUP10 DUP10 DUP9 DUP9 PUSH2 0x468A JUMP JUMPDEST SWAP6 POP POP POP POP SWAP7 POP SWAP7 POP SWAP7 SWAP4 POP POP POP POP JUMP JUMPDEST PUSH1 0x0 PUSH2 0x367C DUP6 DUP5 PUSH2 0x437B JUMP JUMPDEST PUSH1 0x0 DUP8 DUP2 MSTORE PUSH1 0x9 PUSH1 0x20 SWAP1 DUP2 MSTORE PUSH1 0x40 DUP1 DUP4 KECCAK256 DUP5 DUP5 MSTORE PUSH1 0x2 ADD SWAP1 SWAP2 MSTORE SWAP1 KECCAK256 SWAP1 SWAP2 POP PUSH2 0x36A5 DUP6 DUP5 PUSH2 0x4299 JUMP JUMPDEST SWAP1 SSTORE POP POP POP POP POP POP JUMP JUMPDEST PUSH1 0x0 JUMPDEST DUP3 MLOAD DUP2 LT ISZERO PUSH2 0xEEC JUMPI DUP2 DUP2 DUP2 MLOAD DUP2 LT PUSH2 0x36CD JUMPI PUSH2 0x36CD PUSH2 0x5A7A JUMP JUMPDEST PUSH1 0x20 MUL PUSH1 0x20 ADD ADD MLOAD PUSH1 0x7 PUSH1 0x0 DUP7 DUP2 MSTORE PUSH1 0x20 ADD SWAP1 DUP2 MSTORE PUSH1 0x20 ADD PUSH1 0x0 KECCAK256 PUSH1 0x0 DUP6 DUP5 DUP2 MLOAD DUP2 LT PUSH2 0x36FC JUMPI PUSH2 0x36FC PUSH2 0x5A7A JUMP JUMPDEST PUSH1 0x20 MUL PUSH1 0x20 ADD ADD MLOAD PUSH1 0x1 PUSH1 0x1 PUSH1 0xA0 SHL SUB AND PUSH1 0x1 PUSH1 0x1 PUSH1 0xA0 SHL SUB AND DUP2 MSTORE PUSH1 0x20 ADD SWAP1 DUP2 MSTORE PUSH1 0x20 ADD PUSH1 0x0 KECCAK256 DUP2 SWAP1 SSTORE POP DUP1 PUSH2 0x3732 SWAP1 PUSH2 0x5A90 JUMP JUMPDEST SWAP1 POP PUSH2 0x36B2 JUMP JUMPDEST PUSH1 0x0 DUP3 DUP2 MSTORE PUSH1 0x1 PUSH1 0x20 MSTORE PUSH1 0x40 DUP2 KECCAK256 SWAP1 JUMPDEST DUP3 MLOAD DUP2 LT ISZERO PUSH2 0xEEC JUMPI PUSH2 0x3780 DUP2 DUP5 DUP4 DUP2 MLOAD DUP2 LT PUSH2 0x3768 JUMPI PUSH2 0x3768 PUSH2 0x5A7A JUMP JUMPDEST PUSH1 0x20 MUL PUSH1 0x20 ADD ADD MLOAD DUP5 PUSH2 0x4332 SWAP1 SWAP3 SWAP2 SWAP1 PUSH4 0xFFFFFFFF AND JUMP JUMPDEST PUSH2 0x3789 DUP2 PUSH2 0x5A90 JUMP JUMPDEST SWAP1 POP PUSH2 0x3749 JUMP JUMPDEST PUSH1 0x60 DUP3 MLOAD PUSH1 0x1 PUSH1 0x1 PUSH1 0x40 SHL SUB DUP2 GT ISZERO PUSH2 0x37AB JUMPI PUSH2 0x37AB PUSH2 0x4DCC JUMP JUMPDEST PUSH1 0x40 MLOAD SWAP1 DUP1 DUP3 MSTORE DUP1 PUSH1 0x20 MUL PUSH1 0x20 ADD DUP3 ADD PUSH1 0x40 MSTORE DUP1 ISZERO PUSH2 0x37D4 JUMPI DUP2 PUSH1 0x20 ADD PUSH1 0x20 DUP3 MUL DUP1 CALLDATASIZE DUP4 CALLDATACOPY ADD SWAP1 POP JUMPDEST POP SWAP1 POP PUSH1 0x0 JUMPDEST DUP4 MLOAD DUP2 LT ISZERO PUSH2 0x8B3 JUMPI DUP3 PUSH2 0x3810 JUMPI DUP4 DUP2 DUP2 MLOAD DUP2 LT PUSH2 0x37FA JUMPI PUSH2 0x37FA PUSH2 0x5A7A JUMP JUMPDEST PUSH1 0x20 MUL PUSH1 0x20 ADD ADD MLOAD PUSH2 0x380B SWAP1 PUSH2 0x5B1E JUMP JUMPDEST PUSH2 0x382B JUMP JUMPDEST DUP4 DUP2 DUP2 MLOAD DUP2 LT PUSH2 0x3822 JUMPI PUSH2 0x3822 PUSH2 0x5A7A JUMP JUMPDEST PUSH1 0x20 MUL PUSH1 0x20 ADD ADD MLOAD JUMPDEST DUP3 DUP3 DUP2 MLOAD DUP2 LT PUSH2 0x383D JUMPI PUSH2 0x383D PUSH2 0x5A7A JUMP JUMPDEST PUSH1 0x20 SWAP1 DUP2 MUL SWAP2 SWAP1 SWAP2 ADD ADD MSTORE DUP1 PUSH2 0x3852 DUP2 PUSH2 0x5A90 JUMP JUMPDEST SWAP2 POP POP PUSH2 0x37DA JUMP JUMPDEST PUSH1 0x0 DUP1 DUP5 PUSH1 0x1 DUP2 GT ISZERO PUSH2 0x386F JUMPI PUSH2 0x386F PUSH2 0x588A JUMP JUMPDEST EQ PUSH2 0x387A JUMPI DUP2 PUSH2 0xB20 JUMP JUMPDEST POP SWAP1 SWAP3 SWAP2 POP POP JUMP JUMPDEST PUSH1 0x0 DUP1 DUP5 PUSH1 0x1 DUP2 GT ISZERO PUSH2 0x3897 JUMPI PUSH2 0x3897 PUSH2 0x588A JUMP JUMPDEST EQ PUSH2 0x8B3 JUMPI DUP3 PUSH2 0xB20 JUMP JUMPDEST PUSH1 0x0 PUSH2 0x1FB5 PUSH1 0x1 PUSH1 0xFF SHL DUP4 LT PUSH2 0x1A5 PUSH2 0x599 JUMP JUMPDEST PUSH1 0x0 DUP2 DUP2 MSTORE PUSH1 0x9 PUSH1 0x20 MSTORE PUSH1 0x40 DUP2 KECCAK256 DUP1 SLOAD PUSH1 0x1 DUP3 ADD SLOAD PUSH1 0x1 PUSH1 0x1 PUSH1 0xA0 SHL SUB SWAP2 DUP3 AND SWAP3 DUP5 SWAP3 SWAP1 SWAP2 AND SWAP1 DUP3 SWAP1 DUP2 PUSH2 0x38EA DUP7 DUP6 PUSH2 0x437B JUMP JUMPDEST PUSH1 0x0 DUP2 DUP2 MSTORE PUSH1 0x2 DUP5 ADD PUSH1 0x20 MSTORE PUSH1 0x40 SWAP1 KECCAK256 DUP1 SLOAD PUSH1 0x1 DUP3 ADD SLOAD SWAP2 SWAP10 POP SWAP2 SWAP3 POP PUSH2 0x3911 DUP3 DUP3 PUSH2 0x43C5 JUMP JUMPDEST SWAP7 POP PUSH2 0x391D DUP3 DUP3 PUSH2 0x43EE JUMP JUMPDEST SWAP5 POP POP POP POP POP SWAP2 SWAP4 SWAP6 SWAP1 SWAP3 SWAP5 POP JUMP JUMPDEST PUSH1 0x0 DUP3 DUP2 MSTORE PUSH1 0x9 PUSH1 0x20 MSTORE PUSH1 0x40 DUP2 KECCAK256 DUP1 SLOAD PUSH1 0x1 PUSH1 0x1 PUSH1 0xA0 SHL SUB DUP5 DUP2 AND SWAP2 AND EQ DUP1 PUSH2 0x3964 JUMPI POP PUSH1 0x1 DUP2 ADD SLOAD PUSH1 0x1 PUSH1 0x1 PUSH1 0xA0 SHL SUB DUP5 DUP2 AND SWAP2 AND EQ JUMPDEST DUP1 ISZERO PUSH2 0xB20 JUMPI POP POP POP PUSH1 0x1 PUSH1 0x1 PUSH1 0xA0 SHL SUB AND ISZERO ISZERO SWAP2 SWAP1 POP JUMP JUMPDEST PUSH1 0x0 DUP3 DUP2 MSTORE PUSH1 0x8 PUSH1 0x20 SWAP1 DUP2 MSTORE PUSH1 0x40 DUP1 DUP4 KECCAK256 PUSH1 0x1 PUSH1 0x1 PUSH1 0xA0 SHL SUB DUP6 AND DUP5 MSTORE PUSH1 0x1 DUP2 ADD SWAP1 SWAP3 MSTORE DUP3 KECCAK256 SLOAD ISZERO ISZERO PUSH2 0xB20 JUMP JUMPDEST PUSH1 0x0 DUP3 DUP2 MSTORE PUSH1 0x1 PUSH1 0x20 SWAP1 DUP2 MSTORE PUSH1 0x40 DUP1 DUP4 KECCAK256 PUSH1 0x1 PUSH1 0x1 PUSH1 0xA0 SHL SUB DUP6 AND DUP5 MSTORE PUSH1 0x2 DUP2 ADD SWAP1 SWAP3 MSTORE DUP3 KECCAK256 SLOAD ISZERO ISZERO PUSH2 0xB20 JUMP JUMPDEST PUSH1 0x0 DUP1 PUSH1 0x2 DUP6 PUSH1 0x2 DUP2 GT ISZERO PUSH2 0x39F0 JUMPI PUSH2 0x39F0 PUSH2 0x588A JUMP JUMPDEST EQ ISZERO PUSH2 0x3A06 JUMPI PUSH2 0x3A01 DUP7 DUP6 DUP6 PUSH2 0x4816 JUMP JUMPDEST PUSH2 0x3A36 JUMP JUMPDEST PUSH1 0x1 DUP6 PUSH1 0x2 DUP2 GT ISZERO PUSH2 0x3A1A JUMPI PUSH2 0x3A1A PUSH2 0x588A JUMP JUMPDEST EQ ISZERO PUSH2 0x3A2B JUMPI PUSH2 0x3A01 DUP7 DUP6 DUP6 PUSH2 0x4824 JUMP JUMPDEST PUSH2 0x3A36 DUP7 DUP6 DUP6 PUSH2 0x4832 JUMP JUMPDEST DUP3 ISZERO PUSH2 0x3A50 JUMPI PUSH2 0x3A50 PUSH1 0x1 PUSH1 0x1 PUSH1 0xA0 SHL SUB DUP6 AND CALLER DUP6 PUSH2 0x2EB4 JUMP JUMPDEST PUSH2 0x3A59 DUP4 PUSH2 0x5B1E JUMP JUMPDEST SWAP7 SWAP3 SWAP6 POP SWAP2 SWAP4 POP POP POP POP JUMP JUMPDEST PUSH1 0x0 DUP1 PUSH1 0x2 DUP6 PUSH1 0x2 DUP2 GT ISZERO PUSH2 0x3A7C JUMPI PUSH2 0x3A7C PUSH2 0x588A JUMP JUMPDEST EQ ISZERO PUSH2 0x3A92 JUMPI PUSH2 0x3A8D DUP7 DUP6 DUP6 PUSH2 0x4840 JUMP JUMPDEST PUSH2 0x3AC2 JUMP JUMPDEST PUSH1 0x1 DUP6 PUSH1 0x2 DUP2 GT ISZERO PUSH2 0x3AA6 JUMPI PUSH2 0x3AA6 PUSH2 0x588A JUMP JUMPDEST EQ ISZERO PUSH2 0x3AB7 JUMPI PUSH2 0x3A8D DUP7 DUP6 DUP6 PUSH2 0x484E JUMP JUMPDEST PUSH2 0x3AC2 DUP7 DUP6 DUP6 PUSH2 0x485C JUMP JUMPDEST DUP3 ISZERO PUSH2 0x3ADD JUMPI PUSH2 0x3ADD PUSH1 0x1 PUSH1 0x1 PUSH1 0xA0 SHL SUB DUP6 AND CALLER ADDRESS DUP7 PUSH2 0x29C7 JUMP JUMPDEST DUP3 SWAP2 POP PUSH2 0x3AE9 DUP3 PUSH2 0x5B1E JUMP JUMPDEST SWAP1 POP SWAP5 POP SWAP5 SWAP3 POP POP POP JUMP JUMPDEST PUSH1 0x0 DUP1 PUSH1 0x2 DUP6 PUSH1 0x2 DUP2 GT ISZERO PUSH2 0x3B0B JUMPI PUSH2 0x3B0B PUSH2 0x588A JUMP JUMPDEST EQ ISZERO PUSH2 0x3B23 JUMPI PUSH2 0x3B1C DUP7 DUP6 DUP6 PUSH2 0x486A JUMP JUMPDEST SWAP1 POP PUSH2 0x3B56 JUMP JUMPDEST PUSH1 0x1 DUP6 PUSH1 0x2 DUP2 GT ISZERO PUSH2 0x3B37 JUMPI PUSH2 0x3B37 PUSH2 0x588A JUMP JUMPDEST EQ ISZERO PUSH2 0x3B48 JUMPI PUSH2 0x3B1C DUP7 DUP6 DUP6 PUSH2 0x487A JUMP JUMPDEST PUSH2 0x3B53 DUP7 DUP6 DUP6 PUSH2 0x488A JUMP JUMPDEST SWAP1 POP JUMPDEST PUSH1 0x0 SWAP2 POP SWAP5 POP SWAP5 SWAP3 POP POP POP JUMP JUMPDEST PUSH1 0x60 DUP1 PUSH1 0x0 DUP1 PUSH1 0x0 DUP1 PUSH2 0x3B75 DUP8 PUSH2 0x38B6 JUMP JUMPDEST SWAP3 SWAP8 POP SWAP1 SWAP6 POP SWAP4 POP SWAP2 POP POP PUSH1 0x1 PUSH1 0x1 PUSH1 0xA0 SHL SUB DUP5 AND ISZERO DUP1 PUSH2 0x3B9D JUMPI POP PUSH1 0x1 PUSH1 0x1 PUSH1 0xA0 SHL SUB DUP3 AND ISZERO JUMPDEST ISZERO PUSH2 0x3BC5 JUMPI POP POP PUSH1 0x40 DUP1 MLOAD PUSH1 0x0 DUP1 DUP3 MSTORE PUSH1 0x20 DUP3 ADD SWAP1 DUP2 MSTORE DUP2 DUP4 ADD SWAP1 SWAP3 MSTORE SWAP7 SWAP1 SWAP6 POP SWAP4 POP POP POP POP JUMP JUMPDEST PUSH1 0x40 DUP1 MLOAD PUSH1 0x2 DUP1 DUP3 MSTORE PUSH1 0x60 DUP3 ADD DUP4 MSTORE SWAP1 SWAP2 PUSH1 0x20 DUP4 ADD SWAP1 DUP1 CALLDATASIZE DUP4 CALLDATACOPY ADD SWAP1 POP POP SWAP6 POP DUP4 DUP7 PUSH1 0x0 DUP2 MLOAD DUP2 LT PUSH2 0x3BF9 JUMPI PUSH2 0x3BF9 PUSH2 0x5A7A JUMP JUMPDEST PUSH1 0x20 MUL PUSH1 0x20 ADD ADD SWAP1 PUSH1 0x1 PUSH1 0x1 PUSH1 0xA0 SHL SUB AND SWAP1 DUP2 PUSH1 0x1 PUSH1 0x1 PUSH1 0xA0 SHL SUB AND DUP2 MSTORE POP POP DUP2 DUP7 PUSH1 0x1 DUP2 MLOAD DUP2 LT PUSH2 0x3C2D JUMPI PUSH2 0x3C2D PUSH2 0x5A7A JUMP JUMPDEST PUSH1 0x1 PUSH1 0x1 PUSH1 0xA0 SHL SUB SWAP3 SWAP1 SWAP3 AND PUSH1 0x20 SWAP3 DUP4 MUL SWAP2 SWAP1 SWAP2 ADD DUP3 ADD MSTORE PUSH1 0x40 DUP1 MLOAD PUSH1 0x2 DUP1 DUP3 MSTORE PUSH1 0x60 DUP3 ADD DUP4 MSTORE SWAP1 SWAP3 SWAP1 SWAP2 SWAP1 DUP4 ADD SWAP1 DUP1 CALLDATASIZE DUP4 CALLDATACOPY ADD SWAP1 POP POP SWAP5 POP DUP3 DUP6 PUSH1 0x0 DUP2 MLOAD DUP2 LT PUSH2 0x3C7A JUMPI PUSH2 0x3C7A PUSH2 0x5A7A JUMP JUMPDEST PUSH1 0x20 MUL PUSH1 0x20 ADD ADD DUP2 DUP2 MSTORE POP POP DUP1 DUP6 PUSH1 0x1 DUP2 MLOAD DUP2 LT PUSH2 0x3C9A JUMPI PUSH2 0x3C9A PUSH2 0x5A7A JUMP JUMPDEST PUSH1 0x20 MUL PUSH1 0x20 ADD ADD DUP2 DUP2 MSTORE POP POP POP POP POP POP SWAP2 POP SWAP2 JUMP JUMPDEST PUSH1 0x0 DUP2 DUP2 MSTORE PUSH1 0x8 PUSH1 0x20 MSTORE PUSH1 0x40 SWAP1 KECCAK256 DUP1 SLOAD PUSH1 0x60 SWAP2 DUP3 SWAP2 PUSH1 0x1 PUSH1 0x1 PUSH1 0x40 SHL SUB DUP2 GT ISZERO PUSH2 0x3CDB JUMPI PUSH2 0x3CDB PUSH2 0x4DCC JUMP JUMPDEST PUSH1 0x40 MLOAD SWAP1 DUP1 DUP3 MSTORE DUP1 PUSH1 0x20 MUL PUSH1 0x20 ADD DUP3 ADD PUSH1 0x40 MSTORE DUP1 ISZERO PUSH2 0x3D04 JUMPI DUP2 PUSH1 0x20 ADD PUSH1 0x20 DUP3 MUL DUP1 CALLDATASIZE DUP4 CALLDATACOPY ADD SWAP1 POP JUMPDEST POP SWAP3 POP DUP3 MLOAD PUSH1 0x1 PUSH1 0x1 PUSH1 0x40 SHL SUB DUP2 GT ISZERO PUSH2 0x3D20 JUMPI PUSH2 0x3D20 PUSH2 0x4DCC JUMP JUMPDEST PUSH1 0x40 MLOAD SWAP1 DUP1 DUP3 MSTORE DUP1 PUSH1 0x20 MUL PUSH1 0x20 ADD DUP3 ADD PUSH1 0x40 MSTORE DUP1 ISZERO PUSH2 0x3D49 JUMPI DUP2 PUSH1 0x20 ADD PUSH1 0x20 DUP3 MUL DUP1 CALLDATASIZE DUP4 CALLDATACOPY ADD SWAP1 POP JUMPDEST POP SWAP2 POP PUSH1 0x0 JUMPDEST DUP4 MLOAD DUP2 LT ISZERO PUSH2 0x3DDC JUMPI PUSH1 0x0 PUSH2 0x3D64 DUP4 DUP4 PUSH2 0x489A JUMP JUMPDEST SWAP1 POP DUP1 DUP6 DUP4 DUP2 MLOAD DUP2 LT PUSH2 0x3D79 JUMPI PUSH2 0x3D79 PUSH2 0x5A7A JUMP JUMPDEST PUSH1 0x1 PUSH1 0x1 PUSH1 0xA0 SHL SUB SWAP3 DUP4 AND PUSH1 0x20 SWAP2 DUP3 MUL SWAP3 SWAP1 SWAP3 ADD DUP2 ADD SWAP2 SWAP1 SWAP2 MSTORE PUSH1 0x0 DUP9 DUP2 MSTORE PUSH1 0x7 DUP3 MSTORE PUSH1 0x40 DUP1 DUP3 KECCAK256 SWAP4 DUP6 AND DUP3 MSTORE SWAP3 SWAP1 SWAP2 MSTORE KECCAK256 SLOAD DUP5 MLOAD DUP6 SWAP1 DUP5 SWAP1 DUP2 LT PUSH2 0x3DC0 JUMPI PUSH2 0x3DC0 PUSH2 0x5A7A JUMP JUMPDEST PUSH1 0x20 SWAP1 DUP2 MUL SWAP2 SWAP1 SWAP2 ADD ADD MSTORE POP PUSH2 0x3DD5 DUP2 PUSH2 0x5A90 JUMP JUMPDEST SWAP1 POP PUSH2 0x3D4F JUMP JUMPDEST POP POP SWAP2 POP SWAP2 JUMP JUMPDEST PUSH1 0x0 DUP2 DUP2 MSTORE PUSH1 0x1 PUSH1 0x20 MSTORE PUSH1 0x40 SWAP1 KECCAK256 DUP1 SLOAD PUSH1 0x60 SWAP2 DUP3 SWAP2 PUSH1 0x1 PUSH1 0x1 PUSH1 0x40 SHL SUB DUP2 GT ISZERO PUSH2 0x3E0F JUMPI PUSH2 0x3E0F PUSH2 0x4DCC JUMP JUMPDEST PUSH1 0x40 MLOAD SWAP1 DUP1 DUP3 MSTORE DUP1 PUSH1 0x20 MUL PUSH1 0x20 ADD DUP3 ADD PUSH1 0x40 MSTORE DUP1 ISZERO PUSH2 0x3E38 JUMPI DUP2 PUSH1 0x20 ADD PUSH1 0x20 DUP3 MUL DUP1 CALLDATASIZE DUP4 CALLDATACOPY ADD SWAP1 POP JUMPDEST POP SWAP3 POP DUP3 MLOAD PUSH1 0x1 PUSH1 0x1 PUSH1 0x40 SHL SUB DUP2 GT ISZERO PUSH2 0x3E54 JUMPI PUSH2 0x3E54 PUSH2 0x4DCC JUMP JUMPDEST PUSH1 0x40 MLOAD SWAP1 DUP1 DUP3 MSTORE DUP1 PUSH1 0x20 MUL PUSH1 0x20 ADD DUP3 ADD PUSH1 0x40 MSTORE DUP1 ISZERO PUSH2 0x3E7D JUMPI DUP2 PUSH1 0x20 ADD PUSH1 0x20 DUP3 MUL DUP1 CALLDATASIZE DUP4 CALLDATACOPY ADD SWAP1 POP JUMPDEST POP SWAP2 POP PUSH1 0x0 JUMPDEST DUP4 MLOAD DUP2 LT ISZERO PUSH2 0x3DDC JUMPI PUSH1 0x0 DUP2 DUP2 MSTORE PUSH1 0x1 DUP1 DUP5 ADD PUSH1 0x20 MSTORE PUSH1 0x40 SWAP1 SWAP2 KECCAK256 DUP1 SLOAD SWAP2 ADD SLOAD PUSH1 0x1 PUSH1 0x1 PUSH1 0xA0 SHL SUB SWAP1 SWAP2 AND SWAP1 DUP6 DUP4 DUP2 MLOAD DUP2 LT PUSH2 0x3EC1 JUMPI PUSH2 0x3EC1 PUSH2 0x5A7A JUMP JUMPDEST PUSH1 0x20 MUL PUSH1 0x20 ADD ADD DUP6 DUP5 DUP2 MLOAD DUP2 LT PUSH2 0x3EDA JUMPI PUSH2 0x3EDA PUSH2 0x5A7A JUMP JUMPDEST PUSH1 0x20 SWAP1 DUP2 MUL SWAP2 SWAP1 SWAP2 ADD ADD SWAP2 SWAP1 SWAP2 MSTORE PUSH1 0x1 PUSH1 0x1 PUSH1 0xA0 SHL SUB SWAP1 SWAP2 AND SWAP1 MSTORE PUSH2 0x3EFE DUP2 PUSH2 0x5A90 JUMP JUMPDEST SWAP1 POP PUSH2 0x3E83 JUMP JUMPDEST PUSH1 0x0 PUSH2 0x3F1A DUP3 PUSH1 0x70 SHR PUSH1 0x1 PUSH1 0x1 PUSH1 0x70 SHL SUB AND SWAP1 JUMP JUMPDEST PUSH2 0x149A SWAP1 PUSH1 0x1 PUSH1 0x1 PUSH1 0x70 SHL SUB DUP5 AND PUSH2 0x5A54 JUMP JUMPDEST PUSH1 0x0 DUP2 DUP4 LT ISZERO PUSH2 0x3F3D JUMPI DUP2 PUSH2 0x1497 JUMP JUMPDEST POP SWAP1 SWAP2 SWAP1 POP JUMP JUMPDEST PUSH1 0x0 DUP2 DUP4 LT PUSH2 0x3F3D JUMPI DUP2 PUSH2 0x1497 JUMP JUMPDEST PUSH1 0x1 PUSH1 0x1 PUSH1 0xA0 SHL SUB DUP5 DUP2 AND PUSH1 0x0 DUP2 DUP2 MSTORE PUSH1 0xB PUSH1 0x20 SWAP1 DUP2 MSTORE PUSH1 0x40 DUP1 DUP4 KECCAK256 SWAP5 DUP9 AND DUP1 DUP5 MSTORE SWAP5 DUP3 MSTORE SWAP2 DUP3 SWAP1 KECCAK256 DUP7 SWAP1 SSTORE SWAP1 MLOAD DUP5 DUP2 MSTORE PUSH32 0x18E1EA4139E68413D7D08AA752E71568E36B2C5BF940893314C2C5B01EAA0C42 SWAP2 ADD PUSH2 0x175A JUMP JUMPDEST PUSH1 0x0 DUP1 DUP4 PUSH1 0x1 PUSH1 0x1 PUSH1 0xA0 SHL SUB AND DUP4 PUSH1 0x40 MLOAD PUSH2 0x3FC7 SWAP2 SWAP1 PUSH2 0x5EC7 JUMP JUMPDEST PUSH1 0x0 PUSH1 0x40 MLOAD DUP1 DUP4 SUB DUP2 PUSH1 0x0 DUP7 GAS CALL SWAP2 POP POP RETURNDATASIZE DUP1 PUSH1 0x0 DUP2 EQ PUSH2 0x4004 JUMPI PUSH1 0x40 MLOAD SWAP2 POP PUSH1 0x1F NOT PUSH1 0x3F RETURNDATASIZE ADD AND DUP3 ADD PUSH1 0x40 MSTORE RETURNDATASIZE DUP3 MSTORE RETURNDATASIZE PUSH1 0x0 PUSH1 0x20 DUP5 ADD RETURNDATACOPY PUSH2 0x4009 JUMP JUMPDEST PUSH1 0x60 SWAP2 POP JUMPDEST POP SWAP2 POP SWAP2 POP PUSH1 0x0 DUP3 EQ ISZERO PUSH2 0x4021 JUMPI RETURNDATASIZE PUSH1 0x0 DUP1 RETURNDATACOPY RETURNDATASIZE PUSH1 0x0 REVERT JUMPDEST PUSH2 0xEEC DUP2 MLOAD PUSH1 0x0 EQ DUP1 PUSH2 0x4043 JUMPI POP DUP2 DUP1 PUSH1 0x20 ADD SWAP1 MLOAD DUP2 ADD SWAP1 PUSH2 0x4043 SWAP2 SWAP1 PUSH2 0x5C1B JUMP JUMPDEST PUSH2 0x1A2 PUSH2 0x599 JUMP JUMPDEST PUSH1 0x0 CALLDATASIZE PUSH1 0x7F NOT ADD CALLDATALOAD TIMESTAMP DUP2 LT ISZERO PUSH2 0x4065 JUMPI PUSH1 0x0 SWAP2 POP POP PUSH2 0x149A JUMP JUMPDEST PUSH1 0x0 PUSH2 0x406F PUSH2 0x48CD JUMP JUMPDEST SWAP1 POP DUP1 PUSH2 0x4081 JUMPI PUSH1 0x0 SWAP3 POP POP POP PUSH2 0x149A JUMP JUMPDEST PUSH1 0x0 DUP2 PUSH2 0x408C PUSH2 0x49DD JUMP JUMPDEST DUP1 MLOAD PUSH1 0x20 SWAP2 DUP3 ADD KECCAK256 PUSH1 0x40 DUP1 MLOAD SWAP3 DUP4 ADD SWAP4 SWAP1 SWAP4 MSTORE SWAP2 DUP2 ADD SWAP2 SWAP1 SWAP2 MSTORE CALLER PUSH1 0x60 DUP3 ADD MSTORE PUSH1 0x80 DUP2 ADD DUP7 SWAP1 MSTORE PUSH1 0xA0 DUP2 ADD DUP5 SWAP1 MSTORE PUSH1 0xC0 ADD PUSH1 0x40 MLOAD PUSH1 0x20 DUP2 DUP4 SUB SUB DUP2 MSTORE SWAP1 PUSH1 0x40 MSTORE DUP1 MLOAD SWAP1 PUSH1 0x20 ADD KECCAK256 SWAP1 POP PUSH1 0x0 PUSH2 0x40E0 DUP3 PUSH2 0x4A2D JUMP JUMPDEST SWAP1 POP PUSH1 0x0 DUP1 PUSH1 0x0 PUSH2 0x40EF PUSH2 0x4A5C JUMP JUMPDEST SWAP3 POP SWAP3 POP SWAP3 POP PUSH1 0x0 PUSH1 0x1 DUP6 DUP6 DUP6 DUP6 PUSH1 0x40 MLOAD PUSH1 0x0 DUP2 MSTORE PUSH1 0x20 ADD PUSH1 0x40 MSTORE PUSH1 0x40 MLOAD PUSH2 0x4133 SWAP5 SWAP4 SWAP3 SWAP2 SWAP1 SWAP4 DUP5 MSTORE PUSH1 0xFF SWAP3 SWAP1 SWAP3 AND PUSH1 0x20 DUP5 ADD MSTORE PUSH1 0x40 DUP4 ADD MSTORE PUSH1 0x60 DUP3 ADD MSTORE PUSH1 0x80 ADD SWAP1 JUMP JUMPDEST PUSH1 0x20 PUSH1 0x40 MLOAD PUSH1 0x20 DUP2 SUB SWAP1 DUP1 DUP5 SUB SWAP1 DUP6 GAS STATICCALL ISZERO DUP1 ISZERO PUSH2 0x4155 JUMPI RETURNDATASIZE PUSH1 0x0 DUP1 RETURNDATACOPY RETURNDATASIZE PUSH1 0x0 REVERT JUMPDEST POP POP PUSH1 0x40 MLOAD PUSH1 0x1F NOT ADD MLOAD SWAP2 POP POP PUSH1 0x1 PUSH1 0x1 PUSH1 0xA0 SHL SUB DUP2 AND ISZERO DUP1 ISZERO SWAP1 PUSH2 0x418B JUMPI POP DUP11 PUSH1 0x1 PUSH1 0x1 PUSH1 0xA0 SHL SUB AND DUP2 PUSH1 0x1 PUSH1 0x1 PUSH1 0xA0 SHL SUB AND EQ JUMPDEST SWAP12 SWAP11 POP POP POP POP POP POP POP POP POP POP POP JUMP JUMPDEST PUSH1 0x0 DUP1 PUSH1 0x0 DUP1 PUSH2 0x41A9 DUP7 PUSH2 0x3F05 JUMP JUMPDEST SWAP1 POP PUSH1 0x0 PUSH2 0x41B6 DUP7 PUSH2 0x3F05 JUMP JUMPDEST SWAP1 POP PUSH2 0x41CF PUSH2 0x41C5 DUP9 PUSH1 0xE0 SHR SWAP1 JUMP JUMPDEST PUSH2 0x2858 DUP9 PUSH1 0xE0 SHR SWAP1 JUMP JUMPDEST PUSH1 0xA0 DUP11 ADD MSTORE PUSH1 0x40 MLOAD PUSH4 0x274B0443 PUSH1 0xE2 SHL DUP2 MSTORE PUSH1 0x1 PUSH1 0x1 PUSH1 0xA0 SHL SUB DUP10 AND SWAP1 PUSH4 0x9D2C110C SWAP1 PUSH2 0x4204 SWAP1 DUP13 SWAP1 DUP7 SWAP1 DUP7 SWAP1 PUSH1 0x4 ADD PUSH2 0x5EE3 JUMP JUMPDEST PUSH1 0x20 PUSH1 0x40 MLOAD DUP1 DUP4 SUB DUP2 PUSH1 0x0 DUP8 DUP1 EXTCODESIZE ISZERO DUP1 ISZERO PUSH2 0x421E JUMPI PUSH1 0x0 DUP1 REVERT JUMPDEST POP GAS CALL ISZERO DUP1 ISZERO PUSH2 0x4232 JUMPI RETURNDATASIZE PUSH1 0x0 DUP1 RETURNDATACOPY RETURNDATASIZE PUSH1 0x0 REVERT JUMPDEST POP POP POP POP PUSH1 0x40 MLOAD RETURNDATASIZE PUSH1 0x1F NOT PUSH1 0x1F DUP3 ADD AND DUP3 ADD DUP1 PUSH1 0x40 MSTORE POP DUP2 ADD SWAP1 PUSH2 0x4256 SWAP2 SWAP1 PUSH2 0x5D86 JUMP JUMPDEST SWAP3 POP PUSH1 0x0 DUP1 PUSH2 0x426E DUP12 PUSH1 0x0 ADD MLOAD DUP13 PUSH1 0x60 ADD MLOAD DUP8 PUSH2 0x2E0F JUMP JUMPDEST SWAP1 SWAP3 POP SWAP1 POP PUSH2 0x427D DUP10 DUP4 PUSH2 0x42F7 JUMP JUMPDEST SWAP7 POP PUSH2 0x4289 DUP9 DUP3 PUSH2 0x42F7 JUMP JUMPDEST SWAP6 POP POP POP POP POP SWAP5 POP SWAP5 POP SWAP5 SWAP2 POP POP JUMP JUMPDEST PUSH1 0x0 DUP1 PUSH2 0x42B3 PUSH2 0x42A9 DUP6 PUSH1 0xE0 SHR SWAP1 JUMP JUMPDEST PUSH2 0x2858 DUP6 PUSH1 0xE0 SHR SWAP1 JUMP JUMPDEST SWAP1 POP PUSH2 0xB20 PUSH1 0x1 PUSH1 0x1 PUSH1 0x70 SHL SUB DUP6 AND PUSH1 0x1 PUSH1 0x1 PUSH1 0x70 SHL SUB DUP6 AND DUP4 PUSH4 0xFFFFFFFF AND PUSH2 0x4A78 JUMP JUMPDEST PUSH1 0x1 PUSH1 0x1 PUSH1 0xA0 SHL SUB AND PUSH1 0x0 SWAP1 DUP2 MSTORE PUSH1 0x2 SWAP2 SWAP1 SWAP2 ADD PUSH1 0x20 MSTORE PUSH1 0x40 SWAP1 KECCAK256 SLOAD SWAP1 JUMP JUMPDEST PUSH1 0x0 DUP1 PUSH2 0x430D DUP4 PUSH1 0x1 PUSH1 0x1 PUSH1 0x70 SHL SUB DUP7 AND PUSH2 0x5A54 JUMP JUMPDEST SWAP1 POP PUSH1 0x0 PUSH2 0x4324 DUP6 PUSH1 0x70 SHR PUSH1 0x1 PUSH1 0x1 PUSH1 0x70 SHL SUB AND SWAP1 JUMP JUMPDEST SWAP1 POP NUMBER PUSH2 0x103E DUP4 DUP4 DUP4 PUSH2 0x4A97 JUMP JUMPDEST PUSH1 0x0 SWAP2 DUP3 MSTORE PUSH1 0x1 SWAP3 DUP4 ADD PUSH1 0x20 MSTORE PUSH1 0x40 SWAP1 SWAP2 KECCAK256 SWAP1 SWAP2 ADD SSTORE JUMP JUMPDEST PUSH1 0x0 DUP1 DUP3 PUSH1 0x1 PUSH1 0x1 PUSH1 0xA0 SHL SUB AND DUP5 PUSH1 0x1 PUSH1 0x1 PUSH1 0xA0 SHL SUB AND LT PUSH2 0x436D JUMPI DUP3 DUP5 PUSH2 0x4370 JUMP JUMPDEST DUP4 DUP4 JUMPDEST SWAP2 POP SWAP2 POP SWAP3 POP SWAP3 SWAP1 POP JUMP JUMPDEST PUSH1 0x40 MLOAD PUSH12 0xFFFFFFFFFFFFFFFFFFFFFFFF NOT PUSH1 0x60 DUP5 DUP2 SHL DUP3 AND PUSH1 0x20 DUP5 ADD MSTORE DUP4 SWAP1 SHL AND PUSH1 0x34 DUP3 ADD MSTORE PUSH1 0x0 SWAP1 PUSH1 0x48 ADD PUSH1 0x40 MLOAD PUSH1 0x20 DUP2 DUP4 SUB SUB DUP2 MSTORE SWAP1 PUSH1 0x40 MSTORE DUP1 MLOAD SWAP1 PUSH1 0x20 ADD KECCAK256 SWAP1 POP SWAP3 SWAP2 POP POP JUMP JUMPDEST PUSH1 0x0 PUSH2 0x1497 PUSH1 0x1 PUSH1 0x1 PUSH1 0x70 SHL SUB DUP5 AND PUSH1 0x1 PUSH1 0x1 PUSH1 0x70 SHL SUB DUP5 AND JUMPDEST PUSH2 0x43E9 DUP7 PUSH1 0xE0 SHR SWAP1 JUMP JUMPDEST PUSH2 0x4A97 JUMP JUMPDEST PUSH1 0x0 PUSH2 0x1497 PUSH2 0x4406 DUP5 PUSH1 0x70 SHR PUSH1 0x1 PUSH1 0x1 PUSH1 0x70 SHL SUB AND SWAP1 JUMP JUMPDEST PUSH2 0x43DF DUP5 PUSH1 0x70 SHR PUSH1 0x1 PUSH1 0x1 PUSH1 0x70 SHL SUB AND SWAP1 JUMP JUMPDEST PUSH1 0x1 PUSH1 0x1 PUSH1 0xA0 SHL SUB DUP3 AND PUSH1 0x0 SWAP1 DUP2 MSTORE PUSH1 0x2 DUP5 ADD PUSH1 0x20 MSTORE PUSH1 0x40 DUP2 KECCAK256 SLOAD PUSH2 0x4440 DUP2 ISZERO ISZERO DUP5 PUSH2 0x599 JUMP JUMPDEST PUSH2 0x4465 DUP6 PUSH2 0x444F PUSH1 0x1 DUP5 PUSH2 0x5B4B JUMP JUMPDEST PUSH1 0x0 SWAP1 DUP2 MSTORE PUSH1 0x1 SWAP2 DUP3 ADD PUSH1 0x20 MSTORE PUSH1 0x40 SWAP1 KECCAK256 ADD SLOAD SWAP1 JUMP JUMPDEST SWAP6 SWAP5 POP POP POP POP POP JUMP JUMPDEST PUSH1 0x0 PUSH32 0x0 PUSH1 0x1 PUSH1 0x1 PUSH1 0xA0 SHL SUB AND PUSH4 0x55C67628 PUSH1 0x40 MLOAD DUP2 PUSH4 0xFFFFFFFF AND PUSH1 0xE0 SHL DUP2 MSTORE PUSH1 0x4 ADD PUSH1 0x20 PUSH1 0x40 MLOAD DUP1 DUP4 SUB DUP2 DUP7 DUP1 EXTCODESIZE ISZERO DUP1 ISZERO PUSH2 0x44C9 JUMPI PUSH1 0x0 DUP1 REVERT JUMPDEST POP GAS STATICCALL ISZERO DUP1 ISZERO PUSH2 0x44DD JUMPI RETURNDATASIZE PUSH1 0x0 DUP1 RETURNDATACOPY RETURNDATASIZE PUSH1 0x0 REVERT JUMPDEST POP POP POP POP PUSH1 0x40 MLOAD RETURNDATASIZE PUSH1 0x1F NOT PUSH1 0x1F DUP3 ADD AND DUP3 ADD DUP1 PUSH1 0x40 MSTORE POP DUP2 ADD SWAP1 PUSH2 0x1048 SWAP2 SWAP1 PUSH2 0x5D86 JUMP JUMPDEST PUSH2 0xCF0 DUP3 DUP5 EQ DUP1 ISZERO PUSH2 0x4512 JUMPI POP DUP2 DUP4 EQ JUMPDEST PUSH1 0x67 PUSH2 0x599 JUMP JUMPDEST PUSH1 0x60 DUP4 MLOAD PUSH1 0x1 PUSH1 0x1 PUSH1 0x40 SHL SUB DUP2 GT ISZERO PUSH2 0x4534 JUMPI PUSH2 0x4534 PUSH2 0x4DCC JUMP JUMPDEST PUSH1 0x40 MLOAD SWAP1 DUP1 DUP3 MSTORE DUP1 PUSH1 0x20 MUL PUSH1 0x20 ADD DUP3 ADD PUSH1 0x40 MSTORE DUP1 ISZERO PUSH2 0x455D JUMPI DUP2 PUSH1 0x20 ADD PUSH1 0x20 DUP3 MUL DUP1 CALLDATASIZE DUP4 CALLDATACOPY ADD SWAP1 POP JUMPDEST POP SWAP1 POP PUSH1 0x0 JUMPDEST DUP6 MLOAD MLOAD DUP2 LT ISZERO PUSH2 0x4680 JUMPI PUSH1 0x0 DUP5 DUP3 DUP2 MLOAD DUP2 LT PUSH2 0x4581 JUMPI PUSH2 0x4581 PUSH2 0x5A7A JUMP JUMPDEST PUSH1 0x20 MUL PUSH1 0x20 ADD ADD MLOAD SWAP1 POP PUSH2 0x45B7 DUP8 PUSH1 0x20 ADD MLOAD DUP4 DUP2 MLOAD DUP2 LT PUSH2 0x45A4 JUMPI PUSH2 0x45A4 PUSH2 0x5A7A JUMP JUMPDEST PUSH1 0x20 MUL PUSH1 0x20 ADD ADD MLOAD DUP3 LT ISZERO PUSH2 0x1F9 PUSH2 0x599 JUMP JUMPDEST PUSH1 0x0 DUP8 PUSH1 0x0 ADD MLOAD DUP4 DUP2 MLOAD DUP2 LT PUSH2 0x45CF JUMPI PUSH2 0x45CF PUSH2 0x5A7A JUMP JUMPDEST PUSH1 0x20 MUL PUSH1 0x20 ADD ADD MLOAD SWAP1 POP PUSH2 0x45E9 DUP2 DUP4 DUP12 DUP12 PUSH1 0x60 ADD MLOAD PUSH2 0x1B27 JUMP JUMPDEST PUSH1 0x0 DUP6 DUP5 DUP2 MLOAD DUP2 LT PUSH2 0x45FD JUMPI PUSH2 0x45FD PUSH2 0x5A7A JUMP JUMPDEST PUSH1 0x20 MUL PUSH1 0x20 ADD ADD MLOAD SWAP1 POP PUSH2 0x4619 PUSH2 0x4613 DUP4 PUSH2 0x18EB JUMP JUMPDEST DUP3 PUSH2 0x4ADA JUMP JUMPDEST PUSH2 0x464E PUSH2 0x4626 DUP3 DUP6 PUSH2 0x5A54 JUMP JUMPDEST DUP10 DUP7 DUP2 MLOAD DUP2 LT PUSH2 0x4638 JUMPI PUSH2 0x4638 PUSH2 0x5A7A JUMP JUMPDEST PUSH1 0x20 MUL PUSH1 0x20 ADD ADD MLOAD PUSH2 0x42F7 SWAP1 SWAP2 SWAP1 PUSH4 0xFFFFFFFF AND JUMP JUMPDEST DUP6 DUP6 DUP2 MLOAD DUP2 LT PUSH2 0x4660 JUMPI PUSH2 0x4660 PUSH2 0x5A7A JUMP JUMPDEST PUSH1 0x20 MUL PUSH1 0x20 ADD ADD DUP2 DUP2 MSTORE POP POP POP POP POP DUP1 PUSH2 0x4679 SWAP1 PUSH2 0x5A90 JUMP JUMPDEST SWAP1 POP PUSH2 0x4563 JUMP JUMPDEST POP SWAP6 SWAP5 POP POP POP POP POP JUMP JUMPDEST PUSH1 0x60 PUSH1 0x0 DUP5 MLOAD PUSH1 0x1 PUSH1 0x1 PUSH1 0x40 SHL SUB DUP2 GT ISZERO PUSH2 0x46A7 JUMPI PUSH2 0x46A7 PUSH2 0x4DCC JUMP JUMPDEST PUSH1 0x40 MLOAD SWAP1 DUP1 DUP3 MSTORE DUP1 PUSH1 0x20 MUL PUSH1 0x20 ADD DUP3 ADD PUSH1 0x40 MSTORE DUP1 ISZERO PUSH2 0x46D0 JUMPI DUP2 PUSH1 0x20 ADD PUSH1 0x20 DUP3 MUL DUP1 CALLDATASIZE DUP4 CALLDATACOPY ADD SWAP1 POP JUMPDEST POP SWAP2 POP PUSH1 0x0 JUMPDEST DUP7 MLOAD MLOAD DUP2 LT ISZERO PUSH2 0x480C JUMPI PUSH1 0x0 DUP6 DUP3 DUP2 MLOAD DUP2 LT PUSH2 0x46F4 JUMPI PUSH2 0x46F4 PUSH2 0x5A7A JUMP JUMPDEST PUSH1 0x20 MUL PUSH1 0x20 ADD ADD MLOAD SWAP1 POP PUSH2 0x472A DUP9 PUSH1 0x20 ADD MLOAD DUP4 DUP2 MLOAD DUP2 LT PUSH2 0x4717 JUMPI PUSH2 0x4717 PUSH2 0x5A7A JUMP JUMPDEST PUSH1 0x20 MUL PUSH1 0x20 ADD ADD MLOAD DUP3 GT ISZERO PUSH2 0x1FA PUSH2 0x599 JUMP JUMPDEST PUSH1 0x0 DUP9 PUSH1 0x0 ADD MLOAD DUP4 DUP2 MLOAD DUP2 LT PUSH2 0x4742 JUMPI PUSH2 0x4742 PUSH2 0x5A7A JUMP JUMPDEST PUSH1 0x20 MUL PUSH1 0x20 ADD ADD MLOAD SWAP1 POP PUSH2 0x475C DUP2 DUP4 DUP13 DUP13 PUSH1 0x60 ADD MLOAD PUSH2 0x1A32 JUMP JUMPDEST PUSH1 0x1 PUSH1 0x1 PUSH1 0xA0 SHL SUB DUP2 AND PUSH2 0x4777 JUMPI PUSH2 0x4774 DUP3 DUP6 PUSH2 0x5A54 JUMP JUMPDEST SWAP4 POP JUMPDEST PUSH1 0x0 DUP7 DUP5 DUP2 MLOAD DUP2 LT PUSH2 0x478B JUMPI PUSH2 0x478B PUSH2 0x5A7A JUMP JUMPDEST PUSH1 0x20 MUL PUSH1 0x20 ADD ADD MLOAD SWAP1 POP PUSH2 0x47A1 PUSH2 0x4613 DUP4 PUSH2 0x18EB JUMP JUMPDEST DUP1 DUP4 LT ISZERO PUSH2 0x47CD JUMPI PUSH2 0x47C8 PUSH2 0x47B6 DUP5 DUP4 PUSH2 0x5B4B JUMP JUMPDEST DUP11 DUP7 DUP2 MLOAD DUP2 LT PUSH2 0x4638 JUMPI PUSH2 0x4638 PUSH2 0x5A7A JUMP JUMPDEST PUSH2 0x47DA JUMP JUMPDEST PUSH2 0x47DA PUSH2 0x47B6 DUP3 DUP6 PUSH2 0x5B4B JUMP JUMPDEST DUP7 DUP6 DUP2 MLOAD DUP2 LT PUSH2 0x47EC JUMPI PUSH2 0x47EC PUSH2 0x5A7A JUMP JUMPDEST PUSH1 0x20 MUL PUSH1 0x20 ADD ADD DUP2 DUP2 MSTORE POP POP POP POP POP DUP1 PUSH2 0x4805 SWAP1 PUSH2 0x5A90 JUMP JUMPDEST SWAP1 POP PUSH2 0x46D6 JUMP JUMPDEST POP PUSH2 0x4680 DUP2 PUSH2 0x1768 JUMP JUMPDEST PUSH2 0xEEC DUP4 DUP4 PUSH2 0x4B14 DUP5 PUSH2 0x4B67 JUMP JUMPDEST PUSH2 0xEEC DUP4 DUP4 PUSH2 0x4B14 DUP5 PUSH2 0x4C12 JUMP JUMPDEST PUSH2 0xEEC DUP4 DUP4 PUSH2 0x4B14 DUP5 PUSH2 0x4C6D JUMP JUMPDEST PUSH2 0xEEC DUP4 DUP4 PUSH2 0x4CBC DUP5 PUSH2 0x4B67 JUMP JUMPDEST PUSH2 0xEEC DUP4 DUP4 PUSH2 0x4CBC DUP5 PUSH2 0x4C12 JUMP JUMPDEST PUSH2 0xEEC DUP4 DUP4 PUSH2 0x4CBC DUP5 PUSH2 0x4C6D JUMP JUMPDEST PUSH1 0x0 PUSH2 0xB20 DUP5 DUP5 PUSH2 0x4CF4 DUP6 PUSH2 0x4B67 JUMP JUMPDEST PUSH1 0x0 PUSH2 0xB20 DUP5 DUP5 PUSH2 0x4CF4 DUP6 PUSH2 0x4C12 JUMP JUMPDEST PUSH1 0x0 PUSH2 0xB20 DUP5 DUP5 PUSH2 0x4CF4 DUP6 PUSH2 0x4C6D JUMP JUMPDEST PUSH1 0x0 DUP3 PUSH1 0x0 ADD DUP3 DUP2 SLOAD DUP2 LT PUSH2 0x48B1 JUMPI PUSH2 0x48B1 PUSH2 0x5A7A JUMP JUMPDEST PUSH1 0x0 SWAP2 DUP3 MSTORE PUSH1 0x20 SWAP1 SWAP2 KECCAK256 ADD SLOAD PUSH1 0x1 PUSH1 0x1 PUSH1 0xA0 SHL SUB AND SWAP4 SWAP3 POP POP POP JUMP JUMPDEST PUSH1 0x0 DUP1 CALLDATALOAD PUSH1 0xE0 SHR DUP1 PUSH4 0xB95CAC28 DUP2 EQ PUSH2 0x4915 JUMPI PUSH4 0x8BDB3913 DUP2 EQ PUSH2 0x493D JUMPI PUSH4 0x52BBBE29 DUP2 EQ PUSH2 0x4965 JUMPI PUSH4 0x945BCEC9 DUP2 EQ PUSH2 0x498D JUMPI PUSH4 0xFA6E671D DUP2 EQ PUSH2 0x49B5 JUMPI PUSH1 0x0 SWAP3 POP POP POP SWAP1 JUMP JUMPDEST PUSH32 0x3F7B71252BD19113FF48C19C6E004A9BCFCCA320A0D74D58E85877CBD7DCAE58 SWAP3 POP POP POP SWAP1 JUMP JUMPDEST PUSH32 0x8BBC57F66EA936902F50A71CE12B92C43F3C5340BB40C27C4E90AB84EEAE3353 SWAP3 POP POP POP SWAP1 JUMP JUMPDEST PUSH32 0xE192DCBC143B1E244AD73B813FD3C097B832AD260A157340B4E5E5BEDA067ABE SWAP3 POP POP POP SWAP1 JUMP JUMPDEST PUSH32 0x9BFC43A4D98313C6766986FFD7C916C7481566D9F224C6819AF0A53388ACED3A SWAP3 POP POP POP SWAP1 JUMP JUMPDEST PUSH32 0xA3F865AA351E51CFEB40F5178D1564BB629FE9030B83CAF6361D1BAAF5B90B5A SWAP3 POP POP POP SWAP1 JUMP JUMPDEST PUSH1 0x60 PUSH1 0x0 CALLDATASIZE DUP1 DUP1 PUSH1 0x1F ADD PUSH1 0x20 DUP1 SWAP2 DIV MUL PUSH1 0x20 ADD PUSH1 0x40 MLOAD SWAP1 DUP2 ADD PUSH1 0x40 MSTORE DUP1 SWAP4 SWAP3 SWAP2 SWAP1 DUP2 DUP2 MSTORE PUSH1 0x20 ADD DUP4 DUP4 DUP1 DUP3 DUP5 CALLDATACOPY PUSH1 0x0 SWAP3 ADD SWAP2 SWAP1 SWAP2 MSTORE POP POP DUP3 MLOAD SWAP3 SWAP4 POP POP POP PUSH1 0x80 LT ISZERO PUSH2 0x4A2A JUMPI PUSH1 0x80 CALLDATASIZE SUB DUP2 MSTORE JUMPDEST SWAP1 JUMP JUMPDEST PUSH1 0x0 PUSH2 0x4A37 PUSH2 0x26A7 JUMP JUMPDEST PUSH1 0x40 MLOAD PUSH2 0x1901 PUSH1 0xF0 SHL PUSH1 0x20 DUP3 ADD MSTORE PUSH1 0x22 DUP2 ADD SWAP2 SWAP1 SWAP2 MSTORE PUSH1 0x42 DUP2 ADD DUP4 SWAP1 MSTORE PUSH1 0x62 ADD PUSH2 0xEB9 JUMP JUMPDEST CALLDATASIZE PUSH1 0x5F NOT DUP2 ADD CALLDATALOAD SWAP1 PUSH1 0x3F NOT DUP2 ADD CALLDATALOAD SWAP1 PUSH1 0x0 SWAP1 PUSH1 0x1F NOT ADD CALLDATALOAD PUSH2 0x928 JUMP JUMPDEST PUSH1 0x0 DUP4 PUSH2 0x4A8D PUSH1 0x70 DUP6 SWAP1 SHL PUSH1 0xE0 DUP6 SWAP1 SHL PUSH2 0x5A54 JUMP JUMPDEST PUSH2 0xB20 SWAP2 SWAP1 PUSH2 0x5A54 JUMP JUMPDEST PUSH1 0x0 DUP1 PUSH2 0x4AA4 DUP5 DUP7 PUSH2 0x5A54 JUMP JUMPDEST SWAP1 POP PUSH2 0x4ACF DUP6 DUP3 LT ISZERO DUP1 ISZERO PUSH2 0x4AC7 JUMPI POP PUSH15 0x10000000000000000000000000000 DUP3 LT JUMPDEST PUSH2 0x20E PUSH2 0x599 JUMP JUMPDEST PUSH2 0x4465 DUP6 DUP6 DUP6 PUSH2 0x4A78 JUMP JUMPDEST DUP1 ISZERO PUSH2 0x5A7 JUMPI PUSH2 0x5A7 PUSH1 0x1 PUSH1 0x1 PUSH1 0xA0 SHL SUB DUP4 AND PUSH32 0x0 DUP4 PUSH2 0x2EB4 JUMP JUMPDEST PUSH1 0x0 DUP1 PUSH2 0x4B2A DUP4 PUSH1 0x1 PUSH1 0x1 PUSH1 0x70 SHL SUB DUP7 AND PUSH2 0x5A54 JUMP JUMPDEST SWAP1 POP PUSH1 0x0 DUP4 PUSH2 0x4B42 DUP7 PUSH1 0x70 SHR PUSH1 0x1 PUSH1 0x1 PUSH1 0x70 SHL SUB AND SWAP1 JUMP JUMPDEST PUSH2 0x4B4C SWAP2 SWAP1 PUSH2 0x5A54 JUMP JUMPDEST SWAP1 POP PUSH1 0x0 PUSH2 0x4B5A DUP7 PUSH1 0xE0 SHR SWAP1 JUMP JUMPDEST SWAP1 POP PUSH2 0x103E DUP4 DUP4 DUP4 PUSH2 0x4A97 JUMP JUMPDEST PUSH1 0x0 DUP1 PUSH1 0x0 DUP1 PUSH1 0x0 PUSH2 0x4B78 DUP10 PUSH2 0x38B6 JUMP JUMPDEST SWAP5 POP POP SWAP4 POP SWAP4 POP SWAP4 POP PUSH1 0x0 DUP4 PUSH1 0x1 PUSH1 0x1 PUSH1 0xA0 SHL SUB AND DUP10 PUSH1 0x1 PUSH1 0x1 PUSH1 0xA0 SHL SUB AND EQ ISZERO PUSH2 0x4BC3 JUMPI PUSH1 0x0 PUSH2 0x4BAD DUP5 DUP10 DUP12 PUSH4 0xFFFFFFFF AND JUMP JUMPDEST SWAP1 POP PUSH2 0x4BB9 DUP2 DUP6 PUSH2 0x4D0C JUMP JUMPDEST SWAP1 SWAP4 POP SWAP1 POP PUSH2 0x4BE5 JUMP JUMPDEST PUSH1 0x0 PUSH2 0x4BD3 DUP4 DUP10 DUP12 PUSH4 0xFFFFFFFF AND JUMP JUMPDEST SWAP1 POP PUSH2 0x4BDF DUP2 DUP5 PUSH2 0x4D0C JUMP JUMPDEST SWAP1 SWAP3 POP SWAP1 POP JUMPDEST PUSH2 0x4BEF DUP4 DUP4 PUSH2 0x4299 JUMP JUMPDEST DUP6 SSTORE PUSH2 0x4BFB DUP4 DUP4 PUSH2 0x4D3E JUMP JUMPDEST PUSH1 0x1 SWAP1 SWAP6 ADD SWAP5 SWAP1 SWAP5 SSTORE POP SWAP2 SWAP3 POP POP POP SWAP5 SWAP4 POP POP POP POP JUMP JUMPDEST PUSH1 0x0 DUP1 PUSH2 0x4C1F DUP7 DUP7 PUSH2 0x252A JUMP JUMPDEST SWAP1 POP PUSH1 0x0 PUSH2 0x4C31 DUP3 DUP6 DUP8 PUSH4 0xFFFFFFFF AND JUMP JUMPDEST PUSH1 0x0 DUP9 DUP2 MSTORE PUSH1 0x7 PUSH1 0x20 SWAP1 DUP2 MSTORE PUSH1 0x40 DUP1 DUP4 KECCAK256 PUSH1 0x1 PUSH1 0x1 PUSH1 0xA0 SHL SUB DUP12 AND DUP5 MSTORE SWAP1 SWAP2 MSTORE SWAP1 KECCAK256 DUP2 SWAP1 SSTORE SWAP1 POP PUSH2 0x4C62 DUP2 DUP4 PUSH2 0x4D0C JUMP JUMPDEST SWAP8 SWAP7 POP POP POP POP POP POP POP JUMP JUMPDEST PUSH1 0x0 DUP5 DUP2 MSTORE PUSH1 0x1 PUSH1 0x20 MSTORE PUSH1 0x40 DUP2 KECCAK256 DUP2 PUSH2 0x4C86 DUP3 DUP8 PUSH2 0x324D JUMP JUMPDEST SWAP1 POP PUSH1 0x0 PUSH2 0x4C98 DUP3 DUP7 DUP9 PUSH4 0xFFFFFFFF AND JUMP JUMPDEST SWAP1 POP PUSH2 0x4CA5 DUP4 DUP9 DUP4 PUSH2 0x2F56 JUMP JUMPDEST POP PUSH2 0x4CB0 DUP2 DUP4 PUSH2 0x4D0C JUMP JUMPDEST SWAP9 SWAP8 POP POP POP POP POP POP POP POP JUMP JUMPDEST PUSH1 0x0 DUP1 PUSH2 0x4CD2 DUP4 PUSH1 0x1 PUSH1 0x1 PUSH1 0x70 SHL SUB DUP7 AND PUSH2 0x5A54 JUMP JUMPDEST SWAP1 POP PUSH1 0x0 DUP4 PUSH2 0x4CEA DUP7 PUSH1 0x70 SHR PUSH1 0x1 PUSH1 0x1 PUSH1 0x70 SHL SUB AND SWAP1 JUMP JUMPDEST PUSH2 0x4B4C SWAP2 SWAP1 PUSH2 0x5B4B JUMP JUMPDEST PUSH1 0x0 PUSH1 0x1 PUSH1 0x1 PUSH1 0x70 SHL SUB DUP4 AND NUMBER PUSH2 0x4465 DUP3 DUP6 DUP4 PUSH2 0x4A97 JUMP JUMPDEST PUSH1 0x0 PUSH2 0x4D21 DUP3 PUSH1 0x70 SHR PUSH1 0x1 PUSH1 0x1 PUSH1 0x70 SHL SUB AND SWAP1 JUMP JUMPDEST PUSH2 0x4D34 DUP5 PUSH1 0x70 SHR PUSH1 0x1 PUSH1 0x1 PUSH1 0x70 SHL SUB AND SWAP1 JUMP JUMPDEST PUSH2 0x1497 SWAP2 SWAP1 PUSH2 0x5BDC JUMP JUMPDEST PUSH1 0x0 PUSH2 0x1497 PUSH2 0x4D56 DUP5 PUSH1 0x70 SHR PUSH1 0x1 PUSH1 0x1 PUSH1 0x70 SHL SUB AND SWAP1 JUMP JUMPDEST PUSH2 0x4D69 DUP5 PUSH1 0x70 SHR PUSH1 0x1 PUSH1 0x1 PUSH1 0x70 SHL SUB AND SWAP1 JUMP JUMPDEST PUSH1 0x0 PUSH2 0x4A78 JUMP JUMPDEST PUSH1 0x1 PUSH1 0x1 PUSH1 0xA0 SHL SUB DUP2 AND DUP2 EQ PUSH2 0x5CE JUMPI PUSH1 0x0 DUP1 REVERT JUMPDEST PUSH1 0x0 PUSH1 0x20 DUP3 DUP5 SUB SLT ISZERO PUSH2 0x4D97 JUMPI PUSH1 0x0 DUP1 REVERT JUMPDEST DUP2 CALLDATALOAD PUSH2 0x1602 DUP2 PUSH2 0x4D70 JUMP JUMPDEST PUSH1 0x3 DUP2 LT PUSH2 0x5CE JUMPI PUSH1 0x0 DUP1 REVERT JUMPDEST PUSH1 0x0 PUSH1 0x20 DUP3 DUP5 SUB SLT ISZERO PUSH2 0x4DC1 JUMPI PUSH1 0x0 DUP1 REVERT JUMPDEST DUP2 CALLDATALOAD PUSH2 0x1602 DUP2 PUSH2 0x4DA2 JUMP JUMPDEST PUSH4 0x4E487B71 PUSH1 0xE0 SHL PUSH1 0x0 MSTORE PUSH1 0x41 PUSH1 0x4 MSTORE PUSH1 0x24 PUSH1 0x0 REVERT JUMPDEST PUSH1 0x40 MLOAD PUSH1 0xA0 DUP2 ADD PUSH1 0x1 PUSH1 0x1 PUSH1 0x40 SHL SUB DUP2 GT DUP3 DUP3 LT OR ISZERO PUSH2 0x4E04 JUMPI PUSH2 0x4E04 PUSH2 0x4DCC JUMP JUMPDEST PUSH1 0x40 MSTORE SWAP1 JUMP JUMPDEST PUSH1 0x40 MLOAD PUSH1 0x80 DUP2 ADD PUSH1 0x1 PUSH1 0x1 PUSH1 0x40 SHL SUB DUP2 GT DUP3 DUP3 LT OR ISZERO PUSH2 0x4E04 JUMPI PUSH2 0x4E04 PUSH2 0x4DCC JUMP JUMPDEST PUSH1 0x40 MLOAD PUSH1 0xC0 DUP2 ADD PUSH1 0x1 PUSH1 0x1 PUSH1 0x40 SHL SUB DUP2 GT DUP3 DUP3 LT OR ISZERO PUSH2 0x4E04 JUMPI PUSH2 0x4E04 PUSH2 0x4DCC JUMP JUMPDEST PUSH1 0x40 MLOAD PUSH1 0x1F DUP3 ADD PUSH1 0x1F NOT AND DUP2 ADD PUSH1 0x1 PUSH1 0x1 PUSH1 0x40 SHL SUB DUP2 GT DUP3 DUP3 LT OR ISZERO PUSH2 0x4E76 JUMPI PUSH2 0x4E76 PUSH2 0x4DCC JUMP JUMPDEST PUSH1 0x40 MSTORE SWAP2 SWAP1 POP JUMP JUMPDEST PUSH1 0x0 PUSH1 0x1 PUSH1 0x1 PUSH1 0x40 SHL SUB DUP3 GT ISZERO PUSH2 0x4E97 JUMPI PUSH2 0x4E97 PUSH2 0x4DCC JUMP JUMPDEST POP PUSH1 0x5 SHL PUSH1 0x20 ADD SWAP1 JUMP JUMPDEST PUSH1 0x0 PUSH1 0x20 DUP1 DUP4 DUP6 SUB SLT ISZERO PUSH2 0x4EB4 JUMPI PUSH1 0x0 DUP1 REVERT JUMPDEST DUP3 CALLDATALOAD PUSH1 0x1 PUSH1 0x1 PUSH1 0x40 SHL SUB DUP2 GT ISZERO PUSH2 0x4ECA JUMPI PUSH1 0x0 DUP1 REVERT JUMPDEST DUP4 ADD PUSH1 0x1F DUP2 ADD DUP6 SGT PUSH2 0x4EDB JUMPI PUSH1 0x0 DUP1 REVERT JUMPDEST DUP1 CALLDATALOAD PUSH2 0x4EEE PUSH2 0x4EE9 DUP3 PUSH2 0x4E7E JUMP JUMPDEST PUSH2 0x4E4E JUMP JUMPDEST DUP2 DUP2 MSTORE PUSH1 0xA0 SWAP2 DUP3 MUL DUP4 ADD DUP5 ADD SWAP2 DUP5 DUP3 ADD SWAP2 SWAP1 DUP9 DUP5 GT ISZERO PUSH2 0x4F0D JUMPI PUSH1 0x0 DUP1 REVERT JUMPDEST SWAP4 DUP6 ADD SWAP4 JUMPDEST DUP4 DUP6 LT ISZERO PUSH2 0x4F94 JUMPI DUP1 DUP6 DUP11 SUB SLT ISZERO PUSH2 0x4F2A JUMPI PUSH1 0x0 DUP1 DUP2 REVERT JUMPDEST PUSH2 0x4F32 PUSH2 0x4DE2 JUMP JUMPDEST DUP6 CALLDATALOAD PUSH1 0x4 DUP2 LT PUSH2 0x4F42 JUMPI PUSH1 0x0 DUP1 DUP2 REVERT JUMPDEST DUP2 MSTORE DUP6 DUP8 ADD CALLDATALOAD PUSH2 0x4F51 DUP2 PUSH2 0x4D70 JUMP JUMPDEST DUP2 DUP9 ADD MSTORE PUSH1 0x40 DUP7 DUP2 ADD CALLDATALOAD SWAP1 DUP3 ADD MSTORE PUSH1 0x60 DUP1 DUP8 ADD CALLDATALOAD PUSH2 0x4F6E DUP2 PUSH2 0x4D70 JUMP JUMPDEST SWAP1 DUP3 ADD MSTORE PUSH1 0x80 DUP7 DUP2 ADD CALLDATALOAD PUSH2 0x4F81 DUP2 PUSH2 0x4D70 JUMP JUMPDEST SWAP1 DUP3 ADD MSTORE DUP4 MSTORE SWAP4 DUP5 ADD SWAP4 SWAP2 DUP6 ADD SWAP2 PUSH2 0x4F12 JUMP JUMPDEST POP SWAP8 SWAP7 POP POP POP POP POP POP POP JUMP JUMPDEST PUSH1 0x0 DUP3 PUSH1 0x1F DUP4 ADD SLT PUSH2 0x4FB1 JUMPI PUSH1 0x0 DUP1 REVERT JUMPDEST DUP2 CALLDATALOAD PUSH1 0x20 PUSH2 0x4FC1 PUSH2 0x4EE9 DUP4 PUSH2 0x4E7E JUMP JUMPDEST DUP3 DUP2 MSTORE PUSH1 0x5 SWAP3 SWAP1 SWAP3 SHL DUP5 ADD DUP2 ADD SWAP2 DUP2 DUP2 ADD SWAP1 DUP7 DUP5 GT ISZERO PUSH2 0x4FE0 JUMPI PUSH1 0x0 DUP1 REVERT JUMPDEST DUP3 DUP7 ADD JUMPDEST DUP5 DUP2 LT ISZERO PUSH2 0x5004 JUMPI DUP1 CALLDATALOAD PUSH2 0x4FF7 DUP2 PUSH2 0x4D70 JUMP JUMPDEST DUP4 MSTORE SWAP2 DUP4 ADD SWAP2 DUP4 ADD PUSH2 0x4FE4 JUMP JUMPDEST POP SWAP7 SWAP6 POP POP POP POP POP POP JUMP JUMPDEST PUSH1 0x0 DUP1 PUSH1 0x40 DUP4 DUP6 SUB SLT ISZERO PUSH2 0x5022 JUMPI PUSH1 0x0 DUP1 REVERT JUMPDEST DUP3 CALLDATALOAD PUSH2 0x502D DUP2 PUSH2 0x4D70 JUMP JUMPDEST SWAP2 POP PUSH1 0x20 DUP4 ADD CALLDATALOAD PUSH1 0x1 PUSH1 0x1 PUSH1 0x40 SHL SUB DUP2 GT ISZERO PUSH2 0x5048 JUMPI PUSH1 0x0 DUP1 REVERT JUMPDEST PUSH2 0x5054 DUP6 DUP3 DUP7 ADD PUSH2 0x4FA0 JUMP JUMPDEST SWAP2 POP POP SWAP3 POP SWAP3 SWAP1 POP JUMP JUMPDEST PUSH1 0x0 DUP2 MLOAD DUP1 DUP5 MSTORE PUSH1 0x20 DUP1 DUP6 ADD SWAP5 POP DUP1 DUP5 ADD PUSH1 0x0 JUMPDEST DUP4 DUP2 LT ISZERO PUSH2 0x508E JUMPI DUP2 MLOAD DUP8 MSTORE SWAP6 DUP3 ADD SWAP6 SWAP1 DUP3 ADD SWAP1 PUSH1 0x1 ADD PUSH2 0x5072 JUMP JUMPDEST POP SWAP5 SWAP6 SWAP5 POP POP POP POP POP JUMP JUMPDEST PUSH1 0x20 DUP2 MSTORE PUSH1 0x0 PUSH2 0x1497 PUSH1 0x20 DUP4 ADD DUP5 PUSH2 0x505E JUMP JUMPDEST DUP1 ISZERO ISZERO DUP2 EQ PUSH2 0x5CE JUMPI PUSH1 0x0 DUP1 REVERT JUMPDEST DUP1 CALLDATALOAD PUSH2 0x690 DUP2 PUSH2 0x50AC JUMP JUMPDEST PUSH1 0x0 PUSH1 0x20 DUP3 DUP5 SUB SLT ISZERO PUSH2 0x50D7 JUMPI PUSH1 0x0 DUP1 REVERT JUMPDEST DUP2 CALLDATALOAD PUSH2 0x1602 DUP2 PUSH2 0x50AC JUMP JUMPDEST DUP1 CALLDATALOAD PUSH1 0x2 DUP2 LT PUSH2 0x690 JUMPI PUSH1 0x0 DUP1 REVERT JUMPDEST PUSH1 0x0 DUP3 PUSH1 0x1F DUP4 ADD SLT PUSH2 0x5102 JUMPI PUSH1 0x0 DUP1 REVERT JUMPDEST DUP2 CALLDATALOAD PUSH1 0x1 PUSH1 0x1 PUSH1 0x40 SHL SUB DUP2 GT ISZERO PUSH2 0x511B JUMPI PUSH2 0x511B PUSH2 0x4DCC JUMP JUMPDEST PUSH2 0x512E PUSH1 0x1F DUP3 ADD PUSH1 0x1F NOT AND PUSH1 0x20 ADD PUSH2 0x4E4E JUMP JUMPDEST DUP2 DUP2 MSTORE DUP5 PUSH1 0x20 DUP4 DUP7 ADD ADD GT ISZERO PUSH2 0x5143 JUMPI PUSH1 0x0 DUP1 REVERT JUMPDEST DUP2 PUSH1 0x20 DUP6 ADD PUSH1 0x20 DUP4 ADD CALLDATACOPY PUSH1 0x0 SWAP2 DUP2 ADD PUSH1 0x20 ADD SWAP2 SWAP1 SWAP2 MSTORE SWAP4 SWAP3 POP POP POP JUMP JUMPDEST PUSH1 0x0 PUSH1 0x80 DUP3 DUP5 SUB SLT ISZERO PUSH2 0x5172 JUMPI PUSH1 0x0 DUP1 REVERT JUMPDEST PUSH2 0x517A PUSH2 0x4E0A JUMP JUMPDEST SWAP1 POP DUP2 CALLDATALOAD PUSH2 0x5187 DUP2 PUSH2 0x4D70 JUMP JUMPDEST DUP2 MSTORE PUSH1 0x20 DUP3 ADD CALLDATALOAD PUSH2 0x5197 DUP2 PUSH2 0x50AC JUMP JUMPDEST PUSH1 0x20 DUP3 ADD MSTORE PUSH1 0x40 DUP3 ADD CALLDATALOAD PUSH2 0x51AA DUP2 PUSH2 0x4D70 JUMP JUMPDEST PUSH1 0x40 DUP3 ADD MSTORE PUSH1 0x60 DUP3 ADD CALLDATALOAD PUSH2 0x51BD DUP2 PUSH2 0x50AC JUMP JUMPDEST PUSH1 0x60 DUP3 ADD MSTORE SWAP3 SWAP2 POP POP JUMP JUMPDEST PUSH1 0x0 DUP1 PUSH1 0x0 DUP1 PUSH1 0xE0 DUP6 DUP8 SUB SLT ISZERO PUSH2 0x51DE JUMPI PUSH1 0x0 DUP1 REVERT JUMPDEST DUP5 CALLDATALOAD PUSH1 0x1 PUSH1 0x1 PUSH1 0x40 SHL SUB DUP1 DUP3 GT ISZERO PUSH2 0x51F5 JUMPI PUSH1 0x0 DUP1 REVERT JUMPDEST SWAP1 DUP7 ADD SWAP1 PUSH1 0xC0 DUP3 DUP10 SUB SLT ISZERO PUSH2 0x5209 JUMPI PUSH1 0x0 DUP1 REVERT JUMPDEST PUSH2 0x5211 PUSH2 0x4E2C JUMP JUMPDEST DUP3 CALLDATALOAD DUP2 MSTORE PUSH2 0x5221 PUSH1 0x20 DUP5 ADD PUSH2 0x50E2 JUMP JUMPDEST PUSH1 0x20 DUP3 ADD MSTORE PUSH1 0x40 DUP4 ADD CALLDATALOAD PUSH2 0x5234 DUP2 PUSH2 0x4D70 JUMP JUMPDEST PUSH1 0x40 DUP3 ADD MSTORE PUSH1 0x60 DUP4 ADD CALLDATALOAD PUSH2 0x5247 DUP2 PUSH2 0x4D70 JUMP JUMPDEST PUSH1 0x60 DUP3 ADD MSTORE PUSH1 0x80 DUP4 DUP2 ADD CALLDATALOAD SWAP1 DUP3 ADD MSTORE PUSH1 0xA0 DUP4 ADD CALLDATALOAD DUP3 DUP2 GT ISZERO PUSH2 0x5268 JUMPI PUSH1 0x0 DUP1 REVERT JUMPDEST PUSH2 0x5274 DUP11 DUP3 DUP7 ADD PUSH2 0x50F1 JUMP JUMPDEST PUSH1 0xA0 DUP4 ADD MSTORE POP DUP1 SWAP7 POP POP POP POP PUSH2 0x528D DUP7 PUSH1 0x20 DUP8 ADD PUSH2 0x5160 JUMP JUMPDEST SWAP4 SWAP7 SWAP4 SWAP6 POP POP POP POP PUSH1 0xA0 DUP3 ADD CALLDATALOAD SWAP2 PUSH1 0xC0 ADD CALLDATALOAD SWAP1 JUMP JUMPDEST PUSH1 0x0 DUP1 PUSH1 0x0 PUSH1 0x60 DUP5 DUP7 SUB SLT ISZERO PUSH2 0x52B7 JUMPI PUSH1 0x0 DUP1 REVERT JUMPDEST DUP4 CALLDATALOAD SWAP3 POP PUSH1 0x20 DUP1 DUP6 ADD CALLDATALOAD PUSH1 0x1 PUSH1 0x1 PUSH1 0x40 SHL SUB DUP1 DUP3 GT ISZERO PUSH2 0x52D6 JUMPI PUSH1 0x0 DUP1 REVERT JUMPDEST PUSH2 0x52E2 DUP9 DUP4 DUP10 ADD PUSH2 0x4FA0 JUMP JUMPDEST SWAP5 POP PUSH1 0x40 DUP8 ADD CALLDATALOAD SWAP2 POP DUP1 DUP3 GT ISZERO PUSH2 0x52F8 JUMPI PUSH1 0x0 DUP1 REVERT JUMPDEST POP DUP6 ADD PUSH1 0x1F DUP2 ADD DUP8 SGT PUSH2 0x530A JUMPI PUSH1 0x0 DUP1 REVERT JUMPDEST DUP1 CALLDATALOAD PUSH2 0x5318 PUSH2 0x4EE9 DUP3 PUSH2 0x4E7E JUMP JUMPDEST DUP2 DUP2 MSTORE PUSH1 0x5 SWAP2 SWAP1 SWAP2 SHL DUP3 ADD DUP4 ADD SWAP1 DUP4 DUP2 ADD SWAP1 DUP10 DUP4 GT ISZERO PUSH2 0x5337 JUMPI PUSH1 0x0 DUP1 REVERT JUMPDEST SWAP3 DUP5 ADD SWAP3 JUMPDEST DUP3 DUP5 LT ISZERO PUSH2 0x535E JUMPI DUP4 CALLDATALOAD PUSH2 0x534F DUP2 PUSH2 0x4D70 JUMP JUMPDEST DUP3 MSTORE SWAP3 DUP5 ADD SWAP3 SWAP1 DUP5 ADD SWAP1 PUSH2 0x533C JUMP JUMPDEST DUP1 SWAP6 POP POP POP POP POP POP SWAP3 POP SWAP3 POP SWAP3 JUMP JUMPDEST PUSH1 0x0 DUP1 PUSH1 0x40 DUP4 DUP6 SUB SLT ISZERO PUSH2 0x5380 JUMPI PUSH1 0x0 DUP1 REVERT JUMPDEST DUP3 CALLDATALOAD SWAP2 POP PUSH1 0x20 DUP4 ADD CALLDATALOAD PUSH1 0x1 PUSH1 0x1 PUSH1 0x40 SHL SUB DUP2 GT ISZERO PUSH2 0x5048 JUMPI PUSH1 0x0 DUP1 REVERT JUMPDEST PUSH1 0x0 PUSH1 0x20 DUP3 DUP5 SUB SLT ISZERO PUSH2 0x53AF JUMPI PUSH1 0x0 DUP1 REVERT JUMPDEST DUP2 CALLDATALOAD PUSH1 0x1 PUSH1 0x1 PUSH1 0xE0 SHL SUB NOT DUP2 AND DUP2 EQ PUSH2 0x1602 JUMPI PUSH1 0x0 DUP1 REVERT JUMPDEST PUSH1 0x0 DUP3 PUSH1 0x1F DUP4 ADD SLT PUSH2 0x53D8 JUMPI PUSH1 0x0 DUP1 REVERT JUMPDEST DUP2 CALLDATALOAD PUSH1 0x20 PUSH2 0x53E8 PUSH2 0x4EE9 DUP4 PUSH2 0x4E7E JUMP JUMPDEST DUP3 DUP2 MSTORE PUSH1 0x5 SWAP3 SWAP1 SWAP3 SHL DUP5 ADD DUP2 ADD SWAP2 DUP2 DUP2 ADD SWAP1 DUP7 DUP5 GT ISZERO PUSH2 0x5407 JUMPI PUSH1 0x0 DUP1 REVERT JUMPDEST DUP3 DUP7 ADD JUMPDEST DUP5 DUP2 LT ISZERO PUSH2 0x5004 JUMPI DUP1 CALLDATALOAD PUSH2 0x541E DUP2 PUSH2 0x4D70 JUMP JUMPDEST DUP4 MSTORE SWAP2 DUP4 ADD SWAP2 DUP4 ADD PUSH2 0x540B JUMP JUMPDEST PUSH1 0x0 PUSH1 0x80 DUP3 DUP5 SUB SLT ISZERO PUSH2 0x543D JUMPI PUSH1 0x0 DUP1 REVERT JUMPDEST PUSH2 0x5445 PUSH2 0x4E0A JUMP JUMPDEST SWAP1 POP DUP2 CALLDATALOAD PUSH1 0x1 PUSH1 0x1 PUSH1 0x40 SHL SUB DUP1 DUP3 GT ISZERO PUSH2 0x545E JUMPI PUSH1 0x0 DUP1 REVERT JUMPDEST PUSH2 0x546A DUP6 DUP4 DUP7 ADD PUSH2 0x53C7 JUMP JUMPDEST DUP4 MSTORE PUSH1 0x20 SWAP2 POP DUP2 DUP5 ADD CALLDATALOAD DUP2 DUP2 GT ISZERO PUSH2 0x5481 JUMPI PUSH1 0x0 DUP1 REVERT JUMPDEST DUP5 ADD PUSH1 0x1F DUP2 ADD DUP7 SGT PUSH2 0x5492 JUMPI PUSH1 0x0 DUP1 REVERT JUMPDEST DUP1 CALLDATALOAD PUSH2 0x54A0 PUSH2 0x4EE9 DUP3 PUSH2 0x4E7E JUMP JUMPDEST DUP2 DUP2 MSTORE PUSH1 0x5 SWAP2 SWAP1 SWAP2 SHL DUP3 ADD DUP5 ADD SWAP1 DUP5 DUP2 ADD SWAP1 DUP9 DUP4 GT ISZERO PUSH2 0x54BF JUMPI PUSH1 0x0 DUP1 REVERT JUMPDEST SWAP3 DUP6 ADD SWAP3 JUMPDEST DUP3 DUP5 LT ISZERO PUSH2 0x54DD JUMPI DUP4 CALLDATALOAD DUP3 MSTORE SWAP3 DUP6 ADD SWAP3 SWAP1 DUP6 ADD SWAP1 PUSH2 0x54C4 JUMP JUMPDEST DUP1 DUP7 DUP9 ADD MSTORE POP POP POP POP PUSH1 0x40 DUP5 ADD CALLDATALOAD SWAP2 POP DUP1 DUP3 GT ISZERO PUSH2 0x54FA JUMPI PUSH1 0x0 DUP1 REVERT JUMPDEST POP PUSH2 0x5507 DUP5 DUP3 DUP6 ADD PUSH2 0x50F1 JUMP JUMPDEST PUSH1 0x40 DUP4 ADD MSTORE POP PUSH2 0x51BD PUSH1 0x60 DUP4 ADD PUSH2 0x50BA JUMP JUMPDEST PUSH1 0x0 DUP1 PUSH1 0x0 DUP1 PUSH1 0x80 DUP6 DUP8 SUB SLT ISZERO PUSH2 0x552F JUMPI PUSH1 0x0 DUP1 REVERT JUMPDEST DUP5 CALLDATALOAD SWAP4 POP PUSH1 0x20 DUP6 ADD CALLDATALOAD PUSH2 0x5541 DUP2 PUSH2 0x4D70 JUMP JUMPDEST SWAP3 POP PUSH1 0x40 DUP6 ADD CALLDATALOAD PUSH2 0x5551 DUP2 PUSH2 0x4D70 JUMP JUMPDEST SWAP2 POP PUSH1 0x60 DUP6 ADD CALLDATALOAD PUSH1 0x1 PUSH1 0x1 PUSH1 0x40 SHL SUB DUP2 GT ISZERO PUSH2 0x556C JUMPI PUSH1 0x0 DUP1 REVERT JUMPDEST PUSH2 0x5578 DUP8 DUP3 DUP9 ADD PUSH2 0x542B JUMP JUMPDEST SWAP2 POP POP SWAP3 SWAP6 SWAP2 SWAP5 POP SWAP3 POP JUMP JUMPDEST PUSH1 0x0 DUP3 PUSH1 0x1F DUP4 ADD SLT PUSH2 0x5595 JUMPI PUSH1 0x0 DUP1 REVERT JUMPDEST DUP2 CALLDATALOAD PUSH1 0x20 PUSH2 0x55A5 PUSH2 0x4EE9 DUP4 PUSH2 0x4E7E JUMP JUMPDEST DUP3 DUP2 MSTORE PUSH1 0x5 SWAP3 SWAP1 SWAP3 SHL DUP5 ADD DUP2 ADD SWAP2 DUP2 DUP2 ADD SWAP1 DUP7 DUP5 GT ISZERO PUSH2 0x55C4 JUMPI PUSH1 0x0 DUP1 REVERT JUMPDEST DUP3 DUP7 ADD JUMPDEST DUP5 DUP2 LT ISZERO PUSH2 0x5004 JUMPI DUP1 CALLDATALOAD PUSH1 0x1 PUSH1 0x1 PUSH1 0x40 SHL SUB DUP1 DUP3 GT ISZERO PUSH2 0x55E8 JUMPI PUSH1 0x0 DUP1 DUP2 REVERT JUMPDEST SWAP1 DUP9 ADD SWAP1 PUSH1 0xA0 DUP3 DUP12 SUB PUSH1 0x1F NOT ADD DUP2 SGT ISZERO PUSH2 0x5602 JUMPI PUSH1 0x0 DUP1 DUP2 REVERT JUMPDEST PUSH2 0x560A PUSH2 0x4DE2 JUMP JUMPDEST DUP8 DUP5 ADD CALLDATALOAD DUP2 MSTORE PUSH1 0x40 DUP1 DUP6 ADD CALLDATALOAD DUP10 DUP4 ADD MSTORE PUSH1 0x60 DUP1 DUP7 ADD CALLDATALOAD DUP3 DUP5 ADD MSTORE PUSH1 0x80 SWAP2 POP DUP2 DUP7 ADD CALLDATALOAD DUP2 DUP5 ADD MSTORE POP DUP3 DUP6 ADD CALLDATALOAD SWAP3 POP DUP4 DUP4 GT ISZERO PUSH2 0x5645 JUMPI PUSH1 0x0 DUP1 DUP2 REVERT JUMPDEST PUSH2 0x5653 DUP14 DUP11 DUP6 DUP9 ADD ADD PUSH2 0x50F1 JUMP JUMPDEST SWAP1 DUP3 ADD MSTORE DUP7 MSTORE POP POP POP SWAP2 DUP4 ADD SWAP2 DUP4 ADD PUSH2 0x55C8 JUMP JUMPDEST PUSH1 0x0 DUP1 PUSH1 0x0 DUP1 PUSH1 0x0 DUP1 PUSH2 0x120 DUP8 DUP10 SUB SLT ISZERO PUSH2 0x5681 JUMPI PUSH1 0x0 DUP1 REVERT JUMPDEST PUSH2 0x568A DUP8 PUSH2 0x50E2 JUMP JUMPDEST SWAP6 POP PUSH1 0x20 DUP1 DUP9 ADD CALLDATALOAD PUSH1 0x1 PUSH1 0x1 PUSH1 0x40 SHL SUB DUP1 DUP3 GT ISZERO PUSH2 0x56A7 JUMPI PUSH1 0x0 DUP1 REVERT JUMPDEST PUSH2 0x56B3 DUP12 DUP4 DUP13 ADD PUSH2 0x5584 JUMP JUMPDEST SWAP8 POP PUSH1 0x40 DUP11 ADD CALLDATALOAD SWAP2 POP DUP1 DUP3 GT ISZERO PUSH2 0x56C9 JUMPI PUSH1 0x0 DUP1 REVERT JUMPDEST PUSH2 0x56D5 DUP12 DUP4 DUP13 ADD PUSH2 0x53C7 JUMP JUMPDEST SWAP7 POP PUSH2 0x56E4 DUP12 PUSH1 0x60 DUP13 ADD PUSH2 0x5160 JUMP JUMPDEST SWAP6 POP PUSH1 0xE0 DUP11 ADD CALLDATALOAD SWAP2 POP DUP1 DUP3 GT ISZERO PUSH2 0x56FA JUMPI PUSH1 0x0 DUP1 REVERT JUMPDEST POP DUP9 ADD PUSH1 0x1F DUP2 ADD DUP11 SGT PUSH2 0x570C JUMPI PUSH1 0x0 DUP1 REVERT JUMPDEST DUP1 CALLDATALOAD PUSH2 0x571A PUSH2 0x4EE9 DUP3 PUSH2 0x4E7E JUMP JUMPDEST DUP2 DUP2 MSTORE PUSH1 0x5 SWAP2 SWAP1 SWAP2 SHL DUP3 ADD DUP4 ADD SWAP1 DUP4 DUP2 ADD SWAP1 DUP13 DUP4 GT ISZERO PUSH2 0x5739 JUMPI PUSH1 0x0 DUP1 REVERT JUMPDEST SWAP3 DUP5 ADD SWAP3 JUMPDEST DUP3 DUP5 LT ISZERO PUSH2 0x5757 JUMPI DUP4 CALLDATALOAD DUP3 MSTORE SWAP3 DUP5 ADD SWAP3 SWAP1 DUP5 ADD SWAP1 PUSH2 0x573E JUMP JUMPDEST DUP1 SWAP7 POP POP POP POP POP POP PUSH2 0x100 DUP8 ADD CALLDATALOAD SWAP1 POP SWAP3 SWAP6 POP SWAP3 SWAP6 POP SWAP3 SWAP6 JUMP JUMPDEST PUSH1 0x0 DUP1 PUSH1 0x40 DUP4 DUP6 SUB SLT ISZERO PUSH2 0x5784 JUMPI PUSH1 0x0 DUP1 REVERT JUMPDEST DUP3 CALLDATALOAD SWAP2 POP PUSH1 0x20 DUP4 ADD CALLDATALOAD PUSH2 0x5796 DUP2 PUSH2 0x4D70 JUMP JUMPDEST DUP1 SWAP2 POP POP SWAP3 POP SWAP3 SWAP1 POP JUMP JUMPDEST PUSH1 0x0 PUSH1 0x20 DUP1 DUP4 DUP6 SUB SLT ISZERO PUSH2 0x57B4 JUMPI PUSH1 0x0 DUP1 REVERT JUMPDEST DUP3 CALLDATALOAD PUSH1 0x1 PUSH1 0x1 PUSH1 0x40 SHL SUB DUP2 GT ISZERO PUSH2 0x57CA JUMPI PUSH1 0x0 DUP1 REVERT JUMPDEST DUP4 ADD PUSH1 0x1F DUP2 ADD DUP6 SGT PUSH2 0x57DB JUMPI PUSH1 0x0 DUP1 REVERT JUMPDEST DUP1 CALLDATALOAD PUSH2 0x57E9 PUSH2 0x4EE9 DUP3 PUSH2 0x4E7E JUMP JUMPDEST DUP2 DUP2 MSTORE PUSH1 0x7 SWAP2 SWAP1 SWAP2 SHL DUP3 ADD DUP4 ADD SWAP1 DUP4 DUP2 ADD SWAP1 DUP8 DUP4 GT ISZERO PUSH2 0x5808 JUMPI PUSH1 0x0 DUP1 REVERT JUMPDEST SWAP3 DUP5 ADD SWAP3 JUMPDEST DUP3 DUP5 LT ISZERO PUSH2 0x4C62 JUMPI PUSH1 0x80 DUP5 DUP10 SUB SLT ISZERO PUSH2 0x5826 JUMPI PUSH1 0x0 DUP1 DUP2 REVERT JUMPDEST PUSH2 0x582E PUSH2 0x4E0A JUMP JUMPDEST DUP5 CALLDATALOAD PUSH2 0x5839 DUP2 PUSH2 0x4DA2 JUMP JUMPDEST DUP2 MSTORE DUP5 DUP7 ADD CALLDATALOAD DUP7 DUP3 ADD MSTORE PUSH1 0x40 DUP1 DUP7 ADD CALLDATALOAD PUSH2 0x5852 DUP2 PUSH2 0x4D70 JUMP JUMPDEST SWAP1 DUP3 ADD MSTORE PUSH1 0x60 DUP6 DUP2 ADD CALLDATALOAD SWAP1 DUP3 ADD MSTORE DUP3 MSTORE PUSH1 0x80 SWAP1 SWAP4 ADD SWAP3 SWAP1 DUP5 ADD SWAP1 PUSH2 0x580D JUMP JUMPDEST PUSH1 0x0 PUSH1 0x20 DUP3 DUP5 SUB SLT ISZERO PUSH2 0x5883 JUMPI PUSH1 0x0 DUP1 REVERT JUMPDEST POP CALLDATALOAD SWAP2 SWAP1 POP JUMP JUMPDEST PUSH4 0x4E487B71 PUSH1 0xE0 SHL PUSH1 0x0 MSTORE PUSH1 0x21 PUSH1 0x4 MSTORE PUSH1 0x24 PUSH1 0x0 REVERT JUMPDEST PUSH1 0x3 DUP2 LT PUSH2 0x58B0 JUMPI PUSH2 0x58B0 PUSH2 0x588A JUMP JUMPDEST SWAP1 MSTORE JUMP JUMPDEST PUSH1 0x1 PUSH1 0x1 PUSH1 0xA0 SHL SUB DUP4 AND DUP2 MSTORE PUSH1 0x40 DUP2 ADD PUSH2 0x1602 PUSH1 0x20 DUP4 ADD DUP5 PUSH2 0x58A0 JUMP JUMPDEST PUSH1 0x0 DUP1 PUSH1 0x0 DUP1 PUSH1 0xE0 DUP6 DUP8 SUB SLT ISZERO PUSH2 0x58E7 JUMPI PUSH1 0x0 DUP1 REVERT JUMPDEST PUSH2 0x58F0 DUP6 PUSH2 0x50E2 JUMP JUMPDEST SWAP4 POP PUSH1 0x20 DUP6 ADD CALLDATALOAD PUSH1 0x1 PUSH1 0x1 PUSH1 0x40 SHL SUB DUP1 DUP3 GT ISZERO PUSH2 0x590C JUMPI PUSH1 0x0 DUP1 REVERT JUMPDEST PUSH2 0x5918 DUP9 DUP4 DUP10 ADD PUSH2 0x5584 JUMP JUMPDEST SWAP5 POP PUSH1 0x40 DUP8 ADD CALLDATALOAD SWAP2 POP DUP1 DUP3 GT ISZERO PUSH2 0x592E JUMPI PUSH1 0x0 DUP1 REVERT JUMPDEST POP PUSH2 0x593B DUP8 DUP3 DUP9 ADD PUSH2 0x53C7 JUMP JUMPDEST SWAP3 POP POP PUSH2 0x594B DUP7 PUSH1 0x60 DUP8 ADD PUSH2 0x5160 JUMP JUMPDEST SWAP1 POP SWAP3 SWAP6 SWAP2 SWAP5 POP SWAP3 POP JUMP JUMPDEST PUSH1 0x0 DUP2 MLOAD DUP1 DUP5 MSTORE PUSH1 0x20 DUP1 DUP6 ADD SWAP5 POP DUP1 DUP5 ADD PUSH1 0x0 JUMPDEST DUP4 DUP2 LT ISZERO PUSH2 0x508E JUMPI DUP2 MLOAD PUSH1 0x1 PUSH1 0x1 PUSH1 0xA0 SHL SUB AND DUP8 MSTORE SWAP6 DUP3 ADD SWAP6 SWAP1 DUP3 ADD SWAP1 PUSH1 0x1 ADD PUSH2 0x596A JUMP JUMPDEST PUSH1 0x60 DUP2 MSTORE PUSH1 0x0 PUSH2 0x59A2 PUSH1 0x60 DUP4 ADD DUP7 PUSH2 0x5956 JUMP JUMPDEST DUP3 DUP2 SUB PUSH1 0x20 DUP5 ADD MSTORE PUSH2 0x59B4 DUP2 DUP7 PUSH2 0x505E JUMP JUMPDEST SWAP2 POP POP DUP3 PUSH1 0x40 DUP4 ADD MSTORE SWAP5 SWAP4 POP POP POP POP JUMP JUMPDEST PUSH1 0x0 DUP1 PUSH1 0x0 PUSH1 0x60 DUP5 DUP7 SUB SLT ISZERO PUSH2 0x59DA JUMPI PUSH1 0x0 DUP1 REVERT JUMPDEST DUP4 CALLDATALOAD PUSH2 0x59E5 DUP2 PUSH2 0x4D70 JUMP JUMPDEST SWAP3 POP PUSH1 0x20 DUP5 ADD CALLDATALOAD PUSH2 0x59F5 DUP2 PUSH2 0x4D70 JUMP JUMPDEST SWAP2 POP PUSH1 0x40 DUP5 ADD CALLDATALOAD PUSH2 0x5A05 DUP2 PUSH2 0x50AC JUMP JUMPDEST DUP1 SWAP2 POP POP SWAP3 POP SWAP3 POP SWAP3 JUMP JUMPDEST PUSH1 0x0 DUP1 PUSH1 0x40 DUP4 DUP6 SUB SLT ISZERO PUSH2 0x5A23 JUMPI PUSH1 0x0 DUP1 REVERT JUMPDEST DUP3 CALLDATALOAD PUSH2 0x5A2E DUP2 PUSH2 0x4D70 JUMP JUMPDEST SWAP2 POP PUSH1 0x20 DUP4 ADD CALLDATALOAD PUSH2 0x5796 DUP2 PUSH2 0x4D70 JUMP JUMPDEST PUSH4 0x4E487B71 PUSH1 0xE0 SHL PUSH1 0x0 MSTORE PUSH1 0x11 PUSH1 0x4 MSTORE PUSH1 0x24 PUSH1 0x0 REVERT JUMPDEST PUSH1 0x0 DUP3 NOT DUP3 GT ISZERO PUSH2 0x5A67 JUMPI PUSH2 0x5A67 PUSH2 0x5A3E JUMP JUMPDEST POP ADD SWAP1 JUMP JUMPDEST PUSH1 0x20 DUP2 ADD PUSH2 0x149A DUP3 DUP5 PUSH2 0x58A0 JUMP JUMPDEST PUSH4 0x4E487B71 PUSH1 0xE0 SHL PUSH1 0x0 MSTORE PUSH1 0x32 PUSH1 0x4 MSTORE PUSH1 0x24 PUSH1 0x0 REVERT JUMPDEST PUSH1 0x0 PUSH1 0x0 NOT DUP3 EQ ISZERO PUSH2 0x5AA4 JUMPI PUSH2 0x5AA4 PUSH2 0x5A3E JUMP JUMPDEST POP PUSH1 0x1 ADD SWAP1 JUMP JUMPDEST PUSH1 0x40 DUP2 MSTORE PUSH1 0x0 PUSH2 0x5ABE PUSH1 0x40 DUP4 ADD DUP6 PUSH2 0x5956 JUMP JUMPDEST DUP3 DUP2 SUB PUSH1 0x20 DUP5 DUP2 ADD SWAP2 SWAP1 SWAP2 MSTORE DUP5 MLOAD DUP1 DUP4 MSTORE DUP6 DUP3 ADD SWAP3 DUP3 ADD SWAP1 PUSH1 0x0 JUMPDEST DUP2 DUP2 LT ISZERO PUSH2 0x5AFE JUMPI DUP5 MLOAD PUSH1 0x1 PUSH1 0x1 PUSH1 0xA0 SHL SUB AND DUP4 MSTORE SWAP4 DUP4 ADD SWAP4 SWAP2 DUP4 ADD SWAP2 PUSH1 0x1 ADD PUSH2 0x5AD9 JUMP JUMPDEST POP SWAP1 SWAP8 SWAP7 POP POP POP POP POP POP POP JUMP JUMPDEST PUSH1 0x20 DUP2 MSTORE PUSH1 0x0 PUSH2 0x1497 PUSH1 0x20 DUP4 ADD DUP5 PUSH2 0x5956 JUMP JUMPDEST PUSH1 0x0 PUSH1 0x1 PUSH1 0xFF SHL DUP3 EQ ISZERO PUSH2 0x5B34 JUMPI PUSH2 0x5B34 PUSH2 0x5A3E JUMP JUMPDEST POP PUSH1 0x0 SUB SWAP1 JUMP JUMPDEST DUP2 DUP4 DUP3 CALLDATACOPY PUSH1 0x0 SWAP2 ADD SWAP1 DUP2 MSTORE SWAP2 SWAP1 POP JUMP JUMPDEST PUSH1 0x0 DUP3 DUP3 LT ISZERO PUSH2 0x5B5D JUMPI PUSH2 0x5B5D PUSH2 0x5A3E JUMP JUMPDEST POP SUB SWAP1 JUMP JUMPDEST PUSH1 0x60 DUP2 MSTORE PUSH1 0x0 PUSH2 0x5B75 PUSH1 0x60 DUP4 ADD DUP7 PUSH2 0x5956 JUMP JUMPDEST DUP3 DUP2 SUB PUSH1 0x20 DUP5 ADD MSTORE PUSH2 0x5B87 DUP2 DUP7 PUSH2 0x505E JUMP JUMPDEST SWAP1 POP DUP3 DUP2 SUB PUSH1 0x40 DUP5 ADD MSTORE PUSH2 0x103E DUP2 DUP6 PUSH2 0x505E JUMP JUMPDEST PUSH1 0x0 DUP1 DUP3 SLT DUP1 ISZERO PUSH1 0x1 PUSH1 0x1 PUSH1 0xFF SHL SUB DUP5 SWAP1 SUB DUP6 SGT AND ISZERO PUSH2 0x5BBD JUMPI PUSH2 0x5BBD PUSH2 0x5A3E JUMP JUMPDEST PUSH1 0x1 PUSH1 0xFF SHL DUP4 SWAP1 SUB DUP5 SLT DUP2 AND ISZERO PUSH2 0x5BD6 JUMPI PUSH2 0x5BD6 PUSH2 0x5A3E JUMP JUMPDEST POP POP ADD SWAP1 JUMP JUMPDEST PUSH1 0x0 DUP1 DUP4 SLT DUP1 ISZERO PUSH1 0x1 PUSH1 0xFF SHL DUP6 ADD DUP5 SLT AND ISZERO PUSH2 0x5BFA JUMPI PUSH2 0x5BFA PUSH2 0x5A3E JUMP JUMPDEST PUSH1 0x1 PUSH1 0x1 PUSH1 0xFF SHL SUB DUP5 ADD DUP4 SGT DUP2 AND ISZERO PUSH2 0x5C15 JUMPI PUSH2 0x5C15 PUSH2 0x5A3E JUMP JUMPDEST POP POP SUB SWAP1 JUMP JUMPDEST PUSH1 0x0 PUSH1 0x20 DUP3 DUP5 SUB SLT ISZERO PUSH2 0x5C2D JUMPI PUSH1 0x0 DUP1 REVERT JUMPDEST DUP2 MLOAD PUSH2 0x1602 DUP2 PUSH2 0x50AC JUMP JUMPDEST PUSH1 0x0 JUMPDEST DUP4 DUP2 LT ISZERO PUSH2 0x5C53 JUMPI DUP2 DUP2 ADD MLOAD DUP4 DUP3 ADD MSTORE PUSH1 0x20 ADD PUSH2 0x5C3B JUMP JUMPDEST DUP4 DUP2 GT ISZERO PUSH2 0xEEC JUMPI POP POP PUSH1 0x0 SWAP2 ADD MSTORE JUMP JUMPDEST PUSH1 0x0 DUP2 MLOAD DUP1 DUP5 MSTORE PUSH2 0x5C7C DUP2 PUSH1 0x20 DUP7 ADD PUSH1 0x20 DUP7 ADD PUSH2 0x5C38 JUMP JUMPDEST PUSH1 0x1F ADD PUSH1 0x1F NOT AND SWAP3 SWAP1 SWAP3 ADD PUSH1 0x20 ADD SWAP3 SWAP2 POP POP JUMP JUMPDEST PUSH1 0x0 PUSH2 0x120 DUP3 MLOAD PUSH1 0x2 DUP2 LT PUSH2 0x5CA7 JUMPI PUSH2 0x5CA7 PUSH2 0x588A JUMP JUMPDEST DUP1 DUP6 MSTORE POP PUSH1 0x20 DUP4 ADD MLOAD PUSH2 0x5CC5 PUSH1 0x20 DUP7 ADD DUP3 PUSH1 0x1 PUSH1 0x1 PUSH1 0xA0 SHL SUB AND SWAP1 MSTORE JUMP JUMPDEST POP PUSH1 0x40 DUP4 ADD MLOAD PUSH2 0x5CE0 PUSH1 0x40 DUP7 ADD DUP3 PUSH1 0x1 PUSH1 0x1 PUSH1 0xA0 SHL SUB AND SWAP1 MSTORE JUMP JUMPDEST POP PUSH1 0x60 DUP4 ADD MLOAD PUSH1 0x60 DUP6 ADD MSTORE PUSH1 0x80 DUP4 ADD MLOAD PUSH1 0x80 DUP6 ADD MSTORE PUSH1 0xA0 DUP4 ADD MLOAD PUSH1 0xA0 DUP6 ADD MSTORE PUSH1 0xC0 DUP4 ADD MLOAD PUSH2 0x5D19 PUSH1 0xC0 DUP7 ADD DUP3 PUSH1 0x1 PUSH1 0x1 PUSH1 0xA0 SHL SUB AND SWAP1 MSTORE JUMP JUMPDEST POP PUSH1 0xE0 DUP4 ADD MLOAD PUSH2 0x5D34 PUSH1 0xE0 DUP7 ADD DUP3 PUSH1 0x1 PUSH1 0x1 PUSH1 0xA0 SHL SUB AND SWAP1 MSTORE JUMP JUMPDEST POP PUSH2 0x100 DUP1 DUP5 ADD MLOAD DUP3 DUP3 DUP8 ADD MSTORE PUSH2 0x103E DUP4 DUP8 ADD DUP3 PUSH2 0x5C64 JUMP JUMPDEST PUSH1 0x80 DUP2 MSTORE PUSH1 0x0 PUSH2 0x5D60 PUSH1 0x80 DUP4 ADD DUP8 PUSH2 0x5C90 JUMP JUMPDEST DUP3 DUP2 SUB PUSH1 0x20 DUP5 ADD MSTORE PUSH2 0x5D72 DUP2 DUP8 PUSH2 0x505E JUMP JUMPDEST PUSH1 0x40 DUP5 ADD SWAP6 SWAP1 SWAP6 MSTORE POP POP PUSH1 0x60 ADD MSTORE SWAP3 SWAP2 POP POP JUMP JUMPDEST PUSH1 0x0 PUSH1 0x20 DUP3 DUP5 SUB SLT ISZERO PUSH2 0x5D98 JUMPI PUSH1 0x0 DUP1 REVERT JUMPDEST POP MLOAD SWAP2 SWAP1 POP JUMP JUMPDEST PUSH4 0x4E487B71 PUSH1 0xE0 SHL PUSH1 0x0 MSTORE PUSH1 0x31 PUSH1 0x4 MSTORE PUSH1 0x24 PUSH1 0x0 REVERT JUMPDEST DUP8 DUP2 MSTORE PUSH1 0x0 PUSH1 0x1 PUSH1 0x1 PUSH1 0xA0 SHL SUB DUP1 DUP10 AND PUSH1 0x20 DUP5 ADD MSTORE DUP1 DUP9 AND PUSH1 0x40 DUP5 ADD MSTORE POP PUSH1 0xE0 PUSH1 0x60 DUP4 ADD MSTORE PUSH2 0x5DE7 PUSH1 0xE0 DUP4 ADD DUP8 PUSH2 0x505E JUMP JUMPDEST DUP6 PUSH1 0x80 DUP5 ADD MSTORE DUP5 PUSH1 0xA0 DUP5 ADD MSTORE DUP3 DUP2 SUB PUSH1 0xC0 DUP5 ADD MSTORE PUSH2 0x5E05 DUP2 DUP6 PUSH2 0x5C64 JUMP JUMPDEST SWAP11 SWAP10 POP POP POP POP POP POP POP POP POP POP JUMP JUMPDEST PUSH1 0x0 DUP3 PUSH1 0x1F DUP4 ADD SLT PUSH2 0x5E24 JUMPI PUSH1 0x0 DUP1 REVERT JUMPDEST DUP2 MLOAD PUSH1 0x20 PUSH2 0x5E34 PUSH2 0x4EE9 DUP4 PUSH2 0x4E7E JUMP JUMPDEST DUP3 DUP2 MSTORE PUSH1 0x5 SWAP3 SWAP1 SWAP3 SHL DUP5 ADD DUP2 ADD SWAP2 DUP2 DUP2 ADD SWAP1 DUP7 DUP5 GT ISZERO PUSH2 0x5E53 JUMPI PUSH1 0x0 DUP1 REVERT JUMPDEST DUP3 DUP7 ADD JUMPDEST DUP5 DUP2 LT ISZERO PUSH2 0x5004 JUMPI DUP1 MLOAD DUP4 MSTORE SWAP2 DUP4 ADD SWAP2 DUP4 ADD PUSH2 0x5E57 JUMP JUMPDEST PUSH1 0x0 DUP1 PUSH1 0x40 DUP4 DUP6 SUB SLT ISZERO PUSH2 0x5E81 JUMPI PUSH1 0x0 DUP1 REVERT JUMPDEST DUP3 MLOAD PUSH1 0x1 PUSH1 0x1 PUSH1 0x40 SHL SUB DUP1 DUP3 GT ISZERO PUSH2 0x5E98 JUMPI PUSH1 0x0 DUP1 REVERT JUMPDEST PUSH2 0x5EA4 DUP7 DUP4 DUP8 ADD PUSH2 0x5E13 JUMP JUMPDEST SWAP4 POP PUSH1 0x20 DUP6 ADD MLOAD SWAP2 POP DUP1 DUP3 GT ISZERO PUSH2 0x5EBA JUMPI PUSH1 0x0 DUP1 REVERT JUMPDEST POP PUSH2 0x5054 DUP6 DUP3 DUP7 ADD PUSH2 0x5E13 JUMP JUMPDEST PUSH1 0x0 DUP3 MLOAD PUSH2 0x5ED9 DUP2 DUP5 PUSH1 0x20 DUP8 ADD PUSH2 0x5C38 JUMP JUMPDEST SWAP2 SWAP1 SWAP2 ADD SWAP3 SWAP2 POP POP JUMP JUMPDEST PUSH1 0x60 DUP2 MSTORE PUSH1 0x0 PUSH2 0x5EF6 PUSH1 0x60 DUP4 ADD DUP7 PUSH2 0x5C90 JUMP JUMPDEST PUSH1 0x20 DUP4 ADD SWAP5 SWAP1 SWAP5 MSTORE POP PUSH1 0x40 ADD MSTORE SWAP2 SWAP1 POP JUMP INVALID LOG2 PUSH5 0x6970667358 0x22 SLT KECCAK256 0xEB PC 0xD3 BALANCE 0xC4 0xD9 SWAP5 GASPRICE CHAINID CALL 0x2C 0xC7 0xA6 ISZERO STOP MLOAD SAR AND PUSH2 0xC1F 0xD2 DUP13 PUSH6 0x92E28F760920 EXTCODEHASH JUMP PUSH5 0x736F6C6343 STOP ADDMOD MULMOD STOP CALLER PUSH1 0xC0 PUSH1 0x40 MSTORE CALLVALUE DUP1 ISZERO PUSH2 0x10 JUMPI PUSH1 0x0 DUP1 REVERT JUMPDEST POP PUSH1 0x40 MLOAD PUSH2 0xB70 CODESIZE SUB DUP1 PUSH2 0xB70 DUP4 CODECOPY DUP2 ADD PUSH1 0x40 DUP2 SWAP1 MSTORE PUSH2 0x2F SWAP2 PUSH2 0x4C JUMP JUMPDEST ADDRESS PUSH1 0x60 SHL PUSH1 0x80 MSTORE PUSH1 0x1 PUSH1 0x0 SSTORE PUSH1 0x1 PUSH1 0x1 PUSH1 0xA0 SHL SUB AND PUSH1 0xA0 MSTORE PUSH2 0x7C JUMP JUMPDEST PUSH1 0x0 PUSH1 0x20 DUP3 DUP5 SUB SLT ISZERO PUSH2 0x5E JUMPI PUSH1 0x0 DUP1 REVERT JUMPDEST DUP2 MLOAD PUSH1 0x1 PUSH1 0x1 PUSH1 0xA0 SHL SUB DUP2 AND DUP2 EQ PUSH2 0x75 JUMPI PUSH1 0x0 DUP1 REVERT JUMPDEST SWAP4 SWAP3 POP POP POP JUMP JUMPDEST PUSH1 0x80 MLOAD PUSH1 0xA0 MLOAD PUSH2 0xAC8 PUSH2 0xA8 PUSH1 0x0 CODECOPY PUSH1 0x0 DUP2 DUP2 PUSH2 0x14A ADD MSTORE PUSH2 0x52C ADD MSTORE PUSH1 0x0 PUSH2 0x2C7 ADD MSTORE PUSH2 0xAC8 PUSH1 0x0 RETURN INVALID PUSH1 0x80 PUSH1 0x40 MSTORE CALLVALUE DUP1 ISZERO PUSH2 0x10 JUMPI PUSH1 0x0 DUP1 REVERT JUMPDEST POP PUSH1 0x4 CALLDATASIZE LT PUSH2 0x93 JUMPI PUSH1 0x0 CALLDATALOAD PUSH1 0xE0 SHR DUP1 PUSH4 0x851C1BB3 GT PUSH2 0x66 JUMPI DUP1 PUSH4 0x851C1BB3 EQ PUSH2 0xEA JUMPI DUP1 PUSH4 0xAAABADC5 EQ PUSH2 0xFD JUMPI DUP1 PUSH4 0xD877845C EQ PUSH2 0x11D JUMPI DUP1 PUSH4 0xE42ABF35 EQ PUSH2 0x125 JUMPI DUP1 PUSH4 0xFBFA77CF EQ PUSH2 0x145 JUMPI PUSH1 0x0 DUP1 REVERT JUMPDEST DUP1 PUSH4 0x38E9922E EQ PUSH2 0x98 JUMPI DUP1 PUSH4 0x55C67628 EQ PUSH2 0xAD JUMPI DUP1 PUSH4 0x6B6B9F69 EQ PUSH2 0xC4 JUMPI DUP1 PUSH4 0x6DAEFAB6 EQ PUSH2 0xD7 JUMPI JUMPDEST PUSH1 0x0 DUP1 REVERT JUMPDEST PUSH2 0xAB PUSH2 0xA6 CALLDATASIZE PUSH1 0x4 PUSH2 0x74C JUMP JUMPDEST PUSH2 0x16C JUMP JUMPDEST STOP JUMPDEST PUSH1 0x1 SLOAD JUMPDEST PUSH1 0x40 MLOAD SWAP1 DUP2 MSTORE PUSH1 0x20 ADD JUMPDEST PUSH1 0x40 MLOAD DUP1 SWAP2 SUB SWAP1 RETURN JUMPDEST PUSH2 0xAB PUSH2 0xD2 CALLDATASIZE PUSH1 0x4 PUSH2 0x74C JUMP JUMPDEST PUSH2 0x1C7 JUMP JUMPDEST PUSH2 0xAB PUSH2 0xE5 CALLDATASIZE PUSH1 0x4 PUSH2 0x7C6 JUMP JUMPDEST PUSH2 0x21A JUMP JUMPDEST PUSH2 0xB1 PUSH2 0xF8 CALLDATASIZE PUSH1 0x4 PUSH2 0x84A JUMP JUMPDEST PUSH2 0x2C3 JUMP JUMPDEST PUSH2 0x105 PUSH2 0x328 JUMP JUMPDEST PUSH1 0x40 MLOAD PUSH1 0x1 PUSH1 0x1 PUSH1 0xA0 SHL SUB SWAP1 SWAP2 AND DUP2 MSTORE PUSH1 0x20 ADD PUSH2 0xBB JUMP JUMPDEST PUSH1 0x2 SLOAD PUSH2 0xB1 JUMP JUMPDEST PUSH2 0x138 PUSH2 0x133 CALLDATASIZE PUSH1 0x4 PUSH2 0x89A JUMP JUMPDEST PUSH2 0x337 JUMP JUMPDEST PUSH1 0x40 MLOAD PUSH2 0xBB SWAP2 SWAP1 PUSH2 0x95F JUMP JUMPDEST PUSH2 0x105 PUSH32 0x0 DUP2 JUMP JUMPDEST PUSH2 0x174 PUSH2 0x453 JUMP JUMPDEST PUSH2 0x18B PUSH8 0x6F05B59D3B20000 DUP3 GT ISZERO PUSH2 0x258 PUSH2 0x484 JUMP JUMPDEST PUSH1 0x1 DUP2 SWAP1 SSTORE PUSH1 0x40 MLOAD DUP2 DUP2 MSTORE PUSH32 0xA9BA3FFE0B6C366B81232CAAB38605A0699AD5398D6CCE76F91EE809E322DAFC SWAP1 PUSH1 0x20 ADD JUMPDEST PUSH1 0x40 MLOAD DUP1 SWAP2 SUB SWAP1 LOG1 POP JUMP JUMPDEST PUSH2 0x1CF PUSH2 0x453 JUMP JUMPDEST PUSH2 0x1E5 PUSH7 0x2386F26FC10000 DUP3 GT ISZERO PUSH2 0x259 PUSH2 0x484 JUMP JUMPDEST PUSH1 0x2 DUP2 SWAP1 SSTORE PUSH1 0x40 MLOAD DUP2 DUP2 MSTORE PUSH32 0x5A0B7386237E7F07FA741EFC64E59C9387D2CCCAFEC760EFED4D53387F20E19A SWAP1 PUSH1 0x20 ADD PUSH2 0x1BC JUMP JUMPDEST PUSH2 0x222 PUSH2 0x496 JUMP JUMPDEST PUSH2 0x22A PUSH2 0x453 JUMP JUMPDEST PUSH2 0x234 DUP5 DUP4 PUSH2 0x4AF JUMP JUMPDEST PUSH1 0x0 JUMPDEST DUP5 DUP2 LT ISZERO PUSH2 0x2B1 JUMPI PUSH1 0x0 DUP7 DUP7 DUP4 DUP2 DUP2 LT PUSH2 0x253 JUMPI PUSH2 0x253 PUSH2 0x9A3 JUMP JUMPDEST SWAP1 POP PUSH1 0x20 MUL ADD PUSH1 0x20 DUP2 ADD SWAP1 PUSH2 0x268 SWAP2 SWAP1 PUSH2 0x9B9 JUMP JUMPDEST SWAP1 POP PUSH1 0x0 DUP6 DUP6 DUP5 DUP2 DUP2 LT PUSH2 0x27E JUMPI PUSH2 0x27E PUSH2 0x9A3 JUMP JUMPDEST PUSH1 0x20 MUL SWAP2 SWAP1 SWAP2 ADD CALLDATALOAD SWAP2 POP PUSH2 0x29E SWAP1 POP PUSH1 0x1 PUSH1 0x1 PUSH1 0xA0 SHL SUB DUP4 AND DUP6 DUP4 PUSH2 0x4BC JUMP JUMPDEST POP POP DUP1 PUSH2 0x2AA SWAP1 PUSH2 0x9D6 JUMP JUMPDEST SWAP1 POP PUSH2 0x237 JUMP JUMPDEST POP PUSH2 0x2BC PUSH1 0x1 PUSH1 0x0 SSTORE JUMP JUMPDEST POP POP POP POP POP JUMP JUMPDEST PUSH1 0x0 PUSH32 0x0 DUP3 PUSH1 0x40 MLOAD PUSH1 0x20 ADD PUSH2 0x30B SWAP3 SWAP2 SWAP1 SWAP2 DUP3 MSTORE PUSH1 0x1 PUSH1 0x1 PUSH1 0xE0 SHL SUB NOT AND PUSH1 0x20 DUP3 ADD MSTORE PUSH1 0x24 ADD SWAP1 JUMP JUMPDEST PUSH1 0x40 MLOAD PUSH1 0x20 DUP2 DUP4 SUB SUB DUP2 MSTORE SWAP1 PUSH1 0x40 MSTORE DUP1 MLOAD SWAP1 PUSH1 0x20 ADD KECCAK256 SWAP1 POP SWAP2 SWAP1 POP JUMP JUMPDEST PUSH1 0x0 PUSH2 0x332 PUSH2 0x528 JUMP JUMPDEST SWAP1 POP SWAP1 JUMP JUMPDEST PUSH1 0x60 DUP2 MLOAD PUSH8 0xFFFFFFFFFFFFFFFF DUP2 GT ISZERO PUSH2 0x353 JUMPI PUSH2 0x353 PUSH2 0x874 JUMP JUMPDEST PUSH1 0x40 MLOAD SWAP1 DUP1 DUP3 MSTORE DUP1 PUSH1 0x20 MUL PUSH1 0x20 ADD DUP3 ADD PUSH1 0x40 MSTORE DUP1 ISZERO PUSH2 0x37C JUMPI DUP2 PUSH1 0x20 ADD PUSH1 0x20 DUP3 MUL DUP1 CALLDATASIZE DUP4 CALLDATACOPY ADD SWAP1 POP JUMPDEST POP SWAP1 POP PUSH1 0x0 JUMPDEST DUP3 MLOAD DUP2 LT ISZERO PUSH2 0x44D JUMPI DUP3 DUP2 DUP2 MLOAD DUP2 LT PUSH2 0x39D JUMPI PUSH2 0x39D PUSH2 0x9A3 JUMP JUMPDEST PUSH1 0x20 SWAP1 DUP2 MUL SWAP2 SWAP1 SWAP2 ADD ADD MLOAD PUSH1 0x40 MLOAD PUSH4 0x70A08231 PUSH1 0xE0 SHL DUP2 MSTORE ADDRESS PUSH1 0x4 DUP3 ADD MSTORE PUSH1 0x1 PUSH1 0x1 PUSH1 0xA0 SHL SUB SWAP1 SWAP2 AND SWAP1 PUSH4 0x70A08231 SWAP1 PUSH1 0x24 ADD PUSH1 0x20 PUSH1 0x40 MLOAD DUP1 DUP4 SUB DUP2 DUP7 DUP1 EXTCODESIZE ISZERO DUP1 ISZERO PUSH2 0x3E8 JUMPI PUSH1 0x0 DUP1 REVERT JUMPDEST POP GAS STATICCALL ISZERO DUP1 ISZERO PUSH2 0x3FC JUMPI RETURNDATASIZE PUSH1 0x0 DUP1 RETURNDATACOPY RETURNDATASIZE PUSH1 0x0 REVERT JUMPDEST POP POP POP POP PUSH1 0x40 MLOAD RETURNDATASIZE PUSH1 0x1F NOT PUSH1 0x1F DUP3 ADD AND DUP3 ADD DUP1 PUSH1 0x40 MSTORE POP DUP2 ADD SWAP1 PUSH2 0x420 SWAP2 SWAP1 PUSH2 0x9FF JUMP JUMPDEST DUP3 DUP3 DUP2 MLOAD DUP2 LT PUSH2 0x432 JUMPI PUSH2 0x432 PUSH2 0x9A3 JUMP JUMPDEST PUSH1 0x20 SWAP1 DUP2 MUL SWAP2 SWAP1 SWAP2 ADD ADD MSTORE PUSH2 0x446 DUP2 PUSH2 0x9D6 JUMP JUMPDEST SWAP1 POP PUSH2 0x382 JUMP JUMPDEST POP SWAP2 SWAP1 POP JUMP JUMPDEST PUSH1 0x0 PUSH2 0x46A PUSH1 0x0 CALLDATALOAD PUSH1 0x1 PUSH1 0x1 PUSH1 0xE0 SHL SUB NOT AND PUSH2 0x2C3 JUMP JUMPDEST SWAP1 POP PUSH2 0x481 PUSH2 0x479 DUP3 CALLER PUSH2 0x5BB JUMP JUMPDEST PUSH2 0x191 PUSH2 0x484 JUMP JUMPDEST POP JUMP JUMPDEST DUP2 PUSH2 0x492 JUMPI PUSH2 0x492 DUP2 PUSH2 0x654 JUMP JUMPDEST POP POP JUMP JUMPDEST PUSH2 0x4A8 PUSH1 0x2 PUSH1 0x0 SLOAD EQ ISZERO PUSH2 0x190 PUSH2 0x484 JUMP JUMPDEST PUSH1 0x2 PUSH1 0x0 SSTORE JUMP JUMPDEST PUSH2 0x492 DUP2 DUP4 EQ PUSH1 0x67 PUSH2 0x484 JUMP JUMPDEST PUSH1 0x40 DUP1 MLOAD PUSH1 0x1 PUSH1 0x1 PUSH1 0xA0 SHL SUB DUP5 AND PUSH1 0x24 DUP3 ADD MSTORE PUSH1 0x44 DUP1 DUP3 ADD DUP5 SWAP1 MSTORE DUP3 MLOAD DUP1 DUP4 SUB SWAP1 SWAP2 ADD DUP2 MSTORE PUSH1 0x64 SWAP1 SWAP2 ADD SWAP1 SWAP2 MSTORE PUSH1 0x20 DUP2 ADD DUP1 MLOAD PUSH28 0xFFFFFFFFFFFFFFFFFFFFFFFFFFFFFFFFFFFFFFFFFFFFFFFFFFFFFFFF AND PUSH4 0xA9059CBB PUSH1 0xE0 SHL OR SWAP1 MSTORE PUSH2 0x523 SWAP1 DUP5 SWAP1 PUSH2 0x6A7 JUMP JUMPDEST POP POP POP JUMP JUMPDEST PUSH1 0x0 PUSH32 0x0 PUSH1 0x1 PUSH1 0x1 PUSH1 0xA0 SHL SUB AND PUSH4 0xAAABADC5 PUSH1 0x40 MLOAD DUP2 PUSH4 0xFFFFFFFF AND PUSH1 0xE0 SHL DUP2 MSTORE PUSH1 0x4 ADD PUSH1 0x20 PUSH1 0x40 MLOAD DUP1 DUP4 SUB DUP2 DUP7 DUP1 EXTCODESIZE ISZERO DUP1 ISZERO PUSH2 0x583 JUMPI PUSH1 0x0 DUP1 REVERT JUMPDEST POP GAS STATICCALL ISZERO DUP1 ISZERO PUSH2 0x597 JUMPI RETURNDATASIZE PUSH1 0x0 DUP1 RETURNDATACOPY RETURNDATASIZE PUSH1 0x0 REVERT JUMPDEST POP POP POP POP PUSH1 0x40 MLOAD RETURNDATASIZE PUSH1 0x1F NOT PUSH1 0x1F DUP3 ADD AND DUP3 ADD DUP1 PUSH1 0x40 MSTORE POP DUP2 ADD SWAP1 PUSH2 0x332 SWAP2 SWAP1 PUSH2 0xA18 JUMP JUMPDEST PUSH1 0x0 PUSH2 0x5C5 PUSH2 0x528 JUMP JUMPDEST PUSH1 0x40 MLOAD PUSH4 0x26F8AA21 PUSH1 0xE2 SHL DUP2 MSTORE PUSH1 0x4 DUP2 ADD DUP6 SWAP1 MSTORE PUSH1 0x1 PUSH1 0x1 PUSH1 0xA0 SHL SUB DUP5 DUP2 AND PUSH1 0x24 DUP4 ADD MSTORE ADDRESS PUSH1 0x44 DUP4 ADD MSTORE SWAP2 SWAP1 SWAP2 AND SWAP1 PUSH4 0x9BE2A884 SWAP1 PUSH1 0x64 ADD PUSH1 0x20 PUSH1 0x40 MLOAD DUP1 DUP4 SUB DUP2 DUP7 DUP1 EXTCODESIZE ISZERO DUP1 ISZERO PUSH2 0x615 JUMPI PUSH1 0x0 DUP1 REVERT JUMPDEST POP GAS STATICCALL ISZERO DUP1 ISZERO PUSH2 0x629 JUMPI RETURNDATASIZE PUSH1 0x0 DUP1 RETURNDATACOPY RETURNDATASIZE PUSH1 0x0 REVERT JUMPDEST POP POP POP POP PUSH1 0x40 MLOAD RETURNDATASIZE PUSH1 0x1F NOT PUSH1 0x1F DUP3 ADD AND DUP3 ADD DUP1 PUSH1 0x40 MSTORE POP DUP2 ADD SWAP1 PUSH2 0x64D SWAP2 SWAP1 PUSH2 0xA35 JUMP JUMPDEST SWAP4 SWAP3 POP POP POP JUMP JUMPDEST PUSH3 0x461BCD PUSH1 0xE5 SHL PUSH1 0x0 SWAP1 DUP2 MSTORE PUSH1 0x20 PUSH1 0x4 MSTORE PUSH1 0x7 PUSH1 0x24 MSTORE PUSH7 0x42414C23000030 PUSH1 0xA DUP1 DUP5 DIV DUP2 DUP2 MOD PUSH1 0x30 SWAP1 DUP2 ADD PUSH1 0x8 SHL SWAP6 DUP4 SWAP1 MOD SWAP6 SWAP1 SWAP6 ADD SWAP1 DUP3 SWAP1 DIV SWAP2 DUP3 MOD SWAP1 SWAP5 ADD PUSH1 0x10 SHL SWAP4 SWAP1 SWAP4 ADD ADD PUSH1 0xC8 SHL PUSH1 0x44 MSTORE PUSH1 0x64 SWAP1 REVERT JUMPDEST PUSH1 0x0 DUP1 DUP4 PUSH1 0x1 PUSH1 0x1 PUSH1 0xA0 SHL SUB AND DUP4 PUSH1 0x40 MLOAD PUSH2 0x6C2 SWAP2 SWAP1 PUSH2 0xA57 JUMP JUMPDEST PUSH1 0x0 PUSH1 0x40 MLOAD DUP1 DUP4 SUB DUP2 PUSH1 0x0 DUP7 GAS CALL SWAP2 POP POP RETURNDATASIZE DUP1 PUSH1 0x0 DUP2 EQ PUSH2 0x6FF JUMPI PUSH1 0x40 MLOAD SWAP2 POP PUSH1 0x1F NOT PUSH1 0x3F RETURNDATASIZE ADD AND DUP3 ADD PUSH1 0x40 MSTORE RETURNDATASIZE DUP3 MSTORE RETURNDATASIZE PUSH1 0x0 PUSH1 0x20 DUP5 ADD RETURNDATACOPY PUSH2 0x704 JUMP JUMPDEST PUSH1 0x60 SWAP2 POP JUMPDEST POP SWAP2 POP SWAP2 POP PUSH1 0x0 DUP3 EQ ISZERO PUSH2 0x71C JUMPI RETURNDATASIZE PUSH1 0x0 DUP1 RETURNDATACOPY RETURNDATASIZE PUSH1 0x0 REVERT JUMPDEST PUSH2 0x746 DUP2 MLOAD PUSH1 0x0 EQ DUP1 PUSH2 0x73E JUMPI POP DUP2 DUP1 PUSH1 0x20 ADD SWAP1 MLOAD DUP2 ADD SWAP1 PUSH2 0x73E SWAP2 SWAP1 PUSH2 0xA35 JUMP JUMPDEST PUSH2 0x1A2 PUSH2 0x484 JUMP JUMPDEST POP POP POP POP JUMP JUMPDEST PUSH1 0x0 PUSH1 0x20 DUP3 DUP5 SUB SLT ISZERO PUSH2 0x75E JUMPI PUSH1 0x0 DUP1 REVERT JUMPDEST POP CALLDATALOAD SWAP2 SWAP1 POP JUMP JUMPDEST PUSH1 0x0 DUP1 DUP4 PUSH1 0x1F DUP5 ADD SLT PUSH2 0x777 JUMPI PUSH1 0x0 DUP1 REVERT JUMPDEST POP DUP2 CALLDATALOAD PUSH8 0xFFFFFFFFFFFFFFFF DUP2 GT ISZERO PUSH2 0x78F JUMPI PUSH1 0x0 DUP1 REVERT JUMPDEST PUSH1 0x20 DUP4 ADD SWAP2 POP DUP4 PUSH1 0x20 DUP3 PUSH1 0x5 SHL DUP6 ADD ADD GT ISZERO PUSH2 0x7AA JUMPI PUSH1 0x0 DUP1 REVERT JUMPDEST SWAP3 POP SWAP3 SWAP1 POP JUMP JUMPDEST PUSH1 0x1 PUSH1 0x1 PUSH1 0xA0 SHL SUB DUP2 AND DUP2 EQ PUSH2 0x481 JUMPI PUSH1 0x0 DUP1 REVERT JUMPDEST PUSH1 0x0 DUP1 PUSH1 0x0 DUP1 PUSH1 0x0 PUSH1 0x60 DUP7 DUP9 SUB SLT ISZERO PUSH2 0x7DE JUMPI PUSH1 0x0 DUP1 REVERT JUMPDEST DUP6 CALLDATALOAD PUSH8 0xFFFFFFFFFFFFFFFF DUP1 DUP3 GT ISZERO PUSH2 0x7F6 JUMPI PUSH1 0x0 DUP1 REVERT JUMPDEST PUSH2 0x802 DUP10 DUP4 DUP11 ADD PUSH2 0x765 JUMP JUMPDEST SWAP1 SWAP8 POP SWAP6 POP PUSH1 0x20 DUP9 ADD CALLDATALOAD SWAP2 POP DUP1 DUP3 GT ISZERO PUSH2 0x81B JUMPI PUSH1 0x0 DUP1 REVERT JUMPDEST POP PUSH2 0x828 DUP9 DUP3 DUP10 ADD PUSH2 0x765 JUMP JUMPDEST SWAP1 SWAP5 POP SWAP3 POP POP PUSH1 0x40 DUP7 ADD CALLDATALOAD PUSH2 0x83C DUP2 PUSH2 0x7B1 JUMP JUMPDEST DUP1 SWAP2 POP POP SWAP3 SWAP6 POP SWAP3 SWAP6 SWAP1 SWAP4 POP JUMP JUMPDEST PUSH1 0x0 PUSH1 0x20 DUP3 DUP5 SUB SLT ISZERO PUSH2 0x85C JUMPI PUSH1 0x0 DUP1 REVERT JUMPDEST DUP2 CALLDATALOAD PUSH1 0x1 PUSH1 0x1 PUSH1 0xE0 SHL SUB NOT DUP2 AND DUP2 EQ PUSH2 0x64D JUMPI PUSH1 0x0 DUP1 REVERT JUMPDEST PUSH4 0x4E487B71 PUSH1 0xE0 SHL PUSH1 0x0 MSTORE PUSH1 0x41 PUSH1 0x4 MSTORE PUSH1 0x24 PUSH1 0x0 REVERT JUMPDEST DUP1 CALLDATALOAD PUSH2 0x895 DUP2 PUSH2 0x7B1 JUMP JUMPDEST SWAP2 SWAP1 POP JUMP JUMPDEST PUSH1 0x0 PUSH1 0x20 DUP1 DUP4 DUP6 SUB SLT ISZERO PUSH2 0x8AD JUMPI PUSH1 0x0 DUP1 REVERT JUMPDEST DUP3 CALLDATALOAD PUSH8 0xFFFFFFFFFFFFFFFF DUP1 DUP3 GT ISZERO PUSH2 0x8C5 JUMPI PUSH1 0x0 DUP1 REVERT JUMPDEST DUP2 DUP6 ADD SWAP2 POP DUP6 PUSH1 0x1F DUP4 ADD SLT PUSH2 0x8D9 JUMPI PUSH1 0x0 DUP1 REVERT JUMPDEST DUP2 CALLDATALOAD DUP2 DUP2 GT ISZERO PUSH2 0x8EB JUMPI PUSH2 0x8EB PUSH2 0x874 JUMP JUMPDEST DUP1 PUSH1 0x5 SHL PUSH1 0x40 MLOAD PUSH1 0x1F NOT PUSH1 0x3F DUP4 ADD AND DUP2 ADD DUP2 DUP2 LT DUP6 DUP3 GT OR ISZERO PUSH2 0x910 JUMPI PUSH2 0x910 PUSH2 0x874 JUMP JUMPDEST PUSH1 0x40 MSTORE SWAP2 DUP3 MSTORE DUP5 DUP3 ADD SWAP3 POP DUP4 DUP2 ADD DUP6 ADD SWAP2 DUP9 DUP4 GT ISZERO PUSH2 0x92E JUMPI PUSH1 0x0 DUP1 REVERT JUMPDEST SWAP4 DUP6 ADD SWAP4 JUMPDEST DUP3 DUP6 LT ISZERO PUSH2 0x953 JUMPI PUSH2 0x944 DUP6 PUSH2 0x88A JUMP JUMPDEST DUP5 MSTORE SWAP4 DUP6 ADD SWAP4 SWAP3 DUP6 ADD SWAP3 PUSH2 0x933 JUMP JUMPDEST SWAP9 SWAP8 POP POP POP POP POP POP POP POP JUMP JUMPDEST PUSH1 0x20 DUP1 DUP3 MSTORE DUP3 MLOAD DUP3 DUP3 ADD DUP2 SWAP1 MSTORE PUSH1 0x0 SWAP2 SWAP1 DUP5 DUP3 ADD SWAP1 PUSH1 0x40 DUP6 ADD SWAP1 DUP5 JUMPDEST DUP2 DUP2 LT ISZERO PUSH2 0x997 JUMPI DUP4 MLOAD DUP4 MSTORE SWAP3 DUP5 ADD SWAP3 SWAP2 DUP5 ADD SWAP2 PUSH1 0x1 ADD PUSH2 0x97B JUMP JUMPDEST POP SWAP1 SWAP7 SWAP6 POP POP POP POP POP POP JUMP JUMPDEST PUSH4 0x4E487B71 PUSH1 0xE0 SHL PUSH1 0x0 MSTORE PUSH1 0x32 PUSH1 0x4 MSTORE PUSH1 0x24 PUSH1 0x0 REVERT JUMPDEST PUSH1 0x0 PUSH1 0x20 DUP3 DUP5 SUB SLT ISZERO PUSH2 0x9CB JUMPI PUSH1 0x0 DUP1 REVERT JUMPDEST DUP2 CALLDATALOAD PUSH2 0x64D DUP2 PUSH2 0x7B1 JUMP JUMPDEST PUSH1 0x0 PUSH1 0x0 NOT DUP3 EQ ISZERO PUSH2 0x9F8 JUMPI PUSH4 0x4E487B71 PUSH1 0xE0 SHL PUSH1 0x0 MSTORE PUSH1 0x11 PUSH1 0x4 MSTORE PUSH1 0x24 PUSH1 0x0 REVERT JUMPDEST POP PUSH1 0x1 ADD SWAP1 JUMP JUMPDEST PUSH1 0x0 PUSH1 0x20 DUP3 DUP5 SUB SLT ISZERO PUSH2 0xA11 JUMPI PUSH1 0x0 DUP1 REVERT JUMPDEST POP MLOAD SWAP2 SWAP1 POP JUMP JUMPDEST PUSH1 0x0 PUSH1 0x20 DUP3 DUP5 SUB SLT ISZERO PUSH2 0xA2A JUMPI PUSH1 0x0 DUP1 REVERT JUMPDEST DUP2 MLOAD PUSH2 0x64D DUP2 PUSH2 0x7B1 JUMP JUMPDEST PUSH1 0x0 PUSH1 0x20 DUP3 DUP5 SUB SLT ISZERO PUSH2 0xA47 JUMPI PUSH1 0x0 DUP1 REVERT JUMPDEST DUP2 MLOAD DUP1 ISZERO ISZERO DUP2 EQ PUSH2 0x64D JUMPI PUSH1 0x0 DUP1 REVERT JUMPDEST PUSH1 0x0 DUP3 MLOAD PUSH1 0x0 JUMPDEST DUP2 DUP2 LT ISZERO PUSH2 0xA78 JUMPI PUSH1 0x20 DUP2 DUP7 ADD DUP2 ADD MLOAD DUP6 DUP4 ADD MSTORE ADD PUSH2 0xA5E JUMP JUMPDEST DUP2 DUP2 GT ISZERO PUSH2 0xA87 JUMPI PUSH1 0x0 DUP3 DUP6 ADD MSTORE JUMPDEST POP SWAP2 SWAP1 SWAP2 ADD SWAP3 SWAP2 POP POP JUMP INVALID LOG2 PUSH5 0x6970667358 0x22 SLT KECCAK256 DUP15 0xD2 LOG3 SWAP3 0xED 0xC4 BASEFEE LT PC EQ 0xAE PUSH3 0x3B8C5F 0xDF CALLDATACOPY 0xEB PUSH31 0x46DCCD1989EFD501A395559E4264736F6C6343000809003300000000000000 "
		},
		"gasEstimates": {
			"creation": {
				"codeDepositCost": "4876400",
				"executionCost": "infinite",
				"totalCost": "infinite"
			},
			"external": {
				"WETH()": "infinite",
				"batchSwap(uint8,(bytes32,uint256,uint256,uint256,bytes)[],address[],(address,bool,address,bool),int256[],uint256)": "infinite",
				"deregisterTokens(bytes32,address[])": "infinite",
				"exitPool(bytes32,address,address,(address[],uint256[],bytes,bool))": "infinite",
				"getActionId(bytes4)": "infinite",
				"getAuthorizer()": "2399",
				"getDomainSeparator()": "infinite",
				"getInternalBalance(address,address[])": "infinite",
				"getNextNonce(address)": "2609",
				"getPausedState()": "infinite",
				"getPool(bytes32)": "infinite",
				"getPoolTokenInfo(bytes32,address)": "infinite",
				"getPoolTokens(bytes32)": "infinite",
				"getProtocolFeesCollector()": "infinite",
				"hasApprovedRelayer(address,address)": "infinite",
				"joinPool(bytes32,address,address,(address[],uint256[],bytes,bool))": "infinite",
				"managePoolBalance((uint8,bytes32,address,uint256)[])": "infinite",
				"manageUserBalance((uint8,address,uint256,address,address)[])": "infinite",
				"queryBatchSwap(uint8,(bytes32,uint256,uint256,uint256,bytes)[],address[],(address,bool,address,bool))": "infinite",
				"registerPool(uint8)": "infinite",
				"registerTokens(bytes32,address[],address[])": "infinite",
				"setAuthorizer(address)": "infinite",
				"setPaused(bool)": "infinite",
				"setRelayerApproval(address,address,bool)": "infinite",
				"swap((bytes32,uint8,address,address,uint256,bytes),(address,bool,address,bool),uint256,uint256)": "infinite"
			}
		},
		"methodIdentifiers": {
			"WETH()": "ad5c4648",
			"batchSwap(uint8,(bytes32,uint256,uint256,uint256,bytes)[],address[],(address,bool,address,bool),int256[],uint256)": "945bcec9",
			"deregisterTokens(bytes32,address[])": "7d3aeb96",
			"exitPool(bytes32,address,address,(address[],uint256[],bytes,bool))": "8bdb3913",
			"getActionId(bytes4)": "851c1bb3",
			"getAuthorizer()": "aaabadc5",
			"getDomainSeparator()": "ed24911d",
			"getInternalBalance(address,address[])": "0f5a6efa",
			"getNextNonce(address)": "90193b7c",
			"getPausedState()": "1c0de051",
			"getPool(bytes32)": "f6c00927",
			"getPoolTokenInfo(bytes32,address)": "b05f8e48",
			"getPoolTokens(bytes32)": "f94d4668",
			"getProtocolFeesCollector()": "d2946c2b",
			"hasApprovedRelayer(address,address)": "fec90d72",
			"joinPool(bytes32,address,address,(address[],uint256[],bytes,bool))": "b95cac28",
			"managePoolBalance((uint8,bytes32,address,uint256)[])": "e6c46092",
			"manageUserBalance((uint8,address,uint256,address,address)[])": "0e8e3e84",
			"queryBatchSwap(uint8,(bytes32,uint256,uint256,uint256,bytes)[],address[],(address,bool,address,bool))": "f84d066e",
			"registerPool(uint8)": "09b2760f",
			"registerTokens(bytes32,address[],address[])": "66a9c7d2",
			"setAuthorizer(address)": "058a628f",
			"setPaused(bool)": "16c38b3c",
			"setRelayerApproval(address,address,bool)": "fa6e671d",
			"swap((bytes32,uint8,address,address,uint256,bytes),(address,bool,address,bool),uint256,uint256)": "52bbbe29"
		}
	},
	"abi": [
		{
			"inputs": [
				{
					"internalType": "contract IAuthorizer",
					"name": "authorizer",
					"type": "address"
				},
				{
					"internalType": "contract IWETH",
					"name": "weth",
					"type": "address"
				},
				{
					"internalType": "uint256",
					"name": "pauseWindowDuration",
					"type": "uint256"
				},
				{
					"internalType": "uint256",
					"name": "bufferPeriodDuration",
					"type": "uint256"
				}
			],
			"stateMutability": "nonpayable",
			"type": "constructor"
		},
		{
			"anonymous": false,
			"inputs": [
				{
					"indexed": true,
					"internalType": "contract IAuthorizer",
					"name": "newAuthorizer",
					"type": "address"
				}
			],
			"name": "AuthorizerChanged",
			"type": "event"
		},
		{
			"anonymous": false,
			"inputs": [
				{
					"indexed": true,
					"internalType": "contract IERC20",
					"name": "token",
					"type": "address"
				},
				{
					"indexed": true,
					"internalType": "address",
					"name": "sender",
					"type": "address"
				},
				{
					"indexed": false,
					"internalType": "address",
					"name": "recipient",
					"type": "address"
				},
				{
					"indexed": false,
					"internalType": "uint256",
					"name": "amount",
					"type": "uint256"
				}
			],
			"name": "ExternalBalanceTransfer",
			"type": "event"
		},
		{
			"anonymous": false,
			"inputs": [
				{
					"indexed": true,
					"internalType": "contract IFlashLoanRecipient",
					"name": "recipient",
					"type": "address"
				},
				{
					"indexed": true,
					"internalType": "contract IERC20",
					"name": "token",
					"type": "address"
				},
				{
					"indexed": false,
					"internalType": "uint256",
					"name": "amount",
					"type": "uint256"
				},
				{
					"indexed": false,
					"internalType": "uint256",
					"name": "feeAmount",
					"type": "uint256"
				}
			],
			"name": "FlashLoan",
			"type": "event"
		},
		{
			"anonymous": false,
			"inputs": [
				{
					"indexed": true,
					"internalType": "address",
					"name": "user",
					"type": "address"
				},
				{
					"indexed": true,
					"internalType": "contract IERC20",
					"name": "token",
					"type": "address"
				},
				{
					"indexed": false,
					"internalType": "int256",
					"name": "delta",
					"type": "int256"
				}
			],
			"name": "InternalBalanceChanged",
			"type": "event"
		},
		{
			"anonymous": false,
			"inputs": [
				{
					"indexed": false,
					"internalType": "bool",
					"name": "paused",
					"type": "bool"
				}
			],
			"name": "PausedStateChanged",
			"type": "event"
		},
		{
			"anonymous": false,
			"inputs": [
				{
					"indexed": true,
					"internalType": "bytes32",
					"name": "poolId",
					"type": "bytes32"
				},
				{
					"indexed": true,
					"internalType": "address",
					"name": "liquidityProvider",
					"type": "address"
				},
				{
					"indexed": false,
					"internalType": "contract IERC20[]",
					"name": "tokens",
					"type": "address[]"
				},
				{
					"indexed": false,
					"internalType": "int256[]",
					"name": "deltas",
					"type": "int256[]"
				},
				{
					"indexed": false,
					"internalType": "uint256[]",
					"name": "protocolFeeAmounts",
					"type": "uint256[]"
				}
			],
			"name": "PoolBalanceChanged",
			"type": "event"
		},
		{
			"anonymous": false,
			"inputs": [
				{
					"indexed": true,
					"internalType": "bytes32",
					"name": "poolId",
					"type": "bytes32"
				},
				{
					"indexed": true,
					"internalType": "address",
					"name": "assetManager",
					"type": "address"
				},
				{
					"indexed": true,
					"internalType": "contract IERC20",
					"name": "token",
					"type": "address"
				},
				{
					"indexed": false,
					"internalType": "int256",
					"name": "cashDelta",
					"type": "int256"
				},
				{
					"indexed": false,
					"internalType": "int256",
					"name": "managedDelta",
					"type": "int256"
				}
			],
			"name": "PoolBalanceManaged",
			"type": "event"
		},
		{
			"anonymous": false,
			"inputs": [
				{
					"indexed": true,
					"internalType": "bytes32",
					"name": "poolId",
					"type": "bytes32"
				},
				{
					"indexed": true,
					"internalType": "address",
					"name": "poolAddress",
					"type": "address"
				},
				{
					"indexed": false,
					"internalType": "enum IVault.PoolSpecialization",
					"name": "specialization",
					"type": "uint8"
				}
			],
			"name": "PoolRegistered",
			"type": "event"
		},
		{
			"anonymous": false,
			"inputs": [
				{
					"indexed": true,
					"internalType": "address",
					"name": "relayer",
					"type": "address"
				},
				{
					"indexed": true,
					"internalType": "address",
					"name": "sender",
					"type": "address"
				},
				{
					"indexed": false,
					"internalType": "bool",
					"name": "approved",
					"type": "bool"
				}
			],
			"name": "RelayerApprovalChanged",
			"type": "event"
		},
		{
			"anonymous": false,
			"inputs": [
				{
					"indexed": true,
					"internalType": "bytes32",
					"name": "poolId",
					"type": "bytes32"
				},
				{
					"indexed": true,
					"internalType": "contract IERC20",
					"name": "tokenIn",
					"type": "address"
				},
				{
					"indexed": true,
					"internalType": "contract IERC20",
					"name": "tokenOut",
					"type": "address"
				},
				{
					"indexed": false,
					"internalType": "uint256",
					"name": "amountIn",
					"type": "uint256"
				},
				{
					"indexed": false,
					"internalType": "uint256",
					"name": "amountOut",
					"type": "uint256"
				}
			],
			"name": "Swap",
			"type": "event"
		},
		{
			"anonymous": false,
			"inputs": [
				{
					"indexed": true,
					"internalType": "bytes32",
					"name": "poolId",
					"type": "bytes32"
				},
				{
					"indexed": false,
					"internalType": "contract IERC20[]",
					"name": "tokens",
					"type": "address[]"
				}
			],
			"name": "TokensDeregistered",
			"type": "event"
		},
		{
			"anonymous": false,
			"inputs": [
				{
					"indexed": true,
					"internalType": "bytes32",
					"name": "poolId",
					"type": "bytes32"
				},
				{
					"indexed": false,
					"internalType": "contract IERC20[]",
					"name": "tokens",
					"type": "address[]"
				},
				{
					"indexed": false,
					"internalType": "address[]",
					"name": "assetManagers",
					"type": "address[]"
				}
			],
			"name": "TokensRegistered",
			"type": "event"
		},
		{
			"inputs": [],
			"name": "WETH",
			"outputs": [
				{
					"internalType": "contract IWETH",
					"name": "",
					"type": "address"
				}
			],
			"stateMutability": "view",
			"type": "function"
		},
		{
			"inputs": [
				{
					"internalType": "enum IVault.SwapKind",
					"name": "kind",
					"type": "uint8"
				},
				{
					"components": [
						{
							"internalType": "bytes32",
							"name": "poolId",
							"type": "bytes32"
						},
						{
							"internalType": "uint256",
							"name": "assetInIndex",
							"type": "uint256"
						},
						{
							"internalType": "uint256",
							"name": "assetOutIndex",
							"type": "uint256"
						},
						{
							"internalType": "uint256",
							"name": "amount",
							"type": "uint256"
						},
						{
							"internalType": "bytes",
							"name": "userData",
							"type": "bytes"
						}
					],
					"internalType": "struct IVault.BatchSwapStep[]",
					"name": "swaps",
					"type": "tuple[]"
				},
				{
					"internalType": "contract IAsset[]",
					"name": "assets",
					"type": "address[]"
				},
				{
					"components": [
						{
							"internalType": "address",
							"name": "sender",
							"type": "address"
						},
						{
							"internalType": "bool",
							"name": "fromInternalBalance",
							"type": "bool"
						},
						{
							"internalType": "address payable",
							"name": "recipient",
							"type": "address"
						},
						{
							"internalType": "bool",
							"name": "toInternalBalance",
							"type": "bool"
						}
					],
					"internalType": "struct IVault.FundManagement",
					"name": "funds",
					"type": "tuple"
				},
				{
					"internalType": "int256[]",
					"name": "limits",
					"type": "int256[]"
				},
				{
					"internalType": "uint256",
					"name": "deadline",
					"type": "uint256"
				}
			],
			"name": "batchSwap",
			"outputs": [
				{
					"internalType": "int256[]",
					"name": "assetDeltas",
					"type": "int256[]"
				}
			],
			"stateMutability": "payable",
			"type": "function"
		},
		{
			"inputs": [
				{
					"internalType": "bytes32",
					"name": "poolId",
					"type": "bytes32"
				},
				{
					"internalType": "contract IERC20[]",
					"name": "tokens",
					"type": "address[]"
				}
			],
			"name": "deregisterTokens",
			"outputs": [],
			"stateMutability": "nonpayable",
			"type": "function"
		},
		{
			"inputs": [
				{
					"internalType": "bytes32",
					"name": "poolId",
					"type": "bytes32"
				},
				{
					"internalType": "address",
					"name": "sender",
					"type": "address"
				},
				{
					"internalType": "address payable",
					"name": "recipient",
					"type": "address"
				},
				{
					"components": [
						{
							"internalType": "contract IAsset[]",
							"name": "assets",
							"type": "address[]"
						},
						{
							"internalType": "uint256[]",
							"name": "minAmountsOut",
							"type": "uint256[]"
						},
						{
							"internalType": "bytes",
							"name": "userData",
							"type": "bytes"
						},
						{
							"internalType": "bool",
							"name": "toInternalBalance",
							"type": "bool"
						}
					],
					"internalType": "struct IVault.ExitPoolRequest",
					"name": "request",
					"type": "tuple"
				}
			],
			"name": "exitPool",
			"outputs": [],
			"stateMutability": "nonpayable",
			"type": "function"
		},
		{
			"inputs": [
				{
					"internalType": "bytes4",
					"name": "selector",
					"type": "bytes4"
				}
			],
			"name": "getActionId",
			"outputs": [
				{
					"internalType": "bytes32",
					"name": "",
					"type": "bytes32"
				}
			],
			"stateMutability": "view",
			"type": "function"
		},
		{
			"inputs": [],
			"name": "getAuthorizer",
			"outputs": [
				{
					"internalType": "contract IAuthorizer",
					"name": "",
					"type": "address"
				}
			],
			"stateMutability": "view",
			"type": "function"
		},
		{
			"inputs": [],
			"name": "getDomainSeparator",
			"outputs": [
				{
					"internalType": "bytes32",
					"name": "",
					"type": "bytes32"
				}
			],
			"stateMutability": "view",
			"type": "function"
		},
		{
			"inputs": [
				{
					"internalType": "address",
					"name": "user",
					"type": "address"
				},
				{
					"internalType": "contract IERC20[]",
					"name": "tokens",
					"type": "address[]"
				}
			],
			"name": "getInternalBalance",
			"outputs": [
				{
					"internalType": "uint256[]",
					"name": "balances",
					"type": "uint256[]"
				}
			],
			"stateMutability": "view",
			"type": "function"
		},
		{
			"inputs": [
				{
					"internalType": "address",
					"name": "user",
					"type": "address"
				}
			],
			"name": "getNextNonce",
			"outputs": [
				{
					"internalType": "uint256",
					"name": "",
					"type": "uint256"
				}
			],
			"stateMutability": "view",
			"type": "function"
		},
		{
			"inputs": [],
			"name": "getPausedState",
			"outputs": [
				{
					"internalType": "bool",
					"name": "paused",
					"type": "bool"
				},
				{
					"internalType": "uint256",
					"name": "pauseWindowEndTime",
					"type": "uint256"
				},
				{
					"internalType": "uint256",
					"name": "bufferPeriodEndTime",
					"type": "uint256"
				}
			],
			"stateMutability": "view",
			"type": "function"
		},
		{
			"inputs": [
				{
					"internalType": "bytes32",
					"name": "poolId",
					"type": "bytes32"
				}
			],
			"name": "getPool",
			"outputs": [
				{
					"internalType": "address",
					"name": "",
					"type": "address"
				},
				{
					"internalType": "enum IVault.PoolSpecialization",
					"name": "",
					"type": "uint8"
				}
			],
			"stateMutability": "view",
			"type": "function"
		},
		{
			"inputs": [
				{
					"internalType": "bytes32",
					"name": "poolId",
					"type": "bytes32"
				},
				{
					"internalType": "contract IERC20",
					"name": "token",
					"type": "address"
				}
			],
			"name": "getPoolTokenInfo",
			"outputs": [
				{
					"internalType": "uint256",
					"name": "cash",
					"type": "uint256"
				},
				{
					"internalType": "uint256",
					"name": "managed",
					"type": "uint256"
				},
				{
					"internalType": "uint256",
					"name": "lastChangeBlock",
					"type": "uint256"
				},
				{
					"internalType": "address",
					"name": "assetManager",
					"type": "address"
				}
			],
			"stateMutability": "view",
			"type": "function"
		},
		{
			"inputs": [
				{
					"internalType": "bytes32",
					"name": "poolId",
					"type": "bytes32"
				}
			],
			"name": "getPoolTokens",
			"outputs": [
				{
					"internalType": "contract IERC20[]",
					"name": "tokens",
					"type": "address[]"
				},
				{
					"internalType": "uint256[]",
					"name": "balances",
					"type": "uint256[]"
				},
				{
					"internalType": "uint256",
					"name": "lastChangeBlock",
					"type": "uint256"
				}
			],
			"stateMutability": "view",
			"type": "function"
		},
		{
			"inputs": [],
			"name": "getProtocolFeesCollector",
			"outputs": [
				{
					"internalType": "contract IProtocolFeesCollector",
					"name": "",
					"type": "address"
				}
			],
			"stateMutability": "view",
			"type": "function"
		},
		{
			"inputs": [
				{
					"internalType": "address",
					"name": "user",
					"type": "address"
				},
				{
					"internalType": "address",
					"name": "relayer",
					"type": "address"
				}
			],
			"name": "hasApprovedRelayer",
			"outputs": [
				{
					"internalType": "bool",
					"name": "",
					"type": "bool"
				}
			],
			"stateMutability": "view",
			"type": "function"
		},
		{
			"inputs": [
				{
					"internalType": "bytes32",
					"name": "poolId",
					"type": "bytes32"
				},
				{
					"internalType": "address",
					"name": "sender",
					"type": "address"
				},
				{
					"internalType": "address",
					"name": "recipient",
					"type": "address"
				},
				{
					"components": [
						{
							"internalType": "contract IAsset[]",
							"name": "assets",
							"type": "address[]"
						},
						{
							"internalType": "uint256[]",
							"name": "maxAmountsIn",
							"type": "uint256[]"
						},
						{
							"internalType": "bytes",
							"name": "userData",
							"type": "bytes"
						},
						{
							"internalType": "bool",
							"name": "fromInternalBalance",
							"type": "bool"
						}
					],
					"internalType": "struct IVault.JoinPoolRequest",
					"name": "request",
					"type": "tuple"
				}
			],
			"name": "joinPool",
			"outputs": [],
			"stateMutability": "payable",
			"type": "function"
		},
		{
			"inputs": [
				{
					"components": [
						{
							"internalType": "enum IVault.PoolBalanceOpKind",
							"name": "kind",
							"type": "uint8"
						},
						{
							"internalType": "bytes32",
							"name": "poolId",
							"type": "bytes32"
						},
						{
							"internalType": "contract IERC20",
							"name": "token",
							"type": "address"
						},
						{
							"internalType": "uint256",
							"name": "amount",
							"type": "uint256"
						}
					],
					"internalType": "struct IVault.PoolBalanceOp[]",
					"name": "ops",
					"type": "tuple[]"
				}
			],
			"name": "managePoolBalance",
			"outputs": [],
			"stateMutability": "nonpayable",
			"type": "function"
		},
		{
			"inputs": [
				{
					"components": [
						{
							"internalType": "enum IVault.UserBalanceOpKind",
							"name": "kind",
							"type": "uint8"
						},
						{
							"internalType": "contract IAsset",
							"name": "asset",
							"type": "address"
						},
						{
							"internalType": "uint256",
							"name": "amount",
							"type": "uint256"
						},
						{
							"internalType": "address",
							"name": "sender",
							"type": "address"
						},
						{
							"internalType": "address payable",
							"name": "recipient",
							"type": "address"
						}
					],
					"internalType": "struct IVault.UserBalanceOp[]",
					"name": "ops",
					"type": "tuple[]"
				}
			],
			"name": "manageUserBalance",
			"outputs": [],
			"stateMutability": "payable",
			"type": "function"
		},
		{
			"inputs": [
				{
					"internalType": "enum IVault.SwapKind",
					"name": "kind",
					"type": "uint8"
				},
				{
					"components": [
						{
							"internalType": "bytes32",
							"name": "poolId",
							"type": "bytes32"
						},
						{
							"internalType": "uint256",
							"name": "assetInIndex",
							"type": "uint256"
						},
						{
							"internalType": "uint256",
							"name": "assetOutIndex",
							"type": "uint256"
						},
						{
							"internalType": "uint256",
							"name": "amount",
							"type": "uint256"
						},
						{
							"internalType": "bytes",
							"name": "userData",
							"type": "bytes"
						}
					],
					"internalType": "struct IVault.BatchSwapStep[]",
					"name": "swaps",
					"type": "tuple[]"
				},
				{
					"internalType": "contract IAsset[]",
					"name": "assets",
					"type": "address[]"
				},
				{
					"components": [
						{
							"internalType": "address",
							"name": "sender",
							"type": "address"
						},
						{
							"internalType": "bool",
							"name": "fromInternalBalance",
							"type": "bool"
						},
						{
							"internalType": "address payable",
							"name": "recipient",
							"type": "address"
						},
						{
							"internalType": "bool",
							"name": "toInternalBalance",
							"type": "bool"
						}
					],
					"internalType": "struct IVault.FundManagement",
					"name": "funds",
					"type": "tuple"
				}
			],
			"name": "queryBatchSwap",
			"outputs": [
				{
					"internalType": "int256[]",
					"name": "",
					"type": "int256[]"
				}
			],
			"stateMutability": "nonpayable",
			"type": "function"
		},
		{
			"inputs": [
				{
					"internalType": "enum IVault.PoolSpecialization",
					"name": "specialization",
					"type": "uint8"
				}
			],
			"name": "registerPool",
			"outputs": [
				{
					"internalType": "bytes32",
					"name": "",
					"type": "bytes32"
				}
			],
			"stateMutability": "nonpayable",
			"type": "function"
		},
		{
			"inputs": [
				{
					"internalType": "bytes32",
					"name": "poolId",
					"type": "bytes32"
				},
				{
					"internalType": "contract IERC20[]",
					"name": "tokens",
					"type": "address[]"
				},
				{
					"internalType": "address[]",
					"name": "assetManagers",
					"type": "address[]"
				}
			],
			"name": "registerTokens",
			"outputs": [],
			"stateMutability": "nonpayable",
			"type": "function"
		},
		{
			"inputs": [
				{
					"internalType": "contract IAuthorizer",
					"name": "newAuthorizer",
					"type": "address"
				}
			],
			"name": "setAuthorizer",
			"outputs": [],
			"stateMutability": "nonpayable",
			"type": "function"
		},
		{
			"inputs": [
				{
					"internalType": "bool",
					"name": "paused",
					"type": "bool"
				}
			],
			"name": "setPaused",
			"outputs": [],
			"stateMutability": "nonpayable",
			"type": "function"
		},
		{
			"inputs": [
				{
					"internalType": "address",
					"name": "sender",
					"type": "address"
				},
				{
					"internalType": "address",
					"name": "relayer",
					"type": "address"
				},
				{
					"internalType": "bool",
					"name": "approved",
					"type": "bool"
				}
			],
			"name": "setRelayerApproval",
			"outputs": [],
			"stateMutability": "nonpayable",
			"type": "function"
		},
		{
			"inputs": [
				{
					"components": [
						{
							"internalType": "bytes32",
							"name": "poolId",
							"type": "bytes32"
						},
						{
							"internalType": "enum IVault.SwapKind",
							"name": "kind",
							"type": "uint8"
						},
						{
							"internalType": "contract IAsset",
							"name": "assetIn",
							"type": "address"
						},
						{
							"internalType": "contract IAsset",
							"name": "assetOut",
							"type": "address"
						},
						{
							"internalType": "uint256",
							"name": "amount",
							"type": "uint256"
						},
						{
							"internalType": "bytes",
							"name": "userData",
							"type": "bytes"
						}
					],
					"internalType": "struct IVault.SingleSwap",
					"name": "singleSwap",
					"type": "tuple"
				},
				{
					"components": [
						{
							"internalType": "address",
							"name": "sender",
							"type": "address"
						},
						{
							"internalType": "bool",
							"name": "fromInternalBalance",
							"type": "bool"
						},
						{
							"internalType": "address payable",
							"name": "recipient",
							"type": "address"
						},
						{
							"internalType": "bool",
							"name": "toInternalBalance",
							"type": "bool"
						}
					],
					"internalType": "struct IVault.FundManagement",
					"name": "funds",
					"type": "tuple"
				},
				{
					"internalType": "uint256",
					"name": "limit",
					"type": "uint256"
				},
				{
					"internalType": "uint256",
					"name": "deadline",
					"type": "uint256"
				}
			],
			"name": "swap",
			"outputs": [
				{
					"internalType": "uint256",
					"name": "amountCalculated",
					"type": "uint256"
				}
			],
			"stateMutability": "payable",
			"type": "function"
		},
		{
			"stateMutability": "payable",
			"type": "receive"
		}
	]
}