{
  "_format": "hh-sol-artifact-1",
  "contractName": "FactoryWidePauseWindow",
  "sourceName": "contracts/libraries/factories/FactoryWidePauseWindow.sol",
  "abi": [
    {
      "inputs": [],
      "stateMutability": "nonpayable",
      "type": "constructor"
    },
    {
      "inputs": [],
      "name": "getPauseConfiguration",
      "outputs": [
        {
          "internalType": "uint256",
          "name": "pauseWindowDuration",
          "type": "uint256"
        },
        {
          "internalType": "uint256",
          "name": "bufferPeriodDuration",
          "type": "uint256"
        }
      ],
      "stateMutability": "view",
      "type": "function"
    }
  ],
  "bytecode": "0x60a060405234801561001057600080fd5b5061001e6276a70042610026565b60805261004c565b6000821982111561004757634e487b7160e01b600052601160045260246000fd5b500190565b60805161011061006c6000396000818160520152607c01526101106000f3fe6080604052348015600f57600080fd5b506004361060285760003560e01c80632da47c4014602d575b600080fd5b6033604c565b6040805192835260208301919091520160405180910390f35b600080427f000000000000000000000000000000000000000000000000000000000000000081101560ab57609f817f000000000000000000000000000000000000000000000000000000000000000060b6565b9362278d009350915050565b506000928392509050565b60008282101560d557634e487b7160e01b600052601160045260246000fd5b50039056fea2646970667358221220ff067f253a8a9d8c24195856942f1d4dea7ac2c2531b78dd0cea038505e51ea864736f6c634300080a0033",
  "linkReferences": {},
  "deployedLinkReferences": {}
}