{
  "_format": "hh-sol-artifact-1",
  "contractName": "MockFlashLoanRecipient",
  "sourceName": "contracts/test/vault/MockFlashLoanRecipient.sol",
  "abi": [
    {
      "inputs": [
        {
          "internalType": "address",
          "name": "_vault",
          "type": "address"
        }
      ],
      "stateMutability": "nonpayable",
      "type": "constructor"
    },
    {
      "inputs": [
        {
          "internalType": "contract IERC20[]",
          "name": "tokens",
          "type": "address[]"
        },
        {
          "internalType": "uint256[]",
          "name": "amounts",
          "type": "uint256[]"
        },
        {
          "internalType": "uint256[]",
          "name": "feeAmounts",
          "type": "uint256[]"
        },
        {
          "internalType": "bytes",
          "name": "userData",
          "type": "bytes"
        }
      ],
      "name": "receiveFlashLoan",
      "outputs": [],
      "stateMutability": "nonpayable",
      "type": "function"
    },
    {
      "inputs": [],
      "name": "reenter",
      "outputs": [
        {
          "internalType": "bool",
          "name": "",
          "type": "bool"
        }
      ],
      "stateMutability": "view",
      "type": "function"
    },
    {
      "inputs": [],
      "name": "repayInExcess",
      "outputs": [
        {
          "internalType": "bool",
          "name": "",
          "type": "bool"
        }
      ],
      "stateMutability": "view",
      "type": "function"
    },
    {
      "inputs": [],
      "name": "repayLoan",
      "outputs": [
        {
          "internalType": "bool",
          "name": "",
          "type": "bool"
        }
      ],
      "stateMutability": "view",
      "type": "function"
    },
    {
      "inputs": [
        {
          "internalType": "bool",
          "name": "_reenter",
          "type": "bool"
        }
      ],
      "name": "setReenter",
      "outputs": [],
      "stateMutability": "nonpayable",
      "type": "function"
    },
    {
      "inputs": [
        {
          "internalType": "bool",
          "name": "_repayInExcess",
          "type": "bool"
        }
      ],
      "name": "setRepayInExcess",
      "outputs": [],
      "stateMutability": "nonpayable",
      "type": "function"
    },
    {
      "inputs": [
        {
          "internalType": "bool",
          "name": "_repayLoan",
          "type": "bool"
        }
      ],
      "name": "setRepayLoan",
      "outputs": [],
      "stateMutability": "nonpayable",
      "type": "function"
    },
    {
      "inputs": [],
      "name": "vault",
      "outputs": [
        {
          "internalType": "address",
          "name": "",
          "type": "address"
        }
      ],
      "stateMutability": "view",
      "type": "function"
    }
  ],
  "bytecode": "0x60a060405234801561001057600080fd5b50604051610afc380380610afc83398101604081905261002f9161004f565b6001600160a01b03166080526000805462ffffff1916600117905561007f565b60006020828403121561006157600080fd5b81516001600160a01b038116811461007857600080fd5b9392505050565b608051610a5b6100a16000396000818161016101526104290152610a5b6000f3fe608060405234801561001057600080fd5b50600436106100885760003560e01c8063b77f3a231161005b578063b77f3a2314610114578063f04f27071461013c578063f966ade71461014f578063fbfa77cf1461015c57600080fd5b80633207ce3c1461008d57806362a82399146100b4578063a0fe97e3146100d7578063a6af1703146100ea575b600080fd5b60005461009f90610100900460ff1681565b60405190151581526020015b60405180910390f35b6100d56100c23660046105dc565b6000805460ff1916911515919091179055565b005b60005461009f9062010000900460ff1681565b6100d56100f83660046105dc565b60008054911515620100000262ff000019909216919091179055565b6100d56101223660046105dc565b600080549115156101000261ff0019909216919091179055565b6100d561014a366004610746565b61019b565b60005461009f9060ff1681565b6101837f000000000000000000000000000000000000000000000000000000000000000081565b6040516001600160a01b0390911681526020016100ab565b60005b84518110156104635760008582815181106101bb576101bb61085e565b6020026020010151905060008583815181106101d9576101d961085e565b6020026020010151905060008584815181106101f7576101f761085e565b60209081029190910101516040516370a0823160e01b815230600482015290915082906001600160a01b038516906370a082319060240160206040518083038186803b15801561024657600080fd5b505afa15801561025a573d6000803e3d6000fd5b505050506040513d601f19601f8201168201806040525081019061027e9190610874565b146102cf5760405162461bcd60e51b815260206004820152601960248201527f494e56414c49445f464c4153484c4f414e5f42414c414e434500000000000000604482015260640160405180910390fd5b60005462010000900460ff161561033c57604051632e1c224f60e11b81523390635c38449e906103099030908c908c908b906004016108e5565b600060405180830381600087803b15801561032357600080fd5b505af1158015610337573d6000803e3d6000fd5b505050505b826001600160a01b03166340c10f1930600060019054906101000a900460ff166103665783610371565b6103718460016109a2565b6040516001600160e01b031960e085901b1681526001600160a01b0390921660048301526024820152604401600060405180830381600087803b1580156103b757600080fd5b505af11580156103cb573d6000803e3d6000fd5b50505050600081836103dd91906109a2565b60005490915060ff166103fc576103f56001826109ba565b905061041a565b600054610100900460ff161561041a576104178160016109a2565b90505b61044e6001600160a01b0385167f00000000000000000000000000000000000000000000000000000000000000008361046a565b505050508061045c906109d1565b905061019e565b5050505050565b604080516001600160a01b038416602482015260448082018490528251808303909101815260649091019091526020810180516001600160e01b031663a9059cbb60e01b1790526104bc9084906104c1565b505050565b600080836001600160a01b0316836040516104dc91906109ec565b6000604051808303816000865af19150503d8060008114610519576040519150601f19603f3d011682016040523d82523d6000602084013e61051e565b606091505b50915091506000821415610536573d6000803e3d6000fd5b6105608151600014806105585750818060200190518101906105589190610a08565b6101a2610566565b50505050565b816105745761057481610578565b5050565b62461bcd60e51b6000908152602060045260076024526642414c23000030600a808404818106603090810160081b95839006959095019082900491820690940160101b939093010160c81b604452606490fd5b80151581146105d957600080fd5b50565b6000602082840312156105ee57600080fd5b81356105f9816105cb565b9392505050565b634e487b7160e01b600052604160045260246000fd5b604051601f8201601f1916810167ffffffffffffffff8111828210171561063f5761063f610600565b604052919050565b600067ffffffffffffffff82111561066157610661610600565b5060051b60200190565b600082601f83011261067c57600080fd5b8135602061069161068c83610647565b610616565b82815260059290921b840181019181810190868411156106b057600080fd5b8286015b848110156106cb57803583529183019183016106b4565b509695505050505050565b600082601f8301126106e757600080fd5b813567ffffffffffffffff81111561070157610701610600565b610714601f8201601f1916602001610616565b81815284602083860101111561072957600080fd5b816020850160208301376000918101602001919091529392505050565b6000806000806080858703121561075c57600080fd5b843567ffffffffffffffff8082111561077457600080fd5b818701915087601f83011261078857600080fd5b8135602061079861068c83610647565b82815260059290921b8401810191818101908b8411156107b757600080fd5b948201945b838610156107eb5785356001600160a01b03811681146107dc5760008081fd5b825294820194908201906107bc565b9850508801359250508082111561080157600080fd5b61080d8883890161066b565b9450604087013591508082111561082357600080fd5b61082f8883890161066b565b9350606087013591508082111561084557600080fd5b50610852878288016106d6565b91505092959194509250565b634e487b7160e01b600052603260045260246000fd5b60006020828403121561088657600080fd5b5051919050565b60005b838110156108a8578181015183820152602001610890565b838111156105605750506000910152565b600081518084526108d181602086016020860161088d565b601f01601f19169290920160200192915050565b6001600160a01b0385811682526080602080840182905286519184018290526000928782019290919060a0860190855b81811015610933578551851683529483019491830191600101610915565b5050858103604087015287518082529082019350915080870160005b8381101561096b5781518552938201939082019060010161094f565b50505050828103606084015261098181856108b9565b979650505050505050565b634e487b7160e01b600052601160045260246000fd5b600082198211156109b5576109b561098c565b500190565b6000828210156109cc576109cc61098c565b500390565b60006000198214156109e5576109e561098c565b5060010190565b600082516109fe81846020870161088d565b9190910192915050565b600060208284031215610a1a57600080fd5b81516105f9816105cb56fea2646970667358221220f7cd3de916b132537d1ef9c6f24b50282f3945fdd0640f00d715d93bae27d0b064736f6c63430008090033",
  "linkReferences": {},
  "deployedLinkReferences": {}
}