{
  "_format": "hh-sol-artifact-1",
  "contractName": "WeightedPool2Tokens",
  "sourceName": "contracts/WeightedPool2Tokens.sol",
  "abi": [
    {
      "inputs": [
        {
          "components": [
            {
              "internalType": "contract IVault",
              "name": "vault",
              "type": "address"
            },
            {
              "internalType": "string",
              "name": "name",
              "type": "string"
            },
            {
              "internalType": "string",
              "name": "symbol",
              "type": "string"
            },
            {
              "internalType": "contract IERC20",
              "name": "token0",
              "type": "address"
            },
            {
              "internalType": "contract IERC20",
              "name": "token1",
              "type": "address"
            },
            {
              "internalType": "uint256",
              "name": "normalizedWeight0",
              "type": "uint256"
            },
            {
              "internalType": "uint256",
              "name": "normalizedWeight1",
              "type": "uint256"
            },
            {
              "internalType": "uint256",
              "name": "swapFeePercentage",
              "type": "uint256"
            },
            {
              "internalType": "uint256",
              "name": "pauseWindowDuration",
              "type": "uint256"
            },
            {
              "internalType": "uint256",
              "name": "bufferPeriodDuration",
              "type": "uint256"
            },
            {
              "internalType": "bool",
              "name": "oracleEnabled",
              "type": "bool"
            },
            {
              "internalType": "address",
              "name": "owner",
              "type": "address"
            }
          ],
          "internalType": "struct WeightedPool2Tokens.NewPoolParams",
          "name": "params",
          "type": "tuple"
        }
      ],
      "stateMutability": "nonpayable",
      "type": "constructor"
    },
    {
      "anonymous": false,
      "inputs": [
        {
          "indexed": true,
          "internalType": "address",
          "name": "owner",
          "type": "address"
        },
        {
          "indexed": true,
          "internalType": "address",
          "name": "spender",
          "type": "address"
        },
        {
          "indexed": false,
          "internalType": "uint256",
          "name": "value",
          "type": "uint256"
        }
      ],
      "name": "Approval",
      "type": "event"
    },
    {
      "anonymous": false,
      "inputs": [
        {
          "indexed": false,
          "internalType": "bool",
          "name": "enabled",
          "type": "bool"
        }
      ],
      "name": "OracleEnabledChanged",
      "type": "event"
    },
    {
      "anonymous": false,
      "inputs": [
        {
          "indexed": false,
          "internalType": "bool",
          "name": "paused",
          "type": "bool"
        }
      ],
      "name": "PausedStateChanged",
      "type": "event"
    },
    {
      "anonymous": false,
      "inputs": [
        {
          "indexed": false,
          "internalType": "uint256",
          "name": "swapFeePercentage",
          "type": "uint256"
        }
      ],
      "name": "SwapFeePercentageChanged",
      "type": "event"
    },
    {
      "anonymous": false,
      "inputs": [
        {
          "indexed": true,
          "internalType": "address",
          "name": "from",
          "type": "address"
        },
        {
          "indexed": true,
          "internalType": "address",
          "name": "to",
          "type": "address"
        },
        {
          "indexed": false,
          "internalType": "uint256",
          "name": "value",
          "type": "uint256"
        }
      ],
      "name": "Transfer",
      "type": "event"
    },
    {
      "inputs": [],
      "name": "DOMAIN_SEPARATOR",
      "outputs": [
        {
          "internalType": "bytes32",
          "name": "",
          "type": "bytes32"
        }
      ],
      "stateMutability": "view",
      "type": "function"
    },
    {
      "inputs": [
        {
          "internalType": "address",
          "name": "owner",
          "type": "address"
        },
        {
          "internalType": "address",
          "name": "spender",
          "type": "address"
        }
      ],
      "name": "allowance",
      "outputs": [
        {
          "internalType": "uint256",
          "name": "",
          "type": "uint256"
        }
      ],
      "stateMutability": "view",
      "type": "function"
    },
    {
      "inputs": [
        {
          "internalType": "address",
          "name": "spender",
          "type": "address"
        },
        {
          "internalType": "uint256",
          "name": "amount",
          "type": "uint256"
        }
      ],
      "name": "approve",
      "outputs": [
        {
          "internalType": "bool",
          "name": "",
          "type": "bool"
        }
      ],
      "stateMutability": "nonpayable",
      "type": "function"
    },
    {
      "inputs": [
        {
          "internalType": "address",
          "name": "account",
          "type": "address"
        }
      ],
      "name": "balanceOf",
      "outputs": [
        {
          "internalType": "uint256",
          "name": "",
          "type": "uint256"
        }
      ],
      "stateMutability": "view",
      "type": "function"
    },
    {
      "inputs": [],
      "name": "decimals",
      "outputs": [
        {
          "internalType": "uint8",
          "name": "",
          "type": "uint8"
        }
      ],
      "stateMutability": "view",
      "type": "function"
    },
    {
      "inputs": [
        {
          "internalType": "address",
          "name": "spender",
          "type": "address"
        },
        {
          "internalType": "uint256",
          "name": "amount",
          "type": "uint256"
        }
      ],
      "name": "decreaseAllowance",
      "outputs": [
        {
          "internalType": "bool",
          "name": "",
          "type": "bool"
        }
      ],
      "stateMutability": "nonpayable",
      "type": "function"
    },
    {
      "inputs": [
        {
          "internalType": "uint256",
          "name": "startIndex",
          "type": "uint256"
        },
        {
          "internalType": "uint256",
          "name": "endIndex",
          "type": "uint256"
        }
      ],
      "name": "dirtyUninitializedOracleSamples",
      "outputs": [],
      "stateMutability": "nonpayable",
      "type": "function"
    },
    {
      "inputs": [],
      "name": "enableOracle",
      "outputs": [],
      "stateMutability": "nonpayable",
      "type": "function"
    },
    {
      "inputs": [
        {
          "internalType": "bytes4",
          "name": "selector",
          "type": "bytes4"
        }
      ],
      "name": "getActionId",
      "outputs": [
        {
          "internalType": "bytes32",
          "name": "",
          "type": "bytes32"
        }
      ],
      "stateMutability": "view",
      "type": "function"
    },
    {
      "inputs": [],
      "name": "getAuthorizer",
      "outputs": [
        {
          "internalType": "contract IAuthorizer",
          "name": "",
          "type": "address"
        }
      ],
      "stateMutability": "view",
      "type": "function"
    },
    {
      "inputs": [],
      "name": "getInvariant",
      "outputs": [
        {
          "internalType": "uint256",
          "name": "",
          "type": "uint256"
        }
      ],
      "stateMutability": "view",
      "type": "function"
    },
    {
      "inputs": [],
      "name": "getLargestSafeQueryWindow",
      "outputs": [
        {
          "internalType": "uint256",
          "name": "",
          "type": "uint256"
        }
      ],
      "stateMutability": "pure",
      "type": "function"
    },
    {
      "inputs": [],
      "name": "getLastInvariant",
      "outputs": [
        {
          "internalType": "uint256",
          "name": "",
          "type": "uint256"
        }
      ],
      "stateMutability": "view",
      "type": "function"
    },
    {
      "inputs": [
        {
          "internalType": "enum IPriceOracle.Variable",
          "name": "variable",
          "type": "uint8"
        }
      ],
      "name": "getLatest",
      "outputs": [
        {
          "internalType": "uint256",
          "name": "",
          "type": "uint256"
        }
      ],
      "stateMutability": "view",
      "type": "function"
    },
    {
      "inputs": [],
      "name": "getMiscData",
      "outputs": [
        {
          "internalType": "int256",
          "name": "logInvariant",
          "type": "int256"
        },
        {
          "internalType": "int256",
          "name": "logTotalSupply",
          "type": "int256"
        },
        {
          "internalType": "uint256",
          "name": "oracleSampleCreationTimestamp",
          "type": "uint256"
        },
        {
          "internalType": "uint256",
          "name": "oracleIndex",
          "type": "uint256"
        },
        {
          "internalType": "bool",
          "name": "oracleEnabled",
          "type": "bool"
        },
        {
          "internalType": "uint256",
          "name": "swapFeePercentage",
          "type": "uint256"
        }
      ],
      "stateMutability": "view",
      "type": "function"
    },
    {
      "inputs": [],
      "name": "getNormalizedWeights",
      "outputs": [
        {
          "internalType": "uint256[]",
          "name": "",
          "type": "uint256[]"
        }
      ],
      "stateMutability": "view",
      "type": "function"
    },
    {
      "inputs": [],
      "name": "getOwner",
      "outputs": [
        {
          "internalType": "address",
          "name": "",
          "type": "address"
        }
      ],
      "stateMutability": "view",
      "type": "function"
    },
    {
      "inputs": [
        {
          "components": [
            {
              "internalType": "enum IPriceOracle.Variable",
              "name": "variable",
              "type": "uint8"
            },
            {
              "internalType": "uint256",
              "name": "ago",
              "type": "uint256"
            }
          ],
          "internalType": "struct IPriceOracle.OracleAccumulatorQuery[]",
          "name": "queries",
          "type": "tuple[]"
        }
      ],
      "name": "getPastAccumulators",
      "outputs": [
        {
          "internalType": "int256[]",
          "name": "results",
          "type": "int256[]"
        }
      ],
      "stateMutability": "view",
      "type": "function"
    },
    {
      "inputs": [],
      "name": "getPausedState",
      "outputs": [
        {
          "internalType": "bool",
          "name": "paused",
          "type": "bool"
        },
        {
          "internalType": "uint256",
          "name": "pauseWindowEndTime",
          "type": "uint256"
        },
        {
          "internalType": "uint256",
          "name": "bufferPeriodEndTime",
          "type": "uint256"
        }
      ],
      "stateMutability": "view",
      "type": "function"
    },
    {
      "inputs": [],
      "name": "getPoolId",
      "outputs": [
        {
          "internalType": "bytes32",
          "name": "",
          "type": "bytes32"
        }
      ],
      "stateMutability": "view",
      "type": "function"
    },
    {
      "inputs": [],
      "name": "getRate",
      "outputs": [
        {
          "internalType": "uint256",
          "name": "",
          "type": "uint256"
        }
      ],
      "stateMutability": "view",
      "type": "function"
    },
    {
      "inputs": [
        {
          "internalType": "uint256",
          "name": "index",
          "type": "uint256"
        }
      ],
      "name": "getSample",
      "outputs": [
        {
          "internalType": "int256",
          "name": "logPairPrice",
          "type": "int256"
        },
        {
          "internalType": "int256",
          "name": "accLogPairPrice",
          "type": "int256"
        },
        {
          "internalType": "int256",
          "name": "logBptPrice",
          "type": "int256"
        },
        {
          "internalType": "int256",
          "name": "accLogBptPrice",
          "type": "int256"
        },
        {
          "internalType": "int256",
          "name": "logInvariant",
          "type": "int256"
        },
        {
          "internalType": "int256",
          "name": "accLogInvariant",
          "type": "int256"
        },
        {
          "internalType": "uint256",
          "name": "timestamp",
          "type": "uint256"
        }
      ],
      "stateMutability": "view",
      "type": "function"
    },
    {
      "inputs": [],
      "name": "getSwapFeePercentage",
      "outputs": [
        {
          "internalType": "uint256",
          "name": "",
          "type": "uint256"
        }
      ],
      "stateMutability": "view",
      "type": "function"
    },
    {
      "inputs": [
        {
          "components": [
            {
              "internalType": "enum IPriceOracle.Variable",
              "name": "variable",
              "type": "uint8"
            },
            {
              "internalType": "uint256",
              "name": "secs",
              "type": "uint256"
            },
            {
              "internalType": "uint256",
              "name": "ago",
              "type": "uint256"
            }
          ],
          "internalType": "struct IPriceOracle.OracleAverageQuery[]",
          "name": "queries",
          "type": "tuple[]"
        }
      ],
      "name": "getTimeWeightedAverage",
      "outputs": [
        {
          "internalType": "uint256[]",
          "name": "results",
          "type": "uint256[]"
        }
      ],
      "stateMutability": "view",
      "type": "function"
    },
    {
      "inputs": [],
      "name": "getTotalSamples",
      "outputs": [
        {
          "internalType": "uint256",
          "name": "",
          "type": "uint256"
        }
      ],
      "stateMutability": "pure",
      "type": "function"
    },
    {
      "inputs": [],
      "name": "getVault",
      "outputs": [
        {
          "internalType": "contract IVault",
          "name": "",
          "type": "address"
        }
      ],
      "stateMutability": "view",
      "type": "function"
    },
    {
      "inputs": [
        {
          "internalType": "address",
          "name": "spender",
          "type": "address"
        },
        {
          "internalType": "uint256",
          "name": "addedValue",
          "type": "uint256"
        }
      ],
      "name": "increaseAllowance",
      "outputs": [
        {
          "internalType": "bool",
          "name": "",
          "type": "bool"
        }
      ],
      "stateMutability": "nonpayable",
      "type": "function"
    },
    {
      "inputs": [],
      "name": "name",
      "outputs": [
        {
          "internalType": "string",
          "name": "",
          "type": "string"
        }
      ],
      "stateMutability": "view",
      "type": "function"
    },
    {
      "inputs": [
        {
          "internalType": "address",
          "name": "owner",
          "type": "address"
        }
      ],
      "name": "nonces",
      "outputs": [
        {
          "internalType": "uint256",
          "name": "",
          "type": "uint256"
        }
      ],
      "stateMutability": "view",
      "type": "function"
    },
    {
      "inputs": [
        {
          "internalType": "bytes32",
          "name": "poolId",
          "type": "bytes32"
        },
        {
          "internalType": "address",
          "name": "sender",
          "type": "address"
        },
        {
          "internalType": "address",
          "name": "recipient",
          "type": "address"
        },
        {
          "internalType": "uint256[]",
          "name": "balances",
          "type": "uint256[]"
        },
        {
          "internalType": "uint256",
          "name": "lastChangeBlock",
          "type": "uint256"
        },
        {
          "internalType": "uint256",
          "name": "protocolSwapFeePercentage",
          "type": "uint256"
        },
        {
          "internalType": "bytes",
          "name": "userData",
          "type": "bytes"
        }
      ],
      "name": "onExitPool",
      "outputs": [
        {
          "internalType": "uint256[]",
          "name": "",
          "type": "uint256[]"
        },
        {
          "internalType": "uint256[]",
          "name": "",
          "type": "uint256[]"
        }
      ],
      "stateMutability": "nonpayable",
      "type": "function"
    },
    {
      "inputs": [
        {
          "internalType": "bytes32",
          "name": "poolId",
          "type": "bytes32"
        },
        {
          "internalType": "address",
          "name": "sender",
          "type": "address"
        },
        {
          "internalType": "address",
          "name": "recipient",
          "type": "address"
        },
        {
          "internalType": "uint256[]",
          "name": "balances",
          "type": "uint256[]"
        },
        {
          "internalType": "uint256",
          "name": "lastChangeBlock",
          "type": "uint256"
        },
        {
          "internalType": "uint256",
          "name": "protocolSwapFeePercentage",
          "type": "uint256"
        },
        {
          "internalType": "bytes",
          "name": "userData",
          "type": "bytes"
        }
      ],
      "name": "onJoinPool",
      "outputs": [
        {
          "internalType": "uint256[]",
          "name": "amountsIn",
          "type": "uint256[]"
        },
        {
          "internalType": "uint256[]",
          "name": "dueProtocolFeeAmounts",
          "type": "uint256[]"
        }
      ],
      "stateMutability": "nonpayable",
      "type": "function"
    },
    {
      "inputs": [
        {
          "components": [
            {
              "internalType": "enum IVault.SwapKind",
              "name": "kind",
              "type": "uint8"
            },
            {
              "internalType": "contract IERC20",
              "name": "tokenIn",
              "type": "address"
            },
            {
              "internalType": "contract IERC20",
              "name": "tokenOut",
              "type": "address"
            },
            {
              "internalType": "uint256",
              "name": "amount",
              "type": "uint256"
            },
            {
              "internalType": "bytes32",
              "name": "poolId",
              "type": "bytes32"
            },
            {
              "internalType": "uint256",
              "name": "lastChangeBlock",
              "type": "uint256"
            },
            {
              "internalType": "address",
              "name": "from",
              "type": "address"
            },
            {
              "internalType": "address",
              "name": "to",
              "type": "address"
            },
            {
              "internalType": "bytes",
              "name": "userData",
              "type": "bytes"
            }
          ],
          "internalType": "struct IPoolSwapStructs.SwapRequest",
          "name": "request",
          "type": "tuple"
        },
        {
          "internalType": "uint256",
          "name": "balanceTokenIn",
          "type": "uint256"
        },
        {
          "internalType": "uint256",
          "name": "balanceTokenOut",
          "type": "uint256"
        }
      ],
      "name": "onSwap",
      "outputs": [
        {
          "internalType": "uint256",
          "name": "",
          "type": "uint256"
        }
      ],
      "stateMutability": "nonpayable",
      "type": "function"
    },
    {
      "inputs": [
        {
          "internalType": "address",
          "name": "owner",
          "type": "address"
        },
        {
          "internalType": "address",
          "name": "spender",
          "type": "address"
        },
        {
          "internalType": "uint256",
          "name": "value",
          "type": "uint256"
        },
        {
          "internalType": "uint256",
          "name": "deadline",
          "type": "uint256"
        },
        {
          "internalType": "uint8",
          "name": "v",
          "type": "uint8"
        },
        {
          "internalType": "bytes32",
          "name": "r",
          "type": "bytes32"
        },
        {
          "internalType": "bytes32",
          "name": "s",
          "type": "bytes32"
        }
      ],
      "name": "permit",
      "outputs": [],
      "stateMutability": "nonpayable",
      "type": "function"
    },
    {
      "inputs": [
        {
          "internalType": "bytes32",
          "name": "poolId",
          "type": "bytes32"
        },
        {
          "internalType": "address",
          "name": "sender",
          "type": "address"
        },
        {
          "internalType": "address",
          "name": "recipient",
          "type": "address"
        },
        {
          "internalType": "uint256[]",
          "name": "balances",
          "type": "uint256[]"
        },
        {
          "internalType": "uint256",
          "name": "lastChangeBlock",
          "type": "uint256"
        },
        {
          "internalType": "uint256",
          "name": "protocolSwapFeePercentage",
          "type": "uint256"
        },
        {
          "internalType": "bytes",
          "name": "userData",
          "type": "bytes"
        }
      ],
      "name": "queryExit",
      "outputs": [
        {
          "internalType": "uint256",
          "name": "bptIn",
          "type": "uint256"
        },
        {
          "internalType": "uint256[]",
          "name": "amountsOut",
          "type": "uint256[]"
        }
      ],
      "stateMutability": "nonpayable",
      "type": "function"
    },
    {
      "inputs": [
        {
          "internalType": "bytes32",
          "name": "poolId",
          "type": "bytes32"
        },
        {
          "internalType": "address",
          "name": "sender",
          "type": "address"
        },
        {
          "internalType": "address",
          "name": "recipient",
          "type": "address"
        },
        {
          "internalType": "uint256[]",
          "name": "balances",
          "type": "uint256[]"
        },
        {
          "internalType": "uint256",
          "name": "lastChangeBlock",
          "type": "uint256"
        },
        {
          "internalType": "uint256",
          "name": "protocolSwapFeePercentage",
          "type": "uint256"
        },
        {
          "internalType": "bytes",
          "name": "userData",
          "type": "bytes"
        }
      ],
      "name": "queryJoin",
      "outputs": [
        {
          "internalType": "uint256",
          "name": "bptOut",
          "type": "uint256"
        },
        {
          "internalType": "uint256[]",
          "name": "amountsIn",
          "type": "uint256[]"
        }
      ],
      "stateMutability": "nonpayable",
      "type": "function"
    },
    {
      "inputs": [
        {
          "internalType": "bool",
          "name": "paused",
          "type": "bool"
        }
      ],
      "name": "setPaused",
      "outputs": [],
      "stateMutability": "nonpayable",
      "type": "function"
    },
    {
      "inputs": [
        {
          "internalType": "uint256",
          "name": "swapFeePercentage",
          "type": "uint256"
        }
      ],
      "name": "setSwapFeePercentage",
      "outputs": [],
      "stateMutability": "nonpayable",
      "type": "function"
    },
    {
      "inputs": [],
      "name": "symbol",
      "outputs": [
        {
          "internalType": "string",
          "name": "",
          "type": "string"
        }
      ],
      "stateMutability": "view",
      "type": "function"
    },
    {
      "inputs": [],
      "name": "totalSupply",
      "outputs": [
        {
          "internalType": "uint256",
          "name": "",
          "type": "uint256"
        }
      ],
      "stateMutability": "view",
      "type": "function"
    },
    {
      "inputs": [
        {
          "internalType": "address",
          "name": "recipient",
          "type": "address"
        },
        {
          "internalType": "uint256",
          "name": "amount",
          "type": "uint256"
        }
      ],
      "name": "transfer",
      "outputs": [
        {
          "internalType": "bool",
          "name": "",
          "type": "bool"
        }
      ],
      "stateMutability": "nonpayable",
      "type": "function"
    },
    {
      "inputs": [
        {
          "internalType": "address",
          "name": "sender",
          "type": "address"
        },
        {
          "internalType": "address",
          "name": "recipient",
          "type": "address"
        },
        {
          "internalType": "uint256",
          "name": "amount",
          "type": "uint256"
        }
      ],
      "name": "transferFrom",
      "outputs": [
        {
          "internalType": "bool",
          "name": "",
          "type": "bool"
        }
      ],
      "stateMutability": "nonpayable",
      "type": "function"
    }
  ],
  "bytecode": "0x6102a06040527f6e71edae12b1b97f4d1f60370fef10105fa2faae0126114a169c64845d6126c9610120523480156200003757600080fd5b5060405162006bd238038062006bd28339810160408190526200005a91620008e4565b6101008101516101208201516020808401516040808601518651825180840190935260018352603160f81b838601526101608801513360601b6080526001600160a01b031660a05283519394919390928592839283918791620000c4916003919085019062000706565b508051620000da90600490602084019062000706565b50506005805460ff1916601217905550815160209283012060c052805191012060e052507f8b73c3c69bb8fe3d512ecc4cf759cc79239f7b179b0ffacaa9a75d522b39400f610100526001600160a01b031661014052506200014790506276a7008311156101946200044c565b6200015b62278d008211156101956200044c565b600062000169834262000a31565b61016081905290506200017d828262000a31565b61018052505050610140810151620001959062000461565b60e0810151620001a590620004b9565b80516040516309b2760f60e01b81526000916001600160a01b0316906309b2760f90620001d89060029060040162000a4c565b602060405180830381600087803b158015620001f357600080fd5b505af115801562000208573d6000803e3d6000fd5b505050506040513d601f19601f820116820180604052508101906200022e919062000a75565b60408051600280825260608201835292935060009290916020830190803683370190505090508260600151816000815181106200026f576200026f62000a8f565b60200260200101906001600160a01b031690816001600160a01b031681525050826080015181600181518110620002aa57620002aa62000a8f565b6001600160a01b0392831660209182029290920101528351166366a9c7d283836002604051908082528060200260200182016040528015620002f6578160200160208202803683370190505b506040518463ffffffff1660e01b8152600401620003179392919062000aa5565b600060405180830381600087803b1580156200033257600080fd5b505af115801562000347573d6000803e3d6000fd5b5050506101a0839052506060830180516001600160a01b039081166101c0526080850151166101e052516200037c9062000536565b610260526080830151620003909062000536565b6102805260a0830151620003b190662386f26fc10000111561012e6200044c565b620003d3662386f26fc100008460c00151101561012e6200044c60201b60201c565b6000620003f78460c001518560a00151620005d960201b620015391790919060201c565b905062000411670de0b6b3a764000082146101346200044c565b60a0840180516102005260c085018051610220525190511015620004375760016200043a565b60005b60ff16610240525062000cc892505050565b816200045d576200045d8162000637565b5050565b6200047d816009546200068a60201b6200158e1790919060201c565b60095560405181151581527f3e350b41e86a8e10f804ade6d35340d620be35569cc75ac943e8bb14ab80ead1906020015b60405180910390a150565b620004ce64e8d4a5100082101560cb6200044c565b620004e667016345785d8a000082111560ca6200044c565b6200050281600954620006a960201b6200159c1790919060201c565b6009556040518181527fa9ba3ffe0b6c366b81232caab38605a0699ad5398d6cce76f91ee809e322dafc90602001620004ae565b600080826001600160a01b031663313ce5676040518163ffffffff1660e01b815260040160206040518083038186803b1580156200057357600080fd5b505afa15801562000588573d6000803e3d6000fd5b505050506040513d601f19601f82011682018060405250810190620005ae919062000b41565b60ff1690506000620005c282601262000b66565b9050620005d181600a62000c7d565b949350505050565b600080620005e8838562000a31565b9050838110156200062e5760405162461bcd60e51b815260206004820152600c60248201526b4144445f4f564552464c4f5760a01b604482015260640160405180910390fd5b90505b92915050565b62461bcd60e51b6000908152602060045260076024526642414c23000030600a808404818106603090810160081b95839006959095019082900491820690940160101b939093010160c81b604452606490fd5b60006200062e82605585620006c860201b620015b8179092919060201c565b60006200062e82605685620006f160201b620015df179092919060201c565b60006001821b1984168284620006e0576000620006e3565b60015b60ff16901b17949350505050565b6001600160401b03811b1992909216911b1790565b828054620007149062000c8b565b90600052602060002090601f01602090048101928262000738576000855562000783565b82601f106200075357805160ff191683800117855562000783565b8280016001018555821562000783579182015b828111156200078357825182559160200191906001019062000766565b506200079192915062000795565b5090565b5b8082111562000791576000815560010162000796565b634e487b7160e01b600052604160045260246000fd5b60405161018081016001600160401b0381118282101715620007e857620007e8620007ac565b60405290565b604051601f8201601f191681016001600160401b0381118282101715620008195762000819620007ac565b604052919050565b80516001600160a01b03811681146200083957600080fd5b919050565b600082601f8301126200085057600080fd5b81516001600160401b038111156200086c576200086c620007ac565b602062000882601f8301601f19168201620007ee565b82815285828487010111156200089757600080fd5b60005b83811015620008b75785810183015182820184015282016200089a565b83811115620008c95760008385840101525b5095945050505050565b805180151581146200083957600080fd5b600060208284031215620008f757600080fd5b81516001600160401b03808211156200090f57600080fd5b9083019061018082860312156200092557600080fd5b6200092f620007c2565b6200093a8362000821565b81526020830151828111156200094f57600080fd5b6200095d878286016200083e565b6020830152506040830151828111156200097657600080fd5b62000984878286016200083e565b604083015250620009986060840162000821565b6060820152620009ab6080840162000821565b608082015260a0838101519082015260c0808401519082015260e08084015190820152610100808401519082015261012080840151908201526101409150620009f6828401620008d3565b82820152610160915062000a0c82840162000821565b91810191909152949350505050565b634e487b7160e01b600052601160045260246000fd5b6000821982111562000a475762000a4762000a1b565b500190565b602081016003831062000a6f57634e487b7160e01b600052602160045260246000fd5b91905290565b60006020828403121562000a8857600080fd5b5051919050565b634e487b7160e01b600052603260045260246000fd5b6000606082018583526020606081850152818651808452608086019150828801935060005b8181101562000af15784516001600160a01b03168352938301939183019160010162000aca565b50508481036040860152855180825290820192508186019060005b8181101562000b335782516001600160a01b03168552938301939183019160010162000b0c565b509298975050505050505050565b60006020828403121562000b5457600080fd5b815160ff811681146200062e57600080fd5b60008282101562000b7b5762000b7b62000a1b565b500390565b600181815b8085111562000bc157816000190482111562000ba55762000ba562000a1b565b8085161562000bb357918102915b93841c939080029062000b85565b509250929050565b60008262000bda5750600162000631565b8162000be95750600062000631565b816001811462000c02576002811462000c0d5762000c2d565b600191505062000631565b60ff84111562000c215762000c2162000a1b565b50506001821b62000631565b5060208310610133831016604e8410600b841016171562000c52575081810a62000631565b62000c5e838362000b80565b806000190482111562000c755762000c7562000a1b565b029392505050565b60006200062e838362000bc9565b600181811c9082168062000ca057607f821691505b6020821081141562000cc257634e487b7160e01b600052602260045260246000fd5b50919050565b60805160a05160c05160e05161010051610120516101405161016051610180516101a0516101c0516101e0516102005161022051610240516102605161028051615db862000e1a60003960006120ab015260006120d10152600081816129110152818161294b015261298d0152600081816120ff015261219b0152600081816121250152818161217901526121c90152600050506000610e7601526000818161036501528181610ce801528181610e4e015281816110fc0152611379015260008181610714015281816116c201526117370152600081816106f1015261168f01526000818161054101528181610ca801528181610e250152818161112f01528181611350015281816114bb0152612470015260006112060152600061196d015260006119af0152600061198e01526000818161050701528181612715015261276001526000610d7c0152615db86000f3fe608060405234801561001057600080fd5b50600436106102535760003560e01c806370a0823111610146578063a457c2d7116100c3578063c0ff1a1511610087578063c0ff1a15146105d1578063d505accf146105d9578063d5c096c4146105ec578063dd62ed3e146105ff578063f89f27ed14610612578063ffd088eb1461061a57600080fd5b8063a457c2d714610588578063a9059cbb1461059b578063aaabadc5146105ae578063b10be739146105b6578063b48b5b40146105c957600080fd5b8063893d20e81161010a578063893d20e8146105055780638d928af81461053f57806395d89b41146105655780639b02cdde1461056d5780639d2c110c1461057557600080fd5b806370a082311461046c57806374f3b009146104955780637ecebe00146104b6578063851c1bb3146104df57806387ec6817146104f257600080fd5b80633644e515116101d457806355c676281161019857806355c67628146103d35780636028bfd4146103db57806360d1507c146103fc578063679aefce146104445780636b8432391461044c57600080fd5b80633644e5151461034857806338e9922e1461035057806338fff2d01461036357806339509351146103895780634a6b0b151461039c57600080fd5b80631dccd8301161021b5780631dccd830146102e557806323b872dd14610305578063292c914a14610318578063313ce567146103205780633331bc361461033557600080fd5b806306fdde0314610258578063095ea7b31461027657806316c38b3c1461029957806318160ddd146102ae5780631c0de051146102c0575b600080fd5b610260610623565b60405161026d9190614fa2565b60405180910390f35b610289610284366004615017565b6106b5565b604051901515815260200161026d565b6102ac6102a7366004615051565b6106cc565b005b6002545b60405190815260200161026d565b6102c86106e0565b60408051931515845260208401929092529082015260600161026d565b6102f86102f3366004615153565b610739565b60405161026d9190615257565b61028961031336600461526a565b610871565b6102ac610937565b60055460405160ff909116815260200161026d565b6102ac6103433660046152ab565b61096c565b6102b2610a20565b6102ac61035e3660046152cd565b610a2f565b7f00000000000000000000000000000000000000000000000000000000000000006102b2565b610289610397366004615017565b610a48565b6103a4610a7f565b6040805196875260208701959095529385019290925260608401521515608083015260a082015260c00161026d565b6102b2610ada565b6103ee6103e9366004615355565b610ae7565b60405161026d929190615451565b61040f61040a3660046152cd565b610b18565b604080519788526020880196909652948601939093526060850191909152608084015260a083015260c082015260e00161026d565b6102b2610b9b565b61045f61045a36600461546a565b610bc2565b60405161026d919061551b565b6102b261047a36600461555f565b6001600160a01b031660009081526020819052604090205490565b6104a86104a3366004615355565b610c9f565b60405161026d92919061557c565b6102b26104c436600461555f565b6001600160a01b031660009081526006602052604090205490565b6102b26104ed3660046155a1565b610d78565b6103ee610500366004615355565b610ddd565b7f00000000000000000000000000000000000000000000000000000000000000005b6040516001600160a01b03909116815260200161026d565b7f0000000000000000000000000000000000000000000000000000000000000000610527565b610260610e02565b600a546102b2565b6102b26105833660046155da565b610e11565b610289610596366004615017565b611001565b6102896105a9366004615017565b611041565b61052761104e565b6102b26105c43660046156cf565b611058565b6104006102b2565b6102b26110ed565b6102ac6105e73660046156ea565b6111d7565b6104a86105fa366004615355565b611347565b6102b261060d366004615761565b6114b7565b6102f861152f565b6201de206102b2565b6060600380546106329061579a565b80601f016020809104026020016040519081016040528092919081815260200182805461065e9061579a565b80156106ab5780601f10610680576101008083540402835291602001916106ab565b820191906000526020600020905b81548152906001019060200180831161068e57829003601f168201915b5050505050905090565b60006106c23384846115f4565b5060015b92915050565b6106d4611656565b6106dd81611684565b50565b60008060006106ed611733565b15937f000000000000000000000000000000000000000000000000000000000000000093507f000000000000000000000000000000000000000000000000000000000000000092509050565b606081516001600160401b038111156107545761075461506e565b60405190808252806020026020018201604052801561077d578160200160208202803683370190505b509050600061078a611769565b905060005b835181101561086a5773__$06e51ed4aed7d810f420dec656a9931e3b$__6379eaef8260088684815181106107c6576107c66157d5565b6020026020010151856040518463ffffffff1660e01b81526004016107ed93929190615823565b60206040518083038186803b15801561080557600080fd5b505af4158015610819573d6000803e3d6000fd5b505050506040513d601f19601f8201168201806040525081019061083d919061585c565b83828151811061084f5761084f6157d5565b60209081029190910101526108638161588b565b905061078f565b5050919050565b60008061087e85336114b7565b9050336001600160a01b03861614806108975750828110155b6108e85760405162461bcd60e51b815260206004820181905260248201527f45524332305f5452414e534645525f455843454544535f414c4c4f57414e434560448201526064015b60405180910390fd5b6108f3858585611776565b336001600160a01b0386161480159061091357506001600160801b038114155b1561092c5761092c853361092786856158a6565b6115f4565b506001949350505050565b61093f61184b565b610947611656565b610951600161185e565b600061095c60025490565b111561096a5761096a6118a0565b565b808210801561097d57506104008111155b6109b95760405162461bcd60e51b815260206004820152600d60248201526c4f55545f4f465f424f554e445360981b60448201526064016108df565b60006109ce60016000806000806000806118e9565b9050825b82811015610a1a576000818152600860205260409020546109f29061195b565b610a085760008181526008602052604090208290555b80610a128161588b565b9150506109d2565b50505050565b6000610a2a611969565b905090565b610a37611656565b610a3f61184b565b6106dd81611a0f565b3360008181526001602090815260408083206001600160a01b038716845290915281205490916106c29185906109279086906158bd565b60008060008060008060006009549050610a9881611a78565b9650610aa381611a84565b9550610aae81611a91565b9450610ab981611aa3565b9350610ac481611ab3565b9250610acf81611ac4565b915050909192939495565b6000610a2a600954611ac4565b60006060610af786516002611ad9565b610b0c89898989898989611aea611baa611c40565b97509795505050505050565b60008060008060008060006104008810610b6b5760405162461bcd60e51b815260206004820152601460248201527309ea48286988abe929cac82989288be929c888ab60631b60448201526064016108df565b600088815260086020526040902054610b8381611d5e565b959f949e50929c50909a509850965090945092505050565b6000610a2a610ba960025490565b610bb16110ed565b610bbc9060026158d5565b90611dc1565b606081516001600160401b03811115610bdd57610bdd61506e565b604051908082528060200260200182016040528015610c06578160200160208202803683370190505b5090506000610c13611769565b9050610c2f604080518082019091526000808252602082015290565b60005b8451811015610c9757848181518110610c4d57610c4d6157d5565b60200260200101519150610c6a8260000151848460200151611e84565b848281518110610c7c57610c7c6157d5565b6020908102919091010152610c908161588b565b9050610c32565b505050919050565b60608088610ce37f00000000000000000000000000000000000000000000000000000000000000005b6001600160a01b0316336001600160a01b03161460cd611f1d565b610d127f00000000000000000000000000000000000000000000000000000000000000005b82146101f4611f1d565b610d1b87611f2b565b6000806000610d2f8d8d8d8d8d8d8d611aea565b925092509250610d3f8c84611fa8565b610d4882611baa565b610d5181611baa565b610d59611733565b15610d6657610d666118a0565b909c909b509950505050505050505050565b60007f000000000000000000000000000000000000000000000000000000000000000082604051602001610dc09291909182526001600160e01b031916602082015260240190565b604051602081830303815290604052805190602001209050919050565b60006060610ded86516002611ad9565b610b0c89898989898989611fb2612032611c40565b6060600480546106329061579a565b6000610e1b61184b565b6080840151610e497f0000000000000000000000000000000000000000000000000000000000000000610cc8565b610e727f0000000000000000000000000000000000000000000000000000000000000000610d08565b60007f00000000000000000000000000000000000000000000000000000000000000006001600160a01b031686602001516001600160a01b03161490506000610eba826120a2565b90506000610ec883156120a2565b90506000610ed5846120f6565b90506000610ee385156120f6565b9050610eef898561214a565b9850610efb888461214a565b9750610f238a60a0015186610f105789610f12565b8a5b87610f1d578b612156565b8a612156565b60008a516001811115610f3857610f386157eb565b1415610fa6576000610f56610f4b610ada565b60608d015190612257565b9050610f78610f72828d606001516122ee90919063ffffffff16565b8661214a565b60608c01526000610f8c8c8c8c878761233b565b9050610f98818661235a565b985050505050505050610ff9565b610fb48a606001518461214a565b60608b01526000610fc88b8b8b8686612366565b9050610fd48186612379565b9050610ff0610fe9610fe4610ada565b612385565b82906123af565b97505050505050505b509392505050565b60008061100e33856114b7565b905080831061102857611023338560006115f4565b611037565b611037338561092786856158a6565b5060019392505050565b60006106c2338484611776565b6000610a2a61246c565b600073__$06e51ed4aed7d810f420dec656a9931e3b$__630397bee060088461107f611769565b6040518463ffffffff1660e01b815260040161109d939291906158f4565b60206040518083038186803b1580156110b557600080fd5b505af41580156110c9573d6000803e3d6000fd5b505050506040513d601f19601f820116820180604052508101906106c6919061585c565b604051631f29a8cd60e31b81527f0000000000000000000000000000000000000000000000000000000000000000600482015260009081906001600160a01b037f0000000000000000000000000000000000000000000000000000000000000000169063f94d46689060240160006040518083038186803b15801561117157600080fd5b505afa158015611185573d6000803e3d6000fd5b505050506040513d6000823e601f3d908101601f191682016040526111ad919081019061597c565b509150506111ba81611f2b565b60006111c46124ff565b90506111d0818361257a565b9250505090565b6111e58442111560d1611f1d565b6001600160a01b0387811660008181526006602090815260408083205481517f00000000000000000000000000000000000000000000000000000000000000008185015280830195909552948b166060850152608084018a905260a0840185905260c08085018a90528151808603909101815260e0909401905282519201919091209061127182612634565b6040805160008082526020820180845284905260ff8a169282019290925260608101889052608081018790529192509060019060a0016020604051602081039080840390855afa1580156112c9573d6000803e3d6000fd5b5050604051601f190151915061130b90506001600160a01b0382161580159061130357508b6001600160a01b0316826001600160a01b0316145b6101f8611f1d565b6113168460016158bd565b6001600160a01b038c1660009081526006602052604090205561133a8b8b8b6115f4565b5050505050505050505050565b606080886113747f0000000000000000000000000000000000000000000000000000000000000000610cc8565b61139d7f0000000000000000000000000000000000000000000000000000000000000000610d08565b6113a561184b565b60006113b060025490565b611427576113c08b8b8b88612663565b945090506113d5620f424082101560cc611f1d565b6113e36000620f42406126f2565b6113f9896113f4620f4240846158a6565b6126f2565b61140284612032565b60408051600280825260608201835290916020830190803683370190505092506114a1565b61143088611f2b565b61146f8789600081518110611447576114476157d5565b60200260200101518a600181518110611462576114626157d5565b6020026020010151612156565b61147e8b8b8b8b8b8b8b611fb2565b9095509350905061148f89826126f2565b61149884612032565b6114a183611baa565b6114a96118a0565b505097509795505050505050565b60007f00000000000000000000000000000000000000000000000000000000000000006001600160a01b0316826001600160a01b0316141561150157506001600160801b036106c6565b6001600160a01b038084166000908152600160209081526040808320938616835292905220545b90506106c6565b6060610a2a6124ff565b60008061154683856158bd565b9050838110156115875760405162461bcd60e51b815260206004820152600c60248201526b4144445f4f564552464c4f5760a01b60448201526064016108df565b9392505050565b6000611587838360556115b8565b6000605682901b67ffffffffffffffff60561b19841617611587565b60006001821b19841682846115ce5760006115d1565b60015b60ff16901b17949350505050565b6001600160401b03811b1992909216911b1790565b6001600160a01b0383811660008181526001602090815260408083209487168084529482529182902085905590518481527f8c5be1e5ebec7d5bd14f71427d1e84f3dd0314c0f7b2291e5b200ac8c7c3b92591015b60405180910390a3505050565b600061166d6000356001600160e01b031916610d78565b90506106dd61167c82336126fc565b610191611f1d565b80156116bd576116b87f00000000000000000000000000000000000000000000000000000000000000004210610193611f1d565b6116eb565b6116eb7f000000000000000000000000000000000000000000000000000000000000000042106101a9611f1d565b6007805460ff19168215159081179091556040519081527f9e3a5e37224532dea67b89face185703738a228a6e8a23dee546960180d3be64906020015b60405180910390a150565b60007f0000000000000000000000000000000000000000000000000000000000000000421180610a2a57505060075460ff161590565b6000610a2a600954611aa3565b61178d6001600160a01b0384161515610198611f1d565b6117a46001600160a01b0383161515610199611f1d565b6001600160a01b0383166000908152602081905260409020546117ca90826101a0612816565b6001600160a01b0380851660009081526020819052604080822093909355908416815220546117fa9082906158bd565b6001600160a01b038381166000818152602081815260409182902094909455518481529092918616917fddf252ad1be2c89b69c2b068fc378daa952ba7f163c4a11628f55a4df523b3ef9101611649565b61096a611856611733565b610192611f1d565b60095461186b908261158e565b60095560405181151581527f3e350b41e86a8e10f804ade6d35340d620be35569cc75ac943e8bb14ab80ead190602001611728565b6009546118ac81611ab3565b156106dd576118c66118bf600a54612831565b829061287f565b90506118e36118dc6118d760025490565b612831565b8290612894565b60095550565b6000816a0fffffffffffff80000000601f85901b16623fffff60541b605487901b16661fffffffffffff606a1b606a89901b16623fffff609f1b609f8b901b16661fffffffffffff60b51b60b58d901b166001600160ea1b031960ea8f901b1617171717171798975050505050505050565b6000637fffffff82166106c6565b60007f00000000000000000000000000000000000000000000000000000000000000007f00000000000000000000000000000000000000000000000000000000000000007f000000000000000000000000000000000000000000000000000000000000000046604080516020810195909552840192909252606083015260808201523060a082015260c00160405160208183030381529060405280519060200120905090565b611a2264e8d4a5100082101560cb611f1d565b611a3867016345785d8a000082111560ca611f1d565b600954611a45908261159c565b6009556040518181527fa9ba3ffe0b6c366b81232caab38605a0699ad5398d6cce76f91ee809e322dafc90602001611728565b60006106c682826128b3565b60006106c68260166128b3565b6000602c82901c637fffffff166106c6565b6000604b82901c6103ff166106c6565b60006001605583901c8116146106c6565b6000605682901c6001600160401b03166106c6565b611ae68183146067611f1d565b5050565b60006060806000611af96124ff565b9050611b03611733565b15611b5157611b1f8789600081518110611447576114476157d5565b6000611b2b828a61257a565b9050611b3c8983600a54848b6128da565b9250611b4b89846122ee6129d1565b50611b72565b60408051600280825260608201835290916020830190803683370190505091505b611b7d888287612a87565b9094509250611b8f88846122ee6129d1565b611b99818961257a565b600a55509750975097945050505050565b611bd781600081518110611bc057611bc06157d5565b6020026020010151611bd260016120a2565b612b25565b81600081518110611bea57611bea6157d5565b602002602001018181525050611c1e81600181518110611c0c57611c0c6157d5565b6020026020010151611bd260006120a2565b81600181518110611c3157611c316157d5565b60200260200101818152505050565b333014611cfe576000306001600160a01b0316600036604051611c64929190615a49565b6000604051808303816000865af19150503d8060008114611ca1576040519150601f19603f3d011682016040523d82523d6000602084013e611ca6565b606091505b505090508060008114611cb557fe5b60046000803e6000516001600160e01b0319166343adbafb60e01b8114611ce0573d6000803e3d6000fd5b506020600460003e604060205260243d03602460403e601c3d016000f35b611d0786611f2b565b600080611d1d8b8b8b8b8b8b8b8b63ffffffff16565b5091509150611d2f818463ffffffff16565b8051601f1982018390526343adbafb603f1983015260200260231982016044820181fd5b505050505050505050565b6000806000806000806000611d7288612b3e565b9650611d7d88612b4b565b9550611d8888612b58565b9450611d9388612b65565b9350611d9e88612b72565b9250611da988612b7f565b9150611db48861195b565b9050919395979092949650565b600081611e005760405162461bcd60e51b815260206004820152600d60248201526c2d22a927afa224ab24a9a4a7a760991b60448201526064016108df565b82611e0d575060006106c6565b6000611e21670de0b6b3a7640000856158d5565b9050670de0b6b3a7640000611e368583615a6f565b14611e725760405162461bcd60e51b815260206004820152600c60248201526b11125597d25395115493905360a21b60448201526064016108df565b611e7c8382615a6f565b9150506106c6565b6040516334171a8560e01b815260009073__$06e51ed4aed7d810f420dec656a9931e3b$__906334171a8590611ec590600890889088908890600401615a83565b60206040518083038186803b158015611edd57600080fd5b505af4158015611ef1573d6000803e3d6000fd5b505050506040513d601f19601f82011682018060405250810190611f15919061585c565b949350505050565b81611ae657611ae681612b8c565b611f3560016120a2565b81600081518110611f4857611f486157d5565b6020026020010151611f5a91906158d5565b81600081518110611f6d57611f6d6157d5565b602002602001018181525050611f8360006120a2565b81600181518110611f9657611f966157d5565b6020026020010151611c1e91906158d5565b611ae68282612bdf565b60006060806000611fc16124ff565b90506000611fcf828a61257a565b90506000611fe28a84600a54858c6128da565b9050611ff18a826122ee6129d1565b600080611fff8c868b612c8c565b915091506120108c826115396129d1565b61201a858d61257a565b600a55909e909d50909b509950505050505050505050565b61205f81600081518110612048576120486157d5565b602002602001015161205a60016120a2565b612d16565b81600081518110612072576120726157d5565b602002602001018181525050611c1e81600181518110612094576120946157d5565b602002602001015161205a60005b6000816120cf577f00000000000000000000000000000000000000000000000000000000000000006106c6565b7f000000000000000000000000000000000000000000000000000000000000000092915050565b600081612123577f00000000000000000000000000000000000000000000000000000000000000006106c6565b7f000000000000000000000000000000000000000000000000000000000000000092915050565b600061158782846158d5565b60095461216281611ab3565b801561216d57508343115b15610a1a5760006121c07f0000000000000000000000000000000000000000000000000000000000000000857f000000000000000000000000000000000000000000000000000000000000000086612d53565b905060006121f77f0000000000000000000000000000000000000000000000000000000000000000866121f286611a84565b612d88565b9050600061220484611aa3565b9050600061221185611a91565b9050600061222a828487876122258b611a78565b612dae565b9050808314611d535761223d8682612e1c565b95506122498642612e38565b600955505050505050505050565b60008061226483856158d5565b905083158061227b5750826122798583615a6f565b145b6122b65760405162461bcd60e51b815260206004820152600c60248201526b4d554c5f4f564552464c4f5760a01b60448201526064016108df565b806122c55760009150506106c6565b670de0b6b3a76400006122d96001836158a6565b6122e39190615a6f565b611e7c9060016158bd565b60008282111561232f5760405162461bcd60e51b815260206004820152600c60248201526b5355425f4f564552464c4f5760a01b60448201526064016108df565b6000611f1583856158a6565b600061234e858486858a60600151612e53565b90505b95945050505050565b60006115878383612b25565b600061234e858486858a60600151612efe565b60006115878383612d16565b6000670de0b6b3a7640000821061239d5760006106c6565b6106c682670de0b6b3a76400006158a6565b6000816123ee5760405162461bcd60e51b815260206004820152600d60248201526c2d22a927afa224ab24a9a4a7a760991b60448201526064016108df565b826123fb575060006106c6565b600061240f670de0b6b3a7640000856158d5565b9050670de0b6b3a76400006124248583615a6f565b146124605760405162461bcd60e51b815260206004820152600c60248201526b11125597d25395115493905360a21b60448201526064016108df565b826122d96001836158a6565b60007f00000000000000000000000000000000000000000000000000000000000000006001600160a01b031663aaabadc56040518163ffffffff1660e01b815260040160206040518083038186803b1580156124c757600080fd5b505afa1580156124db573d6000803e3d6000fd5b505050506040513d601f19601f82011682018060405250810190610a2a9190615aa9565b6040805160028082526060808301845292600092919060208301908036833701905050905061252e60016120f6565b81600081518110612541576125416157d5565b60200260200101818152505061255760006120f6565b8160018151811061256a5761256a6157d5565b6020908102919091010152919050565b670de0b6b3a764000060005b83518110156125f2576125de6125d78583815181106125a7576125a76157d5565b60200260200101518584815181106125c1576125c16157d5565b6020026020010151612fa590919063ffffffff16565b8390612ff4565b9150806125ea8161588b565b915050612586565b50600081116106c65760405162461bcd60e51b815260206004820152600e60248201526d16915493d7d2539590549250539560921b60448201526064016108df565b600061263e611969565b60405161190160f01b6020820152602281019190915260428101839052606201610dc0565b60006060600061267284613065565b9050612693600082600381111561268b5761268b6157eb565b1460ce611f1d565b600061269e8561307b565b90506126ac81516002611ad9565b6126b581611f2b565b60006126bf6124ff565b905060006126cd828461257a565b905060006126dc8260026158d5565b600a929092555099919850909650505050505050565b611ae68282613091565b600073ba1ba1ba1ba1ba1ba1ba1ba1ba1ba1ba1ba1ba1b7f00000000000000000000000000000000000000000000000000000000000000006001600160a01b03161415801561274f575061274f83613114565b156127865750336001600160a01b037f000000000000000000000000000000000000000000000000000000000000000016146106c6565b61278e61246c565b6040516326f8aa2160e21b8152600481018590526001600160a01b0384811660248301523060448301529190911690639be2a8849060640160206040518083038186803b1580156127de57600080fd5b505afa1580156127f2573d6000803e3d6000fd5b505050506040513d601f19601f820116820180604052508101906115289190615ac6565b60006128258484111583611f1d565b600061235184866158a6565b60008061283d83613146565b9050600080821361285d57612858652d79883d200083615ae3565b61286d565b61286d652d79883d200083615b22565b9050611f15655af3107a400082615b63565b6000623fffff198316623fffff831617611587565b6000650fffffc00000198316650fffffc00000601684901b1617611587565b600082821c623fffff16621fffff81136128cd5780611f15565b623fffff19179392505050565b604080516002808252606080830184529260009291906020830190803683370190505090508261290b579050612351565b61298a877f000000000000000000000000000000000000000000000000000000000000000081518110612940576129406157d5565b6020026020010151877f00000000000000000000000000000000000000000000000000000000000000008151811061297a5761297a6157d5565b60200260200101518787876131c5565b817f0000000000000000000000000000000000000000000000000000000000000000815181106129bc576129bc6157d5565b60209081029190910101529695505050505050565b612a13836000815181106129e7576129e76157d5565b602002602001015183600081518110612a0257612a026157d5565b60200260200101518363ffffffff16565b83600081518110612a2657612a266157d5565b602002602001018181525050612a6383600181518110612a4857612a486157d5565b602002602001015183600181518110612a0257612a026157d5565b83600181518110612a7657612a766157d5565b602002602001018181525050505050565b600060606000612a9684613065565b90506000816003811115612aac57612aac6157eb565b1415612ac757612abd86868661323d565b9250925050612b1d565b6001816003811115612adb57612adb6157eb565b1415612aeb57612abd8685613302565b6002816003811115612aff57612aff6157eb565b1415612b1057612abd868686613335565b612b1b610150612b8c565b505b935093915050565b6000612b348215156004611f1d565b6115878284615a6f565b60006106c68260ea6128b3565b60006106c68260b56133a2565b60006106c682609f6128b3565b60006106c682606a6133a2565b60006106c68260546128b3565b60006106c682601f6133a2565b62461bcd60e51b6000908152602060045260076024526642414c23000030600a808404818106603090810160081b95839006959095019082900491820690940160101b939093010160c81b604452606490fd5b612bf66001600160a01b038316151561019b611f1d565b6001600160a01b038216600090815260208190526040902054612c1c90826101a1612816565b6001600160a01b038316600090815260208190526040902055600254612c439082906158a6565b6002556040518181526000906001600160a01b038416907fddf252ad1be2c89b69c2b068fc378daa952ba7f163c4a11628f55a4df523b3ef906020015b60405180910390a35050565b600060606000612c9b84613065565b90506001816003811115612cb157612cb16157eb565b1415612cc257612abd8686866133d5565b6002816003811115612cd657612cd66157eb565b1415612ce757612abd86868661342d565b6003816003811115612cfb57612cfb6157eb565b1415612d0b57612abd86856134be565b612b1b610136612b8c565b6000612d258215156004611f1d565b82612d32575060006106c6565b81612d3e6001856158a6565b612d489190615a6f565b6115289060016158bd565b600080612d73612d6384866123af565b612d6d87896123af565b906123af565b9050612d7e81612831565b9695505050505050565b600080612d9584866123af565b90506000612da282612831565b9050612d7e8482615ae3565b600080612dd785858542612dce8b60009081526008602052604090205490565b939291906134e4565b905060006078612de789426158a6565b1015905080612df65786612dff565b612dff8761356e565b600081815260086020526040902092909255509695505050505050565b6000604b82901b6a1ff800000000000000000019841617611587565b6000602c82901b6907fffffff0000000000019841617611587565b6000612e6786670429d069189e0000612ff4565b821115612ea55760405162461bcd60e51b815260206004820152600c60248201526b4d41585f494e5f524154494f60a01b60448201526064016108df565b6000612eb183886158bd565b90506000612ebf88836123af565b90506000612ecd8887611dc1565b90506000612edb838361357b565b9050612ef0612ee982612385565b8990612ff4565b9a9950505050505050505050565b6000612f1284670429d069189e0000612ff4565b821115612f515760405162461bcd60e51b815260206004820152600d60248201526c4d41585f4f55545f524154494f60981b60448201526064016108df565b6000612f67612f6084876158a6565b86906123af565b90506000612f7585886123af565b90506000612f83838361357b565b90506000612f99670de0b6b3a7640000836158a6565b9050612ef08a82612257565b600080612fb284846135a7565b90506000612fcc612fc583612710612257565b6001611539565b905080821015612fe1576000925050506106c6565b612feb82826122ee565b925050506106c6565b60008061300183856158d5565b90508315806130185750826130168583615a6f565b145b6130535760405162461bcd60e51b815260206004820152600c60248201526b4d554c5f4f564552464c4f5760a01b60448201526064016108df565b611f15670de0b6b3a764000082615a6f565b6000818060200190518101906106c69190615b9e565b6060818060200190518101906115879190615bbb565b8060025461309f91906158bd565b6002556001600160a01b0382166000908152602081905260409020546130c69082906158bd565b6001600160a01b038316600081815260208181526040808320949094559251848152919290917fddf252ad1be2c89b69c2b068fc378daa952ba7f163c4a11628f55a4df523b3ef9101612c80565b6000613126631c74c91760e11b610d78565b8214806106c6575061313e6350dd6ed960e01b610d78565b821492915050565b6000613156600083136064611f1d565b8161317167016345785d8a0000670de0b6b3a7640000615ae3565b1280156131965750613193670de0b6b3a764000067016345785d8a0000615b22565b82125b156131b757670de0b6b3a76400006131ad8361370c565b6106c69190615b63565b6106c682613943565b919050565b60008383116131d657506000612351565b60006131e285856123af565b905060006131f8670de0b6b3a764000088611dc1565b905061320c826709b6e64a8ec60000613f29565b9150600061321a838361357b565b9050600061323161322a83612385565b8b90612ff4565b9050612ef08187612ff4565b6000606061324961184b565b60008061325585613f40565b91509150613267600282106064611f1d565b6040805160028082526060820183526000926020830190803683370190505090506132d688838151811061329d5761329d6157d5565b60200260200101518884815181106132b7576132b76157d5565b6020026020010151856132c960025490565b6132d1610ada565b613f62565b508183815181106132e9576132e96157d5565b6020908102919091010152919791965090945050505050565b60006060600061331184614059565b90506000613328868361332360025490565b61406f565b9196919550909350505050565b6000606061334161184b565b60008061334d85614137565b9150915061335d82516002611ad9565b61336682611f2b565b600061338488888561337760025490565b61337f610ada565b61414f565b5090506133958282111560cf611f1d565b9791965090945050505050565b600082821c661fffffffffffff16660fffffffffffff81136133c45780611f15565b661fffffffffffff19179392505050565b600060606000806133e585614137565b915091506133f582516002611ad9565b6133fe82611f2b565b600061341c88888561340f60025490565b613417610ada565b6142c0565b5090506133958282101560d0611f1d565b6000606060008061343d85613f40565b9150915061344f600282106064611f1d565b6040805160028082526060820183526000926020830190803683370190505090506132d6888381518110613485576134856157d5565b602002602001015188848151811061349f5761349f6157d5565b6020026020010151856134b160025490565b6134b9610ada565b614428565b6000606060006134cd84614059565b9050600061332886836134df60025490565b61453f565b6000806134f08761195b565b6134fa90846158a6565b905060006135088288615c0b565b61351189612b4b565b61351b9190615b22565b905060006135298388615c0b565b6135328a612b65565b61353c9190615b22565b9050600061354a8488615c0b565b6135538b612b7f565b61355d9190615b22565b9050612ef089848a858b868c6118e9565b60006106c68260016145e7565b60008061358884846135a7565b9050600061359b612fc583612710612257565b90506123518282611539565b6000816135bd5750670de0b6b3a76400006106c6565b826135ca575060006106c6565b6135db600160ff1b84106006611f1d565b826135ff6135f668056bc75e2d63100000600160fe1b615a6f565b84106007611f1d565b8260008261361d67016345785d8a0000670de0b6b3a7640000615ae3565b128015613642575061363f670de0b6b3a764000067016345785d8a0000615b22565b83125b156136ab5760006136528461370c565b9050670de0b6b3a7640000836136688284615c90565b6136729190615c0b565b61367c9190615b63565b8361368f670de0b6b3a764000084615b63565b6136999190615c0b565b6136a39190615b22565b9150506136c2565b816136b584613943565b6136bf9190615c0b565b90505b6136d4670de0b6b3a764000082615b63565b905061370381680238fd42c5cf03ffff19131580156136fc575068070c1cc73b00c800008213155b6008611f1d565b612d7e81614600565b6000613720670de0b6b3a764000083615c0b565b9150600061373c6a0c097ce7bc90715b34b9f160241b84615b22565b6a0c097ce7bc90715b34b9f160241b6137558186615ae3565b61375f9190615c0b565b6137699190615b63565b905060006a0c097ce7bc90715b34b9f160241b6137868380615c0b565b6137909190615b63565b905081806a0c097ce7bc90715b34b9f160241b6137ad8483615c0b565b6137b79190615b63565b91506137c4600383615b63565b6137ce9082615b22565b90506a0c097ce7bc90715b34b9f160241b6137e98484615c0b565b6137f39190615b63565b9150613800600583615b63565b61380a9082615b22565b90506a0c097ce7bc90715b34b9f160241b6138258484615c0b565b61382f9190615b63565b915061383c600783615b63565b6138469082615b22565b90506a0c097ce7bc90715b34b9f160241b6138618484615c0b565b61386b9190615b63565b9150613878600983615b63565b6138829082615b22565b90506a0c097ce7bc90715b34b9f160241b61389d8484615c0b565b6138a79190615b63565b91506138b4600b83615b63565b6138be9082615b22565b90506a0c097ce7bc90715b34b9f160241b6138d98484615c0b565b6138e39190615b63565b91506138f0600d83615b63565b6138fa9082615b22565b90506a0c097ce7bc90715b34b9f160241b6139158484615c0b565b61391f9190615b63565b915061392c600f83615b63565b6139369082615b22565b9050612d7e816002615c0b565b6000670de0b6b3a76400008212156139835761397a8261396b670de0b6b3a764000080615c0b565b6139759190615b63565b613943565b6106c690615ca4565b60006139af670de0b6b3a7640000770195e54c5dd42177f53a27172fa9ec630262827000000000615c0b565b83126139ef576139d7770195e54c5dd42177f53a27172fa9ec63026282700000000084615b63565b92506139ec6806f05b59d3b200000082615b22565b90505b613a0d670de0b6b3a76400006b1425982cf597cd205cef7380615c0b565b8312613a4157613a296b1425982cf597cd205cef738084615b63565b9250613a3e6803782dace9d900000082615b22565b90505b613a4c606482615c0b565b9050613a59606484615c0b565b92506e01855144814a7ff805980ff00840008312613ab6576e01855144814a7ff805980ff0084000613a9468056bc75e2d6310000085615c0b565b613a9e9190615b63565b9250613ab368ad78ebc5ac6200000082615b22565b90505b6b02df0ab5a80a22c61ab5a7008312613b0b576b02df0ab5a80a22c61ab5a700613ae968056bc75e2d6310000085615c0b565b613af39190615b63565b9250613b086856bc75e2d63100000082615b22565b90505b693f1fce3da636ea5cf8508312613b5c57693f1fce3da636ea5cf850613b3a68056bc75e2d6310000085615c0b565b613b449190615b63565b9250613b59682b5e3af16b1880000082615b22565b90505b690127fa27722cc06cc5e28312613bad57690127fa27722cc06cc5e2613b8b68056bc75e2d6310000085615c0b565b613b959190615b63565b9250613baa6815af1d78b58c40000082615b22565b90505b68280e60114edb805d038312613bfc5768280e60114edb805d03613bda68056bc75e2d6310000085615c0b565b613be49190615b63565b9250613bf9680ad78ebc5ac620000082615b22565b90505b680ebc5fb417461211108312613c4b57680ebc5fb41746121110613c2968056bc75e2d6310000085615c0b565b613c339190615b63565b9250613c4868056bc75e2d6310000082615b22565b90505b6808f00f760a4b2db55d8312613c9a576808f00f760a4b2db55d613c7868056bc75e2d6310000085615c0b565b613c829190615b63565b9250613c976802b5e3af16b188000082615b22565b90505b6806f5f17757889379378312613ce9576806f5f1775788937937613cc768056bc75e2d6310000085615c0b565b613cd19190615b63565b9250613ce668015af1d78b58c4000082615b22565b90505b6806248f33704b2866038312613d37576806248f33704b286603613d1668056bc75e2d6310000085615c0b565b613d209190615b63565b9250613d3467ad78ebc5ac62000082615b22565b90505b6805c548670b9510e7ac8312613d85576805c548670b9510e7ac613d6468056bc75e2d6310000085615c0b565b613d6e9190615b63565b9250613d826756bc75e2d631000082615b22565b90505b6000613d9a68056bc75e2d6310000085615b22565b68056bc75e2d63100000613dae8187615ae3565b613db89190615c0b565b613dc29190615b63565b9050600068056bc75e2d63100000613dda8380615c0b565b613de49190615b63565b9050818068056bc75e2d63100000613dfc8483615c0b565b613e069190615b63565b9150613e13600383615b63565b613e1d9082615b22565b905068056bc75e2d63100000613e338484615c0b565b613e3d9190615b63565b9150613e4a600583615b63565b613e549082615b22565b905068056bc75e2d63100000613e6a8484615c0b565b613e749190615b63565b9150613e81600783615b63565b613e8b9082615b22565b905068056bc75e2d63100000613ea18484615c0b565b613eab9190615b63565b9150613eb8600983615b63565b613ec29082615b22565b905068056bc75e2d63100000613ed88484615c0b565b613ee29190615b63565b9150613eef600b83615b63565b613ef99082615b22565b9050613f06600282615c0b565b90506064613f148287615b22565b613f1e9190615b63565b979650505050505050565b600081831015613f395781611587565b5090919050565b60008082806020019051810190613f579190615cc1565b909590945092505050565b60008080613f7485612d6d88826158a6565b90506709b6e64a8ec60000811015613fce5760405162461bcd60e51b815260206004820152601860248201527f4d494e5f4250545f494e5f464f525f544f4b454e5f4f5554000000000000000060448201526064016108df565b6000613fec613fe5670de0b6b3a76400008a611dc1565b839061357b565b90506000613ffc61322a83612385565b905060006140098a612385565b905060006140178383612257565b9050600061402582856158a6565b9050614031828a612257565b965061403d87836158a6565b61404790826158bd565b97505050505050509550959350505050565b6000818060200190518101906115879190615cf8565b6060600061407d8484611dc1565b9050600085516001600160401b0381111561409a5761409a61506e565b6040519080825280602002602001820160405280156140c3578160200160208202803683370190505b50905060005b865181101561412d576140fe838883815181106140e8576140e86157d5565b6020026020010151612ff490919063ffffffff16565b828281518110614110576141106157d5565b6020908102919091010152806141258161588b565b9150506140c9565b5095945050505050565b6060600082806020019051810190613f579190615d26565b60006060600085516001600160401b0381111561416e5761416e61506e565b604051908082528060200260200182016040528015614197578160200160208202803683370190505b5090506000805b8951811015614283576142028a82815181106141bc576141bc6157d5565b60200260200101518983815181106141d6576141d66157d5565b60200260200101518c84815181106141f0576141f06157d5565b6020026020010151612d6d91906158a6565b838281518110614214576142146157d5565b602002602001018181525050614265898281518110614235576142356157d5565b602002602001015184838151811061424f5761424f6157d5565b602002602001015161225790919063ffffffff16565b61426f90836158bd565b91508061427b8161588b565b91505061419e565b506000806142958b8b8b87878c614c2d565b9150915060006142ae6142a784612385565b8a90612257565b9c919b50909950505050505050505050565b60006060600085516001600160401b038111156142df576142df61506e565b604051908082528060200260200182016040528015614308578160200160208202803683370190505b5090506000805b89518110156143de576143738a828151811061432d5761432d6157d5565b6020026020010151898381518110614347576143476157d5565b60200260200101518c8481518110614361576143616157d5565b6020026020010151610bbc91906158bd565b838281518110614385576143856157d5565b6020026020010181815250506143c08982815181106143a6576143a66157d5565b60200260200101518483815181106140e8576140e86157d5565b6143ca90836158bd565b9150806143d68161588b565b91505061430f565b506000806143f08b8b8b87878c614e12565b915091506000670de0b6b3a7640000831161440c5760006142ae565b6142ae614421670de0b6b3a7640000856158a6565b8a90612ff4565b6000808061443a85612d6d88826158bd565b90506729a2241af62c00008111156144945760405162461bcd60e51b815260206004820152601860248201527f4d41585f4f55545f4250545f464f525f544f4b454e5f494e000000000000000060448201526064016108df565b60006144ab613fe5670de0b6b3a76400008a6123af565b905060006144cb6144c4670de0b6b3a7640000846158a6565b8b90612257565b905060006144d88a612385565b905060006144e68383612257565b905060006144f482856158a6565b9050600061451461450d8b670de0b6b3a76400006158a6565b84906123af565b905061452083826158a6565b975061452c81836158bd565b9850505050505050509550959350505050565b6060600061454d84846123af565b9050600085516001600160401b0381111561456a5761456a61506e565b604051908082528060200260200182016040528015614593578160200160208202803683370190505b50905060005b865181101561412d576145b88388838151811061424f5761424f6157d5565b8282815181106145ca576145ca6157d5565b6020908102919091010152806145df8161588b565b915050614599565b60006104006145f683856158bd565b6115879190615d6e565b600061462f680238fd42c5cf03ffff198312158015614628575068070c1cc73b00c800008313155b6009611f1d565b600082121561465b5761464961464483615ca4565b614600565b6131ad670de0b6b3a764000080615c0b565b60006806f05b59d3b200000083126146a2576146806806f05b59d3b200000084615ae3565b9250770195e54c5dd42177f53a27172fa9ec63026282700000000090506146df565b6803782dace9d900000083126146db576146c56803782dace9d900000084615ae3565b92506b1425982cf597cd205cef738090506146df565b5060015b6146ea606484615c0b565b925068056bc75e2d6310000068ad78ebc5ac62000000841261474b5761471968ad78ebc5ac6200000085615ae3565b935068056bc75e2d6310000061473e6e01855144814a7ff805980ff008400083615c0b565b6147489190615b63565b90505b6856bc75e2d631000000841261479d5761476e6856bc75e2d63100000085615ae3565b935068056bc75e2d631000006147906b02df0ab5a80a22c61ab5a70083615c0b565b61479a9190615b63565b90505b682b5e3af16b1880000084126147ed576147c0682b5e3af16b1880000085615ae3565b935068056bc75e2d631000006147e0693f1fce3da636ea5cf85083615c0b565b6147ea9190615b63565b90505b6815af1d78b58c400000841261483d576148106815af1d78b58c40000085615ae3565b935068056bc75e2d63100000614830690127fa27722cc06cc5e283615c0b565b61483a9190615b63565b90505b680ad78ebc5ac6200000841261488c57614860680ad78ebc5ac620000085615ae3565b935068056bc75e2d6310000061487f68280e60114edb805d0383615c0b565b6148899190615b63565b90505b68056bc75e2d6310000084126148db576148af68056bc75e2d6310000085615ae3565b935068056bc75e2d631000006148ce680ebc5fb4174612111083615c0b565b6148d89190615b63565b90505b6802b5e3af16b1880000841261492a576148fe6802b5e3af16b188000085615ae3565b935068056bc75e2d6310000061491d6808f00f760a4b2db55d83615c0b565b6149279190615b63565b90505b68015af1d78b58c4000084126149795761494d68015af1d78b58c4000085615ae3565b935068056bc75e2d6310000061496c6806f5f177578893793783615c0b565b6149769190615b63565b90505b68056bc75e2d631000008461498e8183615b22565b9150600268056bc75e2d631000006149a68884615c0b565b6149b09190615b63565b6149ba9190615b63565b90506149c68183615b22565b9150600368056bc75e2d631000006149de8884615c0b565b6149e89190615b63565b6149f29190615b63565b90506149fe8183615b22565b9150600468056bc75e2d63100000614a168884615c0b565b614a209190615b63565b614a2a9190615b63565b9050614a368183615b22565b9150600568056bc75e2d63100000614a4e8884615c0b565b614a589190615b63565b614a629190615b63565b9050614a6e8183615b22565b9150600668056bc75e2d63100000614a868884615c0b565b614a909190615b63565b614a9a9190615b63565b9050614aa68183615b22565b9150600768056bc75e2d63100000614abe8884615c0b565b614ac89190615b63565b614ad29190615b63565b9050614ade8183615b22565b9150600868056bc75e2d63100000614af68884615c0b565b614b009190615b63565b614b0a9190615b63565b9050614b168183615b22565b9150600968056bc75e2d63100000614b2e8884615c0b565b614b389190615b63565b614b429190615b63565b9050614b4e8183615b22565b9150600a68056bc75e2d63100000614b668884615c0b565b614b709190615b63565b614b7a9190615b63565b9050614b868183615b22565b9150600b68056bc75e2d63100000614b9e8884615c0b565b614ba89190615b63565b614bb29190615b63565b9050614bbe8183615b22565b9150600c68056bc75e2d63100000614bd68884615c0b565b614be09190615b63565b614bea9190615b63565b9050614bf68183615b22565b915060648468056bc75e2d63100000614c0f8587615c0b565b614c199190615b63565b614c239190615c0b565b612d7e9190615b63565b6000606085516001600160401b03811115614c4a57614c4a61506e565b604051908082528060200260200182016040528015614c73578160200160208202803683370190505b509050670de0b6b3a7640000915060005b8851811015614e06576000868281518110614ca157614ca16157d5565b6020026020010151861115614d56576000614cd0614cbe88612385565b8c85815181106140e8576140e86157d5565b90506000818a8581518110614ce757614ce76157d5565b6020026020010151614cf991906158a6565b90506000614d19614d1289670de0b6b3a76400006158a6565b83906123af565b9050614d2582826158a6565b868681518110614d3757614d376157d5565b6020908102919091010152614d4c81846158bd565b9350505050614d73565b878281518110614d6857614d686157d5565b602002602001015190505b6000614db78b8481518110614d8a57614d8a6157d5565b6020026020010151838d8681518110614da557614da56157d5565b6020026020010151610bbc91906158a6565b9050614def614de88b8581518110614dd157614dd16157d5565b602002602001015183612fa590919063ffffffff16565b8690612ff4565b945050508080614dfe9061588b565b915050614c84565b50965096945050505050565b6000606085516001600160401b03811115614e2f57614e2f61506e565b604051908082528060200260200182016040528015614e58578160200160208202803683370190505b509050670de0b6b3a7640000915060005b8851811015614e0657600085878381518110614e8757614e876157d5565b60200260200101511115614f22576000614eac614cbe670de0b6b3a7640000896158a6565b90506000818a8581518110614ec357614ec36157d5565b6020026020010151614ed591906158a6565b90506000614ee38289612257565b9050614eef81836158a6565b614ef990846158bd565b935080868681518110614f0e57614f0e6157d5565b602002602001018181525050505050614f3f565b878281518110614f3457614f346157d5565b602002602001015190505b6000614f718b8481518110614f5657614f566157d5565b6020026020010151838d8681518110614361576143616157d5565b9050614f8b614de88b8581518110614dd157614dd16157d5565b945050508080614f9a9061588b565b915050614e69565b600060208083528351808285015260005b81811015614fcf57858101830151858201604001528201614fb3565b81811115614fe1576000604083870101525b50601f01601f1916929092016040019392505050565b6001600160a01b03811681146106dd57600080fd5b80356131c081614ff7565b6000806040838503121561502a57600080fd5b823561503581614ff7565b946020939093013593505050565b80151581146106dd57600080fd5b60006020828403121561506357600080fd5b813561158781615043565b634e487b7160e01b600052604160045260246000fd5b604051606081016001600160401b03811182821017156150a6576150a661506e565b60405290565b604080519081016001600160401b03811182821017156150a6576150a661506e565b60405161012081016001600160401b03811182821017156150a6576150a661506e565b604051601f8201601f191681016001600160401b03811182821017156151195761511961506e565b604052919050565b60006001600160401b0382111561513a5761513a61506e565b5060051b60200190565b8035600381106131c057600080fd5b6000602080838503121561516657600080fd5b82356001600160401b0381111561517c57600080fd5b8301601f8101851361518d57600080fd5b80356151a061519b82615121565b6150f1565b818152606091820283018401918482019190888411156151bf57600080fd5b938501935b838510156152105780858a0312156151dc5760008081fd5b6151e4615084565b6151ed86615144565b8152858701358782015260408087013590820152835293840193918501916151c4565b50979650505050505050565b600081518084526020808501945080840160005b8381101561524c57815187529582019590820190600101615230565b509495945050505050565b602081526000611587602083018461521c565b60008060006060848603121561527f57600080fd5b833561528a81614ff7565b9250602084013561529a81614ff7565b929592945050506040919091013590565b600080604083850312156152be57600080fd5b50508035926020909101359150565b6000602082840312156152df57600080fd5b5035919050565b600082601f8301126152f757600080fd5b81356001600160401b038111156153105761531061506e565b615323601f8201601f19166020016150f1565b81815284602083860101111561533857600080fd5b816020850160208301376000918101602001919091529392505050565b600080600080600080600060e0888a03121561537057600080fd5b8735965060208089013561538381614ff7565b9650604089013561539381614ff7565b955060608901356001600160401b03808211156153af57600080fd5b818b0191508b601f8301126153c357600080fd5b81356153d161519b82615121565b81815260059190911b8301840190848101908e8311156153f057600080fd5b938501935b8285101561540e578435825293850193908501906153f5565b9850505060808b0135955060a08b0135945060c08b013592508083111561543457600080fd5b50506154428a828b016152e6565b91505092959891949750929550565b828152604060208201526000611f15604083018461521c565b6000602080838503121561547d57600080fd5b82356001600160401b0381111561549357600080fd5b8301601f810185136154a457600080fd5b80356154b261519b82615121565b81815260069190911b820183019083810190878311156154d157600080fd5b928401925b82841015613f1e57604084890312156154ef5760008081fd5b6154f76150ac565b61550085615144565b815284860135868201528252604090930192908401906154d6565b6020808252825182820181905260009190848201906040850190845b8181101561555357835183529284019291840191600101615537565b50909695505050505050565b60006020828403121561557157600080fd5b813561158781614ff7565b60408152600061558f604083018561521c565b8281036020840152612351818561521c565b6000602082840312156155b357600080fd5b81356001600160e01b03198116811461158757600080fd5b8035600281106131c057600080fd5b6000806000606084860312156155ef57600080fd5b83356001600160401b038082111561560657600080fd5b90850190610120828803121561561b57600080fd5b6156236150ce565b61562c836155cb565b815261563a6020840161500c565b602082015261564b6040840161500c565b6040820152606083013560608201526080830135608082015260a083013560a082015261567a60c0840161500c565b60c082015261568b60e0840161500c565b60e082015261010080840135838111156156a457600080fd5b6156b08a8287016152e6565b9183019190915250976020870135975060409096013595945050505050565b6000602082840312156156e157600080fd5b61158782615144565b600080600080600080600060e0888a03121561570557600080fd5b873561571081614ff7565b9650602088013561572081614ff7565b95506040880135945060608801359350608088013560ff8116811461574457600080fd5b9699959850939692959460a0840135945060c09093013592915050565b6000806040838503121561577457600080fd5b823561577f81614ff7565b9150602083013561578f81614ff7565b809150509250929050565b600181811c908216806157ae57607f821691505b602082108114156157cf57634e487b7160e01b600052602260045260246000fd5b50919050565b634e487b7160e01b600052603260045260246000fd5b634e487b7160e01b600052602160045260246000fd5b6003811061581f57634e487b7160e01b600052602160045260246000fd5b9052565b600060a08201905084825261583c602083018551615801565b602084015160408381019190915290930151606082015260800152919050565b60006020828403121561586e57600080fd5b5051919050565b634e487b7160e01b600052601160045260246000fd5b600060001982141561589f5761589f615875565b5060010190565b6000828210156158b8576158b8615875565b500390565b600082198211156158d0576158d0615875565b500190565b60008160001904831182151516156158ef576158ef615875565b500290565b838152606081016159086020830185615801565b826040830152949350505050565b600082601f83011261592757600080fd5b8151602061593761519b83615121565b82815260059290921b8401810191818101908684111561595657600080fd5b8286015b84811015615971578051835291830191830161595a565b509695505050505050565b60008060006060848603121561599157600080fd5b83516001600160401b03808211156159a857600080fd5b818601915086601f8301126159bc57600080fd5b815160206159cc61519b83615121565b82815260059290921b8401810191818101908a8411156159eb57600080fd5b948201945b83861015615a12578551615a0381614ff7565b825294820194908201906159f0565b91890151919750909350505080821115615a2b57600080fd5b50615a3886828701615916565b925050604084015190509250925092565b8183823760009101908152919050565b634e487b7160e01b600052601260045260246000fd5b600082615a7e57615a7e615a59565b500490565b84815260808101615a976020830186615801565b60408201939093526060015292915050565b600060208284031215615abb57600080fd5b815161158781614ff7565b600060208284031215615ad857600080fd5b815161158781615043565b60008083128015600160ff1b850184121615615b0157615b01615875565b6001600160ff1b0384018313811615615b1c57615b1c615875565b50500390565b600080821280156001600160ff1b0384900385131615615b4457615b44615875565b600160ff1b8390038412811615615b5d57615b5d615875565b50500190565b600082615b7257615b72615a59565b600160ff1b821460001984141615615b8c57615b8c615875565b500590565b600481106106dd57600080fd5b600060208284031215615bb057600080fd5b815161158781615b91565b60008060408385031215615bce57600080fd5b8251615bd981615b91565b60208401519092506001600160401b03811115615bf557600080fd5b615c0185828601615916565b9150509250929050565b60006001600160ff1b0381841382841380821686840486111615615c3157615c31615875565b600160ff1b6000871282811687830589121615615c5057615c50615875565b60008712925087820587128484161615615c6c57615c6c615875565b87850587128184161615615c8257615c82615875565b505050929093029392505050565b600082615c9f57615c9f615a59565b500790565b6000600160ff1b821415615cba57615cba615875565b5060000390565b600080600060608486031215615cd657600080fd5b8351615ce181615b91565b602085015160409095015190969495509392505050565b60008060408385031215615d0b57600080fd5b8251615d1681615b91565b6020939093015192949293505050565b600080600060608486031215615d3b57600080fd5b8351615d4681615b91565b60208501519093506001600160401b03811115615d6257600080fd5b615a3886828701615916565b600082615d7d57615d7d615a59565b50069056fea2646970667358221220837ceef34011f90db05827d1f6dec85caa81da302cb1c8a26cb10b5047c144f264736f6c63430008090033",
  "linkReferences": {
    "contracts/libraries/oracle/QueryProcessor.sol": {
      "QueryProcessor": [
        {
          "length": 20,
          "start": 5556
        },
        {
          "length": 20,
          "start": 7798
        },
        {
          "length": 20,
          "start": 11440
        }
      ]
    }
  },
  "deployedLinkReferences": {
    "contracts/libraries/oracle/QueryProcessor.sol": {
      "QueryProcessor": [
        {
          "length": 20,
          "start": 1946
        },
        {
          "length": 20,
          "start": 4188
        },
        {
          "length": 20,
          "start": 7830
        }
      ]
    }
  }
}