{
  "_format": "hh-sol-artifact-1",
  "contractName": "MockInternalBalanceRelayer",
  "sourceName": "contracts/test/vault/MockInternalBalanceRelayer.sol",
  "abi": [
    {
      "inputs": [
        {
          "internalType": "contract IVault",
          "name": "_vault",
          "type": "address"
        }
      ],
      "stateMutability": "nonpayable",
      "type": "constructor"
    },
    {
      "inputs": [
        {
          "internalType": "address payable",
          "name": "sender",
          "type": "address"
        },
        {
          "internalType": "contract IAsset",
          "name": "asset",
          "type": "address"
        },
        {
          "internalType": "uint256[]",
          "name": "depositAmounts",
          "type": "uint256[]"
        },
        {
          "internalType": "uint256[]",
          "name": "withdrawAmounts",
          "type": "uint256[]"
        }
      ],
      "name": "depositAndWithdraw",
      "outputs": [],
      "stateMutability": "nonpayable",
      "type": "function"
    },
    {
      "inputs": [],
      "name": "vault",
      "outputs": [
        {
          "internalType": "contract IVault",
          "name": "",
          "type": "address"
        }
      ],
      "stateMutability": "view",
      "type": "function"
    }
  ],
  "bytecode": "0x608060405234801561001057600080fd5b506040516105fb3803806105fb83398101604081905261002f91610054565b600080546001600160a01b0319166001600160a01b0392909216919091179055610084565b60006020828403121561006657600080fd5b81516001600160a01b038116811461007d57600080fd5b9392505050565b610568806100936000396000f3fe608060405234801561001057600080fd5b50600436106100365760003560e01c80637b58efc11461003b578063fbfa77cf14610050575b600080fd5b61004e6100493660046103b9565b61007f565b005b600054610063906001600160a01b031681565b6040516001600160a01b03909116815260200160405180910390f35b61008b825182516101bc565b60005b82518110156101b55760006100bf600087878786815181106100b2576100b2610442565b60200260200101516101cd565b6000546040516303a38fa160e21b81529192506001600160a01b031690630e8e3e84906100f090849060040161046e565b600060405180830381600087803b15801561010a57600080fd5b505af115801561011e573d6000803e3d6000fd5b50505050600061013d600188888787815181106100b2576100b2610442565b6000546040516303a38fa160e21b81529192506001600160a01b031690630e8e3e849061016e90849060040161046e565b600060405180830381600087803b15801561018857600080fd5b505af115801561019c573d6000803e3d6000fd5b50505050505080806101ad90610509565b91505061008e565b5050505050565b6101c9818314606761029a565b5050565b604080516001808252818301909252606091816020015b6040805160a0810182526000808252602080830182905292820181905260608201819052608082015282526000199092019101816101e45790505090506040518060a0016040528086600381111561023e5761023e610458565b8152602001846001600160a01b03168152602001838152602001856001600160a01b03168152602001856001600160a01b03168152508160008151811061028757610287610442565b6020026020010181905250949350505050565b816101c95762461bcd60e51b600090815260206004526007602452600a808304818104828106603090810160101b848706949093060160081b92909201016642414c230000300160c81b6044526101c991606490fd5b6001600160a01b038116811461030557600080fd5b50565b634e487b7160e01b600052604160045260246000fd5b600082601f83011261032f57600080fd5b8135602067ffffffffffffffff8083111561034c5761034c610308565b8260051b604051601f19603f8301168101818110848211171561037157610371610308565b60405293845285810183019383810192508785111561038f57600080fd5b83870191505b848210156103ae57813583529183019190830190610395565b979650505050505050565b600080600080608085870312156103cf57600080fd5b84356103da816102f0565b935060208501356103ea816102f0565b9250604085013567ffffffffffffffff8082111561040757600080fd5b6104138883890161031e565b9350606087013591508082111561042957600080fd5b506104368782880161031e565b91505092959194509250565b634e487b7160e01b600052603260045260246000fd5b634e487b7160e01b600052602160045260246000fd5b60208082528251828201819052600091906040908185019086840185805b838110156104fb578251805160048082106104b457634e487b7160e01b855260218152602485fd5b508652808801516001600160a01b03908116898801528782015188880152606080830151821690880152608091820151169086015260a0909401939186019160010161048c565b509298975050505050505050565b600060001982141561052b57634e487b7160e01b600052601160045260246000fd5b506001019056fea2646970667358221220073eed23e286325460a118d6ebd8bc4bb456e20bfe4bb39f9e8e64068269c01364736f6c63430008090033",
  "linkReferences": {},
  "deployedLinkReferences": {}
}