{
  "address": "0xEb99054e50CeaB1E1fd586704cC045d5BeB44f55",
  "abi": [
    {
      "inputs": [
        {
          "internalType": "contract IVault",
          "name": "vault",
          "type": "address"
        },
        {
          "internalType": "address",
          "name": "_formula",
          "type": "address"
        }
      ],
      "stateMutability": "nonpayable",
      "type": "constructor"
    },
    {
      "anonymous": false,
      "inputs": [
        {
          "indexed": true,
          "internalType": "address",
          "name": "pool",
          "type": "address"
        }
      ],
      "name": "PoolCreated",
      "type": "event"
    },
    {
      "inputs": [
        {
          "internalType": "string",
          "name": "name",
          "type": "string"
        },
        {
          "internalType": "string",
          "name": "symbol",
          "type": "string"
        },
        {
          "internalType": "contract IERC20[]",
          "name": "tokens",
          "type": "address[]"
        },
        {
          "internalType": "uint256[]",
          "name": "weights",
          "type": "uint256[]"
        },
        {
          "internalType": "uint256",
          "name": "swapFeePercentage",
          "type": "uint256"
        },
        {
          "internalType": "bool",
          "name": "oracleEnabled",
          "type": "bool"
        },
        {
          "internalType": "address",
          "name": "owner",
          "type": "address"
        }
      ],
      "name": "create",
      "outputs": [
        {
          "internalType": "address",
          "name": "",
          "type": "address"
        }
      ],
      "stateMutability": "nonpayable",
      "type": "function"
    },
    {
      "inputs": [],
      "name": "formula",
      "outputs": [
        {
          "internalType": "address",
          "name": "",
          "type": "address"
        }
      ],
      "stateMutability": "view",
      "type": "function"
    },
    {
      "inputs": [],
      "name": "getCreationCode",
      "outputs": [
        {
          "internalType": "bytes",
          "name": "",
          "type": "bytes"
        }
      ],
      "stateMutability": "view",
      "type": "function"
    },
    {
      "inputs": [],
      "name": "getCreationCodeContracts",
      "outputs": [
        {
          "internalType": "address",
          "name": "contractA",
          "type": "address"
        },
        {
          "internalType": "address",
          "name": "contractB",
          "type": "address"
        }
      ],
      "stateMutability": "view",
      "type": "function"
    },
    {
      "inputs": [],
      "name": "getPauseConfiguration",
      "outputs": [
        {
          "internalType": "uint256",
          "name": "pauseWindowDuration",
          "type": "uint256"
        },
        {
          "internalType": "uint256",
          "name": "bufferPeriodDuration",
          "type": "uint256"
        }
      ],
      "stateMutability": "view",
      "type": "function"
    },
    {
      "inputs": [],
      "name": "getVault",
      "outputs": [
        {
          "internalType": "contract IVault",
          "name": "",
          "type": "address"
        }
      ],
      "stateMutability": "view",
      "type": "function"
    },
    {
      "inputs": [
        {
          "internalType": "address",
          "name": "pool",
          "type": "address"
        }
      ],
      "name": "isPoolFromFactory",
      "outputs": [
        {
          "internalType": "bool",
          "name": "",
          "type": "bool"
        }
      ],
      "stateMutability": "view",
      "type": "function"
    }
  ],
  "transactionHash": "0xff4a6959b7143e5dbd58d58e3e259a1ec88e76a304e119c9a3fc3886ed96dae2",
  "args": [
    "0xdb27b141f15E54BB34996FA3e5B3538bf3e4cA8F",
    "0xc5Bc8BCEED9F70488213db02e105439CfD177a59"
  ],
  "solcInputHash": "ef4b6f3a008af4ef4bbab0c91377a916",
  "bytecode": "0x6101406040523480156200001257600080fd5b506040516200754e3803806200754e8339810160408190526200003591620001e7565b81604051806020016200004890620001c0565b601f1982820381018352601f909101166040528051819060006200006e6002836200023c565b60a0819052905060006200008382846200025f565b60e0819052828552905083620000a5816200012a602090811b6200037e17901c565b6001600160a01b03166080528285018051838252620000d0826200012a602090811b6200037e17901c565b6001600160a01b0390811660c05295909252525050929092166101005250620000ff90506276a7004262000279565b61012052600180546001600160a01b0319166001600160a01b03929092169190911790555062000294565b80517f602038038060206000396000f3fefefefefefefefefefefefefefefefefefefe808352600091602081018484f090845291506001600160a01b038216620001ba5760405162461bcd60e51b815260206004820152601660248201527f434f44455f4445504c4f594d454e545f4641494c454400000000000000000000604482015260640160405180910390fd5b50919050565b6167a38062000dab83390190565b6001600160a01b0381168114620001e457600080fd5b50565b60008060408385031215620001fb57600080fd5b82516200020881620001ce565b60208401519092506200021b81620001ce565b809150509250929050565b634e487b7160e01b600052601160045260246000fd5b6000826200025a57634e487b7160e01b600052601260045260246000fd5b500490565b60008282101562000274576200027462000226565b500390565b600082198211156200028f576200028f62000226565b500190565b60805160a05160c05160e0516101005161012051610ab4620002f7600039600081816102f3015261031f0152600061035c0152600061047301526000818160ed01526104520152600061043101526000818160c801526104100152610ab46000f3fe608060405234801561001057600080fd5b506004361061006c5760003560e01c8062c194db146100715780631596019b1461008f578063174481fa146100ba5780632da47c40146101185780634b75f54f146101355780636634b753146101485780638d928af814610184575b600080fd5b61007961018c565b6040516100869190610635565b60405180910390f35b6100a261009d366004610827565b6101ab565b6040516001600160a01b039091168152602001610086565b604080516001600160a01b037f0000000000000000000000000000000000000000000000000000000000000000811682527f000000000000000000000000000000000000000000000000000000000000000016602082015201610086565b6101206102ed565b60408051928352602083019190915201610086565b6001546100a2906001600160a01b031681565b61017461015636600461090b565b6001600160a01b031660009081526020819052604090205460ff1690565b6040519015158152602001610086565b6100a261035a565b60606101a66040518060200160405280600081525061040c565b905090565b60008060006101b86102ed565b915091506000604051806101a001604052806101d261035a565b6001600160a01b031681526020018c81526020018b81526020018a6000815181106101ff576101ff610928565b60200260200101516001600160a01b031681526020018a60018151811061022857610228610928565b60200260200101516001600160a01b031681526020018960008151811061025157610251610928565b602002602001015181526020018960018151811061027157610271610928565b602002602001015181526020018881526020018481526020018381526020018715158152602001866001600160a01b03168152602001306001600160a01b031681525090506102de816040516020016102ca919061093e565b6040516020818303038152906040526104f8565b9b9a5050505050505050505050565b600080427f000000000000000000000000000000000000000000000000000000000000000081101561034f57610343817f0000000000000000000000000000000000000000000000000000000000000000610a4f565b9362278d009350915050565b506000928392509050565b7f000000000000000000000000000000000000000000000000000000000000000090565b80517f602038038060206000396000f3fefefefefefefefefefefefefefefefefefefe808352600091602081018484f090845291506001600160a01b0382166104065760405162461bcd60e51b815260206004820152601660248201527510d3d11157d111541313d65351539517d1905253115160521b604482015260640160405180910390fd5b50919050565b60607f00000000000000000000000000000000000000000000000000000000000000007f00000000000000000000000000000000000000000000000000000000000000007f00000000000000000000000000000000000000000000000000000000000000007f0000000000000000000000000000000000000000000000000000000000000000600061049e8285610a66565b875190915060006104af8284610a66565b9050604051975060208101880160405280885260208801866000828a3c846000888301883c50602089810190898501016104ea818386610558565b505050505050505050919050565b600080610504836105ae565b6001600160a01b038116600081815260208190526040808220805460ff191660011790555192935090917f83a48fbcfc991335314e74d0496aab6a1987e992ddc85dddbcc4d6dd6ef2e9fc9190a292915050565b60208110610590578151835261056f602084610a66565b925061057c602083610a66565b9150610589602082610a4f565b9050610558565b905182516020929092036101000a6000190180199091169116179052565b6000806105ba8361040c565b905060008151602083016000f090506001600160a01b0381166105e1573d6000803e3d6000fd5b9392505050565b6000815180845260005b8181101561060e576020818501810151868301820152016105f2565b81811115610620576000602083870101525b50601f01601f19169290920160200192915050565b6020815260006105e160208301846105e8565b634e487b7160e01b600052604160045260246000fd5b604051601f8201601f191681016001600160401b038111828210171561068657610686610648565b604052919050565b600082601f83011261069f57600080fd5b81356001600160401b038111156106b8576106b8610648565b6106cb601f8201601f191660200161065e565b8181528460208386010111156106e057600080fd5b816020850160208301376000918101602001919091529392505050565b60006001600160401b0382111561071657610716610648565b5060051b60200190565b6001600160a01b038116811461073557600080fd5b50565b600082601f83011261074957600080fd5b8135602061075e610759836106fd565b61065e565b82815260059290921b8401810191818101908684111561077d57600080fd5b8286015b848110156107a157803561079481610720565b8352918301918301610781565b509695505050505050565b600082601f8301126107bd57600080fd5b813560206107cd610759836106fd565b82815260059290921b840181019181810190868411156107ec57600080fd5b8286015b848110156107a157803583529183019183016107f0565b8035801515811461081757600080fd5b919050565b803561081781610720565b600080600080600080600060e0888a03121561084257600080fd5b87356001600160401b038082111561085957600080fd5b6108658b838c0161068e565b985060208a013591508082111561087b57600080fd5b6108878b838c0161068e565b975060408a013591508082111561089d57600080fd5b6108a98b838c01610738565b965060608a01359150808211156108bf57600080fd5b506108cc8a828b016107ac565b945050608088013592506108e260a08901610807565b91506108f060c0890161081c565b905092959891949750929550565b6001600160a01b03169052565b60006020828403121561091d57600080fd5b81356105e181610720565b634e487b7160e01b600052603260045260246000fd5b602081526109506020820183516108fe565b600060208301516101a080604085015261096e6101c08501836105e8565b91506040850151601f1985840301606086015261098b83826105e8565b92505060608501516109a060808601826108fe565b5060808501516109b360a08601826108fe565b5060a085015160c085015260c085015160e085015260e0850151610100818187015280870151915050610120818187015280870151915050610140818187015280870151915050610160610a0a8187018315159052565b8601519050610180610a1e868201836108fe565b8601519050610a2f858301826108fe565b5090949350505050565b634e487b7160e01b600052601160045260246000fd5b600082821015610a6157610a61610a39565b500390565b60008219821115610a7957610a79610a39565b50019056fea26469706673582212203795794eb70866d75b3e49482406247f223b9e32e4bdeb00bbd44291bdae6d6064736f6c634300080a00336102c06040527f6e71edae12b1b97f4d1f60370fef10105fa2faae0126114a169c64845d6126c9610120523480156200003757600080fd5b50604051620067a3380380620067a38339810160408190526200005a9162000a5e565b6101008101516101208201516020808401516040808601518651825180840190935260018352603160f81b838601526101608801513360601b6080526001600160a01b031660a05283519394919390928592839283918791620000c4916003919085019062000872565b508051620000da90600490602084019062000872565b50506005805460ff1916601217905550815160209283012060c05280519082012060e0527f8b73c3c69bb8fe3d512ecc4cf759cc79239f7b179b0ffacaa9a75d522b39400f610100526001600160a01b0390921661014052506200015592506276a70085111591506101949062001352620005a7821b17901c565b6200017462278d00821115610195620005a760201b620013521760201c565b600062000182834262000bc1565b610160819052905062000196828262000bc1565b61018052505050610140810151620001ae90620005c7565b60e0810151620001be906200061f565b80516040516309b2760f60e01b81526000916001600160a01b0316906309b2760f90620001f19060029060040162000bdc565b6020604051808303816000875af115801562000211573d6000803e3d6000fd5b505050506040513d601f19601f8201168201806040525081019062000237919062000c05565b604080516002808252606082018352929350600092909160208301908036833701905050905082606001518160008151811062000278576200027862000c1f565b60200260200101906001600160a01b031690816001600160a01b031681525050826080015181600181518110620002b357620002b362000c1f565b6001600160a01b0392831660209182029290920101528351166366a9c7d283836002604051908082528060200260200182016040528015620002ff578160200160208202803683370190505b506040518463ffffffff1660e01b8152600401620003209392919062000c35565b600060405180830381600087803b1580156200033b57600080fd5b505af115801562000350573d6000803e3d6000fd5b5050506101a0839052506060830180516001600160a01b039081166101c0526080850151166101e052516200038590620006b2565b6102605260808301516200039990620006b2565b61028081815250508261018001516001600160a01b0316634b75f54f6040518163ffffffff1660e01b8152600401602060405180830381865afa158015620003e5573d6000803e3d6000fd5b505050506040513d601f19601f820116820180604052508101906200040b919062000cd1565b6001600160a01b03166102a081905260408051631060c1e160e21b815290516200049c929163418307849160048083019260209291908290030181865afa1580156200045b573d6000803e3d6000fd5b505050506040513d601f19601f8201168201806040525081019062000481919062000c05565b8460a00151101561012e620005a760201b620013521760201c565b620005236102a0516001600160a01b031663418307846040518163ffffffff1660e01b8152600401602060405180830381865afa158015620004e2573d6000803e3d6000fd5b505050506040513d601f19601f8201168201806040525081019062000508919062000c05565b8460c00151101561012e620005a760201b620013521760201c565b6000620005478460c001518560a001516200074560201b620013641790919060201c565b90506200056c670de0b6b3a76400008214610134620005a760201b620013521760201c565b60a0840180516102005260c0850180516102205251905110156200059257600162000595565b60005b60ff16610240525062000e7892505050565b81620005c357620005c381620007a360201b620013b91760201c565b5050565b620005e381600954620007f660201b6200140c1790919060201c565b60095560405181151581527f3e350b41e86a8e10f804ade6d35340d620be35569cc75ac943e8bb14ab80ead1906020015b60405180910390a150565b6200063f64e8d4a5100082101560cb620005a760201b620013521760201c565b6200066267016345785d8a000082111560ca620005a760201b620013521760201c565b6200067e816009546200081560201b6200141a1790919060201c565b6009556040518181527fa9ba3ffe0b6c366b81232caab38605a0699ad5398d6cce76f91ee809e322dafc9060200162000614565b600080826001600160a01b031663313ce5676040518163ffffffff1660e01b8152600401602060405180830381865afa158015620006f4573d6000803e3d6000fd5b505050506040513d601f19601f820116820180604052508101906200071a919062000cf1565b60ff16905060006200072e82601262000d16565b90506200073d81600a62000e2d565b949350505050565b60008062000754838562000bc1565b9050838110156200079a5760405162461bcd60e51b815260206004820152600c60248201526b4144445f4f564552464c4f5760a01b604482015260640160405180910390fd5b90505b92915050565b62461bcd60e51b6000908152602060045260076024526642414c23000030600a808404818106603090810160081b95839006959095019082900491820690940160101b939093010160c81b604452606490fd5b60006200079a826055856200083460201b62001428179092919060201c565b60006200079a826056856200085d60201b6200144f179092919060201c565b60006001821b19841682846200084c5760006200084f565b60015b60ff16901b17949350505050565b6001600160401b03811b1992909216911b1790565b828054620008809062000e3b565b90600052602060002090601f016020900481019282620008a45760008555620008ef565b82601f10620008bf57805160ff1916838001178555620008ef565b82800160010185558215620008ef579182015b82811115620008ef578251825591602001919060010190620008d2565b50620008fd92915062000901565b5090565b5b80821115620008fd576000815560010162000902565b634e487b7160e01b600052604160045260246000fd5b6040516101a081016001600160401b038111828210171562000954576200095462000918565b60405290565b604051601f8201601f191681016001600160401b038111828210171562000985576200098562000918565b604052919050565b6001600160a01b0381168114620009a357600080fd5b50565b8051620009b3816200098d565b919050565b600082601f830112620009ca57600080fd5b81516001600160401b03811115620009e657620009e662000918565b6020620009fc601f8301601f191682016200095a565b828152858284870101111562000a1157600080fd5b60005b8381101562000a3157858101830151828201840152820162000a14565b8381111562000a435760008385840101525b5095945050505050565b80518015158114620009b357600080fd5b60006020828403121562000a7157600080fd5b81516001600160401b038082111562000a8957600080fd5b908301906101a0828603121562000a9f57600080fd5b62000aa96200092e565b62000ab483620009a6565b815260208301518281111562000ac957600080fd5b62000ad787828601620009b8565b60208301525060408301518281111562000af057600080fd5b62000afe87828601620009b8565b60408301525062000b1260608401620009a6565b606082015262000b2560808401620009a6565b608082015260a0838101519082015260c0808401519082015260e0808401519082015261010080840151908201526101208084015190820152610140915062000b7082840162000a4d565b82820152610160915062000b86828401620009a6565b82820152610180915062000b9c828401620009a6565b91810191909152949350505050565b634e487b7160e01b600052601160045260246000fd5b6000821982111562000bd75762000bd762000bab565b500190565b602081016003831062000bff57634e487b7160e01b600052602160045260246000fd5b91905290565b60006020828403121562000c1857600080fd5b5051919050565b634e487b7160e01b600052603260045260246000fd5b6000606082018583526020606081850152818651808452608086019150828801935060005b8181101562000c815784516001600160a01b03168352938301939183019160010162000c5a565b50508481036040860152855180825290820192508186019060005b8181101562000cc35782516001600160a01b03168552938301939183019160010162000c9c565b509298975050505050505050565b60006020828403121562000ce457600080fd5b81516200079a816200098d565b60006020828403121562000d0457600080fd5b815160ff811681146200079a57600080fd5b60008282101562000d2b5762000d2b62000bab565b500390565b600181815b8085111562000d7157816000190482111562000d555762000d5562000bab565b8085161562000d6357918102915b93841c939080029062000d35565b509250929050565b60008262000d8a575060016200079d565b8162000d99575060006200079d565b816001811462000db2576002811462000dbd5762000ddd565b60019150506200079d565b60ff84111562000dd15762000dd162000bab565b50506001821b6200079d565b5060208310610133831016604e8410600b841016171562000e02575081810a6200079d565b62000e0e838362000d30565b806000190482111562000e255762000e2562000bab565b029392505050565b60006200079a838362000d79565b600181811c9082168062000e5057607f821691505b6020821081141562000e7257634e487b7160e01b600052602260045260246000fd5b50919050565b60805160a05160c05160e05161010051610120516101405161016051610180516101a0516101c0516101e05161020051610220516102405161026051610280516102a0516157d562000fce60003960008181610fc601528181611a3201528181611b2501528181611efc01528181611fcc015281816123990152818161244c015281816126ff01528181612bfd01528181613adc01528181613bf001528181613ccd01528181613df101528181613eed0152613f41015260006120ea01526000612110015260008181612c2d01528181612c670152612d0501526000818161213e01526121da015260008181612164015281816121b801526122080152600050506000610d1a015260006108f2015260006115b40152600061159001526000610cc0015260006110740152600061186a015260006118ac0152600061188b01526000610c9c01526000610c1401526157d56000f3fe608060405234801561001057600080fd5b50600436106101ee5760003560e01c806306fdde03146101f3578063095ea7b31461021157806316c38b3c1461023457806318160ddd146102495780631c0de0511461025b5780631dccd8301461028057806323b872dd146102a0578063292c914a146102b3578063313ce567146102bb5780633331bc36146102d05780633644e515146102e357806338e9922e146102eb57806338fff2d0146102fe57806339509351146103065780634a6b0b151461031957806355c67628146103505780636028bfd41461035857806360d1507c14610379578063679aefce146103c15780636b843239146103c957806370a08231146103e957806374f3b009146104125780637ecebe0014610433578063851c1bb31461045c57806387ec68171461046f578063893d20e8146104825780638d928af8146104a257806395d89b41146104aa5780639b02cdde146104b25780639d2c110c146104ba578063a457c2d7146104cd578063a9059cbb146104e0578063aaabadc5146104f3578063b10be739146104fb578063b48b5b401461050e578063c0ff1a1514610516578063c45a01551461051e578063d505accf14610531578063d5c096c414610544578063dd62ed3e14610557578063f89f27ed1461056a578063ffd088eb14610572575b600080fd5b6101fb61057b565b60405161020891906148ba565b60405180910390f35b61022461021f36600461492f565b61060d565b6040519015158152602001610208565b610247610242366004614969565b610624565b005b6002545b604051908152602001610208565b610263610638565b604080519315158452602084019290925290820152606001610208565b61029361028e366004614a6b565b610661565b6040516102089190614b6f565b6102246102ae366004614b82565b610719565b6102476107df565b60055460405160ff9091168152602001610208565b6102476102de366004614bc3565b610814565b61024d6108c8565b6102476102f9366004614be5565b6108d7565b61024d6108f0565b61022461031436600461492f565b610914565b61032161094b565b6040805196875260208701959095529385019290925260608401521515608083015260a082015260c001610208565b61024d6109a6565b61036b610366366004614c6d565b6109b3565b604051610208929190614d69565b61038c610387366004614be5565b6109e4565b604080519788526020880196909652948601939093526060850191909152608084015260a083015260c082015260e001610208565b61024d610a67565b6103dc6103d7366004614d82565b610a8e565b6040516102089190614e33565b61024d6103f7366004614e77565b6001600160a01b031660009081526020819052604090205490565b610425610420366004614c6d565b610b6b565b604051610208929190614e94565b61024d610441366004614e77565b6001600160a01b031660009081526006602052604090205490565b61024d61046a366004614eb9565b610c10565b61036b61047d366004614c6d565b610c75565b61048a610c9a565b6040516001600160a01b039091168152602001610208565b61048a610cbe565b6101fb610ce2565b600a5461024d565b61024d6104c8366004614ef2565b610cf1565b6102246104db36600461492f565b610ea5565b6102246104ee36600461492f565b610ee5565b61048a610ef2565b61024d610509366004614fe7565b610efc565b61040061024d565b61024d610f11565b600b5461048a906001600160a01b031681565b61024761053f366004615002565b611045565b610425610552366004614c6d565b6111b5565b61024d610565366004615079565b6112e9565b610293611348565b6201de2061024d565b60606003805461058a906150b2565b80601f01602080910402602001604051908101604052809291908181526020018280546105b6906150b2565b80156106035780601f106105d857610100808354040283529160200191610603565b820191906000526020600020905b8154815290600101906020018083116105e657829003601f168201915b5050505050905090565b600061061a338484611464565b5060015b92915050565b61062c6114c6565b610635816114f4565b50565b6000806000610645611571565b15925061065061158e565b915061065a6115b2565b9050909192565b606081516001600160401b0381111561067c5761067c614986565b6040519080825280602002602001820160405280156106a5578160200160208202803683370190505b50905060006106b26115d6565b905060005b8351811015610712576106e560088583815181106106d7576106d76150ed565b6020026020010151846115e3565b8382815181106106f7576106f76150ed565b602090810291909101015261070b81615119565b90506106b7565b5050919050565b60008061072685336112e9565b9050336001600160a01b038616148061073f5750828110155b6107905760405162461bcd60e51b815260206004820181905260248201527f45524332305f5452414e534645525f455843454544535f414c4c4f57414e434560448201526064015b60405180910390fd5b61079b858585611698565b336001600160a01b038616148015906107bb57506001600160801b038114155b156107d4576107d485336107cf8685615134565b611464565b506001949350505050565b6107e761175b565b6107ef6114c6565b6107f9600161176e565b600061080460025490565b1115610812576108126117b0565b565b808210801561082557506104008111155b6108615760405162461bcd60e51b815260206004820152600d60248201526c4f55545f4f465f424f554e445360981b6044820152606401610787565b600061087660016000806000806000806117f9565b9050825b828110156108c25760008181526008602052604090205461089a90611858565b6108b05760008181526008602052604090208290555b806108ba81615119565b91505061087a565b50505050565b60006108d2611866565b905090565b6108df6114c6565b6108e761175b565b6106358161190c565b7f000000000000000000000000000000000000000000000000000000000000000090565b3360008181526001602090815260408083206001600160a01b0387168452909152812054909161061a9185906107cf90869061514b565b6000806000806000806000600954905061096481611975565b965061096f81611981565b955061097a8161198e565b9450610985816119a0565b9350610990816119b0565b925061099b816119c1565b915050909192939495565b60006108d26009546119c1565b600060606109c3865160026119d6565b6109d8898989898989896119e3611bae611c44565b97509795505050505050565b60008060008060008060006104008810610a375760405162461bcd60e51b815260206004820152601460248201527309ea48286988abe929cac82989288be929c888ab60631b6044820152606401610787565b600088815260086020526040902054610a4f81611d62565b959f949e50929c50909a509850965090945092505050565b60006108d2610a7560025490565b610a7d610f11565b610a88906002615163565b90611dc5565b606081516001600160401b03811115610aa957610aa9614986565b604051908082528060200260200182016040528015610ad2578160200160208202803683370190505b5090506000610adf6115d6565b9050610afb604080518082019091526000808252602082015290565b60005b8451811015610b6357848181518110610b1957610b196150ed565b60200260200101519150610b368260000151848460200151611e49565b848281518110610b4857610b486150ed565b6020908102919091010152610b5c81615119565b9050610afe565b505050919050565b60608088610b95610b7a610cbe565b6001600160a01b0316336001600160a01b03161460cd611352565b610baa610ba06108f0565b82146101f4611352565b610bb387611e60565b6000806000610bc78d8d8d8d8d8d8d6119e3565b925092509250610bd78c84611edd565b610be082611bae565b610be981611bae565b610bf1611571565b15610bfe57610bfe6117b0565b909c909b509950505050505050505050565b60007f000000000000000000000000000000000000000000000000000000000000000082604051602001610c589291909182526001600160e01b031916602082015260240190565b604051602081830303815290604052805190602001209050919050565b60006060610c85865160026119d6565b6109d889898989898989611ee7612071611c44565b7f000000000000000000000000000000000000000000000000000000000000000090565b7f000000000000000000000000000000000000000000000000000000000000000090565b60606004805461058a906150b2565b6000610cfb61175b565b8360800151610d0b610b7a610cbe565b610d16610ba06108f0565b60007f00000000000000000000000000000000000000000000000000000000000000006001600160a01b031686602001516001600160a01b03161490506000610d5e826120e1565b90506000610d6c83156120e1565b90506000610d7984612135565b90506000610d878515612135565b9050610d938985612189565b9850610d9f8884612189565b9750610dc78a60a0015186610db45789610db6565b8a5b87610dc1578b612195565b8a612195565b60008a516001811115610ddc57610ddc615182565b1415610e4a576000610dfa610def6109a6565b60608d015190612296565b9050610e1c610e16828d6060015161232d90919063ffffffff16565b86612189565b60608c01526000610e308c8c8c878761237a565b9050610e3c8186612421565b985050505050505050610e9d565b610e588a6060015184612189565b60608b01526000610e6c8b8b8b868661242d565b9050610e788186612487565b9050610e94610e8d610e886109a6565b612493565b82906124bd565b97505050505050505b509392505050565b600080610eb233856112e9565b9050808310610ecc57610ec733856000611464565b610edb565b610edb33856107cf8685615134565b5060019392505050565b600061061a338484611698565b60006108d261253b565b600061061e600883610f0c6115d6565b6125a6565b600080610f1c610cbe565b6001600160a01b031663f94d4668610f326108f0565b6040518263ffffffff1660e01b8152600401610f5091815260200190565b600060405180830381865afa158015610f6d573d6000803e3d6000fd5b505050506040513d6000823e601f3d908101601f19168201604052610f9591908101906151fe565b50915050610fa281611e60565b6000610fac6125f3565b60405163572c58a360e01b81529091506001600160a01b037f0000000000000000000000000000000000000000000000000000000000000000169063572c58a390610ffd9084908690600401614e94565b602060405180830381865afa15801561101a573d6000803e3d6000fd5b505050506040513d601f19601f8201168201806040525081019061103e91906152cb565b9250505090565b6110538442111560d1611352565b6001600160a01b0387811660008181526006602090815260408083205481517f00000000000000000000000000000000000000000000000000000000000000008185015280830195909552948b166060850152608084018a905260a0840185905260c08085018a90528151808603909101815260e090940190528251920191909120906110df8261266e565b6040805160008082526020820180845284905260ff8a169282019290925260608101889052608081018790529192509060019060a0016020604051602081039080840390855afa158015611137573d6000803e3d6000fd5b5050604051601f190151915061117990506001600160a01b0382161580159061117157508b6001600160a01b0316826001600160a01b0316145b6101f8611352565b61118484600161514b565b6001600160a01b038c166000908152600660205260409020556111a88b8b8b611464565b5050505050505050505050565b606080886111c4610b7a610cbe565b6111cf610ba06108f0565b6111d761175b565b60006111e260025490565b611259576111f28b8b8b8861269d565b94509050611207620f424082101560cc611352565b6112156000620f42406127b3565b61122b89611226620f424084615134565b6127b3565b61123484612071565b60408051600280825260608201835290916020830190803683370190505092506112d3565b61126288611e60565b6112a18789600081518110611279576112796150ed565b60200260200101518a600181518110611294576112946150ed565b6020026020010151612195565b6112b08b8b8b8b8b8b8b611ee7565b909550935090506112c189826127b3565b6112ca84612071565b6112d383611bae565b6112db6117b0565b505097509795505050505050565b60006112f3610cbe565b6001600160a01b0316826001600160a01b0316141561131a57506001600160801b0361061e565b6001600160a01b038084166000908152600160209081526040808320938616835292905220545b905061061e565b60606108d26125f3565b8161136057611360816113b9565b5050565b600080611371838561514b565b9050838110156113b25760405162461bcd60e51b815260206004820152600c60248201526b4144445f4f564552464c4f5760a01b6044820152606401610787565b9392505050565b62461bcd60e51b6000908152602060045260076024526642414c23000030600a808404818106603090810160081b95839006959095019082900491820690940160101b939093010160c81b604452606490fd5b60006113b283836055611428565b60006113b28383605661144f565b60006001821b198416828461143e576000611441565b60015b60ff16901b17949350505050565b6001600160401b03811b1992909216911b1790565b6001600160a01b0383811660008181526001602090815260408083209487168084529482529182902085905590518481527f8c5be1e5ebec7d5bd14f71427d1e84f3dd0314c0f7b2291e5b200ac8c7c3b92591015b60405180910390a3505050565b60006114dd6000356001600160e01b031916610c10565b90506106356114ec82336127bd565b610191611352565b80156115145761150f61150561158e565b4210610193611352565b611529565b61152961151f6115b2565b42106101a9611352565b6007805460ff19168215159081179091556040519081527f9e3a5e37224532dea67b89face185703738a228a6e8a23dee546960180d3be64906020015b60405180910390a150565b600061157b6115b2565b4211806108d257505060075460ff161590565b7f000000000000000000000000000000000000000000000000000000000000000090565b7f000000000000000000000000000000000000000000000000000000000000000090565b60006108d26009546119a0565b600082602001516000141561162c5760405162461bcd60e51b815260206004820152600f60248201526e4f5241434c455f4241445f5345435360881b6044820152606401610787565b6000611651858560000151858760200151886040015161164c919061514b565b6128a0565b905060006116698686600001518688604001516128a0565b905061168e8560200151838361167f91906152e4565b6116899190615339565b612af4565b9695505050505050565b6116af6001600160a01b0384161515610198611352565b6116c66001600160a01b0383161515610199611352565b6001600160a01b0383166000908152602081905260409020546116ec90826101a0612b0e565b6001600160a01b03808516600090815260208190526040808220939093559084168152205461171c90829061514b565b6001600160a01b0383811660008181526020818152604091829020949094555184815290929186169160008051602061578083398151915291016114b9565b610812611766611571565b610192611352565b60095461177b908261140c565b60095560405181151581527f3e350b41e86a8e10f804ade6d35340d620be35569cc75ac943e8bb14ab80ead190602001611566565b6009546117bc816119b0565b15610635576117d66117cf600a54612b29565b8290612b77565b90506117f36117ec6117e760025490565b612b29565b8290612b84565b60095550565b60008161180784601f612b92565b623fffff60541b605487901b1661181f88606a612b92565b623fffff609f1b609f8b901b166118378c60b5612b92565b6001600160ea1b031960ea8f901b1617171717171798975050505050505050565b6000637fffffff821661061e565b60007f00000000000000000000000000000000000000000000000000000000000000007f00000000000000000000000000000000000000000000000000000000000000007f000000000000000000000000000000000000000000000000000000000000000046604080516020810195909552840192909252606083015260808201523060a082015260c00160405160208183030381529060405280519060200120905090565b61191f64e8d4a5100082101560cb611352565b61193567016345785d8a000082111560ca611352565b600954611942908261141a565b6009556040518181527fa9ba3ffe0b6c366b81232caab38605a0699ad5398d6cce76f91ee809e322dafc90602001611566565b600061061e8282612ba3565b600061061e826016612ba3565b6000602c82901c637fffffff1661061e565b6000604b82901c6103ff1661061e565b60006001605583901c81161461061e565b6000605682901c6001600160401b031661061e565b6113608183146067611352565b600060608060006119f26125f3565b90506119fc611571565b15611ad057611a188789600081518110611279576112796150ed565b60405163572c58a360e01b81526000906001600160a01b037f0000000000000000000000000000000000000000000000000000000000000000169063572c58a390611a699085908d90600401614e94565b602060405180830381865afa158015611a86573d6000803e3d6000fd5b505050506040513d601f19601f82011682018060405250810190611aaa91906152cb565b9050611abb8983600a54848b612bca565b9250611aca898461232d612d49565b50611af1565b60408051600280825260608201835290916020830190803683370190505091505b611afc888287612dff565b9094509250611b0e888461232d612d49565b60405163572c58a360e01b81526001600160a01b037f0000000000000000000000000000000000000000000000000000000000000000169063572c58a390611b5c9084908c90600401614e94565b602060405180830381865afa158015611b79573d6000803e3d6000fd5b505050506040513d601f19601f82011682018060405250810190611b9d91906152cb565b600a55509750975097945050505050565b611bdb81600081518110611bc457611bc46150ed565b6020026020010151611bd660016120e1565b612e9d565b81600081518110611bee57611bee6150ed565b602002602001018181525050611c2281600181518110611c1057611c106150ed565b6020026020010151611bd660006120e1565b81600181518110611c3557611c356150ed565b60200260200101818152505050565b333014611d02576000306001600160a01b0316600036604051611c68929190615367565b6000604051808303816000865af19150503d8060008114611ca5576040519150601f19603f3d011682016040523d82523d6000602084013e611caa565b606091505b505090508060008114611cb957fe5b60046000803e6000516001600160e01b0319166343adbafb60e01b8114611ce4573d6000803e3d6000fd5b506020600460003e604060205260243d03602460403e601c3d016000f35b611d0b86611e60565b600080611d218b8b8b8b8b8b8b8b63ffffffff16565b5091509150611d33818463ffffffff16565b8051601f1982018390526343adbafb603f1983015260200260231982016044820181fd5b505050505050505050565b6000806000806000806000611d7688612eb6565b9650611d8188612ec3565b9550611d8c88612ed0565b9450611d9788612edd565b9350611da288612eea565b9250611dad88612ef7565b9150611db888611858565b9050919395979092949650565b600081611de45760405162461bcd60e51b815260040161078790615377565b82611df15750600061061e565b6000611e05670de0b6b3a764000085615163565b9050670de0b6b3a7640000611e1a858361539e565b14611e375760405162461bcd60e51b8152600401610787906153b2565b611e41838261539e565b91505061061e565b6000611e5860088585856128a0565b949350505050565b611e6a60016120e1565b81600081518110611e7d57611e7d6150ed565b6020026020010151611e8f9190615163565b81600081518110611ea257611ea26150ed565b602002602001018181525050611eb860006120e1565b81600181518110611ecb57611ecb6150ed565b6020026020010151611c229190615163565b6113608282612f04565b60006060806000611ef66125f3565b905060007f00000000000000000000000000000000000000000000000000000000000000006001600160a01b031663572c58a3838b6040518363ffffffff1660e01b8152600401611f48929190614e94565b602060405180830381865afa158015611f65573d6000803e3d6000fd5b505050506040513d601f19601f82011682018060405250810190611f8991906152cb565b90506000611f9c8a84600a54858c612bca565b9050611fab8a8261232d612d49565b600080611fb98c868b612f9f565b91509150611fca8c82611364612d49565b7f00000000000000000000000000000000000000000000000000000000000000006001600160a01b031663572c58a3868e6040518363ffffffff1660e01b8152600401612018929190614e94565b602060405180830381865afa158015612035573d6000803e3d6000fd5b505050506040513d601f19601f8201168201806040525081019061205991906152cb565b600a55909e909d50909b509950505050505050505050565b61209e81600081518110612087576120876150ed565b602002602001015161209960016120e1565b613029565b816000815181106120b1576120b16150ed565b602002602001018181525050611c22816001815181106120d3576120d36150ed565b602002602001015161209960005b60008161210e577f000000000000000000000000000000000000000000000000000000000000000061061e565b7f000000000000000000000000000000000000000000000000000000000000000092915050565b600081612162577f000000000000000000000000000000000000000000000000000000000000000061061e565b7f000000000000000000000000000000000000000000000000000000000000000092915050565b60006113b28284615163565b6009546121a1816119b0565b80156121ac57508343115b156108c25760006121ff7f0000000000000000000000000000000000000000000000000000000000000000857f000000000000000000000000000000000000000000000000000000000000000086613066565b905060006122367f00000000000000000000000000000000000000000000000000000000000000008661223186611981565b613091565b90506000612243846119a0565b905060006122508561198e565b90506000612269828487876122648b611975565b6130b7565b9050808314611d575761227c8682613125565b9550612288864261313b565b600955505050505050505050565b6000806122a38385615163565b90508315806122ba5750826122b8858361539e565b145b6122f55760405162461bcd60e51b815260206004820152600c60248201526b4d554c5f4f564552464c4f5760a01b6044820152606401610787565b8061230457600091505061061e565b670de0b6b3a7640000612318600183615134565b612322919061539e565b611e4190600161514b565b60008282111561236e5760405162461bcd60e51b815260206004820152600c60248201526b5355425f4f564552464c4f5760a01b6044820152606401610787565b6000611e588385615134565b6060850151604051630b9c7bab60e31b81526000916001600160a01b037f00000000000000000000000000000000000000000000000000000000000000001691635ce3dd58916123d491899188918a9189916004016153d8565b602060405180830381865afa1580156123f1573d6000803e3d6000fd5b505050506040513d601f19601f8201168201806040525081019061241591906152cb565b90505b95945050505050565b60006113b28383612e9d565b606085015160405163e9be73ef60e01b81526000916001600160a01b037f0000000000000000000000000000000000000000000000000000000000000000169163e9be73ef916123d491899188918a9189916004016153d8565b60006113b28383613029565b6000670de0b6b3a764000082106124ab57600061061e565b61061e82670de0b6b3a7640000615134565b6000816124dc5760405162461bcd60e51b815260040161078790615377565b826124e95750600061061e565b60006124fd670de0b6b3a764000085615163565b9050670de0b6b3a7640000612512858361539e565b1461252f5760405162461bcd60e51b8152600401610787906153b2565b82612318600183615134565b6000612545610cbe565b6001600160a01b031663aaabadc56040518163ffffffff1660e01b8152600401602060405180830381865afa158015612582573d6000803e3d6000fd5b505050506040513d601f19601f820116820180604052508101906108d291906153fb565b600081815260208490526040812054816125bf82611858565b116125dc5760405162461bcd60e51b815260040161078790615418565b60006125e88286613153565b905061168e81612af4565b604080516002808252606080830184529260009291906020830190803683370190505090506126226001612135565b81600081518110612635576126356150ed565b60200260200101818152505061264b6000612135565b8160018151811061265e5761265e6150ed565b6020908102919091010152919050565b6000612678611866565b60405161190160f01b6020820152602281019190915260428101839052606201610c58565b6000606060006126ac846131a3565b90506126cd60008260038111156126c5576126c5615182565b1460ce611352565b60006126d8856131b9565b90506126e6815160026119d6565b6126ef81611e60565b60006126f96125f3565b905060007f00000000000000000000000000000000000000000000000000000000000000006001600160a01b031663572c58a383856040518363ffffffff1660e01b815260040161274b929190614e94565b602060405180830381865afa158015612768573d6000803e3d6000fd5b505050506040513d601f19601f8201168201806040525081019061278c91906152cb565b9050600061279b826002615163565b600a9290925550945090925050505b94509492505050565b61136082826131cf565b600073ba1ba1ba1ba1ba1ba1ba1ba1ba1ba1ba1ba1ba1b6127dc610c9a565b6001600160a01b0316141580156127f757506127f783613240565b1561281f57612804610c9a565b6001600160a01b0316336001600160a01b031614905061061e565b61282761253b565b6040516326f8aa2160e21b8152600481018590526001600160a01b0384811660248301523060448301529190911690639be2a88490606401602060405180830381865afa15801561287c573d6000803e3d6000fd5b505050506040513d601f19601f820116820180604052508101906113419190615448565b6000814210156128f15760405162461bcd60e51b815260206004820152601c60248201527b4f5241434c455f494e56414c49445f5345434f4e44535f515545525960201b6044820152606401610787565b60006128fd8342615134565b60008581526020889052604081205491925061291882611858565b90506000811161293a5760405162461bcd60e51b815260040161078790615418565b82811161298357600061294d8285615134565b90508061295a848a613153565b6129649190615465565b61296e848a613272565b61297891906154ea565b945050505050611e58565b60008061298f886132c2565b600081815260208c905260408120549192506129aa82611858565b905080156129bc5761040093506129db565b600080805260208d90526040812054939450926129d890611858565b90505b86811115612a225760405162461bcd60e51b815260206004820152601460248201527313d49050d31157d45551549657d513d3d7d3d31160621b6044820152606401610787565b5050600080612a338c8885876132cf565b915091506000612a4283611858565b612a4b83611858565b612a559190615134565b90508015612ad9576000612a69848e613272565b612a73848f613272565b612a7d91906152e4565b90506000612a8a85611858565b612a94908b615134565b905082612aa18284615465565b612aab9190615339565b612abe8f8761327290919063ffffffff16565b612ac891906154ea565b9a5050505050505050505050611e58565b612ae3838d613272565b9d9c50505050505050505050505050565b600061061e612b09655af3107a400084615465565b6133d3565b6000612b1d8484111583611352565b60006124188486615134565b600080612b3583613a03565b90506000808213612b5557612b50652d79883d2000836152e4565b612b65565b612b65652d79883d2000836154ea565b9050611e58655af3107a400082615339565b60006113b2838383613a78565b60006113b283836016613a78565b661fffffffffffff91909116901b90565b600082821c623fffff16621fffff8113612bbd5780611e58565b623fffff19179392505050565b6040805160028082526060808301845292600092919060208301908036833701905050905082612bfb579050612418565b7f00000000000000000000000000000000000000000000000000000000000000006001600160a01b031663f8ce54ae887f000000000000000000000000000000000000000000000000000000000000000081518110612c5c57612c5c6150ed565b6020026020010151887f000000000000000000000000000000000000000000000000000000000000000081518110612c9657612c966150ed565b60200260200101518888886040518663ffffffff1660e01b8152600401612cc19594939291906153d8565b602060405180830381865afa158015612cde573d6000803e3d6000fd5b505050506040513d601f19601f82011682018060405250810190612d0291906152cb565b817f000000000000000000000000000000000000000000000000000000000000000081518110612d3457612d346150ed565b60209081029190910101529695505050505050565b612d8b83600081518110612d5f57612d5f6150ed565b602002602001015183600081518110612d7a57612d7a6150ed565b60200260200101518363ffffffff16565b83600081518110612d9e57612d9e6150ed565b602002602001018181525050612ddb83600181518110612dc057612dc06150ed565b602002602001015183600181518110612d7a57612d7a6150ed565b83600181518110612dee57612dee6150ed565b602002602001018181525050505050565b600060606000612e0e846131a3565b90506000816003811115612e2457612e24615182565b1415612e3f57612e35868686613a8f565b9250925050612e95565b6001816003811115612e5357612e53615182565b1415612e6357612e358685613bdb565b6002816003811115612e7757612e77615182565b1415612e8857612e35868686613c98565b612e936101506113b9565b505b935093915050565b6000612eac8215156004611352565b6113b2828461539e565b600061061e8260ea612ba3565b600061061e8260b5613d91565b600061061e82609f612ba3565b600061061e82606a613d91565b600061061e826054612ba3565b600061061e82601f613d91565b612f1b6001600160a01b038316151561019b611352565b6001600160a01b038216600090815260208190526040902054612f4190826101a1612b0e565b6001600160a01b038316600090815260208190526040902055600254612f68908290615134565b6002556040518181526000906001600160a01b03841690600080516020615780833981519152906020015b60405180910390a35050565b600060606000612fae846131a3565b90506001816003811115612fc457612fc4615182565b1415612fd557612e35868686613dc4565b6002816003811115612fe957612fe9615182565b1415612ffa57612e35868686613ea8565b600381600381111561300e5761300e615182565b141561301e57612e358685613f2c565b612e936101366113b9565b60006130388215156004611352565b826130455750600061061e565b81613051600185615134565b61305b919061539e565b61134190600161514b565b60008061308661307684866124bd565b61308087896124bd565b906124bd565b905061168e81612b29565b60008061309e84866124bd565b905060006130ab82612b29565b905061168e84826152e4565b6000806130e0858585426130d78b60009081526008602052604090205490565b93929190613f79565b9050600060786130f08942615134565b10159050806130ff5786613108565b613108876132c2565b600081815260086020526040902092909255509695505050505050565b6000604b82901b6103ff604b1b198416176113b2565b6000602c82901b637fffffff602c1b198416176113b2565b60008082600281111561316857613168615182565b14156131775761134183612eb6565b600182600281111561318b5761318b615182565b141561319a5761134183612ed0565b61134183612eea565b60008180602001905181019061061e9190615538565b6060818060200190518101906113b29190615555565b806002546131dd919061514b565b6002556001600160a01b03821660009081526020819052604090205461320490829061514b565b6001600160a01b038316600081815260208181526040808320949094559251848152919290916000805160206157808339815191529101612f93565b6000613252631c74c91760e11b610c10565b82148061061e575061326a6350dd6ed960e01b610c10565b821492915050565b60008082600281111561328757613287615182565b14156132965761134183612ec3565b60018260028111156132aa576132aa615182565b14156132b95761134183612edd565b61134183612ef7565b600061061e826001614011565b60008080806132df600186615134565b905060008060005b83851161337c57600060026132fc878761514b565b613306919061539e565b9050613312818b614011565b600081815260208e90526040902054909450925061332f83611858565b91508a82101561334b5761334481600161514b565b9550613376565b8a8211156133655761335e600182615134565b9450613376565b8283975097505050505050506127aa565b506132e7565b8981106133a4578a600061338f8561402a565b815260200190815260200160002054826133c1565b818b60006133b1866132c2565b8152602001908152602001600020545b96509650505050505094509492505050565b6000613402680238fd42c5cf03ffff1983121580156133fb575068070c1cc73b00c800008313155b6009611352565b600082121561343357613417612b09836155a5565b613429670de0b6b3a764000080615465565b61061e9190615339565b60006806f05b59d3b20000008312613478576134586806f05b59d3b2000000846152e4565b925072195e54c5dd42177f53a27172fa9ec63026282760241b90506134b5565b6803782dace9d900000083126134b15761349b6803782dace9d9000000846152e4565b92506b1425982cf597cd205cef738090506134b5565b5060015b6134c0606484615465565b925068056bc75e2d6310000068ad78ebc5ac620000008412613521576134ef68ad78ebc5ac62000000856152e4565b935068056bc75e2d631000006135146e01855144814a7ff805980ff008400083615465565b61351e9190615339565b90505b6856bc75e2d6310000008412613573576135446856bc75e2d631000000856152e4565b935068056bc75e2d631000006135666b02df0ab5a80a22c61ab5a70083615465565b6135709190615339565b90505b682b5e3af16b1880000084126135c357613596682b5e3af16b18800000856152e4565b935068056bc75e2d631000006135b6693f1fce3da636ea5cf85083615465565b6135c09190615339565b90505b6815af1d78b58c4000008412613613576135e66815af1d78b58c400000856152e4565b935068056bc75e2d63100000613606690127fa27722cc06cc5e283615465565b6136109190615339565b90505b680ad78ebc5ac6200000841261366257613636680ad78ebc5ac6200000856152e4565b935068056bc75e2d6310000061365568280e60114edb805d0383615465565b61365f9190615339565b90505b68056bc75e2d6310000084126136b15761368568056bc75e2d63100000856152e4565b935068056bc75e2d631000006136a4680ebc5fb4174612111083615465565b6136ae9190615339565b90505b6802b5e3af16b18800008412613700576136d46802b5e3af16b1880000856152e4565b935068056bc75e2d631000006136f36808f00f760a4b2db55d83615465565b6136fd9190615339565b90505b68015af1d78b58c40000841261374f5761372368015af1d78b58c40000856152e4565b935068056bc75e2d631000006137426806f5f177578893793783615465565b61374c9190615339565b90505b68056bc75e2d631000008461376481836154ea565b9150600268056bc75e2d6310000061377c8884615465565b6137869190615339565b6137909190615339565b905061379c81836154ea565b9150600368056bc75e2d631000006137b48884615465565b6137be9190615339565b6137c89190615339565b90506137d481836154ea565b9150600468056bc75e2d631000006137ec8884615465565b6137f69190615339565b6138009190615339565b905061380c81836154ea565b9150600568056bc75e2d631000006138248884615465565b61382e9190615339565b6138389190615339565b905061384481836154ea565b9150600668056bc75e2d6310000061385c8884615465565b6138669190615339565b6138709190615339565b905061387c81836154ea565b9150600768056bc75e2d631000006138948884615465565b61389e9190615339565b6138a89190615339565b90506138b481836154ea565b9150600868056bc75e2d631000006138cc8884615465565b6138d69190615339565b6138e09190615339565b90506138ec81836154ea565b9150600968056bc75e2d631000006139048884615465565b61390e9190615339565b6139189190615339565b905061392481836154ea565b9150600a68056bc75e2d6310000061393c8884615465565b6139469190615339565b6139509190615339565b905061395c81836154ea565b9150600b68056bc75e2d631000006139748884615465565b61397e9190615339565b6139889190615339565b905061399481836154ea565b9150600c68056bc75e2d631000006139ac8884615465565b6139b69190615339565b6139c09190615339565b90506139cc81836154ea565b915060648468056bc75e2d631000006139e58587615465565b6139ef9190615339565b6139f99190615465565b61168e9190615339565b6000613a13600083136064611352565b81613a2e67016345785d8a0000670de0b6b3a76400006152e4565b128015613a535750613a50670de0b6b3a764000067016345785d8a00006154ea565b82125b15613a6a57670de0b6b3a764000061342983614037565b61061e8261426e565b919050565b623fffff828116821b90821b198416179392505050565b60006060613a9b61175b565b600080613aa785614850565b91509150613ab9600282106064611352565b6040805160028082526060820183526000926020830190803683370190505090507f00000000000000000000000000000000000000000000000000000000000000006001600160a01b031663cac2832b898481518110613b1b57613b1b6150ed565b6020026020010151898581518110613b3557613b356150ed565b602002602001015186613b4760025490565b613b4f6109a6565b6040518663ffffffff1660e01b8152600401613b6f9594939291906153d8565b6040805180830381865afa158015613b8b573d6000803e3d6000fd5b505050506040513d601f19601f82011682018060405250810190613baf91906155c2565b50818381518110613bc257613bc26150ed565b6020908102919091010152919791965090945050505050565b600060606000613bea84614872565b905060007f00000000000000000000000000000000000000000000000000000000000000006001600160a01b0316632d09954d8784613c2860025490565b6040518463ffffffff1660e01b8152600401613c46939291906155e6565b600060405180830381865afa158015613c63573d6000803e3d6000fd5b505050506040513d6000823e601f3d908101601f19168201604052613c8b919081019061560b565b9196919550909350505050565b60006060613ca461175b565b600080613cb085614888565b91509150613cc0825160026119d6565b613cc982611e60565b60007f00000000000000000000000000000000000000000000000000000000000000006001600160a01b0316631152af7a898986613d0660025490565b613d0e6109a6565b6040518663ffffffff1660e01b8152600401613d2e95949392919061563f565b600060405180830381865afa158015613d4b573d6000803e3d6000fd5b505050506040513d6000823e601f3d908101601f19168201604052613d73919081019061568d565b509050613d848282111560cf611352565b9791965090945050505050565b600082821c661fffffffffffff16660fffffffffffff8113613db35780611e58565b661fffffffffffff19179392505050565b60006060600080613dd485614888565b91509150613de4825160026119d6565b613ded82611e60565b60007f00000000000000000000000000000000000000000000000000000000000000006001600160a01b031663e89dd41f898986613e2a60025490565b613e326109a6565b6040518663ffffffff1660e01b8152600401613e5295949392919061563f565b600060405180830381865afa158015613e6f573d6000803e3d6000fd5b505050506040513d6000823e601f3d908101601f19168201604052613e97919081019061568d565b509050613d848282101560d0611352565b60006060600080613eb885614850565b91509150613eca600282106064611352565b6040805160028082526060820183526000926020830190803683370190505090507f00000000000000000000000000000000000000000000000000000000000000006001600160a01b031663a8c79d69898481518110613b1b57613b1b6150ed565b600060606000613f3b84614872565b905060007f00000000000000000000000000000000000000000000000000000000000000006001600160a01b031663906c41758784613c2860025490565b600080613f8587611858565b613f8f9084615134565b90506000613f9d8288615465565b613fa689612ec3565b613fb091906154ea565b90506000613fbe8388615465565b613fc78a612edd565b613fd191906154ea565b90506000613fdf8488615465565b613fe88b612ef7565b613ff291906154ea565b905061400389848a858b868c6117f9565b9a9950505050505050505050565b6000610400614020838561514b565b6113b291906156be565b600061061e8260016148a0565b600061404b670de0b6b3a764000083615465565b915060006140676a0c097ce7bc90715b34b9f160241b846154ea565b6a0c097ce7bc90715b34b9f160241b61408081866152e4565b61408a9190615465565b6140949190615339565b905060006a0c097ce7bc90715b34b9f160241b6140b18380615465565b6140bb9190615339565b905081806a0c097ce7bc90715b34b9f160241b6140d88483615465565b6140e29190615339565b91506140ef600383615339565b6140f990826154ea565b90506a0c097ce7bc90715b34b9f160241b6141148484615465565b61411e9190615339565b915061412b600583615339565b61413590826154ea565b90506a0c097ce7bc90715b34b9f160241b6141508484615465565b61415a9190615339565b9150614167600783615339565b61417190826154ea565b90506a0c097ce7bc90715b34b9f160241b61418c8484615465565b6141969190615339565b91506141a3600983615339565b6141ad90826154ea565b90506a0c097ce7bc90715b34b9f160241b6141c88484615465565b6141d29190615339565b91506141df600b83615339565b6141e990826154ea565b90506a0c097ce7bc90715b34b9f160241b6142048484615465565b61420e9190615339565b915061421b600d83615339565b61422590826154ea565b90506a0c097ce7bc90715b34b9f160241b6142408484615465565b61424a9190615339565b9150614257600f83615339565b61426190826154ea565b905061168e816002615465565b6000670de0b6b3a76400008212156142ae576142a582614296670de0b6b3a764000080615465565b6142a09190615339565b61426e565b61061e906155a5565b60006142d8670de0b6b3a764000072195e54c5dd42177f53a27172fa9ec63026282760241b615465565b8312614316576142fe72195e54c5dd42177f53a27172fa9ec63026282760241b84615339565b92506143136806f05b59d3b2000000826154ea565b90505b614334670de0b6b3a76400006b1425982cf597cd205cef7380615465565b8312614368576143506b1425982cf597cd205cef738084615339565b92506143656803782dace9d9000000826154ea565b90505b614373606482615465565b9050614380606484615465565b92506e01855144814a7ff805980ff008400083126143dd576e01855144814a7ff805980ff00840006143bb68056bc75e2d6310000085615465565b6143c59190615339565b92506143da68ad78ebc5ac62000000826154ea565b90505b6b02df0ab5a80a22c61ab5a7008312614432576b02df0ab5a80a22c61ab5a70061441068056bc75e2d6310000085615465565b61441a9190615339565b925061442f6856bc75e2d631000000826154ea565b90505b693f1fce3da636ea5cf850831261448357693f1fce3da636ea5cf85061446168056bc75e2d6310000085615465565b61446b9190615339565b9250614480682b5e3af16b18800000826154ea565b90505b690127fa27722cc06cc5e283126144d457690127fa27722cc06cc5e26144b268056bc75e2d6310000085615465565b6144bc9190615339565b92506144d16815af1d78b58c400000826154ea565b90505b68280e60114edb805d0383126145235768280e60114edb805d0361450168056bc75e2d6310000085615465565b61450b9190615339565b9250614520680ad78ebc5ac6200000826154ea565b90505b680ebc5fb41746121110831261457257680ebc5fb4174612111061455068056bc75e2d6310000085615465565b61455a9190615339565b925061456f68056bc75e2d63100000826154ea565b90505b6808f00f760a4b2db55d83126145c1576808f00f760a4b2db55d61459f68056bc75e2d6310000085615465565b6145a99190615339565b92506145be6802b5e3af16b1880000826154ea565b90505b6806f5f17757889379378312614610576806f5f17757889379376145ee68056bc75e2d6310000085615465565b6145f89190615339565b925061460d68015af1d78b58c40000826154ea565b90505b6806248f33704b286603831261465e576806248f33704b28660361463d68056bc75e2d6310000085615465565b6146479190615339565b925061465b67ad78ebc5ac620000826154ea565b90505b6805c548670b9510e7ac83126146ac576805c548670b9510e7ac61468b68056bc75e2d6310000085615465565b6146959190615339565b92506146a96756bc75e2d6310000826154ea565b90505b60006146c168056bc75e2d63100000856154ea565b68056bc75e2d631000006146d581876152e4565b6146df9190615465565b6146e99190615339565b9050600068056bc75e2d631000006147018380615465565b61470b9190615339565b9050818068056bc75e2d631000006147238483615465565b61472d9190615339565b915061473a600383615339565b61474490826154ea565b905068056bc75e2d6310000061475a8484615465565b6147649190615339565b9150614771600583615339565b61477b90826154ea565b905068056bc75e2d631000006147918484615465565b61479b9190615339565b91506147a8600783615339565b6147b290826154ea565b905068056bc75e2d631000006147c88484615465565b6147d29190615339565b91506147df600983615339565b6147e990826154ea565b905068056bc75e2d631000006147ff8484615465565b6148099190615339565b9150614816600b83615339565b61482090826154ea565b905061482d600282615465565b9050606461483b82876154ea565b6148459190615339565b979650505050505050565b6000808280602001905181019061486791906156d2565b909590945092505050565b6000818060200190518101906113b29190615709565b60606000828060200190518101906148679190615737565b6000610400826148b0828661514b565b6140209190615134565b600060208083528351808285015260005b818110156148e7578581018301518582016040015282016148cb565b818111156148f9576000604083870101525b50601f01601f1916929092016040019392505050565b6001600160a01b038116811461063557600080fd5b8035613a738161490f565b6000806040838503121561494257600080fd5b823561494d8161490f565b946020939093013593505050565b801515811461063557600080fd5b60006020828403121561497b57600080fd5b81356113b28161495b565b634e487b7160e01b600052604160045260246000fd5b604051606081016001600160401b03811182821017156149be576149be614986565b60405290565b604080519081016001600160401b03811182821017156149be576149be614986565b60405161012081016001600160401b03811182821017156149be576149be614986565b604051601f8201601f191681016001600160401b0381118282101715614a3157614a31614986565b604052919050565b60006001600160401b03821115614a5257614a52614986565b5060051b60200190565b803560038110613a7357600080fd5b60006020808385031215614a7e57600080fd5b82356001600160401b03811115614a9457600080fd5b8301601f81018513614aa557600080fd5b8035614ab8614ab382614a39565b614a09565b81815260609182028301840191848201919088841115614ad757600080fd5b938501935b83851015614b285780858a031215614af45760008081fd5b614afc61499c565b614b0586614a5c565b815285870135878201526040808701359082015283529384019391850191614adc565b50979650505050505050565b600081518084526020808501945080840160005b83811015614b6457815187529582019590820190600101614b48565b509495945050505050565b6020815260006113b26020830184614b34565b600080600060608486031215614b9757600080fd5b8335614ba28161490f565b92506020840135614bb28161490f565b929592945050506040919091013590565b60008060408385031215614bd657600080fd5b50508035926020909101359150565b600060208284031215614bf757600080fd5b5035919050565b600082601f830112614c0f57600080fd5b81356001600160401b03811115614c2857614c28614986565b614c3b601f8201601f1916602001614a09565b818152846020838601011115614c5057600080fd5b816020850160208301376000918101602001919091529392505050565b600080600080600080600060e0888a031215614c8857600080fd5b87359650602080890135614c9b8161490f565b96506040890135614cab8161490f565b955060608901356001600160401b0380821115614cc757600080fd5b818b0191508b601f830112614cdb57600080fd5b8135614ce9614ab382614a39565b81815260059190911b8301840190848101908e831115614d0857600080fd5b938501935b82851015614d2657843582529385019390850190614d0d565b9850505060808b0135955060a08b0135945060c08b0135925080831115614d4c57600080fd5b5050614d5a8a828b01614bfe565b91505092959891949750929550565b828152604060208201526000611e586040830184614b34565b60006020808385031215614d9557600080fd5b82356001600160401b03811115614dab57600080fd5b8301601f81018513614dbc57600080fd5b8035614dca614ab382614a39565b81815260069190911b82018301908381019087831115614de957600080fd5b928401925b828410156148455760408489031215614e075760008081fd5b614e0f6149c4565b614e1885614a5c565b81528486013586820152825260409093019290840190614dee565b6020808252825182820181905260009190848201906040850190845b81811015614e6b57835183529284019291840191600101614e4f565b50909695505050505050565b600060208284031215614e8957600080fd5b81356113b28161490f565b604081526000614ea76040830185614b34565b82810360208401526124188185614b34565b600060208284031215614ecb57600080fd5b81356001600160e01b0319811681146113b257600080fd5b803560028110613a7357600080fd5b600080600060608486031215614f0757600080fd5b83356001600160401b0380821115614f1e57600080fd5b908501906101208288031215614f3357600080fd5b614f3b6149e6565b614f4483614ee3565b8152614f5260208401614924565b6020820152614f6360408401614924565b6040820152606083013560608201526080830135608082015260a083013560a0820152614f9260c08401614924565b60c0820152614fa360e08401614924565b60e08201526101008084013583811115614fbc57600080fd5b614fc88a828701614bfe565b9183019190915250976020870135975060409096013595945050505050565b600060208284031215614ff957600080fd5b6113b282614a5c565b600080600080600080600060e0888a03121561501d57600080fd5b87356150288161490f565b965060208801356150388161490f565b95506040880135945060608801359350608088013560ff8116811461505c57600080fd5b9699959850939692959460a0840135945060c09093013592915050565b6000806040838503121561508c57600080fd5b82356150978161490f565b915060208301356150a78161490f565b809150509250929050565b600181811c908216806150c657607f821691505b602082108114156150e757634e487b7160e01b600052602260045260246000fd5b50919050565b634e487b7160e01b600052603260045260246000fd5b634e487b7160e01b600052601160045260246000fd5b600060001982141561512d5761512d615103565b5060010190565b60008282101561514657615146615103565b500390565b6000821982111561515e5761515e615103565b500190565b600081600019048311821515161561517d5761517d615103565b500290565b634e487b7160e01b600052602160045260246000fd5b600082601f8301126151a957600080fd5b815160206151b9614ab383614a39565b82815260059290921b840181019181810190868411156151d857600080fd5b8286015b848110156151f357805183529183019183016151dc565b509695505050505050565b60008060006060848603121561521357600080fd5b83516001600160401b038082111561522a57600080fd5b818601915086601f83011261523e57600080fd5b8151602061524e614ab383614a39565b82815260059290921b8401810191818101908a84111561526d57600080fd5b948201945b838610156152945785516152858161490f565b82529482019490820190615272565b918901519197509093505050808211156152ad57600080fd5b506152ba86828701615198565b925050604084015190509250925092565b6000602082840312156152dd57600080fd5b5051919050565b60008083128015600160ff1b85018412161561530257615302615103565b6001600160ff1b038401831381161561531d5761531d615103565b50500390565b634e487b7160e01b600052601260045260246000fd5b60008261534857615348615323565b600160ff1b82146000198414161561536257615362615103565b500590565b8183823760009101908152919050565b6020808252600d908201526c2d22a927afa224ab24a9a4a7a760991b604082015260600190565b6000826153ad576153ad615323565b500490565b6020808252600c908201526b11125597d25395115493905360a21b604082015260600190565b948552602085019390935260408401919091526060830152608082015260a00190565b60006020828403121561540d57600080fd5b81516113b28161490f565b60208082526016908201527513d49050d31157d393d517d25392551250531256915160521b604082015260600190565b60006020828403121561545a57600080fd5b81516113b28161495b565b60006001600160ff1b038184138284138082168684048611161561548b5761548b615103565b600160ff1b60008712828116878305891216156154aa576154aa615103565b600087129250878205871284841616156154c6576154c6615103565b878505871281841616156154dc576154dc615103565b505050929093029392505050565b600080821280156001600160ff1b038490038513161561550c5761550c615103565b600160ff1b839003841281161561552557615525615103565b50500190565b6004811061063557600080fd5b60006020828403121561554a57600080fd5b81516113b28161552b565b6000806040838503121561556857600080fd5b82516155738161552b565b60208401519092506001600160401b0381111561558f57600080fd5b61559b85828601615198565b9150509250929050565b6000600160ff1b8214156155bb576155bb615103565b5060000390565b600080604083850312156155d557600080fd5b505080516020909101519092909150565b6060815260006155f96060830186614b34565b60208301949094525060400152919050565b60006020828403121561561d57600080fd5b81516001600160401b0381111561563357600080fd5b611e5884828501615198565b60a08152600061565260a0830188614b34565b82810360208401526156648188614b34565b905082810360408401526156788187614b34565b60608401959095525050608001529392505050565b600080604083850312156156a057600080fd5b825160208401519092506001600160401b0381111561558f57600080fd5b6000826156cd576156cd615323565b500690565b6000806000606084860312156156e757600080fd5b83516156f28161552b565b602085015160409095015190969495509392505050565b6000806040838503121561571c57600080fd5b82516157278161552b565b6020939093015192949293505050565b60008060006060848603121561574c57600080fd5b83516157578161552b565b60208501519093506001600160401b0381111561577357600080fd5b6152ba8682870161519856feddf252ad1be2c89b69c2b068fc378daa952ba7f163c4a11628f55a4df523b3efa2646970667358221220989b1c70d0cafe0c5136b72515def4f2073cfa8e62a2b4536b5403e5ec577fed64736f6c634300080a0033",
  "devdoc": {
    "kind": "dev",
    "methods": {
      "create(string,string,address[],uint256[],uint256,bool,address)": {
        "details": "Deploys a new `Requiem2PoolTokens`."
      },
      "getCreationCode()": {
        "details": "Returns the creation code of the contract this factory creates."
      },
      "getCreationCodeContracts()": {
        "details": "Returns the two addresses where the creation code of the contract crated by this factory is stored."
      },
      "getPauseConfiguration()": {
        "details": "Returns the current `TemporarilyPausable` configuration that will be applied to Pools created by this factory. `pauseWindowDuration` will decrease over time until it reaches zero, at which point both it and `bufferPeriodDuration` will be zero forever, meaning deployed Pools will not be pausable."
      },
      "getVault()": {
        "details": "Returns the Vault's address."
      },
      "isPoolFromFactory(address)": {
        "details": "Returns true if `pool` was created by this factory."
      }
    },
    "stateVariables": {
      "formula": {
        "details": "Returns true if `account` can perform the action described by `actionId` in the contract `where`."
      }
    },
    "version": 1
  },
  "userdoc": {
    "kind": "user",
    "methods": {},
    "version": 1
  },
  "storageLayout": {
    "storage": [
      {
        "astId": 23199,
        "contract": "contracts/Requiem2PoolTokensFactory.sol:Requiem2PoolTokensFactory",
        "label": "_isPoolFromFactory",
        "offset": 0,
        "slot": "0",
        "type": "t_mapping(t_address,t_bool)"
      },
      {
        "astId": 8575,
        "contract": "contracts/Requiem2PoolTokensFactory.sol:Requiem2PoolTokensFactory",
        "label": "formula",
        "offset": 0,
        "slot": "1",
        "type": "t_address"
      }
    ],
    "types": {
      "t_address": {
        "encoding": "inplace",
        "label": "address",
        "numberOfBytes": "20"
      },
      "t_bool": {
        "encoding": "inplace",
        "label": "bool",
        "numberOfBytes": "1"
      },
      "t_mapping(t_address,t_bool)": {
        "encoding": "mapping",
        "key": "t_address",
        "label": "mapping(address => bool)",
        "numberOfBytes": "32",
        "value": "t_bool"
      }
    }
  }
}