{
  "address": "0x835Bc7cD6aDa151f9e9a6aCF0dF98754842c7680",
  "abi": [
    {
      "inputs": [
        {
          "internalType": "contract IVault",
          "name": "vault",
          "type": "address"
        }
      ],
      "stateMutability": "nonpayable",
      "type": "constructor"
    },
    {
      "anonymous": false,
      "inputs": [
        {
          "indexed": true,
          "internalType": "address",
          "name": "pool",
          "type": "address"
        }
      ],
      "name": "PoolCreated",
      "type": "event"
    },
    {
      "inputs": [
        {
          "internalType": "string",
          "name": "name",
          "type": "string"
        },
        {
          "internalType": "string",
          "name": "symbol",
          "type": "string"
        },
        {
          "internalType": "contract IERC20[]",
          "name": "tokens",
          "type": "address[]"
        },
        {
          "internalType": "uint256[]",
          "name": "weights",
          "type": "uint256[]"
        },
        {
          "internalType": "uint256",
          "name": "swapFeePercentage",
          "type": "uint256"
        },
        {
          "internalType": "bool",
          "name": "oracleEnabled",
          "type": "bool"
        },
        {
          "internalType": "address",
          "name": "owner",
          "type": "address"
        }
      ],
      "name": "create",
      "outputs": [
        {
          "internalType": "address",
          "name": "",
          "type": "address"
        }
      ],
      "stateMutability": "nonpayable",
      "type": "function"
    },
    {
      "inputs": [],
      "name": "getCreationCode",
      "outputs": [
        {
          "internalType": "bytes",
          "name": "",
          "type": "bytes"
        }
      ],
      "stateMutability": "view",
      "type": "function"
    },
    {
      "inputs": [],
      "name": "getCreationCodeContracts",
      "outputs": [
        {
          "internalType": "address",
          "name": "contractA",
          "type": "address"
        },
        {
          "internalType": "address",
          "name": "contractB",
          "type": "address"
        }
      ],
      "stateMutability": "view",
      "type": "function"
    },
    {
      "inputs": [],
      "name": "getPauseConfiguration",
      "outputs": [
        {
          "internalType": "uint256",
          "name": "pauseWindowDuration",
          "type": "uint256"
        },
        {
          "internalType": "uint256",
          "name": "bufferPeriodDuration",
          "type": "uint256"
        }
      ],
      "stateMutability": "view",
      "type": "function"
    },
    {
      "inputs": [],
      "name": "getVault",
      "outputs": [
        {
          "internalType": "contract IVault",
          "name": "",
          "type": "address"
        }
      ],
      "stateMutability": "view",
      "type": "function"
    },
    {
      "inputs": [
        {
          "internalType": "address",
          "name": "pool",
          "type": "address"
        }
      ],
      "name": "isPoolFromFactory",
      "outputs": [
        {
          "internalType": "bool",
          "name": "",
          "type": "bool"
        }
      ],
      "stateMutability": "view",
      "type": "function"
    }
  ],
  "transactionHash": "0xe6c5655aaf762e162f6786c14439d6c2beebcc58c132ed959ed12118f6e6ef09",
  "args": [
    "0x56E7A84574862db7746277C110eFa0eaA1c69C18"
  ],
  "solcInputHash": "02a354fcd85f49dfe4c43e15fe1df3bf",
  "bytecode": "0x6101406040523480156200001257600080fd5b5060405162007ac838038062007ac88339810160408190526200003591620001ae565b80604051806020016200004890620001a0565b601f1982820381018352601f909101166040528051819060006200006e600283620001f6565b60a08190529050600062000083828462000219565b60e0819052828552905083620000a5816200010a602090811b6200035117901c565b6001600160a01b03166080528285018051838252620000d0826200010a602090811b6200035117901c565b6001600160a01b0390811660c05295909252525050929092166101005250620000ff90506276a7004262000233565b61012052506200024e565b80517f602038038060206000396000f3fefefefefefefefefefefefefefefefefefefe808352600091602081018484f090845291506001600160a01b0382166200019a5760405162461bcd60e51b815260206004820152601660248201527f434f44455f4445504c4f594d454e545f4641494c454400000000000000000000604482015260640160405180910390fd5b50919050565b616c978062000e3183390190565b600060208284031215620001c157600080fd5b81516001600160a01b0381168114620001d957600080fd5b9392505050565b634e487b7160e01b600052601160045260246000fd5b6000826200021457634e487b7160e01b600052601260045260246000fd5b500490565b6000828210156200022e576200022e620001e0565b500390565b60008219821115620002495762000249620001e0565b500190565b60805160a05160c05160e0516101005161012051610b80620002b1600039600081816102c601526102f20152600061032f0152600061044601526000818160e201526104250152600061040401526000818160bd01526103e30152610b806000f3fe608060405234801561001057600080fd5b50600436106100615760003560e01c8062c194db146100665780631596019b14610084578063174481fa146100af5780632da47c401461010d5780636634b7531461012a5780638d928af814610166575b600080fd5b61006e61016e565b60405161007b9190610623565b60405180910390f35b610097610092366004610815565b61018d565b6040516001600160a01b03909116815260200161007b565b604080516001600160a01b037f0000000000000000000000000000000000000000000000000000000000000000811682527f00000000000000000000000000000000000000000000000000000000000000001660208201520161007b565b6101156102c0565b6040805192835260208301919091520161007b565b6101566101383660046108f9565b6001600160a01b031660009081526020819052604090205460ff1690565b604051901515815260200161007b565b61009761032d565b6060610188604051806020016040528060008152506103df565b905090565b600080600061019a6102c0565b9150915060006040518061018001604052806101b461032d565b6001600160a01b031681526020018c81526020018b81526020018a6000815181106101e1576101e1610916565b60200260200101516001600160a01b031681526020018a60018151811061020a5761020a610916565b60200260200101516001600160a01b031681526020018960008151811061023357610233610916565b602002602001015181526020018960018151811061025357610253610916565b602002602001015181526020018881526020018481526020018381526020018715158152602001866001600160a01b031681525090506102b18160405160200161029d919061092c565b6040516020818303038152906040526104cb565b9b9a5050505050505050505050565b600080427f000000000000000000000000000000000000000000000000000000000000000081101561032257610316817f0000000000000000000000000000000000000000000000000000000000000000610a29565b9362278d009350915050565b506000928392509050565b7f000000000000000000000000000000000000000000000000000000000000000090565b80517f602038038060206000396000f3fefefefefefefefefefefefefefefefefefefe808352600091602081018484f090845291506001600160a01b0382166103d95760405162461bcd60e51b815260206004820152601660248201527510d3d11157d111541313d65351539517d1905253115160521b604482015260640160405180910390fd5b50919050565b60607f00000000000000000000000000000000000000000000000000000000000000007f00000000000000000000000000000000000000000000000000000000000000007f00000000000000000000000000000000000000000000000000000000000000007f000000000000000000000000000000000000000000000000000000000000000060006104718285610a40565b875190915060006104828284610a40565b9050604051975060208101880160405280885260208801866000828a3c846000888301883c50602089810190898501016104bd81838661052b565b505050505050505050919050565b6000806104d78361059c565b6001600160a01b038116600081815260208190526040808220805460ff191660011790555192935090917f83a48fbcfc991335314e74d0496aab6a1987e992ddc85dddbcc4d6dd6ef2e9fc9190a292915050565b602081106105635781518352610542602084610a40565b925061054f602083610a40565b915061055c602082610a29565b905061052b565b60006001610572836020610a29565b61057e90610100610b3e565b6105889190610a29565b925184518416931916929092179092525050565b6000806105a8836103df565b905060008151602083016000f090506001600160a01b0381166105cf573d6000803e3d6000fd5b9392505050565b6000815180845260005b818110156105fc576020818501810151868301820152016105e0565b8181111561060e576000602083870101525b50601f01601f19169290920160200192915050565b6020815260006105cf60208301846105d6565b634e487b7160e01b600052604160045260246000fd5b604051601f8201601f191681016001600160401b038111828210171561067457610674610636565b604052919050565b600082601f83011261068d57600080fd5b81356001600160401b038111156106a6576106a6610636565b6106b9601f8201601f191660200161064c565b8181528460208386010111156106ce57600080fd5b816020850160208301376000918101602001919091529392505050565b60006001600160401b0382111561070457610704610636565b5060051b60200190565b6001600160a01b038116811461072357600080fd5b50565b600082601f83011261073757600080fd5b8135602061074c610747836106eb565b61064c565b82815260059290921b8401810191818101908684111561076b57600080fd5b8286015b8481101561078f5780356107828161070e565b835291830191830161076f565b509695505050505050565b600082601f8301126107ab57600080fd5b813560206107bb610747836106eb565b82815260059290921b840181019181810190868411156107da57600080fd5b8286015b8481101561078f57803583529183019183016107de565b8035801515811461080557600080fd5b919050565b80356108058161070e565b600080600080600080600060e0888a03121561083057600080fd5b87356001600160401b038082111561084757600080fd5b6108538b838c0161067c565b985060208a013591508082111561086957600080fd5b6108758b838c0161067c565b975060408a013591508082111561088b57600080fd5b6108978b838c01610726565b965060608a01359150808211156108ad57600080fd5b506108ba8a828b0161079a565b945050608088013592506108d060a089016107f5565b91506108de60c0890161080a565b905092959891949750929550565b6001600160a01b03169052565b60006020828403121561090b57600080fd5b81356105cf8161070e565b634e487b7160e01b600052603260045260246000fd5b6020815261093e6020820183516108ec565b6000602083015161018080604085015261095c6101a08501836105d6565b91506040850151601f1985840301606086015261097983826105d6565b925050606085015161098e60808601826108ec565b5060808501516109a160a08601826108ec565b5060a085015160c085015260c085015160e085015260e08501516101008181870152808701519150506101208181870152808701519150506101408181870152808701519150506101606109f88187018315159052565b8601519050610a09858301826108ec565b5090949350505050565b634e487b7160e01b600052601160045260246000fd5b600082821015610a3b57610a3b610a13565b500390565b60008219821115610a5357610a53610a13565b500190565b600181815b80851115610a93578160001904821115610a7957610a79610a13565b80851615610a8657918102915b93841c9390800290610a5d565b509250929050565b600082610aaa57506001610b38565b81610ab757506000610b38565b8160018114610acd5760028114610ad757610af3565b6001915050610b38565b60ff841115610ae857610ae8610a13565b50506001821b610b38565b5060208310610133831016604e8410600b8410161715610b16575081810a610b38565b610b208383610a58565b8060001904821115610b3457610b34610a13565b0290505b92915050565b60006105cf8383610a9b56fea2646970667358221220d2add0816b745f612f6ce861887b7823dfcb7f7a314a21f1d14ccf5d574639cd64736f6c634300080900336102a06040527f6e71edae12b1b97f4d1f60370fef10105fa2faae0126114a169c64845d6126c9610120523480156200003757600080fd5b5060405162006c9738038062006c978339810160408190526200005a916200093c565b6101008101516101208201516020808401516040808601518651825180840190935260018352603160f81b838601526101608801513360601b6080526001600160a01b031660a05283519394919390928592839283918791620000c491600391908501906200075e565b508051620000da9060049060208401906200075e565b50506005805460ff1916601217905550815160209283012060c05280519082012060e0527f8b73c3c69bb8fe3d512ecc4cf759cc79239f7b179b0ffacaa9a75d522b39400f610100526001600160a01b0390921661014052506200015592506276a700851115915061019490620012bd62000483821b17901c565b6200017462278d008211156101956200048360201b620012bd1760201c565b600062000182834262000a89565b610160819052905062000196828262000a89565b61018052505050610140810151620001ae90620004a3565b60e0810151620001be90620004fb565b80516040516309b2760f60e01b81526000916001600160a01b0316906309b2760f90620001f19060029060040162000aa4565b602060405180830381600087803b1580156200020c57600080fd5b505af115801562000221573d6000803e3d6000fd5b505050506040513d601f19601f8201168201806040525081019062000247919062000acd565b604080516002808252606082018352929350600092909160208301908036833701905050905082606001518160008151811062000288576200028862000ae7565b60200260200101906001600160a01b031690816001600160a01b031681525050826080015181600181518110620002c357620002c362000ae7565b6001600160a01b0392831660209182029290920101528351166366a9c7d2838360026040519080825280602002602001820160405280156200030f578160200160208202803683370190505b506040518463ffffffff1660e01b8152600401620003309392919062000afd565b600060405180830381600087803b1580156200034b57600080fd5b505af115801562000360573d6000803e3d6000fd5b5050506101a0839052506060830180516001600160a01b039081166101c0526080850151166101e0525162000395906200058e565b610260526080830151620003a9906200058e565b6102808181525050620003d8662386f26fc100008460a00151101561012e6200048360201b620012bd1760201c565b620003ff662386f26fc100008460c00151101561012e6200048360201b620012bd1760201c565b6000620004238460c001518560a001516200063160201b620012cf1790919060201c565b905062000448670de0b6b3a764000082146101346200048360201b620012bd1760201c565b60a0840180516102005260c0850180516102205251905110156200046e57600162000471565b60005b60ff16610240525062000d2092505050565b816200049f576200049f816200068f60201b620013241760201c565b5050565b620004bf81600954620006e260201b620013771790919060201c565b60095560405181151581527f3e350b41e86a8e10f804ade6d35340d620be35569cc75ac943e8bb14ab80ead1906020015b60405180910390a150565b6200051b64e8d4a5100082101560cb6200048360201b620012bd1760201c565b6200053e67016345785d8a000082111560ca6200048360201b620012bd1760201c565b6200055a816009546200070160201b620013851790919060201c565b6009556040518181527fa9ba3ffe0b6c366b81232caab38605a0699ad5398d6cce76f91ee809e322dafc90602001620004f0565b600080826001600160a01b031663313ce5676040518163ffffffff1660e01b815260040160206040518083038186803b158015620005cb57600080fd5b505afa158015620005e0573d6000803e3d6000fd5b505050506040513d601f19601f8201168201806040525081019062000606919062000b99565b60ff16905060006200061a82601262000bbe565b90506200062981600a62000cd5565b949350505050565b60008062000640838562000a89565b905083811015620006865760405162461bcd60e51b815260206004820152600c60248201526b4144445f4f564552464c4f5760a01b604482015260640160405180910390fd5b90505b92915050565b62461bcd60e51b6000908152602060045260076024526642414c23000030600a808404818106603090810160081b95839006959095019082900491820690940160101b939093010160c81b604452606490fd5b600062000686826055856200072060201b62001393179092919060201c565b600062000686826056856200074960201b620013ba179092919060201c565b60006001821b1984168284620007385760006200073b565b60015b60ff16901b17949350505050565b6001600160401b03811b1992909216911b1790565b8280546200076c9062000ce3565b90600052602060002090601f016020900481019282620007905760008555620007db565b82601f10620007ab57805160ff1916838001178555620007db565b82800160010185558215620007db579182015b82811115620007db578251825591602001919060010190620007be565b50620007e9929150620007ed565b5090565b5b80821115620007e95760008155600101620007ee565b634e487b7160e01b600052604160045260246000fd5b60405161018081016001600160401b038111828210171562000840576200084062000804565b60405290565b604051601f8201601f191681016001600160401b038111828210171562000871576200087162000804565b604052919050565b80516001600160a01b03811681146200089157600080fd5b919050565b600082601f830112620008a857600080fd5b81516001600160401b03811115620008c457620008c462000804565b6020620008da601f8301601f1916820162000846565b8281528582848701011115620008ef57600080fd5b60005b838110156200090f578581018301518282018401528201620008f2565b83811115620009215760008385840101525b5095945050505050565b805180151581146200089157600080fd5b6000602082840312156200094f57600080fd5b81516001600160401b03808211156200096757600080fd5b9083019061018082860312156200097d57600080fd5b620009876200081a565b620009928362000879565b8152602083015182811115620009a757600080fd5b620009b58782860162000896565b602083015250604083015182811115620009ce57600080fd5b620009dc8782860162000896565b604083015250620009f06060840162000879565b606082015262000a036080840162000879565b608082015260a0838101519082015260c0808401519082015260e0808401519082015261010080840151908201526101208084015190820152610140915062000a4e8284016200092b565b82820152610160915062000a6482840162000879565b91810191909152949350505050565b634e487b7160e01b600052601160045260246000fd5b6000821982111562000a9f5762000a9f62000a73565b500190565b602081016003831062000ac757634e487b7160e01b600052602160045260246000fd5b91905290565b60006020828403121562000ae057600080fd5b5051919050565b634e487b7160e01b600052603260045260246000fd5b6000606082018583526020606081850152818651808452608086019150828801935060005b8181101562000b495784516001600160a01b03168352938301939183019160010162000b22565b50508481036040860152855180825290820192508186019060005b8181101562000b8b5782516001600160a01b03168552938301939183019160010162000b64565b509298975050505050505050565b60006020828403121562000bac57600080fd5b815160ff811681146200068657600080fd5b60008282101562000bd35762000bd362000a73565b500390565b600181815b8085111562000c1957816000190482111562000bfd5762000bfd62000a73565b8085161562000c0b57918102915b93841c939080029062000bdd565b509250929050565b60008262000c325750600162000689565b8162000c415750600062000689565b816001811462000c5a576002811462000c655762000c85565b600191505062000689565b60ff84111562000c795762000c7962000a73565b50506001821b62000689565b5060208310610133831016604e8410600b841016171562000caa575081810a62000689565b62000cb6838362000bd8565b806000190482111562000ccd5762000ccd62000a73565b029392505050565b600062000686838362000c21565b600181811c9082168062000cf857607f821691505b6020821081141562000d1a57634e487b7160e01b600052602260045260246000fd5b50919050565b60805160a05160c05160e05161010051610120516101405161016051610180516101a0516101c0516101e0516102005161022051610240516102605161028051615e8e62000e096000396000611e4001526000611e660152600081816128bc015281816128f60152612938015260008181611e940152611f30015260008181611eba01528181611f0e0152611f5e0152600050506000610cfc015260006108d40152600061151f015260006114fb01526000610ca201526000610fdf015260006117d501526000611817015260006117f601526000610c7e01526000610bf60152615e8e6000f3fe608060405234801561001057600080fd5b50600436106101e35760003560e01c806306fdde03146101e8578063095ea7b31461020657806316c38b3c1461022957806318160ddd1461023e5780631c0de051146102505780631dccd8301461027557806323b872dd14610295578063292c914a146102a8578063313ce567146102b05780633331bc36146102c55780633644e515146102d857806338e9922e146102e057806338fff2d0146102f357806339509351146102fb5780634a6b0b151461030e57806355c67628146103455780636028bfd41461034d57806360d1507c1461036e578063679aefce146103b65780636b843239146103be57806370a08231146103de57806374f3b009146104075780637ecebe0014610428578063851c1bb31461045157806387ec681714610464578063893d20e8146104775780638d928af81461049757806395d89b411461049f5780639b02cdde146104a75780639d2c110c146104af578063a457c2d7146104c2578063a9059cbb146104d5578063aaabadc5146104e8578063b10be739146104f0578063b48b5b4014610503578063c0ff1a151461050b578063d505accf14610513578063d5c096c414610526578063dd62ed3e14610539578063f89f27ed1461054c578063ffd088eb14610554575b600080fd5b6101f061055d565b6040516101fd9190615071565b60405180910390f35b6102196102143660046150e6565b6105ef565b60405190151581526020016101fd565b61023c610237366004615120565b610606565b005b6002545b6040519081526020016101fd565b61025861061a565b6040805193151584526020840192909252908201526060016101fd565b610288610283366004615222565b610643565b6040516101fd9190615326565b6102196102a3366004615339565b6106fb565b61023c6107c1565b60055460405160ff90911681526020016101fd565b61023c6102d336600461537a565b6107f6565b6102426108aa565b61023c6102ee36600461539c565b6108b9565b6102426108d2565b6102196103093660046150e6565b6108f6565b61031661092d565b6040805196875260208701959095529385019290925260608401521515608083015260a082015260c0016101fd565b610242610988565b61036061035b366004615424565b610995565b6040516101fd929190615520565b61038161037c36600461539c565b6109c6565b604080519788526020880196909652948601939093526060850191909152608084015260a083015260c082015260e0016101fd565b610242610a49565b6103d16103cc366004615539565b610a70565b6040516101fd91906155ea565b6102426103ec36600461562e565b6001600160a01b031660009081526020819052604090205490565b61041a610415366004615424565b610b4d565b6040516101fd92919061564b565b61024261043636600461562e565b6001600160a01b031660009081526006602052604090205490565b61024261045f366004615670565b610bf2565b610360610472366004615424565b610c57565b61047f610c7c565b6040516001600160a01b0390911681526020016101fd565b61047f610ca0565b6101f0610cc4565b600a54610242565b6102426104bd3660046156a9565b610cd3565b6102196104d03660046150e6565b610e87565b6102196104e33660046150e6565b610ec7565b61047f610ed4565b6102426104fe36600461579e565b610ede565b610400610242565b610242610ef3565b61023c6105213660046157b9565b610fb0565b61041a610534366004615424565b611120565b610242610547366004615830565b611254565b6102886112b3565b6201de20610242565b60606003805461056c90615869565b80601f016020809104026020016040519081016040528092919081815260200182805461059890615869565b80156105e55780601f106105ba576101008083540402835291602001916105e5565b820191906000526020600020905b8154815290600101906020018083116105c857829003601f168201915b5050505050905090565b60006105fc3384846113cf565b5060015b92915050565b61060e611431565b6106178161145f565b50565b60008060006106276114dc565b1592506106326114f9565b915061063c61151d565b9050909192565b606081516001600160401b0381111561065e5761065e61513d565b604051908082528060200260200182016040528015610687578160200160208202803683370190505b5090506000610694611541565b905060005b83518110156106f4576106c760088583815181106106b9576106b96158a4565b60200260200101518461154e565b8382815181106106d9576106d96158a4565b60209081029190910101526106ed816158d0565b9050610699565b5050919050565b6000806107088533611254565b9050336001600160a01b03861614806107215750828110155b6107725760405162461bcd60e51b815260206004820181905260248201527f45524332305f5452414e534645525f455843454544535f414c4c4f57414e434560448201526064015b60405180910390fd5b61077d858585611603565b336001600160a01b0386161480159061079d57506001600160801b038114155b156107b6576107b685336107b186856158eb565b6113cf565b506001949350505050565b6107c96116c6565b6107d1611431565b6107db60016116d9565b60006107e660025490565b11156107f4576107f461171b565b565b808210801561080757506104008111155b6108435760405162461bcd60e51b815260206004820152600d60248201526c4f55545f4f465f424f554e445360981b6044820152606401610769565b60006108586001600080600080600080611764565b9050825b828110156108a45760008181526008602052604090205461087c906117c3565b6108925760008181526008602052604090208290555b8061089c816158d0565b91505061085c565b50505050565b60006108b46117d1565b905090565b6108c1611431565b6108c96116c6565b61061781611877565b7f000000000000000000000000000000000000000000000000000000000000000090565b3360008181526001602090815260408083206001600160a01b038716845290915281205490916105fc9185906107b1908690615902565b60008060008060008060006009549050610946816118e0565b9650610951816118ec565b955061095c816118f9565b94506109678161190b565b93506109728161191b565b925061097d8161192c565b915050909192939495565b60006108b460095461192c565b600060606109a586516002611941565b6109ba8989898989898961194e611a0e611aa4565b97509795505050505050565b60008060008060008060006104008810610a195760405162461bcd60e51b815260206004820152601460248201527309ea48286988abe929cac82989288be929c888ab60631b6044820152606401610769565b600088815260086020526040902054610a3181611bc2565b959f949e50929c50909a509850965090945092505050565b60006108b4610a5760025490565b610a5f610ef3565b610a6a90600261591a565b90611c25565b606081516001600160401b03811115610a8b57610a8b61513d565b604051908082528060200260200182016040528015610ab4578160200160208202803683370190505b5090506000610ac1611541565b9050610add604080518082019091526000808252602082015290565b60005b8451811015610b4557848181518110610afb57610afb6158a4565b60200260200101519150610b188260000151848460200151611ca9565b848281518110610b2a57610b2a6158a4565b6020908102919091010152610b3e816158d0565b9050610ae0565b505050919050565b60608088610b77610b5c610ca0565b6001600160a01b0316336001600160a01b03161460cd6112bd565b610b8c610b826108d2565b82146101f46112bd565b610b9587611cc0565b6000806000610ba98d8d8d8d8d8d8d61194e565b925092509250610bb98c84611d3d565b610bc282611a0e565b610bcb81611a0e565b610bd36114dc565b15610be057610be061171b565b909c909b509950505050505050505050565b60007f000000000000000000000000000000000000000000000000000000000000000082604051602001610c3a9291909182526001600160e01b031916602082015260240190565b604051602081830303815290604052805190602001209050919050565b60006060610c6786516002611941565b6109ba89898989898989611d47611dc7611aa4565b7f000000000000000000000000000000000000000000000000000000000000000090565b7f000000000000000000000000000000000000000000000000000000000000000090565b60606004805461056c90615869565b6000610cdd6116c6565b8360800151610ced610b5c610ca0565b610cf8610b826108d2565b60007f00000000000000000000000000000000000000000000000000000000000000006001600160a01b031686602001516001600160a01b03161490506000610d4082611e37565b90506000610d4e8315611e37565b90506000610d5b84611e8b565b90506000610d698515611e8b565b9050610d758985611edf565b9850610d818884611edf565b9750610da98a60a0015186610d965789610d98565b8a5b87610da3578b611eeb565b8a611eeb565b60008a516001811115610dbe57610dbe615939565b1415610e2c576000610ddc610dd1610988565b60608d015190611fec565b9050610dfe610df8828d6060015161206490919063ffffffff16565b86611edf565b60608c01526000610e128c8c8c87876120b1565b9050610e1e81866120d0565b985050505050505050610e7f565b610e3a8a6060015184611edf565b60608b01526000610e4e8b8b8b86866120dc565b9050610e5a81866120ef565b9050610e76610e6f610e6a610988565b6120fb565b8290612125565b97505050505050505b509392505050565b600080610e943385611254565b9050808310610eae57610ea9338560006113cf565b610ebd565b610ebd33856107b186856158eb565b5060019392505050565b60006105fc338484611603565b60006108b46121a3565b6000610600600883610eee611541565b61221d565b600080610efe610ca0565b6001600160a01b031663f94d4668610f146108d2565b6040518263ffffffff1660e01b8152600401610f3291815260200190565b60006040518083038186803b158015610f4a57600080fd5b505afa158015610f5e573d6000803e3d6000fd5b505050506040513d6000823e601f3d908101601f19168201604052610f8691908101906159b5565b50915050610f9381611cc0565b6000610f9d61226a565b9050610fa981836122e5565b9250505090565b610fbe8442111560d16112bd565b6001600160a01b0387811660008181526006602090815260408083205481517f00000000000000000000000000000000000000000000000000000000000000008185015280830195909552948b166060850152608084018a905260a0840185905260c08085018a90528151808603909101815260e0909401905282519201919091209061104a8261239f565b6040805160008082526020820180845284905260ff8a169282019290925260608101889052608081018790529192509060019060a0016020604051602081039080840390855afa1580156110a2573d6000803e3d6000fd5b5050604051601f19015191506110e490506001600160a01b038216158015906110dc57508b6001600160a01b0316826001600160a01b0316145b6101f86112bd565b6110ef846001615902565b6001600160a01b038c166000908152600660205260409020556111138b8b8b6113cf565b5050505050505050505050565b6060808861112f610b5c610ca0565b61113a610b826108d2565b6111426116c6565b600061114d60025490565b6111c45761115d8b8b8b886123ce565b94509050611172620f424082101560cc6112bd565b6111806000620f424061245f565b61119689611191620f4240846158eb565b61245f565b61119f84611dc7565b604080516002808252606082018352909160208301908036833701905050925061123e565b6111cd88611cc0565b61120c87896000815181106111e4576111e46158a4565b60200260200101518a6001815181106111ff576111ff6158a4565b6020026020010151611eeb565b61121b8b8b8b8b8b8b8b611d47565b9095509350905061122c898261245f565b61123584611dc7565b61123e83611a0e565b61124661171b565b505097509795505050505050565b600061125e610ca0565b6001600160a01b0316826001600160a01b0316141561128557506001600160801b03610600565b6001600160a01b038084166000908152600160209081526040808320938616835292905220545b9050610600565b60606108b461226a565b816112cb576112cb81611324565b5050565b6000806112dc8385615902565b90508381101561131d5760405162461bcd60e51b815260206004820152600c60248201526b4144445f4f564552464c4f5760a01b6044820152606401610769565b9392505050565b62461bcd60e51b6000908152602060045260076024526642414c23000030600a808404818106603090810160081b95839006959095019082900491820690940160101b939093010160c81b604452606490fd5b600061131d83836055611393565b600061131d838360566113ba565b60006001821b19841682846113a95760006113ac565b60015b60ff16901b17949350505050565b6001600160401b03811b1992909216911b1790565b6001600160a01b0383811660008181526001602090815260408083209487168084529482529182902085905590518481527f8c5be1e5ebec7d5bd14f71427d1e84f3dd0314c0f7b2291e5b200ac8c7c3b92591015b60405180910390a3505050565b60006114486000356001600160e01b031916610bf2565b90506106176114578233612469565b6101916112bd565b801561147f5761147a6114706114f9565b42106101936112bd565b611494565b61149461148a61151d565b42106101a96112bd565b6007805460ff19168215159081179091556040519081527f9e3a5e37224532dea67b89face185703738a228a6e8a23dee546960180d3be64906020015b60405180910390a150565b60006114e661151d565b4211806108b457505060075460ff161590565b7f000000000000000000000000000000000000000000000000000000000000000090565b7f000000000000000000000000000000000000000000000000000000000000000090565b60006108b460095461190b565b60008260200151600014156115975760405162461bcd60e51b815260206004820152600f60248201526e4f5241434c455f4241445f5345435360881b6044820152606401610769565b60006115bc85856000015185876020015188604001516115b79190615902565b61255b565b905060006115d486866000015186886040015161255b565b90506115f9856020015183836115ea9190615a82565b6115f49190615ad7565b6127af565b9695505050505050565b61161a6001600160a01b03841615156101986112bd565b6116316001600160a01b03831615156101996112bd565b6001600160a01b03831660009081526020819052604090205461165790826101a06127c9565b6001600160a01b038085166000908152602081905260408082209390935590841681522054611687908290615902565b6001600160a01b03838116600081815260208181526040918290209490945551848152909291861691600080516020615e398339815191529101611424565b6107f46116d16114dc565b6101926112bd565b6009546116e69082611377565b60095560405181151581527f3e350b41e86a8e10f804ade6d35340d620be35569cc75ac943e8bb14ab80ead1906020016114d1565b6009546117278161191b565b156106175761174161173a600a546127e4565b8290612832565b905061175e61175761175260025490565b6127e4565b829061283f565b60095550565b60008161177284601f61284d565b623fffff60541b605487901b1661178a88606a61284d565b623fffff609f1b609f8b901b166117a28c60b561284d565b6001600160ea1b031960ea8f901b1617171717171798975050505050505050565b6000637fffffff8216610600565b60007f00000000000000000000000000000000000000000000000000000000000000007f00000000000000000000000000000000000000000000000000000000000000007f000000000000000000000000000000000000000000000000000000000000000046604080516020810195909552840192909252606083015260808201523060a082015260c00160405160208183030381529060405280519060200120905090565b61188a64e8d4a5100082101560cb6112bd565b6118a067016345785d8a000082111560ca6112bd565b6009546118ad9082611385565b6009556040518181527fa9ba3ffe0b6c366b81232caab38605a0699ad5398d6cce76f91ee809e322dafc906020016114d1565b6000610600828261285e565b600061060082601661285e565b6000602c82901c637fffffff16610600565b6000604b82901c6103ff16610600565b60006001605583901c811614610600565b6000605682901c6001600160401b0316610600565b6112cb81831460676112bd565b6000606080600061195d61226a565b90506119676114dc565b156119b55761198387896000815181106111e4576111e46158a4565b600061198f828a6122e5565b90506119a08983600a54848b612885565b92506119af898461206461297c565b506119d6565b60408051600280825260608201835290916020830190803683370190505091505b6119e1888287612a32565b90945092506119f3888461206461297c565b6119fd81896122e5565b600a55509750975097945050505050565b611a3b81600081518110611a2457611a246158a4565b6020026020010151611a366001611e37565b612ad0565b81600081518110611a4e57611a4e6158a4565b602002602001018181525050611a8281600181518110611a7057611a706158a4565b6020026020010151611a366000611e37565b81600181518110611a9557611a956158a4565b60200260200101818152505050565b333014611b62576000306001600160a01b0316600036604051611ac8929190615b05565b6000604051808303816000865af19150503d8060008114611b05576040519150601f19603f3d011682016040523d82523d6000602084013e611b0a565b606091505b505090508060008114611b1957fe5b60046000803e6000516001600160e01b0319166343adbafb60e01b8114611b44573d6000803e3d6000fd5b506020600460003e604060205260243d03602460403e601c3d016000f35b611b6b86611cc0565b600080611b818b8b8b8b8b8b8b8b63ffffffff16565b5091509150611b93818463ffffffff16565b8051601f1982018390526343adbafb603f1983015260200260231982016044820181fd5b505050505050505050565b6000806000806000806000611bd688612ae9565b9650611be188612af6565b9550611bec88612b03565b9450611bf788612b10565b9350611c0288612b1d565b9250611c0d88612b2a565b9150611c18886117c3565b9050919395979092949650565b600081611c445760405162461bcd60e51b815260040161076990615b15565b82611c5157506000610600565b6000611c65670de0b6b3a76400008561591a565b9050670de0b6b3a7640000611c7a8583615b3c565b14611c975760405162461bcd60e51b815260040161076990615b50565b611ca18382615b3c565b915050610600565b6000611cb8600885858561255b565b949350505050565b611cca6001611e37565b81600081518110611cdd57611cdd6158a4565b6020026020010151611cef919061591a565b81600081518110611d0257611d026158a4565b602002602001018181525050611d186000611e37565b81600181518110611d2b57611d2b6158a4565b6020026020010151611a82919061591a565b6112cb8282612b37565b60006060806000611d5661226a565b90506000611d64828a6122e5565b90506000611d778a84600a54858c612885565b9050611d868a8261206461297c565b600080611d948c868b612bd2565b91509150611da58c826112cf61297c565b611daf858d6122e5565b600a55909e909d50909b509950505050505050505050565b611df481600081518110611ddd57611ddd6158a4565b6020026020010151611def6001611e37565b612c5c565b81600081518110611e0757611e076158a4565b602002602001018181525050611a8281600181518110611e2957611e296158a4565b6020026020010151611def60005b600081611e64577f0000000000000000000000000000000000000000000000000000000000000000610600565b7f000000000000000000000000000000000000000000000000000000000000000092915050565b600081611eb8577f0000000000000000000000000000000000000000000000000000000000000000610600565b7f000000000000000000000000000000000000000000000000000000000000000092915050565b600061131d828461591a565b600954611ef78161191b565b8015611f0257508343115b156108a4576000611f557f0000000000000000000000000000000000000000000000000000000000000000857f000000000000000000000000000000000000000000000000000000000000000086612c99565b90506000611f8c7f000000000000000000000000000000000000000000000000000000000000000086611f87866118ec565b612cc4565b90506000611f998461190b565b90506000611fa6856118f9565b90506000611fbf82848787611fba8b6118e0565b612cea565b9050808314611bb757611fd28682612d58565b9550611fde8642612d6e565b600955505050505050505050565b600080611ff9838561591a565b905083158061201057508261200e8583615b3c565b145b61202c5760405162461bcd60e51b815260040161076990615b76565b8061203b576000915050610600565b670de0b6b3a764000061204f6001836158eb565b6120599190615b3c565b611ca1906001615902565b6000828211156120a55760405162461bcd60e51b815260206004820152600c60248201526b5355425f4f564552464c4f5760a01b6044820152606401610769565b6000611cb883856158eb565b60006120c4858486858a60600151612d86565b90505b95945050505050565b600061131d8383612ad0565b60006120c4858486858a60600151612e31565b600061131d8383612c5c565b6000670de0b6b3a76400008210612113576000610600565b61060082670de0b6b3a76400006158eb565b6000816121445760405162461bcd60e51b815260040161076990615b15565b8261215157506000610600565b6000612165670de0b6b3a76400008561591a565b9050670de0b6b3a764000061217a8583615b3c565b146121975760405162461bcd60e51b815260040161076990615b50565b8261204f6001836158eb565b60006121ad610ca0565b6001600160a01b031663aaabadc56040518163ffffffff1660e01b815260040160206040518083038186803b1580156121e557600080fd5b505afa1580156121f9573d6000803e3d6000fd5b505050506040513d601f19601f820116820180604052508101906108b49190615b9c565b60008181526020849052604081205481612236826117c3565b116122535760405162461bcd60e51b815260040161076990615bb9565b600061225f8286612ed8565b90506115f9816127af565b604080516002808252606080830184529260009291906020830190803683370190505090506122996001611e8b565b816000815181106122ac576122ac6158a4565b6020026020010181815250506122c26000611e8b565b816001815181106122d5576122d56158a4565b6020908102919091010152919050565b670de0b6b3a764000060005b835181101561235d57612349612342858381518110612312576123126158a4565b602002602001015185848151811061232c5761232c6158a4565b6020026020010151612f2890919063ffffffff16565b8390612f77565b915080612355816158d0565b9150506122f1565b50600081116106005760405162461bcd60e51b815260206004820152600e60248201526d16915493d7d2539590549250539560921b6044820152606401610769565b60006123a96117d1565b60405161190160f01b6020820152602281019190915260428101839052606201610c3a565b6000606060006123dd84612fc9565b90506123fe60008260038111156123f6576123f6615939565b1460ce6112bd565b600061240985612fdf565b905061241781516002611941565b61242081611cc0565b600061242a61226a565b9050600061243882846122e5565b9050600061244782600261591a565b600a9290925550945090925050505b94509492505050565b6112cb8282612ff5565b600073ba1ba1ba1ba1ba1ba1ba1ba1ba1ba1ba1ba1ba1b612488610c7c565b6001600160a01b0316141580156124a357506124a383613066565b156124cb576124b0610c7c565b6001600160a01b0316336001600160a01b0316149050610600565b6124d36121a3565b6040516326f8aa2160e21b8152600481018590526001600160a01b0384811660248301523060448301529190911690639be2a8849060640160206040518083038186803b15801561252357600080fd5b505afa158015612537573d6000803e3d6000fd5b505050506040513d601f19601f820116820180604052508101906112ac9190615be9565b6000814210156125ac5760405162461bcd60e51b815260206004820152601c60248201527b4f5241434c455f494e56414c49445f5345434f4e44535f515545525960201b6044820152606401610769565b60006125b883426158eb565b6000858152602088905260408120549192506125d3826117c3565b9050600081116125f55760405162461bcd60e51b815260040161076990615bb9565b82811161263e57600061260882856158eb565b905080612615848a612ed8565b61261f9190615c06565b612629848a613098565b6126339190615c8b565b945050505050611cb8565b60008061264a886130e8565b600081815260208c90526040812054919250612665826117c3565b90508015612677576104009350612696565b600080805260208d9052604081205493945092612693906117c3565b90505b868111156126dd5760405162461bcd60e51b815260206004820152601460248201527313d49050d31157d45551549657d513d3d7d3d31160621b6044820152606401610769565b50506000806126ee8c8885876130f5565b9150915060006126fd836117c3565b612706836117c3565b61271091906158eb565b90508015612794576000612724848e613098565b61272e848f613098565b6127389190615a82565b90506000612745856117c3565b61274f908b6158eb565b90508261275c8284615c06565b6127669190615ad7565b6127798f8761309890919063ffffffff16565b6127839190615c8b565b9a5050505050505050505050611cb8565b61279e838d613098565b9d9c50505050505050505050505050565b60006106006127c4655af3107a400084615c06565b6131f9565b60006127d884841115836112bd565b60006120c784866158eb565b6000806127f083613829565b905060008082136128105761280b652d79883d200083615a82565b612820565b612820652d79883d200083615c8b565b9050611cb8655af3107a400082615ad7565b600061131d83838361389e565b600061131d8383601661389e565b661fffffffffffff91909116901b90565b600082821c623fffff16621fffff81136128785780611cb8565b623fffff19179392505050565b60408051600280825260608083018452926000929190602083019080368337019050509050826128b65790506120c7565b612935877f0000000000000000000000000000000000000000000000000000000000000000815181106128eb576128eb6158a4565b6020026020010151877f000000000000000000000000000000000000000000000000000000000000000081518110612925576129256158a4565b60200260200101518787876138b5565b817f000000000000000000000000000000000000000000000000000000000000000081518110612967576129676158a4565b60209081029190910101529695505050505050565b6129be83600081518110612992576129926158a4565b6020026020010151836000815181106129ad576129ad6158a4565b60200260200101518363ffffffff16565b836000815181106129d1576129d16158a4565b602002602001018181525050612a0e836001815181106129f3576129f36158a4565b6020026020010151836001815181106129ad576129ad6158a4565b83600181518110612a2157612a216158a4565b602002602001018181525050505050565b600060606000612a4184612fc9565b90506000816003811115612a5757612a57615939565b1415612a7257612a6886868661392d565b9250925050612ac8565b6001816003811115612a8657612a86615939565b1415612a9657612a6886856139f2565b6002816003811115612aaa57612aaa615939565b1415612abb57612a68868686613a25565b612ac6610150611324565b505b935093915050565b6000612adf82151560046112bd565b61131d8284615b3c565b60006106008260ea61285e565b60006106008260b5613a92565b600061060082609f61285e565b600061060082606a613a92565b600061060082605461285e565b600061060082601f613a92565b612b4e6001600160a01b038316151561019b6112bd565b6001600160a01b038216600090815260208190526040902054612b7490826101a16127c9565b6001600160a01b038316600090815260208190526040902055600254612b9b9082906158eb565b6002556040518181526000906001600160a01b03841690600080516020615e39833981519152906020015b60405180910390a35050565b600060606000612be184612fc9565b90506001816003811115612bf757612bf7615939565b1415612c0857612a68868686613ac5565b6002816003811115612c1c57612c1c615939565b1415612c2d57612a68868686613b1d565b6003816003811115612c4157612c41615939565b1415612c5157612a688685613bae565b612ac6610136611324565b6000612c6b82151560046112bd565b82612c7857506000610600565b81612c846001856158eb565b612c8e9190615b3c565b6112ac906001615902565b600080612cb9612ca98486612125565b612cb38789612125565b90612125565b90506115f9816127e4565b600080612cd18486612125565b90506000612cde826127e4565b90506115f98482615a82565b600080612d1385858542612d0a8b60009081526008602052604090205490565b93929190613bd4565b905060006078612d2389426158eb565b1015905080612d325786612d3b565b612d3b876130e8565b600081815260086020526040902092909255509695505050505050565b6000604b82901b6103ff604b1b1984161761131d565b6000602c82901b637fffffff602c1b1984161761131d565b6000612d9a86670429d069189e0000612f77565b821115612dd85760405162461bcd60e51b815260206004820152600c60248201526b4d41585f494e5f524154494f60a01b6044820152606401610769565b6000612de48388615902565b90506000612df28883612125565b90506000612e008887611c25565b90506000612e0e8383613c5e565b9050612e23612e1c826120fb565b8990612f77565b9a9950505050505050505050565b6000612e4584670429d069189e0000612f77565b821115612e845760405162461bcd60e51b815260206004820152600d60248201526c4d41585f4f55545f524154494f60981b6044820152606401610769565b6000612e9a612e9384876158eb565b8690612125565b90506000612ea88588612125565b90506000612eb68383613c5e565b90506000612ecc670de0b6b3a7640000836158eb565b9050612e238a82611fec565b600080826002811115612eed57612eed615939565b1415612efc576112ac83612ae9565b6001826002811115612f1057612f10615939565b1415612f1f576112ac83612b03565b6112ac83612b1d565b600080612f358484613c8a565b90506000612f4f612f4883612710611fec565b60016112cf565b905080821015612f6457600092505050610600565b612f6e8282612064565b92505050610600565b600080612f84838561591a565b9050831580612f9b575082612f998583615b3c565b145b612fb75760405162461bcd60e51b815260040161076990615b76565b611cb8670de0b6b3a764000082615b3c565b6000818060200190518101906106009190615cd9565b60608180602001905181019061131d9190615cf6565b806002546130039190615902565b6002556001600160a01b03821660009081526020819052604090205461302a908290615902565b6001600160a01b03831660008181526020818152604080832094909455925184815291929091600080516020615e398339815191529101612bc6565b6000613078631c74c91760e11b610bf2565b82148061060057506130906350dd6ed960e01b610bf2565b821492915050565b6000808260028111156130ad576130ad615939565b14156130bc576112ac83612af6565b60018260028111156130d0576130d0615939565b14156130df576112ac83612b10565b6112ac83612b2a565b6000610600826001613def565b60008080806131056001866158eb565b905060008060005b8385116131a257600060026131228787615902565b61312c9190615b3c565b9050613138818b613def565b600081815260208e905260409020549094509250613155836117c3565b91508a8210156131715761316a816001615902565b955061319c565b8a82111561318b576131846001826158eb565b945061319c565b828397509750505050505050612456565b5061310d565b8981106131ca578a60006131b585613e08565b815260200190815260200160002054826131e7565b818b60006131d7866130e8565b8152602001908152602001600020545b96509650505050505094509492505050565b6000613228680238fd42c5cf03ffff198312158015613221575068070c1cc73b00c800008313155b60096112bd565b60008212156132595761323d6127c483615d46565b61324f670de0b6b3a764000080615c06565b6106009190615ad7565b60006806f05b59d3b2000000831261329e5761327e6806f05b59d3b200000084615a82565b925072195e54c5dd42177f53a27172fa9ec63026282760241b90506132db565b6803782dace9d900000083126132d7576132c16803782dace9d900000084615a82565b92506b1425982cf597cd205cef738090506132db565b5060015b6132e6606484615c06565b925068056bc75e2d6310000068ad78ebc5ac6200000084126133475761331568ad78ebc5ac6200000085615a82565b935068056bc75e2d6310000061333a6e01855144814a7ff805980ff008400083615c06565b6133449190615ad7565b90505b6856bc75e2d63100000084126133995761336a6856bc75e2d63100000085615a82565b935068056bc75e2d6310000061338c6b02df0ab5a80a22c61ab5a70083615c06565b6133969190615ad7565b90505b682b5e3af16b1880000084126133e9576133bc682b5e3af16b1880000085615a82565b935068056bc75e2d631000006133dc693f1fce3da636ea5cf85083615c06565b6133e69190615ad7565b90505b6815af1d78b58c40000084126134395761340c6815af1d78b58c40000085615a82565b935068056bc75e2d6310000061342c690127fa27722cc06cc5e283615c06565b6134369190615ad7565b90505b680ad78ebc5ac620000084126134885761345c680ad78ebc5ac620000085615a82565b935068056bc75e2d6310000061347b68280e60114edb805d0383615c06565b6134859190615ad7565b90505b68056bc75e2d6310000084126134d7576134ab68056bc75e2d6310000085615a82565b935068056bc75e2d631000006134ca680ebc5fb4174612111083615c06565b6134d49190615ad7565b90505b6802b5e3af16b18800008412613526576134fa6802b5e3af16b188000085615a82565b935068056bc75e2d631000006135196808f00f760a4b2db55d83615c06565b6135239190615ad7565b90505b68015af1d78b58c4000084126135755761354968015af1d78b58c4000085615a82565b935068056bc75e2d631000006135686806f5f177578893793783615c06565b6135729190615ad7565b90505b68056bc75e2d631000008461358a8183615c8b565b9150600268056bc75e2d631000006135a28884615c06565b6135ac9190615ad7565b6135b69190615ad7565b90506135c28183615c8b565b9150600368056bc75e2d631000006135da8884615c06565b6135e49190615ad7565b6135ee9190615ad7565b90506135fa8183615c8b565b9150600468056bc75e2d631000006136128884615c06565b61361c9190615ad7565b6136269190615ad7565b90506136328183615c8b565b9150600568056bc75e2d6310000061364a8884615c06565b6136549190615ad7565b61365e9190615ad7565b905061366a8183615c8b565b9150600668056bc75e2d631000006136828884615c06565b61368c9190615ad7565b6136969190615ad7565b90506136a28183615c8b565b9150600768056bc75e2d631000006136ba8884615c06565b6136c49190615ad7565b6136ce9190615ad7565b90506136da8183615c8b565b9150600868056bc75e2d631000006136f28884615c06565b6136fc9190615ad7565b6137069190615ad7565b90506137128183615c8b565b9150600968056bc75e2d6310000061372a8884615c06565b6137349190615ad7565b61373e9190615ad7565b905061374a8183615c8b565b9150600a68056bc75e2d631000006137628884615c06565b61376c9190615ad7565b6137769190615ad7565b90506137828183615c8b565b9150600b68056bc75e2d6310000061379a8884615c06565b6137a49190615ad7565b6137ae9190615ad7565b90506137ba8183615c8b565b9150600c68056bc75e2d631000006137d28884615c06565b6137dc9190615ad7565b6137e69190615ad7565b90506137f28183615c8b565b915060648468056bc75e2d6310000061380b8587615c06565b6138159190615ad7565b61381f9190615c06565b6115f99190615ad7565b60006138396000831360646112bd565b8161385467016345785d8a0000670de0b6b3a7640000615a82565b1280156138795750613876670de0b6b3a764000067016345785d8a0000615c8b565b82125b1561389057670de0b6b3a764000061324f83613e15565b6106008261404c565b919050565b623fffff828116821b90821b198416179392505050565b60008383116138c6575060006120c7565b60006138d28585612125565b905060006138e8670de0b6b3a764000088611c25565b90506138fc826709b6e64a8ec6000061462e565b9150600061390a8383613c5e565b9050600061392161391a836120fb565b8b90612f77565b9050612e238187612f77565b600060606139396116c6565b60008061394585614645565b915091506139576002821060646112bd565b6040805160028082526060820183526000926020830190803683370190505090506139c688838151811061398d5761398d6158a4565b60200260200101518884815181106139a7576139a76158a4565b6020026020010151856139b960025490565b6139c1610988565b614667565b508183815181106139d9576139d96158a4565b6020908102919091010152919791965090945050505050565b600060606000613a0184614759565b90506000613a188683613a1360025490565b61476f565b9196919550909350505050565b60006060613a316116c6565b600080613a3d85614837565b91509150613a4d82516002611941565b613a5682611cc0565b6000613a74888885613a6760025490565b613a6f610988565b61484f565b509050613a858282111560cf6112bd565b9791965090945050505050565b600082821c661fffffffffffff16660fffffffffffff8113613ab45780611cb8565b661fffffffffffff19179392505050565b60006060600080613ad585614837565b91509150613ae582516002611941565b613aee82611cc0565b6000613b0c888885613aff60025490565b613b07610988565b6149c0565b509050613a858282101560d06112bd565b60006060600080613b2d85614645565b91509150613b3f6002821060646112bd565b6040805160028082526060820183526000926020830190803683370190505090506139c6888381518110613b7557613b756158a4565b6020026020010151888481518110613b8f57613b8f6158a4565b602002602001015185613ba160025490565b613ba9610988565b614b28565b600060606000613bbd84614759565b90506000613a188683613bcf60025490565b614c3a565b600080613be0876117c3565b613bea90846158eb565b90506000613bf88288615c06565b613c0189612af6565b613c0b9190615c8b565b90506000613c198388615c06565b613c228a612b10565b613c2c9190615c8b565b90506000613c3a8488615c06565b613c438b612b2a565b613c4d9190615c8b565b9050612e2389848a858b868c611764565b600080613c6b8484613c8a565b90506000613c7e612f4883612710611fec565b90506120c782826112cf565b600081613ca05750670de0b6b3a7640000610600565b82613cad57506000610600565b613cbe600160ff1b841060066112bd565b82613ce2613cd968056bc75e2d63100000600160fe1b615b3c565b841060076112bd565b82600082613d0067016345785d8a0000670de0b6b3a7640000615a82565b128015613d255750613d22670de0b6b3a764000067016345785d8a0000615c8b565b83125b15613d8e576000613d3584613e15565b9050670de0b6b3a764000083613d4b8284615d63565b613d559190615c06565b613d5f9190615ad7565b83613d72670de0b6b3a764000084615ad7565b613d7c9190615c06565b613d869190615c8b565b915050613da5565b81613d988461404c565b613da29190615c06565b90505b613db7670de0b6b3a764000082615ad7565b9050613de681680238fd42c5cf03ffff1913158015613ddf575068070c1cc73b00c800008213155b60086112bd565b6115f9816131f9565b6000610400613dfe8385615902565b61131d9190615d77565b6000610600826001614ce2565b6000613e29670de0b6b3a764000083615c06565b91506000613e456a0c097ce7bc90715b34b9f160241b84615c8b565b6a0c097ce7bc90715b34b9f160241b613e5e8186615a82565b613e689190615c06565b613e729190615ad7565b905060006a0c097ce7bc90715b34b9f160241b613e8f8380615c06565b613e999190615ad7565b905081806a0c097ce7bc90715b34b9f160241b613eb68483615c06565b613ec09190615ad7565b9150613ecd600383615ad7565b613ed79082615c8b565b90506a0c097ce7bc90715b34b9f160241b613ef28484615c06565b613efc9190615ad7565b9150613f09600583615ad7565b613f139082615c8b565b90506a0c097ce7bc90715b34b9f160241b613f2e8484615c06565b613f389190615ad7565b9150613f45600783615ad7565b613f4f9082615c8b565b90506a0c097ce7bc90715b34b9f160241b613f6a8484615c06565b613f749190615ad7565b9150613f81600983615ad7565b613f8b9082615c8b565b90506a0c097ce7bc90715b34b9f160241b613fa68484615c06565b613fb09190615ad7565b9150613fbd600b83615ad7565b613fc79082615c8b565b90506a0c097ce7bc90715b34b9f160241b613fe28484615c06565b613fec9190615ad7565b9150613ff9600d83615ad7565b6140039082615c8b565b90506a0c097ce7bc90715b34b9f160241b61401e8484615c06565b6140289190615ad7565b9150614035600f83615ad7565b61403f9082615c8b565b90506115f9816002615c06565b6000670de0b6b3a764000082121561408c5761408382614074670de0b6b3a764000080615c06565b61407e9190615ad7565b61404c565b61060090615d46565b60006140b6670de0b6b3a764000072195e54c5dd42177f53a27172fa9ec63026282760241b615c06565b83126140f4576140dc72195e54c5dd42177f53a27172fa9ec63026282760241b84615ad7565b92506140f16806f05b59d3b200000082615c8b565b90505b614112670de0b6b3a76400006b1425982cf597cd205cef7380615c06565b83126141465761412e6b1425982cf597cd205cef738084615ad7565b92506141436803782dace9d900000082615c8b565b90505b614151606482615c06565b905061415e606484615c06565b92506e01855144814a7ff805980ff008400083126141bb576e01855144814a7ff805980ff008400061419968056bc75e2d6310000085615c06565b6141a39190615ad7565b92506141b868ad78ebc5ac6200000082615c8b565b90505b6b02df0ab5a80a22c61ab5a7008312614210576b02df0ab5a80a22c61ab5a7006141ee68056bc75e2d6310000085615c06565b6141f89190615ad7565b925061420d6856bc75e2d63100000082615c8b565b90505b693f1fce3da636ea5cf850831261426157693f1fce3da636ea5cf85061423f68056bc75e2d6310000085615c06565b6142499190615ad7565b925061425e682b5e3af16b1880000082615c8b565b90505b690127fa27722cc06cc5e283126142b257690127fa27722cc06cc5e261429068056bc75e2d6310000085615c06565b61429a9190615ad7565b92506142af6815af1d78b58c40000082615c8b565b90505b68280e60114edb805d0383126143015768280e60114edb805d036142df68056bc75e2d6310000085615c06565b6142e99190615ad7565b92506142fe680ad78ebc5ac620000082615c8b565b90505b680ebc5fb41746121110831261435057680ebc5fb4174612111061432e68056bc75e2d6310000085615c06565b6143389190615ad7565b925061434d68056bc75e2d6310000082615c8b565b90505b6808f00f760a4b2db55d831261439f576808f00f760a4b2db55d61437d68056bc75e2d6310000085615c06565b6143879190615ad7565b925061439c6802b5e3af16b188000082615c8b565b90505b6806f5f177578893793783126143ee576806f5f17757889379376143cc68056bc75e2d6310000085615c06565b6143d69190615ad7565b92506143eb68015af1d78b58c4000082615c8b565b90505b6806248f33704b286603831261443c576806248f33704b28660361441b68056bc75e2d6310000085615c06565b6144259190615ad7565b925061443967ad78ebc5ac62000082615c8b565b90505b6805c548670b9510e7ac831261448a576805c548670b9510e7ac61446968056bc75e2d6310000085615c06565b6144739190615ad7565b92506144876756bc75e2d631000082615c8b565b90505b600061449f68056bc75e2d6310000085615c8b565b68056bc75e2d631000006144b38187615a82565b6144bd9190615c06565b6144c79190615ad7565b9050600068056bc75e2d631000006144df8380615c06565b6144e99190615ad7565b9050818068056bc75e2d631000006145018483615c06565b61450b9190615ad7565b9150614518600383615ad7565b6145229082615c8b565b905068056bc75e2d631000006145388484615c06565b6145429190615ad7565b915061454f600583615ad7565b6145599082615c8b565b905068056bc75e2d6310000061456f8484615c06565b6145799190615ad7565b9150614586600783615ad7565b6145909082615c8b565b905068056bc75e2d631000006145a68484615c06565b6145b09190615ad7565b91506145bd600983615ad7565b6145c79082615c8b565b905068056bc75e2d631000006145dd8484615c06565b6145e79190615ad7565b91506145f4600b83615ad7565b6145fe9082615c8b565b905061460b600282615c06565b905060646146198287615c8b565b6146239190615ad7565b979650505050505050565b60008183101561463e578161131d565b5090919050565b6000808280602001905181019061465c9190615d8b565b909590945092505050565b6000808061467985612cb388826158eb565b90506709b6e64a8ec600008110156146ce5760405162461bcd60e51b815260206004820152601860248201527713525397d0941517d25397d193d497d513d2d15397d3d55560421b6044820152606401610769565b60006146ec6146e5670de0b6b3a76400008a611c25565b8390613c5e565b905060006146fc61391a836120fb565b905060006147098a6120fb565b905060006147178383611fec565b9050600061472582856158eb565b9050614731828a611fec565b965061473d87836158eb565b6147479082615902565b97505050505050509550959350505050565b60008180602001905181019061131d9190615dc2565b6060600061477d8484611c25565b9050600085516001600160401b0381111561479a5761479a61513d565b6040519080825280602002602001820160405280156147c3578160200160208202803683370190505b50905060005b865181101561482d576147fe838883815181106147e8576147e86158a4565b6020026020010151612f7790919063ffffffff16565b828281518110614810576148106158a4565b602090810291909101015280614825816158d0565b9150506147c9565b5095945050505050565b606060008280602001905181019061465c9190615df0565b60006060600085516001600160401b0381111561486e5761486e61513d565b604051908082528060200260200182016040528015614897578160200160208202803683370190505b5090506000805b8951811015614983576149028a82815181106148bc576148bc6158a4565b60200260200101518983815181106148d6576148d66158a4565b60200260200101518c84815181106148f0576148f06158a4565b6020026020010151612cb391906158eb565b838281518110614914576149146158a4565b602002602001018181525050614965898281518110614935576149356158a4565b602002602001015184838151811061494f5761494f6158a4565b6020026020010151611fec90919063ffffffff16565b61496f9083615902565b91508061497b816158d0565b91505061489e565b506000806149958b8b8b87878c614cfc565b9150915060006149ae6149a7846120fb565b8a90611fec565b9c919b50909950505050505050505050565b60006060600085516001600160401b038111156149df576149df61513d565b604051908082528060200260200182016040528015614a08578160200160208202803683370190505b5090506000805b8951811015614ade57614a738a8281518110614a2d57614a2d6158a4565b6020026020010151898381518110614a4757614a476158a4565b60200260200101518c8481518110614a6157614a616158a4565b6020026020010151610a6a9190615902565b838281518110614a8557614a856158a4565b602002602001018181525050614ac0898281518110614aa657614aa66158a4565b60200260200101518483815181106147e8576147e86158a4565b614aca9083615902565b915080614ad6816158d0565b915050614a0f565b50600080614af08b8b8b87878c614ee1565b915091506000670de0b6b3a76400008311614b0c5760006149ae565b6149ae614b21670de0b6b3a7640000856158eb565b8a90612f77565b60008080614b3a85612cb38882615902565b90506729a2241af62c0000811115614b8f5760405162461bcd60e51b815260206004820152601860248201527726a0ac2fa7aaaa2fa1282a2fa327a92faa27a5a2a72fa4a760411b6044820152606401610769565b6000614ba66146e5670de0b6b3a76400008a612125565b90506000614bc6614bbf670de0b6b3a7640000846158eb565b8b90611fec565b90506000614bd38a6120fb565b90506000614be18383611fec565b90506000614bef82856158eb565b90506000614c0f614c088b670de0b6b3a76400006158eb565b8490612125565b9050614c1b83826158eb565b9750614c278183615902565b9850505050505050509550959350505050565b60606000614c488484612125565b9050600085516001600160401b03811115614c6557614c6561513d565b604051908082528060200260200182016040528015614c8e578160200160208202803683370190505b50905060005b865181101561482d57614cb38388838151811061494f5761494f6158a4565b828281518110614cc557614cc56158a4565b602090810291909101015280614cda816158d0565b915050614c94565b600061040082614cf28286615902565b613dfe91906158eb565b6000606085516001600160401b03811115614d1957614d1961513d565b604051908082528060200260200182016040528015614d42578160200160208202803683370190505b509050670de0b6b3a7640000915060005b8851811015614ed5576000868281518110614d7057614d706158a4565b6020026020010151861115614e25576000614d9f614d8d886120fb565b8c85815181106147e8576147e86158a4565b90506000818a8581518110614db657614db66158a4565b6020026020010151614dc891906158eb565b90506000614de8614de189670de0b6b3a76400006158eb565b8390612125565b9050614df482826158eb565b868681518110614e0657614e066158a4565b6020908102919091010152614e1b8184615902565b9350505050614e42565b878281518110614e3757614e376158a4565b602002602001015190505b6000614e868b8481518110614e5957614e596158a4565b6020026020010151838d8681518110614e7457614e746158a4565b6020026020010151610a6a91906158eb565b9050614ebe614eb78b8581518110614ea057614ea06158a4565b602002602001015183612f2890919063ffffffff16565b8690612f77565b945050508080614ecd906158d0565b915050614d53565b50965096945050505050565b6000606085516001600160401b03811115614efe57614efe61513d565b604051908082528060200260200182016040528015614f27578160200160208202803683370190505b509050670de0b6b3a7640000915060005b8851811015614ed557600085878381518110614f5657614f566158a4565b60200260200101511115614ff1576000614f7b614d8d670de0b6b3a7640000896158eb565b90506000818a8581518110614f9257614f926158a4565b6020026020010151614fa491906158eb565b90506000614fb28289611fec565b9050614fbe81836158eb565b614fc89084615902565b935080868681518110614fdd57614fdd6158a4565b60200260200101818152505050505061500e565b878281518110615003576150036158a4565b602002602001015190505b60006150408b8481518110615025576150256158a4565b6020026020010151838d8681518110614a6157614a616158a4565b905061505a614eb78b8581518110614ea057614ea06158a4565b945050508080615069906158d0565b915050614f38565b600060208083528351808285015260005b8181101561509e57858101830151858201604001528201615082565b818111156150b0576000604083870101525b50601f01601f1916929092016040019392505050565b6001600160a01b038116811461061757600080fd5b8035613899816150c6565b600080604083850312156150f957600080fd5b8235615104816150c6565b946020939093013593505050565b801515811461061757600080fd5b60006020828403121561513257600080fd5b813561131d81615112565b634e487b7160e01b600052604160045260246000fd5b604051606081016001600160401b03811182821017156151755761517561513d565b60405290565b604080519081016001600160401b03811182821017156151755761517561513d565b60405161012081016001600160401b03811182821017156151755761517561513d565b604051601f8201601f191681016001600160401b03811182821017156151e8576151e861513d565b604052919050565b60006001600160401b038211156152095761520961513d565b5060051b60200190565b80356003811061389957600080fd5b6000602080838503121561523557600080fd5b82356001600160401b0381111561524b57600080fd5b8301601f8101851361525c57600080fd5b803561526f61526a826151f0565b6151c0565b8181526060918202830184019184820191908884111561528e57600080fd5b938501935b838510156152df5780858a0312156152ab5760008081fd5b6152b3615153565b6152bc86615213565b815285870135878201526040808701359082015283529384019391850191615293565b50979650505050505050565b600081518084526020808501945080840160005b8381101561531b578151875295820195908201906001016152ff565b509495945050505050565b60208152600061131d60208301846152eb565b60008060006060848603121561534e57600080fd5b8335615359816150c6565b92506020840135615369816150c6565b929592945050506040919091013590565b6000806040838503121561538d57600080fd5b50508035926020909101359150565b6000602082840312156153ae57600080fd5b5035919050565b600082601f8301126153c657600080fd5b81356001600160401b038111156153df576153df61513d565b6153f2601f8201601f19166020016151c0565b81815284602083860101111561540757600080fd5b816020850160208301376000918101602001919091529392505050565b600080600080600080600060e0888a03121561543f57600080fd5b87359650602080890135615452816150c6565b96506040890135615462816150c6565b955060608901356001600160401b038082111561547e57600080fd5b818b0191508b601f83011261549257600080fd5b81356154a061526a826151f0565b81815260059190911b8301840190848101908e8311156154bf57600080fd5b938501935b828510156154dd578435825293850193908501906154c4565b9850505060808b0135955060a08b0135945060c08b013592508083111561550357600080fd5b50506155118a828b016153b5565b91505092959891949750929550565b828152604060208201526000611cb860408301846152eb565b6000602080838503121561554c57600080fd5b82356001600160401b0381111561556257600080fd5b8301601f8101851361557357600080fd5b803561558161526a826151f0565b81815260069190911b820183019083810190878311156155a057600080fd5b928401925b8284101561462357604084890312156155be5760008081fd5b6155c661517b565b6155cf85615213565b815284860135868201528252604090930192908401906155a5565b6020808252825182820181905260009190848201906040850190845b8181101561562257835183529284019291840191600101615606565b50909695505050505050565b60006020828403121561564057600080fd5b813561131d816150c6565b60408152600061565e60408301856152eb565b82810360208401526120c781856152eb565b60006020828403121561568257600080fd5b81356001600160e01b03198116811461131d57600080fd5b80356002811061389957600080fd5b6000806000606084860312156156be57600080fd5b83356001600160401b03808211156156d557600080fd5b9085019061012082880312156156ea57600080fd5b6156f261519d565b6156fb8361569a565b8152615709602084016150db565b602082015261571a604084016150db565b6040820152606083013560608201526080830135608082015260a083013560a082015261574960c084016150db565b60c082015261575a60e084016150db565b60e0820152610100808401358381111561577357600080fd5b61577f8a8287016153b5565b9183019190915250976020870135975060409096013595945050505050565b6000602082840312156157b057600080fd5b61131d82615213565b600080600080600080600060e0888a0312156157d457600080fd5b87356157df816150c6565b965060208801356157ef816150c6565b95506040880135945060608801359350608088013560ff8116811461581357600080fd5b9699959850939692959460a0840135945060c09093013592915050565b6000806040838503121561584357600080fd5b823561584e816150c6565b9150602083013561585e816150c6565b809150509250929050565b600181811c9082168061587d57607f821691505b6020821081141561589e57634e487b7160e01b600052602260045260246000fd5b50919050565b634e487b7160e01b600052603260045260246000fd5b634e487b7160e01b600052601160045260246000fd5b60006000198214156158e4576158e46158ba565b5060010190565b6000828210156158fd576158fd6158ba565b500390565b60008219821115615915576159156158ba565b500190565b6000816000190483118215151615615934576159346158ba565b500290565b634e487b7160e01b600052602160045260246000fd5b600082601f83011261596057600080fd5b8151602061597061526a836151f0565b82815260059290921b8401810191818101908684111561598f57600080fd5b8286015b848110156159aa5780518352918301918301615993565b509695505050505050565b6000806000606084860312156159ca57600080fd5b83516001600160401b03808211156159e157600080fd5b818601915086601f8301126159f557600080fd5b81516020615a0561526a836151f0565b82815260059290921b8401810191818101908a841115615a2457600080fd5b948201945b83861015615a4b578551615a3c816150c6565b82529482019490820190615a29565b91890151919750909350505080821115615a6457600080fd5b50615a718682870161594f565b925050604084015190509250925092565b60008083128015600160ff1b850184121615615aa057615aa06158ba565b6001600160ff1b0384018313811615615abb57615abb6158ba565b50500390565b634e487b7160e01b600052601260045260246000fd5b600082615ae657615ae6615ac1565b600160ff1b821460001984141615615b0057615b006158ba565b500590565b8183823760009101908152919050565b6020808252600d908201526c2d22a927afa224ab24a9a4a7a760991b604082015260600190565b600082615b4b57615b4b615ac1565b500490565b6020808252600c908201526b11125597d25395115493905360a21b604082015260600190565b6020808252600c908201526b4d554c5f4f564552464c4f5760a01b604082015260600190565b600060208284031215615bae57600080fd5b815161131d816150c6565b60208082526016908201527513d49050d31157d393d517d25392551250531256915160521b604082015260600190565b600060208284031215615bfb57600080fd5b815161131d81615112565b60006001600160ff1b0381841382841380821686840486111615615c2c57615c2c6158ba565b600160ff1b6000871282811687830589121615615c4b57615c4b6158ba565b60008712925087820587128484161615615c6757615c676158ba565b87850587128184161615615c7d57615c7d6158ba565b505050929093029392505050565b600080821280156001600160ff1b0384900385131615615cad57615cad6158ba565b600160ff1b8390038412811615615cc657615cc66158ba565b50500190565b6004811061061757600080fd5b600060208284031215615ceb57600080fd5b815161131d81615ccc565b60008060408385031215615d0957600080fd5b8251615d1481615ccc565b60208401519092506001600160401b03811115615d3057600080fd5b615d3c8582860161594f565b9150509250929050565b6000600160ff1b821415615d5c57615d5c6158ba565b5060000390565b600082615d7257615d72615ac1565b500790565b600082615d8657615d86615ac1565b500690565b600080600060608486031215615da057600080fd5b8351615dab81615ccc565b602085015160409095015190969495509392505050565b60008060408385031215615dd557600080fd5b8251615de081615ccc565b6020939093015192949293505050565b600080600060608486031215615e0557600080fd5b8351615e1081615ccc565b60208501519093506001600160401b03811115615e2c57600080fd5b615a718682870161594f56feddf252ad1be2c89b69c2b068fc378daa952ba7f163c4a11628f55a4df523b3efa2646970667358221220bb2553f7fb0f3d4f8f4e6f96252fdbff6c4abeeade8883d37797f6d42ad74fa464736f6c63430008090033",
  "devdoc": {
    "kind": "dev",
    "methods": {
      "create(string,string,address[],uint256[],uint256,bool,address)": {
        "details": "Deploys a new `WeightedPool2Tokens`."
      },
      "getCreationCode()": {
        "details": "Returns the creation code of the contract this factory creates."
      },
      "getCreationCodeContracts()": {
        "details": "Returns the two addresses where the creation code of the contract crated by this factory is stored."
      },
      "getPauseConfiguration()": {
        "details": "Returns the current `TemporarilyPausable` configuration that will be applied to Pools created by this factory. `pauseWindowDuration` will decrease over time until it reaches zero, at which point both it and `bufferPeriodDuration` will be zero forever, meaning deployed Pools will not be pausable."
      },
      "getVault()": {
        "details": "Returns the Vault's address."
      },
      "isPoolFromFactory(address)": {
        "details": "Returns true if `pool` was created by this factory."
      }
    },
    "version": 1
  },
  "userdoc": {
    "kind": "user",
    "methods": {},
    "version": 1
  },
  "storageLayout": {
    "storage": [
      {
        "astId": 21026,
        "contract": "contracts/WeightedPool2TokensFactory.sol:WeightedPool2TokensFactory",
        "label": "_isPoolFromFactory",
        "offset": 0,
        "slot": "0",
        "type": "t_mapping(t_address,t_bool)"
      }
    ],
    "types": {
      "t_address": {
        "encoding": "inplace",
        "label": "address",
        "numberOfBytes": "20"
      },
      "t_bool": {
        "encoding": "inplace",
        "label": "bool",
        "numberOfBytes": "1"
      },
      "t_mapping(t_address,t_bool)": {
        "encoding": "mapping",
        "key": "t_address",
        "label": "mapping(address => bool)",
        "numberOfBytes": "32",
        "value": "t_bool"
      }
    }
  }
}