{
  "_format": "hh-sol-artifact-1",
  "contractName": "RequiemZap",
  "sourceName": "contracts/RequiemZap.sol",
  "abi": [
    {
      "inputs": [
        {
          "internalType": "contract IUniswapV2Router",
          "name": "_uniRouter",
          "type": "address"
        },
        {
          "internalType": "contract IRequiemRouter",
          "name": "_requiemRouter",
          "type": "address"
        }
      ],
      "stateMutability": "nonpayable",
      "type": "constructor"
    },
    {
      "anonymous": false,
      "inputs": [
        {
          "indexed": false,
          "internalType": "address",
          "name": "governance",
          "type": "address"
        }
      ],
      "name": "LogGovernance",
      "type": "event"
    },
    {
      "anonymous": false,
      "inputs": [
        {
          "indexed": true,
          "internalType": "address",
          "name": "token",
          "type": "address"
        },
        {
          "indexed": false,
          "internalType": "uint256",
          "name": "amount",
          "type": "uint256"
        },
        {
          "indexed": false,
          "internalType": "address",
          "name": "to",
          "type": "address"
        }
      ],
      "name": "Withdraw",
      "type": "event"
    },
    {
      "anonymous": false,
      "inputs": [
        {
          "indexed": true,
          "internalType": "address",
          "name": "sender",
          "type": "address"
        },
        {
          "indexed": false,
          "internalType": "address",
          "name": "from",
          "type": "address"
        },
        {
          "indexed": false,
          "internalType": "uint256",
          "name": "amtFrom",
          "type": "uint256"
        },
        {
          "indexed": false,
          "internalType": "address",
          "name": "pool",
          "type": "address"
        },
        {
          "indexed": false,
          "internalType": "uint256",
          "name": "amtLp",
          "type": "uint256"
        }
      ],
      "name": "ZapIn",
      "type": "event"
    },
    {
      "anonymous": false,
      "inputs": [
        {
          "indexed": true,
          "internalType": "address",
          "name": "sender",
          "type": "address"
        },
        {
          "indexed": false,
          "internalType": "address",
          "name": "pool",
          "type": "address"
        },
        {
          "indexed": false,
          "internalType": "uint256",
          "name": "amtLp",
          "type": "uint256"
        },
        {
          "indexed": false,
          "internalType": "address",
          "name": "to",
          "type": "address"
        },
        {
          "indexed": false,
          "internalType": "uint256",
          "name": "amtTo",
          "type": "uint256"
        }
      ],
      "name": "ZapOut",
      "type": "event"
    },
    {
      "inputs": [
        {
          "internalType": "address",
          "name": "",
          "type": "address"
        },
        {
          "internalType": "address",
          "name": "",
          "type": "address"
        },
        {
          "internalType": "uint256",
          "name": "",
          "type": "uint256"
        }
      ],
      "name": "RequiemPairs",
      "outputs": [
        {
          "internalType": "address",
          "name": "",
          "type": "address"
        }
      ],
      "stateMutability": "view",
      "type": "function"
    },
    {
      "inputs": [],
      "name": "WETH",
      "outputs": [
        {
          "internalType": "address",
          "name": "",
          "type": "address"
        }
      ],
      "stateMutability": "view",
      "type": "function"
    },
    {
      "inputs": [
        {
          "internalType": "address",
          "name": "_token",
          "type": "address"
        }
      ],
      "name": "addTokensResidual",
      "outputs": [],
      "stateMutability": "nonpayable",
      "type": "function"
    },
    {
      "inputs": [
        {
          "internalType": "address",
          "name": "_from",
          "type": "address"
        },
        {
          "internalType": "uint256",
          "name": "_fromAmount",
          "type": "uint256"
        },
        {
          "internalType": "address",
          "name": "lp",
          "type": "address"
        }
      ],
      "name": "getAmountBToZapIn",
      "outputs": [
        {
          "internalType": "uint256",
          "name": "amountBConverted",
          "type": "uint256"
        },
        {
          "internalType": "uint256",
          "name": "amountASell",
          "type": "uint256"
        }
      ],
      "stateMutability": "view",
      "type": "function"
    },
    {
      "inputs": [
        {
          "internalType": "address",
          "name": "_from",
          "type": "address"
        },
        {
          "internalType": "uint256",
          "name": "amount",
          "type": "uint256"
        },
        {
          "internalType": "address",
          "name": "_toToken",
          "type": "address"
        }
      ],
      "name": "getAmountToZapOut",
      "outputs": [
        {
          "internalType": "uint256",
          "name": "amountOtherSell",
          "type": "uint256"
        },
        {
          "internalType": "uint256",
          "name": "amountToConverted",
          "type": "uint256"
        },
        {
          "internalType": "uint256",
          "name": "amountToOrigin",
          "type": "uint256"
        }
      ],
      "stateMutability": "view",
      "type": "function"
    },
    {
      "inputs": [],
      "name": "governance",
      "outputs": [
        {
          "internalType": "address",
          "name": "",
          "type": "address"
        }
      ],
      "stateMutability": "view",
      "type": "function"
    },
    {
      "inputs": [],
      "name": "maxResidual",
      "outputs": [
        {
          "internalType": "uint256",
          "name": "",
          "type": "uint256"
        }
      ],
      "stateMutability": "view",
      "type": "function"
    },
    {
      "inputs": [],
      "name": "requiemFactory",
      "outputs": [
        {
          "internalType": "contract IRequiemFactory",
          "name": "",
          "type": "address"
        }
      ],
      "stateMutability": "view",
      "type": "function"
    },
    {
      "inputs": [],
      "name": "requiemFormula",
      "outputs": [
        {
          "internalType": "contract IRequiemFormula",
          "name": "",
          "type": "address"
        }
      ],
      "stateMutability": "view",
      "type": "function"
    },
    {
      "inputs": [],
      "name": "requiemRouter",
      "outputs": [
        {
          "internalType": "contract IRequiemRouter",
          "name": "",
          "type": "address"
        }
      ],
      "stateMutability": "view",
      "type": "function"
    },
    {
      "inputs": [
        {
          "internalType": "address",
          "name": "_governance",
          "type": "address"
        }
      ],
      "name": "setGovernance",
      "outputs": [],
      "stateMutability": "nonpayable",
      "type": "function"
    },
    {
      "inputs": [
        {
          "internalType": "uint256",
          "name": "_maxResidual",
          "type": "uint256"
        }
      ],
      "name": "setMaxResidual",
      "outputs": [],
      "stateMutability": "nonpayable",
      "type": "function"
    },
    {
      "inputs": [
        {
          "internalType": "address",
          "name": "_input",
          "type": "address"
        },
        {
          "internalType": "address",
          "name": "_output",
          "type": "address"
        },
        {
          "internalType": "address[]",
          "name": "_pair",
          "type": "address[]"
        }
      ],
      "name": "setRequiemPairs",
      "outputs": [],
      "stateMutability": "nonpayable",
      "type": "function"
    },
    {
      "inputs": [
        {
          "internalType": "address[]",
          "name": "_tokensResidual",
          "type": "address[]"
        }
      ],
      "name": "setTokensResidual",
      "outputs": [],
      "stateMutability": "nonpayable",
      "type": "function"
    },
    {
      "inputs": [
        {
          "internalType": "uint256",
          "name": "",
          "type": "uint256"
        }
      ],
      "name": "tokensResidual",
      "outputs": [
        {
          "internalType": "address",
          "name": "",
          "type": "address"
        }
      ],
      "stateMutability": "view",
      "type": "function"
    },
    {
      "inputs": [],
      "name": "uniRouter",
      "outputs": [
        {
          "internalType": "contract IUniswapV2Router",
          "name": "",
          "type": "address"
        }
      ],
      "stateMutability": "view",
      "type": "function"
    },
    {
      "inputs": [
        {
          "internalType": "address",
          "name": "to",
          "type": "address"
        }
      ],
      "name": "withdraw",
      "outputs": [],
      "stateMutability": "nonpayable",
      "type": "function"
    },
    {
      "inputs": [
        {
          "internalType": "address[]",
          "name": "tokens",
          "type": "address[]"
        },
        {
          "internalType": "address",
          "name": "to",
          "type": "address"
        }
      ],
      "name": "withdrawToken",
      "outputs": [],
      "stateMutability": "nonpayable",
      "type": "function"
    },
    {
      "inputs": [
        {
          "internalType": "address",
          "name": "token",
          "type": "address"
        },
        {
          "internalType": "address",
          "name": "to",
          "type": "address"
        },
        {
          "internalType": "uint256",
          "name": "amount",
          "type": "uint256"
        }
      ],
      "name": "withdrawTokenAmount",
      "outputs": [],
      "stateMutability": "nonpayable",
      "type": "function"
    },
    {
      "inputs": [
        {
          "internalType": "address",
          "name": "_to",
          "type": "address"
        },
        {
          "internalType": "uint256",
          "name": "_minTokenB",
          "type": "uint256"
        },
        {
          "internalType": "uint256",
          "name": "_minLp",
          "type": "uint256"
        },
        {
          "internalType": "bool",
          "name": "transferResidual",
          "type": "bool"
        }
      ],
      "name": "zapIn",
      "outputs": [
        {
          "internalType": "uint256",
          "name": "",
          "type": "uint256"
        }
      ],
      "stateMutability": "payable",
      "type": "function"
    },
    {
      "inputs": [
        {
          "internalType": "address",
          "name": "_from",
          "type": "address"
        },
        {
          "internalType": "uint256[]",
          "name": "amounts",
          "type": "uint256[]"
        },
        {
          "internalType": "address",
          "name": "_to",
          "type": "address"
        },
        {
          "internalType": "bool",
          "name": "transferResidual",
          "type": "bool"
        }
      ],
      "name": "zapInToken",
      "outputs": [
        {
          "internalType": "uint256",
          "name": "lpAmt",
          "type": "uint256"
        }
      ],
      "stateMutability": "nonpayable",
      "type": "function"
    },
    {
      "inputs": [
        {
          "internalType": "address",
          "name": "_from",
          "type": "address"
        },
        {
          "internalType": "uint256",
          "name": "amount",
          "type": "uint256"
        },
        {
          "internalType": "address",
          "name": "_toToken",
          "type": "address"
        },
        {
          "internalType": "uint256",
          "name": "_minTokensRec",
          "type": "uint256"
        }
      ],
      "name": "zapOut",
      "outputs": [
        {
          "internalType": "uint256",
          "name": "",
          "type": "uint256"
        }
      ],
      "stateMutability": "nonpayable",
      "type": "function"
    },
    {
      "inputs": [
        {
          "internalType": "address",
          "name": "_from",
          "type": "address"
        },
        {
          "internalType": "uint256",
          "name": "amount",
          "type": "uint256"
        },
        {
          "internalType": "address",
          "name": "_toToken",
          "type": "address"
        },
        {
          "internalType": "uint256",
          "name": "_minTokensRec",
          "type": "uint256"
        },
        {
          "internalType": "uint256",
          "name": "_approvalAmount",
          "type": "uint256"
        },
        {
          "internalType": "uint256",
          "name": "_deadline",
          "type": "uint256"
        },
        {
          "internalType": "uint8",
          "name": "v",
          "type": "uint8"
        },
        {
          "internalType": "bytes32",
          "name": "r",
          "type": "bytes32"
        },
        {
          "internalType": "bytes32",
          "name": "s",
          "type": "bytes32"
        }
      ],
      "name": "zapOutWithPermit",
      "outputs": [
        {
          "internalType": "uint256",
          "name": "",
          "type": "uint256"
        }
      ],
      "stateMutability": "nonpayable",
      "type": "function"
    },
    {
      "stateMutability": "payable",
      "type": "receive"
    }
  ],
  "bytecode": "0x608060405260646008553480156200001657600080fd5b50604051620043ed380380620043ed833981016040819052620000399162000262565b600160008190558054336001600160a01b0319918216179091556003805482166001600160a01b03858116919091179091556004805490921690831690811782556040805163c45a015560e01b81529051919263c45a0155928282019260209290829003018186803b158015620000af57600080fd5b505afa158015620000c4573d6000803e3d6000fd5b505050506040513d601f19601f82011682018060405250810190620000ea9190620002a1565b600560006101000a8154816001600160a01b0302191690836001600160a01b03160217905550806001600160a01b0316634b75f54f6040518163ffffffff1660e01b815260040160206040518083038186803b1580156200014a57600080fd5b505afa1580156200015f573d6000803e3d6000fd5b505050506040513d601f19601f82011682018060405250810190620001859190620002a1565b600660006101000a8154816001600160a01b0302191690836001600160a01b03160217905550806001600160a01b031663ad5c46486040518163ffffffff1660e01b815260040160206040518083038186803b158015620001e557600080fd5b505afa158015620001fa573d6000803e3d6000fd5b505050506040513d601f19601f82011682018060405250810190620002209190620002a1565b600280546001600160a01b0319166001600160a01b039290921691909117905550620002c89050565b6001600160a01b03811681146200025f57600080fd5b50565b600080604083850312156200027657600080fd5b8251620002838162000249565b6020840151909250620002968162000249565b809150509250929050565b600060208284031215620002b457600080fd5b8151620002c18162000249565b9392505050565b61411580620002d86000396000f3fe6080604052600436106101445760003560e01c8063761c262e116100b6578063bdbcf8211161006f578063bdbcf82114610413578063df373c0014610433578063e0243baa14610453578063e5bc292014610469578063f89e4c5714610489578063fb4a06c7146104a957600080fd5b8063761c262e146103605780637b191ff214610373578063a0e47bf614610393578063a863ff2f146103b3578063ab033ea9146103d3578063ad5c4648146103f357600080fd5b80633c01ae6e116101085780633c01ae6e14610277578063405649581461029757806351cff8d9146102d2578063521f2e09146102f25780635aa6e675146103205780635c863ebe1461034057600080fd5b806304d21f06146101a557806309342d95146101c557806314896f95146101ff57806328e802ac1461023757806334d2365b1461025757600080fd5b366101a0573332141561019e5760405162461bcd60e51b815260206004820152601d60248201527f5a61703a20446f206e6f742073656e6420455448206469726563746c7900000060448201526064015b60405180910390fd5b005b600080fd5b3480156101b157600080fd5b5061019e6101c036600461382f565b6104c9565b3480156101d157600080fd5b506101e56101e0366004613864565b61050a565b604080519283526020830191909152015b60405180910390f35b34801561020b57600080fd5b5061021f61021a3660046138a6565b61075a565b6040516001600160a01b0390911681526020016101f6565b34801561024357600080fd5b5061019e6102523660046138bf565b610784565b34801561026357600080fd5b5061019e6102723660046138a6565b610862565b34801561028357600080fd5b5061019e610292366004613900565b610891565b3480156102a357600080fd5b506102b76102b2366004613864565b61090d565b604080519384526020840192909252908201526060016101f6565b3480156102de57600080fd5b5061019e6102ed366004613900565b610b98565b3480156102fe57600080fd5b5061031261030d36600461392b565b610c2b565b6040519081526020016101f6565b34801561032c57600080fd5b5060015461021f906001600160a01b031681565b34801561034c57600080fd5b5061019e61035b3660046139db565b611125565b61031261036e366004613a3d565b61118a565b34801561037f57600080fd5b5061019e61038e366004613a87565b611250565b34801561039f57600080fd5b5060035461021f906001600160a01b031681565b3480156103bf57600080fd5b506103126103ce366004613ad9565b611316565b3480156103df57600080fd5b5061019e6103ee366004613900565b611832565b3480156103ff57600080fd5b5060025461021f906001600160a01b031681565b34801561041f57600080fd5b5060055461021f906001600160a01b031681565b34801561043f57600080fd5b5060045461021f906001600160a01b031681565b34801561045f57600080fd5b5061031260085481565b34801561047557600080fd5b50610312610484366004613b21565b6118b0565b34801561049557600080fd5b5060065461021f906001600160a01b031681565b3480156104b557600080fd5b5061021f6104c43660046138bf565b611951565b6001546001600160a01b031633146104f35760405162461bcd60e51b815260040161019590613bad565b80516105069060099060208401906136c1565b5050565b60008060008060008590506000816001600160a01b0316630dfe16816040518163ffffffff1660e01b815260040160206040518083038186803b15801561055057600080fd5b505afa158015610564573d6000803e3d6000fd5b505050506040513d601f19601f820116820180604052508101906105889190613bd7565b90506000826001600160a01b031663d21220a76040518163ffffffff1660e01b815260040160206040518083038186803b1580156105c557600080fd5b505afa1580156105d9573d6000803e3d6000fd5b505050506040513d601f19601f820116820180604052508101906105fd9190613bd7565b9050816001600160a01b03168a6001600160a01b03161461061e5781610620565b805b945061062e888b8b85611996565b9350600092506001915061063f9050565b604051908082528060200260200182016040528015610668578160200160208202803683370190505b509050858160008151811061067f5761067f613bf4565b6001600160a01b03928316602091820292909201015260065460055460405163119220a560e01b81526000939283169263119220a5926106cc929116908d90899089908990600401613c4e565b60006040518083038186803b1580156106e457600080fd5b505afa1580156106f8573d6000803e3d6000fd5b505050506040513d6000823e601f3d908101601f191682016040526107209190810190613c89565b905080600182516107319190613d25565b8151811061074157610741613bf4565b6020026020010151839550955050505050935093915050565b6009818154811061076a57600080fd5b6000918252602090912001546001600160a01b0316905081565b6001546001600160a01b031633146107ae5760405162461bcd60e51b815260040161019590613bad565b6001600160a01b0382166108045760405162461bcd60e51b815260206004820152601d60248201527f5a61703a20496e76616c696420526563656976657220416464726573730000006044820152606401610195565b6108186001600160a01b0384168383611b96565b604080518281526001600160a01b0384811660208301528516917f56c54ba9bd38d8fd62012e42c7ee564519b09763c426d331b3661b537ead19b2910160405180910390a2505050565b6001546001600160a01b0316331461088c5760405162461bcd60e51b815260040161019590613bad565b600855565b6001546001600160a01b031633146108bb5760405162461bcd60e51b815260040161019590613bad565b600980546001810182556000919091527f6e1540171b6c0c960b71a7020d9f60077f6af931a8bbf590da0223dacf75c7af0180546001600160a01b0319166001600160a01b0392909216919091179055565b60008060008060008790506000816001600160a01b0316630dfe16816040518163ffffffff1660e01b815260040160206040518083038186803b15801561095357600080fd5b505afa158015610967573d6000803e3d6000fd5b505050506040513d601f19601f8201168201806040525081019061098b9190613bd7565b90506000826001600160a01b031663d21220a76040518163ffffffff1660e01b815260040160206040518083038186803b1580156109c857600080fd5b505afa1580156109dc573d6000803e3d6000fd5b505050506040513d601f19601f82011682018060405250810190610a009190613bd7565b9050816001600160a01b0316886001600160a01b031614610a215781610a23565b805b93505050506000806000896001600160a01b03166318160ddd6040518163ffffffff1660e01b815260040160206040518083038186803b158015610a6657600080fd5b505afa158015610a7a573d6000803e3d6000fd5b505050506040513d601f19601f82011682018060405250810190610a9e9190613d3c565b6040516370a0823160e01b81526001600160a01b038c811660048301529192508291610b2991908716906370a08231906024015b60206040518083038186803b158015610aea57600080fd5b505afa158015610afe573d6000803e3d6000fd5b505050506040513d601f19601f82011682018060405250810190610b229190613d3c565b8b90611bf9565b610b339190613d55565b6040516370a0823160e01b81526001600160a01b038c811660048301529194508291610b6b91908b16906370a0823190602401610ad2565b610b759190613d55565b9150506000610b868a858585611c0c565b929a9299509097509095505050505050565b6001546001600160a01b03163314610bc25760405162461bcd60e51b815260040161019590613bad565b60006009805480602002602001604051908101604052809291908181526020018280548015610c1a57602002820191906000526020600020905b81546001600160a01b03168152600190910190602001808311610bfc575b505050505090506105068183611250565b600060026000541415610c505760405162461bcd60e51b815260040161019590613d77565b6002600081905550610c91333087876000818110610c7057610c70613bf4565b90506020020135896001600160a01b0316611d75909392919063ffffffff16565b610c9a86611dad565b826001600160a01b0316630dfe16816040518163ffffffff1660e01b815260040160206040518083038186803b158015610cd357600080fd5b505afa158015610ce7573d6000803e3d6000fd5b505050506040513d601f19601f82011682018060405250810190610d0b9190613bd7565b6001600160a01b0316866001600160a01b03161480610dab5750826001600160a01b031663d21220a76040518163ffffffff1660e01b815260040160206040518083038186803b158015610d5e57600080fd5b505afa158015610d72573d6000803e3d6000fd5b505050506040513d601f19601f82011682018060405250810190610d969190613bd7565b6001600160a01b0316866001600160a01b0316145b15611025576000806000856001600160a01b0316630dfe16816040518163ffffffff1660e01b815260040160206040518083038186803b158015610dee57600080fd5b505afa158015610e02573d6000803e3d6000fd5b505050506040513d601f19601f82011682018060405250810190610e269190613bd7565b90506000866001600160a01b031663d21220a76040518163ffffffff1660e01b815260040160206040518083038186803b158015610e6357600080fd5b505afa158015610e77573d6000803e3d6000fd5b505050506040513d601f19601f82011682018060405250810190610e9b9190613bd7565b9050816001600160a01b03168a6001600160a01b031614610ebc5781610ebe565b805b9350610ee5878b8b8b6000818110610ed857610ed8613bf4565b9050602002013585611996565b925050506000610ef8898385308a611ef8565b905087876001818110610f0d57610f0d613bf4565b90506020020135811015610f635760405162461bcd60e51b815260206004820181905260248201527f5a61703a20496e73756666696369656e74205265636569766520416d6f756e746044820152606401610195565b61101b868a85610f95868d8d6000818110610f8057610f80613bf4565b9050602002013561216390919063ffffffff16565b60055460405163e5e31b1360e01b81526001600160a01b038d811660048301528892339291169063e5e31b139060240160206040518083038186803b158015610fdd57600080fd5b505afa158015610ff1573d6000803e3d6000fd5b505050506040513d601f19601f820116820180604052508101906110159190613dae565b8c612171565b9350505050611061565b600061104d878787600081811061103e5761103e613bf4565b905060200201353060006123b2565b905061105d848233600087612611565b9150505b8484600281811061107457611074613bf4565b905060200201358110156110c25760405162461bcd60e51b81526020600482015260156024820152742d30b81d102434b3b41029b634b83830b3b29024b760591b6044820152606401610195565b337f6c9d1839e8465b42ebfd3c687420dbcdf116253fd431545be184fb051c38f0c28787876000816110f6576110f6613bf4565b90506020020135868560405161110f9493929190613dcb565b60405180910390a2600160005595945050505050565b6001546001600160a01b0316331461114f5760405162461bcd60e51b815260040161019590613bad565b6001600160a01b03808416600090815260076020908152604080832093861683529281529190208251611184928401906136c1565b50505050565b6000600260005414156111af5760405162461bcd60e51b815260040161019590613d77565b600260009081556111c38634338887612611565b90508381101561120d5760405162461bcd60e51b81526020600482015260156024820152742d30b81d102434b3b41029b634b83830b3b29024b760591b6044820152606401610195565b60025460405133917f6c9d1839e8465b42ebfd3c687420dbcdf116253fd431545be184fb051c38f0c29161110f916001600160a01b03169034908b908790613dcb565b6001546001600160a01b0316331461127a5760405162461bcd60e51b815260040161019590613bad565b6001600160a01b0381166112d05760405162461bcd60e51b815260206004820152601d60248201527f5a61703a20496e76616c696420526563656976657220416464726573730000006044820152606401610195565b60005b8251811015611311576112ff8382815181106112f1576112f1613bf4565b602002602001015183612d31565b8061130981613df5565b9150506112d3565b505050565b60006002600054141561133b5760405162461bcd60e51b815260040161019590613d77565b60026000556113556001600160a01b038616333087611d75565b61135e85611dad565b6000806000806000899050806001600160a01b0316630dfe16816040518163ffffffff1660e01b815260040160206040518083038186803b1580156113a257600080fd5b505afa1580156113b6573d6000803e3d6000fd5b505050506040513d601f19601f820116820180604052508101906113da9190613bd7565b9450806001600160a01b031663d21220a76040518163ffffffff1660e01b815260040160206040518083038186803b15801561141557600080fd5b505afa158015611429573d6000803e3d6000fd5b505050506040513d601f19601f8201168201806040525081019061144d9190613bd7565b60055460405163e5e31b1360e01b81526001600160a01b038d811660048301529296506000929091169063e5e31b139060240160206040518083038186803b15801561149857600080fd5b505afa1580156114ac573d6000803e3d6000fd5b505050506040513d601f19601f820116820180604052508101906114d09190613dae565b90508015611594576004805460405163387d29e160e21b81526001600160a01b038e81169382019390935288831660248201528783166044820152606481018d905260016084820181905260a48201523060c48201524260e482015291169063e1f4a78490610104016040805180830381600087803b15801561155257600080fd5b505af1158015611566573d6000803e3d6000fd5b505050506040513d601f19601f8201168201806040525081019061158a9190613e10565b9094509250611641565b600354604051635d5155ef60e11b81526001600160a01b0388811660048301528781166024830152604482018d905260016064830181905260848301523060a48301524260c48301529091169063baa2abde9060e4016040805180830381600087803b15801561160357600080fd5b505af1158015611617573d6000803e3d6000fd5b505050506040513d601f19601f8201168201806040525081019061163b9190613e10565b90945092505b5050600061164e85611dad565b61165784611dad565b6001600160a01b03881673eeeeeeeeeeeeeeeeeeeeeeeeeeeeeeeeeeeeeeee14156116e3576002546000906001600160a01b03878116911614806116a857506002546001600160a01b038681169116145b6116b35760006116b5565b8a5b90506116c3868530846123b2565b91506116db6116d4868530856123b2565b8390612e39565b915050611748565b6000856001600160a01b0316896001600160a01b031614806117165750846001600160a01b0316896001600160a01b0316145b611721576000611723565b8a5b905061173286858b3085611ef8565b91506117446116d486858c3086611ef8565b9150505b868110156117915760405162461bcd60e51b815260206004820152601660248201527516985c0e88121a59da0814db1a5c1c1859d94813dd5d60521b6044820152606401610195565b6001600160a01b03881673eeeeeeeeeeeeeeeeeeeeeeeeeeeeeeeeeeeeeeee14156117c5576117c03382612e56565b6117d9565b6117d96001600160a01b0389163383611b96565b336001600160a01b03167f04a863d47eb1f82dce727c38e0b2294b96dea01f7d8c060216edb8ef473ea8398b8b8b856040516118189493929190613dcb565b60405180910390a260016000559998505050505050505050565b6001546001600160a01b0316331461185c5760405162461bcd60e51b815260040161019590613bad565b600180546001600160a01b0319166001600160a01b0383169081179091556040519081527f4d5c50bb72d5f3b4cd853277f0fedffc1df6a70dbed9a9f365013b5a8543e8849060200160405180910390a150565b60405163d505accf60e01b8152336004820152306024820152604481018690526064810185905260ff8416608482015260a4810183905260c481018290526000906001600160a01b038b169063d505accf9060e401600060405180830381600087803b15801561191f57600080fd5b505af1158015611933573d6000803e3d6000fd5b505050506119438a8a8a8a611316565b9a9950505050505050505050565b6007602052826000526040600020602052816000526040600020818154811061197957600080fd5b6000918252602090912001546001600160a01b0316925083915050565b60055460405163ca22297960e01b81526001600160a01b038681166004830152600092839283929091169063ca2229799060240160606040518083038186803b1580156119e257600080fd5b505afa1580156119f6573d6000803e3d6000fd5b505050506040513d601f19601f82011682018060405250810190611a1a9190613e48565b50915091508163ffffffff1660321415611b4257600080886001600160a01b0316630902f1ac6040518163ffffffff1660e01b815260040160606040518083038186803b158015611a6a57600080fd5b505afa158015611a7e573d6000803e3d6000fd5b505050506040513d601f19601f82011682018060405250810190611aa29190613ea2565b506001600160701b031691506001600160701b031691506000866001600160a01b0316896001600160a01b031614611ada5781611adc565b825b90506107ca611b2c611af0836107cd611bf9565b611b26611b21611b0386623cda29611bf9565b611b108e623cda20611bf9565b611b1a9190613ece565b8690611bf9565b612f1f565b90612163565b611b369190613d55565b95505050505050611b8e565b6000846001600160a01b0316876001600160a01b031614611b69578263ffffffff16611b71565b8163ffffffff165b9050611b886064611b828884611bf9565b90612f8f565b93505050505b949350505050565b6040516001600160a01b03831660248201526044810182905261131190849063a9059cbb60e01b906064015b60408051601f198184030181529190526020810180516001600160e01b03166001600160e01b031990931692909217909152612f9b565b6000611c058284613ee6565b9392505050565b600654600554604051630b33d96b60e41b81526001600160a01b039182166004820152868216602482015285821660448201526000928392839283928392839291169063b33d96b09060640160c06040518083038186803b158015611c7057600080fd5b505afa158015611c84573d6000803e3d6000fd5b505050506040513d601f19601f82011682018060405250810190611ca89190613f05565b600654949a50929850909650945092506001600160a01b0316905063671a11b589611cd38882612163565b611cdd888c612163565b6040516001600160e01b031960e086901b16815260048101939093526024830191909152604482015263ffffffff80871660648301528086166084830152841660a482015260c40160206040518083038186803b158015611d3d57600080fd5b505afa158015611d51573d6000803e3d6000fd5b505050506040513d601f19601f820116820180604052508101906119439190613d3c565b6040516001600160a01b03808516602483015283166044820152606481018290526111849085906323b872dd60e01b90608401611bc2565b600354604051636eb1769f60e11b81523060048201526001600160a01b0391821660248201529082169063dd62ed3e9060440160206040518083038186803b158015611df857600080fd5b505afa158015611e0c573d6000803e3d6000fd5b505050506040513d601f19601f82011682018060405250810190611e309190613d3c565b611e5057600354611e50906001600160a01b03838116911660001961306d565b60048054604051636eb1769f60e11b815230928101929092526001600160a01b03908116602483015282169063dd62ed3e9060440160206040518083038186803b158015611e9d57600080fd5b505afa158015611eb1573d6000803e3d6000fd5b505050506040513d601f19601f82011682018060405250810190611ed59190613d3c565b611ef557600454611ef5906001600160a01b03838116911660001961306d565b50565b6000836001600160a01b0316866001600160a01b03161415611f3f576001600160a01b0383163014611f3857611f386001600160a01b0387168487611b96565b508361215a565b6001600160a01b038087166000908152600760209081526040808320938816835292815282822080548451818402810184019095528085529293929091830182828015611fb557602002820191906000526020600020905b81546001600160a01b03168152600190910190602001808311611f97575b505050505090506060600082511115612061576004805460405163bff51d7160e01b81526001600160a01b039091169163bff51d7191612004918c918b918d916001918a918e91429101613f6e565b600060405180830381600087803b15801561201e57600080fd5b505af1158015612032573d6000803e3d6000fd5b505050506040513d6000823e601f3d908101601f1916820160405261205a9190810190613c89565b905061212e565b6001600160a01b038416156120ed57604080516001808252818301909252906020808301908036833701905050915083826000815181106120a4576120a4613bf4565b6001600160a01b0392831660209182029290920101526004805460405163bff51d7160e01b815292169163bff51d7191612004918c918b918d916001918a918e91429101613f6e565b60405162461bcd60e51b815260206004820152601660248201527505265717569656d5a61703a20217061746820737761760541b6044820152606401610195565b806001825161213d9190613d25565b8151811061214d5761214d613bf4565b6020026020010151925050505b95945050505050565b6000611c0583836001613191565b600061217c88611dad565b61218587611dad565b6000808415612257576004805460405163fbf4513560e01b81526001600160a01b038e8116938201939093528c831660248201528b83166044820152606481018b9052608481018a9052600160a4820181905260c482015288831660e48201524261010482015291169063fbf451359061012401606060405180830381600087803b15801561221357600080fd5b505af1158015612227573d6000803e3d6000fd5b505050506040513d601f19601f8201168201806040525081019061224b9190613fb9565b94509092509050612310565b60035460405162e8e33760e81b81526001600160a01b038c811660048301528b81166024830152604482018b9052606482018a905260016084830181905260a483015288811660c48301524260e48301529091169063e8e337009061010401606060405180830381600087803b1580156122d057600080fd5b505af11580156122e4573d6000803e3d6000fd5b505050506040513d601f19601f820116820180604052508101906123089190613fb9565b945090925090505b600061231c8984612163565b905084806123435750612340612710611b826008548c611bf990919063ffffffff16565b81115b15612359578015612359576123598b33836131ac565b60006123658984612163565b9050858061238c5750612389612710611b826008548c611bf990919063ffffffff16565b81115b156123a25780156123a2576123a28b33836131ac565b5050505098975050505050505050565b6002546000906001600160a01b03868116911614156123e9576002546123e2906001600160a01b031684866131ac565b5082611b8e565b6001600160a01b03808616600090815260076020908152604080832060025490941683529281528282208054845181840281018401909552808552929392909183018282801561246257602002820191906000526020600020905b81546001600160a01b03168152600190910190602001808311612444575b50505050509050606060008251111561250c5760048054604051639c91fcb560e01b81526001600160a01b0390911691639c91fcb5916124af918b918b9160019189918d91429101613fe7565b600060405180830381600087803b1580156124c957600080fd5b505af11580156124dd573d6000803e3d6000fd5b505050506040513d6000823e601f3d908101601f191682016040526125059190810190613c89565b90506125de565b6001600160a01b03841615612596576040805160018082528183019092529060208083019080368337019050509150838260008151811061254f5761254f613bf4565b6001600160a01b03928316602091820292909201015260048054604051639c91fcb560e01b8152921691639c91fcb5916124af918b918b9160019189918d91429101613fe7565b60405162461bcd60e51b815260206004820152601a60248201527f5265717569656d5a61703a20217061746820546f6b656e424e420000000000006044820152606401610195565b80600182516125ed9190613d25565b815181106125fd576125fd613bf4565b602002602001015192505050949350505050565b600080869050600260009054906101000a90046001600160a01b03166001600160a01b0316876001600160a01b0316630dfe16816040518163ffffffff1660e01b815260040160206040518083038186803b15801561266f57600080fd5b505afa158015612683573d6000803e3d6000fd5b505050506040513d601f19601f820116820180604052508101906126a79190613bd7565b6001600160a01b0316148061274157506002546040805163d21220a760e01b815290516001600160a01b03928316928a169163d21220a7916004808301926020929190829003018186803b1580156126fe57600080fd5b505afa158015612712573d6000803e3d6000fd5b505050506040513d601f19601f820116820180604052508101906127369190613bd7565b6001600160a01b0316145b15612b0a576000600260009054906101000a90046001600160a01b03166001600160a01b0316886001600160a01b0316630dfe16816040518163ffffffff1660e01b815260040160206040518083038186803b1580156127a057600080fd5b505afa1580156127b4573d6000803e3d6000fd5b505050506040513d601f19601f820116820180604052508101906127d89190613bd7565b6001600160a01b03161461285c57876001600160a01b0316630dfe16816040518163ffffffff1660e01b815260040160206040518083038186803b15801561281f57600080fd5b505afa158015612833573d6000803e3d6000fd5b505050506040513d601f19601f820116820180604052508101906128579190613bd7565b6128cd565b876001600160a01b031663d21220a76040518163ffffffff1660e01b815260040160206040518083038186803b15801561289557600080fd5b505afa1580156128a9573d6000803e3d6000fd5b505050506040513d601f19601f820116820180604052508101906128cd9190613bd7565b9050600061296283600260009054906101000a90046001600160a01b03168a8c6001600160a01b0316630dfe16816040518163ffffffff1660e01b815260040160206040518083038186803b15801561292557600080fd5b505afa158015612939573d6000803e3d6000fd5b505050506040513d601f19601f8201168201806040525081019061295d9190613bd7565b611996565b9050600061297283833087613258565b9050868110156129c45760405162461bcd60e51b815260206004820181905260248201527f5a61703a20496e73756666696369656e74205265636569766520416d6f756e746044820152606401610195565b60006129d08a84612163565b9050600260009054906101000a90046001600160a01b03166001600160a01b031663d0e30db0826040518263ffffffff1660e01b81526004016000604051808303818588803b158015612a2257600080fd5b505af1158015612a36573d6000803e3d6000fd5b5050505050612aff85600260009054906101000a90046001600160a01b03168684868e600560009054906101000a90046001600160a01b03166001600160a01b031663e5e31b138d6040518263ffffffff1660e01b8152600401612aa991906001600160a01b0391909116815260200190565b60206040518083038186803b158015612ac157600080fd5b505afa158015612ad5573d6000803e3d6000fd5b505050506040513d601f19601f82011682018060405250810190612af99190613dae565b8e612171565b955050505050612d27565b6000876001600160a01b0316630dfe16816040518163ffffffff1660e01b815260040160206040518083038186803b158015612b4557600080fd5b505afa158015612b59573d6000803e3d6000fd5b505050506040513d601f19601f82011682018060405250810190612b7d9190613bd7565b90506000886001600160a01b031663d21220a76040518163ffffffff1660e01b815260040160206040518083038186803b158015612bba57600080fd5b505afa158015612bce573d6000803e3d6000fd5b505050506040513d601f19601f82011682018060405250810190612bf29190613bd7565b60055460405163ca22297960e01b81526001600160a01b0386811660048301529293506000928392839291169063ca2229799060240160606040518083038186803b158015612c4057600080fd5b505afa158015612c54573d6000803e3d6000fd5b505050506040513d601f19601f82011682018060405250810190612c789190613e48565b505090506000612c9c6064611b828463ffffffff168f611bf990919063ffffffff16565b9050612cab8682306000613258565b9350612cc385612cbb8e84612163565b306000613258565b92505050612d2085858585858e600560009054906101000a90046001600160a01b03166001600160a01b031663e5e31b138d6040518263ffffffff1660e01b8152600401612aa991906001600160a01b0391909116815260200190565b9550505050505b5095945050505050565b6001600160a01b03821673eeeeeeeeeeeeeeeeeeeeeeeeeeeeeeeeeeeeeeee1415612da957612d608147612e56565b604080514781526001600160a01b0383811660208301528416917f56c54ba9bd38d8fd62012e42c7ee564519b09763c426d331b3661b537ead19b2910160405180910390a25050565b6040516370a0823160e01b81523060048201526000906001600160a01b038416906370a082319060240160206040518083038186803b158015612deb57600080fd5b505afa158015612dff573d6000803e3d6000fd5b505050506040513d601f19601f82011682018060405250810190612e239190613d3c565b90506108186001600160a01b0384168383611b96565b600080612e468385613ece565b9050611c058482101560006134f0565b604080516000808252602082019092526001600160a01b038416908390604051612e809190614055565b60006040518083038185875af1925050503d8060008114612ebd576040519150601f19603f3d011682016040523d82523d6000602084013e612ec2565b606091505b50509050806113115760405162461bcd60e51b815260206004820152602360248201527f5472616e7366657248656c7065723a204554485f5452414e534645525f46414960448201526213115160ea1b6064820152608401610195565b60006003821115612f805750806000612f39600283613d55565b612f44906001613ece565b90505b81811015612f7a57905080600281612f5f8186613d55565b612f699190613ece565b612f739190613d55565b9050612f47565b50919050565b8115612f8a575060015b919050565b6000611c058284613d55565b6000612ff0826040518060400160405280602081526020017f5361666545524332303a206c6f772d6c6576656c2063616c6c206661696c6564815250856001600160a01b03166134fe9092919063ffffffff16565b805190915015611311578080602001905181019061300e9190613dae565b6113115760405162461bcd60e51b815260206004820152602a60248201527f5361666545524332303a204552433230206f7065726174696f6e20646964206e6044820152691bdd081cdd58d8d9595960b21b6064820152608401610195565b8015806130f65750604051636eb1769f60e11b81523060048201526001600160a01b03838116602483015284169063dd62ed3e9060440160206040518083038186803b1580156130bc57600080fd5b505afa1580156130d0573d6000803e3d6000fd5b505050506040513d601f19601f820116820180604052508101906130f49190613d3c565b155b6131615760405162461bcd60e51b815260206004820152603660248201527f5361666545524332303a20617070726f76652066726f6d206e6f6e2d7a65726f60448201527520746f206e6f6e2d7a65726f20616c6c6f77616e636560501b6064820152608401610195565b6040516001600160a01b03831660248201526044810182905261131190849063095ea7b360e01b90606401611bc2565b60006131a084841115836134f0565b600061215a8486613d25565b806131b657505050565b6002546001600160a01b038481169116141561324457600254604051632e1a7d4d60e01b8152600481018390526001600160a01b0390911690632e1a7d4d90602401600060405180830381600087803b15801561321257600080fd5b505af1158015613226573d6000803e3d6000fd5b505050506001600160a01b0382163014611311576113118282612e56565b6113116001600160a01b0384168383611b96565b6002546000906001600160a01b038681169116141561330257600260009054906101000a90046001600160a01b03166001600160a01b031663d0e30db0856040518263ffffffff1660e01b81526004016000604051808303818588803b1580156132c157600080fd5b505af11580156132d5573d6000803e3d6000fd5b505050506001600160a01b038416301490506123e2576002546123e2906001600160a01b03168486611b96565b6002546001600160a01b03908116600090815260076020908152604080832093891683529281528282208054845181840281018401909552808552929392909183018282801561337b57602002820191906000526020600020905b81546001600160a01b0316815260019091019060200180831161335d575b50505050509050606060008251111561341e5760048054604051637ef0d6ed60e11b81526001600160a01b039091169163fde1adda9189916133c8918c9160019189918d91429101614071565b6000604051808303818588803b1580156133e157600080fd5b505af11580156133f5573d6000803e3d6000fd5b50505050506040513d6000823e601f3d908101601f191682016040526125059190810190613c89565b6001600160a01b038416156134a8576040805160018082528183019092529060208083019080368337019050509150838260008151811061346157613461613bf4565b6001600160a01b03928316602091820292909201015260048054604051637ef0d6ed60e11b815292169163fde1adda9189916133c8918c9160019189918d91429101614071565b60405162461bcd60e51b815260206004820152601a60248201527f5265717569656d5a61703a20217061746820424e42546f6b656e0000000000006044820152606401610195565b81610506576105068161350d565b6060611b8e8484600085613560565b62461bcd60e51b6000908152602060045260076024526642414c23000030600a808404818106603090810160081b95839006959095019082900491820690940160101b939093010160c81b604452606490fd5b6060824710156135c15760405162461bcd60e51b815260206004820152602660248201527f416464726573733a20696e73756666696369656e742062616c616e636520666f6044820152651c8818d85b1b60d21b6064820152608401610195565b843b61360f5760405162461bcd60e51b815260206004820152601d60248201527f416464726573733a2063616c6c20746f206e6f6e2d636f6e74726163740000006044820152606401610195565b600080866001600160a01b0316858760405161362b9190614055565b60006040518083038185875af1925050503d8060008114613668576040519150601f19603f3d011682016040523d82523d6000602084013e61366d565b606091505b509150915061367d828286613688565b979650505050505050565b60608315613697575081611c05565b8251156136a75782518084602001fd5b8160405162461bcd60e51b815260040161019591906140ac565b828054828255906000526020600020908101928215613716579160200282015b8281111561371657825182546001600160a01b0319166001600160a01b039091161782556020909201916001909101906136e1565b50613722929150613726565b5090565b5b808211156137225760008155600101613727565b634e487b7160e01b600052604160045260246000fd5b604051601f8201601f1916810167ffffffffffffffff8111828210171561377a5761377a61373b565b604052919050565b600067ffffffffffffffff82111561379c5761379c61373b565b5060051b60200190565b6001600160a01b0381168114611ef557600080fd5b600082601f8301126137cc57600080fd5b813560206137e16137dc83613782565b613751565b82815260059290921b8401810191818101908684111561380057600080fd5b8286015b84811015613824578035613817816137a6565b8352918301918301613804565b509695505050505050565b60006020828403121561384157600080fd5b813567ffffffffffffffff81111561385857600080fd5b611b8e848285016137bb565b60008060006060848603121561387957600080fd5b8335613884816137a6565b925060208401359150604084013561389b816137a6565b809150509250925092565b6000602082840312156138b857600080fd5b5035919050565b6000806000606084860312156138d457600080fd5b83356138df816137a6565b925060208401356138ef816137a6565b929592945050506040919091013590565b60006020828403121561391257600080fd5b8135611c05816137a6565b8015158114611ef557600080fd5b60008060008060006080868803121561394357600080fd5b853561394e816137a6565b9450602086013567ffffffffffffffff8082111561396b57600080fd5b818801915088601f83011261397f57600080fd5b81358181111561398e57600080fd5b8960208260051b85010111156139a357600080fd5b60208301965080955050505060408601356139bd816137a6565b915060608601356139cd8161391d565b809150509295509295909350565b6000806000606084860312156139f057600080fd5b83356139fb816137a6565b92506020840135613a0b816137a6565b9150604084013567ffffffffffffffff811115613a2757600080fd5b613a33868287016137bb565b9150509250925092565b60008060008060808587031215613a5357600080fd5b8435613a5e816137a6565b935060208501359250604085013591506060850135613a7c8161391d565b939692955090935050565b60008060408385031215613a9a57600080fd5b823567ffffffffffffffff811115613ab157600080fd5b613abd858286016137bb565b9250506020830135613ace816137a6565b809150509250929050565b60008060008060808587031215613aef57600080fd5b8435613afa816137a6565b9350602085013592506040850135613b11816137a6565b9396929550929360600135925050565b60008060008060008060008060006101208a8c031215613b4057600080fd5b8935613b4b816137a6565b985060208a0135975060408a0135613b62816137a6565b965060608a0135955060808a0135945060a08a0135935060c08a013560ff81168114613b8d57600080fd5b8093505060e08a013591506101008a013590509295985092959850929598565b60208082526010908201526f5a61703a2021676f7665726e616e636560801b604082015260600190565b600060208284031215613be957600080fd5b8151611c05816137a6565b634e487b7160e01b600052603260045260246000fd5b600081518084526020808501945080840160005b83811015613c435781516001600160a01b031687529582019590820190600101613c1e565b509495945050505050565b6001600160a01b0386811682528581166020830152841660408201526060810183905260a06080820181905260009061367d90830184613c0a565b60006020808385031215613c9c57600080fd5b825167ffffffffffffffff811115613cb357600080fd5b8301601f81018513613cc457600080fd5b8051613cd26137dc82613782565b81815260059190911b82018301908381019087831115613cf157600080fd5b928401925b8284101561367d57835182529284019290840190613cf6565b634e487b7160e01b600052601160045260246000fd5b600082821015613d3757613d37613d0f565b500390565b600060208284031215613d4e57600080fd5b5051919050565b600082613d7257634e487b7160e01b600052601260045260246000fd5b500490565b6020808252601f908201527f5265656e7472616e637947756172643a207265656e7472616e742063616c6c00604082015260600190565b600060208284031215613dc057600080fd5b8151611c058161391d565b6001600160a01b039485168152602081019390935292166040820152606081019190915260800190565b6000600019821415613e0957613e09613d0f565b5060010190565b60008060408385031215613e2357600080fd5b505080516020909101519092909150565b805163ffffffff81168114612f8a57600080fd5b600080600060608486031215613e5d57600080fd5b613e6684613e34565b9250613e7460208501613e34565b9150613e8260408501613e34565b90509250925092565b80516001600160701b0381168114612f8a57600080fd5b600080600060608486031215613eb757600080fd5b613ec084613e8b565b9250613e7460208501613e8b565b60008219821115613ee157613ee1613d0f565b500190565b6000816000190483118215151615613f0057613f00613d0f565b500290565b60008060008060008060c08789031215613f1e57600080fd5b8651613f29816137a6565b6020880151604089015191975095509350613f4660608801613e34565b9250613f5460808801613e34565b9150613f6260a08801613e34565b90509295509295509295565b600060018060a01b03808a168352808916602084015287604084015286606084015260e06080840152613fa460e0840187613c0a565b941660a08301525060c0015295945050505050565b600080600060608486031215613fce57600080fd5b8351925060208401519150604084015190509250925092565b600060018060a01b03808916835287602084015286604084015260c0606084015261401560c0840187613c0a565b941660808301525060a00152949350505050565b60005b8381101561404457818101518382015260200161402c565b838111156111845750506000910152565b60008251614067818460208701614029565b9190910192915050565b600060018060a01b03808816835286602084015260a0604084015261409960a0840187613c0a565b9416606083015250608001529392505050565b60208152600082518060208401526140cb816040850160208701614029565b601f01601f1916919091016040019291505056fea264697066735822122087201bb26bc6ae85958fdf78a15449c0d8c69e537aa72bfeef760c6ddd0fa27064736f6c63430008090033",
  "linkReferences": {},
  "deployedLinkReferences": {}
}