{
  "_format": "hh-sol-artifact-1",
  "contractName": "ManagedPool",
  "sourceName": "contracts/libraries/smart/ManagedPool.sol",
  "abi": [
    {
      "inputs": [
        {
          "components": [
            {
              "internalType": "contract IVault",
              "name": "vault",
              "type": "address"
            },
            {
              "internalType": "string",
              "name": "name",
              "type": "string"
            },
            {
              "internalType": "string",
              "name": "symbol",
              "type": "string"
            },
            {
              "internalType": "contract IERC20[]",
              "name": "tokens",
              "type": "address[]"
            },
            {
              "internalType": "uint256[]",
              "name": "normalizedWeights",
              "type": "uint256[]"
            },
            {
              "internalType": "address[]",
              "name": "assetManagers",
              "type": "address[]"
            },
            {
              "internalType": "uint256",
              "name": "swapFeePercentage",
              "type": "uint256"
            },
            {
              "internalType": "uint256",
              "name": "pauseWindowDuration",
              "type": "uint256"
            },
            {
              "internalType": "uint256",
              "name": "bufferPeriodDuration",
              "type": "uint256"
            },
            {
              "internalType": "address",
              "name": "owner",
              "type": "address"
            },
            {
              "internalType": "bool",
              "name": "swapEnabledOnStart",
              "type": "bool"
            },
            {
              "internalType": "uint256",
              "name": "managementSwapFeePercentage",
              "type": "uint256"
            }
          ],
          "internalType": "struct ManagedPool.NewPoolParams",
          "name": "params",
          "type": "tuple"
        }
      ],
      "stateMutability": "nonpayable",
      "type": "constructor"
    },
    {
      "anonymous": false,
      "inputs": [
        {
          "indexed": true,
          "internalType": "address",
          "name": "owner",
          "type": "address"
        },
        {
          "indexed": true,
          "internalType": "address",
          "name": "spender",
          "type": "address"
        },
        {
          "indexed": false,
          "internalType": "uint256",
          "name": "value",
          "type": "uint256"
        }
      ],
      "name": "Approval",
      "type": "event"
    },
    {
      "anonymous": false,
      "inputs": [
        {
          "indexed": false,
          "internalType": "uint256",
          "name": "startTime",
          "type": "uint256"
        },
        {
          "indexed": false,
          "internalType": "uint256",
          "name": "endTime",
          "type": "uint256"
        },
        {
          "indexed": false,
          "internalType": "uint256[]",
          "name": "startWeights",
          "type": "uint256[]"
        },
        {
          "indexed": false,
          "internalType": "uint256[]",
          "name": "endWeights",
          "type": "uint256[]"
        }
      ],
      "name": "GradualWeightUpdateScheduled",
      "type": "event"
    },
    {
      "anonymous": false,
      "inputs": [
        {
          "indexed": false,
          "internalType": "uint256",
          "name": "managementFeePercentage",
          "type": "uint256"
        }
      ],
      "name": "ManagementFeePercentageChanged",
      "type": "event"
    },
    {
      "anonymous": false,
      "inputs": [
        {
          "indexed": false,
          "internalType": "contract IERC20[]",
          "name": "tokens",
          "type": "address[]"
        },
        {
          "indexed": false,
          "internalType": "uint256[]",
          "name": "amounts",
          "type": "uint256[]"
        }
      ],
      "name": "ManagementFeesCollected",
      "type": "event"
    },
    {
      "anonymous": false,
      "inputs": [
        {
          "indexed": false,
          "internalType": "bool",
          "name": "paused",
          "type": "bool"
        }
      ],
      "name": "PausedStateChanged",
      "type": "event"
    },
    {
      "anonymous": false,
      "inputs": [
        {
          "indexed": false,
          "internalType": "bool",
          "name": "swapEnabled",
          "type": "bool"
        }
      ],
      "name": "SwapEnabledSet",
      "type": "event"
    },
    {
      "anonymous": false,
      "inputs": [
        {
          "indexed": false,
          "internalType": "uint256",
          "name": "swapFeePercentage",
          "type": "uint256"
        }
      ],
      "name": "SwapFeePercentageChanged",
      "type": "event"
    },
    {
      "anonymous": false,
      "inputs": [
        {
          "indexed": true,
          "internalType": "address",
          "name": "from",
          "type": "address"
        },
        {
          "indexed": true,
          "internalType": "address",
          "name": "to",
          "type": "address"
        },
        {
          "indexed": false,
          "internalType": "uint256",
          "name": "value",
          "type": "uint256"
        }
      ],
      "name": "Transfer",
      "type": "event"
    },
    {
      "inputs": [],
      "name": "DOMAIN_SEPARATOR",
      "outputs": [
        {
          "internalType": "bytes32",
          "name": "",
          "type": "bytes32"
        }
      ],
      "stateMutability": "view",
      "type": "function"
    },
    {
      "inputs": [
        {
          "internalType": "address",
          "name": "owner",
          "type": "address"
        },
        {
          "internalType": "address",
          "name": "spender",
          "type": "address"
        }
      ],
      "name": "allowance",
      "outputs": [
        {
          "internalType": "uint256",
          "name": "",
          "type": "uint256"
        }
      ],
      "stateMutability": "view",
      "type": "function"
    },
    {
      "inputs": [
        {
          "internalType": "address",
          "name": "spender",
          "type": "address"
        },
        {
          "internalType": "uint256",
          "name": "amount",
          "type": "uint256"
        }
      ],
      "name": "approve",
      "outputs": [
        {
          "internalType": "bool",
          "name": "",
          "type": "bool"
        }
      ],
      "stateMutability": "nonpayable",
      "type": "function"
    },
    {
      "inputs": [
        {
          "internalType": "address",
          "name": "account",
          "type": "address"
        }
      ],
      "name": "balanceOf",
      "outputs": [
        {
          "internalType": "uint256",
          "name": "",
          "type": "uint256"
        }
      ],
      "stateMutability": "view",
      "type": "function"
    },
    {
      "inputs": [],
      "name": "decimals",
      "outputs": [
        {
          "internalType": "uint8",
          "name": "",
          "type": "uint8"
        }
      ],
      "stateMutability": "view",
      "type": "function"
    },
    {
      "inputs": [
        {
          "internalType": "address",
          "name": "spender",
          "type": "address"
        },
        {
          "internalType": "uint256",
          "name": "amount",
          "type": "uint256"
        }
      ],
      "name": "decreaseAllowance",
      "outputs": [
        {
          "internalType": "bool",
          "name": "",
          "type": "bool"
        }
      ],
      "stateMutability": "nonpayable",
      "type": "function"
    },
    {
      "inputs": [
        {
          "internalType": "bytes4",
          "name": "selector",
          "type": "bytes4"
        }
      ],
      "name": "getActionId",
      "outputs": [
        {
          "internalType": "bytes32",
          "name": "",
          "type": "bytes32"
        }
      ],
      "stateMutability": "view",
      "type": "function"
    },
    {
      "inputs": [],
      "name": "getAuthorizer",
      "outputs": [
        {
          "internalType": "contract IAuthorizer",
          "name": "",
          "type": "address"
        }
      ],
      "stateMutability": "view",
      "type": "function"
    },
    {
      "inputs": [],
      "name": "getCollectedManagementFees",
      "outputs": [
        {
          "internalType": "contract IERC20[]",
          "name": "tokens",
          "type": "address[]"
        },
        {
          "internalType": "uint256[]",
          "name": "collectedFees",
          "type": "uint256[]"
        }
      ],
      "stateMutability": "view",
      "type": "function"
    },
    {
      "inputs": [],
      "name": "getGradualWeightUpdateParams",
      "outputs": [
        {
          "internalType": "uint256",
          "name": "startTime",
          "type": "uint256"
        },
        {
          "internalType": "uint256",
          "name": "endTime",
          "type": "uint256"
        },
        {
          "internalType": "uint256[]",
          "name": "endWeights",
          "type": "uint256[]"
        }
      ],
      "stateMutability": "view",
      "type": "function"
    },
    {
      "inputs": [],
      "name": "getInvariant",
      "outputs": [
        {
          "internalType": "uint256",
          "name": "",
          "type": "uint256"
        }
      ],
      "stateMutability": "view",
      "type": "function"
    },
    {
      "inputs": [],
      "name": "getLastInvariant",
      "outputs": [
        {
          "internalType": "uint256",
          "name": "",
          "type": "uint256"
        }
      ],
      "stateMutability": "pure",
      "type": "function"
    },
    {
      "inputs": [],
      "name": "getManagementSwapFeePercentage",
      "outputs": [
        {
          "internalType": "uint256",
          "name": "",
          "type": "uint256"
        }
      ],
      "stateMutability": "view",
      "type": "function"
    },
    {
      "inputs": [],
      "name": "getNormalizedWeights",
      "outputs": [
        {
          "internalType": "uint256[]",
          "name": "",
          "type": "uint256[]"
        }
      ],
      "stateMutability": "view",
      "type": "function"
    },
    {
      "inputs": [],
      "name": "getOwner",
      "outputs": [
        {
          "internalType": "address",
          "name": "",
          "type": "address"
        }
      ],
      "stateMutability": "view",
      "type": "function"
    },
    {
      "inputs": [],
      "name": "getPausedState",
      "outputs": [
        {
          "internalType": "bool",
          "name": "paused",
          "type": "bool"
        },
        {
          "internalType": "uint256",
          "name": "pauseWindowEndTime",
          "type": "uint256"
        },
        {
          "internalType": "uint256",
          "name": "bufferPeriodEndTime",
          "type": "uint256"
        }
      ],
      "stateMutability": "view",
      "type": "function"
    },
    {
      "inputs": [],
      "name": "getPoolId",
      "outputs": [
        {
          "internalType": "bytes32",
          "name": "",
          "type": "bytes32"
        }
      ],
      "stateMutability": "view",
      "type": "function"
    },
    {
      "inputs": [],
      "name": "getRate",
      "outputs": [
        {
          "internalType": "uint256",
          "name": "",
          "type": "uint256"
        }
      ],
      "stateMutability": "view",
      "type": "function"
    },
    {
      "inputs": [],
      "name": "getScalingFactors",
      "outputs": [
        {
          "internalType": "uint256[]",
          "name": "",
          "type": "uint256[]"
        }
      ],
      "stateMutability": "view",
      "type": "function"
    },
    {
      "inputs": [],
      "name": "getSwapEnabled",
      "outputs": [
        {
          "internalType": "bool",
          "name": "",
          "type": "bool"
        }
      ],
      "stateMutability": "view",
      "type": "function"
    },
    {
      "inputs": [],
      "name": "getSwapFeePercentage",
      "outputs": [
        {
          "internalType": "uint256",
          "name": "",
          "type": "uint256"
        }
      ],
      "stateMutability": "view",
      "type": "function"
    },
    {
      "inputs": [],
      "name": "getVault",
      "outputs": [
        {
          "internalType": "contract IVault",
          "name": "",
          "type": "address"
        }
      ],
      "stateMutability": "view",
      "type": "function"
    },
    {
      "inputs": [
        {
          "internalType": "address",
          "name": "spender",
          "type": "address"
        },
        {
          "internalType": "uint256",
          "name": "addedValue",
          "type": "uint256"
        }
      ],
      "name": "increaseAllowance",
      "outputs": [
        {
          "internalType": "bool",
          "name": "",
          "type": "bool"
        }
      ],
      "stateMutability": "nonpayable",
      "type": "function"
    },
    {
      "inputs": [],
      "name": "name",
      "outputs": [
        {
          "internalType": "string",
          "name": "",
          "type": "string"
        }
      ],
      "stateMutability": "view",
      "type": "function"
    },
    {
      "inputs": [
        {
          "internalType": "address",
          "name": "owner",
          "type": "address"
        }
      ],
      "name": "nonces",
      "outputs": [
        {
          "internalType": "uint256",
          "name": "",
          "type": "uint256"
        }
      ],
      "stateMutability": "view",
      "type": "function"
    },
    {
      "inputs": [
        {
          "internalType": "bytes32",
          "name": "poolId",
          "type": "bytes32"
        },
        {
          "internalType": "address",
          "name": "sender",
          "type": "address"
        },
        {
          "internalType": "address",
          "name": "recipient",
          "type": "address"
        },
        {
          "internalType": "uint256[]",
          "name": "balances",
          "type": "uint256[]"
        },
        {
          "internalType": "uint256",
          "name": "lastChangeBlock",
          "type": "uint256"
        },
        {
          "internalType": "uint256",
          "name": "protocolSwapFeePercentage",
          "type": "uint256"
        },
        {
          "internalType": "bytes",
          "name": "userData",
          "type": "bytes"
        }
      ],
      "name": "onExitPool",
      "outputs": [
        {
          "internalType": "uint256[]",
          "name": "",
          "type": "uint256[]"
        },
        {
          "internalType": "uint256[]",
          "name": "",
          "type": "uint256[]"
        }
      ],
      "stateMutability": "nonpayable",
      "type": "function"
    },
    {
      "inputs": [
        {
          "internalType": "bytes32",
          "name": "poolId",
          "type": "bytes32"
        },
        {
          "internalType": "address",
          "name": "sender",
          "type": "address"
        },
        {
          "internalType": "address",
          "name": "recipient",
          "type": "address"
        },
        {
          "internalType": "uint256[]",
          "name": "balances",
          "type": "uint256[]"
        },
        {
          "internalType": "uint256",
          "name": "lastChangeBlock",
          "type": "uint256"
        },
        {
          "internalType": "uint256",
          "name": "protocolSwapFeePercentage",
          "type": "uint256"
        },
        {
          "internalType": "bytes",
          "name": "userData",
          "type": "bytes"
        }
      ],
      "name": "onJoinPool",
      "outputs": [
        {
          "internalType": "uint256[]",
          "name": "",
          "type": "uint256[]"
        },
        {
          "internalType": "uint256[]",
          "name": "",
          "type": "uint256[]"
        }
      ],
      "stateMutability": "nonpayable",
      "type": "function"
    },
    {
      "inputs": [
        {
          "components": [
            {
              "internalType": "enum IVault.SwapKind",
              "name": "kind",
              "type": "uint8"
            },
            {
              "internalType": "contract IERC20",
              "name": "tokenIn",
              "type": "address"
            },
            {
              "internalType": "contract IERC20",
              "name": "tokenOut",
              "type": "address"
            },
            {
              "internalType": "uint256",
              "name": "amount",
              "type": "uint256"
            },
            {
              "internalType": "bytes32",
              "name": "poolId",
              "type": "bytes32"
            },
            {
              "internalType": "uint256",
              "name": "lastChangeBlock",
              "type": "uint256"
            },
            {
              "internalType": "address",
              "name": "from",
              "type": "address"
            },
            {
              "internalType": "address",
              "name": "to",
              "type": "address"
            },
            {
              "internalType": "bytes",
              "name": "userData",
              "type": "bytes"
            }
          ],
          "internalType": "struct IPoolSwapStructs.SwapRequest",
          "name": "swapRequest",
          "type": "tuple"
        },
        {
          "internalType": "uint256",
          "name": "currentBalanceTokenIn",
          "type": "uint256"
        },
        {
          "internalType": "uint256",
          "name": "currentBalanceTokenOut",
          "type": "uint256"
        }
      ],
      "name": "onSwap",
      "outputs": [
        {
          "internalType": "uint256",
          "name": "",
          "type": "uint256"
        }
      ],
      "stateMutability": "nonpayable",
      "type": "function"
    },
    {
      "inputs": [
        {
          "internalType": "address",
          "name": "owner",
          "type": "address"
        },
        {
          "internalType": "address",
          "name": "spender",
          "type": "address"
        },
        {
          "internalType": "uint256",
          "name": "value",
          "type": "uint256"
        },
        {
          "internalType": "uint256",
          "name": "deadline",
          "type": "uint256"
        },
        {
          "internalType": "uint8",
          "name": "v",
          "type": "uint8"
        },
        {
          "internalType": "bytes32",
          "name": "r",
          "type": "bytes32"
        },
        {
          "internalType": "bytes32",
          "name": "s",
          "type": "bytes32"
        }
      ],
      "name": "permit",
      "outputs": [],
      "stateMutability": "nonpayable",
      "type": "function"
    },
    {
      "inputs": [
        {
          "internalType": "bytes32",
          "name": "poolId",
          "type": "bytes32"
        },
        {
          "internalType": "address",
          "name": "sender",
          "type": "address"
        },
        {
          "internalType": "address",
          "name": "recipient",
          "type": "address"
        },
        {
          "internalType": "uint256[]",
          "name": "balances",
          "type": "uint256[]"
        },
        {
          "internalType": "uint256",
          "name": "lastChangeBlock",
          "type": "uint256"
        },
        {
          "internalType": "uint256",
          "name": "protocolSwapFeePercentage",
          "type": "uint256"
        },
        {
          "internalType": "bytes",
          "name": "userData",
          "type": "bytes"
        }
      ],
      "name": "queryExit",
      "outputs": [
        {
          "internalType": "uint256",
          "name": "bptIn",
          "type": "uint256"
        },
        {
          "internalType": "uint256[]",
          "name": "amountsOut",
          "type": "uint256[]"
        }
      ],
      "stateMutability": "nonpayable",
      "type": "function"
    },
    {
      "inputs": [
        {
          "internalType": "bytes32",
          "name": "poolId",
          "type": "bytes32"
        },
        {
          "internalType": "address",
          "name": "sender",
          "type": "address"
        },
        {
          "internalType": "address",
          "name": "recipient",
          "type": "address"
        },
        {
          "internalType": "uint256[]",
          "name": "balances",
          "type": "uint256[]"
        },
        {
          "internalType": "uint256",
          "name": "lastChangeBlock",
          "type": "uint256"
        },
        {
          "internalType": "uint256",
          "name": "protocolSwapFeePercentage",
          "type": "uint256"
        },
        {
          "internalType": "bytes",
          "name": "userData",
          "type": "bytes"
        }
      ],
      "name": "queryJoin",
      "outputs": [
        {
          "internalType": "uint256",
          "name": "bptOut",
          "type": "uint256"
        },
        {
          "internalType": "uint256[]",
          "name": "amountsIn",
          "type": "uint256[]"
        }
      ],
      "stateMutability": "nonpayable",
      "type": "function"
    },
    {
      "inputs": [
        {
          "internalType": "contract IERC20",
          "name": "token",
          "type": "address"
        },
        {
          "internalType": "bytes",
          "name": "poolConfig",
          "type": "bytes"
        }
      ],
      "name": "setAssetManagerPoolConfig",
      "outputs": [],
      "stateMutability": "nonpayable",
      "type": "function"
    },
    {
      "inputs": [
        {
          "internalType": "bool",
          "name": "paused",
          "type": "bool"
        }
      ],
      "name": "setPaused",
      "outputs": [],
      "stateMutability": "nonpayable",
      "type": "function"
    },
    {
      "inputs": [
        {
          "internalType": "bool",
          "name": "swapEnabled",
          "type": "bool"
        }
      ],
      "name": "setSwapEnabled",
      "outputs": [],
      "stateMutability": "nonpayable",
      "type": "function"
    },
    {
      "inputs": [
        {
          "internalType": "uint256",
          "name": "swapFeePercentage",
          "type": "uint256"
        }
      ],
      "name": "setSwapFeePercentage",
      "outputs": [],
      "stateMutability": "nonpayable",
      "type": "function"
    },
    {
      "inputs": [],
      "name": "symbol",
      "outputs": [
        {
          "internalType": "string",
          "name": "",
          "type": "string"
        }
      ],
      "stateMutability": "view",
      "type": "function"
    },
    {
      "inputs": [],
      "name": "totalSupply",
      "outputs": [
        {
          "internalType": "uint256",
          "name": "",
          "type": "uint256"
        }
      ],
      "stateMutability": "view",
      "type": "function"
    },
    {
      "inputs": [
        {
          "internalType": "address",
          "name": "recipient",
          "type": "address"
        },
        {
          "internalType": "uint256",
          "name": "amount",
          "type": "uint256"
        }
      ],
      "name": "transfer",
      "outputs": [
        {
          "internalType": "bool",
          "name": "",
          "type": "bool"
        }
      ],
      "stateMutability": "nonpayable",
      "type": "function"
    },
    {
      "inputs": [
        {
          "internalType": "address",
          "name": "sender",
          "type": "address"
        },
        {
          "internalType": "address",
          "name": "recipient",
          "type": "address"
        },
        {
          "internalType": "uint256",
          "name": "amount",
          "type": "uint256"
        }
      ],
      "name": "transferFrom",
      "outputs": [
        {
          "internalType": "bool",
          "name": "",
          "type": "bool"
        }
      ],
      "stateMutability": "nonpayable",
      "type": "function"
    },
    {
      "inputs": [
        {
          "internalType": "uint256",
          "name": "startTime",
          "type": "uint256"
        },
        {
          "internalType": "uint256",
          "name": "endTime",
          "type": "uint256"
        },
        {
          "internalType": "uint256[]",
          "name": "endWeights",
          "type": "uint256[]"
        }
      ],
      "name": "updateWeightsGradually",
      "outputs": [],
      "stateMutability": "nonpayable",
      "type": "function"
    },
    {
      "inputs": [
        {
          "internalType": "address",
          "name": "recipient",
          "type": "address"
        }
      ],
      "name": "withdrawCollectedManagementFees",
      "outputs": [],
      "stateMutability": "nonpayable",
      "type": "function"
    }
  ],
  "bytecode": "0x6101e06040527f6e71edae12b1b97f4d1f60370fef10105fa2faae0126114a169c64845d6126c9610120523480156200003757600080fd5b506040516200776c3803806200776c8339810160408190526200005a91620010dc565b805160208201516040830151606084015160a085015160c086015160e0870151610100880151610120890151855189906002146200009a5760016200009d565b60025b8989898989898989828289898d8280604051806040016040528060018152602001603160f81b81525085858a6060336001600160a01b0316901b60001b806080818152505050806001600160a01b031660a0816001600160a01b0316815250505081600390805190602001906200011692919062000dea565b5080516200012c90600490602084019062000dea565b50506005805460ff1916601217905550815160209283012060c05280519082012060e0527f8b73c3c69bb8fe3d512ecc4cf759cc79239f7b179b0ffacaa9a75d522b39400f610100526001600160a01b039092166101405250620001a792506276a70085111591506101949062001365620004d0821b17901c565b620001c662278d00821115610195620004d060201b620013651760201c565b6000620001d4834262001272565b6101608190529050620001e8828262001272565b61018081815250505050506200021060028751101560c8620004d060201b620013651760201c565b6200022d60328751111560c9620004d060201b620013651760201c565b6200024386620004f060201b620013731760201c565b6200024e84620004fc565b6040516309b2760f60e01b81526000906001600160a01b038c16906309b2760f906200027f908d906004016200128d565b6020604051808303816000875af11580156200029f573d6000803e3d6000fd5b505050506040513d601f19601f82011682018060405250810190620002c59190620012b6565b604051633354e3e960e11b81529091506001600160a01b038c16906366a9c7d290620002fa9084908b908b90600401620012d0565b600060405180830381600087803b1580156200031557600080fd5b505af11580156200032a573d6000803e3d6000fd5b50505050806101a0818152505050505050505050505050505050505050505050506001600a81905550600081606001515190506200037f818360800151518460a00151516200059860201b6200137d1760201c565b620003af620003a98260016200039460085490565b620005c360201b62001395179092919060201c565b620005d6565b620003d281620003be620005fb565b1460c9620004d060201b620013651760201c565b608082015160608301514291620003ef9183918291819062000626565b60005b828110156200044d5762000439846060015182815181106200041857620004186200136c565b60200260200101516000600c6200088c60201b620013a4179092919060201c565b50620004458162001382565b9050620003f2565b506101408301516200045f9062000974565b62000488670de0b6b3a76400008461016001511115610152620004d060201b620013651760201c565b610160830180516101c052516040519081527feba99e9e36df79031493efd8473cfce5475d3a135878665490df8b01406932109060200160405180910390a1505050620014de565b81620004ec57620004ec81620009d160201b6200148b1760201c565b5050565b80620004ec8162000a24565b6200051c64e8d4a5100082101560cb620004d060201b620013651760201c565b6200053f67016345785d8a000082111560ca620004d060201b620013651760201c565b6200055e8160c060085462000ac760201b620014de179092919060201c565b6008556040518181527fa9ba3ffe0b6c366b81232caab38605a0699ad5398d6cce76f91ee809e322dafc906020015b60405180910390a150565b620005be8284148015620005ab57508183145b6067620004d060201b620013651760201c565b505050565b81811b607f821b198416175b9392505050565b620005f581600060085462000adc60201b620014f3179092919060201c565b60085550565b60006200062160016200060d60085490565b62000af760201b6200150e1790919060201c565b905090565b600080805b8451811015620008075760008582815181106200064c576200064c6200136c565b6020026020010151905062000679662386f26fc1000082101561012e620004d060201b620013651760201c565b60008583815181106200069057620006906200136c565b60200260200101519050620007b662000720826001600160a01b031663313ce5676040518163ffffffff1660e01b8152600401602060405180830381865afa158015620006e1573d6000803e3d6000fd5b505050506040513d601f19601f82011682018060405250810190620007079190620013a0565b60ff16601262000b0460201b620015151790919060201c565b6060620007a16200073c8662000b6160201b6200156a1760201c565b60406200078c620007748f8b815181106200075b576200075b6200136c565b602002602001015162000ba460201b6200158e1760201c565b60008c62000ac760201b620014de179092919060201c565b62000bd660201b620015ad179092919060201c565b62000be860201b620015bf179092919060201c565b6001600160a01b0382166000908152600b6020908152604090912091909155620007ed9086908490620015ce62000bf7821b17901c565b945050508080620007fe9062001382565b9150506200062b565b506200082b670de0b6b3a76400008314610134620004d060201b620013651760201c565b62000844620003a98760286200078c8b60088260085490565b7f0f3631f9dab08169d1db21c6dc5f32536fb2b0a6b9bb5330d71c52132f968be0878787876040516200087b949392919062001402565b60405180910390a150505050505050565b6001600160a01b0382166000908152600284016020526040812054806200093e5784546040805180820182526001600160a01b038781168252602080830188815260008681526001808d0190935294909420925183546001600160a01b03191692169190911782559151908201556200090790829062001272565b86556200091681600162001272565b6001600160a01b03861660009081526002880160205260409020555060019150620005cf9050565b8285600101600060018462000954919062001442565b8152602001908152602001600020600101819055506000915050620005cf565b6200099e620003a98260006200098960085490565b62000c4960201b6200161c179092919060201c565b60405181151581527f5a9e84f78f7957cb4ed7478eb0fcad35ee4ecbe2e0f298420b28a3955392573f906020016200058d565b62461bcd60e51b6000908152602060045260076024526642414c23000030600a808404818106603090810160081b95839006959095019082900491820690940160101b939093010160c81b604452606490fd5b60028151101562000a325750565b60008160008151811062000a4a5762000a4a6200136c565b602002602001015190506000600190505b8251811015620005be57600083828151811062000a7c5762000a7c6200136c565b6020026020010151905062000ab2816001600160a01b0316846001600160a01b0316106065620004d060201b620013651760201c565b915062000abf8162001382565b905062000a5b565b6001600160401b03811b1992909216911b1790565b6001600160c01b03828116821b90821b198416179392505050565b81811c607f165b92915050565b60008282111562000b4b5760405162461bcd60e51b815260206004820152600c60248201526b5355425f4f564552464c4f5760a01b60448201526064015b60405180910390fd5b600062000b59838562001442565b949350505050565b600062000afe670de0b6b3a764000062000b9063ffffffff80168562000c7260201b620016431790919060201c565b62000d2160201b620016c31790919060201c565b600062000afe670de0b6b3a764000062000b906001600160401b0380168562000c7260201b620016431790919060201c565b63ffffffff811b1992909216911b1790565b601f811b1992909216911b1790565b60008062000c06838562001272565b905083811015620005cf5760405162461bcd60e51b815260206004820152600c60248201526b4144445f4f564552464c4f5760a01b604482015260640162000b42565b60006001821b198416828462000c6157600062000c64565b60015b60ff16901b17949350505050565b60008062000c8183856200145c565b905083158062000c9b57508262000c9985836200147e565b145b62000cd85760405162461bcd60e51b815260206004820152600c60248201526b4d554c5f4f564552464c4f5760a01b604482015260640162000b42565b8062000ce957600091505062000afe565b670de0b6b3a764000062000cff60018362001442565b62000d0b91906200147e565b62000d1890600162001272565b91505062000afe565b60008162000d625760405162461bcd60e51b815260206004820152600d60248201526c2d22a927afa224ab24a9a4a7a760991b604482015260640162000b42565b8262000d715750600062000afe565b600062000d87670de0b6b3a7640000856200145c565b9050670de0b6b3a764000062000d9e85836200147e565b1462000ddc5760405162461bcd60e51b815260206004820152600c60248201526b11125597d25395115493905360a21b604482015260640162000b42565b8262000cff60018362001442565b82805462000df890620014a1565b90600052602060002090601f01602090048101928262000e1c576000855562000e67565b82601f1062000e3757805160ff191683800117855562000e67565b8280016001018555821562000e67579182015b8281111562000e6757825182559160200191906001019062000e4a565b5062000e7592915062000e79565b5090565b5b8082111562000e75576000815560010162000e7a565b634e487b7160e01b600052604160045260246000fd5b60405161018081016001600160401b038111828210171562000ecc5762000ecc62000e90565b60405290565b604051601f8201601f191681016001600160401b038111828210171562000efd5762000efd62000e90565b604052919050565b6001600160a01b038116811462000f1b57600080fd5b50565b805162000f2b8162000f05565b919050565b600082601f83011262000f4257600080fd5b81516001600160401b0381111562000f5e5762000f5e62000e90565b602062000f74601f8301601f1916820162000ed2565b828152858284870101111562000f8957600080fd5b60005b8381101562000fa957858101830151828201840152820162000f8c565b8381111562000fbb5760008385840101525b5095945050505050565b60006001600160401b0382111562000fe15762000fe162000e90565b5060051b60200190565b600082601f83011262000ffd57600080fd5b8151602062001016620010108362000fc5565b62000ed2565b82815260059290921b840181019181810190868411156200103657600080fd5b8286015b848110156200105e578051620010508162000f05565b83529183019183016200103a565b509695505050505050565b600082601f8301126200107b57600080fd5b815160206200108e620010108362000fc5565b82815260059290921b84018101918181019086841115620010ae57600080fd5b8286015b848110156200105e5780518352918301918301620010b2565b8051801515811462000f2b57600080fd5b600060208284031215620010ef57600080fd5b81516001600160401b03808211156200110757600080fd5b9083019061018082860312156200111d57600080fd5b6200112762000ea6565b620011328362000f1e565b81526020830151828111156200114757600080fd5b620011558782860162000f30565b6020830152506040830151828111156200116e57600080fd5b6200117c8782860162000f30565b6040830152506060830151828111156200119557600080fd5b620011a38782860162000feb565b606083015250608083015182811115620011bc57600080fd5b620011ca8782860162001069565b60808301525060a083015182811115620011e357600080fd5b620011f18782860162000feb565b60a08301525060c083015160c082015260e083015160e08201526101009150818301518282015261012091506200122a82840162000f1e565b82820152610140915062001240828401620010cb565b9181019190915261016091820151918101919091529392505050565b634e487b7160e01b600052601160045260246000fd5b600082198211156200128857620012886200125c565b500190565b6020810160038310620012b057634e487b7160e01b600052602160045260246000fd5b91905290565b600060208284031215620012c957600080fd5b5051919050565b6000606082018583526020606081850152818651808452608086019150828801935060005b818110156200131c5784516001600160a01b031683529383019391830191600101620012f5565b50508481036040860152855180825290820192508186019060005b818110156200135e5782516001600160a01b03168552938301939183019160010162001337565b509298975050505050505050565b634e487b7160e01b600052603260045260246000fd5b60006000198214156200139957620013996200125c565b5060010190565b600060208284031215620013b357600080fd5b815160ff81168114620005cf57600080fd5b600081518084526020808501945080840160005b83811015620013f757815187529582019590820190600101620013d9565b509495945050505050565b848152836020820152608060408201526000620014236080830185620013c5565b8281036060840152620014378185620013c5565b979650505050505050565b6000828210156200145757620014576200125c565b500390565b60008160001904831182151516156200147957620014796200125c565b500290565b6000826200149c57634e487b7160e01b600052601260045260246000fd5b500490565b600181811c90821680620014b657607f821691505b60208210811415620014d857634e487b7160e01b600052602260045260246000fd5b50919050565b60805160a05160c05160e05161010051610120516101405161016051610180516101a0516101c0516162006200156c6000396000818161044d01526134af0152600061084b015260006118910152600061186d01526000610e450152600061105e01526000611b6401526000611ba601526000611b8501526000610e2101526000610d9801526162006000f3fe608060405234801561001057600080fd5b50600436106101e35760003560e01c806306fdde03146101e8578063095ea7b31461020657806316c38b3c1461022957806318160ddd1461023e5780631c0de051146102505780631dd746ea1461027557806323b872dd1461028a578063313ce5671461029d57806332f144f5146102b25780633644e515146102c857806338e9922e146102d057806338fff2d0146102e357806339509351146102eb5780633e569205146102fe57806347bc4d921461031157806350dd6ed91461031957806355c676281461032c5780635b77155e146103375780636028bfd41461034a578063679aefce1461036b57806370a082311461037357806374f3b0091461039c5780637beed220146103bd5780637ecebe00146103d4578063851c1bb3146103fd57806387ec681714610410578063893d20e8146104235780638d928af81461044357806390605f3a1461044b57806395d89b41146104715780639b02cdde146104795780639d2c110c14610481578063a457c2d714610494578063a9059cbb146104a7578063aaabadc5146104ba578063c0ff1a15146104c2578063d505accf146104ca578063d5c096c4146104dd578063dd62ed3e146104f0578063e01af92c14610503578063f89f27ed14610516575b600080fd5b6101f061051e565b6040516101fd919061531d565b60405180910390f35b610219610214366004615350565b6105b0565b60405190151581526020016101fd565b61023c61023736600461538a565b6105c7565b005b6002545b6040519081526020016101fd565b6102586105db565b6040805193151584526020840192909252908201526060016101fd565b61027d610604565b6040516101fd91906153e2565b6102196102983660046153f5565b610613565b60055460405160ff90911681526020016101fd565b6102ba6106db565b6040516101fd929190615436565b610242610826565b61023c6102de36600461548c565b610830565b610242610849565b6102196102f9366004615350565b61086d565b61023c61030c3660046155a2565b6108a4565b610219610996565b61023c610327366004615660565b6109b0565b60085460c01c610242565b61023c6103453660046156af565b6109ce565b61035d6103583660046156cc565b610af5565b6040516101fd929190615771565b610242610b2c565b6102426103813660046156af565b6001600160a01b031660009081526020819052604090205490565b6103af6103aa3660046156cc565b610b5a565b6040516101fd92919061578a565b6103c5610bfd565b6040516101fd939291906157af565b6102426103e23660046156af565b6001600160a01b031660009081526006602052604090205490565b61024261040b3660046157ce565b610d94565b61035d61041e3660046156cc565b610df9565b61042b610e1f565b6040516001600160a01b0390911681526020016101fd565b61042b610e43565b7f0000000000000000000000000000000000000000000000000000000000000000610242565b6101f0610e67565b610242610e76565b61024261048f366004615807565b610e86565b6102196104a2366004615350565b610f21565b6102196104b5366004615350565b610f61565b61042b610f6e565b610242610f78565b61023c6104d836600461590b565b61102f565b6103af6104eb3660046156cc565b61119f565b6102426104fe36600461597c565b6112d1565b61023c61051136600461538a565b611330565b61027d61135b565b60606003805461052d906159b5565b80601f0160208091040260200160405190810160405280929190818152602001828054610559906159b5565b80156105a65780601f1061057b576101008083540402835291602001916105a6565b820191906000526020600020905b81548152906001019060200180831161058957829003601f168201915b5050505050905090565b60006105bd338484611741565b5060015b92915050565b6105cf6117a3565b6105d8816117d1565b50565b60008060006105e861184e565b1592506105f361186b565b91506105fd61188f565b9050909192565b606061060e6118b3565b905090565b60008061062085336112d1565b9050336001600160a01b03861614806106395750828110155b61068a5760405162461bcd60e51b815260206004820181905260248201527f45524332305f5452414e534645525f455843454544535f414c4c4f57414e434560448201526064015b60405180910390fd5b610695858585611a0a565b336001600160a01b038616148015906106b557506001600160801b038114155b156106ce576106ce85336106c98685615a06565b611741565b60019150505b9392505050565b6060806106e6611acd565b6001600160401b038111156106fd576106fd6154a5565b604051908082528060200260200182016040528015610726578160200160208202803683370190505b509150610731611acd565b6001600160401b03811115610748576107486154a5565b604051908082528060200260200182016040528015610771578160200160208202803683370190505b50905060005b61077f611acd565b811015610810576000818152600d60205260409020805460019091015484516001600160a01b039092169182908690859081106107be576107be615a1d565b60200260200101906001600160a01b031690816001600160a01b031681525050808484815181106107f1576107f1615a1d565b60200260200101818152505050508061080990615a33565b9050610777565b506108228161081d6118b3565b611ae5565b9091565b600061060e611b60565b6108386117a3565b610840611c06565b6105d881611c1b565b7f000000000000000000000000000000000000000000000000000000000000000090565b3360008181526001602090815260408083206001600160a01b038716845290915281205490916105bd9185906106c9908690615a4e565b6108ac6117a3565b6108b4611c06565b6108bc611c86565b6108ce6108c7611acd565b8251611c9f565b426108d98185611cac565b93506108ea83851115610146611365565b60006108f4610e43565b6001600160a01b031663f94d466861090a610849565b6040518263ffffffff1660e01b815260040161092891815260200190565b600060405180830381865afa158015610945573d6000803e3d6000fd5b505050506040513d6000823e601f3d908101601f1916820160405261096d9190810190615ac1565b50509050610985858561097e611cc3565b8685611e2e565b50506109916001600a55565b505050565b600061060e60006109a660085490565b6001911c81161490565b6109b86117a3565b6109c0611c06565b6109ca8282612001565b5050565b6109d66117a3565b6109de611c06565b6109e6611c86565b6000806109f16106db565b915091506109fd610e43565b6001600160a01b0316638bdb3913610a13610849565b30866040518060800160405280610a278990565b81526020018781526020016003604051602001610a449190615ba4565b6040516020818303038152906040528152602001600015158152506040518563ffffffff1660e01b8152600401610a7e9493929190615bcc565b600060405180830381600087803b158015610a9857600080fd5b505af1158015610aac573d6000803e3d6000fd5b505050507f5cf8dd4ddeaded21c5e3dc4043073fa7659089e0d11d8480344663008dff060f8282604051610ae1929190615436565b60405180910390a150506105d86001600a55565b60006060610b0b8651610b06611acd565b611c9f565b610b20898989898989896120f6611ae56121cf565b97509795505050505050565b600061060e610b3a60025490565b610b42611acd565b610b4a610f78565b610b549190615c8b565b906122f1565b60608088610b84610b69610e43565b6001600160a01b0316336001600160a01b03161460cd611365565b610b99610b8f610849565b82146101f4611365565b6000610ba36118b3565b9050610baf888261236d565b6000806000610bc48e8e8e8e8e8e8a8f6120f6565b925092509250610bd48d846123e8565b610bde8285611ae5565b610be88185611ae5565b909550935050505b5097509795505050505050565b60008060606000610c0d60085490565b9050600881901c63ffffffff169350602881901c63ffffffff1692506000610c33610e43565b6001600160a01b031663f94d4668610c49610849565b6040518263ffffffff1660e01b8152600401610c6791815260200190565b600060405180830381865afa158015610c84573d6000803e3d6000fd5b505050506040513d6000823e601f3d908101601f19168201604052610cac9190810190615ac1565b50508051909150806001600160401b03811115610ccb57610ccb6154a5565b604051908082528060200260200182016040528015610cf4578160200160208202803683370190505b50935060005b81811015610d8b57610d5c610d576040600b6000878681518110610d2057610d20615a1d565b60200260200101516001600160a01b03166001600160a01b03168152602001908152602001600020546123f290919063ffffffff16565b6123fc565b858281518110610d6e57610d6e615a1d565b602090810291909101015280610d8381615a33565b915050610cfa565b50505050909192565b60007f000000000000000000000000000000000000000000000000000000000000000082604051602001610ddc9291909182526001600160e01b031916602082015260240190565b604051602081830303815290604052805190602001209050919050565b60006060610e0a8651610b06611acd565b610b208989898989898961241a6124ce6121cf565b7f000000000000000000000000000000000000000000000000000000000000000090565b7f000000000000000000000000000000000000000000000000000000000000000090565b60606004805461052d906159b5565b6000610e8361015361148b565b90565b600080610ea58560200151610135600c6125499092919063ffffffff16565b90506000610ec9610ec283610ebd896020015161258d565b6125a0565b8690611515565b90506000610ee98760400151610135600c6125499092919063ffffffff16565b90506000610f08610f0183610ebd8b6040015161258d565b8790611515565b9050610f158884836125ac565b98975050505050505050565b600080610f2e33856112d1565b9050808310610f4857610f4333856000611741565b610f57565b610f5733856106c98685615a06565b5060019392505050565b60006105bd338484611a0a565b600061060e612718565b600080610f83610e43565b6001600160a01b031663f94d4668610f99610849565b6040518263ffffffff1660e01b8152600401610fb791815260200190565b600060405180830381865afa158015610fd4573d6000803e3d6000fd5b505050506040513d6000823e601f3d908101601f19168201604052610ffc9190810190615ac1565b509150506110118161100c6118b3565b61236d565b600061101b612783565b509050611028818361281d565b9250505090565b61103d8442111560d1611365565b6001600160a01b0387811660008181526006602090815260408083205481517f00000000000000000000000000000000000000000000000000000000000000008185015280830195909552948b166060850152608084018a905260a0840185905260c08085018a90528151808603909101815260e090940190528251920191909120906110c9826128d7565b6040805160008082526020820180845284905260ff8a169282019290925260608101889052608081018790529192509060019060a0016020604051602081039080840390855afa158015611121573d6000803e3d6000fd5b5050604051601f190151915061116390506001600160a01b0382161580159061115b57508b6001600160a01b0316826001600160a01b0316145b6101f8611365565b61116e846001615a4e565b6001600160a01b038c166000908152600660205260409020556111928b8b8b611741565b5050505050505050505050565b606080886111ae610b69610e43565b6111b9610b8f610849565b60006111c36118b3565b90506111ce60025490565b611281576000806111e28d8d8d868b612906565b915091506111fd6111f3620f424090565b83101560cc611365565b6112106000620f42406129a8565b6129a8565b6112218b61120b620f424085615a06565b61122b81846124ce565b80611234611acd565b6001600160401b0381111561124b5761124b6154a5565b604051908082528060200260200182016040528015611274578160200160208202803683370190505b5095509550505050610bf0565b61128b888261236d565b60008060006112a08e8e8e8e8e8e8a8f61241a565b9250925092506112b08c846129a8565b6112ba82856124ce565b6112c48185611ae5565b9095509350610bf0915050565b60006112db610e43565b6001600160a01b0316826001600160a01b0316141561130257506001600160801b036105c1565b6001600160a01b038084166000908152600160209081526040808320938616835292905220545b90506105c1565b6113386117a3565b611340611c06565b611348611c86565b611351816129b2565b6105d86001600a55565b606061060e611cc3565b816109ca576109ca8161148b565b806109ca816129fd565b610991828414801561138e57508183145b6067611365565b607f811b1992909216911b1790565b6001600160a01b0382166000908152600284016020526040812054806114505784546040805180820182526001600160a01b038781168252602080830188815260008681526001808d0190935294909420925183546001600160a01b031916921691909117825591519082015561141c908290615a4e565b8655611429816001615a4e565b6001600160a01b038616600090815260028801602052604090205550600191506106d49050565b828560010160006001846114649190615a06565b81526020019081526020016000206001018190555060009150506106d4565b509392505050565b62461bcd60e51b6000908152602060045260076024526642414c23000030600a808404818106603090810160081b95839006959095019082900491820690940160101b939093010160c81b604452606490fd5b6001600160401b03811b1992909216911b1790565b6001600160c01b03828116821b90821b198416179392505050565b1c607f1690565b6000828211156115565760405162461bcd60e51b815260206004820152600c60248201526b5355425f4f564552464c4f5760a01b6044820152606401610681565b60006115628385615a06565b949350505050565b60006105c1670de0b6b3a76400006115888463ffffffff6116438116565b906116c3565b60006105c1670de0b6b3a7640000611588846001600160401b03611643565b63ffffffff811b1992909216911b1790565b601f811b1992909216911b1790565b6000806115db8385615a4e565b9050838110156106d45760405162461bcd60e51b815260206004820152600c60248201526b4144445f4f564552464c4f5760a01b6044820152606401610681565b60006001821b1984168284611632576000611635565b60015b60ff16901b17949350505050565b6000806116508385615c8b565b90508315806116675750826116658583615cc0565b145b6116835760405162461bcd60e51b815260040161068190615cd4565b806116925760009150506105c1565b670de0b6b3a76400006116a6600183615a06565b6116b09190615cc0565b6116bb906001615a4e565b9150506105c1565b6000816116e25760405162461bcd60e51b815260040161068190615cfa565b826116ef575060006105c1565b6000611703670de0b6b3a764000085615c8b565b9050670de0b6b3a76400006117188583615cc0565b146117355760405162461bcd60e51b815260040161068190615d21565b826116a6600183615a06565b6001600160a01b0383811660008181526001602090815260408083209487168084529482529182902085905590518481527f8c5be1e5ebec7d5bd14f71427d1e84f3dd0314c0f7b2291e5b200ac8c7c3b92591015b60405180910390a3505050565b60006117ba6000356001600160e01b031916610d94565b90506105d86117c98233612a88565b610191611365565b80156117f1576117ec6117e261186b565b4210610193611365565b611806565b6118066117fc61188f565b42106101a9611365565b6007805460ff19168215159081179091556040519081527f9e3a5e37224532dea67b89face185703738a228a6e8a23dee546960180d3be64906020015b60405180910390a150565b600061185861188f565b42118061060e57505060075460ff161590565b7f000000000000000000000000000000000000000000000000000000000000000090565b7f000000000000000000000000000000000000000000000000000000000000000090565b606060006118bf610e43565b6001600160a01b031663f94d46686118d5610849565b6040518263ffffffff1660e01b81526004016118f391815260200190565b600060405180830381865afa158015611910573d6000803e3d6000fd5b505050506040513d6000823e601f3d908101601f191682016040526119389190810190615ac1565b50508051909150806001600160401b03811115611957576119576154a5565b604051908082528060200260200182016040528015611980578160200160208202803683370190505b50925060005b81811015611a04576119d5600b60008584815181106119a7576119a7615a1d565b60200260200101516001600160a01b03166001600160a01b0316815260200190815260200160002054612b6b565b8482815181106119e7576119e7615a1d565b6020908102919091010152806119fc81615a33565b915050611986565b50505090565b611a216001600160a01b0384161515610198611365565b611a386001600160a01b0383161515610199611365565b6001600160a01b038316600090815260208190526040902054611a5e90826101a0612b92565b6001600160a01b038085166000908152602081905260408082209390935590841681522054611a8e908290615a4e565b6001600160a01b038381166000818152602081815260409182902094909455518481529092918616916000805160206161ab8339815191529101611796565b600061060e6001611add60085490565b901c607f1690565b60005b611af0611acd565b81101561099157611b33838281518110611b0c57611b0c615a1d565b6020026020010151838381518110611b2657611b26615a1d565b60200260200101516122f1565b838281518110611b4557611b45615a1d565b6020908102919091010152611b5981615a33565b9050611ae8565b60007f00000000000000000000000000000000000000000000000000000000000000007f00000000000000000000000000000000000000000000000000000000000000007f000000000000000000000000000000000000000000000000000000000000000046604080516020810195909552840192909252606083015260808201523060a082015260c00160405160208183030381529060405280519060200120905090565b611c19611c1161184e565b610192611365565b565b611c2e64e8d4a5100082101560cb611365565b611c4467016345785d8a000082111560ca611365565b600854611c53908260c06114de565b6008556040518181527fa9ba3ffe0b6c366b81232caab38605a0699ad5398d6cce76f91ee809e322dafc90602001611843565b611c986002600a541415610190611365565b6002600a55565b6109ca8183146067611365565b600081831015611cbc57816106d4565b5090919050565b60606000611ccf610e43565b6001600160a01b031663f94d4668611ce5610849565b6040518263ffffffff1660e01b8152600401611d0391815260200190565b600060405180830381865afa158015611d20573d6000803e3d6000fd5b505050506040513d6000823e601f3d908101601f19168201604052611d489190810190615ac1565b50508051909150806001600160401b03811115611d6757611d676154a5565b604051908082528060200260200182016040528015611d90578160200160208202803683370190505b5092506000611d9d612bad565b905060005b82811015611e27576000600b6000868481518110611dc257611dc2615a1d565b60200260200101516001600160a01b03166001600160a01b03168152602001908152602001600020549050611df78184612c2b565b868381518110611e0957611e09615a1d565b60209081029190910101525080611e1f81615a33565b915050611da2565b5050505090565b600080805b8451811015611f87576000858281518110611e5057611e50615a1d565b60200260200101519050611e70662386f26fc1000082101561012e611365565b6000858381518110611e8457611e84615a1d565b60200260200101519050611f4d611f01826001600160a01b031663313ce5676040518163ffffffff1660e01b8152600401602060405180830381865afa158015611ed2573d6000803e3d6000fd5b505050506040513d601f19601f82011682018060405250810190611ef69190615d47565b60129060ff16611515565b6060611f46611f0f8661156a565b6040611f3f611f368f8b81518110611f2957611f29615a1d565b602002602001015161158e565b8b9060006114de565b91906115ad565b91906115bf565b6001600160a01b0382166000908152600b6020526040902055611f7085836115ce565b945050508080611f7f90615a33565b915050611e33565b50611f9e670de0b6b3a76400008314610134611365565b611fbb611fb6876028611f3f8b6008611f3f60085490565b612cd9565b7f0f3631f9dab08169d1db21c6dc5f32536fb2b0a6b9bb5330d71c52132f968be087878787604051611ff09493929190615d64565b60405180910390a150505050505050565b600061200b610849565b90506000612017610e43565b60405163160bf1c960e31b8152600481018490526001600160a01b038681166024830152919091169063b05f8e4890604401608060405180830381865afa158015612066573d6000803e3d6000fd5b505050506040513d601f19601f8201168201806040525081019061208a9190615d95565b604051630639cdb560e21b81529094506001600160a01b03851693506318e736d492506120be915085908790600401615dd6565b600060405180830381600087803b1580156120d857600080fd5b505af11580156120ec573d6000803e3d6000fd5b5050505050505050565b600060608061210488612cee565b600061210f85612d63565b905061215c61211c610996565b806121385750600182600381111561213657612136615b8e565b145b806121545750600382600381111561215257612152615b8e565b145b61014a611365565b6121708b8a612169611cc3565b8989612d79565b909450925061217d611acd565b6001600160401b03811115612194576121946154a5565b6040519080825280602002602001820160405280156121bd578160200160208202803683370190505b50915050985098509895505050505050565b33301461228d576000306001600160a01b03166000366040516121f3929190615def565b6000604051808303816000865af19150503d8060008114612230576040519150601f19603f3d011682016040523d82523d6000602084013e612235565b606091505b50509050806000811461224457fe5b60046000803e6000516001600160e01b0319166343adbafb60e01b811461226f573d6000803e3d6000fd5b506020600460003e604060205260243d03602460403e601c3d016000f35b60006122976118b3565b90506122a3878261236d565b6000806122ba8c8c8c8c8c8c898d8d63ffffffff16565b50915091506122cd81848663ffffffff16565b8051601f1982018390526343adbafb603f1983015260200260231982016044820181fd5b6000816123105760405162461bcd60e51b815260040161068190615cfa565b8261231d575060006105c1565b6000612331670de0b6b3a764000085615c8b565b9050670de0b6b3a76400006123468583615cc0565b146123635760405162461bcd60e51b815260040161068190615d21565b6116bb8382615cc0565b60005b612378611acd565b811015610991576123bb83828151811061239457612394615a1d565b60200260200101518383815181106123ae576123ae615a1d565b6020026020010151612dc3565b8382815181106123cd576123cd615a1d565b60209081029190910101526123e181615a33565b9050612370565b6109ca8282612e15565b1c63ffffffff1690565b60006105c163ffffffff61158884670de0b6b3a76400006116438416565b6000606080612427611c06565b61243088612cee565b61245d61243b610996565b806121545750600361244c86612d63565b600381111561215257612152615b8e565b61247088612469611cc3565b8787612eb0565b909350915061247d611acd565b6001600160401b03811115612494576124946154a5565b6040519080825280602002602001820160405280156124bd578160200160208202803683370190505b509050985098509895505050505050565b60005b6124d9611acd565b8110156109915761251c8382815181106124f5576124f5615a1d565b602002602001015183838151811061250f5761250f615a1d565b60200260200101516116c3565b83828151811061252e5761252e615a1d565b602090810291909101015261254281615a33565b90506124d1565b6001600160a01b038216600090815260028401602052604081205461257081151584611365565b6125848561257f600184615a06565b612f50565b95945050505050565b60006105c161259b83612f66565b612b6b565b60006106d483836122f1565b600083608001516125be610b69610e43565b6125c9610b8f610849565b60006125d8866020015161258d565b905060006125e9876040015161258d565b905060008751600181111561260057612600615b8e565b14156126995760006126158860600151612f92565b905060008189606001516126299190615a06565b9050612642896020015161263d8387612fb7565b612fc3565b606089018290526126538885612fb7565b975061265f8784612fb7565b965061266f896060015185612fb7565b60608a015260006126818a8a8a612fd5565b905061268d81856125a0565b96505050505050611483565b6126a38683612fb7565b95506126af8582612fb7565b94506126bf876060015182612fb7565b606088015260006126d1888888612ff5565b90506126dd818461300d565b905060006126ea82613019565b905060006126f88383615a06565b905061270c8a6020015161263d8388612fb7565b50945061148392505050565b6000612722610e43565b6001600160a01b031663aaabadc56040518163ffffffff1660e01b8152600401602060405180830381865afa15801561275f573d6000803e3d6000fd5b505050506040513d601f19601f8201168201806040525081019061060e9190615dff565b6060600061278f611cc3565b9150600090506000826000815181106127aa576127aa615a1d565b602002602001015190506000600190505b835181101561281757818482815181106127d7576127d7615a1d565b60200260200101511115612805578092508381815181106127fa576127fa615a1d565b602002602001015191505b8061280f81615a33565b9150506127bb565b50509091565b670de0b6b3a764000060005b83518110156128955761288161287a85838151811061284a5761284a615a1d565b602002602001015185848151811061286457612864615a1d565b602002602001015161304390919063ffffffff16565b8390612dc3565b91508061288d81615a33565b915050612829565b50600081116105c15760405162461bcd60e51b815260206004820152600e60248201526d16915493d7d2539590549250539560921b6044820152606401610681565b60006128e1611b60565b60405161190160f01b6020820152602281019190915260428101839052606201610ddc565b60006060612912611c06565b600061291d84612d63565b905061293e600082600381111561293657612936615b8e565b1460ce611365565b600061294985613092565b90506129566108c7611acd565b612960818761236d565b600061296a612783565b5090506000612979828461281d565b90506000612985611acd565b61298f9083615c8b565b60099290925550945090925050505b9550959350505050565b6109ca82826130a8565b6129cb611fb68260006129c460085490565b919061161c565b60405181151581527f5a9e84f78f7957cb4ed7478eb0fcad35ee4ecbe2e0f298420b28a3955392573f90602001611843565b600281511015612a0a5750565b600081600081518110612a1f57612a1f615a1d565b602002602001015190506000600190505b8251811015610991576000838281518110612a4d57612a4d615a1d565b60200260200101519050612a76816001600160a01b0316846001600160a01b0316106065611365565b9150612a8181615a33565b9050612a30565b600073ba1ba1ba1ba1ba1ba1ba1ba1ba1ba1ba1ba1ba1b612aa7610e1f565b6001600160a01b031614158015612ac25750612ac283613119565b15612aea57612acf610e1f565b6001600160a01b0316336001600160a01b03161490506105c1565b612af2612718565b6040516326f8aa2160e21b8152600481018590526001600160a01b0384811660248301523060448301529190911690639be2a88490606401602060405180830381865afa158015612b47573d6000803e3d6000fd5b505050506040513d601f19601f820116820180604052508101906113299190615e1c565b6000601f606083901c16612b8081600a615f1d565b6106d490670de0b6b3a7640000615c8b565b6000612ba18484111583611365565b60006125848486615a06565b60004281612bba60085490565b905063ffffffff600882901c811690602883901c16808410612be857670de0b6b3a764000094505050505090565b818411612bfa57600094505050505090565b6000612c068383615a06565b90506000612c148487615a06565b9050612c2081836122f1565b965050505050505090565b600080612c406001600160401b03851661316e565b90506000612c57604086901c63ffffffff166123fc565b9050831580612c6557508082145b15612c72575090506105c1565b670de0b6b3a76400008410612c8a5791506105c19050565b80821115612cbe576000612ca8612ca18385615a06565b8690612dc3565b9050612cb48184615a06565b93505050506105c1565b6000612ccd612ca18484615a06565b9050612cb48184615a4e565b600854612ce8908260006114f3565b60085550565b60005b612cf9611acd565b8110156109ca57612d36612d0e600c83612f50565b838381518110612d2057612d20615a1d565b602002602001015161151590919063ffffffff16565b828281518110612d4857612d48615a1d565b6020908102919091010152612d5c81615a33565b9050612cf1565b6000818060200190518101906105c19190615f36565b600060606000612d8884612d63565b90506003816003811115612d9e57612d9e615b8e565b1415612db757612dad8861318d565b925092505061299e565b612dad8787878761325c565b600080612dd08385615c8b565b9050831580612de7575082612de58583615cc0565b145b612e035760405162461bcd60e51b815260040161068190615cd4565b611562670de0b6b3a764000082615cc0565b612e2c6001600160a01b038316151561019b611365565b6001600160a01b038216600090815260208190526040902054612e5290826101a1612b92565b6001600160a01b038316600090815260208190526040902055600254612e79908290615a06565b6002556040518181526000906001600160a01b038416906000805160206161ab833981519152906020015b60405180910390a35050565b600060606000612ebf84612d63565b90506001816003811115612ed557612ed5615b8e565b1415612ef157612ee7878787876132e7565b9250925050612f47565b6002816003811115612f0557612f05615b8e565b1415612f1657612ee787878661335e565b6003816003811115612f2a57612f2a615b8e565b1415612f3a57612ee7878561345e565b612f4561013661148b565b505b94509492505050565b6000908152600191820160205260409020015490565b6001600160a01b0381166000908152600b6020526040902054612f8d811515610135611365565b919050565b600080612fab612fa460085460c01c90565b8490611643565b90506106d48184615a06565b60006106d48383612dc3565b6109ca612fcf83613491565b826134a1565b6000612fea612fe2610996565b610147611365565b611562848484613501565b6000613002612fe2610996565b611562848484613534565b60006106d483836116c3565b60006105c161302a60085460c01c90565b61303c90670de0b6b3a7640000615a06565b83906116c3565b6000806130508484613567565b9050600061306a61306383612710611643565b60016115ce565b90508082101561307f576000925050506105c1565b6130898282611515565b925050506105c1565b6060818060200190518101906106d49190615f53565b806002546130b69190615a4e565b6002556001600160a01b0382166000908152602081905260409020546130dd908290615a4e565b6001600160a01b038316600081815260208181526040808320949094559251848152919290916000805160206161ab8339815191529101612ea4565b600061312b633e56920560e01b610d94565b8214806131465750613143633806be4b60e21b610d94565b82145b8061315f575061315c632dbb8aaf60e11b610d94565b82145b806105c157506105c1826136d6565b60006105c16001600160401b0361158884670de0b6b3a7640000611643565b60006060613199611c06565b6131b06001600160a01b0384163014610151611365565b600091506131bc611acd565b6001600160401b038111156131d3576131d36154a5565b6040519080825280602002602001820160405280156131fc578160200160208202803683370190505b50905060005b61320a611acd565b8110156132565761321c600c82612f50565b82828151811061322e5761322e615a1d565b6020908102919091010152613246600c826000613708565b61324f81615a33565b9050613202565b50915091565b60006060600061326b84612d63565b9050600081600381111561328157613281615b8e565b141561329257612ee7878786613720565b60018160038111156132a6576132a6615b8e565b14156132b657612ee78785613796565b60028160038111156132ca576132ca615b8e565b14156132dc57612ee7878787876137bc565b612f4561015061148b565b600060606000806132f785613827565b9150915061330d613306611acd565b8351611c9f565b613317828761236d565b6000806133348a8a8661332960025490565b60085460c01c61384a565b91509150613341816139da565b61334f8383101560d0611365565b50989197509095505050505050565b6000606060008061336e85613a2c565b9150915061338661337d611acd565b82106064611365565b6000806133d589848151811061339e5761339e615a1d565b60200260200101518985815181106133b8576133b8615a1d565b6020026020010151866133ca60025490565b60085460c01c613a43565b915091506133e383826134a1565b60006133ed611acd565b6001600160401b03811115613404576134046154a5565b60405190808252806020026020018201604052801561342d578160200160208202803683370190505b5090508281858151811061344357613443615a1d565b60209081029190910101529399939850929650505050505050565b60006060600061346d84613b5c565b90506000613484868361347f60025490565b613b72565b9196919550909350505050565b60006105c1600c83610135613c3a565b80156109ca5760006134d3827f0000000000000000000000000000000000000000000000000000000000000000612dc3565b905060006134e2600c85612f50565b90506134fb846134f283856115ce565b600c9190613708565b50505050565b600061350b611c06565b6115628361351c8660200151613c6c565b8461352a8860400151613c6c565b8860600151613c90565b600061353e611c06565b6115628361354f8660200151613c6c565b8461355d8860400151613c6c565b8860600151613d3b565b60008161357d5750670de0b6b3a76400006105c1565b8261358a575060006105c1565b61359b600160ff1b84106006611365565b826135bf6135b668056bc75e2d63100000600160fe1b615cc0565b84106007611365565b826000826135dd67016345785d8a0000670de0b6b3a7640000615f99565b12801561360257506135ff670de0b6b3a764000067016345785d8a0000615fd8565b83125b1561366b57600061361284613de2565b9050670de0b6b3a7640000836136288284616019565b613632919061602d565b61363c91906160b2565b8361364f670de0b6b3a7640000846160b2565b613659919061602d565b6136639190615fd8565b915050613682565b8161367584614019565b61367f919061602d565b90505b613694670de0b6b3a7640000826160b2565b90506136c381680238fd42c5cf03ffff19131580156136bc575068070c1cc73b00c800008213155b6008611365565b6136cc816145fb565b9695505050505050565b60006136e8631c74c91760e11b610d94565b8214806105c157506137006350dd6ed960e01b610d94565b821492915050565b60009182526001928301602052604090912090910155565b6000606061372c611c06565b60008061373885613a2c565b9150915061374761337d611acd565b6000806133d589848151811061375f5761375f615a1d565b602002602001015189858151811061377957613779615a1d565b60200260200101518661378b60025490565b60085460c01c614c30565b6000606060006137a584613b5c565b9050600061348486836137b760025490565b614d22565b600060606137c8611c06565b6000806137d485613827565b915091506137e58251610b06611acd565b6137ef828761236d565b60008061380c8a8a8661380160025490565b60085460c01c614dca565b9150915061381e8383111560cf611365565b61334f816139da565b606060008280602001905181019061383f91906160e0565b909590945092505050565b60006060600085516001600160401b03811115613869576138696154a5565b604051908082528060200260200182016040528015613892578160200160208202803683370190505b5090506000805b895181101561397e576138fd8a82815181106138b7576138b7615a1d565b60200260200101518983815181106138d1576138d1615a1d565b60200260200101518c84815181106138eb576138eb615a1d565b6020026020010151610b549190615a4e565b83828151811061390f5761390f615a1d565b60200260200101818152505061396089828151811061393057613930615a1d565b602002602001015184838151811061394a5761394a615a1d565b6020026020010151612dc390919063ffffffff16565b61396a9083615a4e565b91508061397681615a33565b915050613899565b506000806139908b8b8b87878c614f13565b915091506000670de0b6b3a764000083116139ac5760006139c8565b6139c86139c1670de0b6b3a764000085615a06565b8a90612dc3565b9c919b50909950505050505050505050565b6139e78151610b06611acd565b60005b6139f2611acd565b8110156109ca57613a1c81838381518110613a0f57613a0f615a1d565b60200260200101516134a1565b613a2581615a33565b90506139ea565b6000808280602001905181019061383f9190616128565b60008080613a55856115888882615a4e565b90506729a2241af62c0000811115613aaa5760405162461bcd60e51b815260206004820152601860248201527726a0ac2fa7aaaa2fa1282a2fa327a92faa27a5a2a72fa4a760411b6044820152606401610681565b6000613ac8613ac1670de0b6b3a76400008a6116c3565b83906150d8565b90506000613ae8613ae1670de0b6b3a764000084615a06565b8b90611643565b90506000613af58a615104565b90506000613b038383611643565b90506000613b118285615a06565b90506000613b31613b2a8b670de0b6b3a7640000615a06565b84906116c3565b9050613b3d8382615a06565b9750613b498183615a4e565b9850505050505050509550959350505050565b6000818060200190518101906106d4919061615f565b60606000613b8084846116c3565b9050600085516001600160401b03811115613b9d57613b9d6154a5565b604051908082528060200260200182016040528015613bc6578160200160208202803683370190505b50905060005b8651811015613c3057613c0183888381518110613beb57613beb615a1d565b602002602001015161164390919063ffffffff16565b828281518110613c1357613c13615a1d565b602090810291909101015280613c2881615a33565b915050613bcc565b5095945050505050565b6001600160a01b0382166000908152600284016020526040812054613c6181151584611365565b612584600182615a06565b600080613c77612bad565b90506000613c8484612f66565b90506115628183612c2b565b6000613ca486670429d069189e0000612dc3565b821115613ce25760405162461bcd60e51b815260206004820152600c60248201526b4d41585f494e5f524154494f60a01b6044820152606401610681565b6000613cee8388615a4e565b90506000613cfc88836116c3565b90506000613d0a88876122f1565b90506000613d1883836150d8565b9050613d2d613d2682615104565b8990612dc3565b9a9950505050505050505050565b6000613d4f84670429d069189e0000612dc3565b821115613d8e5760405162461bcd60e51b815260206004820152600d60248201526c4d41585f4f55545f524154494f60981b6044820152606401610681565b6000613da4613d9d8487615a06565b86906116c3565b90506000613db285886116c3565b90506000613dc083836150d8565b90506000613dd6670de0b6b3a764000083615a06565b9050613d2d8a82611643565b6000613df6670de0b6b3a76400008361602d565b91506000613e126a0c097ce7bc90715b34b9f160241b84615fd8565b6a0c097ce7bc90715b34b9f160241b613e2b8186615f99565b613e35919061602d565b613e3f91906160b2565b905060006a0c097ce7bc90715b34b9f160241b613e5c838061602d565b613e6691906160b2565b905081806a0c097ce7bc90715b34b9f160241b613e83848361602d565b613e8d91906160b2565b9150613e9a6003836160b2565b613ea49082615fd8565b90506a0c097ce7bc90715b34b9f160241b613ebf848461602d565b613ec991906160b2565b9150613ed66005836160b2565b613ee09082615fd8565b90506a0c097ce7bc90715b34b9f160241b613efb848461602d565b613f0591906160b2565b9150613f126007836160b2565b613f1c9082615fd8565b90506a0c097ce7bc90715b34b9f160241b613f37848461602d565b613f4191906160b2565b9150613f4e6009836160b2565b613f589082615fd8565b90506a0c097ce7bc90715b34b9f160241b613f73848461602d565b613f7d91906160b2565b9150613f8a600b836160b2565b613f949082615fd8565b90506a0c097ce7bc90715b34b9f160241b613faf848461602d565b613fb991906160b2565b9150613fc6600d836160b2565b613fd09082615fd8565b90506a0c097ce7bc90715b34b9f160241b613feb848461602d565b613ff591906160b2565b9150614002600f836160b2565b61400c9082615fd8565b90506136cc81600261602d565b6000670de0b6b3a76400008212156140595761405082614041670de0b6b3a76400008061602d565b61404b91906160b2565b614019565b6105c19061618d565b6000614083670de0b6b3a764000072195e54c5dd42177f53a27172fa9ec63026282760241b61602d565b83126140c1576140a972195e54c5dd42177f53a27172fa9ec63026282760241b846160b2565b92506140be6806f05b59d3b200000082615fd8565b90505b6140df670de0b6b3a76400006b1425982cf597cd205cef738061602d565b8312614113576140fb6b1425982cf597cd205cef7380846160b2565b92506141106803782dace9d900000082615fd8565b90505b61411e60648261602d565b905061412b60648461602d565b92506e01855144814a7ff805980ff00840008312614188576e01855144814a7ff805980ff008400061416668056bc75e2d631000008561602d565b61417091906160b2565b925061418568ad78ebc5ac6200000082615fd8565b90505b6b02df0ab5a80a22c61ab5a70083126141dd576b02df0ab5a80a22c61ab5a7006141bb68056bc75e2d631000008561602d565b6141c591906160b2565b92506141da6856bc75e2d63100000082615fd8565b90505b693f1fce3da636ea5cf850831261422e57693f1fce3da636ea5cf85061420c68056bc75e2d631000008561602d565b61421691906160b2565b925061422b682b5e3af16b1880000082615fd8565b90505b690127fa27722cc06cc5e2831261427f57690127fa27722cc06cc5e261425d68056bc75e2d631000008561602d565b61426791906160b2565b925061427c6815af1d78b58c40000082615fd8565b90505b68280e60114edb805d0383126142ce5768280e60114edb805d036142ac68056bc75e2d631000008561602d565b6142b691906160b2565b92506142cb680ad78ebc5ac620000082615fd8565b90505b680ebc5fb41746121110831261431d57680ebc5fb417461211106142fb68056bc75e2d631000008561602d565b61430591906160b2565b925061431a68056bc75e2d6310000082615fd8565b90505b6808f00f760a4b2db55d831261436c576808f00f760a4b2db55d61434a68056bc75e2d631000008561602d565b61435491906160b2565b92506143696802b5e3af16b188000082615fd8565b90505b6806f5f177578893793783126143bb576806f5f177578893793761439968056bc75e2d631000008561602d565b6143a391906160b2565b92506143b868015af1d78b58c4000082615fd8565b90505b6806248f33704b2866038312614409576806248f33704b2866036143e868056bc75e2d631000008561602d565b6143f291906160b2565b925061440667ad78ebc5ac62000082615fd8565b90505b6805c548670b9510e7ac8312614457576805c548670b9510e7ac61443668056bc75e2d631000008561602d565b61444091906160b2565b92506144546756bc75e2d631000082615fd8565b90505b600061446c68056bc75e2d6310000085615fd8565b68056bc75e2d631000006144808187615f99565b61448a919061602d565b61449491906160b2565b9050600068056bc75e2d631000006144ac838061602d565b6144b691906160b2565b9050818068056bc75e2d631000006144ce848361602d565b6144d891906160b2565b91506144e56003836160b2565b6144ef9082615fd8565b905068056bc75e2d63100000614505848461602d565b61450f91906160b2565b915061451c6005836160b2565b6145269082615fd8565b905068056bc75e2d6310000061453c848461602d565b61454691906160b2565b91506145536007836160b2565b61455d9082615fd8565b905068056bc75e2d63100000614573848461602d565b61457d91906160b2565b915061458a6009836160b2565b6145949082615fd8565b905068056bc75e2d631000006145aa848461602d565b6145b491906160b2565b91506145c1600b836160b2565b6145cb9082615fd8565b90506145d860028261602d565b905060646145e68287615fd8565b6145f091906160b2565b979650505050505050565b600061462a680238fd42c5cf03ffff198312158015614623575068070c1cc73b00c800008313155b6009611365565b60008212156146605761464461463f8361618d565b6145fb565b614656670de0b6b3a76400008061602d565b6105c191906160b2565b60006806f05b59d3b200000083126146a5576146856806f05b59d3b200000084615f99565b925072195e54c5dd42177f53a27172fa9ec63026282760241b90506146e2565b6803782dace9d900000083126146de576146c86803782dace9d900000084615f99565b92506b1425982cf597cd205cef738090506146e2565b5060015b6146ed60648461602d565b925068056bc75e2d6310000068ad78ebc5ac62000000841261474e5761471c68ad78ebc5ac6200000085615f99565b935068056bc75e2d631000006147416e01855144814a7ff805980ff00840008361602d565b61474b91906160b2565b90505b6856bc75e2d63100000084126147a0576147716856bc75e2d63100000085615f99565b935068056bc75e2d631000006147936b02df0ab5a80a22c61ab5a7008361602d565b61479d91906160b2565b90505b682b5e3af16b1880000084126147f0576147c3682b5e3af16b1880000085615f99565b935068056bc75e2d631000006147e3693f1fce3da636ea5cf8508361602d565b6147ed91906160b2565b90505b6815af1d78b58c4000008412614840576148136815af1d78b58c40000085615f99565b935068056bc75e2d63100000614833690127fa27722cc06cc5e28361602d565b61483d91906160b2565b90505b680ad78ebc5ac6200000841261488f57614863680ad78ebc5ac620000085615f99565b935068056bc75e2d6310000061488268280e60114edb805d038361602d565b61488c91906160b2565b90505b68056bc75e2d6310000084126148de576148b268056bc75e2d6310000085615f99565b935068056bc75e2d631000006148d1680ebc5fb417461211108361602d565b6148db91906160b2565b90505b6802b5e3af16b1880000841261492d576149016802b5e3af16b188000085615f99565b935068056bc75e2d631000006149206808f00f760a4b2db55d8361602d565b61492a91906160b2565b90505b68015af1d78b58c40000841261497c5761495068015af1d78b58c4000085615f99565b935068056bc75e2d6310000061496f6806f5f17757889379378361602d565b61497991906160b2565b90505b68056bc75e2d63100000846149918183615fd8565b9150600268056bc75e2d631000006149a9888461602d565b6149b391906160b2565b6149bd91906160b2565b90506149c98183615fd8565b9150600368056bc75e2d631000006149e1888461602d565b6149eb91906160b2565b6149f591906160b2565b9050614a018183615fd8565b9150600468056bc75e2d63100000614a19888461602d565b614a2391906160b2565b614a2d91906160b2565b9050614a398183615fd8565b9150600568056bc75e2d63100000614a51888461602d565b614a5b91906160b2565b614a6591906160b2565b9050614a718183615fd8565b9150600668056bc75e2d63100000614a89888461602d565b614a9391906160b2565b614a9d91906160b2565b9050614aa98183615fd8565b9150600768056bc75e2d63100000614ac1888461602d565b614acb91906160b2565b614ad591906160b2565b9050614ae18183615fd8565b9150600868056bc75e2d63100000614af9888461602d565b614b0391906160b2565b614b0d91906160b2565b9050614b198183615fd8565b9150600968056bc75e2d63100000614b31888461602d565b614b3b91906160b2565b614b4591906160b2565b9050614b518183615fd8565b9150600a68056bc75e2d63100000614b69888461602d565b614b7391906160b2565b614b7d91906160b2565b9050614b898183615fd8565b9150600b68056bc75e2d63100000614ba1888461602d565b614bab91906160b2565b614bb591906160b2565b9050614bc18183615fd8565b9150600c68056bc75e2d63100000614bd9888461602d565b614be391906160b2565b614bed91906160b2565b9050614bf98183615fd8565b915060648468056bc75e2d63100000614c12858761602d565b614c1c91906160b2565b614c26919061602d565b6136cc91906160b2565b60008080614c42856115888882615a06565b90506709b6e64a8ec60000811015614c975760405162461bcd60e51b815260206004820152601860248201527713525397d0941517d25397d193d497d513d2d15397d3d55560421b6044820152606401610681565b6000614cae613ac1670de0b6b3a76400008a6122f1565b90506000614cc5614cbe83615104565b8b90612dc3565b90506000614cd28a615104565b90506000614ce08383611643565b90506000614cee8285615a06565b9050614cfa828a611643565b9650614d068783615a06565b614d109082615a4e565b97505050505050509550959350505050565b60606000614d3084846122f1565b9050600085516001600160401b03811115614d4d57614d4d6154a5565b604051908082528060200260200182016040528015614d76578160200160208202803683370190505b50905060005b8651811015613c3057614d9b8388838151811061394a5761394a615a1d565b828281518110614dad57614dad615a1d565b602090810291909101015280614dc281615a33565b915050614d7c565b60006060600085516001600160401b03811115614de957614de96154a5565b604051908082528060200260200182016040528015614e12578160200160208202803683370190505b5090506000805b8951811015614ee857614e7d8a8281518110614e3757614e37615a1d565b6020026020010151898381518110614e5157614e51615a1d565b60200260200101518c8481518110614e6b57614e6b615a1d565b60200260200101516115889190615a06565b838281518110614e8f57614e8f615a1d565b602002602001018181525050614eca898281518110614eb057614eb0615a1d565b6020026020010151848381518110613beb57613beb615a1d565b614ed49083615a4e565b915080614ee081615a33565b915050614e19565b50600080614efa8b8b8b87878c61512e565b9150915060006139c8614f0c84615104565b8a90611643565b6000606085516001600160401b03811115614f3057614f306154a5565b604051908082528060200260200182016040528015614f59578160200160208202803683370190505b509050670de0b6b3a7640000915060005b88518110156150cc57600085878381518110614f8857614f88615a1d565b60200260200101511115615035576000614fbf614fad670de0b6b3a764000089615a06565b8c858151811061394a5761394a615a1d565b90506000818a8581518110614fd657614fd6615a1d565b6020026020010151614fe89190615a06565b90506000614ff68289611643565b90506150028183615a06565b61500c9084615a4e565b93508086868151811061502157615021615a1d565b602002602001018181525050505050615052565b87828151811061504757615047615a1d565b602002602001015190505b60006150848b848151811061506957615069615a1d565b6020026020010151838d86815181106138eb576138eb615a1d565b90506150b5612ca18b858151811061509e5761509e615a1d565b60200260200101518361304390919063ffffffff16565b9450505080806150c490615a33565b915050614f6a565b50965096945050505050565b6000806150e58484613567565b905060006150f861306383612710611643565b905061258482826115ce565b6000670de0b6b3a7640000821061511c5760006105c1565b6105c182670de0b6b3a7640000615a06565b6000606085516001600160401b0381111561514b5761514b6154a5565b604051908082528060200260200182016040528015615174578160200160208202803683370190505b509050670de0b6b3a7640000915060005b88518110156150cc5760008682815181106151a2576151a2615a1d565b602002602001015186111561523e5760006151bf614fad88615104565b90506000818a85815181106151d6576151d6615a1d565b60200260200101516151e89190615a06565b9050600061520161303c89670de0b6b3a7640000615a06565b905061520d8282615a06565b86868151811061521f5761521f615a1d565b60209081029190910101526152348184615a4e565b935050505061525b565b87828151811061525057615250615a1d565b602002602001015190505b600061529f8b848151811061527257615272615a1d565b6020026020010151838d868151811061528d5761528d615a1d565b6020026020010151610b549190615a06565b90506152b9612ca18b858151811061509e5761509e615a1d565b9450505080806152c890615a33565b915050615185565b6000815180845260005b818110156152f6576020818501810151868301820152016152da565b81811115615308576000602083870101525b50601f01601f19169290920160200192915050565b6020815260006106d460208301846152d0565b6001600160a01b03811681146105d857600080fd5b8035612f8d81615330565b6000806040838503121561536357600080fd5b823561536e81615330565b946020939093013593505050565b80151581146105d857600080fd5b60006020828403121561539c57600080fd5b81356106d48161537c565b600081518084526020808501945080840160005b838110156153d7578151875295820195908201906001016153bb565b509495945050505050565b6020815260006106d460208301846153a7565b60008060006060848603121561540a57600080fd5b833561541581615330565b9250602084013561542581615330565b929592945050506040919091013590565b604080825283519082018190526000906020906060840190828701845b828110156154785781516001600160a01b031684529284019290840190600101615453565b505050838103828501526136cc81866153a7565b60006020828403121561549e57600080fd5b5035919050565b634e487b7160e01b600052604160045260246000fd5b60405161012081016001600160401b03811182821017156154de576154de6154a5565b60405290565b604051601f8201601f191681016001600160401b038111828210171561550c5761550c6154a5565b604052919050565b60006001600160401b0382111561552d5761552d6154a5565b5060051b60200190565b600082601f83011261554857600080fd5b8135602061555d61555883615514565b6154e4565b82815260059290921b8401810191818101908684111561557c57600080fd5b8286015b848110156155975780358352918301918301615580565b509695505050505050565b6000806000606084860312156155b757600080fd5b833592506020840135915060408401356001600160401b038111156155db57600080fd5b6155e786828701615537565b9150509250925092565b600082601f83011261560257600080fd5b81356001600160401b0381111561561b5761561b6154a5565b61562e601f8201601f19166020016154e4565b81815284602083860101111561564357600080fd5b816020850160208301376000918101602001919091529392505050565b6000806040838503121561567357600080fd5b823561567e81615330565b915060208301356001600160401b0381111561569957600080fd5b6156a5858286016155f1565b9150509250929050565b6000602082840312156156c157600080fd5b81356106d481615330565b600080600080600080600060e0888a0312156156e757600080fd5b8735965060208801356156f981615330565b9550604088013561570981615330565b945060608801356001600160401b038082111561572557600080fd5b6157318b838c01615537565b955060808a0135945060a08a0135935060c08a013591508082111561575557600080fd5b506157628a828b016155f1565b91505092959891949750929550565b82815260406020820152600061156260408301846153a7565b60408152600061579d60408301856153a7565b828103602084015261258481856153a7565b83815282602082015260606040820152600061258460608301846153a7565b6000602082840312156157e057600080fd5b81356001600160e01b0319811681146106d457600080fd5b803560028110612f8d57600080fd5b60008060006060848603121561581c57600080fd5b83356001600160401b038082111561583357600080fd5b90850190610120828803121561584857600080fd5b6158506154bb565b615859836157f8565b815261586760208401615345565b602082015261587860408401615345565b6040820152606083013560608201526080830135608082015260a083013560a08201526158a760c08401615345565b60c08201526158b860e08401615345565b60e082015261010080840135838111156158d157600080fd5b6158dd8a8287016155f1565b9183019190915250976020870135975060409096013595945050505050565b60ff811681146105d857600080fd5b600080600080600080600060e0888a03121561592657600080fd5b873561593181615330565b9650602088013561594181615330565b95506040880135945060608801359350608088013561595f816158fc565b9699959850939692959460a0840135945060c09093013592915050565b6000806040838503121561598f57600080fd5b823561599a81615330565b915060208301356159aa81615330565b809150509250929050565b600181811c908216806159c957607f821691505b602082108114156159ea57634e487b7160e01b600052602260045260246000fd5b50919050565b634e487b7160e01b600052601160045260246000fd5b600082821015615a1857615a186159f0565b500390565b634e487b7160e01b600052603260045260246000fd5b6000600019821415615a4757615a476159f0565b5060010190565b60008219821115615a6157615a616159f0565b500190565b600082601f830112615a7757600080fd5b81516020615a8761555883615514565b82815260059290921b84018101918181019086841115615aa657600080fd5b8286015b848110156155975780518352918301918301615aaa565b600080600060608486031215615ad657600080fd5b83516001600160401b0380821115615aed57600080fd5b818601915086601f830112615b0157600080fd5b81516020615b1161555883615514565b82815260059290921b8401810191818101908a841115615b3057600080fd5b948201945b83861015615b57578551615b4881615330565b82529482019490820190615b35565b91890151919750909350505080821115615b7057600080fd5b50615b7d86828701615a66565b925050604084015190509250925092565b634e487b7160e01b600052602160045260246000fd5b6020810160048310615bc657634e487b7160e01b600052602160045260246000fd5b91905290565b8481526000602060018060a01b038087168285015280861660408501526080606085015261010084018551608080870152818151808452610120880191508583019350600092505b80831015615c3657835185168252928501926001929092019190850190615c14565b50848801519450607f199350838782030160a0880152615c5681866153a7565b94505050506040850151818584030160c0860152615c7483826152d0565b92505050606084015161559760e085018215159052565b6000816000190483118215151615615ca557615ca56159f0565b500290565b634e487b7160e01b600052601260045260246000fd5b600082615ccf57615ccf615caa565b500490565b6020808252600c908201526b4d554c5f4f564552464c4f5760a01b604082015260600190565b6020808252600d908201526c2d22a927afa224ab24a9a4a7a760991b604082015260600190565b6020808252600c908201526b11125597d25395115493905360a21b604082015260600190565b600060208284031215615d5957600080fd5b81516106d4816158fc565b848152836020820152608060408201526000615d8360808301856153a7565b82810360608401526145f081856153a7565b60008060008060808587031215615dab57600080fd5b8451935060208501519250604085015191506060850151615dcb81615330565b939692955090935050565b82815260406020820152600061156260408301846152d0565b8183823760009101908152919050565b600060208284031215615e1157600080fd5b81516106d481615330565b600060208284031215615e2e57600080fd5b81516106d48161537c565b600181815b80851115615e74578160001904821115615e5a57615e5a6159f0565b80851615615e6757918102915b93841c9390800290615e3e565b509250929050565b600082615e8b575060016105c1565b81615e98575060006105c1565b8160018114615eae5760028114615eb857615ed4565b60019150506105c1565b60ff841115615ec957615ec96159f0565b50506001821b6105c1565b5060208310610133831016604e8410600b8410161715615ef7575081810a6105c1565b615f018383615e39565b8060001904821115615f1557615f156159f0565b029392505050565b60006106d48383615e7c565b600481106105d857600080fd5b600060208284031215615f4857600080fd5b81516106d481615f29565b60008060408385031215615f6657600080fd5b8251615f7181615f29565b60208401519092506001600160401b03811115615f8d57600080fd5b6156a585828601615a66565b60008083128015600160ff1b850184121615615fb757615fb76159f0565b6001600160ff1b0384018313811615615fd257615fd26159f0565b50500390565b600080821280156001600160ff1b0384900385131615615ffa57615ffa6159f0565b600160ff1b8390038412811615616013576160136159f0565b50500190565b60008261602857616028615caa565b500790565b60006001600160ff1b0381841382841380821686840486111615616053576160536159f0565b600160ff1b6000871282811687830589121615616072576160726159f0565b6000871292508782058712848416161561608e5761608e6159f0565b878505871281841616156160a4576160a46159f0565b505050929093029392505050565b6000826160c1576160c1615caa565b600160ff1b8214600019841416156160db576160db6159f0565b500590565b6000806000606084860312156160f557600080fd5b835161610081615f29565b60208501519093506001600160401b0381111561611c57600080fd5b615b7d86828701615a66565b60008060006060848603121561613d57600080fd5b835161614881615f29565b602085015160409095015190969495509392505050565b6000806040838503121561617257600080fd5b825161617d81615f29565b6020939093015192949293505050565b6000600160ff1b8214156161a3576161a36159f0565b506000039056feddf252ad1be2c89b69c2b068fc378daa952ba7f163c4a11628f55a4df523b3efa2646970667358221220b0a4c7c54b0c104e47a7b8d7a4fdff4701e7e3db04cf103753041013f8af211764736f6c634300080a0033",
  "linkReferences": {},
  "deployedLinkReferences": {}
}