{
  "_format": "hh-sol-artifact-1",
  "contractName": "ManagedPool",
  "sourceName": "contracts/libraries/smart/ManagedPool.sol",
  "abi": [
    {
      "inputs": [
        {
          "components": [
            {
              "internalType": "contract IVault",
              "name": "vault",
              "type": "address"
            },
            {
              "internalType": "string",
              "name": "name",
              "type": "string"
            },
            {
              "internalType": "string",
              "name": "symbol",
              "type": "string"
            },
            {
              "internalType": "contract IERC20[]",
              "name": "tokens",
              "type": "address[]"
            },
            {
              "internalType": "uint256[]",
              "name": "normalizedWeights",
              "type": "uint256[]"
            },
            {
              "internalType": "address[]",
              "name": "assetManagers",
              "type": "address[]"
            },
            {
              "internalType": "uint256",
              "name": "swapFeePercentage",
              "type": "uint256"
            },
            {
              "internalType": "uint256",
              "name": "pauseWindowDuration",
              "type": "uint256"
            },
            {
              "internalType": "uint256",
              "name": "bufferPeriodDuration",
              "type": "uint256"
            },
            {
              "internalType": "address",
              "name": "owner",
              "type": "address"
            },
            {
              "internalType": "bool",
              "name": "swapEnabledOnStart",
              "type": "bool"
            },
            {
              "internalType": "uint256",
              "name": "managementSwapFeePercentage",
              "type": "uint256"
            }
          ],
          "internalType": "struct ManagedPool.NewPoolParams",
          "name": "params",
          "type": "tuple"
        }
      ],
      "stateMutability": "nonpayable",
      "type": "constructor"
    },
    {
      "anonymous": false,
      "inputs": [
        {
          "indexed": true,
          "internalType": "address",
          "name": "owner",
          "type": "address"
        },
        {
          "indexed": true,
          "internalType": "address",
          "name": "spender",
          "type": "address"
        },
        {
          "indexed": false,
          "internalType": "uint256",
          "name": "value",
          "type": "uint256"
        }
      ],
      "name": "Approval",
      "type": "event"
    },
    {
      "anonymous": false,
      "inputs": [
        {
          "indexed": false,
          "internalType": "uint256",
          "name": "startTime",
          "type": "uint256"
        },
        {
          "indexed": false,
          "internalType": "uint256",
          "name": "endTime",
          "type": "uint256"
        },
        {
          "indexed": false,
          "internalType": "uint256[]",
          "name": "startWeights",
          "type": "uint256[]"
        },
        {
          "indexed": false,
          "internalType": "uint256[]",
          "name": "endWeights",
          "type": "uint256[]"
        }
      ],
      "name": "GradualWeightUpdateScheduled",
      "type": "event"
    },
    {
      "anonymous": false,
      "inputs": [
        {
          "indexed": false,
          "internalType": "uint256",
          "name": "managementFeePercentage",
          "type": "uint256"
        }
      ],
      "name": "ManagementFeePercentageChanged",
      "type": "event"
    },
    {
      "anonymous": false,
      "inputs": [
        {
          "indexed": false,
          "internalType": "contract IERC20[]",
          "name": "tokens",
          "type": "address[]"
        },
        {
          "indexed": false,
          "internalType": "uint256[]",
          "name": "amounts",
          "type": "uint256[]"
        }
      ],
      "name": "ManagementFeesCollected",
      "type": "event"
    },
    {
      "anonymous": false,
      "inputs": [
        {
          "indexed": false,
          "internalType": "bool",
          "name": "paused",
          "type": "bool"
        }
      ],
      "name": "PausedStateChanged",
      "type": "event"
    },
    {
      "anonymous": false,
      "inputs": [
        {
          "indexed": false,
          "internalType": "bool",
          "name": "swapEnabled",
          "type": "bool"
        }
      ],
      "name": "SwapEnabledSet",
      "type": "event"
    },
    {
      "anonymous": false,
      "inputs": [
        {
          "indexed": false,
          "internalType": "uint256",
          "name": "swapFeePercentage",
          "type": "uint256"
        }
      ],
      "name": "SwapFeePercentageChanged",
      "type": "event"
    },
    {
      "anonymous": false,
      "inputs": [
        {
          "indexed": true,
          "internalType": "address",
          "name": "from",
          "type": "address"
        },
        {
          "indexed": true,
          "internalType": "address",
          "name": "to",
          "type": "address"
        },
        {
          "indexed": false,
          "internalType": "uint256",
          "name": "value",
          "type": "uint256"
        }
      ],
      "name": "Transfer",
      "type": "event"
    },
    {
      "inputs": [],
      "name": "DOMAIN_SEPARATOR",
      "outputs": [
        {
          "internalType": "bytes32",
          "name": "",
          "type": "bytes32"
        }
      ],
      "stateMutability": "view",
      "type": "function"
    },
    {
      "inputs": [
        {
          "internalType": "address",
          "name": "owner",
          "type": "address"
        },
        {
          "internalType": "address",
          "name": "spender",
          "type": "address"
        }
      ],
      "name": "allowance",
      "outputs": [
        {
          "internalType": "uint256",
          "name": "",
          "type": "uint256"
        }
      ],
      "stateMutability": "view",
      "type": "function"
    },
    {
      "inputs": [
        {
          "internalType": "address",
          "name": "spender",
          "type": "address"
        },
        {
          "internalType": "uint256",
          "name": "amount",
          "type": "uint256"
        }
      ],
      "name": "approve",
      "outputs": [
        {
          "internalType": "bool",
          "name": "",
          "type": "bool"
        }
      ],
      "stateMutability": "nonpayable",
      "type": "function"
    },
    {
      "inputs": [
        {
          "internalType": "address",
          "name": "account",
          "type": "address"
        }
      ],
      "name": "balanceOf",
      "outputs": [
        {
          "internalType": "uint256",
          "name": "",
          "type": "uint256"
        }
      ],
      "stateMutability": "view",
      "type": "function"
    },
    {
      "inputs": [],
      "name": "decimals",
      "outputs": [
        {
          "internalType": "uint8",
          "name": "",
          "type": "uint8"
        }
      ],
      "stateMutability": "view",
      "type": "function"
    },
    {
      "inputs": [
        {
          "internalType": "address",
          "name": "spender",
          "type": "address"
        },
        {
          "internalType": "uint256",
          "name": "amount",
          "type": "uint256"
        }
      ],
      "name": "decreaseAllowance",
      "outputs": [
        {
          "internalType": "bool",
          "name": "",
          "type": "bool"
        }
      ],
      "stateMutability": "nonpayable",
      "type": "function"
    },
    {
      "inputs": [
        {
          "internalType": "bytes4",
          "name": "selector",
          "type": "bytes4"
        }
      ],
      "name": "getActionId",
      "outputs": [
        {
          "internalType": "bytes32",
          "name": "",
          "type": "bytes32"
        }
      ],
      "stateMutability": "view",
      "type": "function"
    },
    {
      "inputs": [],
      "name": "getAuthorizer",
      "outputs": [
        {
          "internalType": "contract IAuthorizer",
          "name": "",
          "type": "address"
        }
      ],
      "stateMutability": "view",
      "type": "function"
    },
    {
      "inputs": [],
      "name": "getCollectedManagementFees",
      "outputs": [
        {
          "internalType": "contract IERC20[]",
          "name": "tokens",
          "type": "address[]"
        },
        {
          "internalType": "uint256[]",
          "name": "collectedFees",
          "type": "uint256[]"
        }
      ],
      "stateMutability": "view",
      "type": "function"
    },
    {
      "inputs": [],
      "name": "getGradualWeightUpdateParams",
      "outputs": [
        {
          "internalType": "uint256",
          "name": "startTime",
          "type": "uint256"
        },
        {
          "internalType": "uint256",
          "name": "endTime",
          "type": "uint256"
        },
        {
          "internalType": "uint256[]",
          "name": "endWeights",
          "type": "uint256[]"
        }
      ],
      "stateMutability": "view",
      "type": "function"
    },
    {
      "inputs": [],
      "name": "getInvariant",
      "outputs": [
        {
          "internalType": "uint256",
          "name": "",
          "type": "uint256"
        }
      ],
      "stateMutability": "view",
      "type": "function"
    },
    {
      "inputs": [],
      "name": "getLastInvariant",
      "outputs": [
        {
          "internalType": "uint256",
          "name": "",
          "type": "uint256"
        }
      ],
      "stateMutability": "pure",
      "type": "function"
    },
    {
      "inputs": [],
      "name": "getManagementSwapFeePercentage",
      "outputs": [
        {
          "internalType": "uint256",
          "name": "",
          "type": "uint256"
        }
      ],
      "stateMutability": "view",
      "type": "function"
    },
    {
      "inputs": [],
      "name": "getNormalizedWeights",
      "outputs": [
        {
          "internalType": "uint256[]",
          "name": "",
          "type": "uint256[]"
        }
      ],
      "stateMutability": "view",
      "type": "function"
    },
    {
      "inputs": [],
      "name": "getOwner",
      "outputs": [
        {
          "internalType": "address",
          "name": "",
          "type": "address"
        }
      ],
      "stateMutability": "view",
      "type": "function"
    },
    {
      "inputs": [],
      "name": "getPausedState",
      "outputs": [
        {
          "internalType": "bool",
          "name": "paused",
          "type": "bool"
        },
        {
          "internalType": "uint256",
          "name": "pauseWindowEndTime",
          "type": "uint256"
        },
        {
          "internalType": "uint256",
          "name": "bufferPeriodEndTime",
          "type": "uint256"
        }
      ],
      "stateMutability": "view",
      "type": "function"
    },
    {
      "inputs": [],
      "name": "getPoolId",
      "outputs": [
        {
          "internalType": "bytes32",
          "name": "",
          "type": "bytes32"
        }
      ],
      "stateMutability": "view",
      "type": "function"
    },
    {
      "inputs": [],
      "name": "getRate",
      "outputs": [
        {
          "internalType": "uint256",
          "name": "",
          "type": "uint256"
        }
      ],
      "stateMutability": "view",
      "type": "function"
    },
    {
      "inputs": [],
      "name": "getScalingFactors",
      "outputs": [
        {
          "internalType": "uint256[]",
          "name": "",
          "type": "uint256[]"
        }
      ],
      "stateMutability": "view",
      "type": "function"
    },
    {
      "inputs": [],
      "name": "getSwapEnabled",
      "outputs": [
        {
          "internalType": "bool",
          "name": "",
          "type": "bool"
        }
      ],
      "stateMutability": "view",
      "type": "function"
    },
    {
      "inputs": [],
      "name": "getSwapFeePercentage",
      "outputs": [
        {
          "internalType": "uint256",
          "name": "",
          "type": "uint256"
        }
      ],
      "stateMutability": "view",
      "type": "function"
    },
    {
      "inputs": [],
      "name": "getVault",
      "outputs": [
        {
          "internalType": "contract IVault",
          "name": "",
          "type": "address"
        }
      ],
      "stateMutability": "view",
      "type": "function"
    },
    {
      "inputs": [
        {
          "internalType": "address",
          "name": "spender",
          "type": "address"
        },
        {
          "internalType": "uint256",
          "name": "addedValue",
          "type": "uint256"
        }
      ],
      "name": "increaseAllowance",
      "outputs": [
        {
          "internalType": "bool",
          "name": "",
          "type": "bool"
        }
      ],
      "stateMutability": "nonpayable",
      "type": "function"
    },
    {
      "inputs": [],
      "name": "name",
      "outputs": [
        {
          "internalType": "string",
          "name": "",
          "type": "string"
        }
      ],
      "stateMutability": "view",
      "type": "function"
    },
    {
      "inputs": [
        {
          "internalType": "address",
          "name": "owner",
          "type": "address"
        }
      ],
      "name": "nonces",
      "outputs": [
        {
          "internalType": "uint256",
          "name": "",
          "type": "uint256"
        }
      ],
      "stateMutability": "view",
      "type": "function"
    },
    {
      "inputs": [
        {
          "internalType": "bytes32",
          "name": "poolId",
          "type": "bytes32"
        },
        {
          "internalType": "address",
          "name": "sender",
          "type": "address"
        },
        {
          "internalType": "address",
          "name": "recipient",
          "type": "address"
        },
        {
          "internalType": "uint256[]",
          "name": "balances",
          "type": "uint256[]"
        },
        {
          "internalType": "uint256",
          "name": "lastChangeBlock",
          "type": "uint256"
        },
        {
          "internalType": "uint256",
          "name": "protocolSwapFeePercentage",
          "type": "uint256"
        },
        {
          "internalType": "bytes",
          "name": "userData",
          "type": "bytes"
        }
      ],
      "name": "onExitPool",
      "outputs": [
        {
          "internalType": "uint256[]",
          "name": "",
          "type": "uint256[]"
        },
        {
          "internalType": "uint256[]",
          "name": "",
          "type": "uint256[]"
        }
      ],
      "stateMutability": "nonpayable",
      "type": "function"
    },
    {
      "inputs": [
        {
          "internalType": "bytes32",
          "name": "poolId",
          "type": "bytes32"
        },
        {
          "internalType": "address",
          "name": "sender",
          "type": "address"
        },
        {
          "internalType": "address",
          "name": "recipient",
          "type": "address"
        },
        {
          "internalType": "uint256[]",
          "name": "balances",
          "type": "uint256[]"
        },
        {
          "internalType": "uint256",
          "name": "lastChangeBlock",
          "type": "uint256"
        },
        {
          "internalType": "uint256",
          "name": "protocolSwapFeePercentage",
          "type": "uint256"
        },
        {
          "internalType": "bytes",
          "name": "userData",
          "type": "bytes"
        }
      ],
      "name": "onJoinPool",
      "outputs": [
        {
          "internalType": "uint256[]",
          "name": "",
          "type": "uint256[]"
        },
        {
          "internalType": "uint256[]",
          "name": "",
          "type": "uint256[]"
        }
      ],
      "stateMutability": "nonpayable",
      "type": "function"
    },
    {
      "inputs": [
        {
          "components": [
            {
              "internalType": "enum IVault.SwapKind",
              "name": "kind",
              "type": "uint8"
            },
            {
              "internalType": "contract IERC20",
              "name": "tokenIn",
              "type": "address"
            },
            {
              "internalType": "contract IERC20",
              "name": "tokenOut",
              "type": "address"
            },
            {
              "internalType": "uint256",
              "name": "amount",
              "type": "uint256"
            },
            {
              "internalType": "bytes32",
              "name": "poolId",
              "type": "bytes32"
            },
            {
              "internalType": "uint256",
              "name": "lastChangeBlock",
              "type": "uint256"
            },
            {
              "internalType": "address",
              "name": "from",
              "type": "address"
            },
            {
              "internalType": "address",
              "name": "to",
              "type": "address"
            },
            {
              "internalType": "bytes",
              "name": "userData",
              "type": "bytes"
            }
          ],
          "internalType": "struct IPoolSwapStructs.SwapRequest",
          "name": "swapRequest",
          "type": "tuple"
        },
        {
          "internalType": "uint256",
          "name": "currentBalanceTokenIn",
          "type": "uint256"
        },
        {
          "internalType": "uint256",
          "name": "currentBalanceTokenOut",
          "type": "uint256"
        }
      ],
      "name": "onSwap",
      "outputs": [
        {
          "internalType": "uint256",
          "name": "",
          "type": "uint256"
        }
      ],
      "stateMutability": "nonpayable",
      "type": "function"
    },
    {
      "inputs": [
        {
          "internalType": "address",
          "name": "owner",
          "type": "address"
        },
        {
          "internalType": "address",
          "name": "spender",
          "type": "address"
        },
        {
          "internalType": "uint256",
          "name": "value",
          "type": "uint256"
        },
        {
          "internalType": "uint256",
          "name": "deadline",
          "type": "uint256"
        },
        {
          "internalType": "uint8",
          "name": "v",
          "type": "uint8"
        },
        {
          "internalType": "bytes32",
          "name": "r",
          "type": "bytes32"
        },
        {
          "internalType": "bytes32",
          "name": "s",
          "type": "bytes32"
        }
      ],
      "name": "permit",
      "outputs": [],
      "stateMutability": "nonpayable",
      "type": "function"
    },
    {
      "inputs": [
        {
          "internalType": "bytes32",
          "name": "poolId",
          "type": "bytes32"
        },
        {
          "internalType": "address",
          "name": "sender",
          "type": "address"
        },
        {
          "internalType": "address",
          "name": "recipient",
          "type": "address"
        },
        {
          "internalType": "uint256[]",
          "name": "balances",
          "type": "uint256[]"
        },
        {
          "internalType": "uint256",
          "name": "lastChangeBlock",
          "type": "uint256"
        },
        {
          "internalType": "uint256",
          "name": "protocolSwapFeePercentage",
          "type": "uint256"
        },
        {
          "internalType": "bytes",
          "name": "userData",
          "type": "bytes"
        }
      ],
      "name": "queryExit",
      "outputs": [
        {
          "internalType": "uint256",
          "name": "bptIn",
          "type": "uint256"
        },
        {
          "internalType": "uint256[]",
          "name": "amountsOut",
          "type": "uint256[]"
        }
      ],
      "stateMutability": "nonpayable",
      "type": "function"
    },
    {
      "inputs": [
        {
          "internalType": "bytes32",
          "name": "poolId",
          "type": "bytes32"
        },
        {
          "internalType": "address",
          "name": "sender",
          "type": "address"
        },
        {
          "internalType": "address",
          "name": "recipient",
          "type": "address"
        },
        {
          "internalType": "uint256[]",
          "name": "balances",
          "type": "uint256[]"
        },
        {
          "internalType": "uint256",
          "name": "lastChangeBlock",
          "type": "uint256"
        },
        {
          "internalType": "uint256",
          "name": "protocolSwapFeePercentage",
          "type": "uint256"
        },
        {
          "internalType": "bytes",
          "name": "userData",
          "type": "bytes"
        }
      ],
      "name": "queryJoin",
      "outputs": [
        {
          "internalType": "uint256",
          "name": "bptOut",
          "type": "uint256"
        },
        {
          "internalType": "uint256[]",
          "name": "amountsIn",
          "type": "uint256[]"
        }
      ],
      "stateMutability": "nonpayable",
      "type": "function"
    },
    {
      "inputs": [
        {
          "internalType": "contract IERC20",
          "name": "token",
          "type": "address"
        },
        {
          "internalType": "bytes",
          "name": "poolConfig",
          "type": "bytes"
        }
      ],
      "name": "setAssetManagerPoolConfig",
      "outputs": [],
      "stateMutability": "nonpayable",
      "type": "function"
    },
    {
      "inputs": [
        {
          "internalType": "bool",
          "name": "paused",
          "type": "bool"
        }
      ],
      "name": "setPaused",
      "outputs": [],
      "stateMutability": "nonpayable",
      "type": "function"
    },
    {
      "inputs": [
        {
          "internalType": "bool",
          "name": "swapEnabled",
          "type": "bool"
        }
      ],
      "name": "setSwapEnabled",
      "outputs": [],
      "stateMutability": "nonpayable",
      "type": "function"
    },
    {
      "inputs": [
        {
          "internalType": "uint256",
          "name": "swapFeePercentage",
          "type": "uint256"
        }
      ],
      "name": "setSwapFeePercentage",
      "outputs": [],
      "stateMutability": "nonpayable",
      "type": "function"
    },
    {
      "inputs": [],
      "name": "symbol",
      "outputs": [
        {
          "internalType": "string",
          "name": "",
          "type": "string"
        }
      ],
      "stateMutability": "view",
      "type": "function"
    },
    {
      "inputs": [],
      "name": "totalSupply",
      "outputs": [
        {
          "internalType": "uint256",
          "name": "",
          "type": "uint256"
        }
      ],
      "stateMutability": "view",
      "type": "function"
    },
    {
      "inputs": [
        {
          "internalType": "address",
          "name": "recipient",
          "type": "address"
        },
        {
          "internalType": "uint256",
          "name": "amount",
          "type": "uint256"
        }
      ],
      "name": "transfer",
      "outputs": [
        {
          "internalType": "bool",
          "name": "",
          "type": "bool"
        }
      ],
      "stateMutability": "nonpayable",
      "type": "function"
    },
    {
      "inputs": [
        {
          "internalType": "address",
          "name": "sender",
          "type": "address"
        },
        {
          "internalType": "address",
          "name": "recipient",
          "type": "address"
        },
        {
          "internalType": "uint256",
          "name": "amount",
          "type": "uint256"
        }
      ],
      "name": "transferFrom",
      "outputs": [
        {
          "internalType": "bool",
          "name": "",
          "type": "bool"
        }
      ],
      "stateMutability": "nonpayable",
      "type": "function"
    },
    {
      "inputs": [
        {
          "internalType": "uint256",
          "name": "startTime",
          "type": "uint256"
        },
        {
          "internalType": "uint256",
          "name": "endTime",
          "type": "uint256"
        },
        {
          "internalType": "uint256[]",
          "name": "endWeights",
          "type": "uint256[]"
        }
      ],
      "name": "updateWeightsGradually",
      "outputs": [],
      "stateMutability": "nonpayable",
      "type": "function"
    },
    {
      "inputs": [
        {
          "internalType": "address",
          "name": "recipient",
          "type": "address"
        }
      ],
      "name": "withdrawCollectedManagementFees",
      "outputs": [],
      "stateMutability": "nonpayable",
      "type": "function"
    }
  ],
  "bytecode": "0x6101e06040527f6e71edae12b1b97f4d1f60370fef10105fa2faae0126114a169c64845d6126c9610120523480156200003757600080fd5b5060405162007bbe38038062007bbe8339810160408190526200005a9162001079565b805160208201516040830151606084015160a085015160c086015160e0870151610100880151610120890151855189906002146200009a5760016200009d565b60025b8989898989898989828289898d8280604051806040016040528060018152602001603160f81b81525085858a6060336001600160a01b0316901b60001b806080818152505050806001600160a01b031660a0816001600160a01b0316815250505081600390805190602001906200011692919062000d87565b5080516200012c90600490602084019062000d87565b50506005805460ff1916601217905550815160209283012060c052805191012060e052507f8b73c3c69bb8fe3d512ecc4cf759cc79239f7b179b0ffacaa9a75d522b39400f610100526001600160a01b031661014052506200019990506276a7008311156101946200049e565b620001ad62278d008211156101956200049e565b6000620001bb83426200120f565b6101608190529050620001cf82826200120f565b6101805250508651620001e991506002111560c86200049e565b620001fb60328751111560c96200049e565b6200021186620004b360201b620015631760201c565b6200021c84620004bf565b6040516309b2760f60e01b81526000906001600160a01b038c16906309b2760f906200024d908d906004016200122a565b602060405180830381600087803b1580156200026857600080fd5b505af11580156200027d573d6000803e3d6000fd5b505050506040513d601f19601f82011682018060405250810190620002a3919062001253565b604051633354e3e960e11b81529091506001600160a01b038c16906366a9c7d290620002d89084908b908b906004016200126d565b600060405180830381600087803b158015620002f357600080fd5b505af115801562000308573d6000803e3d6000fd5b50505050806101a0818152505050505050505050505050505050505050505050506001600a81905550600081606001515190506200035d818360800151518460a00151516200054560201b6200156d1760201c565b6200038d620003878260016200037260085490565b6200056560201b62001585179092919060201c565b62000578565b620003a5816200039c6200059d565b1460c96200049e565b608082015160608301514291620003c291839182918190620005c8565b60005b8281101562000420576200040c84606001518281518110620003eb57620003eb62001309565b60200260200101516000600c6200082e60201b62001594179092919060201c565b5062000418816200131f565b9050620003c5565b50610140830151620004329062000916565b62000456670de0b6b3a764000084610160015111156101526200049e60201b60201c565b610160830180516101c052516040519081527feba99e9e36df79031493efd8473cfce5475d3a135878665490df8b01406932109060200160405180910390a15050506200147b565b81620004af57620004af8162000973565b5050565b80620004af81620009c6565b620004d464e8d4a5100082101560cb6200049e565b620004ec67016345785d8a000082111560ca6200049e565b6200050b8160c060085462000a6460201b6200167b179092919060201c565b6008556040518181527fa9ba3ffe0b6c366b81232caab38605a0699ad5398d6cce76f91ee809e322dafc906020015b60405180910390a150565b6200056082841480156200055857508183145b60676200049e565b505050565b81811b607f821b198416175b9392505050565b6200059781600060085462000a7960201b62001690179092919060201c565b60085550565b6000620005c36001620005af60085490565b62000a9460201b620016ab1790919060201c565b905090565b600080805b8451811015620007b4576000858281518110620005ee57620005ee62001309565b6020026020010151905062000616662386f26fc1000082101561012e6200049e60201b60201c565b60008583815181106200062d576200062d62001309565b6020026020010151905062000763620006cd826001600160a01b031663313ce5676040518163ffffffff1660e01b815260040160206040518083038186803b1580156200067957600080fd5b505afa1580156200068e573d6000803e3d6000fd5b505050506040513d601f19601f82011682018060405250810190620006b491906200133d565b60ff16601262000aa160201b620016b21790919060201c565b60606200074e620006e98662000afe60201b620017071760201c565b604062000739620007218f8b8151811062000708576200070862001309565b602002602001015162000b4160201b6200172b1760201c565b60008c62000a6460201b6200167b179092919060201c565b62000b7360201b6200174a179092919060201c565b62000b8560201b6200175c179092919060201c565b6001600160a01b0382166000908152600b60209081526040909120919091556200079a90869084906200176b62000b94821b17901c565b945050508080620007ab906200131f565b915050620005cd565b50620007cd670de0b6b3a764000083146101346200049e565b620007e662000387876028620007398b60088260085490565b7f0f3631f9dab08169d1db21c6dc5f32536fb2b0a6b9bb5330d71c52132f968be0878787876040516200081d94939291906200139f565b60405180910390a150505050505050565b6001600160a01b038216600090815260028401602052604081205480620008e05784546040805180820182526001600160a01b038781168252602080830188815260008681526001808d0190935294909420925183546001600160a01b0319169216919091178255915190820155620008a99082906200120f565b8655620008b88160016200120f565b6001600160a01b03861660009081526002880160205260409020555060019150620005719050565b82856001016000600184620008f69190620013df565b815260200190815260200160002060010181905550600091505062000571565b62000940620003878260006200092b60085490565b62000be660201b620017b9179092919060201c565b60405181151581527f5a9e84f78f7957cb4ed7478eb0fcad35ee4ecbe2e0f298420b28a3955392573f906020016200053a565b62461bcd60e51b6000908152602060045260076024526642414c23000030600a808404818106603090810160081b95839006959095019082900491820690940160101b939093010160c81b604452606490fd5b600281511015620009d45750565b600081600081518110620009ec57620009ec62001309565b602002602001015190506000600190505b82518110156200056057600083828151811062000a1e5762000a1e62001309565b6020026020010151905062000a4f816001600160a01b0316846001600160a01b03161060656200049e60201b60201c565b915062000a5c816200131f565b9050620009fd565b6001600160401b03811b1992909216911b1790565b6001600160c01b03828116821b90821b198416179392505050565b81811c607f165b92915050565b60008282111562000ae85760405162461bcd60e51b815260206004820152600c60248201526b5355425f4f564552464c4f5760a01b60448201526064015b60405180910390fd5b600062000af68385620013df565b949350505050565b600062000a9b670de0b6b3a764000062000b2d63ffffffff80168562000c0f60201b620017e01790919060201c565b62000cbe60201b6200187f1790919060201c565b600062000a9b670de0b6b3a764000062000b2d6001600160401b0380168562000c0f60201b620017e01790919060201c565b63ffffffff811b1992909216911b1790565b601f811b1992909216911b1790565b60008062000ba383856200120f565b905083811015620005715760405162461bcd60e51b815260206004820152600c60248201526b4144445f4f564552464c4f5760a01b604482015260640162000adf565b60006001821b198416828462000bfe57600062000c01565b60015b60ff16901b17949350505050565b60008062000c1e8385620013f9565b905083158062000c3857508262000c3685836200141b565b145b62000c755760405162461bcd60e51b815260206004820152600c60248201526b4d554c5f4f564552464c4f5760a01b604482015260640162000adf565b8062000c8657600091505062000a9b565b670de0b6b3a764000062000c9c600183620013df565b62000ca891906200141b565b62000cb59060016200120f565b91505062000a9b565b60008162000cff5760405162461bcd60e51b815260206004820152600d60248201526c2d22a927afa224ab24a9a4a7a760991b604482015260640162000adf565b8262000d0e5750600062000a9b565b600062000d24670de0b6b3a764000085620013f9565b9050670de0b6b3a764000062000d3b85836200141b565b1462000d795760405162461bcd60e51b815260206004820152600c60248201526b11125597d25395115493905360a21b604482015260640162000adf565b8262000c9c600183620013df565b82805462000d95906200143e565b90600052602060002090601f01602090048101928262000db9576000855562000e04565b82601f1062000dd457805160ff191683800117855562000e04565b8280016001018555821562000e04579182015b8281111562000e0457825182559160200191906001019062000de7565b5062000e1292915062000e16565b5090565b5b8082111562000e12576000815560010162000e17565b634e487b7160e01b600052604160045260246000fd5b60405161018081016001600160401b038111828210171562000e695762000e6962000e2d565b60405290565b604051601f8201601f191681016001600160401b038111828210171562000e9a5762000e9a62000e2d565b604052919050565b6001600160a01b038116811462000eb857600080fd5b50565b805162000ec88162000ea2565b919050565b600082601f83011262000edf57600080fd5b81516001600160401b0381111562000efb5762000efb62000e2d565b602062000f11601f8301601f1916820162000e6f565b828152858284870101111562000f2657600080fd5b60005b8381101562000f4657858101830151828201840152820162000f29565b8381111562000f585760008385840101525b5095945050505050565b60006001600160401b0382111562000f7e5762000f7e62000e2d565b5060051b60200190565b600082601f83011262000f9a57600080fd5b8151602062000fb362000fad8362000f62565b62000e6f565b82815260059290921b8401810191818101908684111562000fd357600080fd5b8286015b8481101562000ffb57805162000fed8162000ea2565b835291830191830162000fd7565b509695505050505050565b600082601f8301126200101857600080fd5b815160206200102b62000fad8362000f62565b82815260059290921b840181019181810190868411156200104b57600080fd5b8286015b8481101562000ffb57805183529183019183016200104f565b8051801515811462000ec857600080fd5b6000602082840312156200108c57600080fd5b81516001600160401b0380821115620010a457600080fd5b908301906101808286031215620010ba57600080fd5b620010c462000e43565b620010cf8362000ebb565b8152602083015182811115620010e457600080fd5b620010f28782860162000ecd565b6020830152506040830151828111156200110b57600080fd5b620011198782860162000ecd565b6040830152506060830151828111156200113257600080fd5b620011408782860162000f88565b6060830152506080830151828111156200115957600080fd5b620011678782860162001006565b60808301525060a0830151828111156200118057600080fd5b6200118e8782860162000f88565b60a08301525060c083015160c082015260e083015160e0820152610100915081830151828201526101209150620011c782840162000ebb565b828201526101409150620011dd82840162001068565b9181019190915261016091820151918101919091529392505050565b634e487b7160e01b600052601160045260246000fd5b60008219821115620012255762001225620011f9565b500190565b60208101600383106200124d57634e487b7160e01b600052602160045260246000fd5b91905290565b6000602082840312156200126657600080fd5b5051919050565b6000606082018583526020606081850152818651808452608086019150828801935060005b81811015620012b95784516001600160a01b03168352938301939183019160010162001292565b50508481036040860152855180825290820192508186019060005b81811015620012fb5782516001600160a01b031685529383019391830191600101620012d4565b509298975050505050505050565b634e487b7160e01b600052603260045260246000fd5b6000600019821415620013365762001336620011f9565b5060010190565b6000602082840312156200135057600080fd5b815160ff811681146200057157600080fd5b600081518084526020808501945080840160005b83811015620013945781518752958201959082019060010162001376565b509495945050505050565b848152836020820152608060408201526000620013c0608083018562001362565b8281036060840152620013d4818562001362565b979650505050505050565b600082821015620013f457620013f4620011f9565b500390565b6000816000190483118215151615620014165762001416620011f9565b500290565b6000826200143957634e487b7160e01b600052601260045260246000fd5b500490565b600181811c908216806200145357607f821691505b602082108114156200147557634e487b7160e01b600052602260045260246000fd5b50919050565b60805160a05160c05160e05161010051610120516101405161016051610180516101a0516101c0516165f8620015c6600039600081816105130152613932015260008181610355015281816109cb01528181610b3901528181610ce801528181610daf015281816110f40152818161137a01528181611ac001528181611f2f015281816122c301526129840152600081816106d501528181611a0a0152611a7f0152600081816106b201526119d70152600081816104ed015281816109fc01528181610b0701528181610ca801528181610de30152818161112701528181611351015281816114ba01528181611af401528181611f63015281816122e80152818161295d0152612afb0152600061120701526000611db001526000611df201526000611dd10152600081816104b301528181612ea80152612ef301526000610f4d01526165f86000f3fe608060405234801561001057600080fd5b50600436106102535760003560e01c806370a08231116101465780639b02cdde116100c3578063c0ff1a1511610087578063c0ff1a1514610588578063d505accf14610590578063d5c096c4146105a3578063dd62ed3e146105b6578063e01af92c146105c9578063f89f27ed146105dc57600080fd5b80639b02cdde1461053f5780639d2c110c14610547578063a457c2d71461055a578063a9059cbb1461056d578063aaabadc51461058057600080fd5b806387ec68171161010a57806387ec68171461049e578063893d20e8146104b15780638d928af8146104eb57806390605f3a1461051157806395d89b411461053757600080fd5b806370a082311461040157806374f3b0091461042a5780637beed2201461044b5780637ecebe0014610462578063851c1bb31461048b57600080fd5b806338e9922e116101d457806350dd6ed91161019857806350dd6ed9146103a757806355c67628146103ba5780635b77155e146103c55780636028bfd4146103d8578063679aefce146103f957600080fd5b806338e9922e1461034057806338fff2d01461035357806339509351146103795780633e5692051461038c57806347bc4d921461039f57600080fd5b80631dd746ea1161021b5780631dd746ea146102e557806323b872dd146102fa578063313ce5671461030d57806332f144f5146103225780633644e5151461033857600080fd5b806306fdde0314610258578063095ea7b31461027657806316c38b3c1461029957806318160ddd146102ae5780631c0de051146102c0575b600080fd5b6102606105e4565b60405161026d91906157a8565b60405180910390f35b6102896102843660046157db565b610676565b604051901515815260200161026d565b6102ac6102a7366004615815565b61068d565b005b6002545b60405190815260200161026d565b6102c86106a1565b60408051931515845260208401929092529082015260600161026d565b6102ed6106fa565b60405161026d919061586d565b610289610308366004615880565b610709565b60055460405160ff909116815260200161026d565b61032a6107d1565b60405161026d9291906158c1565b6102b261091c565b6102ac61034e366004615917565b610926565b7f00000000000000000000000000000000000000000000000000000000000000006102b2565b6102896103873660046157db565b61093f565b6102ac61039a366004615a2d565b610976565b610289610aa3565b6102ac6103b5366004615aeb565b610abd565b60085460c01c6102b2565b6102ac6103d3366004615b3a565b610adb565b6103eb6103e6366004615b57565b610c3a565b60405161026d929190615bfc565b6102b2610c71565b6102b261040f366004615b3a565b6001600160a01b031660009081526020819052604090205490565b61043d610438366004615b57565b610c9f565b60405161026d929190615c15565b610453610d76565b60405161026d93929190615c3a565b6102b2610470366004615b3a565b6001600160a01b031660009081526006602052604090205490565b6102b2610499366004615c59565b610f49565b6103eb6104ac366004615b57565b610fae565b7f00000000000000000000000000000000000000000000000000000000000000005b6040516001600160a01b03909116815260200161026d565b7f00000000000000000000000000000000000000000000000000000000000000006104d3565b7f00000000000000000000000000000000000000000000000000000000000000006102b2565b610260610fd4565b6102b2610fe3565b6102b2610555366004615c92565b610ff3565b6102896105683660046157db565b61108e565b61028961057b3660046157db565b6110ce565b6104d36110db565b6102b26110e5565b6102ac61059e366004615d96565b6111d8565b61043d6105b1366004615b57565b611348565b6102b26105c4366004615e07565b6114b6565b6102ac6105d7366004615815565b61152e565b6102ed611559565b6060600380546105f390615e40565b80601f016020809104026020016040519081016040528092919081815260200182805461061f90615e40565b801561066c5780601f106106415761010080835404028352916020019161066c565b820191906000526020600020905b81548152906001019060200180831161064f57829003601f168201915b5050505050905090565b600061068333848461193c565b5060015b92915050565b61069561199e565b61069e816119cc565b50565b60008060006106ae611a7b565b15937f000000000000000000000000000000000000000000000000000000000000000093507f000000000000000000000000000000000000000000000000000000000000000092509050565b6060610704611ab1565b905090565b60008061071685336114b6565b9050336001600160a01b038616148061072f5750828110155b6107805760405162461bcd60e51b815260206004820181905260248201527f45524332305f5452414e534645525f455843454544535f414c4c4f57414e434560448201526064015b60405180910390fd5b61078b858585611c44565b336001600160a01b038616148015906107ab57506001600160801b038114155b156107c4576107c485336107bf8685615e91565b61193c565b60019150505b9392505050565b6060806107dc611d19565b6001600160401b038111156107f3576107f3615930565b60405190808252806020026020018201604052801561081c578160200160208202803683370190505b509150610827611d19565b6001600160401b0381111561083e5761083e615930565b604051908082528060200260200182016040528015610867578160200160208202803683370190505b50905060005b610875611d19565b811015610906576000818152600d60205260409020805460019091015484516001600160a01b039092169182908690859081106108b4576108b4615ea8565b60200260200101906001600160a01b031690816001600160a01b031681525050808484815181106108e7576108e7615ea8565b6020026020010181815250505050806108ff90615ebe565b905061086d565b5061091881610913611ab1565b611d31565b9091565b6000610704611dac565b61092e61199e565b610936611e52565b61069e81611e67565b3360008181526001602090815260408083206001600160a01b038716845290915281205490916106839185906107bf908690615ed9565b61097e61199e565b610986611e52565b61098e611ed5565b6109a0610999611d19565b8251611eee565b426109ab8185611efb565b93506109bc83851115610146611f12565b604051631f29a8cd60e31b81527f000000000000000000000000000000000000000000000000000000000000000060048201526000906001600160a01b037f0000000000000000000000000000000000000000000000000000000000000000169063f94d46689060240160006040518083038186803b158015610a3e57600080fd5b505afa158015610a52573d6000803e3d6000fd5b505050506040513d6000823e601f3d908101601f19168201604052610a7a9190810190615f4c565b50509050610a928585610a8b611f20565b86856120c7565b5050610a9e6001600a55565b505050565b60006107046000610ab360085490565b6001911c81161490565b610ac561199e565b610acd611e52565b610ad782826122bf565b5050565b610ae361199e565b610aeb611e52565b610af3611ed5565b600080610afe6107d1565b91509150610b297f000000000000000000000000000000000000000000000000000000000000000090565b6001600160a01b0316638bdb39137f000000000000000000000000000000000000000000000000000000000000000030866040518060800160405280610b6c8990565b81526020018781526020016003604051602001610b89919061602f565b6040516020818303038152906040528152602001600015158152506040518563ffffffff1660e01b8152600401610bc39493929190616057565b600060405180830381600087803b158015610bdd57600080fd5b505af1158015610bf1573d6000803e3d6000fd5b505050507f5cf8dd4ddeaded21c5e3dc4043073fa7659089e0d11d8480344663008dff060f8282604051610c269291906158c1565b60405180910390a1505061069e6001600a55565b60006060610c508651610c4b611d19565b611eee565b610c65898989898989896123f5611d316124ce565b97509795505050505050565b6000610704610c7f60025490565b610c87611d19565b610c8f6110e5565b610c999190616116565b906125f0565b60608088610ce37f00000000000000000000000000000000000000000000000000000000000000005b6001600160a01b0316336001600160a01b03161460cd611f12565b610d127f00000000000000000000000000000000000000000000000000000000000000005b82146101f4611f12565b6000610d1c611ab1565b9050610d2888826126ab565b6000806000610d3d8e8e8e8e8e8e8a8f6123f5565b925092509250610d4d8d84612726565b610d578285611d31565b610d618185611d31565b909550935050505b5097509795505050505050565b60008060606000610d8660085490565b9050600881901c63ffffffff169350602881901c63ffffffff16604051631f29a8cd60e31b81527f000000000000000000000000000000000000000000000000000000000000000060048201529093506000906001600160a01b037f0000000000000000000000000000000000000000000000000000000000000000169063f94d46689060240160006040518083038186803b158015610e2557600080fd5b505afa158015610e39573d6000803e3d6000fd5b505050506040513d6000823e601f3d908101601f19168201604052610e619190810190615f4c565b50508051909150806001600160401b03811115610e8057610e80615930565b604051908082528060200260200182016040528015610ea9578160200160208202803683370190505b50935060005b81811015610f4057610f11610f0c6040600b6000878681518110610ed557610ed5615ea8565b60200260200101516001600160a01b03166001600160a01b031681526020019081526020016000205461273090919063ffffffff16565b61273a565b858281518110610f2357610f23615ea8565b602090810291909101015280610f3881615ebe565b915050610eaf565b50505050909192565b60007f000000000000000000000000000000000000000000000000000000000000000082604051602001610f919291909182526001600160e01b031916602082015260240190565b604051602081830303815290604052805190602001209050919050565b60006060610fbf8651610c4b611d19565b610c658989898989898961275861280c6124ce565b6060600480546105f390615e40565b6000610ff0610153612887565b90565b6000806110128560200151610135600c6128da9092919063ffffffff16565b9050600061103661102f8361102a896020015161292f565b612942565b86906116b2565b905060006110568760400151610135600c6128da9092919063ffffffff16565b9050600061107561106e8361102a8b6040015161292f565b87906116b2565b905061108288848361294e565b98975050505050505050565b60008061109b33856114b6565b90508083106110b5576110b03385600061193c565b6110c4565b6110c433856107bf8685615e91565b5060019392505050565b6000610683338484611c44565b6000610704612af7565b604051631f29a8cd60e31b81527f0000000000000000000000000000000000000000000000000000000000000000600482015260009081906001600160a01b037f0000000000000000000000000000000000000000000000000000000000000000169063f94d46689060240160006040518083038186803b15801561116957600080fd5b505afa15801561117d573d6000803e3d6000fd5b505050506040513d6000823e601f3d908101601f191682016040526111a59190810190615f4c565b509150506111ba816111b5611ab1565b6126ab565b60006111c4612b8a565b5090506111d18183612c24565b9250505090565b6111e68442111560d1611f12565b6001600160a01b0387811660008181526006602090815260408083205481517f00000000000000000000000000000000000000000000000000000000000000008185015280830195909552948b166060850152608084018a905260a0840185905260c08085018a90528151808603909101815260e0909401905282519201919091209061127282612cde565b6040805160008082526020820180845284905260ff8a169282019290925260608101889052608081018790529192509060019060a0016020604051602081039080840390855afa1580156112ca573d6000803e3d6000fd5b5050604051601f190151915061130c90506001600160a01b0382161580159061130457508b6001600160a01b0316826001600160a01b0316145b6101f8611f12565b611317846001615ed9565b6001600160a01b038c1660009081526006602052604090205561133b8b8b8b61193c565b5050505050505050505050565b606080886113757f0000000000000000000000000000000000000000000000000000000000000000610cc8565b61139e7f0000000000000000000000000000000000000000000000000000000000000000610d08565b60006113a8611ab1565b90506113b360025490565b611466576000806113c78d8d8d868b612d0d565b915091506113e26113d8620f424090565b83101560cc611f12565b6113f56000620f4240612daf565b612daf565b6114068b6113f0620f424085615e91565b611410818461280c565b80611419611d19565b6001600160401b0381111561143057611430615930565b604051908082528060200260200182016040528015611459578160200160208202803683370190505b5095509550505050610d69565b61147088826126ab565b60008060006114858e8e8e8e8e8e8a8f612758565b9250925092506114958c84612daf565b61149f828561280c565b6114a98185611d31565b9095509350610d69915050565b60007f00000000000000000000000000000000000000000000000000000000000000006001600160a01b0316826001600160a01b0316141561150057506001600160801b03610687565b6001600160a01b038084166000908152600160209081526040808320938616835292905220545b9050610687565b61153661199e565b61153e611e52565b611546611ed5565b61154f81612db9565b61069e6001600a55565b6060610704611f20565b80610ad781612e04565b610a9e828414801561157e57508183145b6067611f12565b607f811b1992909216911b1790565b6001600160a01b0382166000908152600284016020526040812054806116405784546040805180820182526001600160a01b038781168252602080830188815260008681526001808d0190935294909420925183546001600160a01b031916921691909117825591519082015561160c908290615ed9565b8655611619816001615ed9565b6001600160a01b038616600090815260028801602052604090205550600191506107ca9050565b828560010160006001846116549190615e91565b81526020019081526020016000206001018190555060009150506107ca565b509392505050565b6001600160401b03811b1992909216911b1790565b6001600160c01b03828116821b90821b198416179392505050565b1c607f1690565b6000828211156116f35760405162461bcd60e51b815260206004820152600c60248201526b5355425f4f564552464c4f5760a01b6044820152606401610777565b60006116ff8385615e91565b949350505050565b6000610687670de0b6b3a76400006117258463ffffffff6117e08116565b9061187f565b6000610687670de0b6b3a7640000611725846001600160401b036117e0565b63ffffffff811b1992909216911b1790565b601f811b1992909216911b1790565b6000806117788385615ed9565b9050838110156107ca5760405162461bcd60e51b815260206004820152600c60248201526b4144445f4f564552464c4f5760a01b6044820152606401610777565b60006001821b19841682846117cf5760006117d2565b60015b60ff16901b17949350505050565b6000806117ed8385616116565b9050831580611804575082611802858361614b565b145b61183f5760405162461bcd60e51b815260206004820152600c60248201526b4d554c5f4f564552464c4f5760a01b6044820152606401610777565b8061184e576000915050610687565b670de0b6b3a7640000611862600183615e91565b61186c919061614b565b611877906001615ed9565b915050610687565b6000816118be5760405162461bcd60e51b815260206004820152600d60248201526c2d22a927afa224ab24a9a4a7a760991b6044820152606401610777565b826118cb57506000610687565b60006118df670de0b6b3a764000085616116565b9050670de0b6b3a76400006118f4858361614b565b146119305760405162461bcd60e51b815260206004820152600c60248201526b11125597d25395115493905360a21b6044820152606401610777565b82611862600183615e91565b6001600160a01b0383811660008181526001602090815260408083209487168084529482529182902085905590518481527f8c5be1e5ebec7d5bd14f71427d1e84f3dd0314c0f7b2291e5b200ac8c7c3b92591015b60405180910390a3505050565b60006119b56000356001600160e01b031916610f49565b905061069e6119c48233612e8f565b610191611f12565b8015611a0557611a007f00000000000000000000000000000000000000000000000000000000000000004210610193611f12565b611a33565b611a337f000000000000000000000000000000000000000000000000000000000000000042106101a9611f12565b6007805460ff19168215159081179091556040519081527f9e3a5e37224532dea67b89face185703738a228a6e8a23dee546960180d3be64906020015b60405180910390a150565b60007f000000000000000000000000000000000000000000000000000000000000000042118061070457505060075460ff161590565b604051631f29a8cd60e31b81527f000000000000000000000000000000000000000000000000000000000000000060048201526060906000906001600160a01b037f0000000000000000000000000000000000000000000000000000000000000000169063f94d46689060240160006040518083038186803b158015611b3657600080fd5b505afa158015611b4a573d6000803e3d6000fd5b505050506040513d6000823e601f3d908101601f19168201604052611b729190810190615f4c565b50508051909150806001600160401b03811115611b9157611b91615930565b604051908082528060200260200182016040528015611bba578160200160208202803683370190505b50925060005b81811015611c3e57611c0f600b6000858481518110611be157611be1615ea8565b60200260200101516001600160a01b03166001600160a01b0316815260200190815260200160002054612fa9565b848281518110611c2157611c21615ea8565b602090810291909101015280611c3681615ebe565b915050611bc0565b50505090565b611c5b6001600160a01b0384161515610198611f12565b611c726001600160a01b0383161515610199611f12565b6001600160a01b038316600090815260208190526040902054611c9890826101a0612fd0565b6001600160a01b038085166000908152602081905260408082209390935590841681522054611cc8908290615ed9565b6001600160a01b038381166000818152602081815260409182902094909455518481529092918616917fddf252ad1be2c89b69c2b068fc378daa952ba7f163c4a11628f55a4df523b3ef9101611991565b60006107046001611d2960085490565b901c607f1690565b60005b611d3c611d19565b811015610a9e57611d7f838281518110611d5857611d58615ea8565b6020026020010151838381518110611d7257611d72615ea8565b60200260200101516125f0565b838281518110611d9157611d91615ea8565b6020908102919091010152611da581615ebe565b9050611d34565b60007f00000000000000000000000000000000000000000000000000000000000000007f00000000000000000000000000000000000000000000000000000000000000007f000000000000000000000000000000000000000000000000000000000000000046604080516020810195909552840192909252606083015260808201523060a082015260c00160405160208183030381529060405280519060200120905090565b611e65611e5d611a7b565b610192611f12565b565b611e7a64e8d4a5100082101560cb611f12565b611e9067016345785d8a000082111560ca611f12565b6008546001600160c01b031660c082901b176008556040518181527fa9ba3ffe0b6c366b81232caab38605a0699ad5398d6cce76f91ee809e322dafc90602001611a70565b611ee76002600a541415610190611f12565b6002600a55565b610ad78183146067611f12565b600081831015611f0b57816107ca565b5090919050565b81610ad757610ad781612887565b604051631f29a8cd60e31b81527f000000000000000000000000000000000000000000000000000000000000000060048201526060906000906001600160a01b037f0000000000000000000000000000000000000000000000000000000000000000169063f94d46689060240160006040518083038186803b158015611fa557600080fd5b505afa158015611fb9573d6000803e3d6000fd5b505050506040513d6000823e601f3d908101601f19168201604052611fe19190810190615f4c565b50508051909150806001600160401b0381111561200057612000615930565b604051908082528060200260200182016040528015612029578160200160208202803683370190505b5092506000612036612feb565b905060005b828110156120c0576000600b600086848151811061205b5761205b615ea8565b60200260200101516001600160a01b03166001600160a01b031681526020019081526020016000205490506120908184613069565b8683815181106120a2576120a2615ea8565b602090810291909101015250806120b881615ebe565b91505061203b565b5050505090565b600080805b84518110156122455760008582815181106120e9576120e9615ea8565b60200260200101519050612109662386f26fc1000082101561012e611f12565b600085838151811061211d5761211d615ea8565b6020026020010151905061220b6121a9826001600160a01b031663313ce5676040518163ffffffff1660e01b815260040160206040518083038186803b15801561216657600080fd5b505afa15801561217a573d6000803e3d6000fd5b505050506040513d601f19601f8201168201806040525081019061219e919061615f565b60129060ff166116b2565b60606121fe6121b786611707565b60406121ee6121de8f8b815181106121d1576121d1615ea8565b602002602001015161172b565b67ffffffffffffffff198c161790565b63ffffffff821b191691901b1790565b601f821b191691901b1790565b6001600160a01b0382166000908152600b602052604090205561222e858361176b565b94505050808061223d90615ebe565b9150506120cc565b5061225c670de0b6b3a76400008314610134611f12565b6122796122748760286121ee8b60086121ee60085490565b613117565b7f0f3631f9dab08169d1db21c6dc5f32536fb2b0a6b9bb5330d71c52132f968be0878787876040516122ae949392919061617c565b60405180910390a150505050505050565b60007f0000000000000000000000000000000000000000000000000000000000000000905060007f000000000000000000000000000000000000000000000000000000000000000060405163160bf1c960e31b8152600481018490526001600160a01b038681166024830152919091169063b05f8e489060440160806040518083038186803b15801561235157600080fd5b505afa158015612365573d6000803e3d6000fd5b505050506040513d601f19601f8201168201806040525081019061238991906161ad565b604051630639cdb560e21b81529094506001600160a01b03851693506318e736d492506123bd9150859087906004016161ee565b600060405180830381600087803b1580156123d757600080fd5b505af11580156123eb573d6000803e3d6000fd5b5050505050505050565b60006060806124038861312c565b600061240e856131a9565b905061245b61241b610aa3565b806124375750600182600381111561243557612435616019565b145b806124535750600382600381111561245157612451616019565b145b61014a611f12565b61246f8b8a612468611f20565b89896131bf565b909450925061247c611d19565b6001600160401b0381111561249357612493615930565b6040519080825280602002602001820160405280156124bc578160200160208202803683370190505b50915050985098509895505050505050565b33301461258c576000306001600160a01b03166000366040516124f2929190616207565b6000604051808303816000865af19150503d806000811461252f576040519150601f19603f3d011682016040523d82523d6000602084013e612534565b606091505b50509050806000811461254357fe5b60046000803e6000516001600160e01b0319166343adbafb60e01b811461256e573d6000803e3d6000fd5b506020600460003e604060205260243d03602460403e601c3d016000f35b6000612596611ab1565b90506125a287826126ab565b6000806125b98c8c8c8c8c8c898d8d63ffffffff16565b50915091506125cc81848663ffffffff16565b8051601f1982018390526343adbafb603f1983015260200260231982016044820181fd5b60008161262f5760405162461bcd60e51b815260206004820152600d60248201526c2d22a927afa224ab24a9a4a7a760991b6044820152606401610777565b8261263c57506000610687565b6000612650670de0b6b3a764000085616116565b9050670de0b6b3a7640000612665858361614b565b146126a15760405162461bcd60e51b815260206004820152600c60248201526b11125597d25395115493905360a21b6044820152606401610777565b611877838261614b565b60005b6126b6611d19565b811015610a9e576126f98382815181106126d2576126d2615ea8565b60200260200101518383815181106126ec576126ec615ea8565b6020026020010151613209565b83828151811061270b5761270b615ea8565b602090810291909101015261271f81615ebe565b90506126ae565b610ad7828261327a565b1c63ffffffff1690565b600061068763ffffffff61172584670de0b6b3a76400006117e08416565b6000606080612765611e52565b61276e8861312c565b61279b612779610aa3565b806124535750600361278a866131a9565b600381111561245157612451616019565b6127ae886127a7611f20565b8787613327565b90935091506127bb611d19565b6001600160401b038111156127d2576127d2615930565b6040519080825280602002602001820160405280156127fb578160200160208202803683370190505b509050985098509895505050505050565b60005b612817611d19565b811015610a9e5761285a83828151811061283357612833615ea8565b602002602001015183838151811061284d5761284d615ea8565b602002602001015161187f565b83828151811061286c5761286c615ea8565b602090810291909101015261288081615ebe565b905061280f565b62461bcd60e51b6000908152602060045260076024526642414c23000030600a808404818106603090810160081b95839006959095019082900491820690940160101b939093010160c81b604452606490fd5b6001600160a01b038216600090815260028401602052604081205461290181151584611f12565b61292685612910600184615e91565b6000908152600191820160205260409020015490565b95945050505050565b600061068761293d836133c7565b612fa9565b60006107ca83836125f0565b6000836080015161297f610cc87f000000000000000000000000000000000000000000000000000000000000000090565b6129a87f0000000000000000000000000000000000000000000000000000000000000000610d08565b60006129b7866020015161292f565b905060006129c8876040015161292f565b90506000875160018111156129df576129df616019565b1415612a785760006129f488606001516133f3565b90506000818960600151612a089190615e91565b9050612a218960200151612a1c8387613418565b613424565b60608901829052612a328885613418565b9750612a3e8784613418565b9650612a4e896060015185613418565b60608a01526000612a608a8a8a613436565b9050612a6c8185612942565b96505050505050611673565b612a828683613418565b9550612a8e8582613418565b9450612a9e876060015182613418565b60608801526000612ab0888888613456565b9050612abc818461346e565b90506000612ac98261347a565b90506000612ad78383615e91565b9050612aeb8a60200151612a1c8388613418565b50945061167392505050565b60007f00000000000000000000000000000000000000000000000000000000000000006001600160a01b031663aaabadc56040518163ffffffff1660e01b815260040160206040518083038186803b158015612b5257600080fd5b505afa158015612b66573d6000803e3d6000fd5b505050506040513d601f19601f820116820180604052508101906107049190616217565b60606000612b96611f20565b915060009050600082600081518110612bb157612bb1615ea8565b602002602001015190506000600190505b8351811015612c1e5781848281518110612bde57612bde615ea8565b60200260200101511115612c0c57809250838181518110612c0157612c01615ea8565b602002602001015191505b80612c1681615ebe565b915050612bc2565b50509091565b670de0b6b3a764000060005b8351811015612c9c57612c88612c81858381518110612c5157612c51615ea8565b6020026020010151858481518110612c6b57612c6b615ea8565b60200260200101516134a490919063ffffffff16565b8390613209565b915080612c9481615ebe565b915050612c30565b50600081116106875760405162461bcd60e51b815260206004820152600e60248201526d16915493d7d2539590549250539560921b6044820152606401610777565b6000612ce8611dac565b60405161190160f01b6020820152602281019190915260428101839052606201610f91565b60006060612d19611e52565b6000612d24846131a9565b9050612d456000826003811115612d3d57612d3d616019565b1460ce611f12565b6000612d50856134f3565b9050612d5d610999611d19565b612d6781876126ab565b6000612d71612b8a565b5090506000612d808284612c24565b90506000612d8c611d19565b612d969083616116565b60099290925550945090925050505b9550959350505050565b610ad78282613509565b612dd2612274826000612dcb60085490565b91906117b9565b60405181151581527f5a9e84f78f7957cb4ed7478eb0fcad35ee4ecbe2e0f298420b28a3955392573f90602001611a70565b600281511015612e115750565b600081600081518110612e2657612e26615ea8565b602002602001015190506000600190505b8251811015610a9e576000838281518110612e5457612e54615ea8565b60200260200101519050612e7d816001600160a01b0316846001600160a01b0316106065611f12565b9150612e8881615ebe565b9050612e37565b600073ba1ba1ba1ba1ba1ba1ba1ba1ba1ba1ba1ba1ba1b7f00000000000000000000000000000000000000000000000000000000000000006001600160a01b031614158015612ee25750612ee28361358c565b15612f195750336001600160a01b037f00000000000000000000000000000000000000000000000000000000000000001614610687565b612f21612af7565b6040516326f8aa2160e21b8152600481018590526001600160a01b0384811660248301523060448301529190911690639be2a8849060640160206040518083038186803b158015612f7157600080fd5b505afa158015612f85573d6000803e3d6000fd5b505050506040513d601f19601f820116820180604052508101906115279190616234565b6000601f606083901c16612fbe81600a616335565b6107ca90670de0b6b3a7640000616116565b6000612fdf8484111583611f12565b60006129268486615e91565b60004281612ff860085490565b905063ffffffff600882901c811690602883901c1680841061302657670de0b6b3a764000094505050505090565b81841161303857600094505050505090565b60006130448383615e91565b905060006130528487615e91565b905061305e81836125f0565b965050505050505090565b60008061307e6001600160401b0385166135e1565b90506000613095604086901c63ffffffff1661273a565b90508315806130a357508082145b156130b057509050610687565b670de0b6b3a764000084106130c85791506106879050565b808211156130fc5760006130e66130df8385615e91565b8690613209565b90506130f28184615e91565b9350505050610687565b600061310b6130df8484615e91565b90506130f28184615ed9565b60085461312690826000611690565b60085550565b60005b613137611d19565b811015610ad7576000818152600d602052604090206001015461317c9083838151811061316657613166615ea8565b60200260200101516116b290919063ffffffff16565b82828151811061318e5761318e615ea8565b60209081029190910101526131a281615ebe565b905061312f565b600081806020019051810190610687919061634e565b6000606060006131ce846131a9565b905060038160038111156131e4576131e4616019565b14156131fd576131f388613600565b9250925050612da5565b6131f3878787876136df565b6000806132168385616116565b905083158061322d57508261322b858361614b565b145b6132685760405162461bcd60e51b815260206004820152600c60248201526b4d554c5f4f564552464c4f5760a01b6044820152606401610777565b6116ff670de0b6b3a76400008261614b565b6132916001600160a01b038316151561019b611f12565b6001600160a01b0382166000908152602081905260409020546132b790826101a1612fd0565b6001600160a01b0383166000908152602081905260409020556002546132de908290615e91565b6002556040518181526000906001600160a01b038416907fddf252ad1be2c89b69c2b068fc378daa952ba7f163c4a11628f55a4df523b3ef906020015b60405180910390a35050565b600060606000613336846131a9565b9050600181600381111561334c5761334c616019565b14156133685761335e8787878761376a565b92509250506133be565b600281600381111561337c5761337c616019565b141561338d5761335e8787866137e1565b60038160038111156133a1576133a1616019565b14156133b15761335e87856138e1565b6133bc610136612887565b505b94509492505050565b6001600160a01b0381166000908152600b60205260409020546133ee811515610135611f12565b919050565b60008061340c61340560085460c01c90565b84906117e0565b90506107ca8184615e91565b60006107ca8383613209565b610ad761343083613914565b82613924565b600061344b613443610aa3565b610147611f12565b6116ff848484613994565b6000613463613443610aa3565b6116ff8484846139c7565b60006107ca838361187f565b600061068761348b60085460c01c90565b61349d90670de0b6b3a7640000615e91565b839061187f565b6000806134b184846139fa565b905060006134cb6134c4836127106117e0565b600161176b565b9050808210156134e057600092505050610687565b6134ea82826116b2565b92505050610687565b6060818060200190518101906107ca919061636b565b806002546135179190615ed9565b6002556001600160a01b03821660009081526020819052604090205461353e908290615ed9565b6001600160a01b038316600081815260208181526040808320949094559251848152919290917fddf252ad1be2c89b69c2b068fc378daa952ba7f163c4a11628f55a4df523b3ef910161331b565b600061359e633e56920560e01b610f49565b8214806135b957506135b6633806be4b60e21b610f49565b82145b806135d257506135cf632dbb8aaf60e11b610f49565b82145b80610687575061068782613b69565b60006106876001600160401b0361172584670de0b6b3a76400006117e0565b6000606061360c611e52565b6136236001600160a01b0384163014610151611f12565b6000915061362f611d19565b6001600160401b0381111561364657613646615930565b60405190808252806020026020018201604052801561366f578160200160208202803683370190505b50905060005b61367d611d19565b8110156136d9576000818152600d60205260409020600101548282815181106136a8576136a8615ea8565b6020908102919091018101919091526000828152600d90915260408120600101556136d281615ebe565b9050613675565b50915091565b6000606060006136ee846131a9565b9050600081600381111561370457613704616019565b14156137155761335e878786613b9b565b600181600381111561372957613729616019565b14156137395761335e8785613c11565b600281600381111561374d5761374d616019565b141561375f5761335e87878787613c37565b6133bc610150612887565b6000606060008061377a85613ca2565b91509150613790613789611d19565b8351611eee565b61379a82876126ab565b6000806137b78a8a866137ac60025490565b60085460c01c613cc5565b915091506137c481613e55565b6137d28383101560d0611f12565b50989197509095505050505050565b600060606000806137f185613ea7565b91509150613809613800611d19565b82106064611f12565b60008061385889848151811061382157613821615ea8565b602002602001015189858151811061383b5761383b615ea8565b60200260200101518661384d60025490565b60085460c01c613ebe565b915091506138668382613924565b6000613870611d19565b6001600160401b0381111561388757613887615930565b6040519080825280602002602001820160405280156138b0578160200160208202803683370190505b509050828185815181106138c6576138c6615ea8565b60209081029190910101529399939850929650505050505050565b6000606060006138f084613fdc565b90506000613907868361390260025490565b613ff2565b9196919550909350505050565b6000610687600c836101356140ba565b8015610ad7576000613956827f0000000000000000000000000000000000000000000000000000000000000000613209565b6000848152600d602052604090206001015490915061398e84613979838561176b565b6000918252600d602052604090912060010155565b50505050565b600061399e611e52565b6116ff836139af86602001516140ec565b846139bd88604001516140ec565b8860600151614110565b60006139d1611e52565b6116ff836139e286602001516140ec565b846139f088604001516140ec565b88606001516141bb565b600081613a105750670de0b6b3a7640000610687565b82613a1d57506000610687565b613a2e600160ff1b84106006611f12565b82613a52613a4968056bc75e2d63100000600160fe1b61614b565b84106007611f12565b82600082613a7067016345785d8a0000670de0b6b3a76400006163b1565b128015613a955750613a92670de0b6b3a764000067016345785d8a00006163f0565b83125b15613afe576000613aa584614262565b9050670de0b6b3a764000083613abb8284616431565b613ac59190616445565b613acf91906164ca565b83613ae2670de0b6b3a7640000846164ca565b613aec9190616445565b613af691906163f0565b915050613b15565b81613b0884614499565b613b129190616445565b90505b613b27670de0b6b3a7640000826164ca565b9050613b5681680238fd42c5cf03ffff1913158015613b4f575068070c1cc73b00c800008213155b6008611f12565b613b5f81614a7f565b9695505050505050565b6000613b7b631c74c91760e11b610f49565b8214806106875750613b936350dd6ed960e01b610f49565b821492915050565b60006060613ba7611e52565b600080613bb385613ea7565b91509150613bc2613800611d19565b600080613858898481518110613bda57613bda615ea8565b6020026020010151898581518110613bf457613bf4615ea8565b602002602001015186613c0660025490565b60085460c01c6150b6565b600060606000613c2084613fdc565b905060006139078683613c3260025490565b6151ad565b60006060613c43611e52565b600080613c4f85613ca2565b91509150613c608251610c4b611d19565b613c6a82876126ab565b600080613c878a8a86613c7c60025490565b60085460c01c615255565b91509150613c998383111560cf611f12565b6137d281613e55565b6060600082806020019051810190613cba91906164f8565b909590945092505050565b60006060600085516001600160401b03811115613ce457613ce4615930565b604051908082528060200260200182016040528015613d0d578160200160208202803683370190505b5090506000805b8951811015613df957613d788a8281518110613d3257613d32615ea8565b6020026020010151898381518110613d4c57613d4c615ea8565b60200260200101518c8481518110613d6657613d66615ea8565b6020026020010151610c999190615ed9565b838281518110613d8a57613d8a615ea8565b602002602001018181525050613ddb898281518110613dab57613dab615ea8565b6020026020010151848381518110613dc557613dc5615ea8565b602002602001015161320990919063ffffffff16565b613de59083615ed9565b915080613df181615ebe565b915050613d14565b50600080613e0b8b8b8b87878c61539e565b915091506000670de0b6b3a76400008311613e27576000613e43565b613e43613e3c670de0b6b3a764000085615e91565b8a90613209565b9c919b50909950505050505050505050565b613e628151610c4b611d19565b60005b613e6d611d19565b811015610ad757613e9781838381518110613e8a57613e8a615ea8565b6020026020010151613924565b613ea081615ebe565b9050613e65565b60008082806020019051810190613cba9190616540565b60008080613ed0856117258882615ed9565b90506729a2241af62c0000811115613f2a5760405162461bcd60e51b815260206004820152601860248201527f4d41585f4f55545f4250545f464f525f544f4b454e5f494e00000000000000006044820152606401610777565b6000613f48613f41670de0b6b3a76400008a61187f565b8390615563565b90506000613f68613f61670de0b6b3a764000084615e91565b8b906117e0565b90506000613f758a61558f565b90506000613f8383836117e0565b90506000613f918285615e91565b90506000613fb1613faa8b670de0b6b3a7640000615e91565b849061187f565b9050613fbd8382615e91565b9750613fc98183615ed9565b9850505050505050509550959350505050565b6000818060200190518101906107ca9190616577565b60606000614000848461187f565b9050600085516001600160401b0381111561401d5761401d615930565b604051908082528060200260200182016040528015614046578160200160208202803683370190505b50905060005b86518110156140b0576140818388838151811061406b5761406b615ea8565b60200260200101516117e090919063ffffffff16565b82828151811061409357614093615ea8565b6020908102919091010152806140a881615ebe565b91505061404c565b5095945050505050565b6001600160a01b03821660009081526002840160205260408120546140e181151584611f12565b612926600182615e91565b6000806140f7612feb565b90506000614104846133c7565b90506116ff8183613069565b600061412486670429d069189e0000613209565b8211156141625760405162461bcd60e51b815260206004820152600c60248201526b4d41585f494e5f524154494f60a01b6044820152606401610777565b600061416e8388615ed9565b9050600061417c888361187f565b9050600061418a88876125f0565b905060006141988383615563565b90506141ad6141a68261558f565b8990613209565b9a9950505050505050505050565b60006141cf84670429d069189e0000613209565b82111561420e5760405162461bcd60e51b815260206004820152600d60248201526c4d41585f4f55545f524154494f60981b6044820152606401610777565b600061422461421d8487615e91565b869061187f565b90506000614232858861187f565b905060006142408383615563565b90506000614256670de0b6b3a764000083615e91565b90506141ad8a826117e0565b6000614276670de0b6b3a764000083616445565b915060006142926a0c097ce7bc90715b34b9f160241b846163f0565b6a0c097ce7bc90715b34b9f160241b6142ab81866163b1565b6142b59190616445565b6142bf91906164ca565b905060006a0c097ce7bc90715b34b9f160241b6142dc8380616445565b6142e691906164ca565b905081806a0c097ce7bc90715b34b9f160241b6143038483616445565b61430d91906164ca565b915061431a6003836164ca565b61432490826163f0565b90506a0c097ce7bc90715b34b9f160241b61433f8484616445565b61434991906164ca565b91506143566005836164ca565b61436090826163f0565b90506a0c097ce7bc90715b34b9f160241b61437b8484616445565b61438591906164ca565b91506143926007836164ca565b61439c90826163f0565b90506a0c097ce7bc90715b34b9f160241b6143b78484616445565b6143c191906164ca565b91506143ce6009836164ca565b6143d890826163f0565b90506a0c097ce7bc90715b34b9f160241b6143f38484616445565b6143fd91906164ca565b915061440a600b836164ca565b61441490826163f0565b90506a0c097ce7bc90715b34b9f160241b61442f8484616445565b61443991906164ca565b9150614446600d836164ca565b61445090826163f0565b90506a0c097ce7bc90715b34b9f160241b61446b8484616445565b61447591906164ca565b9150614482600f836164ca565b61448c90826163f0565b9050613b5f816002616445565b6000670de0b6b3a76400008212156144d9576144d0826144c1670de0b6b3a764000080616445565b6144cb91906164ca565b614499565b610687906165a5565b6000614505670de0b6b3a7640000770195e54c5dd42177f53a27172fa9ec630262827000000000616445565b83126145455761452d770195e54c5dd42177f53a27172fa9ec630262827000000000846164ca565b92506145426806f05b59d3b2000000826163f0565b90505b614563670de0b6b3a76400006b1425982cf597cd205cef7380616445565b83126145975761457f6b1425982cf597cd205cef7380846164ca565b92506145946803782dace9d9000000826163f0565b90505b6145a2606482616445565b90506145af606484616445565b92506e01855144814a7ff805980ff0084000831261460c576e01855144814a7ff805980ff00840006145ea68056bc75e2d6310000085616445565b6145f491906164ca565b925061460968ad78ebc5ac62000000826163f0565b90505b6b02df0ab5a80a22c61ab5a7008312614661576b02df0ab5a80a22c61ab5a70061463f68056bc75e2d6310000085616445565b61464991906164ca565b925061465e6856bc75e2d631000000826163f0565b90505b693f1fce3da636ea5cf85083126146b257693f1fce3da636ea5cf85061469068056bc75e2d6310000085616445565b61469a91906164ca565b92506146af682b5e3af16b18800000826163f0565b90505b690127fa27722cc06cc5e2831261470357690127fa27722cc06cc5e26146e168056bc75e2d6310000085616445565b6146eb91906164ca565b92506147006815af1d78b58c400000826163f0565b90505b68280e60114edb805d0383126147525768280e60114edb805d0361473068056bc75e2d6310000085616445565b61473a91906164ca565b925061474f680ad78ebc5ac6200000826163f0565b90505b680ebc5fb4174612111083126147a157680ebc5fb4174612111061477f68056bc75e2d6310000085616445565b61478991906164ca565b925061479e68056bc75e2d63100000826163f0565b90505b6808f00f760a4b2db55d83126147f0576808f00f760a4b2db55d6147ce68056bc75e2d6310000085616445565b6147d891906164ca565b92506147ed6802b5e3af16b1880000826163f0565b90505b6806f5f1775788937937831261483f576806f5f177578893793761481d68056bc75e2d6310000085616445565b61482791906164ca565b925061483c68015af1d78b58c40000826163f0565b90505b6806248f33704b286603831261488d576806248f33704b28660361486c68056bc75e2d6310000085616445565b61487691906164ca565b925061488a67ad78ebc5ac620000826163f0565b90505b6805c548670b9510e7ac83126148db576805c548670b9510e7ac6148ba68056bc75e2d6310000085616445565b6148c491906164ca565b92506148d86756bc75e2d6310000826163f0565b90505b60006148f068056bc75e2d63100000856163f0565b68056bc75e2d6310000061490481876163b1565b61490e9190616445565b61491891906164ca565b9050600068056bc75e2d631000006149308380616445565b61493a91906164ca565b9050818068056bc75e2d631000006149528483616445565b61495c91906164ca565b91506149696003836164ca565b61497390826163f0565b905068056bc75e2d631000006149898484616445565b61499391906164ca565b91506149a06005836164ca565b6149aa90826163f0565b905068056bc75e2d631000006149c08484616445565b6149ca91906164ca565b91506149d76007836164ca565b6149e190826163f0565b905068056bc75e2d631000006149f78484616445565b614a0191906164ca565b9150614a0e6009836164ca565b614a1890826163f0565b905068056bc75e2d63100000614a2e8484616445565b614a3891906164ca565b9150614a45600b836164ca565b614a4f90826163f0565b9050614a5c600282616445565b90506064614a6a82876163f0565b614a7491906164ca565b979650505050505050565b6000614aae680238fd42c5cf03ffff198312158015614aa7575068070c1cc73b00c800008313155b6009611f12565b6000821215614ae457614ac8614ac3836165a5565b614a7f565b614ada670de0b6b3a764000080616445565b61068791906164ca565b60006806f05b59d3b20000008312614b2b57614b096806f05b59d3b2000000846163b1565b9250770195e54c5dd42177f53a27172fa9ec6302628270000000009050614b68565b6803782dace9d90000008312614b6457614b4e6803782dace9d9000000846163b1565b92506b1425982cf597cd205cef73809050614b68565b5060015b614b73606484616445565b925068056bc75e2d6310000068ad78ebc5ac620000008412614bd457614ba268ad78ebc5ac62000000856163b1565b935068056bc75e2d63100000614bc76e01855144814a7ff805980ff008400083616445565b614bd191906164ca565b90505b6856bc75e2d6310000008412614c2657614bf76856bc75e2d631000000856163b1565b935068056bc75e2d63100000614c196b02df0ab5a80a22c61ab5a70083616445565b614c2391906164ca565b90505b682b5e3af16b188000008412614c7657614c49682b5e3af16b18800000856163b1565b935068056bc75e2d63100000614c69693f1fce3da636ea5cf85083616445565b614c7391906164ca565b90505b6815af1d78b58c4000008412614cc657614c996815af1d78b58c400000856163b1565b935068056bc75e2d63100000614cb9690127fa27722cc06cc5e283616445565b614cc391906164ca565b90505b680ad78ebc5ac62000008412614d1557614ce9680ad78ebc5ac6200000856163b1565b935068056bc75e2d63100000614d0868280e60114edb805d0383616445565b614d1291906164ca565b90505b68056bc75e2d631000008412614d6457614d3868056bc75e2d63100000856163b1565b935068056bc75e2d63100000614d57680ebc5fb4174612111083616445565b614d6191906164ca565b90505b6802b5e3af16b18800008412614db357614d876802b5e3af16b1880000856163b1565b935068056bc75e2d63100000614da66808f00f760a4b2db55d83616445565b614db091906164ca565b90505b68015af1d78b58c400008412614e0257614dd668015af1d78b58c40000856163b1565b935068056bc75e2d63100000614df56806f5f177578893793783616445565b614dff91906164ca565b90505b68056bc75e2d6310000084614e1781836163f0565b9150600268056bc75e2d63100000614e2f8884616445565b614e3991906164ca565b614e4391906164ca565b9050614e4f81836163f0565b9150600368056bc75e2d63100000614e678884616445565b614e7191906164ca565b614e7b91906164ca565b9050614e8781836163f0565b9150600468056bc75e2d63100000614e9f8884616445565b614ea991906164ca565b614eb391906164ca565b9050614ebf81836163f0565b9150600568056bc75e2d63100000614ed78884616445565b614ee191906164ca565b614eeb91906164ca565b9050614ef781836163f0565b9150600668056bc75e2d63100000614f0f8884616445565b614f1991906164ca565b614f2391906164ca565b9050614f2f81836163f0565b9150600768056bc75e2d63100000614f478884616445565b614f5191906164ca565b614f5b91906164ca565b9050614f6781836163f0565b9150600868056bc75e2d63100000614f7f8884616445565b614f8991906164ca565b614f9391906164ca565b9050614f9f81836163f0565b9150600968056bc75e2d63100000614fb78884616445565b614fc191906164ca565b614fcb91906164ca565b9050614fd781836163f0565b9150600a68056bc75e2d63100000614fef8884616445565b614ff991906164ca565b61500391906164ca565b905061500f81836163f0565b9150600b68056bc75e2d631000006150278884616445565b61503191906164ca565b61503b91906164ca565b905061504781836163f0565b9150600c68056bc75e2d6310000061505f8884616445565b61506991906164ca565b61507391906164ca565b905061507f81836163f0565b915060648468056bc75e2d631000006150988587616445565b6150a291906164ca565b6150ac9190616445565b613b5f91906164ca565b600080806150c8856117258882615e91565b90506709b6e64a8ec600008110156151225760405162461bcd60e51b815260206004820152601860248201527f4d494e5f4250545f494e5f464f525f544f4b454e5f4f555400000000000000006044820152606401610777565b6000615139613f41670de0b6b3a76400008a6125f0565b905060006151506151498361558f565b8b90613209565b9050600061515d8a61558f565b9050600061516b83836117e0565b905060006151798285615e91565b9050615185828a6117e0565b96506151918783615e91565b61519b9082615ed9565b97505050505050509550959350505050565b606060006151bb84846125f0565b9050600085516001600160401b038111156151d8576151d8615930565b604051908082528060200260200182016040528015615201578160200160208202803683370190505b50905060005b86518110156140b05761522683888381518110613dc557613dc5615ea8565b82828151811061523857615238615ea8565b60209081029190910101528061524d81615ebe565b915050615207565b60006060600085516001600160401b0381111561527457615274615930565b60405190808252806020026020018201604052801561529d578160200160208202803683370190505b5090506000805b8951811015615373576153088a82815181106152c2576152c2615ea8565b60200260200101518983815181106152dc576152dc615ea8565b60200260200101518c84815181106152f6576152f6615ea8565b60200260200101516117259190615e91565b83828151811061531a5761531a615ea8565b60200260200101818152505061535589828151811061533b5761533b615ea8565b602002602001015184838151811061406b5761406b615ea8565b61535f9083615ed9565b91508061536b81615ebe565b9150506152a4565b506000806153858b8b8b87878c6155b9565b915091506000613e436153978461558f565b8a906117e0565b6000606085516001600160401b038111156153bb576153bb615930565b6040519080825280602002602001820160405280156153e4578160200160208202803683370190505b509050670de0b6b3a7640000915060005b88518110156155575760008587838151811061541357615413615ea8565b602002602001015111156154c057600061544a615438670de0b6b3a764000089615e91565b8c8581518110613dc557613dc5615ea8565b90506000818a858151811061546157615461615ea8565b60200260200101516154739190615e91565b9050600061548182896117e0565b905061548d8183615e91565b6154979084615ed9565b9350808686815181106154ac576154ac615ea8565b6020026020010181815250505050506154dd565b8782815181106154d2576154d2615ea8565b602002602001015190505b600061550f8b84815181106154f4576154f4615ea8565b6020026020010151838d8681518110613d6657613d66615ea8565b90506155406130df8b858151811061552957615529615ea8565b6020026020010151836134a490919063ffffffff16565b94505050808061554f90615ebe565b9150506153f5565b50965096945050505050565b60008061557084846139fa565b905060006155836134c4836127106117e0565b9050612926828261176b565b6000670de0b6b3a764000082106155a7576000610687565b61068782670de0b6b3a7640000615e91565b6000606085516001600160401b038111156155d6576155d6615930565b6040519080825280602002602001820160405280156155ff578160200160208202803683370190505b509050670de0b6b3a7640000915060005b885181101561555757600086828151811061562d5761562d615ea8565b60200260200101518611156156c957600061564a6154388861558f565b90506000818a858151811061566157615661615ea8565b60200260200101516156739190615e91565b9050600061568c61349d89670de0b6b3a7640000615e91565b90506156988282615e91565b8686815181106156aa576156aa615ea8565b60209081029190910101526156bf8184615ed9565b93505050506156e6565b8782815181106156db576156db615ea8565b602002602001015190505b600061572a8b84815181106156fd576156fd615ea8565b6020026020010151838d868151811061571857615718615ea8565b6020026020010151610c999190615e91565b90506157446130df8b858151811061552957615529615ea8565b94505050808061575390615ebe565b915050615610565b6000815180845260005b8181101561578157602081850181015186830182015201615765565b81811115615793576000602083870101525b50601f01601f19169290920160200192915050565b6020815260006107ca602083018461575b565b6001600160a01b038116811461069e57600080fd5b80356133ee816157bb565b600080604083850312156157ee57600080fd5b82356157f9816157bb565b946020939093013593505050565b801515811461069e57600080fd5b60006020828403121561582757600080fd5b81356107ca81615807565b600081518084526020808501945080840160005b8381101561586257815187529582019590820190600101615846565b509495945050505050565b6020815260006107ca6020830184615832565b60008060006060848603121561589557600080fd5b83356158a0816157bb565b925060208401356158b0816157bb565b929592945050506040919091013590565b604080825283519082018190526000906020906060840190828701845b828110156159035781516001600160a01b0316845292840192908401906001016158de565b50505083810382850152613b5f8186615832565b60006020828403121561592957600080fd5b5035919050565b634e487b7160e01b600052604160045260246000fd5b60405161012081016001600160401b038111828210171561596957615969615930565b60405290565b604051601f8201601f191681016001600160401b038111828210171561599757615997615930565b604052919050565b60006001600160401b038211156159b8576159b8615930565b5060051b60200190565b600082601f8301126159d357600080fd5b813560206159e86159e38361599f565b61596f565b82815260059290921b84018101918181019086841115615a0757600080fd5b8286015b84811015615a225780358352918301918301615a0b565b509695505050505050565b600080600060608486031215615a4257600080fd5b833592506020840135915060408401356001600160401b03811115615a6657600080fd5b615a72868287016159c2565b9150509250925092565b600082601f830112615a8d57600080fd5b81356001600160401b03811115615aa657615aa6615930565b615ab9601f8201601f191660200161596f565b818152846020838601011115615ace57600080fd5b816020850160208301376000918101602001919091529392505050565b60008060408385031215615afe57600080fd5b8235615b09816157bb565b915060208301356001600160401b03811115615b2457600080fd5b615b3085828601615a7c565b9150509250929050565b600060208284031215615b4c57600080fd5b81356107ca816157bb565b600080600080600080600060e0888a031215615b7257600080fd5b873596506020880135615b84816157bb565b95506040880135615b94816157bb565b945060608801356001600160401b0380821115615bb057600080fd5b615bbc8b838c016159c2565b955060808a0135945060a08a0135935060c08a0135915080821115615be057600080fd5b50615bed8a828b01615a7c565b91505092959891949750929550565b8281526040602082015260006116ff6040830184615832565b604081526000615c286040830185615832565b82810360208401526129268185615832565b8381528260208201526060604082015260006129266060830184615832565b600060208284031215615c6b57600080fd5b81356001600160e01b0319811681146107ca57600080fd5b8035600281106133ee57600080fd5b600080600060608486031215615ca757600080fd5b83356001600160401b0380821115615cbe57600080fd5b908501906101208288031215615cd357600080fd5b615cdb615946565b615ce483615c83565b8152615cf2602084016157d0565b6020820152615d03604084016157d0565b6040820152606083013560608201526080830135608082015260a083013560a0820152615d3260c084016157d0565b60c0820152615d4360e084016157d0565b60e08201526101008084013583811115615d5c57600080fd5b615d688a828701615a7c565b9183019190915250976020870135975060409096013595945050505050565b60ff8116811461069e57600080fd5b600080600080600080600060e0888a031215615db157600080fd5b8735615dbc816157bb565b96506020880135615dcc816157bb565b955060408801359450606088013593506080880135615dea81615d87565b9699959850939692959460a0840135945060c09093013592915050565b60008060408385031215615e1a57600080fd5b8235615e25816157bb565b91506020830135615e35816157bb565b809150509250929050565b600181811c90821680615e5457607f821691505b60208210811415615e7557634e487b7160e01b600052602260045260246000fd5b50919050565b634e487b7160e01b600052601160045260246000fd5b600082821015615ea357615ea3615e7b565b500390565b634e487b7160e01b600052603260045260246000fd5b6000600019821415615ed257615ed2615e7b565b5060010190565b60008219821115615eec57615eec615e7b565b500190565b600082601f830112615f0257600080fd5b81516020615f126159e38361599f565b82815260059290921b84018101918181019086841115615f3157600080fd5b8286015b84811015615a225780518352918301918301615f35565b600080600060608486031215615f6157600080fd5b83516001600160401b0380821115615f7857600080fd5b818601915086601f830112615f8c57600080fd5b81516020615f9c6159e38361599f565b82815260059290921b8401810191818101908a841115615fbb57600080fd5b948201945b83861015615fe2578551615fd3816157bb565b82529482019490820190615fc0565b91890151919750909350505080821115615ffb57600080fd5b5061600886828701615ef1565b925050604084015190509250925092565b634e487b7160e01b600052602160045260246000fd5b602081016004831061605157634e487b7160e01b600052602160045260246000fd5b91905290565b8481526000602060018060a01b038087168285015280861660408501526080606085015261010084018551608080870152818151808452610120880191508583019350600092505b808310156160c15783518516825292850192600192909201919085019061609f565b50848801519450607f199350838782030160a08801526160e18186615832565b94505050506040850151818584030160c08601526160ff838261575b565b925050506060840151615a2260e085018215159052565b600081600019048311821515161561613057616130615e7b565b500290565b634e487b7160e01b600052601260045260246000fd5b60008261615a5761615a616135565b500490565b60006020828403121561617157600080fd5b81516107ca81615d87565b84815283602082015260806040820152600061619b6080830185615832565b8281036060840152614a748185615832565b600080600080608085870312156161c357600080fd5b84519350602085015192506040850151915060608501516161e3816157bb565b939692955090935050565b8281526040602082015260006116ff604083018461575b565b8183823760009101908152919050565b60006020828403121561622957600080fd5b81516107ca816157bb565b60006020828403121561624657600080fd5b81516107ca81615807565b600181815b8085111561628c57816000190482111561627257616272615e7b565b8085161561627f57918102915b93841c9390800290616256565b509250929050565b6000826162a357506001610687565b816162b057506000610687565b81600181146162c657600281146162d0576162ec565b6001915050610687565b60ff8411156162e1576162e1615e7b565b50506001821b610687565b5060208310610133831016604e8410600b841016171561630f575081810a610687565b6163198383616251565b806000190482111561632d5761632d615e7b565b029392505050565b60006107ca8383616294565b6004811061069e57600080fd5b60006020828403121561636057600080fd5b81516107ca81616341565b6000806040838503121561637e57600080fd5b825161638981616341565b60208401519092506001600160401b038111156163a557600080fd5b615b3085828601615ef1565b60008083128015600160ff1b8501841216156163cf576163cf615e7b565b6001600160ff1b03840183138116156163ea576163ea615e7b565b50500390565b600080821280156001600160ff1b038490038513161561641257616412615e7b565b600160ff1b839003841281161561642b5761642b615e7b565b50500190565b60008261644057616440616135565b500790565b60006001600160ff1b038184138284138082168684048611161561646b5761646b615e7b565b600160ff1b600087128281168783058912161561648a5761648a615e7b565b600087129250878205871284841616156164a6576164a6615e7b565b878505871281841616156164bc576164bc615e7b565b505050929093029392505050565b6000826164d9576164d9616135565b600160ff1b8214600019841416156164f3576164f3615e7b565b500590565b60008060006060848603121561650d57600080fd5b835161651881616341565b60208501519093506001600160401b0381111561653457600080fd5b61600886828701615ef1565b60008060006060848603121561655557600080fd5b835161656081616341565b602085015160409095015190969495509392505050565b6000806040838503121561658a57600080fd5b825161659581616341565b6020939093015192949293505050565b6000600160ff1b8214156165bb576165bb615e7b565b506000039056fea2646970667358221220d2cbc09ed74119373963d7c8c0a5d3e1570bfc6683216377407235ea034939d664736f6c63430008090033",
  "linkReferences": {},
  "deployedLinkReferences": {}
}