{
  "_format": "hh-sol-artifact-1",
  "contractName": "BalanceAllocationMock",
  "sourceName": "contracts/test/vault/BalanceAllocationMock.sol",
  "abi": [
    {
      "inputs": [
        {
          "internalType": "bytes32",
          "name": "balance",
          "type": "bytes32"
        }
      ],
      "name": "cash",
      "outputs": [
        {
          "internalType": "uint256",
          "name": "",
          "type": "uint256"
        }
      ],
      "stateMutability": "pure",
      "type": "function"
    },
    {
      "inputs": [
        {
          "internalType": "bytes32",
          "name": "balance",
          "type": "bytes32"
        },
        {
          "internalType": "uint256",
          "name": "amount",
          "type": "uint256"
        }
      ],
      "name": "cashToManaged",
      "outputs": [
        {
          "internalType": "bytes32",
          "name": "",
          "type": "bytes32"
        }
      ],
      "stateMutability": "pure",
      "type": "function"
    },
    {
      "inputs": [
        {
          "internalType": "bytes32",
          "name": "balance",
          "type": "bytes32"
        },
        {
          "internalType": "uint256",
          "name": "amount",
          "type": "uint256"
        }
      ],
      "name": "decreaseCash",
      "outputs": [
        {
          "internalType": "bytes32",
          "name": "",
          "type": "bytes32"
        }
      ],
      "stateMutability": "view",
      "type": "function"
    },
    {
      "inputs": [
        {
          "internalType": "bytes32",
          "name": "sharedCash",
          "type": "bytes32"
        },
        {
          "internalType": "bytes32",
          "name": "sharedManaged",
          "type": "bytes32"
        }
      ],
      "name": "fromSharedToBalanceA",
      "outputs": [
        {
          "internalType": "bytes32",
          "name": "",
          "type": "bytes32"
        }
      ],
      "stateMutability": "pure",
      "type": "function"
    },
    {
      "inputs": [
        {
          "internalType": "bytes32",
          "name": "sharedCash",
          "type": "bytes32"
        },
        {
          "internalType": "bytes32",
          "name": "sharedManaged",
          "type": "bytes32"
        }
      ],
      "name": "fromSharedToBalanceB",
      "outputs": [
        {
          "internalType": "bytes32",
          "name": "",
          "type": "bytes32"
        }
      ],
      "stateMutability": "pure",
      "type": "function"
    },
    {
      "inputs": [
        {
          "internalType": "bytes32",
          "name": "balance",
          "type": "bytes32"
        },
        {
          "internalType": "uint256",
          "name": "amount",
          "type": "uint256"
        }
      ],
      "name": "increaseCash",
      "outputs": [
        {
          "internalType": "bytes32",
          "name": "",
          "type": "bytes32"
        }
      ],
      "stateMutability": "view",
      "type": "function"
    },
    {
      "inputs": [
        {
          "internalType": "bytes32",
          "name": "balance",
          "type": "bytes32"
        }
      ],
      "name": "isNotZero",
      "outputs": [
        {
          "internalType": "bool",
          "name": "",
          "type": "bool"
        }
      ],
      "stateMutability": "pure",
      "type": "function"
    },
    {
      "inputs": [
        {
          "internalType": "bytes32",
          "name": "balance",
          "type": "bytes32"
        }
      ],
      "name": "isZero",
      "outputs": [
        {
          "internalType": "bool",
          "name": "",
          "type": "bool"
        }
      ],
      "stateMutability": "pure",
      "type": "function"
    },
    {
      "inputs": [
        {
          "internalType": "bytes32",
          "name": "balance",
          "type": "bytes32"
        }
      ],
      "name": "lastChangeBlock",
      "outputs": [
        {
          "internalType": "uint256",
          "name": "",
          "type": "uint256"
        }
      ],
      "stateMutability": "pure",
      "type": "function"
    },
    {
      "inputs": [
        {
          "internalType": "bytes32",
          "name": "balance",
          "type": "bytes32"
        }
      ],
      "name": "managed",
      "outputs": [
        {
          "internalType": "uint256",
          "name": "",
          "type": "uint256"
        }
      ],
      "stateMutability": "pure",
      "type": "function"
    },
    {
      "inputs": [
        {
          "internalType": "bytes32",
          "name": "balance",
          "type": "bytes32"
        },
        {
          "internalType": "uint256",
          "name": "amount",
          "type": "uint256"
        }
      ],
      "name": "managedToCash",
      "outputs": [
        {
          "internalType": "bytes32",
          "name": "",
          "type": "bytes32"
        }
      ],
      "stateMutability": "pure",
      "type": "function"
    },
    {
      "inputs": [
        {
          "internalType": "bytes32",
          "name": "balance",
          "type": "bytes32"
        },
        {
          "internalType": "uint256",
          "name": "newManaged",
          "type": "uint256"
        }
      ],
      "name": "setManaged",
      "outputs": [
        {
          "internalType": "bytes32",
          "name": "",
          "type": "bytes32"
        }
      ],
      "stateMutability": "view",
      "type": "function"
    },
    {
      "inputs": [
        {
          "internalType": "uint256",
          "name": "_cash",
          "type": "uint256"
        },
        {
          "internalType": "uint256",
          "name": "_managed",
          "type": "uint256"
        },
        {
          "internalType": "uint256",
          "name": "_lastChangeBlock",
          "type": "uint256"
        }
      ],
      "name": "toBalance",
      "outputs": [
        {
          "internalType": "bytes32",
          "name": "",
          "type": "bytes32"
        }
      ],
      "stateMutability": "pure",
      "type": "function"
    },
    {
      "inputs": [
        {
          "internalType": "bytes32",
          "name": "tokenABalance",
          "type": "bytes32"
        },
        {
          "internalType": "bytes32",
          "name": "tokenBBalance",
          "type": "bytes32"
        }
      ],
      "name": "toSharedCash",
      "outputs": [
        {
          "internalType": "bytes32",
          "name": "",
          "type": "bytes32"
        }
      ],
      "stateMutability": "pure",
      "type": "function"
    },
    {
      "inputs": [
        {
          "internalType": "bytes32",
          "name": "tokenABalance",
          "type": "bytes32"
        },
        {
          "internalType": "bytes32",
          "name": "tokenBBalance",
          "type": "bytes32"
        }
      ],
      "name": "toSharedManaged",
      "outputs": [
        {
          "internalType": "bytes32",
          "name": "",
          "type": "bytes32"
        }
      ],
      "stateMutability": "pure",
      "type": "function"
    },
    {
      "inputs": [
        {
          "internalType": "bytes32",
          "name": "balance",
          "type": "bytes32"
        }
      ],
      "name": "total",
      "outputs": [
        {
          "internalType": "uint256",
          "name": "",
          "type": "uint256"
        }
      ],
      "stateMutability": "pure",
      "type": "function"
    },
    {
      "inputs": [
        {
          "internalType": "bytes32[]",
          "name": "balances",
          "type": "bytes32[]"
        }
      ],
      "name": "totals",
      "outputs": [
        {
          "internalType": "uint256[]",
          "name": "result",
          "type": "uint256[]"
        }
      ],
      "stateMutability": "pure",
      "type": "function"
    }
  ],
  "bytecode": "0x608060405234801561001057600080fd5b5061091e806100206000396000f3fe608060405234801561001057600080fd5b506004361061010b5760003560e01c8063736ea832116100a2578063ce83307711610071578063ce83307714610217578063d6c752c51461022a578063dd6469171461024a578063e1ac20221461025d578063fba56f521461027057600080fd5b8063736ea832146101cb57806393b9de4c146101de578063a44bed62146101f1578063ac0177a91461020457600080fd5b806351b311f0116100de57806351b311f01461017f578063595e098a146101925780637171e37f146101a55780637323e7ca146101b857600080fd5b8063256da630146101105780633a1f6e15146101365780633f7e18a5146101595780634ca27dff1461016c575b600080fd5b61012361011e3660046106f3565b610283565b6040519081526020015b60405180910390f35b610149610144366004610715565b610296565b604051901515815260200161012d565b610123610167366004610715565b6102ab565b61012361017a366004610715565b6102b7565b61012361018d3660046106f3565b6102cc565b6101236101a03660046106f3565b6102d8565b6101236101b33660046106f3565b6102e4565b6101236101c63660046106f3565b6102f0565b6101236101d93660046106f3565b6102fc565b6101236101ec3660046106f3565b610308565b6101236101ff366004610715565b610314565b6101236102123660046106f3565b610325565b6101236102253660046106f3565b610331565b61023d610238366004610744565b61033d565b60405161012d9190610802565b610149610258366004610715565b61034f565b61012361026b366004610846565b610361565b61012361027e366004610715565b610376565b600061028f8383610381565b9392505050565b60006001600160e01b03821615155b92915050565b60006102a58260e01c90565b60006102a58260701c6001600160701b031690565b600061028f83836103de565b600061028f8383610418565b600061028f838361045c565b600061028f8383610494565b600061028f83836104c6565b600061028f83836104e7565b60006001600160701b0382166102a5565b600061028f8383610522565b600061028f8383610540565b606061034882610556565b5092915050565b60006001600160e01b038216156102a5565b600061036e84848461061f565b949350505050565b60006102a582610695565b600080610397836001600160701b038616610888565b90506000836103af8660701c6001600160701b031690565b6103b9919061089f565b905060006103c78660e01c90565b90506103d483838361061f565b9695505050505050565b600061028f6103f68460701c6001600160701b031690565b6104098460701c6001600160701b031690565b6104138660e01c90565b61061f565b6000806104376104288560e01c90565b6104328560e01c90565b6106bd565b905061036e6001600160701b0385166001600160701b0385168363ffffffff166106d4565b600080610472836001600160701b03861661089f565b905060008361048a8660701c6001600160701b031690565b6103b99190610888565b600061028f6104ac8460701c6001600160701b031690565b6104bf8460701c6001600160701b031690565b60006106d4565b60006001600160701b038316436104de82858361061f565b95945050505050565b6000806104fd836001600160701b03861661089f565b905060006105148560701c6001600160701b031690565b9050436103d483838361061f565b600061028f6001600160701b0384166001600160701b038416610409565b6000806104fd836001600160701b038616610888565b60606000825167ffffffffffffffff8111156105745761057461072e565b60405190808252806020026020018201604052801561059d578160200160208202803683370190505b5091506000905060005b82518110156106195760008482815181106105c4576105c46108b7565b602002602001015190506105d781610695565b8483815181106105e9576105e96108b7565b602002602001018181525050610603836104328360e01c90565b9250508080610611906108cd565b9150506105a7565b50915091565b60008061062c848661089f565b90508481101580156106415750600160701b81105b61068a5760405162461bcd60e51b815260206004820152601660248201527542414c414e43455f544f54414c5f4f564552464c4f5760501b604482015260640160405180910390fd5b6104de8585856106d4565b60006106aa8260701c6001600160701b031690565b6102a5906001600160701b03841661089f565b6000818310156106cd578161028f565b5090919050565b6000836106e9607085901b60e085901b61089f565b61036e919061089f565b6000806040838503121561070657600080fd5b50508035926020909101359150565b60006020828403121561072757600080fd5b5035919050565b634e487b7160e01b600052604160045260246000fd5b6000602080838503121561075757600080fd5b823567ffffffffffffffff8082111561076f57600080fd5b818501915085601f83011261078357600080fd5b8135818111156107955761079561072e565b8060051b604051601f19603f830116810181811085821117156107ba576107ba61072e565b6040529182528482019250838101850191888311156107d857600080fd5b938501935b828510156107f6578435845293850193928501926107dd565b98975050505050505050565b6020808252825182820181905260009190848201906040850190845b8181101561083a5783518352928401929184019160010161081e565b50909695505050505050565b60008060006060848603121561085b57600080fd5b505081359360208301359350604090920135919050565b634e487b7160e01b600052601160045260246000fd5b60008282101561089a5761089a610872565b500390565b600082198211156108b2576108b2610872565b500190565b634e487b7160e01b600052603260045260246000fd5b60006000198214156108e1576108e1610872565b506001019056fea2646970667358221220839520a218357a6e4b37bdb0993aea6550ec980f7203640d2dba49a90244201f64736f6c63430008090033",
  "linkReferences": {},
  "deployedLinkReferences": {}
}