{
  "_format": "hh-sol-artifact-1",
  "contractName": "StakePoolController",
  "sourceName": "contracts/StakePoolController.sol",
  "abi": [
    {
      "anonymous": false,
      "inputs": [
        {
          "indexed": true,
          "internalType": "address",
          "name": "governance",
          "type": "address"
        }
      ],
      "name": "ChangeGovernance",
      "type": "event"
    },
    {
      "anonymous": false,
      "inputs": [
        {
          "indexed": true,
          "internalType": "address",
          "name": "farm",
          "type": "address"
        },
        {
          "indexed": true,
          "internalType": "address",
          "name": "stakeToken",
          "type": "address"
        },
        {
          "indexed": false,
          "internalType": "uint256",
          "name": "version",
          "type": "uint256"
        },
        {
          "indexed": false,
          "internalType": "address",
          "name": "timelock",
          "type": "address"
        },
        {
          "indexed": false,
          "internalType": "address",
          "name": "stakePoolRewardFund",
          "type": "address"
        },
        {
          "indexed": false,
          "internalType": "uint256",
          "name": "totalStakePool",
          "type": "uint256"
        }
      ],
      "name": "MasterCreated",
      "type": "event"
    },
    {
      "anonymous": false,
      "inputs": [
        {
          "indexed": true,
          "internalType": "uint256",
          "name": "amount",
          "type": "uint256"
        }
      ],
      "name": "SetExtraFeeRate",
      "type": "event"
    },
    {
      "anonymous": false,
      "inputs": [
        {
          "indexed": true,
          "internalType": "uint256",
          "name": "amount",
          "type": "uint256"
        }
      ],
      "name": "SetFeeAmount",
      "type": "event"
    },
    {
      "anonymous": false,
      "inputs": [
        {
          "indexed": true,
          "internalType": "address",
          "name": "feeCollector",
          "type": "address"
        }
      ],
      "name": "SetFeeCollector",
      "type": "event"
    },
    {
      "anonymous": false,
      "inputs": [
        {
          "indexed": true,
          "internalType": "address",
          "name": "token",
          "type": "address"
        }
      ],
      "name": "SetFeeToken",
      "type": "event"
    },
    {
      "anonymous": false,
      "inputs": [
        {
          "indexed": true,
          "internalType": "address",
          "name": "contractAddress",
          "type": "address"
        },
        {
          "indexed": false,
          "internalType": "uint256",
          "name": "verion",
          "type": "uint256"
        }
      ],
      "name": "SetStakePoolCreator",
      "type": "event"
    },
    {
      "anonymous": false,
      "inputs": [
        {
          "indexed": true,
          "internalType": "address",
          "name": "contractAddress",
          "type": "address"
        },
        {
          "indexed": false,
          "internalType": "bool",
          "name": "value",
          "type": "bool"
        }
      ],
      "name": "SetStakePoolVerifier",
      "type": "event"
    },
    {
      "anonymous": false,
      "inputs": [
        {
          "indexed": true,
          "internalType": "address",
          "name": "contractAddress",
          "type": "address"
        },
        {
          "indexed": false,
          "internalType": "bool",
          "name": "value",
          "type": "bool"
        }
      ],
      "name": "SetWhitelistRewardMultiplier",
      "type": "event"
    },
    {
      "anonymous": false,
      "inputs": [
        {
          "indexed": true,
          "internalType": "address",
          "name": "contractAddress",
          "type": "address"
        },
        {
          "indexed": false,
          "internalType": "bool",
          "name": "value",
          "type": "bool"
        }
      ],
      "name": "SetWhitelistRewardRebaser",
      "type": "event"
    },
    {
      "anonymous": false,
      "inputs": [
        {
          "indexed": true,
          "internalType": "address",
          "name": "contractAddress",
          "type": "address"
        },
        {
          "indexed": false,
          "internalType": "int8",
          "name": "value",
          "type": "int8"
        }
      ],
      "name": "SetWhitelistStakePool",
      "type": "event"
    },
    {
      "anonymous": false,
      "inputs": [
        {
          "indexed": true,
          "internalType": "address",
          "name": "contractAddress",
          "type": "address"
        },
        {
          "indexed": false,
          "internalType": "bool",
          "name": "value",
          "type": "bool"
        }
      ],
      "name": "SetWhitelistStakingFor",
      "type": "event"
    },
    {
      "inputs": [
        {
          "internalType": "address",
          "name": "",
          "type": "address"
        }
      ],
      "name": "_stakePoolVerifiers",
      "outputs": [
        {
          "internalType": "bool",
          "name": "",
          "type": "bool"
        }
      ],
      "stateMutability": "view",
      "type": "function"
    },
    {
      "inputs": [
        {
          "internalType": "address",
          "name": "_address",
          "type": "address"
        }
      ],
      "name": "addStakePoolCreator",
      "outputs": [],
      "stateMutability": "nonpayable",
      "type": "function"
    },
    {
      "inputs": [
        {
          "internalType": "uint256",
          "name": "",
          "type": "uint256"
        }
      ],
      "name": "allStakePools",
      "outputs": [
        {
          "internalType": "address",
          "name": "",
          "type": "address"
        }
      ],
      "stateMutability": "view",
      "type": "function"
    },
    {
      "inputs": [],
      "name": "allStakePoolsLength",
      "outputs": [
        {
          "internalType": "uint256",
          "name": "",
          "type": "uint256"
        }
      ],
      "stateMutability": "view",
      "type": "function"
    },
    {
      "inputs": [
        {
          "internalType": "address",
          "name": "",
          "type": "address"
        }
      ],
      "name": "allowEmergencyWithdrawStakePools",
      "outputs": [
        {
          "internalType": "bool",
          "name": "",
          "type": "bool"
        }
      ],
      "stateMutability": "view",
      "type": "function"
    },
    {
      "inputs": [
        {
          "internalType": "uint256",
          "name": "version",
          "type": "uint256"
        },
        {
          "internalType": "address",
          "name": "stakeToken",
          "type": "address"
        },
        {
          "internalType": "address",
          "name": "rewardToken",
          "type": "address"
        },
        {
          "internalType": "uint256",
          "name": "rewardFundAmount",
          "type": "uint256"
        },
        {
          "internalType": "uint256",
          "name": "delayTimeLock",
          "type": "uint256"
        },
        {
          "internalType": "bytes",
          "name": "data",
          "type": "bytes"
        }
      ],
      "name": "create",
      "outputs": [
        {
          "internalType": "address",
          "name": "",
          "type": "address"
        }
      ],
      "stateMutability": "nonpayable",
      "type": "function"
    },
    {
      "inputs": [],
      "name": "enableWhitelistRewardMultiplier",
      "outputs": [
        {
          "internalType": "bool",
          "name": "",
          "type": "bool"
        }
      ],
      "stateMutability": "view",
      "type": "function"
    },
    {
      "inputs": [],
      "name": "enableWhitelistRewardRebaser",
      "outputs": [
        {
          "internalType": "bool",
          "name": "",
          "type": "bool"
        }
      ],
      "stateMutability": "view",
      "type": "function"
    },
    {
      "inputs": [],
      "name": "extraFeeRate",
      "outputs": [
        {
          "internalType": "uint256",
          "name": "",
          "type": "uint256"
        }
      ],
      "stateMutability": "view",
      "type": "function"
    },
    {
      "inputs": [],
      "name": "feeAmount",
      "outputs": [
        {
          "internalType": "uint256",
          "name": "",
          "type": "uint256"
        }
      ],
      "stateMutability": "view",
      "type": "function"
    },
    {
      "inputs": [],
      "name": "feeCollector",
      "outputs": [
        {
          "internalType": "address",
          "name": "",
          "type": "address"
        }
      ],
      "stateMutability": "view",
      "type": "function"
    },
    {
      "inputs": [],
      "name": "feeToken",
      "outputs": [
        {
          "internalType": "address",
          "name": "",
          "type": "address"
        }
      ],
      "stateMutability": "view",
      "type": "function"
    },
    {
      "inputs": [
        {
          "internalType": "address",
          "name": "token",
          "type": "address"
        }
      ],
      "name": "getCreationFee",
      "outputs": [
        {
          "internalType": "uint256",
          "name": "",
          "type": "uint256"
        }
      ],
      "stateMutability": "view",
      "type": "function"
    },
    {
      "inputs": [],
      "name": "governance",
      "outputs": [
        {
          "internalType": "address",
          "name": "",
          "type": "address"
        }
      ],
      "stateMutability": "view",
      "type": "function"
    },
    {
      "inputs": [
        {
          "internalType": "address",
          "name": "_swapFactory",
          "type": "address"
        }
      ],
      "name": "initialize",
      "outputs": [],
      "stateMutability": "nonpayable",
      "type": "function"
    },
    {
      "inputs": [
        {
          "internalType": "address",
          "name": "_address",
          "type": "address"
        }
      ],
      "name": "isAllowEmergencyWithdrawStakePool",
      "outputs": [
        {
          "internalType": "bool",
          "name": "",
          "type": "bool"
        }
      ],
      "stateMutability": "view",
      "type": "function"
    },
    {
      "inputs": [
        {
          "internalType": "address",
          "name": "b",
          "type": "address"
        }
      ],
      "name": "isStakePool",
      "outputs": [
        {
          "internalType": "bool",
          "name": "",
          "type": "bool"
        }
      ],
      "stateMutability": "view",
      "type": "function"
    },
    {
      "inputs": [
        {
          "internalType": "address",
          "name": "_address",
          "type": "address"
        }
      ],
      "name": "isStakePoolVerifier",
      "outputs": [
        {
          "internalType": "bool",
          "name": "",
          "type": "bool"
        }
      ],
      "stateMutability": "view",
      "type": "function"
    },
    {
      "inputs": [
        {
          "internalType": "address",
          "name": "_address",
          "type": "address"
        }
      ],
      "name": "isWhitelistRewardMultiplier",
      "outputs": [
        {
          "internalType": "bool",
          "name": "",
          "type": "bool"
        }
      ],
      "stateMutability": "view",
      "type": "function"
    },
    {
      "inputs": [
        {
          "internalType": "address",
          "name": "_address",
          "type": "address"
        }
      ],
      "name": "isWhitelistRewardRebaser",
      "outputs": [
        {
          "internalType": "bool",
          "name": "",
          "type": "bool"
        }
      ],
      "stateMutability": "view",
      "type": "function"
    },
    {
      "inputs": [
        {
          "internalType": "address",
          "name": "_address",
          "type": "address"
        }
      ],
      "name": "isWhitelistStakePool",
      "outputs": [
        {
          "internalType": "int8",
          "name": "",
          "type": "int8"
        }
      ],
      "stateMutability": "view",
      "type": "function"
    },
    {
      "inputs": [
        {
          "internalType": "address",
          "name": "_address",
          "type": "address"
        }
      ],
      "name": "isWhitelistStakingFor",
      "outputs": [
        {
          "internalType": "bool",
          "name": "",
          "type": "bool"
        }
      ],
      "stateMutability": "view",
      "type": "function"
    },
    {
      "inputs": [
        {
          "internalType": "address",
          "name": "_address",
          "type": "address"
        },
        {
          "internalType": "bool",
          "name": "state",
          "type": "bool"
        }
      ],
      "name": "setAllowEmergencyWithdrawStakePool",
      "outputs": [],
      "stateMutability": "nonpayable",
      "type": "function"
    },
    {
      "inputs": [
        {
          "internalType": "bool",
          "name": "value",
          "type": "bool"
        }
      ],
      "name": "setEnableWhitelistRewardMultiplier",
      "outputs": [],
      "stateMutability": "nonpayable",
      "type": "function"
    },
    {
      "inputs": [
        {
          "internalType": "bool",
          "name": "value",
          "type": "bool"
        }
      ],
      "name": "setEnableWhitelistRewardRebaser",
      "outputs": [],
      "stateMutability": "nonpayable",
      "type": "function"
    },
    {
      "inputs": [
        {
          "internalType": "uint256",
          "name": "_extraFeeRate",
          "type": "uint256"
        }
      ],
      "name": "setExtraFeeRate",
      "outputs": [],
      "stateMutability": "nonpayable",
      "type": "function"
    },
    {
      "inputs": [
        {
          "internalType": "uint256",
          "name": "_feeAmount",
          "type": "uint256"
        }
      ],
      "name": "setFeeAmount",
      "outputs": [],
      "stateMutability": "nonpayable",
      "type": "function"
    },
    {
      "inputs": [
        {
          "internalType": "address",
          "name": "_address",
          "type": "address"
        }
      ],
      "name": "setFeeCollector",
      "outputs": [],
      "stateMutability": "nonpayable",
      "type": "function"
    },
    {
      "inputs": [
        {
          "internalType": "address",
          "name": "_token",
          "type": "address"
        }
      ],
      "name": "setFeeToken",
      "outputs": [],
      "stateMutability": "nonpayable",
      "type": "function"
    },
    {
      "inputs": [
        {
          "internalType": "address",
          "name": "_governance",
          "type": "address"
        }
      ],
      "name": "setGovernance",
      "outputs": [],
      "stateMutability": "nonpayable",
      "type": "function"
    },
    {
      "inputs": [
        {
          "internalType": "address",
          "name": "_address",
          "type": "address"
        },
        {
          "internalType": "bool",
          "name": "state",
          "type": "bool"
        }
      ],
      "name": "setStakePoolVerifier",
      "outputs": [],
      "stateMutability": "nonpayable",
      "type": "function"
    },
    {
      "inputs": [
        {
          "internalType": "address",
          "name": "_address",
          "type": "address"
        },
        {
          "internalType": "bool",
          "name": "state",
          "type": "bool"
        }
      ],
      "name": "setWhitelistRewardMultiplier",
      "outputs": [],
      "stateMutability": "nonpayable",
      "type": "function"
    },
    {
      "inputs": [
        {
          "internalType": "address",
          "name": "_address",
          "type": "address"
        },
        {
          "internalType": "bool",
          "name": "state",
          "type": "bool"
        }
      ],
      "name": "setWhitelistRewardRebaser",
      "outputs": [],
      "stateMutability": "nonpayable",
      "type": "function"
    },
    {
      "inputs": [
        {
          "internalType": "address",
          "name": "_address",
          "type": "address"
        },
        {
          "internalType": "int8",
          "name": "state",
          "type": "int8"
        }
      ],
      "name": "setWhitelistStakePool",
      "outputs": [],
      "stateMutability": "nonpayable",
      "type": "function"
    },
    {
      "inputs": [
        {
          "internalType": "address",
          "name": "_address",
          "type": "address"
        },
        {
          "internalType": "bool",
          "name": "state",
          "type": "bool"
        }
      ],
      "name": "setWhitelistStakingFor",
      "outputs": [],
      "stateMutability": "nonpayable",
      "type": "function"
    },
    {
      "inputs": [
        {
          "internalType": "uint256",
          "name": "",
          "type": "uint256"
        }
      ],
      "name": "stakePoolCreators",
      "outputs": [
        {
          "internalType": "address",
          "name": "",
          "type": "address"
        }
      ],
      "stateMutability": "view",
      "type": "function"
    },
    {
      "inputs": [],
      "name": "swapFactory",
      "outputs": [
        {
          "internalType": "contract IIsPair",
          "name": "",
          "type": "address"
        }
      ],
      "stateMutability": "view",
      "type": "function"
    }
  ],
  "bytecode": "0x6080604052600d805462ffffff191661010117905534801561002057600080fd5b50613415806100306000396000f3fe608060405234801561001057600080fd5b50600436106102275760003560e01c80639c97e6a311610130578063c0f72e64116100b8578063dbabcf9a1161007c578063dbabcf9a1461053c578063e7e2686e1461054e578063ea74109e14610561578063f7a441111461058d578063fd1c2fcf146105b057600080fd5b8063c0f72e64146104ae578063c415b95c146104da578063c4d66de8146104ed578063c897776f14610500578063d671b4591461052957600080fd5b8063a5120bd5116100ff578063a5120bd51461043f578063ab033ea914610452578063ae3a60d414610465578063af33341914610488578063bd5b622a1461049b57600080fd5b80639c97e6a3146103c85780639ca9dd51146103db578063a3f0f60f146103ee578063a42dce801461042c57600080fd5b8063393a7484116101b357806369e154041161018257806369e15404146103795780636b392680146103825780637944f944146103955780637a77c6f2146103a857806393a440eb146103bb57600080fd5b8063393a7484146103145780635aa6e675146103405780635c6e2cb714610353578063647846a51461036657600080fd5b806322943612116101fa57806322943612146102a757806325a72109146102ba57806326de2299146102cd5780632bdef6bf146102f85780632f0d5c061461030157600080fd5b80631047a8571461022c57806314f62ea91461026d57806315cce2241461027f5780631e06727914610294575b600080fd5b61025861023a36600461176f565b6001600160a01b031660009081526005602052604090205460ff1690565b60405190151581526020015b60405180910390f35b600c545b604051908152602001610264565b61029261028d36600461176f565b6105c3565b005b6102926102a23660046117a1565b61068c565b6102926102b536600461176f565b610707565b6102926102c83660046117a1565b61088e565b6102e06102db3660046117da565b610936565b6040516001600160a01b039091168152602001610264565b610271600f5481565b61029261030f3660046117a1565b610960565b61025861032236600461176f565b6001600160a01b031660009081526006602052604090205460ff1690565b6001546102e0906001600160a01b031681565b6102e06103613660046117f3565b610a08565b6003546102e0906001600160a01b031681565b61027160045481565b6102926103903660046117da565b610c03565b6000546102e0906001600160a01b031681565b6102926103b63660046118a8565b610c60565b600d546102589060ff1681565b6102926103d63660046118c5565b610c9d565b6102926103e93660046118a8565b610d7e565b6104196103fc36600461176f565b6001600160a01b0316600090815260096020526040812054900b90565b60405160009190910b8152602001610264565b61029261043a36600461176f565b610dc2565b61025861044d36600461176f565b610e5c565b61029261046036600461176f565b610eaf565b61025861047336600461176f565b600a6020526000908152604090205460ff1681565b6102926104963660046117a1565b610f79565b6102586104a936600461176f565b611021565b6102586104bc36600461176f565b6001600160a01b03166000908152600a602052604090205460ff1690565b6002546102e0906001600160a01b031681565b6102926104fb36600461176f565b611066565b6102e061050e3660046117da565b600b602052600090815260409020546001600160a01b031681565b6102926105373660046117da565b6110f4565b600d5461025890610100900460ff1681565b61027161055c36600461176f565b6111b1565b61025861056f36600461176f565b6001600160a01b03166000908152600e602052604090205460ff1690565b61025861059b36600461176f565b600e6020526000908152604090205460ff1681565b6102926105be3660046117a1565b611259565b6001546001600160a01b031633146105f65760405162461bcd60e51b81526004016105ed906118fa565b60405180910390fd5b6001600160a01b0381166106425760405162461bcd60e51b815260206004820152601360248201527229a8219d1034b73b30b634b2102fba37b5b2b760691b60448201526064016105ed565b600380546001600160a01b0319166001600160a01b0383169081179091556040517f0842bcbb92ca6d47ae89816778a843992dff9b876fad009865e1c5df73d46d1f90600090a250565b6001546001600160a01b031633146106b65760405162461bcd60e51b81526004016105ed906118fa565b6001600160a01b0382166106dc5760405162461bcd60e51b81526004016105ed90611924565b6001600160a01b03919091166000908152600e60205260409020805460ff1916911515919091179055565b6001546001600160a01b031633146107315760405162461bcd60e51b81526004016105ed906118fa565b6001600160a01b0381166107575760405162461bcd60e51b81526004016105ed90611924565b6000816001600160a01b03166354fd4d506040518163ffffffff1660e01b8152600401602060405180830381600087803b15801561079457600080fd5b505af11580156107a8573d6000803e3d6000fd5b505050506040513d601f19601f820116820180604052508101906107cc9190611952565b90506103e881101561082b5760405162461bcd60e51b815260206004820152602260248201527f496e76616c6964207374616b6520706f6f6c2063726561746f7220766572736960448201526137b760f11b60648201526084016105ed565b6000818152600b602090815260409182902080546001600160a01b0319166001600160a01b03861690811790915591518381527f6a6096f5ac532df663ae3f06ab81f92e13e1963316c9e53ada5caa47c39ca73f91015b60405180910390a25050565b6001546001600160a01b031633146108b85760405162461bcd60e51b81526004016105ed906118fa565b6001600160a01b0382166108de5760405162461bcd60e51b81526004016105ed90611924565b6001600160a01b0382166000818152600a6020908152604091829020805460ff191685151590811790915591519182527f77c59d7fc4aa81269ea7c0f6866e520725269f9b20b66f81acfd1305a203163c9101610882565b600c818154811061094657600080fd5b6000918252602090912001546001600160a01b0316905081565b6001546001600160a01b0316331461098a5760405162461bcd60e51b81526004016105ed906118fa565b6001600160a01b0382166109b05760405162461bcd60e51b81526004016105ed90611924565b6001600160a01b038216600081815260066020908152604091829020805460ff191685151590811790915591519182527f3b916f9f58a666ff1fee02f431340754e5bb74df23e21fc542ca42cbd06219279101610882565b6000878152600b60205260408120546001600160a01b031680610a7d5760405162461bcd60e51b815260206004820152602760248201527f5350433a20496e76616c6964207374616b6520706f6f6c2063726561746f72206044820152663b32b939b4b7b760c91b60648201526084016105ed565b6000610a88896111b1565b6002549091506001600160a01b031615801590610aaf57506003546001600160a01b031615155b8015610abb5750600081115b15610adf57600354600254610adf916001600160a01b039081169133911684611301565b6000604051610aed9061173d565b604051809103906000f080158015610b09573d6000803e3d6000fd5b5090508715610be5576040516370a0823160e01b815233600482015288906001600160a01b038b16906370a082319060240160206040518083038186803b158015610b5357600080fd5b505afa158015610b67573d6000803e3d6000fd5b505050506040513d601f19601f82011682018060405250810190610b8b9190611952565b1015610bd95760405162461bcd60e51b815260206004820181905260248201527f5350433a204e6f7420656e6f7567682072657761726446756e64416d6f756e7460448201526064016105ed565b610be58933838b611301565b610bf4838b838c8b8b8b611431565b9b9a5050505050505050505050565b6001546001600160a01b03163314610c2d5760405162461bcd60e51b81526004016105ed906118fa565b600481905560405181907fd854f702b4e23ab27557a75b5b4e72066f8ab6929930f813720339c72eaa8b6390600090a250565b6001546001600160a01b03163314610c8a5760405162461bcd60e51b81526004016105ed906118fa565b600d805460ff1916911515919091179055565b6001600160a01b038216610cc35760405162461bcd60e51b81526004016105ed90611924565b336000908152600a602052604090205460ff161515600114610d275760405162461bcd60e51b815260206004820181905260248201527f5350433a20696e76616c6964207374616b6520706f6f6c20766572696669657260448201526064016105ed565b6001600160a01b0382166000818152600960209081526040808320805460ff191660ff8716179055519184900b82527ff612269986bc6d299c312815bdab8f8f9f01ba9047885463a0fe56f5a4d01f419101610882565b6001546001600160a01b03163314610da85760405162461bcd60e51b81526004016105ed906118fa565b600d80549115156101000261ff0019909216919091179055565b6001546001600160a01b03163314610dec5760405162461bcd60e51b81526004016105ed906118fa565b6001600160a01b038116610e125760405162461bcd60e51b81526004016105ed90611924565b600280546001600160a01b0319166001600160a01b0383169081179091556040517fd649da8f6092116f86ea4e5139de0b75ad371d823918d16368ba3ff09a5cbc9f90600090a250565b600d54600090610100900460ff16610e7657506001919050565b6001600160a01b03821615610ea6576001600160a01b03821660009081526008602052604090205460ff16610ea9565b60015b92915050565b6001546001600160a01b03163314610ed95760405162461bcd60e51b81526004016105ed906118fa565b6001600160a01b038116610f2f5760405162461bcd60e51b815260206004820152601760248201527f5350433a20696e76616c696420676f7665726e616e636500000000000000000060448201526064016105ed565b600180546001600160a01b0319166001600160a01b0383169081179091556040517f13079bd259b6c430f434e223f09ff073409b818146629085e53378cf536d3ce890600090a250565b6001546001600160a01b03163314610fa35760405162461bcd60e51b81526004016105ed906118fa565b6001600160a01b038216610fc95760405162461bcd60e51b81526004016105ed90611924565b6001600160a01b038216600081815260076020908152604091829020805460ff191685151590811790915591519182527f5edfdd2e2097af35bace0d40492d5f9f03cf3bd715261fde4ee191e9207d72e29101610882565b600d5460009060ff1661103657506001919050565b6001600160a01b03821615610ea6576001600160a01b03821660009081526007602052604090205460ff16610ea9565b600d5462010000900460ff16156110b25760405162461bcd60e51b815260206004820152601060248201526f14d410ce881a5b9a5d1a585b1a5e995960821b60448201526064016105ed565b600180546001600160a01b03199081163317909155600080546001600160a01b039390931692909116919091179055600d805462ff0000191662010000179055565b6001546001600160a01b0316331461111e5760405162461bcd60e51b81526004016105ed906118fa565b6103e88110158015611132575061c3508111155b61117e5760405162461bcd60e51b815260206004820152601a60248201527f5350433a20696e76616c6964205f65787472614665655261746500000000000060448201526064016105ed565b600f81905560405181907faddb414e6e07b38602cd55188972aef90aaa93ae3ef76e115ccfa0fccce3225b90600090a250565b6000805460405163e5e31b1360e01b81526001600160a01b0384811660048301529091169063e5e31b139060240160206040518083038186803b1580156111f757600080fd5b505afa15801561120b573d6000803e3d6000fd5b505050506040513d601f19601f8201168201806040525081019061122f919061196b565b1561123c57505060045490565b6103e8600f5460045461124f9190611988565b610ea991906119b5565b6001546001600160a01b031633146112835760405162461bcd60e51b81526004016105ed906118fa565b6001600160a01b0382166112a95760405162461bcd60e51b81526004016105ed90611924565b6001600160a01b038216600081815260086020908152604091829020805460ff191685151590811790915591519182527f4c41ad10dd097dc116b8169ab8fe174c349e1890aceee2cd9eaaba320ee543d19101610882565b604080516001600160a01b0385811660248301528481166044830152606480830185905283518084039091018152608490920183526020820180516001600160e01b03166323b872dd60e01b179052915160009283929088169161136591906119d7565b6000604051808303816000865af19150503d80600081146113a2576040519150601f19603f3d011682016040523d82523d6000602084013e6113a7565b606091505b50915091508180156113d15750805115806113d15750808060200190518101906113d1919061196b565b6114295760405162461bcd60e51b8152602060048201526024808201527f5472616e7366657248656c7065723a205452414e534645525f46524f4d5f46416044820152631253115160e21b60648201526084016105ed565b505050505050565b6000806040516114409061174a565b604051809103906000f08015801561145c573d6000803e3d6000fd5b5090506000896001600160a01b031663efc81a8c6040518163ffffffff1660e01b8152600401602060405180830381600087803b15801561149c57600080fd5b505af11580156114b0573d6000803e3d6000fd5b505050506040513d601f19601f820116820180604052508101906114d49190611a12565b600c805460018082019092557fdf6966c971051c3d54ec59162606531493a51404a002842f56009d7e5cf4a8c70180546001600160a01b0319166001600160a01b03848116918217909255600081815260056020908152604091829020805460ff1916909517909455805163054fd4d560e41b81529051949550918d169390927f093fc7d12adac15861090201060d4995cb324c50b86da4e418eb3553c056dc169284926354fd4d5092600480840193919291829003018186803b15801561159b57600080fd5b505afa1580156115af573d6000803e3d6000fd5b505050506040513d601f19601f820116820180604052508101906115d39190611952565b600c54604080519283526001600160a01b0380891660208501528e1690830152606082015260800160405180910390a360405162fbcfdb60e11b81526001600160a01b038b16906301f79fb69061163a9084908d908c9088908f908d908d90600401611a2f565b600060405180830381600087803b15801561165457600080fd5b505af1158015611668573d6000803e3d6000fd5b505060405163485cc95560e01b81526001600160a01b03848116600483015285811660248301528b16925063485cc9559150604401600060405180830381600087803b1580156116b757600080fd5b505af11580156116cb573d6000803e3d6000fd5b505060405163cd6dc68760e01b8152336004820152602481018990526001600160a01b038516925063cd6dc6879150604401600060405180830381600087803b15801561171757600080fd5b505af115801561172b573d6000803e3d6000fd5b50929c9b505050505050505050505050565b6106b180611a9783390190565b6112988061214883390190565b6001600160a01b038116811461176c57600080fd5b50565b60006020828403121561178157600080fd5b813561178c81611757565b9392505050565b801515811461176c57600080fd5b600080604083850312156117b457600080fd5b82356117bf81611757565b915060208301356117cf81611793565b809150509250929050565b6000602082840312156117ec57600080fd5b5035919050565b600080600080600080600060c0888a03121561180e57600080fd5b87359650602088013561182081611757565b9550604088013561183081611757565b9450606088013593506080880135925060a088013567ffffffffffffffff8082111561185b57600080fd5b818a0191508a601f83011261186f57600080fd5b81358181111561187e57600080fd5b8b602082850101111561189057600080fd5b60208301945080935050505092959891949750929550565b6000602082840312156118ba57600080fd5b813561178c81611793565b600080604083850312156118d857600080fd5b82356118e381611757565b91506020830135600081900b81146117cf57600080fd5b60208082526010908201526f5350433a2021676f7665726e616e636560801b604082015260600190565b6020808252601490820152735350433a20696e76616c6964206164647265737360601b604082015260600190565b60006020828403121561196457600080fd5b5051919050565b60006020828403121561197d57600080fd5b815161178c81611793565b60008160001904831182151516156119b057634e487b7160e01b600052601160045260246000fd5b500290565b6000826119d257634e487b7160e01b600052601260045260246000fd5b500490565b6000825160005b818110156119f857602081860181015185830152016119de565b81811115611a07576000828501525b509190910192915050565b600060208284031215611a2457600080fd5b815161178c81611757565b6001600160a01b0388811682528781166020830152868116604083015285811660608301528416608082015260c060a0820181905281018290526000828460e0840137600060e0848401015260e0601f19601f85011683010190509897505050505050505056fe608060405234801561001057600080fd5b50610691806100206000396000f3fe608060405234801561001057600080fd5b506004361061007d5760003560e01c8063afb9d3ca1161005b578063afb9d3ca146100d2578063d1660f99146100e5578063d33219b4146100f8578063f8ea47561461012357600080fd5b80630c612694146100825780633468a5b814610097578063485cc955146100bf575b600080fd5b610095610090366004610554565b610136565b005b6100aa6100a5366004610590565b610216565b60405190151581526020015b60405180910390f35b6100956100cd3660046105b2565b61029a565b6100956100e03660046105b2565b610340565b6100956100f3366004610554565b6103c3565b60015461010b906001600160a01b031681565b6040516001600160a01b0390911681526020016100b6565b60005461010b906001600160a01b031681565b6001546001600160a01b031633146101955760405162461bcd60e51b815260206004820152601e60248201527f5374616b65506f6f6c52657761726446756e643a202174696d656c6f636b000060448201526064015b60405180910390fd5b61019e83610216565b6102065760405162461bcd60e51b815260206004820152603360248201527f5374616b65506f6f6c52657761726446756e643a206e6f7420616c6c6f77207260448201527232b1b7bb32b9103932bbb0b932103a37b5b2b760691b606482015260840161018c565b61021183838361041d565b505050565b6000805460405163068d14b760e31b81526001600160a01b03848116600483015290911690633468a5b89060240160206040518083038186803b15801561025c57600080fd5b505afa158015610270573d6000803e3d6000fd5b505050506040513d601f19601f8201168201806040525081019061029491906105e5565b92915050565b600154600160a01b900460ff16156103055760405162461bcd60e51b815260206004820152602860248201527f5374616b65506f6f6c52657761726446756e643a20616c726561647920696e696044820152671d1a585b1a5e995960c21b606482015260840161018c565b600080546001600160a01b039384166001600160a01b0319909116179055600180546001600160a81b0319169190921617600160a01b179055565b6040516370a0823160e01b81523060048201526103bf90839083906001600160a01b038316906370a082319060240160206040518083038186803b15801561038757600080fd5b505afa15801561039b573d6000803e3d6000fd5b505050506040513d601f19601f820116820180604052508101906100909190610607565b5050565b6000546001600160a01b031633146102065760405162461bcd60e51b815260206004820152601f60248201527f5374616b65506f6f6c52657761726446756e643a20217374616b65506f6f6c00604482015260640161018c565b604080516001600160a01b038481166024830152604480830185905283518084039091018152606490920183526020820180516001600160e01b031663a9059cbb60e01b17905291516000928392908716916104799190610620565b6000604051808303816000865af19150503d80600081146104b6576040519150601f19603f3d011682016040523d82523d6000602084013e6104bb565b606091505b50915091508180156104e55750805115806104e55750808060200190518101906104e591906105e5565b6105315760405162461bcd60e51b815260206004820152601f60248201527f5472616e7366657248656c7065723a205452414e534645525f4641494c454400604482015260640161018c565b5050505050565b80356001600160a01b038116811461054f57600080fd5b919050565b60008060006060848603121561056957600080fd5b61057284610538565b925061058060208501610538565b9150604084013590509250925092565b6000602082840312156105a257600080fd5b6105ab82610538565b9392505050565b600080604083850312156105c557600080fd5b6105ce83610538565b91506105dc60208401610538565b90509250929050565b6000602082840312156105f757600080fd5b815180151581146105ab57600080fd5b60006020828403121561061957600080fd5b5051919050565b6000825160005b818110156106415760208186018101518583015201610627565b81811115610650576000828501525b50919091019291505056fea2646970667358221220d09788dd21e7bb6c957a154ebb8a2c3c6525ec3918812d9c7b36b7a67391a7be64736f6c63430008090033608060405234801561001057600080fd5b506003805460ff19908116909155600080549091169055611262806100366000396000f3fe6080604052600436106100ec5760003560e01c80636fc1f57e1161008a578063cd6dc68711610059578063cd6dc68714610263578063e177246e14610283578063f2b06537146102a3578063f851a440146102d357600080fd5b80636fc1f57e146101f45780637d645fab1461021e578063b1b43ae514610235578063c1a287e21461024c57600080fd5b80633a66f901116100c65780633a66f901146101705780634dd18bf51461019e578063591fcdfe146101be5780636a42b8f8146101de57600080fd5b80630825f38f146100f85780630e18b68114610121578063267822471461013857600080fd5b366100f357005b600080fd5b61010b610106366004610ee1565b6102f8565b6040516101189190610fee565b60405180910390f35b34801561012d57600080fd5b5061013661066e565b005b34801561014457600080fd5b50600154610158906001600160a01b031681565b6040516001600160a01b039091168152602001610118565b34801561017c57600080fd5b5061019061018b366004610ee1565b610751565b604051908152602001610118565b3480156101aa57600080fd5b506101366101b9366004611001565b610909565b3480156101ca57600080fd5b506101366101d9366004610ee1565b610a6b565b3480156101ea57600080fd5b5061019060025481565b34801561020057600080fd5b5060035461020e9060ff1681565b6040519015158152602001610118565b34801561022a57600080fd5b5061019062278d0081565b34801561024157600080fd5b506101906201518081565b34801561025857600080fd5b506101906212750081565b34801561026f57600080fd5b5061013661027e36600461101c565b610b8a565b34801561028f57600080fd5b5061013661029e366004611046565b610cce565b3480156102af57600080fd5b5061020e6102be366004611046565b60046020526000908152604090205460ff1681565b3480156102df57600080fd5b506000546101589061010090046001600160a01b031681565b60005460609061010090046001600160a01b031633146103855760405162461bcd60e51b815260206004820152603860248201527f54696d656c6f636b3a3a657865637574655472616e73616374696f6e3a20436160448201527f6c6c206d75737420636f6d652066726f6d2061646d696e2e000000000000000060648201526084015b60405180910390fd5b600086868686866040516020016103a095949392919061105f565b60408051601f1981840301815291815281516020928301206000818152600490935291205490915060ff1661042b5760405162461bcd60e51b815260206004820152603d602482015260008051602061120d83398151915260448201527f616e73616374696f6e206861736e2774206265656e207175657565642e000000606482015260840161037c565b8242101561049d5760405162461bcd60e51b8152602060048201526045602482015260008051602061120d83398151915260448201527f616e73616374696f6e206861736e2774207375727061737365642074696d65206064820152643637b1b59760d91b608482015260a40161037c565b6104aa8362127500610db0565b4211156105035760405162461bcd60e51b8152602060048201526033602482015260008051602061120d83398151915260448201527230b739b0b1ba34b7b71034b99039ba30b6329760691b606482015260840161037c565b6000818152600460205260409020805460ff191690558451606090610529575083610555565b8580519060200120856040516020016105439291906110ab565b60405160208183030381529060405290505b600080896001600160a01b0316898460405161057191906110dc565b60006040518083038185875af1925050503d80600081146105ae576040519150601f19603f3d011682016040523d82523d6000602084013e6105b3565b606091505b5091509150816106195760405162461bcd60e51b815260206004820152603d602482015260008051602061120d83398151915260448201527f616e73616374696f6e20657865637574696f6e2072657665727465642e000000606482015260840161037c565b896001600160a01b0316847fa560e3198060a2f10670c1ec5b403077ea6ae93ca8de1c32b451dc1a943cd6e78b8b8b8b60405161065994939291906110f8565b60405180910390a39998505050505050505050565b6001546001600160a01b031633146106ee5760405162461bcd60e51b815260206004820152603860248201527f54696d656c6f636b3a3a61636365707441646d696e3a2043616c6c206d75737460448201527f20636f6d652066726f6d2070656e64696e6741646d696e2e0000000000000000606482015260840161037c565b60008054610100338102610100600160a81b031990921691909117808355600180546001600160a01b03191690556040519190046001600160a01b0316917f71614071b88dee5e0b2ae578a9dd7b2ebbe9ae832ba419dc0242cd065a290b6c91a2565b6000805461010090046001600160a01b031633146107d05760405162461bcd60e51b815260206004820152603660248201527f54696d656c6f636b3a3a71756575655472616e73616374696f6e3a2043616c6c6044820152751036bab9ba1031b7b6b290333937b69030b236b4b71760511b606482015260840161037c565b6107e36002546107dd4290565b90610db0565b82101561086a5760405162461bcd60e51b815260206004820152604960248201527f54696d656c6f636b3a3a71756575655472616e73616374696f6e3a204573746960448201527f6d6174656420657865637574696f6e20626c6f636b206d757374207361746973606482015268333c903232b630bc9760b91b608482015260a40161037c565b6000868686868660405160200161088595949392919061105f565b60408051601f19818403018152828252805160209182012060008181526004909252919020805460ff1916600117905591506001600160a01b0388169082907f76e2796dc3a81d57b0e8504b647febcbeeb5f4af818e164f11eef8131a6a763f906108f7908a908a908a908a906110f8565b60405180910390a39695505050505050565b60035460ff161561098e573330146109895760405162461bcd60e51b815260206004820152603860248201527f54696d656c6f636b3a3a73657450656e64696e6741646d696e3a2043616c6c2060448201527f6d75737420636f6d652066726f6d2054696d656c6f636b2e0000000000000000606482015260840161037c565b610a21565b60005461010090046001600160a01b03163314610a135760405162461bcd60e51b815260206004820152603b60248201527f54696d656c6f636b3a3a73657450656e64696e6741646d696e3a20466972737460448201527f2063616c6c206d75737420636f6d652066726f6d2061646d696e2e0000000000606482015260840161037c565b6003805460ff191660011790555b600180546001600160a01b0319166001600160a01b0383169081179091556040517f69d78e38a01985fbb1462961809b4b2d65531bc93b2b94037f3334b82ca4a75690600090a250565b60005461010090046001600160a01b03163314610af05760405162461bcd60e51b815260206004820152603760248201527f54696d656c6f636b3a3a63616e63656c5472616e73616374696f6e3a2043616c60448201527f6c206d75737420636f6d652066726f6d2061646d696e2e000000000000000000606482015260840161037c565b60008585858585604051602001610b0b95949392919061105f565b60408051601f19818403018152828252805160209182012060008181526004909252919020805460ff1916905591506001600160a01b0387169082907f2fffc091a501fd91bfbff27141450d3acb40fb8e6d8382b243ec7a812a3aaf8790610b7a9089908990899089906110f8565b60405180910390a3505050505050565b60005460ff1615610bf75760405162461bcd60e51b815260206004820152603160248201527f54696d656c6f636b3a3a636f6e7374727563746f723a20496e697469616c697a60448201527032b21036bab9ba103132903330b639b29760791b606482015260840161037c565b62015180811015610c1a5760405162461bcd60e51b815260040161037c90611135565b62278d00811115610c3d5760405162461bcd60e51b815260040161037c90611189565b60028190556000805460016001600160a81b03199091166101006001600160a01b03868116820260ff1916929092179290921780845560405192900416917f71614071b88dee5e0b2ae578a9dd7b2ebbe9ae832ba419dc0242cd065a290b6c91a26002546040517f948b1f6a42ee138b7e34058ba85a37f716d55ff25ff05a763f15bed6a04c8d2c90600090a25050565b333014610d375760405162461bcd60e51b815260206004820152603160248201527f54696d656c6f636b3a3a73657444656c61793a2043616c6c206d75737420636f60448201527036b290333937b6902a34b6b2b637b1b59760791b606482015260840161037c565b62015180811015610d5a5760405162461bcd60e51b815260040161037c90611135565b62278d00811115610d7d5760405162461bcd60e51b815260040161037c90611189565b600281905560405181907f948b1f6a42ee138b7e34058ba85a37f716d55ff25ff05a763f15bed6a04c8d2c90600090a250565b600080610dbd83856111e6565b9050610dcd848210156000610dd4565b9392505050565b81610de257610de281610de6565b5050565b62461bcd60e51b6000908152602060045260076024526642414c23000030600a808404818106603090810160081b95839006959095019082900491820690940160101b939093010160c81b604452606490fd5b80356001600160a01b0381168114610e5057600080fd5b919050565b634e487b7160e01b600052604160045260246000fd5b600067ffffffffffffffff80841115610e8657610e86610e55565b604051601f8501601f19908116603f01168101908282118183101715610eae57610eae610e55565b81604052809350858152868686011115610ec757600080fd5b858560208301376000602087830101525050509392505050565b600080600080600060a08688031215610ef957600080fd5b610f0286610e39565b945060208601359350604086013567ffffffffffffffff80821115610f2657600080fd5b818801915088601f830112610f3a57600080fd5b610f4989833560208501610e6b565b94506060880135915080821115610f5f57600080fd5b508601601f81018813610f7157600080fd5b610f8088823560208401610e6b565b95989497509295608001359392505050565b60005b83811015610fad578181015183820152602001610f95565b83811115610fbc576000848401525b50505050565b60008151808452610fda816020860160208601610f92565b601f01601f19169290920160200192915050565b602081526000610dcd6020830184610fc2565b60006020828403121561101357600080fd5b610dcd82610e39565b6000806040838503121561102f57600080fd5b61103883610e39565b946020939093013593505050565b60006020828403121561105857600080fd5b5035919050565b60018060a01b038616815284602082015260a06040820152600061108660a0830186610fc2565b82810360608401526110988186610fc2565b9150508260808301529695505050505050565b6001600160e01b03198316815281516000906110ce816004850160208701610f92565b919091016004019392505050565b600082516110ee818460208701610f92565b9190910192915050565b8481526080602082015260006111116080830186610fc2565b82810360408401526111238186610fc2565b91505082606083015295945050505050565b60208082526034908201527f54696d656c6f636b3a3a73657444656c61793a2044656c6179206d75737420656040820152733c31b2b2b21036b4b734b6bab6903232b630bc9760611b606082015260800190565b60208082526038908201527f54696d656c6f636b3a3a73657444656c61793a2044656c6179206d757374206e60408201527f6f7420657863656564206d6178696d756d2064656c61792e0000000000000000606082015260800190565b6000821982111561120757634e487b7160e01b600052601160045260246000fd5b50019056fe54696d656c6f636b3a3a657865637574655472616e73616374696f6e3a205472a26469706673582212204088a56250b9841ea6baf5b1fcb40adfb9795776a576e132986625946e0c3a3364736f6c63430008090033a2646970667358221220acf04280e2000263bb1172c0c9c08d998ae4f598b564f0769739775eceadc19564736f6c63430008090033",
  "linkReferences": {},
  "deployedLinkReferences": {}
}